{
  "_format": "hh-sol-artifact-1",
  "contractName": "ZDAOModule",
  "sourceName": "contracts/GnosisSafe/ZDAOModule.sol",
  "abi": [
    {
      "inputs": [
        {
          "internalType": "address",
          "name": "guard_",
          "type": "address"
        }
      ],
      "name": "NotIERC165Compliant",
      "type": "error"
    },
    {
      "anonymous": false,
      "inputs": [
        {
          "indexed": false,
          "internalType": "address",
          "name": "previousAdmin",
          "type": "address"
        },
        {
          "indexed": false,
          "internalType": "address",
          "name": "newAdmin",
          "type": "address"
        }
      ],
      "name": "AdminChanged",
      "type": "event"
    },
    {
      "anonymous": false,
      "inputs": [
        {
          "indexed": true,
          "internalType": "address",
          "name": "previousAvatar",
          "type": "address"
        },
        {
          "indexed": true,
          "internalType": "address",
          "name": "newAvatar",
          "type": "address"
        }
      ],
      "name": "AvatarSet",
      "type": "event"
    },
    {
      "anonymous": false,
      "inputs": [
        {
          "indexed": true,
          "internalType": "address",
          "name": "beacon",
          "type": "address"
        }
      ],
      "name": "BeaconUpgraded",
      "type": "event"
    },
    {
      "anonymous": false,
      "inputs": [
        {
          "indexed": false,
          "internalType": "address",
          "name": "guard",
          "type": "address"
        }
      ],
      "name": "ChangedGuard",
      "type": "event"
    },
    {
      "anonymous": false,
      "inputs": [
        {
          "indexed": true,
          "internalType": "address",
          "name": "previousOwner",
          "type": "address"
        },
        {
          "indexed": true,
          "internalType": "address",
          "name": "newOwner",
          "type": "address"
        }
      ],
      "name": "OwnershipTransferred",
      "type": "event"
    },
    {
      "anonymous": false,
      "inputs": [
        {
          "indexed": true,
          "internalType": "uint256",
          "name": "_platformType",
          "type": "uint256"
        },
        {
          "indexed": false,
          "internalType": "string",
          "name": "_proposalId",
          "type": "string"
        },
        {
          "indexed": false,
          "internalType": "address",
          "name": "_token",
          "type": "address"
        },
        {
          "indexed": false,
          "internalType": "address",
          "name": "_to",
          "type": "address"
        },
        {
          "indexed": false,
          "internalType": "uint256",
          "name": "_amount",
          "type": "uint256"
        }
      ],
      "name": "ProposalExecuted",
      "type": "event"
    },
    {
      "anonymous": false,
      "inputs": [
        {
          "indexed": true,
          "internalType": "address",
          "name": "previousTarget",
          "type": "address"
        },
        {
          "indexed": true,
          "internalType": "address",
          "name": "newTarget",
          "type": "address"
        }
      ],
      "name": "TargetSet",
      "type": "event"
    },
    {
      "anonymous": false,
      "inputs": [
        {
          "indexed": true,
          "internalType": "address",
          "name": "implementation",
          "type": "address"
        }
      ],
      "name": "Upgraded",
      "type": "event"
    },
    {
      "inputs": [
        {
          "internalType": "address",
          "name": "_gnosisSafeProxy",
          "type": "address"
        },
        {
          "internalType": "address",
          "name": "_organizer",
          "type": "address"
        }
      ],
      "name": "__ZDAOModule_init",
      "outputs": [],
      "stateMutability": "nonpayable",
      "type": "function"
    },
    {
      "inputs": [],
      "name": "avatar",
      "outputs": [
        {
          "internalType": "address",
          "name": "",
          "type": "address"
        }
      ],
      "stateMutability": "view",
      "type": "function"
    },
    {
      "inputs": [
        {
          "internalType": "uint256",
          "name": "_platformType",
          "type": "uint256"
        },
        {
          "internalType": "string",
          "name": "_proposalId",
          "type": "string"
        },
        {
          "internalType": "address",
          "name": "_token",
          "type": "address"
        },
        {
          "internalType": "address",
          "name": "_to",
          "type": "address"
        },
        {
          "internalType": "uint256",
          "name": "_amount",
          "type": "uint256"
        }
      ],
      "name": "executeProposal",
      "outputs": [],
      "stateMutability": "nonpayable",
      "type": "function"
    },
    {
      "inputs": [],
      "name": "getGuard",
      "outputs": [
        {
          "internalType": "address",
          "name": "_guard",
          "type": "address"
        }
      ],
      "stateMutability": "view",
      "type": "function"
    },
    {
      "inputs": [],
      "name": "guard",
      "outputs": [
        {
          "internalType": "address",
          "name": "",
          "type": "address"
        }
      ],
      "stateMutability": "view",
      "type": "function"
    },
    {
      "inputs": [
        {
          "internalType": "uint256",
          "name": "_platformType",
          "type": "uint256"
        },
        {
          "internalType": "string",
          "name": "_proposalId",
          "type": "string"
        }
      ],
      "name": "isProposalExecuted",
      "outputs": [
        {
          "internalType": "bool",
          "name": "",
          "type": "bool"
        }
      ],
      "stateMutability": "view",
      "type": "function"
    },
    {
      "inputs": [],
      "name": "owner",
      "outputs": [
        {
          "internalType": "address",
          "name": "",
          "type": "address"
        }
      ],
      "stateMutability": "view",
      "type": "function"
    },
    {
      "inputs": [
        {
          "internalType": "uint256",
          "name": "",
          "type": "uint256"
        }
      ],
      "name": "proposals",
      "outputs": [
        {
          "internalType": "uint256",
          "name": "platformType",
          "type": "uint256"
        },
        {
          "internalType": "string",
          "name": "proposalId",
          "type": "string"
        },
        {
          "internalType": "address",
          "name": "token",
          "type": "address"
        },
        {
          "internalType": "address",
          "name": "to",
          "type": "address"
        },
        {
          "internalType": "uint256",
          "name": "amount",
          "type": "uint256"
        },
        {
          "internalType": "bool",
          "name": "executed",
          "type": "bool"
        }
      ],
      "stateMutability": "view",
      "type": "function"
    },
    {
      "inputs": [],
      "name": "renounceOwnership",
      "outputs": [],
      "stateMutability": "nonpayable",
      "type": "function"
    },
    {
      "inputs": [
        {
          "internalType": "address",
          "name": "_avatar",
          "type": "address"
        }
      ],
      "name": "setAvatar",
      "outputs": [],
      "stateMutability": "nonpayable",
      "type": "function"
    },
    {
      "inputs": [
        {
          "internalType": "address",
          "name": "_guard",
          "type": "address"
        }
      ],
      "name": "setGuard",
      "outputs": [],
      "stateMutability": "nonpayable",
      "type": "function"
    },
    {
      "inputs": [
        {
          "internalType": "address",
          "name": "_target",
          "type": "address"
        }
      ],
      "name": "setTarget",
      "outputs": [],
      "stateMutability": "nonpayable",
      "type": "function"
    },
    {
      "inputs": [
        {
          "internalType": "bytes",
          "name": "_initializeParams",
          "type": "bytes"
        }
      ],
      "name": "setUp",
      "outputs": [],
      "stateMutability": "nonpayable",
      "type": "function"
    },
    {
      "inputs": [],
      "name": "target",
      "outputs": [
        {
          "internalType": "address",
          "name": "",
          "type": "address"
        }
      ],
      "stateMutability": "view",
      "type": "function"
    },
    {
      "inputs": [
        {
          "internalType": "address",
          "name": "newOwner",
          "type": "address"
        }
      ],
      "name": "transferOwnership",
      "outputs": [],
      "stateMutability": "nonpayable",
      "type": "function"
    },
    {
      "inputs": [
        {
          "internalType": "address",
          "name": "newImplementation",
          "type": "address"
        }
      ],
      "name": "upgradeTo",
      "outputs": [],
      "stateMutability": "nonpayable",
      "type": "function"
    },
    {
      "inputs": [
        {
          "internalType": "address",
          "name": "newImplementation",
          "type": "address"
        },
        {
          "internalType": "bytes",
          "name": "data",
          "type": "bytes"
        }
      ],
      "name": "upgradeToAndCall",
      "outputs": [],
      "stateMutability": "payable",
      "type": "function"
    }
  ],
  "bytecode": "0x60a06040523060805234801561001457600080fd5b50608051611af6610045600039600081816104ab015281816104eb0152818161057401526105b40152611af66000f3fe6080604052600436106100fe5760003560e01c80637ceab3b111610095578063b4a3ffb811610064578063b4a3ffb81461029e578063c9106389146102ce578063d4b83992146102ec578063e19a9dd91461030c578063f2fde38b1461032c57600080fd5b80637ceab3b1146102205780638da5cb5b14610240578063a4f9edbf1461025e578063ae068c3b1461027e57600080fd5b80635aef7de6116100d15780635aef7de61461019357806363c514a2146101cb578063715018a6146101eb578063776d1a011461020057600080fd5b8063013cf08b14610103578063086cfca81461013e5780633659cfe6146101605780634f1ef28614610180575b600080fd5b34801561010f57600080fd5b5061012361011e366004611466565b61034c565b604051610135969594939291906114db565b60405180910390f35b34801561014a57600080fd5b5061015e610159366004611539565b61041b565b005b34801561016c57600080fd5b5061015e61017b366004611539565b6104a0565b61015e61018e3660046115f9565b610569565b34801561019f57600080fd5b506066546101b3906001600160a01b031681565b6040516001600160a01b039091168152602001610135565b3480156101d757600080fd5b5061015e6101e6366004611692565b610623565b3480156101f757600080fd5b5061015e610800565b34801561020c57600080fd5b5061015e61021b366004611539565b610836565b34801561022c57600080fd5b506065546101b3906001600160a01b031681565b34801561024c57600080fd5b506033546001600160a01b03166101b3565b34801561026a57600080fd5b5061015e61027936600461170e565b6108b2565b34801561028a57600080fd5b5061015e610299366004611743565b610951565b3480156102aa57600080fd5b506102be6102b936600461177c565b6109f9565b6040519015158152602001610135565b3480156102da57600080fd5b506065546001600160a01b03166101b3565b3480156102f857600080fd5b506067546101b3906001600160a01b031681565b34801561031857600080fd5b5061015e610327366004611539565b610a5c565b34801561033857600080fd5b5061015e610347366004611539565b610b8f565b60cc602052600090815260409020805460018201805491929161036e906117c8565b80601f016020809104026020016040519081016040528092919081815260200182805461039a906117c8565b80156103e75780601f106103bc576101008083540402835291602001916103e7565b820191906000526020600020905b8154815290600101906020018083116103ca57829003601f168201915b5050505060028301546003840154600485015460059095015493946001600160a01b03928316949290911692509060ff1686565b6033546001600160a01b0316331461044e5760405162461bcd60e51b815260040161044590611803565b60405180910390fd5b606680546001600160a01b038381166001600160a01b0319831681179093556040519116919082907f52ae88b092de36f87fb43fe794eb1381023b9c1bce563a871154022c63dce34290600090a35050565b306001600160a01b037f00000000000000000000000000000000000000000000000000000000000000001614156104e95760405162461bcd60e51b815260040161044590611838565b7f00000000000000000000000000000000000000000000000000000000000000006001600160a01b031661051b610c27565b6001600160a01b0316146105415760405162461bcd60e51b815260040161044590611884565b61054a81610c55565b6040805160008082526020820190925261056691839190610c7f565b50565b306001600160a01b037f00000000000000000000000000000000000000000000000000000000000000001614156105b25760405162461bcd60e51b815260040161044590611838565b7f00000000000000000000000000000000000000000000000000000000000000006001600160a01b03166105e4610c27565b6001600160a01b03161461060a5760405162461bcd60e51b815260040161044590611884565b61061382610c55565b61061f82826001610c7f565b5050565b6066546001600160a01b0316331461067d5760405162461bcd60e51b815260206004820152601b60248201527f4f6e6c792063616c6c61626c6520627920476e6f7369735361666500000000006044820152606401610445565b60006001600160a01b0384161561069e57610699848484610dca565b6106a8565b6106a88383610e2a565b905080156107f75760006106f28888888080601f016020809104026020016040519081016040528093929190818152602001838380828437600092019190915250610e4992505050565b90506040518060c0016040528089815260200188888080601f01602080910402602001604051908101604052809392919081815260200183838082843760009201829052509385525050506001600160a01b03808916602080850191909152908816604080850191909152606084018890526001608090940184905285835260cc825290912083518155838201518051919361079493908501929101906113cd565b5060408201516002820180546001600160a01b039283166001600160a01b03199182161790915560608401516003840180549190931691161790556080820151600482015560a0909101516005909101805491151560ff19909216919091179055505b50505050505050565b6033546001600160a01b0316331461082a5760405162461bcd60e51b815260040161044590611803565b6108346000610e7d565b565b6033546001600160a01b031633146108605760405162461bcd60e51b815260040161044590611803565b606780546001600160a01b038381166001600160a01b0319831681179093556040519116919082907f90cc2f570a6eb594b1580ea3e41247d2d73a55281889e86bd4ec2fc29c7e62d690600090a35050565b600054610100900460ff16806108cb575060005460ff16155b6108e75760405162461bcd60e51b8152600401610445906118d0565b600054610100900460ff16158015610909576000805461ffff19166101011790555b610911610ecf565b600082806020019051810190610927919061191e565b90506109328161041b565b61093b81610836565b50801561061f576000805461ff00191690555050565b600054610100900460ff168061096a575060005460ff16155b6109865760405162461bcd60e51b8152600401610445906118d0565b600054610100900460ff161580156109a8576000805461ffff19166101011790555b6109b0610ecf565b604080516001600160a01b03851660208201526000910160405160208183030381529060405290506109e1816108b2565b5080156109f4576000805461ff00191690555b505050565b600080610a3c8585858080601f016020809104026020016040519081016040528093929190818152602001838380828437600092019190915250610e4992505050565b600090815260cc602052604090206005015460ff169150505b9392505050565b6033546001600160a01b03163314610a865760405162461bcd60e51b815260040161044590611803565b6001600160a01b03811615610b3b576040516301ffc9a760e01b815263736bd41d60e11b60048201526001600160a01b038216906301ffc9a79060240160206040518083038186803b158015610adb57600080fd5b505afa158015610aef573d6000803e3d6000fd5b505050506040513d601f19601f82011682018060405250810190610b13919061193b565b610b3b576040516358b7533f60e11b81526001600160a01b0382166004820152602401610445565b606580546001600160a01b0319166001600160a01b0383169081179091556040519081527f1151116914515bc0891ff9047a6cb32cf902546f83066499bcf8ba33d2353fa29060200160405180910390a150565b6033546001600160a01b03163314610bb95760405162461bcd60e51b815260040161044590611803565b6001600160a01b038116610c1e5760405162461bcd60e51b815260206004820152602660248201527f4f776e61626c653a206e6577206f776e657220697320746865207a65726f206160448201526564647265737360d01b6064820152608401610445565b61056681610e7d565b7f360894a13ba1a3210667c828492db98dca3e2076cc3735a920a3ca505d382bbc546001600160a01b031690565b6033546001600160a01b031633146105665760405162461bcd60e51b815260040161044590611803565b6000610c89610c27565b9050610c9484610f4a565b600083511180610ca15750815b15610cb257610cb08484610fef565b505b7f4910fdfa16fed3260ed0e7147f7cc6da11a60208b5b9406d12a635614ffd9143805460ff16610dc357805460ff191660011781556040516001600160a01b0383166024820152610d3190869060440160408051601f198184030181529190526020810180516001600160e01b0316631b2ce7f360e11b179052610fef565b50805460ff19168155610d42610c27565b6001600160a01b0316826001600160a01b031614610dba5760405162461bcd60e51b815260206004820152602f60248201527f45524331393637557067726164653a207570677261646520627265616b73206660448201526e75727468657220757067726164657360881b6064820152608401610445565b610dc3856110da565b5050505050565b6040516001600160a01b038316602482015260448101829052600090610e22908590839060640160408051601f198184030181529190526020810180516001600160e01b031663a9059cbb60e01b179052600061111a565b949350505050565b60408051600080825260208201909252610a559084908490600061111a565b60008282604051602001610e5e92919061195d565b60408051601f1981840301815291905280516020909101209392505050565b603380546001600160a01b038381166001600160a01b0319831681179093556040519116919082907f8be0079c531659141344cd1fd0a4f28419497f9722a3daafe3b4186f6b6457e090600090a35050565b600054610100900460ff1680610ee8575060005460ff16155b610f045760405162461bcd60e51b8152600401610445906118d0565b600054610100900460ff16158015610f26576000805461ffff19166101011790555b610f2e6112ca565b610f36611334565b8015610566576000805461ff001916905550565b803b610fae5760405162461bcd60e51b815260206004820152602d60248201527f455243313936373a206e657720696d706c656d656e746174696f6e206973206e60448201526c1bdd08184818dbdb9d1c9858dd609a1b6064820152608401610445565b7f360894a13ba1a3210667c828492db98dca3e2076cc3735a920a3ca505d382bbc80546001600160a01b0319166001600160a01b0392909216919091179055565b6060823b61104e5760405162461bcd60e51b815260206004820152602660248201527f416464726573733a2064656c65676174652063616c6c20746f206e6f6e2d636f6044820152651b9d1c9858dd60d21b6064820152608401610445565b600080846001600160a01b0316846040516110699190611983565b600060405180830381855af49150503d80600081146110a4576040519150601f19603f3d011682016040523d82523d6000602084013e6110a9565b606091505b50915091506110d18282604051806060016040528060278152602001611a9a60279139611394565b95945050505050565b6110e381610f4a565b6040516001600160a01b038216907fbc7cd75a20ee27fd9adebab32041f755214dbc6bffa90cc0225b39da2e5c2d3b90600090a250565b6065546000906001600160a01b0316156111bc576065546040805180820182526002815261060f60f31b60208201529051633af85da960e11b81526001600160a01b03909216916375f0bb529161118991899189918991899160009182918291829182919033906004016119c1565b600060405180830381600087803b1580156111a357600080fd5b505af11580156111b7573d6000803e3d6000fd5b505050505b60675460405163468721a760e01b81526001600160a01b039091169063468721a7906111f2908890889088908890600401611a50565b602060405180830381600087803b15801561120c57600080fd5b505af1158015611220573d6000803e3d6000fd5b505050506040513d601f19601f82011682018060405250810190611244919061193b565b6065549091506001600160a01b031615610e2257606554604051631264e26d60e31b815261060f60f31b600482015282151560248201526001600160a01b0390911690639327136890604401600060405180830381600087803b1580156112aa57600080fd5b505af11580156112be573d6000803e3d6000fd5b50505050949350505050565b600054610100900460ff16806112e3575060005460ff16155b6112ff5760405162461bcd60e51b8152600401610445906118d0565b600054610100900460ff16158015610f36576000805461ffff19166101011790558015610566576000805461ff001916905550565b600054610100900460ff168061134d575060005460ff16155b6113695760405162461bcd60e51b8152600401610445906118d0565b600054610100900460ff1615801561138b576000805461ffff19166101011790555b610f3633610e7d565b606083156113a3575081610a55565b8251156113b35782518084602001fd5b8160405162461bcd60e51b81526004016104459190611a86565b8280546113d9906117c8565b90600052602060002090601f0160209004810192826113fb5760008555611441565b82601f1061141457805160ff1916838001178555611441565b82800160010185558215611441579182015b82811115611441578251825591602001919060010190611426565b5061144d929150611451565b5090565b5b8082111561144d5760008155600101611452565b60006020828403121561147857600080fd5b5035919050565b60005b8381101561149a578181015183820152602001611482565b838111156114a9576000848401525b50505050565b600081518084526114c781602086016020860161147f565b601f01601f19169290920160200192915050565b86815260c0602082015260006114f460c08301886114af565b6001600160a01b0396871660408401529490951660608201526080810192909252151560a0909101529392505050565b6001600160a01b038116811461056657600080fd5b60006020828403121561154b57600080fd5b8135610a5581611524565b634e487b7160e01b600052604160045260246000fd5b600082601f83011261157d57600080fd5b813567ffffffffffffffff8082111561159857611598611556565b604051601f8301601f19908116603f011681019082821181831017156115c0576115c0611556565b816040528381528660208588010111156115d957600080fd5b836020870160208301376000602085830101528094505050505092915050565b6000806040838503121561160c57600080fd5b823561161781611524565b9150602083013567ffffffffffffffff81111561163357600080fd5b61163f8582860161156c565b9150509250929050565b60008083601f84011261165b57600080fd5b50813567ffffffffffffffff81111561167357600080fd5b60208301915083602082850101111561168b57600080fd5b9250929050565b60008060008060008060a087890312156116ab57600080fd5b86359550602087013567ffffffffffffffff8111156116c957600080fd5b6116d589828a01611649565b90965094505060408701356116e981611524565b925060608701356116f981611524565b80925050608087013590509295509295509295565b60006020828403121561172057600080fd5b813567ffffffffffffffff81111561173757600080fd5b610e228482850161156c565b6000806040838503121561175657600080fd5b823561176181611524565b9150602083013561177181611524565b809150509250929050565b60008060006040848603121561179157600080fd5b83359250602084013567ffffffffffffffff8111156117af57600080fd5b6117bb86828701611649565b9497909650939450505050565b600181811c908216806117dc57607f821691505b602082108114156117fd57634e487b7160e01b600052602260045260246000fd5b50919050565b6020808252818101527f4f776e61626c653a2063616c6c6572206973206e6f7420746865206f776e6572604082015260600190565b6020808252602c908201527f46756e6374696f6e206d7573742062652063616c6c6564207468726f7567682060408201526b19195b1959d85d1958d85b1b60a21b606082015260800190565b6020808252602c908201527f46756e6374696f6e206d7573742062652063616c6c6564207468726f7567682060408201526b6163746976652070726f787960a01b606082015260800190565b6020808252602e908201527f496e697469616c697a61626c653a20636f6e747261637420697320616c72656160408201526d191e481a5b9a5d1a585b1a5e995960921b606082015260800190565b60006020828403121561193057600080fd5b8151610a5581611524565b60006020828403121561194d57600080fd5b81518015158114610a5557600080fd5b8281526000825161197581602085016020870161147f565b919091016020019392505050565b6000825161199581846020870161147f565b9190910192915050565b600281106119bd57634e487b7160e01b600052602160045260246000fd5b9052565b6001600160a01b038c81168252602082018c9052610160604083018190526000916119ee8483018e6114af565b91506119fd606085018d61199f565b8a60808501528960a08501528860c085015280881660e0850152808716610100850152838203610120850152611a3382876114af565b925080851661014085015250509c9b505050505050505050505050565b60018060a01b0385168152836020820152608060408201526000611a7760808301856114af565b90506110d1606083018461199f565b602081526000610a5560208301846114af56fe416464726573733a206c6f772d6c6576656c2064656c65676174652063616c6c206661696c6564a2646970667358221220d73ea793bf36c62cb4f3f309c503131d04dcd9c59ae910388ca9104416115ceb64736f6c63430008090033",
  "linkReferences": {},
  "deployedLinkReferences": {}
}