{
  "_format": "hh-sol-artifact-1",
  "contractName": "SnapshotZDAOChef",
  "sourceName": "contracts/snapshot/SnapshotZDAOChef.sol",
  "abi": [
    {
      "anonymous": false,
      "inputs": [
        {
          "indexed": false,
          "internalType": "address",
          "name": "previousAdmin",
          "type": "address"
        },
        {
          "indexed": false,
          "internalType": "address",
          "name": "newAdmin",
          "type": "address"
        }
      ],
      "name": "AdminChanged",
      "type": "event"
    },
    {
      "anonymous": false,
      "inputs": [
        {
          "indexed": true,
          "internalType": "address",
          "name": "beacon",
          "type": "address"
        }
      ],
      "name": "BeaconUpgraded",
      "type": "event"
    },
    {
      "anonymous": false,
      "inputs": [
        {
          "indexed": true,
          "internalType": "address",
          "name": "previousOwner",
          "type": "address"
        },
        {
          "indexed": true,
          "internalType": "address",
          "name": "newOwner",
          "type": "address"
        }
      ],
      "name": "OwnershipTransferred",
      "type": "event"
    },
    {
      "anonymous": false,
      "inputs": [
        {
          "indexed": false,
          "internalType": "address",
          "name": "account",
          "type": "address"
        }
      ],
      "name": "Paused",
      "type": "event"
    },
    {
      "anonymous": false,
      "inputs": [
        {
          "indexed": true,
          "internalType": "bytes32",
          "name": "role",
          "type": "bytes32"
        },
        {
          "indexed": true,
          "internalType": "bytes32",
          "name": "previousAdminRole",
          "type": "bytes32"
        },
        {
          "indexed": true,
          "internalType": "bytes32",
          "name": "newAdminRole",
          "type": "bytes32"
        }
      ],
      "name": "RoleAdminChanged",
      "type": "event"
    },
    {
      "anonymous": false,
      "inputs": [
        {
          "indexed": true,
          "internalType": "bytes32",
          "name": "role",
          "type": "bytes32"
        },
        {
          "indexed": true,
          "internalType": "address",
          "name": "account",
          "type": "address"
        },
        {
          "indexed": true,
          "internalType": "address",
          "name": "sender",
          "type": "address"
        }
      ],
      "name": "RoleGranted",
      "type": "event"
    },
    {
      "anonymous": false,
      "inputs": [
        {
          "indexed": true,
          "internalType": "bytes32",
          "name": "role",
          "type": "bytes32"
        },
        {
          "indexed": true,
          "internalType": "address",
          "name": "account",
          "type": "address"
        },
        {
          "indexed": true,
          "internalType": "address",
          "name": "sender",
          "type": "address"
        }
      ],
      "name": "RoleRevoked",
      "type": "event"
    },
    {
      "anonymous": false,
      "inputs": [
        {
          "indexed": false,
          "internalType": "address",
          "name": "account",
          "type": "address"
        }
      ],
      "name": "Unpaused",
      "type": "event"
    },
    {
      "anonymous": false,
      "inputs": [
        {
          "indexed": true,
          "internalType": "address",
          "name": "implementation",
          "type": "address"
        }
      ],
      "name": "Upgraded",
      "type": "event"
    },
    {
      "inputs": [],
      "name": "DEFAULT_ADMIN_ROLE",
      "outputs": [
        {
          "internalType": "bytes32",
          "name": "",
          "type": "bytes32"
        }
      ],
      "stateMutability": "view",
      "type": "function"
    },
    {
      "inputs": [
        {
          "internalType": "address",
          "name": "_zDAORegistry",
          "type": "address"
        }
      ],
      "name": "__SnapshotZDAOChef_init",
      "outputs": [],
      "stateMutability": "nonpayable",
      "type": "function"
    },
    {
      "inputs": [
        {
          "internalType": "uint256",
          "name": "_zDAOId",
          "type": "uint256"
        },
        {
          "internalType": "uint256",
          "name": "_zNA",
          "type": "uint256"
        },
        {
          "internalType": "address",
          "name": "_gnosisSafe",
          "type": "address"
        },
        {
          "internalType": "bytes",
          "name": "_options",
          "type": "bytes"
        }
      ],
      "name": "addNewZDAO",
      "outputs": [
        {
          "internalType": "address",
          "name": "",
          "type": "address"
        }
      ],
      "stateMutability": "nonpayable",
      "type": "function"
    },
    {
      "inputs": [
        {
          "internalType": "bytes32",
          "name": "role",
          "type": "bytes32"
        }
      ],
      "name": "getRoleAdmin",
      "outputs": [
        {
          "internalType": "bytes32",
          "name": "",
          "type": "bytes32"
        }
      ],
      "stateMutability": "view",
      "type": "function"
    },
    {
      "inputs": [
        {
          "internalType": "bytes32",
          "name": "role",
          "type": "bytes32"
        },
        {
          "internalType": "address",
          "name": "account",
          "type": "address"
        }
      ],
      "name": "grantRole",
      "outputs": [],
      "stateMutability": "nonpayable",
      "type": "function"
    },
    {
      "inputs": [
        {
          "internalType": "bytes32",
          "name": "role",
          "type": "bytes32"
        },
        {
          "internalType": "address",
          "name": "account",
          "type": "address"
        }
      ],
      "name": "hasRole",
      "outputs": [
        {
          "internalType": "bool",
          "name": "",
          "type": "bool"
        }
      ],
      "stateMutability": "view",
      "type": "function"
    },
    {
      "inputs": [
        {
          "internalType": "uint256",
          "name": "_zDAOId",
          "type": "uint256"
        },
        {
          "internalType": "address",
          "name": "_gnosisSafe",
          "type": "address"
        },
        {
          "internalType": "bytes",
          "name": "_options",
          "type": "bytes"
        }
      ],
      "name": "modifyZDAO",
      "outputs": [],
      "stateMutability": "nonpayable",
      "type": "function"
    },
    {
      "inputs": [],
      "name": "owner",
      "outputs": [
        {
          "internalType": "address",
          "name": "",
          "type": "address"
        }
      ],
      "stateMutability": "view",
      "type": "function"
    },
    {
      "inputs": [],
      "name": "paused",
      "outputs": [
        {
          "internalType": "bool",
          "name": "",
          "type": "bool"
        }
      ],
      "stateMutability": "view",
      "type": "function"
    },
    {
      "inputs": [
        {
          "internalType": "uint256",
          "name": "_zDAOId",
          "type": "uint256"
        }
      ],
      "name": "removeZDAO",
      "outputs": [],
      "stateMutability": "nonpayable",
      "type": "function"
    },
    {
      "inputs": [],
      "name": "renounceOwnership",
      "outputs": [],
      "stateMutability": "nonpayable",
      "type": "function"
    },
    {
      "inputs": [
        {
          "internalType": "bytes32",
          "name": "role",
          "type": "bytes32"
        },
        {
          "internalType": "address",
          "name": "account",
          "type": "address"
        }
      ],
      "name": "renounceRole",
      "outputs": [],
      "stateMutability": "nonpayable",
      "type": "function"
    },
    {
      "inputs": [
        {
          "internalType": "bytes32",
          "name": "role",
          "type": "bytes32"
        },
        {
          "internalType": "address",
          "name": "account",
          "type": "address"
        }
      ],
      "name": "revokeRole",
      "outputs": [],
      "stateMutability": "nonpayable",
      "type": "function"
    },
    {
      "inputs": [
        {
          "internalType": "address",
          "name": "_zDAORegistry",
          "type": "address"
        }
      ],
      "name": "setRegistry",
      "outputs": [],
      "stateMutability": "nonpayable",
      "type": "function"
    },
    {
      "inputs": [
        {
          "internalType": "bytes4",
          "name": "interfaceId",
          "type": "bytes4"
        }
      ],
      "name": "supportsInterface",
      "outputs": [
        {
          "internalType": "bool",
          "name": "",
          "type": "bool"
        }
      ],
      "stateMutability": "view",
      "type": "function"
    },
    {
      "inputs": [
        {
          "internalType": "address",
          "name": "newOwner",
          "type": "address"
        }
      ],
      "name": "transferOwnership",
      "outputs": [],
      "stateMutability": "nonpayable",
      "type": "function"
    },
    {
      "inputs": [
        {
          "internalType": "address",
          "name": "newImplementation",
          "type": "address"
        }
      ],
      "name": "upgradeTo",
      "outputs": [],
      "stateMutability": "nonpayable",
      "type": "function"
    },
    {
      "inputs": [
        {
          "internalType": "address",
          "name": "newImplementation",
          "type": "address"
        },
        {
          "internalType": "bytes",
          "name": "data",
          "type": "bytes"
        }
      ],
      "name": "upgradeToAndCall",
      "outputs": [],
      "stateMutability": "payable",
      "type": "function"
    },
    {
      "inputs": [],
      "name": "version",
      "outputs": [
        {
          "internalType": "uint256",
          "name": "",
          "type": "uint256"
        }
      ],
      "stateMutability": "view",
      "type": "function"
    },
    {
      "inputs": [
        {
          "internalType": "uint256",
          "name": "",
          "type": "uint256"
        }
      ],
      "name": "zDAOInfos",
      "outputs": [
        {
          "internalType": "uint256",
          "name": "id",
          "type": "uint256"
        },
        {
          "internalType": "uint256",
          "name": "snapshot",
          "type": "uint256"
        },
        {
          "internalType": "string",
          "name": "ensSpace",
          "type": "string"
        },
        {
          "internalType": "address",
          "name": "gnosisSafe",
          "type": "address"
        },
        {
          "internalType": "bool",
          "name": "destroyed",
          "type": "bool"
        }
      ],
      "stateMutability": "view",
      "type": "function"
    },
    {
      "inputs": [],
      "name": "zDAORegistry",
      "outputs": [
        {
          "internalType": "address",
          "name": "",
          "type": "address"
        }
      ],
      "stateMutability": "view",
      "type": "function"
    }
  ],
  "bytecode": "0x60a06040523060805234801561001457600080fd5b50608051611f68610045600039600081816105be01528181610654015281816109db0152610a710152611f686000f3fe60806040526004361061016a5760003560e01c80635c975abb116100cb578063a217fddf1161007f578063d547741f11610059578063d547741f146103ed578063def3d4401461040d578063f2fde38b1461043e57600080fd5b8063a217fddf14610398578063a91ee0dc146103ad578063c504f253146103cd57600080fd5b80638da5cb5b116100b05780638da5cb5b1461031457806391d14854146103325780639db2b0571461037857600080fd5b80635c975abb146102e7578063715018a6146102ff57600080fd5b80633ca65bd6116101225780634f1ef286116101075780634f1ef2861461029c57806354fd4d50146102af5780635accac3f146102c657600080fd5b80633ca65bd6146102445780634964d9a51461027c57600080fd5b80632f2ff15d116101535780632f2ff15d146101e257806336568abe146102045780633659cfe61461022457600080fd5b806301ffc9a71461016f578063248a9ca3146101a4575b600080fd5b34801561017b57600080fd5b5061018f61018a366004611a68565b61045e565b60405190151581526020015b60405180910390f35b3480156101b057600080fd5b506101d46101bf366004611aaa565b60009081526097602052604090206001015490565b60405190815260200161019b565b3480156101ee57600080fd5b506102026101fd366004611adf565b6104f7565b005b34801561021057600080fd5b5061020261021f366004611adf565b610522565b34801561023057600080fd5b5061020261023f366004611b0b565b6105b3565b34801561025057600080fd5b5061026461025f366004611b6f565b610751565b6040516001600160a01b03909116815260200161019b565b34801561028857600080fd5b50610202610297366004611aaa565b61093b565b6102026102aa366004611bed565b6109d0565b3480156102bb57600080fd5b506101d46101915481565b3480156102d257600080fd5b5061019454610264906001600160a01b031681565b3480156102f357600080fd5b5060fb5460ff1661018f565b34801561030b57600080fd5b50610202610b5b565b34801561032057600080fd5b506033546001600160a01b0316610264565b34801561033e57600080fd5b5061018f61034d366004611adf565b60009182526097602090815260408084206001600160a01b0393909316845291905290205460ff1690565b34801561038457600080fd5b50610202610393366004611b0b565b610bc1565b3480156103a457600080fd5b506101d4600081565b3480156103b957600080fd5b506102026103c8366004611b0b565b610cec565b3480156103d957600080fd5b506102026103e8366004611caf565b610d76565b3480156103f957600080fd5b50610202610408366004611adf565b610f2f565b34801561041957600080fd5b5061042d610428366004611aaa565b610f55565b60405161019b959493929190611d65565b34801561044a57600080fd5b50610202610459366004611b0b565b61102e565b60007fffffffff0000000000000000000000000000000000000000000000000000000082167f7965db0b0000000000000000000000000000000000000000000000000000000014806104f157507f01ffc9a7000000000000000000000000000000000000000000000000000000007fffffffff000000000000000000000000000000000000000000000000000000008316145b92915050565b600082815260976020526040902060010154610513813361110d565b61051d838361118d565b505050565b6001600160a01b03811633146105a55760405162461bcd60e51b815260206004820152602f60248201527f416363657373436f6e74726f6c3a2063616e206f6e6c792072656e6f756e636560448201527f20726f6c657320666f722073656c66000000000000000000000000000000000060648201526084015b60405180910390fd5b6105af828261122f565b5050565b306001600160a01b037f00000000000000000000000000000000000000000000000000000000000000001614156106525760405162461bcd60e51b815260206004820152602c60248201527f46756e6374696f6e206d7573742062652063616c6c6564207468726f7567682060448201527f64656c656761746563616c6c0000000000000000000000000000000000000000606482015260840161059c565b7f00000000000000000000000000000000000000000000000000000000000000006001600160a01b03166106ad7f360894a13ba1a3210667c828492db98dca3e2076cc3735a920a3ca505d382bbc546001600160a01b031690565b6001600160a01b0316146107295760405162461bcd60e51b815260206004820152602c60248201527f46756e6374696f6e206d7573742062652063616c6c6564207468726f7567682060448201527f6163746976652070726f78790000000000000000000000000000000000000000606482015260840161059c565b610732816112b2565b6040805160008082526020820190925261074e9183919061130c565b50565b610194546000906001600160a01b031633146107af5760405162461bcd60e51b815260206004820152600e60248201527f4e6f742061207265676973747279000000000000000000000000000000000000604482015260640161059c565b600083838080601f01602080910402602001604051908101604052809392919081815260200183838082843760009201829052509394506107f592508491506114d09050565b60008181526101926020526040902054909150156108555760405162461bcd60e51b815260206004820152601460248201527f454e5320616c726561647920686173207a44414f000000000000000000000000604482015260640161059c565b6040805160a0810182528981524360208083019182528284018681526001600160a01b038b1660608501526000608085018190528d8152610193835294909420835181559151600183015592518051929391926108b892600285019201906119cf565b50606082015160039091018054608090930151151574010000000000000000000000000000000000000000027fffffffffffffffffffffff0000000000000000000000000000000000000000009093166001600160a01b039092169190911791909117905560009081526101926020526040812088905591505095945050505050565b610194546001600160a01b031633146109965760405162461bcd60e51b815260206004820152600e60248201527f4e6f742061207265676973747279000000000000000000000000000000000000604482015260640161059c565b60009081526101936020526040902060030180547fffffffffffffffffffffff00ffffffffffffffffffffffffffffffffffffffff169055565b306001600160a01b037f0000000000000000000000000000000000000000000000000000000000000000161415610a6f5760405162461bcd60e51b815260206004820152602c60248201527f46756e6374696f6e206d7573742062652063616c6c6564207468726f7567682060448201527f64656c656761746563616c6c0000000000000000000000000000000000000000606482015260840161059c565b7f00000000000000000000000000000000000000000000000000000000000000006001600160a01b0316610aca7f360894a13ba1a3210667c828492db98dca3e2076cc3735a920a3ca505d382bbc546001600160a01b031690565b6001600160a01b031614610b465760405162461bcd60e51b815260206004820152602c60248201527f46756e6374696f6e206d7573742062652063616c6c6564207468726f7567682060448201527f6163746976652070726f78790000000000000000000000000000000000000000606482015260840161059c565b610b4f826112b2565b6105af8282600161130c565b6033546001600160a01b03163314610bb55760405162461bcd60e51b815260206004820181905260248201527f4f776e61626c653a2063616c6c6572206973206e6f7420746865206f776e6572604482015260640161059c565b610bbf6000611503565b565b600054610100900460ff16610bdc5760005460ff1615610be0565b303b155b610c525760405162461bcd60e51b815260206004820152602e60248201527f496e697469616c697a61626c653a20636f6e747261637420697320616c72656160448201527f647920696e697469616c697a6564000000000000000000000000000000000000606482015260840161059c565b600054610100900460ff16158015610c9157600080547fffffffffffffffffffffffffffffffffffffffffffffffffffffffffffff0000166101011790555b610194805473ffffffffffffffffffffffffffffffffffffffff19166001600160a01b03841617905580156105af57600080547fffffffffffffffffffffffffffffffffffffffffffffffffffffffffffff00ff1690555050565b6033546001600160a01b03163314610d465760405162461bcd60e51b815260206004820181905260248201527f4f776e61626c653a2063616c6c6572206973206e6f7420746865206f776e6572604482015260640161059c565b610194805473ffffffffffffffffffffffffffffffffffffffff19166001600160a01b0392909216919091179055565b610194546001600160a01b03163314610dd15760405162461bcd60e51b815260206004820152600e60248201527f4e6f742061207265676973747279000000000000000000000000000000000000604482015260640161059c565b600082828080601f0160208091040260200160405190810160405280939291908181526020018383808284376000920182905250898152610193602052604081209495509250610e2491508490506114d0565b90506000610ebd836002018054610e3a90611da6565b80601f0160208091040260200160405190810160405280929190818152602001828054610e6690611da6565b8015610eb35780601f10610e8857610100808354040283529160200191610eb3565b820191906000526020600020905b815481529060010190602001808311610e9657829003601f168201915b50505050506114d0565b9050808214610ee2576000818152610192602052604080822082905583825290208890555b8351610ef790600285019060208701906119cf565b505050600301805473ffffffffffffffffffffffffffffffffffffffff19166001600160a01b03959095169490941790935550505050565b600082815260976020526040902060010154610f4b813361110d565b61051d838361122f565b6101936020526000908152604090208054600182015460028301805492939192610f7e90611da6565b80601f0160208091040260200160405190810160405280929190818152602001828054610faa90611da6565b8015610ff75780601f10610fcc57610100808354040283529160200191610ff7565b820191906000526020600020905b815481529060010190602001808311610fda57829003601f168201915b505050600390930154919250506001600160a01b0381169060ff740100000000000000000000000000000000000000009091041685565b6033546001600160a01b031633146110885760405162461bcd60e51b815260206004820181905260248201527f4f776e61626c653a2063616c6c6572206973206e6f7420746865206f776e6572604482015260640161059c565b6001600160a01b0381166111045760405162461bcd60e51b815260206004820152602660248201527f4f776e61626c653a206e6577206f776e657220697320746865207a65726f206160448201527f6464726573730000000000000000000000000000000000000000000000000000606482015260840161059c565b61074e81611503565b60008281526097602090815260408083206001600160a01b038516845290915290205460ff166105af5761114b816001600160a01b03166014611562565b611156836020611562565b604051602001611167929190611de1565b60408051601f198184030181529082905262461bcd60e51b825261059c91600401611e62565b60008281526097602090815260408083206001600160a01b038516845290915290205460ff166105af5760008281526097602090815260408083206001600160a01b03851684529091529020805460ff191660011790556111eb3390565b6001600160a01b0316816001600160a01b0316837f2f8788117e7eff1d82e926ec794901d17c78024a50270940304540a733656f0d60405160405180910390a45050565b60008281526097602090815260408083206001600160a01b038516845290915290205460ff16156105af5760008281526097602090815260408083206001600160a01b0385168085529252808320805460ff1916905551339285917ff6391f5c32d9c69d2a47ea670b442974b53935d1edc7fd64eb21e047a839171b9190a45050565b6033546001600160a01b0316331461074e5760405162461bcd60e51b815260206004820181905260248201527f4f776e61626c653a2063616c6c6572206973206e6f7420746865206f776e6572604482015260640161059c565b600061133f7f360894a13ba1a3210667c828492db98dca3e2076cc3735a920a3ca505d382bbc546001600160a01b031690565b905061134a84611792565b6000835111806113575750815b15611368576113668484611854565b505b7f4910fdfa16fed3260ed0e7147f7cc6da11a60208b5b9406d12a635614ffd9143805460ff166114c957805460ff191660011781556040516001600160a01b038316602482015261141590869060440160408051601f198184030181529190526020810180517bffffffffffffffffffffffffffffffffffffffffffffffffffffffff167f3659cfe600000000000000000000000000000000000000000000000000000000179052611854565b50805460ff191681557f360894a13ba1a3210667c828492db98dca3e2076cc3735a920a3ca505d382bbc546001600160a01b038381169116146114c05760405162461bcd60e51b815260206004820152602f60248201527f45524331393637557067726164653a207570677261646520627265616b73206660448201527f7572746865722075706772616465730000000000000000000000000000000000606482015260840161059c565b6114c985611956565b5050505050565b600080826040516020016114e49190611e75565b60408051601f1981840301815291905280516020909101209392505050565b603380546001600160a01b0383811673ffffffffffffffffffffffffffffffffffffffff19831681179093556040519116919082907f8be0079c531659141344cd1fd0a4f28419497f9722a3daafe3b4186f6b6457e090600090a35050565b60606000611571836002611ea7565b61157c906002611ec6565b67ffffffffffffffff81111561159457611594611bd7565b6040519080825280601f01601f1916602001820160405280156115be576020820181803683370190505b5090507f3000000000000000000000000000000000000000000000000000000000000000816000815181106115f5576115f5611ede565b60200101907effffffffffffffffffffffffffffffffffffffffffffffffffffffffffffff1916908160001a9053507f78000000000000000000000000000000000000000000000000000000000000008160018151811061165857611658611ede565b60200101907effffffffffffffffffffffffffffffffffffffffffffffffffffffffffffff1916908160001a9053506000611694846002611ea7565b61169f906001611ec6565b90505b600181111561173c577f303132333435363738396162636465660000000000000000000000000000000085600f16601081106116e0576116e0611ede565b1a60f81b8282815181106116f6576116f6611ede565b60200101907effffffffffffffffffffffffffffffffffffffffffffffffffffffffffffff1916908160001a90535060049490941c9361173581611ef4565b90506116a2565b50831561178b5760405162461bcd60e51b815260206004820181905260248201527f537472696e67733a20686578206c656e67746820696e73756666696369656e74604482015260640161059c565b9392505050565b803b6118065760405162461bcd60e51b815260206004820152602d60248201527f455243313936373a206e657720696d706c656d656e746174696f6e206973206e60448201527f6f74206120636f6e747261637400000000000000000000000000000000000000606482015260840161059c565b7f360894a13ba1a3210667c828492db98dca3e2076cc3735a920a3ca505d382bbc805473ffffffffffffffffffffffffffffffffffffffff19166001600160a01b0392909216919091179055565b6060823b6118ca5760405162461bcd60e51b815260206004820152602660248201527f416464726573733a2064656c65676174652063616c6c20746f206e6f6e2d636f60448201527f6e74726163740000000000000000000000000000000000000000000000000000606482015260840161059c565b600080846001600160a01b0316846040516118e59190611e75565b600060405180830381855af49150503d8060008114611920576040519150601f19603f3d011682016040523d82523d6000602084013e611925565b606091505b509150915061194d8282604051806060016040528060278152602001611f0c60279139611996565b95945050505050565b61195f81611792565b6040516001600160a01b038216907fbc7cd75a20ee27fd9adebab32041f755214dbc6bffa90cc0225b39da2e5c2d3b90600090a250565b606083156119a557508161178b565b8251156119b55782518084602001fd5b8160405162461bcd60e51b815260040161059c9190611e62565b8280546119db90611da6565b90600052602060002090601f0160209004810192826119fd5760008555611a43565b82601f10611a1657805160ff1916838001178555611a43565b82800160010185558215611a43579182015b82811115611a43578251825591602001919060010190611a28565b50611a4f929150611a53565b5090565b5b80821115611a4f5760008155600101611a54565b600060208284031215611a7a57600080fd5b81357fffffffff000000000000000000000000000000000000000000000000000000008116811461178b57600080fd5b600060208284031215611abc57600080fd5b5035919050565b80356001600160a01b0381168114611ada57600080fd5b919050565b60008060408385031215611af257600080fd5b82359150611b0260208401611ac3565b90509250929050565b600060208284031215611b1d57600080fd5b61178b82611ac3565b60008083601f840112611b3857600080fd5b50813567ffffffffffffffff811115611b5057600080fd5b602083019150836020828501011115611b6857600080fd5b9250929050565b600080600080600060808688031215611b8757600080fd5b8535945060208601359350611b9e60408701611ac3565b9250606086013567ffffffffffffffff811115611bba57600080fd5b611bc688828901611b26565b969995985093965092949392505050565b634e487b7160e01b600052604160045260246000fd5b60008060408385031215611c0057600080fd5b611c0983611ac3565b9150602083013567ffffffffffffffff80821115611c2657600080fd5b818501915085601f830112611c3a57600080fd5b813581811115611c4c57611c4c611bd7565b604051601f8201601f19908116603f01168101908382118183101715611c7457611c74611bd7565b81604052828152886020848701011115611c8d57600080fd5b8260208601602083013760006020848301015280955050505050509250929050565b60008060008060608587031215611cc557600080fd5b84359350611cd560208601611ac3565b9250604085013567ffffffffffffffff811115611cf157600080fd5b611cfd87828801611b26565b95989497509550505050565b60005b83811015611d24578181015183820152602001611d0c565b83811115611d33576000848401525b50505050565b60008151808452611d51816020860160208601611d09565b601f01601f19169290920160200192915050565b85815284602082015260a060408201526000611d8460a0830186611d39565b6001600160a01b03949094166060830152509015156080909101529392505050565b600181811c90821680611dba57607f821691505b60208210811415611ddb57634e487b7160e01b600052602260045260246000fd5b50919050565b7f416363657373436f6e74726f6c3a206163636f756e7420000000000000000000815260008351611e19816017850160208801611d09565b7f206973206d697373696e6720726f6c65200000000000000000000000000000006017918401918201528351611e56816028840160208801611d09565b01602801949350505050565b60208152600061178b6020830184611d39565b60008251611e87818460208701611d09565b9190910192915050565b634e487b7160e01b600052601160045260246000fd5b6000816000190483118215151615611ec157611ec1611e91565b500290565b60008219821115611ed957611ed9611e91565b500190565b634e487b7160e01b600052603260045260246000fd5b600081611f0357611f03611e91565b50600019019056fe416464726573733a206c6f772d6c6576656c2064656c65676174652063616c6c206661696c6564a26469706673582212208d9d9d67a91b062da5be235b3ee9950ab633aba80e4431ed688089ac1f27c39864736f6c634300080b0033",
  "linkReferences": {},
  "deployedLinkReferences": {}
}