{
  "_format": "hh-sol-artifact-1",
  "contractName": "SnapshotZDAOChef",
  "sourceName": "contracts/snapshot/SnapshotZDAOChef.sol",
  "abi": [
    {
      "anonymous": false,
      "inputs": [
        {
          "indexed": false,
          "internalType": "address",
          "name": "previousAdmin",
          "type": "address"
        },
        {
          "indexed": false,
          "internalType": "address",
          "name": "newAdmin",
          "type": "address"
        }
      ],
      "name": "AdminChanged",
      "type": "event"
    },
    {
      "anonymous": false,
      "inputs": [
        {
          "indexed": true,
          "internalType": "address",
          "name": "beacon",
          "type": "address"
        }
      ],
      "name": "BeaconUpgraded",
      "type": "event"
    },
    {
      "anonymous": false,
      "inputs": [
        {
          "indexed": true,
          "internalType": "address",
          "name": "previousOwner",
          "type": "address"
        },
        {
          "indexed": true,
          "internalType": "address",
          "name": "newOwner",
          "type": "address"
        }
      ],
      "name": "OwnershipTransferred",
      "type": "event"
    },
    {
      "anonymous": false,
      "inputs": [
        {
          "indexed": false,
          "internalType": "address",
          "name": "account",
          "type": "address"
        }
      ],
      "name": "Paused",
      "type": "event"
    },
    {
      "anonymous": false,
      "inputs": [
        {
          "indexed": true,
          "internalType": "bytes32",
          "name": "role",
          "type": "bytes32"
        },
        {
          "indexed": true,
          "internalType": "bytes32",
          "name": "previousAdminRole",
          "type": "bytes32"
        },
        {
          "indexed": true,
          "internalType": "bytes32",
          "name": "newAdminRole",
          "type": "bytes32"
        }
      ],
      "name": "RoleAdminChanged",
      "type": "event"
    },
    {
      "anonymous": false,
      "inputs": [
        {
          "indexed": true,
          "internalType": "bytes32",
          "name": "role",
          "type": "bytes32"
        },
        {
          "indexed": true,
          "internalType": "address",
          "name": "account",
          "type": "address"
        },
        {
          "indexed": true,
          "internalType": "address",
          "name": "sender",
          "type": "address"
        }
      ],
      "name": "RoleGranted",
      "type": "event"
    },
    {
      "anonymous": false,
      "inputs": [
        {
          "indexed": true,
          "internalType": "bytes32",
          "name": "role",
          "type": "bytes32"
        },
        {
          "indexed": true,
          "internalType": "address",
          "name": "account",
          "type": "address"
        },
        {
          "indexed": true,
          "internalType": "address",
          "name": "sender",
          "type": "address"
        }
      ],
      "name": "RoleRevoked",
      "type": "event"
    },
    {
      "anonymous": false,
      "inputs": [
        {
          "indexed": false,
          "internalType": "address",
          "name": "account",
          "type": "address"
        }
      ],
      "name": "Unpaused",
      "type": "event"
    },
    {
      "anonymous": false,
      "inputs": [
        {
          "indexed": true,
          "internalType": "address",
          "name": "implementation",
          "type": "address"
        }
      ],
      "name": "Upgraded",
      "type": "event"
    },
    {
      "inputs": [],
      "name": "DEFAULT_ADMIN_ROLE",
      "outputs": [
        {
          "internalType": "bytes32",
          "name": "",
          "type": "bytes32"
        }
      ],
      "stateMutability": "view",
      "type": "function"
    },
    {
      "inputs": [
        {
          "internalType": "address",
          "name": "_zDAORegistry",
          "type": "address"
        }
      ],
      "name": "__ZDAOChef_init",
      "outputs": [],
      "stateMutability": "nonpayable",
      "type": "function"
    },
    {
      "inputs": [
        {
          "internalType": "uint256",
          "name": "_zDAOId",
          "type": "uint256"
        },
        {
          "internalType": "uint256",
          "name": "_zNA",
          "type": "uint256"
        },
        {
          "internalType": "address",
          "name": "_gnosisSafe",
          "type": "address"
        },
        {
          "internalType": "bytes",
          "name": "_options",
          "type": "bytes"
        }
      ],
      "name": "addNewZDAO",
      "outputs": [
        {
          "internalType": "address",
          "name": "",
          "type": "address"
        }
      ],
      "stateMutability": "nonpayable",
      "type": "function"
    },
    {
      "inputs": [
        {
          "internalType": "bytes32",
          "name": "role",
          "type": "bytes32"
        }
      ],
      "name": "getRoleAdmin",
      "outputs": [
        {
          "internalType": "bytes32",
          "name": "",
          "type": "bytes32"
        }
      ],
      "stateMutability": "view",
      "type": "function"
    },
    {
      "inputs": [
        {
          "internalType": "bytes32",
          "name": "role",
          "type": "bytes32"
        },
        {
          "internalType": "address",
          "name": "account",
          "type": "address"
        }
      ],
      "name": "grantRole",
      "outputs": [],
      "stateMutability": "nonpayable",
      "type": "function"
    },
    {
      "inputs": [
        {
          "internalType": "bytes32",
          "name": "role",
          "type": "bytes32"
        },
        {
          "internalType": "address",
          "name": "account",
          "type": "address"
        }
      ],
      "name": "hasRole",
      "outputs": [
        {
          "internalType": "bool",
          "name": "",
          "type": "bool"
        }
      ],
      "stateMutability": "view",
      "type": "function"
    },
    {
      "inputs": [
        {
          "internalType": "uint256",
          "name": "_zDAOId",
          "type": "uint256"
        },
        {
          "internalType": "address",
          "name": "_gnosisSafe",
          "type": "address"
        },
        {
          "internalType": "bytes",
          "name": "_options",
          "type": "bytes"
        }
      ],
      "name": "modifyZDAO",
      "outputs": [],
      "stateMutability": "nonpayable",
      "type": "function"
    },
    {
      "inputs": [],
      "name": "owner",
      "outputs": [
        {
          "internalType": "address",
          "name": "",
          "type": "address"
        }
      ],
      "stateMutability": "view",
      "type": "function"
    },
    {
      "inputs": [],
      "name": "paused",
      "outputs": [
        {
          "internalType": "bool",
          "name": "",
          "type": "bool"
        }
      ],
      "stateMutability": "view",
      "type": "function"
    },
    {
      "inputs": [
        {
          "internalType": "uint256",
          "name": "_zDAOId",
          "type": "uint256"
        }
      ],
      "name": "removeZDAO",
      "outputs": [],
      "stateMutability": "nonpayable",
      "type": "function"
    },
    {
      "inputs": [],
      "name": "renounceOwnership",
      "outputs": [],
      "stateMutability": "nonpayable",
      "type": "function"
    },
    {
      "inputs": [
        {
          "internalType": "bytes32",
          "name": "role",
          "type": "bytes32"
        },
        {
          "internalType": "address",
          "name": "account",
          "type": "address"
        }
      ],
      "name": "renounceRole",
      "outputs": [],
      "stateMutability": "nonpayable",
      "type": "function"
    },
    {
      "inputs": [
        {
          "internalType": "bytes32",
          "name": "role",
          "type": "bytes32"
        },
        {
          "internalType": "address",
          "name": "account",
          "type": "address"
        }
      ],
      "name": "revokeRole",
      "outputs": [],
      "stateMutability": "nonpayable",
      "type": "function"
    },
    {
      "inputs": [
        {
          "internalType": "address",
          "name": "_zDAORegistry",
          "type": "address"
        }
      ],
      "name": "setZDAORegistry",
      "outputs": [],
      "stateMutability": "nonpayable",
      "type": "function"
    },
    {
      "inputs": [
        {
          "internalType": "bytes4",
          "name": "interfaceId",
          "type": "bytes4"
        }
      ],
      "name": "supportsInterface",
      "outputs": [
        {
          "internalType": "bool",
          "name": "",
          "type": "bool"
        }
      ],
      "stateMutability": "view",
      "type": "function"
    },
    {
      "inputs": [
        {
          "internalType": "address",
          "name": "newOwner",
          "type": "address"
        }
      ],
      "name": "transferOwnership",
      "outputs": [],
      "stateMutability": "nonpayable",
      "type": "function"
    },
    {
      "inputs": [
        {
          "internalType": "address",
          "name": "newImplementation",
          "type": "address"
        }
      ],
      "name": "upgradeTo",
      "outputs": [],
      "stateMutability": "nonpayable",
      "type": "function"
    },
    {
      "inputs": [
        {
          "internalType": "address",
          "name": "newImplementation",
          "type": "address"
        },
        {
          "internalType": "bytes",
          "name": "data",
          "type": "bytes"
        }
      ],
      "name": "upgradeToAndCall",
      "outputs": [],
      "stateMutability": "payable",
      "type": "function"
    },
    {
      "inputs": [],
      "name": "version",
      "outputs": [
        {
          "internalType": "uint256",
          "name": "",
          "type": "uint256"
        }
      ],
      "stateMutability": "view",
      "type": "function"
    },
    {
      "inputs": [
        {
          "internalType": "uint256",
          "name": "",
          "type": "uint256"
        }
      ],
      "name": "zDAOInfos",
      "outputs": [
        {
          "internalType": "uint256",
          "name": "id",
          "type": "uint256"
        },
        {
          "internalType": "uint256",
          "name": "snapshot",
          "type": "uint256"
        },
        {
          "internalType": "string",
          "name": "ensSpace",
          "type": "string"
        },
        {
          "internalType": "address",
          "name": "gnosisSafe",
          "type": "address"
        },
        {
          "internalType": "bool",
          "name": "destroyed",
          "type": "bool"
        }
      ],
      "stateMutability": "view",
      "type": "function"
    },
    {
      "inputs": [],
      "name": "zDAORegistry",
      "outputs": [
        {
          "internalType": "address",
          "name": "",
          "type": "address"
        }
      ],
      "stateMutability": "view",
      "type": "function"
    }
  ],
  "bytecode": "0x60a06040523060805234801561001457600080fd5b50608051611f7a610045600039600081816105be0152818161065401528181610adb0152610b710152611f7a6000f3fe60806040526004361061016a5760003560e01c80635accac3f116100cb578063a217fddf1161007f578063d547741f11610059578063d547741f146103ed578063def3d4401461040d578063f2fde38b1461043e57600080fd5b8063a217fddf14610398578063b8f92c50146103ad578063c504f253146103cd57600080fd5b8063715018a6116100b0578063715018a61461031f5780638da5cb5b1461033457806391d148541461035257600080fd5b80635accac3f146102e65780635c975abb1461030757600080fd5b80633ca65bd6116101225780634964d9a5116101075780634964d9a51461029c5780634f1ef286146102bc57806354fd4d50146102cf57600080fd5b80633ca65bd6146102445780633edc72e61461027c57600080fd5b80632f2ff15d116101535780632f2ff15d146101e257806336568abe146102045780633659cfe61461022457600080fd5b806301ffc9a71461016f578063248a9ca3146101a4575b600080fd5b34801561017b57600080fd5b5061018f61018a366004611a13565b61045e565b60405190151581526020015b60405180910390f35b3480156101b057600080fd5b506101d46101bf366004611a55565b60009081526097602052604090206001015490565b60405190815260200161019b565b3480156101ee57600080fd5b506102026101fd366004611a8a565b6104f7565b005b34801561021057600080fd5b5061020261021f366004611a8a565b610522565b34801561023057600080fd5b5061020261023f366004611ab6565b6105b3565b34801561025057600080fd5b5061026461025f366004611b1a565b610751565b6040516001600160a01b03909116815260200161019b565b34801561028857600080fd5b50610202610297366004611ab6565b610910565b3480156102a857600080fd5b506102026102b7366004611a55565b610a3b565b6102026102ca366004611c0e565b610ad0565b3480156102db57600080fd5b506101d46101915481565b3480156102f257600080fd5b5061019454610264906001600160a01b031681565b34801561031357600080fd5b5060fb5460ff1661018f565b34801561032b57600080fd5b50610202610c5b565b34801561034057600080fd5b506033546001600160a01b0316610264565b34801561035e57600080fd5b5061018f61036d366004611a8a565b60009182526097602090815260408084206001600160a01b0393909316845291905290205460ff1690565b3480156103a457600080fd5b506101d4600081565b3480156103b957600080fd5b506102026103c8366004611ab6565b610cc1565b3480156103d957600080fd5b506102026103e8366004611c70565b610d4b565b3480156103f957600080fd5b50610202610408366004611a8a565b610eda565b34801561041957600080fd5b5061042d610428366004611a55565b610f00565b60405161019b959493929190611d26565b34801561044a57600080fd5b50610202610459366004611ab6565b610fd9565b60007fffffffff0000000000000000000000000000000000000000000000000000000082167f7965db0b0000000000000000000000000000000000000000000000000000000014806104f157507f01ffc9a7000000000000000000000000000000000000000000000000000000007fffffffff000000000000000000000000000000000000000000000000000000008316145b92915050565b60008281526097602052604090206001015461051381336110b8565b61051d8383611138565b505050565b6001600160a01b03811633146105a55760405162461bcd60e51b815260206004820152602f60248201527f416363657373436f6e74726f6c3a2063616e206f6e6c792072656e6f756e636560448201527f20726f6c657320666f722073656c66000000000000000000000000000000000060648201526084015b60405180910390fd5b6105af82826111da565b5050565b306001600160a01b037f00000000000000000000000000000000000000000000000000000000000000001614156106525760405162461bcd60e51b815260206004820152602c60248201527f46756e6374696f6e206d7573742062652063616c6c6564207468726f7567682060448201527f64656c656761746563616c6c0000000000000000000000000000000000000000606482015260840161059c565b7f00000000000000000000000000000000000000000000000000000000000000006001600160a01b03166106ad7f360894a13ba1a3210667c828492db98dca3e2076cc3735a920a3ca505d382bbc546001600160a01b031690565b6001600160a01b0316146107295760405162461bcd60e51b815260206004820152602c60248201527f46756e6374696f6e206d7573742062652063616c6c6564207468726f7567682060448201527f6163746976652070726f78790000000000000000000000000000000000000000606482015260840161059c565b6107328161125d565b6040805160008082526020820190925261074e918391906112b7565b50565b610194546000906001600160a01b031633146107af5760405162461bcd60e51b815260206004820152600e60248201527f4e6f742061207265676973747279000000000000000000000000000000000000604482015260640161059c565b60006107bd83850185611d67565b905060006107ca8261147b565b600081815261019260205260409020549091501561082a5760405162461bcd60e51b815260206004820152601460248201527f454e5320616c726561647920686173207a44414f000000000000000000000000604482015260640161059c565b6040805160a0810182528981524360208083019182528284018681526001600160a01b038b1660608501526000608085018190528d81526101938352949094208351815591516001830155925180519293919261088d926002850192019061197a565b50606082015160039091018054608090930151151574010000000000000000000000000000000000000000027fffffffffffffffffffffff0000000000000000000000000000000000000000009093166001600160a01b039092169190911791909117905560009081526101926020526040812088905591505095945050505050565b600054610100900460ff1661092b5760005460ff161561092f565b303b155b6109a15760405162461bcd60e51b815260206004820152602e60248201527f496e697469616c697a61626c653a20636f6e747261637420697320616c72656160448201527f647920696e697469616c697a6564000000000000000000000000000000000000606482015260840161059c565b600054610100900460ff161580156109e057600080547fffffffffffffffffffffffffffffffffffffffffffffffffffffffffffff0000166101011790555b610194805473ffffffffffffffffffffffffffffffffffffffff19166001600160a01b03841617905580156105af57600080547fffffffffffffffffffffffffffffffffffffffffffffffffffffffffffff00ff1690555050565b610194546001600160a01b03163314610a965760405162461bcd60e51b815260206004820152600e60248201527f4e6f742061207265676973747279000000000000000000000000000000000000604482015260640161059c565b60009081526101936020526040902060030180547fffffffffffffffffffffff00ffffffffffffffffffffffffffffffffffffffff169055565b306001600160a01b037f0000000000000000000000000000000000000000000000000000000000000000161415610b6f5760405162461bcd60e51b815260206004820152602c60248201527f46756e6374696f6e206d7573742062652063616c6c6564207468726f7567682060448201527f64656c656761746563616c6c0000000000000000000000000000000000000000606482015260840161059c565b7f00000000000000000000000000000000000000000000000000000000000000006001600160a01b0316610bca7f360894a13ba1a3210667c828492db98dca3e2076cc3735a920a3ca505d382bbc546001600160a01b031690565b6001600160a01b031614610c465760405162461bcd60e51b815260206004820152602c60248201527f46756e6374696f6e206d7573742062652063616c6c6564207468726f7567682060448201527f6163746976652070726f78790000000000000000000000000000000000000000606482015260840161059c565b610c4f8261125d565b6105af828260016112b7565b6033546001600160a01b03163314610cb55760405162461bcd60e51b815260206004820181905260248201527f4f776e61626c653a2063616c6c6572206973206e6f7420746865206f776e6572604482015260640161059c565b610cbf60006114ae565b565b6033546001600160a01b03163314610d1b5760405162461bcd60e51b815260206004820181905260248201527f4f776e61626c653a2063616c6c6572206973206e6f7420746865206f776e6572604482015260640161059c565b610194805473ffffffffffffffffffffffffffffffffffffffff19166001600160a01b0392909216919091179055565b610194546001600160a01b03163314610da65760405162461bcd60e51b815260206004820152600e60248201527f4e6f742061207265676973747279000000000000000000000000000000000000604482015260640161059c565b6000610db482840184611d67565b600086815261019360205260408120919250610dcf8361147b565b90506000610e68836002018054610de590611db8565b80601f0160208091040260200160405190810160405280929190818152602001828054610e1190611db8565b8015610e5e5780601f10610e3357610100808354040283529160200191610e5e565b820191906000526020600020905b815481529060010190602001808311610e4157829003601f168201915b505050505061147b565b9050808214610e8d576000818152610192602052604080822082905583825290208890555b8351610ea2906002850190602087019061197a565b505050600301805473ffffffffffffffffffffffffffffffffffffffff19166001600160a01b03959095169490941790935550505050565b600082815260976020526040902060010154610ef681336110b8565b61051d83836111da565b6101936020526000908152604090208054600182015460028301805492939192610f2990611db8565b80601f0160208091040260200160405190810160405280929190818152602001828054610f5590611db8565b8015610fa25780601f10610f7757610100808354040283529160200191610fa2565b820191906000526020600020905b815481529060010190602001808311610f8557829003601f168201915b505050600390930154919250506001600160a01b0381169060ff740100000000000000000000000000000000000000009091041685565b6033546001600160a01b031633146110335760405162461bcd60e51b815260206004820181905260248201527f4f776e61626c653a2063616c6c6572206973206e6f7420746865206f776e6572604482015260640161059c565b6001600160a01b0381166110af5760405162461bcd60e51b815260206004820152602660248201527f4f776e61626c653a206e6577206f776e657220697320746865207a65726f206160448201527f6464726573730000000000000000000000000000000000000000000000000000606482015260840161059c565b61074e816114ae565b60008281526097602090815260408083206001600160a01b038516845290915290205460ff166105af576110f6816001600160a01b0316601461150d565b61110183602061150d565b604051602001611112929190611df3565b60408051601f198184030181529082905262461bcd60e51b825261059c91600401611e74565b60008281526097602090815260408083206001600160a01b038516845290915290205460ff166105af5760008281526097602090815260408083206001600160a01b03851684529091529020805460ff191660011790556111963390565b6001600160a01b0316816001600160a01b0316837f2f8788117e7eff1d82e926ec794901d17c78024a50270940304540a733656f0d60405160405180910390a45050565b60008281526097602090815260408083206001600160a01b038516845290915290205460ff16156105af5760008281526097602090815260408083206001600160a01b0385168085529252808320805460ff1916905551339285917ff6391f5c32d9c69d2a47ea670b442974b53935d1edc7fd64eb21e047a839171b9190a45050565b6033546001600160a01b0316331461074e5760405162461bcd60e51b815260206004820181905260248201527f4f776e61626c653a2063616c6c6572206973206e6f7420746865206f776e6572604482015260640161059c565b60006112ea7f360894a13ba1a3210667c828492db98dca3e2076cc3735a920a3ca505d382bbc546001600160a01b031690565b90506112f58461173d565b6000835111806113025750815b156113135761131184846117ff565b505b7f4910fdfa16fed3260ed0e7147f7cc6da11a60208b5b9406d12a635614ffd9143805460ff1661147457805460ff191660011781556040516001600160a01b03831660248201526113c090869060440160408051601f198184030181529190526020810180517bffffffffffffffffffffffffffffffffffffffffffffffffffffffff167f3659cfe6000000000000000000000000000000000000000000000000000000001790526117ff565b50805460ff191681557f360894a13ba1a3210667c828492db98dca3e2076cc3735a920a3ca505d382bbc546001600160a01b0383811691161461146b5760405162461bcd60e51b815260206004820152602f60248201527f45524331393637557067726164653a207570677261646520627265616b73206660448201527f7572746865722075706772616465730000000000000000000000000000000000606482015260840161059c565b61147485611901565b5050505050565b6000808260405160200161148f9190611e87565b60408051601f1981840301815291905280516020909101209392505050565b603380546001600160a01b0383811673ffffffffffffffffffffffffffffffffffffffff19831681179093556040519116919082907f8be0079c531659141344cd1fd0a4f28419497f9722a3daafe3b4186f6b6457e090600090a35050565b6060600061151c836002611eb9565b611527906002611ed8565b67ffffffffffffffff81111561153f5761153f611b82565b6040519080825280601f01601f191660200182016040528015611569576020820181803683370190505b5090507f3000000000000000000000000000000000000000000000000000000000000000816000815181106115a0576115a0611ef0565b60200101907effffffffffffffffffffffffffffffffffffffffffffffffffffffffffffff1916908160001a9053507f78000000000000000000000000000000000000000000000000000000000000008160018151811061160357611603611ef0565b60200101907effffffffffffffffffffffffffffffffffffffffffffffffffffffffffffff1916908160001a905350600061163f846002611eb9565b61164a906001611ed8565b90505b60018111156116e7577f303132333435363738396162636465660000000000000000000000000000000085600f166010811061168b5761168b611ef0565b1a60f81b8282815181106116a1576116a1611ef0565b60200101907effffffffffffffffffffffffffffffffffffffffffffffffffffffffffffff1916908160001a90535060049490941c936116e081611f06565b905061164d565b5083156117365760405162461bcd60e51b815260206004820181905260248201527f537472696e67733a20686578206c656e67746820696e73756666696369656e74604482015260640161059c565b9392505050565b803b6117b15760405162461bcd60e51b815260206004820152602d60248201527f455243313936373a206e657720696d706c656d656e746174696f6e206973206e60448201527f6f74206120636f6e747261637400000000000000000000000000000000000000606482015260840161059c565b7f360894a13ba1a3210667c828492db98dca3e2076cc3735a920a3ca505d382bbc805473ffffffffffffffffffffffffffffffffffffffff19166001600160a01b0392909216919091179055565b6060823b6118755760405162461bcd60e51b815260206004820152602660248201527f416464726573733a2064656c65676174652063616c6c20746f206e6f6e2d636f60448201527f6e74726163740000000000000000000000000000000000000000000000000000606482015260840161059c565b600080846001600160a01b0316846040516118909190611e87565b600060405180830381855af49150503d80600081146118cb576040519150601f19603f3d011682016040523d82523d6000602084013e6118d0565b606091505b50915091506118f88282604051806060016040528060278152602001611f1e60279139611941565b95945050505050565b61190a8161173d565b6040516001600160a01b038216907fbc7cd75a20ee27fd9adebab32041f755214dbc6bffa90cc0225b39da2e5c2d3b90600090a250565b60608315611950575081611736565b8251156119605782518084602001fd5b8160405162461bcd60e51b815260040161059c9190611e74565b82805461198690611db8565b90600052602060002090601f0160209004810192826119a857600085556119ee565b82601f106119c157805160ff19168380011785556119ee565b828001600101855582156119ee579182015b828111156119ee5782518255916020019190600101906119d3565b506119fa9291506119fe565b5090565b5b808211156119fa57600081556001016119ff565b600060208284031215611a2557600080fd5b81357fffffffff000000000000000000000000000000000000000000000000000000008116811461173657600080fd5b600060208284031215611a6757600080fd5b5035919050565b80356001600160a01b0381168114611a8557600080fd5b919050565b60008060408385031215611a9d57600080fd5b82359150611aad60208401611a6e565b90509250929050565b600060208284031215611ac857600080fd5b61173682611a6e565b60008083601f840112611ae357600080fd5b50813567ffffffffffffffff811115611afb57600080fd5b602083019150836020828501011115611b1357600080fd5b9250929050565b600080600080600060808688031215611b3257600080fd5b8535945060208601359350611b4960408701611a6e565b9250606086013567ffffffffffffffff811115611b6557600080fd5b611b7188828901611ad1565b969995985093965092949392505050565b634e487b7160e01b600052604160045260246000fd5b600067ffffffffffffffff80841115611bb357611bb3611b82565b604051601f8501601f19908116603f01168101908282118183101715611bdb57611bdb611b82565b81604052809350858152868686011115611bf457600080fd5b858560208301376000602087830101525050509392505050565b60008060408385031215611c2157600080fd5b611c2a83611a6e565b9150602083013567ffffffffffffffff811115611c4657600080fd5b8301601f81018513611c5757600080fd5b611c6685823560208401611b98565b9150509250929050565b60008060008060608587031215611c8657600080fd5b84359350611c9660208601611a6e565b9250604085013567ffffffffffffffff811115611cb257600080fd5b611cbe87828801611ad1565b95989497509550505050565b60005b83811015611ce5578181015183820152602001611ccd565b83811115611cf4576000848401525b50505050565b60008151808452611d12816020860160208601611cca565b601f01601f19169290920160200192915050565b85815284602082015260a060408201526000611d4560a0830186611cfa565b6001600160a01b03949094166060830152509015156080909101529392505050565b600060208284031215611d7957600080fd5b813567ffffffffffffffff811115611d9057600080fd5b8201601f81018413611da157600080fd5b611db084823560208401611b98565b949350505050565b600181811c90821680611dcc57607f821691505b60208210811415611ded57634e487b7160e01b600052602260045260246000fd5b50919050565b7f416363657373436f6e74726f6c3a206163636f756e7420000000000000000000815260008351611e2b816017850160208801611cca565b7f206973206d697373696e6720726f6c65200000000000000000000000000000006017918401918201528351611e68816028840160208801611cca565b01602801949350505050565b6020815260006117366020830184611cfa565b60008251611e99818460208701611cca565b9190910192915050565b634e487b7160e01b600052601160045260246000fd5b6000816000190483118215151615611ed357611ed3611ea3565b500290565b60008219821115611eeb57611eeb611ea3565b500190565b634e487b7160e01b600052603260045260246000fd5b600081611f1557611f15611ea3565b50600019019056fe416464726573733a206c6f772d6c6576656c2064656c65676174652063616c6c206661696c6564a2646970667358221220140dd56761a0420a16901500e2944f3f14963b43b3dfa85ab54171d4f05a41de64736f6c634300080b0033",
  "linkReferences": {},
  "deployedLinkReferences": {}
}