{
  "_format": "hh-sol-artifact-1",
  "contractName": "ChildZDAO",
  "sourceName": "contracts/polygon/child/ChildZDAO.sol",
  "abi": [
    {
      "anonymous": false,
      "inputs": [
        {
          "indexed": false,
          "internalType": "address",
          "name": "previousAdmin",
          "type": "address"
        },
        {
          "indexed": false,
          "internalType": "address",
          "name": "newAdmin",
          "type": "address"
        }
      ],
      "name": "AdminChanged",
      "type": "event"
    },
    {
      "anonymous": false,
      "inputs": [
        {
          "indexed": true,
          "internalType": "address",
          "name": "beacon",
          "type": "address"
        }
      ],
      "name": "BeaconUpgraded",
      "type": "event"
    },
    {
      "anonymous": false,
      "inputs": [
        {
          "indexed": true,
          "internalType": "address",
          "name": "previousOwner",
          "type": "address"
        },
        {
          "indexed": true,
          "internalType": "address",
          "name": "newOwner",
          "type": "address"
        }
      ],
      "name": "OwnershipTransferred",
      "type": "event"
    },
    {
      "anonymous": false,
      "inputs": [
        {
          "indexed": false,
          "internalType": "address",
          "name": "account",
          "type": "address"
        }
      ],
      "name": "Paused",
      "type": "event"
    },
    {
      "anonymous": false,
      "inputs": [
        {
          "indexed": true,
          "internalType": "bytes32",
          "name": "role",
          "type": "bytes32"
        },
        {
          "indexed": true,
          "internalType": "bytes32",
          "name": "previousAdminRole",
          "type": "bytes32"
        },
        {
          "indexed": true,
          "internalType": "bytes32",
          "name": "newAdminRole",
          "type": "bytes32"
        }
      ],
      "name": "RoleAdminChanged",
      "type": "event"
    },
    {
      "anonymous": false,
      "inputs": [
        {
          "indexed": true,
          "internalType": "bytes32",
          "name": "role",
          "type": "bytes32"
        },
        {
          "indexed": true,
          "internalType": "address",
          "name": "account",
          "type": "address"
        },
        {
          "indexed": true,
          "internalType": "address",
          "name": "sender",
          "type": "address"
        }
      ],
      "name": "RoleGranted",
      "type": "event"
    },
    {
      "anonymous": false,
      "inputs": [
        {
          "indexed": true,
          "internalType": "bytes32",
          "name": "role",
          "type": "bytes32"
        },
        {
          "indexed": true,
          "internalType": "address",
          "name": "account",
          "type": "address"
        },
        {
          "indexed": true,
          "internalType": "address",
          "name": "sender",
          "type": "address"
        }
      ],
      "name": "RoleRevoked",
      "type": "event"
    },
    {
      "anonymous": false,
      "inputs": [
        {
          "indexed": false,
          "internalType": "address",
          "name": "account",
          "type": "address"
        }
      ],
      "name": "Unpaused",
      "type": "event"
    },
    {
      "anonymous": false,
      "inputs": [
        {
          "indexed": true,
          "internalType": "address",
          "name": "implementation",
          "type": "address"
        }
      ],
      "name": "Upgraded",
      "type": "event"
    },
    {
      "inputs": [],
      "name": "DEFAULT_ADMIN_ROLE",
      "outputs": [
        {
          "internalType": "bytes32",
          "name": "",
          "type": "bytes32"
        }
      ],
      "stateMutability": "view",
      "type": "function"
    },
    {
      "inputs": [
        {
          "internalType": "address",
          "name": "_zDAOChef",
          "type": "address"
        },
        {
          "internalType": "address",
          "name": "_staking",
          "type": "address"
        },
        {
          "internalType": "uint256",
          "name": "_zDAOId",
          "type": "uint256"
        },
        {
          "internalType": "uint256",
          "name": "_duration",
          "type": "uint256"
        },
        {
          "internalType": "address",
          "name": "_token",
          "type": "address"
        }
      ],
      "name": "__ZDAO_init",
      "outputs": [],
      "stateMutability": "nonpayable",
      "type": "function"
    },
    {
      "inputs": [
        {
          "internalType": "uint256",
          "name": "_proposalId",
          "type": "uint256"
        }
      ],
      "name": "calculateProposal",
      "outputs": [
        {
          "internalType": "uint256",
          "name": "voters",
          "type": "uint256"
        },
        {
          "internalType": "uint256",
          "name": "yes",
          "type": "uint256"
        },
        {
          "internalType": "uint256",
          "name": "no",
          "type": "uint256"
        }
      ],
      "stateMutability": "nonpayable",
      "type": "function"
    },
    {
      "inputs": [
        {
          "internalType": "uint256",
          "name": "_proposalId",
          "type": "uint256"
        }
      ],
      "name": "canCalculateProposal",
      "outputs": [
        {
          "internalType": "bool",
          "name": "",
          "type": "bool"
        }
      ],
      "stateMutability": "view",
      "type": "function"
    },
    {
      "inputs": [
        {
          "internalType": "uint256",
          "name": "_proposalId",
          "type": "uint256"
        },
        {
          "internalType": "address",
          "name": "_voter",
          "type": "address"
        }
      ],
      "name": "canVote",
      "outputs": [
        {
          "internalType": "bool",
          "name": "",
          "type": "bool"
        }
      ],
      "stateMutability": "view",
      "type": "function"
    },
    {
      "inputs": [
        {
          "internalType": "uint256",
          "name": "_proposalId",
          "type": "uint256"
        }
      ],
      "name": "cancelProposal",
      "outputs": [],
      "stateMutability": "nonpayable",
      "type": "function"
    },
    {
      "inputs": [
        {
          "internalType": "uint256",
          "name": "_proposalId",
          "type": "uint256"
        },
        {
          "internalType": "address",
          "name": "_voter",
          "type": "address"
        }
      ],
      "name": "choiceOfVoter",
      "outputs": [
        {
          "internalType": "enum IChildZDAO.VoterChoice",
          "name": "",
          "type": "uint8"
        }
      ],
      "stateMutability": "view",
      "type": "function"
    },
    {
      "inputs": [
        {
          "internalType": "uint256",
          "name": "_proposalId",
          "type": "uint256"
        },
        {
          "internalType": "uint256",
          "name": "_startTimestamp",
          "type": "uint256"
        }
      ],
      "name": "createProposal",
      "outputs": [],
      "stateMutability": "nonpayable",
      "type": "function"
    },
    {
      "inputs": [],
      "name": "destroyed",
      "outputs": [
        {
          "internalType": "bool",
          "name": "",
          "type": "bool"
        }
      ],
      "stateMutability": "view",
      "type": "function"
    },
    {
      "inputs": [
        {
          "internalType": "uint256",
          "name": "_proposalId",
          "type": "uint256"
        }
      ],
      "name": "executeProposal",
      "outputs": [],
      "stateMutability": "nonpayable",
      "type": "function"
    },
    {
      "inputs": [
        {
          "internalType": "bytes32",
          "name": "role",
          "type": "bytes32"
        }
      ],
      "name": "getRoleAdmin",
      "outputs": [
        {
          "internalType": "bytes32",
          "name": "",
          "type": "bytes32"
        }
      ],
      "stateMutability": "view",
      "type": "function"
    },
    {
      "inputs": [
        {
          "internalType": "bytes32",
          "name": "role",
          "type": "bytes32"
        },
        {
          "internalType": "address",
          "name": "account",
          "type": "address"
        }
      ],
      "name": "grantRole",
      "outputs": [],
      "stateMutability": "nonpayable",
      "type": "function"
    },
    {
      "inputs": [
        {
          "internalType": "bytes32",
          "name": "role",
          "type": "bytes32"
        },
        {
          "internalType": "address",
          "name": "account",
          "type": "address"
        }
      ],
      "name": "hasRole",
      "outputs": [
        {
          "internalType": "bool",
          "name": "",
          "type": "bool"
        }
      ],
      "stateMutability": "view",
      "type": "function"
    },
    {
      "inputs": [
        {
          "internalType": "uint256",
          "name": "_startIndex",
          "type": "uint256"
        },
        {
          "internalType": "uint256",
          "name": "_count",
          "type": "uint256"
        }
      ],
      "name": "listProposals",
      "outputs": [
        {
          "components": [
            {
              "internalType": "uint256",
              "name": "proposalId",
              "type": "uint256"
            },
            {
              "internalType": "uint256",
              "name": "startTimestamp",
              "type": "uint256"
            },
            {
              "internalType": "uint256",
              "name": "endTimestamp",
              "type": "uint256"
            },
            {
              "internalType": "uint256",
              "name": "yes",
              "type": "uint256"
            },
            {
              "internalType": "uint256",
              "name": "no",
              "type": "uint256"
            },
            {
              "internalType": "uint256",
              "name": "voters",
              "type": "uint256"
            },
            {
              "internalType": "uint256",
              "name": "snapshot",
              "type": "uint256"
            },
            {
              "internalType": "bool",
              "name": "calculated",
              "type": "bool"
            },
            {
              "internalType": "bool",
              "name": "executed",
              "type": "bool"
            },
            {
              "internalType": "bool",
              "name": "canceled",
              "type": "bool"
            }
          ],
          "internalType": "struct IChildZDAO.Proposal[]",
          "name": "records",
          "type": "tuple[]"
        }
      ],
      "stateMutability": "view",
      "type": "function"
    },
    {
      "inputs": [
        {
          "internalType": "uint256",
          "name": "_proposalId",
          "type": "uint256"
        },
        {
          "internalType": "uint256",
          "name": "_startIndex",
          "type": "uint256"
        },
        {
          "internalType": "uint256",
          "name": "_count",
          "type": "uint256"
        }
      ],
      "name": "listVoters",
      "outputs": [
        {
          "internalType": "address[]",
          "name": "voters",
          "type": "address[]"
        },
        {
          "internalType": "uint256[]",
          "name": "choices",
          "type": "uint256[]"
        },
        {
          "internalType": "uint256[]",
          "name": "votes",
          "type": "uint256[]"
        }
      ],
      "stateMutability": "view",
      "type": "function"
    },
    {
      "inputs": [],
      "name": "numberOfProposals",
      "outputs": [
        {
          "internalType": "uint256",
          "name": "",
          "type": "uint256"
        }
      ],
      "stateMutability": "view",
      "type": "function"
    },
    {
      "inputs": [],
      "name": "owner",
      "outputs": [
        {
          "internalType": "address",
          "name": "",
          "type": "address"
        }
      ],
      "stateMutability": "view",
      "type": "function"
    },
    {
      "inputs": [],
      "name": "paused",
      "outputs": [
        {
          "internalType": "bool",
          "name": "",
          "type": "bool"
        }
      ],
      "stateMutability": "view",
      "type": "function"
    },
    {
      "inputs": [
        {
          "internalType": "uint256",
          "name": "",
          "type": "uint256"
        }
      ],
      "name": "proposalIds",
      "outputs": [
        {
          "internalType": "uint256",
          "name": "",
          "type": "uint256"
        }
      ],
      "stateMutability": "view",
      "type": "function"
    },
    {
      "inputs": [
        {
          "internalType": "uint256",
          "name": "",
          "type": "uint256"
        }
      ],
      "name": "proposals",
      "outputs": [
        {
          "internalType": "uint256",
          "name": "proposalId",
          "type": "uint256"
        },
        {
          "internalType": "uint256",
          "name": "startTimestamp",
          "type": "uint256"
        },
        {
          "internalType": "uint256",
          "name": "endTimestamp",
          "type": "uint256"
        },
        {
          "internalType": "uint256",
          "name": "yes",
          "type": "uint256"
        },
        {
          "internalType": "uint256",
          "name": "no",
          "type": "uint256"
        },
        {
          "internalType": "uint256",
          "name": "voters",
          "type": "uint256"
        },
        {
          "internalType": "uint256",
          "name": "snapshot",
          "type": "uint256"
        },
        {
          "internalType": "bool",
          "name": "calculated",
          "type": "bool"
        },
        {
          "internalType": "bool",
          "name": "executed",
          "type": "bool"
        },
        {
          "internalType": "bool",
          "name": "canceled",
          "type": "bool"
        }
      ],
      "stateMutability": "view",
      "type": "function"
    },
    {
      "inputs": [],
      "name": "renounceOwnership",
      "outputs": [],
      "stateMutability": "nonpayable",
      "type": "function"
    },
    {
      "inputs": [
        {
          "internalType": "bytes32",
          "name": "role",
          "type": "bytes32"
        },
        {
          "internalType": "address",
          "name": "account",
          "type": "address"
        }
      ],
      "name": "renounceRole",
      "outputs": [],
      "stateMutability": "nonpayable",
      "type": "function"
    },
    {
      "inputs": [
        {
          "internalType": "bytes32",
          "name": "role",
          "type": "bytes32"
        },
        {
          "internalType": "address",
          "name": "account",
          "type": "address"
        }
      ],
      "name": "revokeRole",
      "outputs": [],
      "stateMutability": "nonpayable",
      "type": "function"
    },
    {
      "inputs": [
        {
          "internalType": "bool",
          "name": "_destroyed",
          "type": "bool"
        }
      ],
      "name": "setDestroyed",
      "outputs": [],
      "stateMutability": "nonpayable",
      "type": "function"
    },
    {
      "inputs": [],
      "name": "staking",
      "outputs": [
        {
          "internalType": "contract Staking",
          "name": "",
          "type": "address"
        }
      ],
      "stateMutability": "view",
      "type": "function"
    },
    {
      "inputs": [
        {
          "internalType": "uint256",
          "name": "_proposalId",
          "type": "uint256"
        }
      ],
      "name": "state",
      "outputs": [
        {
          "internalType": "enum IChildZDAO.ProposalState",
          "name": "",
          "type": "uint8"
        }
      ],
      "stateMutability": "view",
      "type": "function"
    },
    {
      "inputs": [
        {
          "internalType": "bytes4",
          "name": "interfaceId",
          "type": "bytes4"
        }
      ],
      "name": "supportsInterface",
      "outputs": [
        {
          "internalType": "bool",
          "name": "",
          "type": "bool"
        }
      ],
      "stateMutability": "view",
      "type": "function"
    },
    {
      "inputs": [
        {
          "internalType": "address",
          "name": "newOwner",
          "type": "address"
        }
      ],
      "name": "transferOwnership",
      "outputs": [],
      "stateMutability": "nonpayable",
      "type": "function"
    },
    {
      "inputs": [
        {
          "internalType": "address",
          "name": "_token",
          "type": "address"
        }
      ],
      "name": "updateToken",
      "outputs": [],
      "stateMutability": "nonpayable",
      "type": "function"
    },
    {
      "inputs": [
        {
          "internalType": "address",
          "name": "newImplementation",
          "type": "address"
        }
      ],
      "name": "upgradeTo",
      "outputs": [],
      "stateMutability": "nonpayable",
      "type": "function"
    },
    {
      "inputs": [
        {
          "internalType": "address",
          "name": "newImplementation",
          "type": "address"
        },
        {
          "internalType": "bytes",
          "name": "data",
          "type": "bytes"
        }
      ],
      "name": "upgradeToAndCall",
      "outputs": [],
      "stateMutability": "payable",
      "type": "function"
    },
    {
      "inputs": [],
      "name": "version",
      "outputs": [
        {
          "internalType": "uint256",
          "name": "",
          "type": "uint256"
        }
      ],
      "stateMutability": "view",
      "type": "function"
    },
    {
      "inputs": [
        {
          "internalType": "uint256",
          "name": "_proposalId",
          "type": "uint256"
        },
        {
          "internalType": "address",
          "name": "_voter",
          "type": "address"
        },
        {
          "internalType": "uint256",
          "name": "_choice",
          "type": "uint256"
        }
      ],
      "name": "vote",
      "outputs": [],
      "stateMutability": "nonpayable",
      "type": "function"
    },
    {
      "inputs": [
        {
          "internalType": "uint256",
          "name": "_proposalId",
          "type": "uint256"
        }
      ],
      "name": "votesResultOfProposal",
      "outputs": [
        {
          "internalType": "uint256",
          "name": "voters",
          "type": "uint256"
        },
        {
          "internalType": "uint256",
          "name": "yes",
          "type": "uint256"
        },
        {
          "internalType": "uint256",
          "name": "no",
          "type": "uint256"
        }
      ],
      "stateMutability": "view",
      "type": "function"
    },
    {
      "inputs": [
        {
          "internalType": "uint256",
          "name": "_proposalId",
          "type": "uint256"
        },
        {
          "internalType": "address",
          "name": "_voter",
          "type": "address"
        }
      ],
      "name": "votingPowerOfVoter",
      "outputs": [
        {
          "internalType": "uint256",
          "name": "",
          "type": "uint256"
        }
      ],
      "stateMutability": "view",
      "type": "function"
    },
    {
      "inputs": [],
      "name": "zDAOChef",
      "outputs": [
        {
          "internalType": "address",
          "name": "",
          "type": "address"
        }
      ],
      "stateMutability": "view",
      "type": "function"
    },
    {
      "inputs": [],
      "name": "zDAOId",
      "outputs": [
        {
          "internalType": "uint256",
          "name": "",
          "type": "uint256"
        }
      ],
      "stateMutability": "view",
      "type": "function"
    },
    {
      "inputs": [],
      "name": "zDAOInfo",
      "outputs": [
        {
          "internalType": "uint256",
          "name": "zDAOId",
          "type": "uint256"
        },
        {
          "internalType": "uint256",
          "name": "duration",
          "type": "uint256"
        },
        {
          "internalType": "address",
          "name": "token",
          "type": "address"
        },
        {
          "internalType": "uint256",
          "name": "snapshot",
          "type": "uint256"
        },
        {
          "internalType": "bool",
          "name": "destroyed",
          "type": "bool"
        }
      ],
      "stateMutability": "view",
      "type": "function"
    }
  ],
  "bytecode": "0x60a06040523060805234801561001457600080fd5b5060805161385761004560003960008181610d7d01528181610e13015281816113b9015261144f01526138576000f3fe6080604052600436106102855760003560e01c80635c975abb1161015357806391d14854116100cb578063cdb2867b1161007f578063d8191e6c11610064578063d8191e6c14610850578063e0a8f6f5146108c0578063f2fde38b146108e057600080fd5b8063cdb2867b14610810578063d547741f1461083057600080fd5b8063a217fddf116100b0578063a217fddf1461076d578063affc179314610782578063b5c23fdd146107e157600080fd5b806391d14854146107075780639b644a231461074d57600080fd5b80637ad3def2116101225780638d7af473116101075780638d7af473146106b25780638da5cb5b146106c857806390bfeab3146106e657600080fd5b80637ad3def2146106655780637f6dda141461068557600080fd5b80635c975abb146105f857806362a8dab9146106105780636935bda614610630578063715018a61461065057600080fd5b8063359cbbc911610201578063472858b4116101b55780634de8737c1161019a5780634de8737c146105ae5780634f1ef286146105ce57806354fd4d50146105e157600080fd5b8063472858b4146105555780634cf088d91461057557600080fd5b80633659cfe6116101e65780633659cfe6146104e85780633e4f49e614610508578063458d56731461053557600080fd5b8063359cbbc9146104af57806336568abe146104c857600080fd5b8063120e33da11610258578063248a9ca31161023d578063248a9ca31461043f5780632f2ff15d1461046f5780633327374f1461048f57600080fd5b8063120e33da146103c6578063151936131461041f57600080fd5b8063013cf08b1461028a57806301ffc9a7146103545780630d61b519146103845780630e402ea3146103a6575b600080fd5b34801561029657600080fd5b506102ff6102a53660046131dc565b610199602052600090815260409020805460018201546002830154600384015460048501546005860154600687015460079097015495969495939492939192909160ff80821691610100810482169162010000909104168a565b604080519a8b5260208b0199909952978901969096526060880194909452608087019290925260a086015260c0850152151560e084015215156101008301521515610120820152610140015b60405180910390f35b34801561036057600080fd5b5061037461036f3660046131f5565b610900565b604051901515815260200161034b565b34801561039057600080fd5b506103a461039f3660046131dc565b610999565b005b3480156103b257600080fd5b506103746103c13660046131dc565b610b4e565b3480156103d257600080fd5b506104046103e13660046131dc565b600090815261019960205260409020600581015460038201546004909201549092565b6040805193845260208401929092529082015260600161034b565b34801561042b57600080fd5b50610194545b60405190815260200161034b565b34801561044b57600080fd5b5061043161045a3660046131dc565b60009081526097602052604090206001015490565b34801561047b57600080fd5b506103a461048a366004613253565b610b59565b34801561049b57600080fd5b506103a46104aa36600461327f565b610b84565b3480156104bb57600080fd5b506101985460ff16610374565b3480156104d457600080fd5b506103a46104e3366004613253565b610cea565b3480156104f457600080fd5b506103a46105033660046132d6565b610d72565b34801561051457600080fd5b506105286105233660046131dc565b610f10565b60405161034b9190613307565b34801561054157600080fd5b506104046105503660046131dc565b610f9d565b34801561056157600080fd5b506103a4610570366004613321565b61115b565b34801561058157600080fd5b5061019354610596906001600160a01b031681565b6040516001600160a01b03909116815260200161034b565b3480156105ba57600080fd5b506103a46105c9366004613343565b6111bb565b6103a46105dc36600461338e565b6113ae565b3480156105ed57600080fd5b506104316101915481565b34801561060457600080fd5b5060fb5460ff16610374565b34801561061c57600080fd5b5061043161062b366004613253565b611539565b34801561063c57600080fd5b506103a461064b366004613450565b61155d565b34801561065c57600080fd5b506103a4611682565b34801561067157600080fd5b506103a46106803660046132d6565b6116e8565b34801561069157600080fd5b506106a56106a0366004613450565b611764565b60405161034b9190613472565b3480156106be57600080fd5b5061019b54610431565b3480156106d457600080fd5b506033546001600160a01b0316610596565b3480156106f257600080fd5b5061019254610596906001600160a01b031681565b34801561071357600080fd5b50610374610722366004613253565b60009182526097602090815260408084206001600160a01b0393909316845291905290205460ff1690565b34801561075957600080fd5b506104316107683660046131dc565b611938565b34801561077957600080fd5b50610431600081565b34801561078e57600080fd5b506107d461079d366004613253565b600091825261019a602090815260408084206001600160a01b0393909316845260019092019052902054600160a01b900460ff1690565b60405161034b919061351b565b3480156107ed57600080fd5b506108016107fc36600461352f565b61195a565b60405161034b93929190613596565b34801561081c57600080fd5b5061037461082b366004613253565b611b8c565b34801561083c57600080fd5b506103a461084b366004613253565b611ba9565b34801561085c57600080fd5b5061019454610195546101965461019754610198546108889493926001600160a01b0316919060ff1685565b6040805195865260208601949094526001600160a01b039092169284019290925260608301919091521515608082015260a00161034b565b3480156108cc57600080fd5b506103a46108db3660046131dc565b611bcf565b3480156108ec57600080fd5b506103a46108fb3660046132d6565b611da4565b60007fffffffff0000000000000000000000000000000000000000000000000000000082167f7965db0b00000000000000000000000000000000000000000000000000000000148061099357507f01ffc9a7000000000000000000000000000000000000000000000000000000007fffffffff000000000000000000000000000000000000000000000000000000008316145b92915050565b610192546001600160a01b031633146109ea5760405162461bcd60e51b815260206004820152600e60248201526d2737ba1030902d2220a7a1b432b360911b60448201526064015b60405180910390fd5b6101985460ff1615610a3e5760405162461bcd60e51b815260206004820152601160248201527f416c72656164792064657374726f79656400000000000000000000000000000060448201526064016109e1565b6000818152610199602052604090205481908114610a9e5760405162461bcd60e51b815260206004820152601060248201527f496e76616c69642070726f706f73616c0000000000000000000000000000000060448201526064016109e1565b6000828152610199602052604090206007015462010000900460ff16158015610ad957506000828152610199602052604090206007015460ff165b610b255760405162461bcd60e51b815260206004820152601460248201527f4e6f7420612076616c69642070726f706f73616c00000000000000000000000060448201526064016109e1565b610b4a82600090815261019960205260409020600701805461ff001916610100179055565b5050565b600061099382611e83565b600082815260976020526040902060010154610b758133611ea9565b610b7f8383611f29565b505050565b600054610100900460ff16610b9f5760005460ff1615610ba3565b303b155b610c155760405162461bcd60e51b815260206004820152602e60248201527f496e697469616c697a61626c653a20636f6e747261637420697320616c72656160448201527f647920696e697469616c697a656400000000000000000000000000000000000060648201526084016109e1565b600054610100900460ff16158015610c37576000805461ffff19166101011790555b610c3f611fcb565b61019280546001600160a01b0380891673ffffffffffffffffffffffffffffffffffffffff199283161790925561019380548884169083161790556040805160a0810182528781526020810187905292851690830181905243606084018190526000608090940193909352610194879055610195869055610196805490921617905561019755610198805460ff191690558015610ce2576000805461ff00191690555b505050505050565b6001600160a01b0381163314610d685760405162461bcd60e51b815260206004820152602f60248201527f416363657373436f6e74726f6c3a2063616e206f6e6c792072656e6f756e636560448201527f20726f6c657320666f722073656c66000000000000000000000000000000000060648201526084016109e1565b610b4a82826120a2565b306001600160a01b037f0000000000000000000000000000000000000000000000000000000000000000161415610e115760405162461bcd60e51b815260206004820152602c60248201527f46756e6374696f6e206d7573742062652063616c6c6564207468726f7567682060448201527f64656c656761746563616c6c000000000000000000000000000000000000000060648201526084016109e1565b7f00000000000000000000000000000000000000000000000000000000000000006001600160a01b0316610e6c7f360894a13ba1a3210667c828492db98dca3e2076cc3735a920a3ca505d382bbc546001600160a01b031690565b6001600160a01b031614610ee85760405162461bcd60e51b815260206004820152602c60248201527f46756e6374696f6e206d7573742062652063616c6c6564207468726f7567682060448201527f6163746976652070726f7879000000000000000000000000000000000000000060648201526084016109e1565b610ef181612125565b60408051600080825260208201909252610f0d9183919061217f565b50565b600081815261019960205260408120600781015462010000900460ff1615610f3b5750600292915050565b80600101544211610f4f5750600092915050565b80600201544211610f635750600192915050565b6007810154610100900460ff1615610f7e5750600392915050565b600781015460ff1615610f945750600592915050565b50600492915050565b61019254600090819081906001600160a01b03163314610ff05760405162461bcd60e51b815260206004820152600e60248201526d2737ba1030902d2220a7a1b432b360911b60448201526064016109e1565b6101985460ff16156110445760405162461bcd60e51b815260206004820152601160248201527f416c72656164792064657374726f79656400000000000000000000000000000060448201526064016109e1565b60008481526101996020526040902054849081146110a45760405162461bcd60e51b815260206004820152601060248201527f496e76616c69642070726f706f73616c0000000000000000000000000000000060448201526064016109e1565b600085815261019960205260409020600781015462010000900460ff161580156110d35750600781015460ff16155b80156110e25750806002015442115b61112e5760405162461bcd60e51b815260206004820152601460248201527f4e6f7420612076616c69642070726f706f73616c00000000000000000000000060448201526064016109e1565b6005810154600382015460048301546007909301805460ff19166001179055909790965090945092505050565b610192546001600160a01b031633146111a75760405162461bcd60e51b815260206004820152600e60248201526d2737ba1030902d2220a7a1b432b360911b60448201526064016109e1565b610198805460ff1916911515919091179055565b610192546001600160a01b031633146112075760405162461bcd60e51b815260206004820152600e60248201526d2737ba1030902d2220a7a1b432b360911b60448201526064016109e1565b6101985460ff161561125b5760405162461bcd60e51b815260206004820152601160248201527f416c72656164792064657374726f79656400000000000000000000000000000060448201526064016109e1565b60008381526101996020526040902054839081146112bb5760405162461bcd60e51b815260206004820152601060248201527f496e76616c69642070726f706f73616c0000000000000000000000000000000060448201526064016109e1565b60018214806112ca5750600282145b6113165760405162461bcd60e51b815260206004820152600e60248201527f496e76616c69642063686f69636500000000000000000000000000000000000060448201526064016109e1565b6101965461133090859085906001600160a01b0316612343565b61137c5760405162461bcd60e51b815260206004820152601460248201527f4e6f742076616c696420666f7220766f74696e6700000000000000000000000060448201526064016109e1565b610196546113a890859085906001600160a01b03168560028111156113a3576113a36132f1565b612422565b50505050565b306001600160a01b037f000000000000000000000000000000000000000000000000000000000000000016141561144d5760405162461bcd60e51b815260206004820152602c60248201527f46756e6374696f6e206d7573742062652063616c6c6564207468726f7567682060448201527f64656c656761746563616c6c000000000000000000000000000000000000000060648201526084016109e1565b7f00000000000000000000000000000000000000000000000000000000000000006001600160a01b03166114a87f360894a13ba1a3210667c828492db98dca3e2076cc3735a920a3ca505d382bbc546001600160a01b031690565b6001600160a01b0316146115245760405162461bcd60e51b815260206004820152602c60248201527f46756e6374696f6e206d7573742062652063616c6c6564207468726f7567682060448201527f6163746976652070726f7879000000000000000000000000000000000000000060648201526084016109e1565b61152d82612125565b610b4a8282600161217f565b6101965460009061155690849084906001600160a01b0316612624565b9392505050565b610192546001600160a01b031633146115a95760405162461bcd60e51b815260206004820152600e60248201526d2737ba1030902d2220a7a1b432b360911b60448201526064016109e1565b6101985460ff16156115fd5760405162461bcd60e51b815260206004820152601160248201527f416c72656164792064657374726f79656400000000000000000000000000000060448201526064016109e1565b60008211801561161a575060008281526101996020526040902054155b6116665760405162461bcd60e51b815260206004820152601c60248201527f50726f706f73616c2077617320616c726561647920637265617465640000000060448201526064016109e1565b610b4a8282610194600101548461167d9190613621565b6126d7565b6033546001600160a01b031633146116dc5760405162461bcd60e51b815260206004820181905260248201527f4f776e61626c653a2063616c6c6572206973206e6f7420746865206f776e657260448201526064016109e1565b6116e66000612832565b565b610192546001600160a01b031633146117345760405162461bcd60e51b815260206004820152600e60248201526d2737ba1030902d2220a7a1b432b360911b60448201526064016109e1565b610196805473ffffffffffffffffffffffffffffffffffffffff19166001600160a01b0392909216919091179055565b61019b546060908290611778908590613639565b8111156117915761019b5461178e908590613639565b90505b8067ffffffffffffffff8111156117aa576117aa613378565b60405190808252806020026020018201604052801561183757816020015b611824604051806101400160405280600081526020016000815260200160008152602001600081526020016000815260200160008152602001600081526020016000151581526020016000151581526020016000151581525090565b8152602001906001900390816117c85790505b50915060005b8181101561193057610199600061019b6118578489613621565b8154811061186757611867613650565b600091825260208083209091015483528281019390935260409182019020815161014081018352815481526001820154938101939093526002810154918301919091526003810154606083015260048101546080830152600581015460a0830152600681015460c08301526007015460ff808216151560e0840152610100808304821615159084015262010000909104161515610120820152835184908390811061191457611914613650565b60200260200101819052508061192990613666565b905061183d565b505092915050565b61019b818154811061194957600080fd5b600091825260209091200154905081565b600083815261019a60205260409020805460609182918291908590611980908890613639565b811115611997578154611994908890613639565b90505b8067ffffffffffffffff8111156119b0576119b0613378565b6040519080825280602002602001820160405280156119d9578160200160208202803683370190505b5094508067ffffffffffffffff8111156119f5576119f5613378565b604051908082528060200260200182016040528015611a1e578160200160208202803683370190505b5093508067ffffffffffffffff811115611a3a57611a3a613378565b604051908082528060200260200182016040528015611a63578160200160208202803683370190505b5092506000805b82811015611b7f5783611a7d828b613621565b81548110611a8d57611a8d613650565b9060005260206000200160009054906101000a90046001600160a01b0316915081878281518110611ac057611ac0613650565b6001600160a01b039283166020918202929092018101919091529083166000908152600186019091526040902054600160a01b900460ff166002811115611b0957611b096132f1565b868281518110611b1b57611b1b613650565b602002602001018181525050836001016000836001600160a01b03166001600160a01b0316815260200190815260200160002060010154858281518110611b6457611b64613650565b6020908102919091010152611b7881613666565b9050611a6a565b5050505093509350939050565b6101965460009061155690849084906001600160a01b0316612343565b600082815260976020526040902060010154611bc58133611ea9565b610b7f83836120a2565b610192546001600160a01b03163314611c1b5760405162461bcd60e51b815260206004820152600e60248201526d2737ba1030902d2220a7a1b432b360911b60448201526064016109e1565b6101985460ff1615611c6f5760405162461bcd60e51b815260206004820152601160248201527f416c72656164792064657374726f79656400000000000000000000000000000060448201526064016109e1565b6000818152610199602052604090205481908114611ccf5760405162461bcd60e51b815260206004820152601060248201527f496e76616c69642070726f706f73616c0000000000000000000000000000000060448201526064016109e1565b6000828152610199602052604090206007015462010000900460ff16158015611d0b57506000828152610199602052604090206007015460ff16155b611d7d5760405162461bcd60e51b815260206004820152602860248201527f416c72656164792063616e63656c6564206f722063616c63756c61746565642060448201527f70726f706f73616c00000000000000000000000000000000000000000000000060648201526084016109e1565b610b4a82600090815261019960205260409020600701805462ff0000191662010000179055565b6033546001600160a01b03163314611dfe5760405162461bcd60e51b815260206004820181905260248201527f4f776e61626c653a2063616c6c6572206973206e6f7420746865206f776e657260448201526064016109e1565b6001600160a01b038116611e7a5760405162461bcd60e51b815260206004820152602660248201527f4f776e61626c653a206e6577206f776e657220697320746865207a65726f206160448201527f646472657373000000000000000000000000000000000000000000000000000060648201526084016109e1565b610f0d81612832565b600081815261019960205260408120805483148015611556575060020154421192915050565b60008281526097602090815260408083206001600160a01b038516845290915290205460ff16610b4a57611ee7816001600160a01b03166014612891565b611ef2836020612891565b604051602001611f039291906136ad565b60408051601f198184030181529082905262461bcd60e51b82526109e19160040161375a565b60008281526097602090815260408083206001600160a01b038516845290915290205460ff16610b4a5760008281526097602090815260408083206001600160a01b03851684529091529020805460ff19166001179055611f873390565b6001600160a01b0316816001600160a01b0316837f2f8788117e7eff1d82e926ec794901d17c78024a50270940304540a733656f0d60405160405180910390a45050565b600054610100900460ff166120365760405162461bcd60e51b815260206004820152602b60248201527f496e697469616c697a61626c653a20636f6e7472616374206973206e6f74206960448201526a6e697469616c697a696e6760a81b60648201526084016109e1565b61203e612aba565b612046612b35565b61204e612bb8565b612056612c2b565b61205e612ca6565b6001610191819055604080518082019091528181527f760000000000000000000000000000000000000000000000000000000000000060208201526116e691612d11565b60008281526097602090815260408083206001600160a01b038516845290915290205460ff1615610b4a5760008281526097602090815260408083206001600160a01b0385168085529252808320805460ff1916905551339285917ff6391f5c32d9c69d2a47ea670b442974b53935d1edc7fd64eb21e047a839171b9190a45050565b6033546001600160a01b03163314610f0d5760405162461bcd60e51b815260206004820181905260248201527f4f776e61626c653a2063616c6c6572206973206e6f7420746865206f776e657260448201526064016109e1565b60006121b27f360894a13ba1a3210667c828492db98dca3e2076cc3735a920a3ca505d382bbc546001600160a01b031690565b90506121bd84612d84565b6000835111806121ca5750815b156121db576121d98484612e46565b505b7f4910fdfa16fed3260ed0e7147f7cc6da11a60208b5b9406d12a635614ffd9143805460ff1661233c57805460ff191660011781556040516001600160a01b038316602482015261228890869060440160408051601f198184030181529190526020810180517bffffffffffffffffffffffffffffffffffffffffffffffffffffffff167f3659cfe600000000000000000000000000000000000000000000000000000000179052612e46565b50805460ff191681557f360894a13ba1a3210667c828492db98dca3e2076cc3735a920a3ca505d382bbc546001600160a01b038381169116146123335760405162461bcd60e51b815260206004820152602f60248201527f45524331393637557067726164653a207570677261646520627265616b73206660448201527f757274686572207570677261646573000000000000000000000000000000000060648201526084016109e1565b61233c85612f48565b5050505050565b600083815261019960205260408120805485141580612368575061236681612f88565b155b15612377576000915050611556565b6101935460068201546040517fbcf4d4160000000000000000000000000000000000000000000000000000000081526001600160a01b03878116600483015286811660248301526044820192909252600092919091169063bcf4d41690606401602060405180830381865afa1580156123f4573d6000803e3d6000fd5b505050506040513d601f19601f82011682018060405250810190612418919061376d565b1195945050505050565b60008481526101996020908152604080832061019a83528184206001600160a01b038816855260018101909352908320549092600160a01b90910460ff169061246c888888612624565b90506001826002811115612482576124826132f1565b14156124a7578084600301600082825461249c9190613639565b9091555061250e9050565b60028260028111156124bb576124bb6132f1565b14156124d5578084600401600082825461249c9190613639565b825460018101845560008481526020902001805473ffffffffffffffffffffffffffffffffffffffff19166001600160a01b0389161790555b6001600160a01b03871660008181526001850160205260409020805473ffffffffffffffffffffffffffffffffffffffff1981168317825587927fffffffffffffffffffffff00000000000000000000000000000000000000000090911617600160a01b836002811115612584576125846132f1565b02179055506001600160a01b03871660009081526001808501602052604090912081018290558560028111156125bc576125bc6132f1565b14156125e157808460030160008282546125d69190613621565b909155506126159050565b60028560028111156125f5576125f56132f1565b1415612615578084600401600082825461260f9190613621565b90915550505b50505460059091015550505050565b61019354600084815261019960205260408082206006015490517fbcf4d4160000000000000000000000000000000000000000000000000000000081526001600160a01b038681166004830152858116602483015260448201929092529192169063bcf4d41690606401602060405180830381865afa1580156126ab573d6000803e3d6000fd5b505050506040513d601f19601f820116820180604052508101906126cf919061376d565b949350505050565b60008381526101996020526040902054156127345760405162461bcd60e51b815260206004820152601860248201527f416c72656164792070726f706f73616c2063726561746564000000000000000060448201526064016109e1565b604080516101408101825284815260208082019485528183019384526000606083018181526080840182815260a085018381524360c0870190815260e087018581526101008089018781526101208a018881528e8952610199909952998720985189559a516001808a019190915599516002890155935160038801559151600487015551600586015551600685015551600790930180549451925161ffff1990951693151561ff001916939093179115159095021762ff00001916620100009215159290920291909117905561019b805491820181559091527f24aeb2cd7b2cf328da485c24efd7197e86108b05bbc525c1db80c96ffdf7e1290155565b603380546001600160a01b0383811673ffffffffffffffffffffffffffffffffffffffff19831681179093556040519116919082907f8be0079c531659141344cd1fd0a4f28419497f9722a3daafe3b4186f6b6457e090600090a35050565b606060006128a0836002613786565b6128ab906002613621565b67ffffffffffffffff8111156128c3576128c3613378565b6040519080825280601f01601f1916602001820160405280156128ed576020820181803683370190505b5090507f30000000000000000000000000000000000000000000000000000000000000008160008151811061292457612924613650565b60200101907effffffffffffffffffffffffffffffffffffffffffffffffffffffffffffff1916908160001a9053507f78000000000000000000000000000000000000000000000000000000000000008160018151811061298757612987613650565b60200101907effffffffffffffffffffffffffffffffffffffffffffffffffffffffffffff1916908160001a90535060006129c3846002613786565b6129ce906001613621565b90505b6001811115612a6b577f303132333435363738396162636465660000000000000000000000000000000085600f1660108110612a0f57612a0f613650565b1a60f81b828281518110612a2557612a25613650565b60200101907effffffffffffffffffffffffffffffffffffffffffffffffffffffffffffff1916908160001a90535060049490941c93612a64816137a5565b90506129d1565b5083156115565760405162461bcd60e51b815260206004820181905260248201527f537472696e67733a20686578206c656e67746820696e73756666696369656e7460448201526064016109e1565b600054610100900460ff16612b255760405162461bcd60e51b815260206004820152602b60248201527f496e697469616c697a61626c653a20636f6e7472616374206973206e6f74206960448201526a6e697469616c697a696e6760a81b60648201526084016109e1565b612b2d612fba565b6116e6613025565b600054610100900460ff16612ba05760405162461bcd60e51b815260206004820152602b60248201527f496e697469616c697a61626c653a20636f6e7472616374206973206e6f74206960448201526a6e697469616c697a696e6760a81b60648201526084016109e1565b612ba8612fba565b612bb0612fba565b6116e6612fba565b600054610100900460ff16612c235760405162461bcd60e51b815260206004820152602b60248201527f496e697469616c697a61626c653a20636f6e7472616374206973206e6f74206960448201526a6e697469616c697a696e6760a81b60648201526084016109e1565b6116e6613099565b600054610100900460ff16612c965760405162461bcd60e51b815260206004820152602b60248201527f496e697469616c697a61626c653a20636f6e7472616374206973206e6f74206960448201526a6e697469616c697a696e6760a81b60648201526084016109e1565b612c9e612fba565b6116e661310b565b600054610100900460ff16612ba85760405162461bcd60e51b815260206004820152602b60248201527f496e697469616c697a61626c653a20636f6e7472616374206973206e6f74206960448201526a6e697469616c697a696e6760a81b60648201526084016109e1565b610b4a8282604051602401612d279291906137bc565b60408051601f198184030181529190526020810180517bffffffffffffffffffffffffffffffffffffffffffffffffffffffff167f9710a9d000000000000000000000000000000000000000000000000000000000179052613182565b803b612df85760405162461bcd60e51b815260206004820152602d60248201527f455243313936373a206e657720696d706c656d656e746174696f6e206973206e60448201527f6f74206120636f6e74726163740000000000000000000000000000000000000060648201526084016109e1565b7f360894a13ba1a3210667c828492db98dca3e2076cc3735a920a3ca505d382bbc805473ffffffffffffffffffffffffffffffffffffffff19166001600160a01b0392909216919091179055565b6060823b612ebc5760405162461bcd60e51b815260206004820152602660248201527f416464726573733a2064656c65676174652063616c6c20746f206e6f6e2d636f60448201527f6e7472616374000000000000000000000000000000000000000000000000000060648201526084016109e1565b600080846001600160a01b031684604051612ed791906137de565b600060405180830381855af49150503d8060008114612f12576040519150601f19603f3d011682016040523d82523d6000602084013e612f17565b606091505b5091509150612f3f82826040518060600160405280602781526020016137fb602791396131a3565b95945050505050565b612f5181612d84565b6040516001600160a01b038216907fbc7cd75a20ee27fd9adebab32041f755214dbc6bffa90cc0225b39da2e5c2d3b90600090a250565b600081600101544210158015612fa15750816002015442105b80156109935750506007015462010000900460ff161590565b600054610100900460ff166116e65760405162461bcd60e51b815260206004820152602b60248201527f496e697469616c697a61626c653a20636f6e7472616374206973206e6f74206960448201526a6e697469616c697a696e6760a81b60648201526084016109e1565b600054610100900460ff166130905760405162461bcd60e51b815260206004820152602b60248201527f496e697469616c697a61626c653a20636f6e7472616374206973206e6f74206960448201526a6e697469616c697a696e6760a81b60648201526084016109e1565b6116e633612832565b600054610100900460ff166131045760405162461bcd60e51b815260206004820152602b60248201527f496e697469616c697a61626c653a20636f6e7472616374206973206e6f74206960448201526a6e697469616c697a696e6760a81b60648201526084016109e1565b600160c955565b600054610100900460ff166131765760405162461bcd60e51b815260206004820152602b60248201527f496e697469616c697a61626c653a20636f6e7472616374206973206e6f74206960448201526a6e697469616c697a696e6760a81b60648201526084016109e1565b60fb805460ff19169055565b80516a636f6e736f6c652e6c6f67602083016000808483855afa5050505050565b606083156131b2575081611556565b8251156131c25782518084602001fd5b8160405162461bcd60e51b81526004016109e1919061375a565b6000602082840312156131ee57600080fd5b5035919050565b60006020828403121561320757600080fd5b81357fffffffff000000000000000000000000000000000000000000000000000000008116811461155657600080fd5b80356001600160a01b038116811461324e57600080fd5b919050565b6000806040838503121561326657600080fd5b8235915061327660208401613237565b90509250929050565b600080600080600060a0868803121561329757600080fd5b6132a086613237565b94506132ae60208701613237565b935060408601359250606086013591506132ca60808701613237565b90509295509295909350565b6000602082840312156132e857600080fd5b61155682613237565b634e487b7160e01b600052602160045260246000fd5b602081016006831061331b5761331b6132f1565b91905290565b60006020828403121561333357600080fd5b8135801515811461155657600080fd5b60008060006060848603121561335857600080fd5b8335925061336860208501613237565b9150604084013590509250925092565b634e487b7160e01b600052604160045260246000fd5b600080604083850312156133a157600080fd5b6133aa83613237565b9150602083013567ffffffffffffffff808211156133c757600080fd5b818501915085601f8301126133db57600080fd5b8135818111156133ed576133ed613378565b604051601f8201601f19908116603f0116810190838211818310171561341557613415613378565b8160405282815288602084870101111561342e57600080fd5b8260208601602083013760006020848301015280955050505050509250929050565b6000806040838503121561346357600080fd5b50508035926020909101359150565b602080825282518282018190526000919060409081850190868401855b8281101561350e5781518051855286810151878601528581015186860152606080820151908601526080808201519086015260a0808201519086015260c0808201519086015260e0808201511515908601526101008082015115159086015261012090810151151590850152610140909301929085019060010161348f565b5091979650505050505050565b602081016003831061331b5761331b6132f1565b60008060006060848603121561354457600080fd5b505081359360208301359350604090920135919050565b600081518084526020808501945080840160005b8381101561358b5781518752958201959082019060010161356f565b509495945050505050565b606080825284519082018190526000906020906080840190828801845b828110156135d85781516001600160a01b0316845292840192908401906001016135b3565b505050838103828501526135ec818761355b565b9150508281036040840152613601818561355b565b9695505050505050565b634e487b7160e01b600052601160045260246000fd5b600082198211156136345761363461360b565b500190565b60008282101561364b5761364b61360b565b500390565b634e487b7160e01b600052603260045260246000fd5b600060001982141561367a5761367a61360b565b5060010190565b60005b8381101561369c578181015183820152602001613684565b838111156113a85750506000910152565b7f416363657373436f6e74726f6c3a206163636f756e74200000000000000000008152600083516136e5816017850160208801613681565b7f206973206d697373696e6720726f6c65200000000000000000000000000000006017918401918201528351613722816028840160208801613681565b01602801949350505050565b60008151808452613746816020860160208601613681565b601f01601f19169290920160200192915050565b602081526000611556602083018461372e565b60006020828403121561377f57600080fd5b5051919050565b60008160001904831182151516156137a0576137a061360b565b500290565b6000816137b4576137b461360b565b506000190190565b6040815260006137cf604083018561372e565b90508260208301529392505050565b600082516137f0818460208701613681565b919091019291505056fe416464726573733a206c6f772d6c6576656c2064656c65676174652063616c6c206661696c6564a2646970667358221220519c93cc8656d2548480a6320e4c2bdbfd45b6ecc0de56bf3780c40ad69c9af364736f6c634300080b0033",
  "linkReferences": {},
  "deployedLinkReferences": {}
}