{
  "_format": "hh-sol-artifact-1",
  "contractName": "EtherZDAOChef",
  "sourceName": "contracts/ethereum/EtherZDAOChef.sol",
  "abi": [
    {
      "anonymous": false,
      "inputs": [
        {
          "indexed": false,
          "internalType": "address",
          "name": "previousAdmin",
          "type": "address"
        },
        {
          "indexed": false,
          "internalType": "address",
          "name": "newAdmin",
          "type": "address"
        }
      ],
      "name": "AdminChanged",
      "type": "event"
    },
    {
      "anonymous": false,
      "inputs": [
        {
          "indexed": true,
          "internalType": "address",
          "name": "beacon",
          "type": "address"
        }
      ],
      "name": "BeaconUpgraded",
      "type": "event"
    },
    {
      "anonymous": false,
      "inputs": [
        {
          "indexed": true,
          "internalType": "uint256",
          "name": "_daoId",
          "type": "uint256"
        },
        {
          "indexed": true,
          "internalType": "address",
          "name": "_creator",
          "type": "address"
        },
        {
          "indexed": true,
          "internalType": "address",
          "name": "_zDAO",
          "type": "address"
        }
      ],
      "name": "DAOCreated",
      "type": "event"
    },
    {
      "anonymous": false,
      "inputs": [
        {
          "indexed": true,
          "internalType": "uint256",
          "name": "_daoId",
          "type": "uint256"
        }
      ],
      "name": "DAODestroyed",
      "type": "event"
    },
    {
      "anonymous": false,
      "inputs": [
        {
          "indexed": true,
          "internalType": "uint256",
          "name": "_daoId",
          "type": "uint256"
        },
        {
          "indexed": true,
          "internalType": "address",
          "name": "_gnosisSafe",
          "type": "address"
        }
      ],
      "name": "DAOUpdateGnosisSafe",
      "type": "event"
    },
    {
      "anonymous": false,
      "inputs": [
        {
          "indexed": true,
          "internalType": "uint256",
          "name": "_daoId",
          "type": "uint256"
        },
        {
          "indexed": true,
          "internalType": "address",
          "name": "_token",
          "type": "address"
        },
        {
          "indexed": true,
          "internalType": "uint256",
          "name": "_amount",
          "type": "uint256"
        }
      ],
      "name": "DAOUpdateVotingtoken",
      "type": "event"
    },
    {
      "anonymous": false,
      "inputs": [
        {
          "indexed": true,
          "internalType": "uint256",
          "name": "_daoId",
          "type": "uint256"
        },
        {
          "indexed": true,
          "internalType": "uint256",
          "name": "_zNA",
          "type": "uint256"
        }
      ],
      "name": "LinkAdded",
      "type": "event"
    },
    {
      "anonymous": false,
      "inputs": [
        {
          "indexed": true,
          "internalType": "uint256",
          "name": "_daoId",
          "type": "uint256"
        },
        {
          "indexed": true,
          "internalType": "uint256",
          "name": "_zNA",
          "type": "uint256"
        }
      ],
      "name": "LinkRemoved",
      "type": "event"
    },
    {
      "anonymous": false,
      "inputs": [
        {
          "indexed": true,
          "internalType": "address",
          "name": "previousOwner",
          "type": "address"
        },
        {
          "indexed": true,
          "internalType": "address",
          "name": "newOwner",
          "type": "address"
        }
      ],
      "name": "OwnershipTransferred",
      "type": "event"
    },
    {
      "anonymous": false,
      "inputs": [
        {
          "indexed": false,
          "internalType": "address",
          "name": "account",
          "type": "address"
        }
      ],
      "name": "Paused",
      "type": "event"
    },
    {
      "anonymous": false,
      "inputs": [
        {
          "indexed": true,
          "internalType": "uint256",
          "name": "_zDAOId",
          "type": "uint256"
        },
        {
          "indexed": true,
          "internalType": "uint256",
          "name": "_propoalId",
          "type": "uint256"
        },
        {
          "indexed": false,
          "internalType": "uint256",
          "name": "_voters",
          "type": "uint256"
        },
        {
          "indexed": false,
          "internalType": "uint256",
          "name": "_yes",
          "type": "uint256"
        },
        {
          "indexed": false,
          "internalType": "uint256",
          "name": "_no",
          "type": "uint256"
        }
      ],
      "name": "ProposalCalculated",
      "type": "event"
    },
    {
      "anonymous": false,
      "inputs": [
        {
          "indexed": true,
          "internalType": "uint256",
          "name": "_zDAOId",
          "type": "uint256"
        },
        {
          "indexed": true,
          "internalType": "uint256",
          "name": "_proposalId",
          "type": "uint256"
        },
        {
          "indexed": true,
          "internalType": "address",
          "name": "_cancelBy",
          "type": "address"
        }
      ],
      "name": "ProposalCanceled",
      "type": "event"
    },
    {
      "anonymous": false,
      "inputs": [
        {
          "indexed": true,
          "internalType": "uint256",
          "name": "_zDAOId",
          "type": "uint256"
        },
        {
          "indexed": true,
          "internalType": "uint256",
          "name": "_proposalId",
          "type": "uint256"
        },
        {
          "indexed": true,
          "internalType": "address",
          "name": "_createdBy",
          "type": "address"
        },
        {
          "indexed": false,
          "internalType": "uint256",
          "name": "_snapshot",
          "type": "uint256"
        }
      ],
      "name": "ProposalCreated",
      "type": "event"
    },
    {
      "anonymous": false,
      "inputs": [
        {
          "indexed": true,
          "internalType": "uint256",
          "name": "_zDAOId",
          "type": "uint256"
        },
        {
          "indexed": true,
          "internalType": "uint256",
          "name": "_proposalId",
          "type": "uint256"
        },
        {
          "indexed": true,
          "internalType": "address",
          "name": "_executeBy",
          "type": "address"
        }
      ],
      "name": "ProposalExecuted",
      "type": "event"
    },
    {
      "anonymous": false,
      "inputs": [
        {
          "indexed": true,
          "internalType": "bytes32",
          "name": "role",
          "type": "bytes32"
        },
        {
          "indexed": true,
          "internalType": "bytes32",
          "name": "previousAdminRole",
          "type": "bytes32"
        },
        {
          "indexed": true,
          "internalType": "bytes32",
          "name": "newAdminRole",
          "type": "bytes32"
        }
      ],
      "name": "RoleAdminChanged",
      "type": "event"
    },
    {
      "anonymous": false,
      "inputs": [
        {
          "indexed": true,
          "internalType": "bytes32",
          "name": "role",
          "type": "bytes32"
        },
        {
          "indexed": true,
          "internalType": "address",
          "name": "account",
          "type": "address"
        },
        {
          "indexed": true,
          "internalType": "address",
          "name": "sender",
          "type": "address"
        }
      ],
      "name": "RoleGranted",
      "type": "event"
    },
    {
      "anonymous": false,
      "inputs": [
        {
          "indexed": true,
          "internalType": "bytes32",
          "name": "role",
          "type": "bytes32"
        },
        {
          "indexed": true,
          "internalType": "address",
          "name": "account",
          "type": "address"
        },
        {
          "indexed": true,
          "internalType": "address",
          "name": "sender",
          "type": "address"
        }
      ],
      "name": "RoleRevoked",
      "type": "event"
    },
    {
      "anonymous": false,
      "inputs": [
        {
          "indexed": false,
          "internalType": "address",
          "name": "account",
          "type": "address"
        }
      ],
      "name": "Unpaused",
      "type": "event"
    },
    {
      "anonymous": false,
      "inputs": [
        {
          "indexed": true,
          "internalType": "address",
          "name": "implementation",
          "type": "address"
        }
      ],
      "name": "Upgraded",
      "type": "event"
    },
    {
      "inputs": [],
      "name": "DEFAULT_ADMIN_ROLE",
      "outputs": [
        {
          "internalType": "bytes32",
          "name": "",
          "type": "bytes32"
        }
      ],
      "stateMutability": "view",
      "type": "function"
    },
    {
      "inputs": [
        {
          "internalType": "contract IZNSHub",
          "name": "_znsHub",
          "type": "address"
        },
        {
          "internalType": "contract IRootStateSender",
          "name": "_rootStateSender",
          "type": "address"
        },
        {
          "internalType": "address",
          "name": "_zDAOBase",
          "type": "address"
        }
      ],
      "name": "__ZDAOChef_init",
      "outputs": [],
      "stateMutability": "nonpayable",
      "type": "function"
    },
    {
      "inputs": [
        {
          "internalType": "uint256",
          "name": "_zNA",
          "type": "uint256"
        },
        {
          "components": [
            {
              "internalType": "string",
              "name": "title",
              "type": "string"
            },
            {
              "internalType": "address",
              "name": "gnosisSafe",
              "type": "address"
            },
            {
              "internalType": "address",
              "name": "token",
              "type": "address"
            },
            {
              "internalType": "uint256",
              "name": "amount",
              "type": "uint256"
            },
            {
              "internalType": "uint256",
              "name": "duration",
              "type": "uint256"
            },
            {
              "internalType": "uint256",
              "name": "votingThreshold",
              "type": "uint256"
            },
            {
              "internalType": "uint256",
              "name": "minimumVotingParticipants",
              "type": "uint256"
            },
            {
              "internalType": "uint256",
              "name": "minimumTotalVotingTokens",
              "type": "uint256"
            },
            {
              "internalType": "bool",
              "name": "isRelativeMajority",
              "type": "bool"
            }
          ],
          "internalType": "struct IEtherZDAOChef.ZDAOConfig",
          "name": "_zDAOConfig",
          "type": "tuple"
        }
      ],
      "name": "addNewDAO",
      "outputs": [],
      "stateMutability": "nonpayable",
      "type": "function"
    },
    {
      "inputs": [
        {
          "internalType": "uint256",
          "name": "_daoId",
          "type": "uint256"
        },
        {
          "internalType": "uint256",
          "name": "_zNA",
          "type": "uint256"
        }
      ],
      "name": "addZNAAssociation",
      "outputs": [],
      "stateMutability": "nonpayable",
      "type": "function"
    },
    {
      "inputs": [
        {
          "internalType": "uint256",
          "name": "_daoId",
          "type": "uint256"
        },
        {
          "internalType": "uint256",
          "name": "_proposalId",
          "type": "uint256"
        }
      ],
      "name": "cancelProposal",
      "outputs": [],
      "stateMutability": "nonpayable",
      "type": "function"
    },
    {
      "inputs": [
        {
          "internalType": "uint256",
          "name": "_daoId",
          "type": "uint256"
        },
        {
          "internalType": "string",
          "name": "_ipfs",
          "type": "string"
        }
      ],
      "name": "createProposal",
      "outputs": [],
      "stateMutability": "nonpayable",
      "type": "function"
    },
    {
      "inputs": [
        {
          "internalType": "uint256",
          "name": "_zNA",
          "type": "uint256"
        }
      ],
      "name": "doeszDAOExistForzNA",
      "outputs": [
        {
          "internalType": "bool",
          "name": "",
          "type": "bool"
        }
      ],
      "stateMutability": "view",
      "type": "function"
    },
    {
      "inputs": [
        {
          "internalType": "uint256",
          "name": "_daoId",
          "type": "uint256"
        },
        {
          "internalType": "uint256",
          "name": "_proposalId",
          "type": "uint256"
        }
      ],
      "name": "executeProposal",
      "outputs": [],
      "stateMutability": "nonpayable",
      "type": "function"
    },
    {
      "inputs": [
        {
          "internalType": "bytes32",
          "name": "role",
          "type": "bytes32"
        }
      ],
      "name": "getRoleAdmin",
      "outputs": [
        {
          "internalType": "bytes32",
          "name": "",
          "type": "bytes32"
        }
      ],
      "stateMutability": "view",
      "type": "function"
    },
    {
      "inputs": [
        {
          "internalType": "uint256",
          "name": "_daoId",
          "type": "uint256"
        }
      ],
      "name": "getzDAOById",
      "outputs": [
        {
          "components": [
            {
              "internalType": "uint256",
              "name": "id",
              "type": "uint256"
            },
            {
              "internalType": "contract IEtherZDAO",
              "name": "zDAO",
              "type": "address"
            },
            {
              "internalType": "uint256[]",
              "name": "associatedzNAs",
              "type": "uint256[]"
            }
          ],
          "internalType": "struct IEtherZDAOChef.ZDAORecord",
          "name": "",
          "type": "tuple"
        }
      ],
      "stateMutability": "view",
      "type": "function"
    },
    {
      "inputs": [
        {
          "internalType": "uint256",
          "name": "_zNA",
          "type": "uint256"
        }
      ],
      "name": "getzDaoByZNA",
      "outputs": [
        {
          "components": [
            {
              "internalType": "uint256",
              "name": "id",
              "type": "uint256"
            },
            {
              "internalType": "contract IEtherZDAO",
              "name": "zDAO",
              "type": "address"
            },
            {
              "internalType": "uint256[]",
              "name": "associatedzNAs",
              "type": "uint256[]"
            }
          ],
          "internalType": "struct IEtherZDAOChef.ZDAORecord",
          "name": "",
          "type": "tuple"
        }
      ],
      "stateMutability": "view",
      "type": "function"
    },
    {
      "inputs": [
        {
          "internalType": "bytes32",
          "name": "role",
          "type": "bytes32"
        },
        {
          "internalType": "address",
          "name": "account",
          "type": "address"
        }
      ],
      "name": "grantRole",
      "outputs": [],
      "stateMutability": "nonpayable",
      "type": "function"
    },
    {
      "inputs": [
        {
          "internalType": "bytes32",
          "name": "role",
          "type": "bytes32"
        },
        {
          "internalType": "address",
          "name": "account",
          "type": "address"
        }
      ],
      "name": "hasRole",
      "outputs": [
        {
          "internalType": "bool",
          "name": "",
          "type": "bool"
        }
      ],
      "stateMutability": "view",
      "type": "function"
    },
    {
      "inputs": [],
      "name": "lastZDAOId",
      "outputs": [
        {
          "internalType": "uint256",
          "name": "",
          "type": "uint256"
        }
      ],
      "stateMutability": "view",
      "type": "function"
    },
    {
      "inputs": [
        {
          "internalType": "uint256",
          "name": "_startIndex",
          "type": "uint256"
        },
        {
          "internalType": "uint256",
          "name": "_count",
          "type": "uint256"
        }
      ],
      "name": "listzDAOs",
      "outputs": [
        {
          "components": [
            {
              "internalType": "uint256",
              "name": "id",
              "type": "uint256"
            },
            {
              "internalType": "contract IEtherZDAO",
              "name": "zDAO",
              "type": "address"
            },
            {
              "internalType": "uint256[]",
              "name": "associatedzNAs",
              "type": "uint256[]"
            }
          ],
          "internalType": "struct IEtherZDAOChef.ZDAORecord[]",
          "name": "records",
          "type": "tuple[]"
        }
      ],
      "stateMutability": "view",
      "type": "function"
    },
    {
      "inputs": [],
      "name": "numberOfzDAOs",
      "outputs": [
        {
          "internalType": "uint256",
          "name": "",
          "type": "uint256"
        }
      ],
      "stateMutability": "view",
      "type": "function"
    },
    {
      "inputs": [],
      "name": "owner",
      "outputs": [
        {
          "internalType": "address",
          "name": "",
          "type": "address"
        }
      ],
      "stateMutability": "view",
      "type": "function"
    },
    {
      "inputs": [],
      "name": "paused",
      "outputs": [
        {
          "internalType": "bool",
          "name": "",
          "type": "bool"
        }
      ],
      "stateMutability": "view",
      "type": "function"
    },
    {
      "inputs": [
        {
          "internalType": "bytes",
          "name": "_message",
          "type": "bytes"
        }
      ],
      "name": "processMessageFromChild",
      "outputs": [],
      "stateMutability": "nonpayable",
      "type": "function"
    },
    {
      "inputs": [
        {
          "internalType": "uint256",
          "name": "_daoId",
          "type": "uint256"
        }
      ],
      "name": "removeDAO",
      "outputs": [],
      "stateMutability": "nonpayable",
      "type": "function"
    },
    {
      "inputs": [
        {
          "internalType": "uint256",
          "name": "_daoId",
          "type": "uint256"
        },
        {
          "internalType": "uint256",
          "name": "_zNA",
          "type": "uint256"
        }
      ],
      "name": "removeZNAAssociation",
      "outputs": [],
      "stateMutability": "nonpayable",
      "type": "function"
    },
    {
      "inputs": [],
      "name": "renounceOwnership",
      "outputs": [],
      "stateMutability": "nonpayable",
      "type": "function"
    },
    {
      "inputs": [
        {
          "internalType": "bytes32",
          "name": "role",
          "type": "bytes32"
        },
        {
          "internalType": "address",
          "name": "account",
          "type": "address"
        }
      ],
      "name": "renounceRole",
      "outputs": [],
      "stateMutability": "nonpayable",
      "type": "function"
    },
    {
      "inputs": [
        {
          "internalType": "bytes32",
          "name": "role",
          "type": "bytes32"
        },
        {
          "internalType": "address",
          "name": "account",
          "type": "address"
        }
      ],
      "name": "revokeRole",
      "outputs": [],
      "stateMutability": "nonpayable",
      "type": "function"
    },
    {
      "inputs": [],
      "name": "rootStateSender",
      "outputs": [
        {
          "internalType": "contract IRootStateSender",
          "name": "",
          "type": "address"
        }
      ],
      "stateMutability": "view",
      "type": "function"
    },
    {
      "inputs": [
        {
          "internalType": "uint256",
          "name": "_daoId",
          "type": "uint256"
        },
        {
          "internalType": "address",
          "name": "_gnosisSafe",
          "type": "address"
        }
      ],
      "name": "setDAOGnosisSafe",
      "outputs": [],
      "stateMutability": "nonpayable",
      "type": "function"
    },
    {
      "inputs": [
        {
          "internalType": "uint256",
          "name": "_daoId",
          "type": "uint256"
        },
        {
          "internalType": "address",
          "name": "_token",
          "type": "address"
        },
        {
          "internalType": "uint256",
          "name": "_amount",
          "type": "uint256"
        }
      ],
      "name": "setDAOVotingToken",
      "outputs": [],
      "stateMutability": "nonpayable",
      "type": "function"
    },
    {
      "inputs": [
        {
          "internalType": "address",
          "name": "_zDAOBase",
          "type": "address"
        }
      ],
      "name": "setZDAOBase",
      "outputs": [],
      "stateMutability": "nonpayable",
      "type": "function"
    },
    {
      "inputs": [
        {
          "internalType": "address",
          "name": "_znsHub",
          "type": "address"
        }
      ],
      "name": "setZNSHub",
      "outputs": [],
      "stateMutability": "nonpayable",
      "type": "function"
    },
    {
      "inputs": [
        {
          "internalType": "bytes4",
          "name": "interfaceId",
          "type": "bytes4"
        }
      ],
      "name": "supportsInterface",
      "outputs": [
        {
          "internalType": "bool",
          "name": "",
          "type": "bool"
        }
      ],
      "stateMutability": "view",
      "type": "function"
    },
    {
      "inputs": [
        {
          "internalType": "address",
          "name": "newOwner",
          "type": "address"
        }
      ],
      "name": "transferOwnership",
      "outputs": [],
      "stateMutability": "nonpayable",
      "type": "function"
    },
    {
      "inputs": [
        {
          "internalType": "address",
          "name": "newImplementation",
          "type": "address"
        }
      ],
      "name": "upgradeTo",
      "outputs": [],
      "stateMutability": "nonpayable",
      "type": "function"
    },
    {
      "inputs": [
        {
          "internalType": "address",
          "name": "newImplementation",
          "type": "address"
        },
        {
          "internalType": "bytes",
          "name": "data",
          "type": "bytes"
        }
      ],
      "name": "upgradeToAndCall",
      "outputs": [],
      "stateMutability": "payable",
      "type": "function"
    },
    {
      "inputs": [],
      "name": "version",
      "outputs": [
        {
          "internalType": "uint256",
          "name": "",
          "type": "uint256"
        }
      ],
      "stateMutability": "view",
      "type": "function"
    },
    {
      "inputs": [],
      "name": "zDAOBase",
      "outputs": [
        {
          "internalType": "address",
          "name": "",
          "type": "address"
        }
      ],
      "stateMutability": "view",
      "type": "function"
    },
    {
      "inputs": [
        {
          "internalType": "uint256",
          "name": "",
          "type": "uint256"
        }
      ],
      "name": "zDAORecords",
      "outputs": [
        {
          "internalType": "uint256",
          "name": "id",
          "type": "uint256"
        },
        {
          "internalType": "contract IEtherZDAO",
          "name": "zDAO",
          "type": "address"
        }
      ],
      "stateMutability": "view",
      "type": "function"
    },
    {
      "inputs": [],
      "name": "znsHub",
      "outputs": [
        {
          "internalType": "contract IZNSHub",
          "name": "",
          "type": "address"
        }
      ],
      "stateMutability": "view",
      "type": "function"
    }
  ],
  "bytecode": "0x60a06040523060805234801561001457600080fd5b50608051614c4461004560003960008181610e2001528181610eb8015281816111f6015261128e0152614c446000f3fe6080604052600436106200029c5760003560e01c8063759e6a07116200016e578063ba636eef11620000db578063ea0458041162000089578063f2fde38b116200006c578063f2fde38b146200080e578063fa771c641462000833578063fe0ed211146200084c57600080fd5b8063ea04580414620007b5578063ebc31f2614620007da57600080fd5b8063c67cdd0111620000be578063c67cdd011462000746578063d547741f146200076b578063e187a7cf146200079057600080fd5b8063ba636eef1462000709578063bf48022b146200072157600080fd5b8063974a58171162000139578063a217fddf116200011c578063a217fddf14620006aa578063a98bab8a14620006c1578063b74a2c8914620006e657600080fd5b8063974a581714620006515780639fbabe5b146200068557600080fd5b8063759e6a07146200058e5780638da5cb5b14620005b357806391d1485414620005d3578063946b22e2146200061d57600080fd5b80633659cfe6116200020d5780635c975abb11620001d857806362acf0f511620001bb57806362acf0f5146200052e578063715018a614620005515780637200aff9146200056957600080fd5b80635c975abb14620004ef5780635ded8b06146200050957600080fd5b80633659cfe614620004755780634859ef46146200049a5780634f1ef28614620004bf57806354fd4d5014620004d657600080fd5b8063246c88dc116200026b57806329503f7d116200024e57806329503f7d14620003ef5780632f2ff15d146200042b57806336568abe146200045057600080fd5b8063246c88dc146200034c578063248a9ca314620003ac57600080fd5b806301ffc9a714620002a157806302d52fa414620002db57806310123b2e14620003025780631ab767121462000327575b600080fd5b348015620002ae57600080fd5b50620002c6620002c036600462003a84565b62000871565b60405190151581526020015b60405180910390f35b348015620002e857600080fd5b5062000300620002fa36600462003b14565b6200090b565b005b3480156200030f57600080fd5b50620003006200032136600462003b64565b62000afb565b3480156200033457600080fd5b50620003006200034636600462003baa565b62000b9d565b3480156200035957600080fd5b506200038e6200036b36600462003bcd565b61019560205260009081526040902080546001909101546001600160a01b031682565b604080519283526001600160a01b03909116602083015201620002d2565b348015620003b957600080fd5b50620003e0620003cb36600462003bcd565b60009081526097602052604090206001015490565b604051908152602001620002d2565b348015620003fc57600080fd5b506101935462000412906001600160a01b031681565b6040516001600160a01b039091168152602001620002d2565b3480156200043857600080fd5b50620003006200044a36600462003c0f565b62000d5a565b3480156200045d57600080fd5b50620003006200046f36600462003c0f565b62000d89565b3480156200048257600080fd5b50620003006200049436600462003c42565b62000e15565b348015620004a757600080fd5b5062000300620004b936600462003bcd565b62000fbc565b62000300620004d036600462003c78565b620011eb565b348015620004e357600080fd5b50620003e06101915481565b348015620004fc57600080fd5b5060fb5460ff16620002c6565b3480156200051657600080fd5b50620003006200052836600462003baa565b6200137f565b3480156200053b57600080fd5b506101925462000412906001600160a01b031681565b3480156200055e57600080fd5b5062000300620014bf565b3480156200057657600080fd5b50620003006200058836600462003baa565b62001529565b3480156200059b57600080fd5b5062000300620005ad36600462003baa565b6200166f565b348015620005c057600080fd5b506033546001600160a01b031662000412565b348015620005e057600080fd5b50620002c6620005f236600462003c0f565b60009182526097602090815260408084206001600160a01b0393909316845291905290205460ff1690565b3480156200062a57600080fd5b50620006426200063c36600462003baa565b620017f9565b604051620002d2919062003db4565b3480156200065e57600080fd5b50620006766200067036600462003bcd565b62001985565b604051620002d2919062003e38565b3480156200069257600080fd5b5062000300620006a436600462003e4d565b62001aa1565b348015620006b757600080fd5b50620003e0600081565b348015620006ce57600080fd5b5062000300620006e036600462003e94565b62001d63565b348015620006f357600080fd5b506101945462000412906001600160a01b031681565b3480156200071657600080fd5b5061019754620003e0565b3480156200072e57600080fd5b50620003006200074036600462003c0f565b62001ec4565b3480156200075357600080fd5b50620006766200076536600462003bcd565b620020d4565b3480156200077857600080fd5b50620003006200078a36600462003c0f565b62002179565b3480156200079d57600080fd5b5062000300620007af36600462003ee6565b620021a3565b348015620007c257600080fd5b5062000300620007d436600462003c42565b620023f3565b348015620007e757600080fd5b50620002c6620007f936600462003bcd565b60009081526101966020526040902054151590565b3480156200081b57600080fd5b50620003006200082d36600462003c42565b6200247f565b3480156200084057600080fd5b50620003e06101975481565b3480156200085957600080fd5b50620003006200086b36600462003c42565b62002564565b60007fffffffff0000000000000000000000000000000000000000000000000000000082167f7965db0b0000000000000000000000000000000000000000000000000000000014806200090557507f01ffc9a7000000000000000000000000000000000000000000000000000000007fffffffff000000000000000000000000000000000000000000000000000000008316145b92915050565b82600081118015620009205750610197548111155b80156200093557506200093381620025f0565b155b620009765760405162461bcd60e51b815260206004820152600c60248201526b496e76616c6964207a44414f60a01b60448201526064015b60405180910390fd5b600084815261019560205260408082206001015490517f1f4f7d290000000000000000000000000000000000000000000000000000000081526001600160a01b0390911690631f4f7d2990620009d59033908890889060040162003f4c565b6020604051808303816000875af1158015620009f5573d6000803e3d6000fd5b505050506040513d601f19601f8201168201806040525081019062000a1b919062003f71565b9050336001600160a01b031681867f3adb4b5b85d780e775af66d5efff3183afc4c951384c4fe9763eb5e0406b15c64360405162000a5b91815260200190565b60405180910390a4610193546001600160a01b0316634c09e6e860036040805160208101929092528101889052606081018490526080015b6040516020818303038152906040526040518263ffffffff1660e01b815260040162000ac0919062003fe8565b600060405180830381600087803b15801562000adb57600080fd5b505af115801562000af0573d6000803e3d6000fd5b505050505050505050565b610193546001600160a01b0316331462000b585760405162461bcd60e51b815260206004820152601260248201527f4e6f7420612073746174652073656e646572000000000000000000000000000060448201526064016200096d565b62000b9982828080601f0160208091040260200160405190810160405280939291908181526020018383808284376000920191909152506200268692505050565b5050565b8160008111801562000bb25750610197548111155b801562000bc7575062000bc581620025f0565b155b62000c045760405162461bcd60e51b815260206004820152600c60248201526b496e76616c6964207a44414f60a01b60448201526064016200096d565b60008381526101956020526040908190206001015490517fbfc42645000000000000000000000000000000000000000000000000000000008152336004820152602481018490526001600160a01b039091169063bfc4264590604401600060405180830381600087803b15801562000c7b57600080fd5b505af115801562000c90573d6000803e3d6000fd5b505060405133925084915085907fe285e47f4804f679760aa4e907da874045af16436d55df64b64ffd9ca2539dfa90600090a4610193546001600160a01b0316634c09e6e860055b6040805160208101929092528101869052606081018590526080015b6040516020818303038152906040526040518263ffffffff1660e01b815260040162000d21919062003fe8565b600060405180830381600087803b15801562000d3c57600080fd5b505af115801562000d51573d6000803e3d6000fd5b50505050505050565b60008281526097602052604090206001015462000d788133620026b5565b62000d8483836200273e565b505050565b6001600160a01b038116331462000e095760405162461bcd60e51b815260206004820152602f60248201527f416363657373436f6e74726f6c3a2063616e206f6e6c792072656e6f756e636560448201527f20726f6c657320666f722073656c66000000000000000000000000000000000060648201526084016200096d565b62000b998282620027e2565b306001600160a01b037f000000000000000000000000000000000000000000000000000000000000000016141562000eb65760405162461bcd60e51b815260206004820152602c60248201527f46756e6374696f6e206d7573742062652063616c6c6564207468726f7567682060448201527f64656c656761746563616c6c000000000000000000000000000000000000000060648201526084016200096d565b7f00000000000000000000000000000000000000000000000000000000000000006001600160a01b031662000f127f360894a13ba1a3210667c828492db98dca3e2076cc3735a920a3ca505d382bbc546001600160a01b031690565b6001600160a01b03161462000f905760405162461bcd60e51b815260206004820152602c60248201527f46756e6374696f6e206d7573742062652063616c6c6564207468726f7567682060448201527f6163746976652070726f7879000000000000000000000000000000000000000060648201526084016200096d565b62000f9b8162002866565b6040805160008082526020820190925262000fb991839190620028c2565b50565b6000818152610195602090815260409182902060010154825163116b1a0960e01b8152925184936001600160a01b039092169263116b1a0992600480820193918290030181865afa15801562001016573d6000803e3d6000fd5b505050506040513d601f19601f820116820180604052508101906200103c919062003ffd565b6001600160a01b0316336001600160a01b0316146200109e5760405162461bcd60e51b815260206004820152601260248201527f496e76616c6964207a44414f204f776e6572000000000000000000000000000060448201526064016200096d565b81600081118015620010b35750610197548111155b8015620010c85750620010c681620025f0565b155b620011055760405162461bcd60e51b815260206004820152600c60248201526b496e76616c6964207a44414f60a01b60448201526064016200096d565b600083815261019560205260409081902060019081015491517f472858b400000000000000000000000000000000000000000000000000000000815260048101919091526001600160a01b039091169063472858b490602401600060405180830381600087803b1580156200117957600080fd5b505af11580156200118e573d6000803e3d6000fd5b50506040518592507f62d16daa2b15fec62c2624e8279f21d75a1e6d3f8dd790378d3129985765cb4a9150600090a2610193546001600160a01b0316634c09e6e86002604080516020810192909252810186905260600162000cf4565b306001600160a01b037f00000000000000000000000000000000000000000000000000000000000000001614156200128c5760405162461bcd60e51b815260206004820152602c60248201527f46756e6374696f6e206d7573742062652063616c6c6564207468726f7567682060448201527f64656c656761746563616c6c000000000000000000000000000000000000000060648201526084016200096d565b7f00000000000000000000000000000000000000000000000000000000000000006001600160a01b0316620012e87f360894a13ba1a3210667c828492db98dca3e2076cc3735a920a3ca505d382bbc546001600160a01b031690565b6001600160a01b031614620013665760405162461bcd60e51b815260206004820152602c60248201527f46756e6374696f6e206d7573742062652063616c6c6564207468726f7567682060448201527f6163746976652070726f7879000000000000000000000000000000000000000060648201526084016200096d565b620013718262002866565b62000b9982826001620028c2565b81600081118015620013945750610197548111155b8015620013a95750620013a781620025f0565b155b620013e65760405162461bcd60e51b815260206004820152600c60248201526b496e76616c6964207a44414f60a01b60448201526064016200096d565b60008381526101956020526040908190206001015490517f53350755000000000000000000000000000000000000000000000000000000008152336004820152602481018490526001600160a01b0390911690635335075590604401600060405180830381600087803b1580156200145d57600080fd5b505af115801562001472573d6000803e3d6000fd5b505060405133925084915085907f9ebbce99b668db9a753ddb04f826e8eb33904201a74ad92b015aaa3fa039370e90600090a4610193546001600160a01b0316634c09e6e8600462000cd8565b6033546001600160a01b031633146200151b5760405162461bcd60e51b815260206004820181905260248201527f4f776e61626c653a2063616c6c6572206973206e6f7420746865206f776e657260448201526064016200096d565b62001527600062002a94565b565b816000811180156200153e5750610197548111155b80156200155357506200155181620025f0565b155b620015905760405162461bcd60e51b815260206004820152600c60248201526b496e76616c6964207a44414f60a01b60448201526064016200096d565b610192546040516331a9108f60e11b815260048101849052839133916001600160a01b0390911690636352211e90602401602060405180830381865afa158015620015df573d6000803e3d6000fd5b505050506040513d601f19601f8201168201806040525081019062001605919062003ffd565b6001600160a01b0316146200165d5760405162461bcd60e51b815260206004820152600f60248201527f4e6f742061207a4e41206f776e6572000000000000000000000000000000000060448201526064016200096d565b62001669848462002af3565b50505050565b610192546040516331a9108f60e11b815260048101839052829133916001600160a01b0390911690636352211e90602401602060405180830381865afa158015620016be573d6000803e3d6000fd5b505050506040513d601f19601f82011682018060405250810190620016e4919062003ffd565b6001600160a01b0316146200173c5760405162461bcd60e51b815260206004820152600f60248201527f4e6f742061207a4e41206f776e6572000000000000000000000000000000000060448201526064016200096d565b600083118015620017505750610197548311155b6200178d5760405162461bcd60e51b815260206004820152600c60248201526b496e76616c6964207a44414f60a01b60448201526064016200096d565b600082815261019660205260409020548314620017ed5760405162461bcd60e51b815260206004820152601260248201527f7a4e41206e6f74206173736f636961746564000000000000000000000000000060448201526064016200096d565b62000d84838362002bcd565b6101975460609082906200180f90859062004033565b8111156200182b57836101975462001828919062004033565b90505b8067ffffffffffffffff81111562001847576200184762003c62565b6040519080825280602002602001820160405280156200189657816020015b60408051606080820183526000808352602083015291810191909152815260200190600190039081620018665790505b50915060005b818110156200197d576101956000620018b683886200404d565b620018c39060016200404d565b8152602080820192909252604090810160002081516060810183528154815260018201546001600160a01b0316818501526002820180548451818702810187018652818152929593948601938301828280156200194057602002820191906000526020600020905b8154815260200190600101908083116200192b575b5050505050815250508382815181106200195e576200195e62004068565b60200260200101819052508062001975906200407e565b90506200189c565b505092915050565b60408051606080820183526000808352602083015291810191909152600082815261019660205260409020548015801590620019c45750610197548111155b62001a125760405162461bcd60e51b815260206004820152601b60248201527f4e6f207a44414f206173736f6369617465642077697468207a4e41000000000060448201526064016200096d565b6000818152610195602090815260409182902082516060810184528154815260018201546001600160a01b0316818401526002820180548551818602810186018752818152929593949386019383018282801562001a9057602002820191906000526020600020905b81548152602001906001019080831162001a7b575b505050505081525050915050919050565b610192546040516331a9108f60e11b815260048101849052839133916001600160a01b0390911690636352211e90602401602060405180830381865afa15801562001af0573d6000803e3d6000fd5b505050506040513d601f19601f8201168201806040525081019062001b16919062003ffd565b6001600160a01b03161462001b6e5760405162461bcd60e51b815260206004820152600f60248201527f4e6f742061207a4e41206f776e6572000000000000000000000000000000000060448201526064016200096d565b60008381526101966020526040902054801562001bf45760405162461bcd60e51b815260206004820152602960248201527f446f206e6f7420616c6c6f7720746f20616464206e65772044414f207769746860448201527f2073616d65207a4e41000000000000000000000000000000000000000000000060648201526084016200096d565b600062001c018462002cf0565b604080516060810182526101975481526001600160a01b03831660208201529192508101600060405190808252806020026020018201604052801562001c51578160200160208202803683370190505b5090526101975460009081526101956020908152604091829020835181558382015160018201805473ffffffffffffffffffffffffffffffffffffffff19166001600160a01b0390921691909117905591830151805162001cb9926002850192019062003a0f565b5050610197546040516001600160a01b03841692503391907fbac692442c8f05b9b2d2f2c97dc28685a5ea91646da4c845fd03a3f73bcc283a90600090a462001d06610197548662002af3565b610193546001600160a01b0316634c09e6e8600161019754608088013562001d3560608a0160408b0162003c42565b60408051602081019590955284019290925260608301526001600160a01b0316608082015260a00162000a93565b600054610100900460ff1662001d805760005460ff161562001d84565b303b155b62001df85760405162461bcd60e51b815260206004820152602e60248201527f496e697469616c697a61626c653a20636f6e747261637420697320616c72656160448201527f647920696e697469616c697a656400000000000000000000000000000000000060648201526084016200096d565b600054610100900460ff1615801562001e3857600080547fffffffffffffffffffffffffffffffffffffffffffffffffffffffffffff0000166101011790555b62001e4262002dbe565b61019280546001600160a01b0380871673ffffffffffffffffffffffffffffffffffffffff1992831617909255610193805486841690831617905561019480549285169290911691909117905580156200166957600080547fffffffffffffffffffffffffffffffffffffffffffffffffffffffffffff00ff16905550505050565b6000828152610195602090815260409182902060010154825163116b1a0960e01b8152925185936001600160a01b039092169263116b1a0992600480820193918290030181865afa15801562001f1e573d6000803e3d6000fd5b505050506040513d601f19601f8201168201806040525081019062001f44919062003ffd565b6001600160a01b0316336001600160a01b03161462001fa65760405162461bcd60e51b815260206004820152601260248201527f496e76616c6964207a44414f204f776e6572000000000000000000000000000060448201526064016200096d565b8260008111801562001fbb5750610197548111155b801562001fd0575062001fce81620025f0565b155b6200200d5760405162461bcd60e51b815260206004820152600c60248201526b496e76616c6964207a44414f60a01b60448201526064016200096d565b60008481526101956020526040908190206001015490517fc3085a3e0000000000000000000000000000000000000000000000000000000081526001600160a01b0385811660048301529091169063c3085a3e90602401600060405180830381600087803b1580156200207f57600080fd5b505af115801562002094573d6000803e3d6000fd5b50506040516001600160a01b03861692508691507fd13c04b9ca2e0b8d9b68dec914067c36f1a5b8ecf729b26fc901ac7bd449fadd90600090a350505050565b604080516060808201835260008083526020808401829052838501839052858252610195815290849020845192830185528054835260018101546001600160a01b03168383015260028101805486518185028101850188528181529596949592948601938301828280156200216957602002820191906000526020600020905b81548152602001906001019080831162002154575b5050505050815250509050919050565b600082815260976020526040902060010154620021978133620026b5565b62000d848383620027e2565b6000838152610195602090815260409182902060010154825163116b1a0960e01b8152925186936001600160a01b039092169263116b1a0992600480820193918290030181865afa158015620021fd573d6000803e3d6000fd5b505050506040513d601f19601f8201168201806040525081019062002223919062003ffd565b6001600160a01b0316336001600160a01b031614620022855760405162461bcd60e51b815260206004820152601260248201527f496e76616c6964207a44414f204f776e6572000000000000000000000000000060448201526064016200096d565b836000811180156200229a5750610197548111155b8015620022af5750620022ad81620025f0565b155b620022ec5760405162461bcd60e51b815260206004820152600c60248201526b496e76616c6964207a44414f60a01b60448201526064016200096d565b60008581526101956020526040908190206001015490517f137f415b0000000000000000000000000000000000000000000000000000000081526001600160a01b038681166004830152602482018690529091169063137f415b90604401600060405180830381600087803b1580156200236557600080fd5b505af11580156200237a573d6000803e3d6000fd5b5050505082846001600160a01b0316867fb5d5414a361b43f2683d9995f54f8b72cffd37276d05a1001b91eb0cefbcb98260405160405180910390a4610193546001600160a01b0316634c09e6e8600760408051602081019290925281018890526001600160a01b038716606082015260800162000a93565b6033546001600160a01b031633146200244f5760405162461bcd60e51b815260206004820181905260248201527f4f776e61626c653a2063616c6c6572206973206e6f7420746865206f776e657260448201526064016200096d565b610192805473ffffffffffffffffffffffffffffffffffffffff19166001600160a01b0392909216919091179055565b6033546001600160a01b03163314620024db5760405162461bcd60e51b815260206004820181905260248201527f4f776e61626c653a2063616c6c6572206973206e6f7420746865206f776e657260448201526064016200096d565b6001600160a01b038116620025595760405162461bcd60e51b815260206004820152602660248201527f4f776e61626c653a206e6577206f776e657220697320746865207a65726f206160448201527f646472657373000000000000000000000000000000000000000000000000000060648201526084016200096d565b62000fb98162002a94565b6033546001600160a01b03163314620025c05760405162461bcd60e51b815260206004820181905260248201527f4f776e61626c653a2063616c6c6572206973206e6f7420746865206f776e657260448201526064016200096d565b610194805473ffffffffffffffffffffffffffffffffffffffff19166001600160a01b0392909216919091179055565b6000818152610195602090815260408083206001015481517f359cbbc900000000000000000000000000000000000000000000000000000000815291516001600160a01b039091169263359cbbc992600480820193918290030181865afa15801562002660573d6000803e3d6000fd5b505050506040513d601f19601f82011682018060405250810190620009059190620040ab565b6000818060200190518101906200269e919062003f71565b9050600681141562000b995762000b998262002ea3565b60008281526097602090815260408083206001600160a01b038516845290915290205460ff1662000b9957620026f6816001600160a01b0316601462003024565b6200270383602062003024565b60405160200162002716929190620040cb565b60408051601f198184030181529082905262461bcd60e51b82526200096d9160040162003fe8565b60008281526097602090815260408083206001600160a01b038516845290915290205460ff1662000b995760008281526097602090815260408083206001600160a01b03851684529091529020805460ff191660011790556200279e3390565b6001600160a01b0316816001600160a01b0316837f2f8788117e7eff1d82e926ec794901d17c78024a50270940304540a733656f0d60405160405180910390a45050565b60008281526097602090815260408083206001600160a01b038516845290915290205460ff161562000b995760008281526097602090815260408083206001600160a01b0385168085529252808320805460ff1916905551339285917ff6391f5c32d9c69d2a47ea670b442974b53935d1edc7fd64eb21e047a839171b9190a45050565b6033546001600160a01b0316331462000fb95760405162461bcd60e51b815260206004820181905260248201527f4f776e61626c653a2063616c6c6572206973206e6f7420746865206f776e657260448201526064016200096d565b6000620028f67f360894a13ba1a3210667c828492db98dca3e2076cc3735a920a3ca505d382bbc546001600160a01b031690565b9050620029038462003272565b600083511180620029115750815b15620029255762002923848462003336565b505b7f4910fdfa16fed3260ed0e7147f7cc6da11a60208b5b9406d12a635614ffd9143805460ff1662002a8d57805460ff191660011781556040516001600160a01b0383166024820152620029d590869060440160408051601f198184030181529190526020810180517bffffffffffffffffffffffffffffffffffffffffffffffffffffffff167f3659cfe60000000000000000000000000000000000000000000000000000000017905262003336565b50805460ff191681557f360894a13ba1a3210667c828492db98dca3e2076cc3735a920a3ca505d382bbc546001600160a01b0383811691161462002a825760405162461bcd60e51b815260206004820152602f60248201527f45524331393637557067726164653a207570677261646520627265616b73206660448201527f757274686572207570677261646573000000000000000000000000000000000060648201526084016200096d565b62002a8d8562003441565b5050505050565b603380546001600160a01b0383811673ffffffffffffffffffffffffffffffffffffffff19831681179093556040519116919082907f8be0079c531659141344cd1fd0a4f28419497f9722a3daafe3b4186f6b6457e090600090a35050565b600081815261019660205260409020548281141562002b555760405162461bcd60e51b815260206004820152601960248201527f7a4e4120616c7265616479206c696e6b656420746f2044414f0000000000000060448201526064016200096d565b801562002b685762002b68818362002bcd565b6000828152610196602090815260408083208690558583526101958252808320600201805460018101825590845291832090910184905551839185917fffdc17a33b6ff8f8f10d88a733ea9fb0db3faa0b4ec1cf8612f81ba96656cd919190a3505050565b600082815261019560205260408120600281015490915b8181101562002a8d578383600201828154811062002c065762002c0662004068565b9060005260206000200154141562002cdb576002830162002c2960018462004033565b8154811062002c3c5762002c3c62004068565b906000526020600020015483600201828154811062002c5f5762002c5f62004068565b6000918252602090912001556002830180548062002c815762002c8162004150565b6000828152602080822083016000199081018390559092019092558582526101969052604080822082905551859187917ffa997975b6b7327afbe399fcdbc2861d51d0d52e5828cf7e1c8a98cd0cadb7ae9190a362002a8d565b8062002ce7816200407e565b91505062002be4565b61019780546000918262002d04836200407e565b9091555050610194546101975460405162000905926001600160a01b0316917f2864cdbf000000000000000000000000000000000000000000000000000000009162002d5991309133908990602401620041da565b60408051601f198184030181529190526020810180517bffffffffffffffffffffffffffffffffffffffffffffffffffffffff167fffffffff000000000000000000000000000000000000000000000000000000009093169290921790915262003483565b600054610100900460ff1662002e2b5760405162461bcd60e51b815260206004820152602b60248201527f496e697469616c697a61626c653a20636f6e7472616374206973206e6f74206960448201526a6e697469616c697a696e6760a81b60648201526084016200096d565b62002e35620034f6565b62002e3f62003577565b62002e4962003602565b62002e5362003679565b62002e5d620036fa565b6001610191819055604080518082019091528181527f76000000000000000000000000000000000000000000000000000000000000006020820152620015279162003767565b6000806000806000808680602001905181019062002ec29190620042ba565b95509550955095509550955060008511801562002ee25750610197548511155b801562002efa575062002ef861019754620025f0565b155b62002f375760405162461bcd60e51b815260206004820152600c60248201526b496e76616c6964207a44414f60a01b60448201526064016200096d565b60008581526101956020526040908190206001015490517f74cb034f000000000000000000000000000000000000000000000000000000008152600481018690526024810185905260448101849052606481018390526001600160a01b03909116906374cb034f90608401600060405180830381600087803b15801562002fbd57600080fd5b505af115801562002fd2573d6000803e3d6000fd5b505060408051868152602081018690529081018490528692508791507fc5f4ded6fe856e23f8c51620f7792940657a825849eb7efc3ef36aa77951b7929060600160405180910390a350505050505050565b606060006200303583600262004305565b620030429060026200404d565b67ffffffffffffffff8111156200305d576200305d62003c62565b6040519080825280601f01601f19166020018201604052801562003088576020820181803683370190505b5090507f300000000000000000000000000000000000000000000000000000000000000081600081518110620030c257620030c262004068565b60200101907effffffffffffffffffffffffffffffffffffffffffffffffffffffffffffff1916908160001a9053507f78000000000000000000000000000000000000000000000000000000000000008160018151811062003128576200312862004068565b60200101907effffffffffffffffffffffffffffffffffffffffffffffffffffffffffffff1916908160001a90535060006200316684600262004305565b620031739060016200404d565b90505b60018111156200321a577f303132333435363738396162636465660000000000000000000000000000000085600f1660108110620031b857620031b862004068565b1a60f81b828281518110620031d157620031d162004068565b60200101907effffffffffffffffffffffffffffffffffffffffffffffffffffffffffffff1916908160001a90535060049490941c93620032128162004327565b905062003176565b5083156200326b5760405162461bcd60e51b815260206004820181905260248201527f537472696e67733a20686578206c656e67746820696e73756666696369656e7460448201526064016200096d565b9392505050565b803b620032e85760405162461bcd60e51b815260206004820152602d60248201527f455243313936373a206e657720696d706c656d656e746174696f6e206973206e60448201527f6f74206120636f6e74726163740000000000000000000000000000000000000060648201526084016200096d565b7f360894a13ba1a3210667c828492db98dca3e2076cc3735a920a3ca505d382bbc805473ffffffffffffffffffffffffffffffffffffffff19166001600160a01b0392909216919091179055565b6060823b620033ae5760405162461bcd60e51b815260206004820152602660248201527f416464726573733a2064656c65676174652063616c6c20746f206e6f6e2d636f60448201527f6e7472616374000000000000000000000000000000000000000000000000000060648201526084016200096d565b600080846001600160a01b031684604051620033cb919062004341565b600060405180830381855af49150503d806000811462003408576040519150601f19603f3d011682016040523d82523d6000602084013e6200340d565b606091505b509150915062003438828260405180606001604052806027815260200162004be860279139620037de565b95945050505050565b6200344c8162003272565b6040516001600160a01b038216907fbc7cd75a20ee27fd9adebab32041f755214dbc6bffa90cc0225b39da2e5c2d3b90600090a250565b600043826040516020016200349a9291906200435f565b604051602081830303815290604052805190602001208383604051620034c09062003a5f565b620034cd92919062004387565b8190604051809103906000f5905080158015620034ee573d6000803e3d6000fd5b509392505050565b600054610100900460ff16620035635760405162461bcd60e51b815260206004820152602b60248201527f496e697469616c697a61626c653a20636f6e7472616374206973206e6f74206960448201526a6e697469616c697a696e6760a81b60648201526084016200096d565b6200356d6200381c565b6200152762003889565b600054610100900460ff16620035e45760405162461bcd60e51b815260206004820152602b60248201527f496e697469616c697a61626c653a20636f6e7472616374206973206e6f74206960448201526a6e697469616c697a696e6760a81b60648201526084016200096d565b620035ee6200381c565b620035f86200381c565b620015276200381c565b600054610100900460ff166200366f5760405162461bcd60e51b815260206004820152602b60248201527f496e697469616c697a61626c653a20636f6e7472616374206973206e6f74206960448201526a6e697469616c697a696e6760a81b60648201526084016200096d565b6200152762003901565b600054610100900460ff16620036e65760405162461bcd60e51b815260206004820152602b60248201527f496e697469616c697a61626c653a20636f6e7472616374206973206e6f74206960448201526a6e697469616c697a696e6760a81b60648201526084016200096d565b620036f06200381c565b6200152762003975565b600054610100900460ff16620035ee5760405162461bcd60e51b815260206004820152602b60248201527f496e697469616c697a61626c653a20636f6e7472616374206973206e6f74206960448201526a6e697469616c697a696e6760a81b60648201526084016200096d565b62000b99828260405160240162003780929190620043b3565b60408051601f198184030181529190526020810180517bffffffffffffffffffffffffffffffffffffffffffffffffffffffff167f9710a9d000000000000000000000000000000000000000000000000000000000179052620039ee565b60608315620037ef5750816200326b565b825115620038005782518084602001fd5b8160405162461bcd60e51b81526004016200096d919062003fe8565b600054610100900460ff16620015275760405162461bcd60e51b815260206004820152602b60248201527f496e697469616c697a61626c653a20636f6e7472616374206973206e6f74206960448201526a6e697469616c697a696e6760a81b60648201526084016200096d565b600054610100900460ff16620038f65760405162461bcd60e51b815260206004820152602b60248201527f496e697469616c697a61626c653a20636f6e7472616374206973206e6f74206960448201526a6e697469616c697a696e6760a81b60648201526084016200096d565b620015273362002a94565b600054610100900460ff166200396e5760405162461bcd60e51b815260206004820152602b60248201527f496e697469616c697a61626c653a20636f6e7472616374206973206e6f74206960448201526a6e697469616c697a696e6760a81b60648201526084016200096d565b600160c955565b600054610100900460ff16620039e25760405162461bcd60e51b815260206004820152602b60248201527f496e697469616c697a61626c653a20636f6e7472616374206973206e6f74206960448201526a6e697469616c697a696e6760a81b60648201526084016200096d565b60fb805460ff19169055565b80516a636f6e736f6c652e6c6f67602083016000808483855afa5050505050565b82805482825590600052602060002090810192821562003a4d579160200282015b8281111562003a4d57825182559160200191906001019062003a30565b5062003a5b92915062003a6d565b5090565b61081080620043d883390190565b5b8082111562003a5b576000815560010162003a6e565b60006020828403121562003a9757600080fd5b81357fffffffff00000000000000000000000000000000000000000000000000000000811681146200326b57600080fd5b60008083601f84011262003adb57600080fd5b50813567ffffffffffffffff81111562003af457600080fd5b60208301915083602082850101111562003b0d57600080fd5b9250929050565b60008060006040848603121562003b2a57600080fd5b83359250602084013567ffffffffffffffff81111562003b4957600080fd5b62003b578682870162003ac8565b9497909650939450505050565b6000806020838503121562003b7857600080fd5b823567ffffffffffffffff81111562003b9057600080fd5b62003b9e8582860162003ac8565b90969095509350505050565b6000806040838503121562003bbe57600080fd5b50508035926020909101359150565b60006020828403121562003be057600080fd5b5035919050565b6001600160a01b038116811462000fb957600080fd5b803562003c0a8162003be7565b919050565b6000806040838503121562003c2357600080fd5b82359150602083013562003c378162003be7565b809150509250929050565b60006020828403121562003c5557600080fd5b81356200326b8162003be7565b634e487b7160e01b600052604160045260246000fd5b6000806040838503121562003c8c57600080fd5b823562003c998162003be7565b9150602083013567ffffffffffffffff8082111562003cb757600080fd5b818501915085601f83011262003ccc57600080fd5b81358181111562003ce15762003ce162003c62565b604051601f8201601f19908116603f0116810190838211818310171562003d0c5762003d0c62003c62565b8160405282815288602084870101111562003d2657600080fd5b8260208601602083013760006020848301015280955050505050509250929050565b6000606083018251845260206001600160a01b038185015116818601526040840151606060408701528281518085526080880191508383019450600092505b8083101562003da9578451825293830193600192909201919083019062003d87565b509695505050505050565b6000602080830181845280855180835260408601915060408160051b870101925083870160005b8281101562003e2b577fffffffffffffffffffffffffffffffffffffffffffffffffffffffffffffffc088860301845262003e1885835162003d48565b9450928501929085019060010162003ddb565b5092979650505050505050565b6020815260006200326b602083018462003d48565b6000806040838503121562003e6157600080fd5b82359150602083013567ffffffffffffffff81111562003e8057600080fd5b8301610120818603121562003c3757600080fd5b60008060006060848603121562003eaa57600080fd5b833562003eb78162003be7565b9250602084013562003ec98162003be7565b9150604084013562003edb8162003be7565b809150509250925092565b60008060006060848603121562003efc57600080fd5b83359250602084013562003f108162003be7565b929592945050506040919091013590565b818352818160208501375060006020828401015260006020601f19601f840116840101905092915050565b6001600160a01b03841681526040602082015260006200343860408301848662003f21565b60006020828403121562003f8457600080fd5b5051919050565b60005b8381101562003fa857818101518382015260200162003f8e565b83811115620016695750506000910152565b6000815180845262003fd481602086016020860162003f8b565b601f01601f19169290920160200192915050565b6020815260006200326b602083018462003fba565b6000602082840312156200401057600080fd5b81516200326b8162003be7565b634e487b7160e01b600052601160045260246000fd5b6000828210156200404857620040486200401d565b500390565b600082198211156200406357620040636200401d565b500190565b634e487b7160e01b600052603260045260246000fd5b60006000198214156200409557620040956200401d565b5060010190565b801515811462000fb957600080fd5b600060208284031215620040be57600080fd5b81516200326b816200409c565b7f416363657373436f6e74726f6c3a206163636f756e74200000000000000000008152600083516200410581601785016020880162003f8b565b7f206973206d697373696e6720726f6c652000000000000000000000000000000060179184019182015283516200414481602884016020880162003f8b565b01602801949350505050565b634e487b7160e01b600052603160045260246000fd5b60008083357fffffffffffffffffffffffffffffffffffffffffffffffffffffffffffffffe18436030181126200419c57600080fd5b830160208101925035905067ffffffffffffffff811115620041bd57600080fd5b80360383131562003b0d57600080fd5b803562003c0a816200409c565b6001600160a01b03858116825260208201859052831660408201526080606082015260006200420a838062004166565b610120806080860152620042246101a08601838562003f21565b9250620042346020870162003bfd565b6001600160a01b03811660a08701529150620042536040870162003bfd565b6001600160a01b03811660c08701529150606086013560e0860152610100915060808601358286015260a0860135818601525060c085013561014085015260e0850135610160850152620042a9818601620041cd565b801515610180860152905062003da9565b60008060008060008060c08789031215620042d457600080fd5b865195506020870151945060408701519350606087015192506080870151915060a087015190509295509295509295565b60008160001904831182151516156200432257620043226200401d565b500290565b6000816200433957620043396200401d565b506000190190565b600082516200435581846020870162003f8b565b9190910192915050565b828152600082516200437981602085016020870162003f8b565b919091016020019392505050565b6001600160a01b0383168152604060208201526000620043ab604083018462003fba565b949350505050565b604081526000620043c8604083018562003fba565b9050826020830152939250505056fe608060405260405161081038038061081083398101604081905261002291610337565b61004d60017f360894a13ba1a3210667c828492db98dca3e2076cc3735a920a3ca505d382bbd610405565b6000805160206107c9833981519152146100695761006961042a565b6100758282600061007c565b505061048f565b610085836100b2565b6000825111806100925750805b156100ad576100ab83836100f260201b6100291760201c565b505b505050565b6100bb8161011e565b6040516001600160a01b038216907fbc7cd75a20ee27fd9adebab32041f755214dbc6bffa90cc0225b39da2e5c2d3b90600090a250565b606061011783836040518060600160405280602781526020016107e9602791396101de565b9392505050565b610131816102b360201b6100551760201c565b6101985760405162461bcd60e51b815260206004820152602d60248201527f455243313936373a206e657720696d706c656d656e746174696f6e206973206e60448201526c1bdd08184818dbdb9d1c9858dd609a1b60648201526084015b60405180910390fd5b806101bd6000805160206107c983398151915260001b6102b960201b61005b1760201c565b80546001600160a01b0319166001600160a01b039290921691909117905550565b6060833b61023d5760405162461bcd60e51b815260206004820152602660248201527f416464726573733a2064656c65676174652063616c6c20746f206e6f6e2d636f6044820152651b9d1c9858dd60d21b606482015260840161018f565b600080856001600160a01b0316856040516102589190610440565b600060405180830381855af49150503d8060008114610293576040519150601f19603f3d011682016040523d82523d6000602084013e610298565b606091505b5090925090506102a98282866102bc565b9695505050505050565b3b151590565b90565b606083156102cb575081610117565b8251156102db5782518084602001fd5b8160405162461bcd60e51b815260040161018f919061045c565b634e487b7160e01b600052604160045260246000fd5b60005b8381101561032657818101518382015260200161030e565b838111156100ab5750506000910152565b6000806040838503121561034a57600080fd5b82516001600160a01b038116811461036157600080fd5b60208401519092506001600160401b038082111561037e57600080fd5b818501915085601f83011261039257600080fd5b8151818111156103a4576103a46102f5565b604051601f8201601f19908116603f011681019083821181831017156103cc576103cc6102f5565b816040528281528860208487010111156103e557600080fd5b6103f683602083016020880161030b565b80955050505050509250929050565b60008282101561042557634e487b7160e01b600052601160045260246000fd5b500390565b634e487b7160e01b600052600160045260246000fd5b6000825161045281846020870161030b565b9190910192915050565b602081526000825180602084015261047b81604085016020870161030b565b601f01601f19169190910160400192915050565b61032b8061049e6000396000f3fe60806040523661001357610011610017565b005b6100115b61002761002261005e565b6100a3565b565b606061004e83836040518060600160405280602781526020016102cf602791396100c7565b9392505050565b3b151590565b90565b600061009e7f360894a13ba1a3210667c828492db98dca3e2076cc3735a920a3ca505d382bbc5473ffffffffffffffffffffffffffffffffffffffff1690565b905090565b3660008037600080366000845af43d6000803e8080156100c2573d6000f35b3d6000fd5b6060833b61015c576040517f08c379a000000000000000000000000000000000000000000000000000000000815260206004820152602660248201527f416464726573733a2064656c65676174652063616c6c20746f206e6f6e2d636f60448201527f6e7472616374000000000000000000000000000000000000000000000000000060648201526084015b60405180910390fd5b6000808573ffffffffffffffffffffffffffffffffffffffff16856040516101849190610261565b600060405180830381855af49150503d80600081146101bf576040519150601f19603f3d011682016040523d82523d6000602084013e6101c4565b606091505b50915091506101d48282866101de565b9695505050505050565b606083156101ed57508161004e565b8251156101fd5782518084602001fd5b816040517f08c379a0000000000000000000000000000000000000000000000000000000008152600401610153919061027d565b60005b8381101561024c578181015183820152602001610234565b8381111561025b576000848401525b50505050565b60008251610273818460208701610231565b9190910192915050565b602081526000825180602084015261029c816040850160208701610231565b601f017fffffffffffffffffffffffffffffffffffffffffffffffffffffffffffffffe016919091016040019291505056fe416464726573733a206c6f772d6c6576656c2064656c65676174652063616c6c206661696c6564a2646970667358221220622d8852ce84c52c9c688b923393379a20b2b81b950c780b39a7458efb7431b964736f6c634300080b0033360894a13ba1a3210667c828492db98dca3e2076cc3735a920a3ca505d382bbc416464726573733a206c6f772d6c6576656c2064656c65676174652063616c6c206661696c6564416464726573733a206c6f772d6c6576656c2064656c65676174652063616c6c206661696c6564a2646970667358221220a83d0e9d52e2d67ed045efe6182cdc84df173586e8ccd0c5cb85d0c301fe6ee764736f6c634300080b0033",
  "linkReferences": {},
  "deployedLinkReferences": {}
}