{
  "_format": "hh-sol-artifact-1",
  "contractName": "EthereumZDAOChef",
  "sourceName": "contracts/polygon/ethereum/EthereumZDAOChef.sol",
  "abi": [
    {
      "anonymous": false,
      "inputs": [
        {
          "indexed": false,
          "internalType": "address",
          "name": "previousAdmin",
          "type": "address"
        },
        {
          "indexed": false,
          "internalType": "address",
          "name": "newAdmin",
          "type": "address"
        }
      ],
      "name": "AdminChanged",
      "type": "event"
    },
    {
      "anonymous": false,
      "inputs": [
        {
          "indexed": true,
          "internalType": "address",
          "name": "beacon",
          "type": "address"
        }
      ],
      "name": "BeaconUpgraded",
      "type": "event"
    },
    {
      "anonymous": false,
      "inputs": [
        {
          "indexed": true,
          "internalType": "address",
          "name": "previousOwner",
          "type": "address"
        },
        {
          "indexed": true,
          "internalType": "address",
          "name": "newOwner",
          "type": "address"
        }
      ],
      "name": "OwnershipTransferred",
      "type": "event"
    },
    {
      "anonymous": false,
      "inputs": [
        {
          "indexed": false,
          "internalType": "address",
          "name": "account",
          "type": "address"
        }
      ],
      "name": "Paused",
      "type": "event"
    },
    {
      "anonymous": false,
      "inputs": [
        {
          "indexed": true,
          "internalType": "uint256",
          "name": "_zDAOId",
          "type": "uint256"
        },
        {
          "indexed": true,
          "internalType": "uint256",
          "name": "_propoalId",
          "type": "uint256"
        },
        {
          "indexed": false,
          "internalType": "uint256",
          "name": "_voters",
          "type": "uint256"
        },
        {
          "indexed": false,
          "internalType": "uint256",
          "name": "_yes",
          "type": "uint256"
        },
        {
          "indexed": false,
          "internalType": "uint256",
          "name": "_no",
          "type": "uint256"
        }
      ],
      "name": "ProposalCalculated",
      "type": "event"
    },
    {
      "anonymous": false,
      "inputs": [
        {
          "indexed": true,
          "internalType": "uint256",
          "name": "_zDAOId",
          "type": "uint256"
        },
        {
          "indexed": true,
          "internalType": "uint256",
          "name": "_proposalId",
          "type": "uint256"
        },
        {
          "indexed": true,
          "internalType": "address",
          "name": "_cancelBy",
          "type": "address"
        }
      ],
      "name": "ProposalCanceled",
      "type": "event"
    },
    {
      "anonymous": false,
      "inputs": [
        {
          "indexed": true,
          "internalType": "uint256",
          "name": "_zDAOId",
          "type": "uint256"
        },
        {
          "indexed": true,
          "internalType": "uint256",
          "name": "_proposalId",
          "type": "uint256"
        },
        {
          "indexed": true,
          "internalType": "address",
          "name": "_createdBy",
          "type": "address"
        },
        {
          "indexed": false,
          "internalType": "uint256",
          "name": "_snapshot",
          "type": "uint256"
        }
      ],
      "name": "ProposalCreated",
      "type": "event"
    },
    {
      "anonymous": false,
      "inputs": [
        {
          "indexed": true,
          "internalType": "uint256",
          "name": "_zDAOId",
          "type": "uint256"
        },
        {
          "indexed": true,
          "internalType": "uint256",
          "name": "_proposalId",
          "type": "uint256"
        },
        {
          "indexed": true,
          "internalType": "address",
          "name": "_executeBy",
          "type": "address"
        }
      ],
      "name": "ProposalExecuted",
      "type": "event"
    },
    {
      "anonymous": false,
      "inputs": [
        {
          "indexed": true,
          "internalType": "bytes32",
          "name": "role",
          "type": "bytes32"
        },
        {
          "indexed": true,
          "internalType": "bytes32",
          "name": "previousAdminRole",
          "type": "bytes32"
        },
        {
          "indexed": true,
          "internalType": "bytes32",
          "name": "newAdminRole",
          "type": "bytes32"
        }
      ],
      "name": "RoleAdminChanged",
      "type": "event"
    },
    {
      "anonymous": false,
      "inputs": [
        {
          "indexed": true,
          "internalType": "bytes32",
          "name": "role",
          "type": "bytes32"
        },
        {
          "indexed": true,
          "internalType": "address",
          "name": "account",
          "type": "address"
        },
        {
          "indexed": true,
          "internalType": "address",
          "name": "sender",
          "type": "address"
        }
      ],
      "name": "RoleGranted",
      "type": "event"
    },
    {
      "anonymous": false,
      "inputs": [
        {
          "indexed": true,
          "internalType": "bytes32",
          "name": "role",
          "type": "bytes32"
        },
        {
          "indexed": true,
          "internalType": "address",
          "name": "account",
          "type": "address"
        },
        {
          "indexed": true,
          "internalType": "address",
          "name": "sender",
          "type": "address"
        }
      ],
      "name": "RoleRevoked",
      "type": "event"
    },
    {
      "anonymous": false,
      "inputs": [
        {
          "indexed": false,
          "internalType": "address",
          "name": "account",
          "type": "address"
        }
      ],
      "name": "Unpaused",
      "type": "event"
    },
    {
      "anonymous": false,
      "inputs": [
        {
          "indexed": true,
          "internalType": "address",
          "name": "implementation",
          "type": "address"
        }
      ],
      "name": "Upgraded",
      "type": "event"
    },
    {
      "inputs": [],
      "name": "DEFAULT_ADMIN_ROLE",
      "outputs": [
        {
          "internalType": "bytes32",
          "name": "",
          "type": "bytes32"
        }
      ],
      "stateMutability": "view",
      "type": "function"
    },
    {
      "inputs": [
        {
          "internalType": "address",
          "name": "_zDAORegistry",
          "type": "address"
        },
        {
          "internalType": "contract IEthereumStateSender",
          "name": "_ethereumStateSender",
          "type": "address"
        },
        {
          "internalType": "address",
          "name": "_zDAOBase",
          "type": "address"
        }
      ],
      "name": "__ZDAOChef_init",
      "outputs": [],
      "stateMutability": "nonpayable",
      "type": "function"
    },
    {
      "inputs": [
        {
          "internalType": "uint256",
          "name": "_zDAOId",
          "type": "uint256"
        },
        {
          "internalType": "uint256",
          "name": "_zNA",
          "type": "uint256"
        },
        {
          "internalType": "address",
          "name": "_gnosisSafe",
          "type": "address"
        },
        {
          "internalType": "bytes",
          "name": "_options",
          "type": "bytes"
        }
      ],
      "name": "addNewZDAO",
      "outputs": [
        {
          "internalType": "address",
          "name": "",
          "type": "address"
        }
      ],
      "stateMutability": "nonpayable",
      "type": "function"
    },
    {
      "inputs": [
        {
          "internalType": "uint256",
          "name": "_zDAOId",
          "type": "uint256"
        },
        {
          "internalType": "uint256",
          "name": "_proposalId",
          "type": "uint256"
        }
      ],
      "name": "cancelProposal",
      "outputs": [],
      "stateMutability": "nonpayable",
      "type": "function"
    },
    {
      "inputs": [
        {
          "internalType": "uint256",
          "name": "_zDAOId",
          "type": "uint256"
        },
        {
          "internalType": "string",
          "name": "_ipfs",
          "type": "string"
        }
      ],
      "name": "createProposal",
      "outputs": [],
      "stateMutability": "nonpayable",
      "type": "function"
    },
    {
      "inputs": [],
      "name": "ethereumStateSender",
      "outputs": [
        {
          "internalType": "contract IEthereumStateSender",
          "name": "",
          "type": "address"
        }
      ],
      "stateMutability": "view",
      "type": "function"
    },
    {
      "inputs": [
        {
          "internalType": "uint256",
          "name": "_zDAOId",
          "type": "uint256"
        },
        {
          "internalType": "uint256",
          "name": "_proposalId",
          "type": "uint256"
        }
      ],
      "name": "executeProposal",
      "outputs": [],
      "stateMutability": "nonpayable",
      "type": "function"
    },
    {
      "inputs": [
        {
          "internalType": "bytes32",
          "name": "role",
          "type": "bytes32"
        }
      ],
      "name": "getRoleAdmin",
      "outputs": [
        {
          "internalType": "bytes32",
          "name": "",
          "type": "bytes32"
        }
      ],
      "stateMutability": "view",
      "type": "function"
    },
    {
      "inputs": [
        {
          "internalType": "bytes32",
          "name": "role",
          "type": "bytes32"
        },
        {
          "internalType": "address",
          "name": "account",
          "type": "address"
        }
      ],
      "name": "grantRole",
      "outputs": [],
      "stateMutability": "nonpayable",
      "type": "function"
    },
    {
      "inputs": [
        {
          "internalType": "bytes32",
          "name": "role",
          "type": "bytes32"
        },
        {
          "internalType": "address",
          "name": "account",
          "type": "address"
        }
      ],
      "name": "hasRole",
      "outputs": [
        {
          "internalType": "bool",
          "name": "",
          "type": "bool"
        }
      ],
      "stateMutability": "view",
      "type": "function"
    },
    {
      "inputs": [
        {
          "internalType": "uint256",
          "name": "_zDAOId",
          "type": "uint256"
        },
        {
          "internalType": "address",
          "name": "_gnosisSafe",
          "type": "address"
        },
        {
          "internalType": "bytes",
          "name": "_options",
          "type": "bytes"
        }
      ],
      "name": "modifyZDAO",
      "outputs": [],
      "stateMutability": "nonpayable",
      "type": "function"
    },
    {
      "inputs": [],
      "name": "owner",
      "outputs": [
        {
          "internalType": "address",
          "name": "",
          "type": "address"
        }
      ],
      "stateMutability": "view",
      "type": "function"
    },
    {
      "inputs": [],
      "name": "paused",
      "outputs": [
        {
          "internalType": "bool",
          "name": "",
          "type": "bool"
        }
      ],
      "stateMutability": "view",
      "type": "function"
    },
    {
      "inputs": [
        {
          "internalType": "bytes",
          "name": "_message",
          "type": "bytes"
        }
      ],
      "name": "processMessageFromChild",
      "outputs": [],
      "stateMutability": "nonpayable",
      "type": "function"
    },
    {
      "inputs": [
        {
          "internalType": "uint256",
          "name": "_zDAOId",
          "type": "uint256"
        }
      ],
      "name": "removeZDAO",
      "outputs": [],
      "stateMutability": "nonpayable",
      "type": "function"
    },
    {
      "inputs": [],
      "name": "renounceOwnership",
      "outputs": [],
      "stateMutability": "nonpayable",
      "type": "function"
    },
    {
      "inputs": [
        {
          "internalType": "bytes32",
          "name": "role",
          "type": "bytes32"
        },
        {
          "internalType": "address",
          "name": "account",
          "type": "address"
        }
      ],
      "name": "renounceRole",
      "outputs": [],
      "stateMutability": "nonpayable",
      "type": "function"
    },
    {
      "inputs": [
        {
          "internalType": "bytes32",
          "name": "role",
          "type": "bytes32"
        },
        {
          "internalType": "address",
          "name": "account",
          "type": "address"
        }
      ],
      "name": "revokeRole",
      "outputs": [],
      "stateMutability": "nonpayable",
      "type": "function"
    },
    {
      "inputs": [
        {
          "internalType": "address",
          "name": "_zDAOBase",
          "type": "address"
        }
      ],
      "name": "setZDAOBase",
      "outputs": [],
      "stateMutability": "nonpayable",
      "type": "function"
    },
    {
      "inputs": [
        {
          "internalType": "address",
          "name": "_zDAORgistry",
          "type": "address"
        }
      ],
      "name": "setZDAORegistry",
      "outputs": [],
      "stateMutability": "nonpayable",
      "type": "function"
    },
    {
      "inputs": [
        {
          "internalType": "bytes4",
          "name": "interfaceId",
          "type": "bytes4"
        }
      ],
      "name": "supportsInterface",
      "outputs": [
        {
          "internalType": "bool",
          "name": "",
          "type": "bool"
        }
      ],
      "stateMutability": "view",
      "type": "function"
    },
    {
      "inputs": [
        {
          "internalType": "address",
          "name": "newOwner",
          "type": "address"
        }
      ],
      "name": "transferOwnership",
      "outputs": [],
      "stateMutability": "nonpayable",
      "type": "function"
    },
    {
      "inputs": [
        {
          "internalType": "address",
          "name": "newImplementation",
          "type": "address"
        }
      ],
      "name": "upgradeTo",
      "outputs": [],
      "stateMutability": "nonpayable",
      "type": "function"
    },
    {
      "inputs": [
        {
          "internalType": "address",
          "name": "newImplementation",
          "type": "address"
        },
        {
          "internalType": "bytes",
          "name": "data",
          "type": "bytes"
        }
      ],
      "name": "upgradeToAndCall",
      "outputs": [],
      "stateMutability": "payable",
      "type": "function"
    },
    {
      "inputs": [],
      "name": "version",
      "outputs": [
        {
          "internalType": "uint256",
          "name": "",
          "type": "uint256"
        }
      ],
      "stateMutability": "view",
      "type": "function"
    },
    {
      "inputs": [],
      "name": "zDAOBase",
      "outputs": [
        {
          "internalType": "address",
          "name": "",
          "type": "address"
        }
      ],
      "stateMutability": "view",
      "type": "function"
    },
    {
      "inputs": [
        {
          "internalType": "uint256",
          "name": "_zDAOId",
          "type": "uint256"
        }
      ],
      "name": "zDAOInfo",
      "outputs": [
        {
          "components": [
            {
              "internalType": "uint256",
              "name": "zDAOId",
              "type": "uint256"
            },
            {
              "internalType": "address",
              "name": "createdBy",
              "type": "address"
            },
            {
              "internalType": "address",
              "name": "gnosisSafe",
              "type": "address"
            },
            {
              "internalType": "address",
              "name": "token",
              "type": "address"
            },
            {
              "internalType": "uint256",
              "name": "amount",
              "type": "uint256"
            },
            {
              "internalType": "uint256",
              "name": "duration",
              "type": "uint256"
            },
            {
              "internalType": "uint256",
              "name": "votingThreshold",
              "type": "uint256"
            },
            {
              "internalType": "uint256",
              "name": "minimumVotingParticipants",
              "type": "uint256"
            },
            {
              "internalType": "uint256",
              "name": "minimumTotalVotingTokens",
              "type": "uint256"
            },
            {
              "internalType": "uint256",
              "name": "snapshot",
              "type": "uint256"
            },
            {
              "internalType": "bool",
              "name": "isRelativeMajority",
              "type": "bool"
            },
            {
              "internalType": "bool",
              "name": "destroyed",
              "type": "bool"
            }
          ],
          "internalType": "struct IEthereumZDAO.ZDAOInfo",
          "name": "",
          "type": "tuple"
        }
      ],
      "stateMutability": "view",
      "type": "function"
    },
    {
      "inputs": [],
      "name": "zDAORegistry",
      "outputs": [
        {
          "internalType": "address",
          "name": "",
          "type": "address"
        }
      ],
      "stateMutability": "view",
      "type": "function"
    },
    {
      "inputs": [
        {
          "internalType": "uint256",
          "name": "",
          "type": "uint256"
        }
      ],
      "name": "zDAOs",
      "outputs": [
        {
          "internalType": "contract IEthereumZDAO",
          "name": "",
          "type": "address"
        }
      ],
      "stateMutability": "view",
      "type": "function"
    }
  ],
  "bytecode": "0x60a06040523060805234801561001457600080fd5b50608051613e1b61004560003960008181610b6001528181610bf8015281816110f3015261118b0152613e1b6000f3fe608060405260043610620001e75760003560e01c80635accac3f116200010b578063a98bab8a11620000a1578063d547741f116200006c578063d547741f14620005d8578063f2fde38b14620005fd578063f73f50721462000622578063fe0ed211146200064557600080fd5b8063a98bab8a1462000546578063b74a2c89146200056b578063b8f92c50146200058e578063c504f25314620005b357600080fd5b8063715018a611620000e2578063715018a614620004ad5780638da5cb5b14620004c557806391d1485414620004e5578063a217fddf146200052f57600080fd5b80635accac3f146200044b5780635c975abb146200046e5780635ded8b06146200048857600080fd5b806336568abe11620001815780634964d9a511620001585780634964d9a514620003c25780634f1ef28614620003e757806354fd4d5014620003fe5780635516d1dd146200041757600080fd5b806336568abe14620003535780633659cfe614620003785780633ca65bd6146200039d57600080fd5b80631ab7671211620001c25780631ab767121462000272578063248a9ca314620002975780632f2ff15d14620002da5780633628e9f714620002ff57600080fd5b806301ffc9a714620001ec57806302d52fa4146200022657806310123b2e146200024d575b600080fd5b348015620001f957600080fd5b50620002116200020b36600462002c22565b6200066a565b60405190151581526020015b60405180910390f35b3480156200023357600080fd5b506200024b6200024536600462002cb2565b62000704565b005b3480156200025a57600080fd5b506200024b6200026c36600462002d02565b620008e0565b3480156200027f57600080fd5b506200024b6200029136600462002d48565b62000982565b348015620002a457600080fd5b50620002cb620002b636600462002d6b565b60009081526097602052604090206001015490565b6040519081526020016200021d565b348015620002e757600080fd5b506200024b620002f936600462002d9b565b62000a9a565b3480156200030c57600080fd5b506200033a6200031e36600462002d6b565b610195602052600090815260409020546001600160a01b031681565b6040516001600160a01b0390911681526020016200021d565b3480156200036057600080fd5b506200024b6200037236600462002d9b565b62000ac9565b3480156200038557600080fd5b506200024b6200039736600462002dce565b62000b55565b348015620003aa57600080fd5b506200033a620003bc36600462002dee565b62000cfc565b348015620003cf57600080fd5b506200024b620003e136600462002d6b565b62000f63565b6200024b620003f836600462002ed5565b620010e8565b3480156200040b57600080fd5b50620002cb6101915481565b3480156200042457600080fd5b506200043c6200043636600462002d6b565b6200127c565b6040516200021d919062002f88565b3480156200045857600080fd5b50610192546200033a906001600160a01b031681565b3480156200047b57600080fd5b5060fb5460ff1662000211565b3480156200049557600080fd5b506200024b620004a736600462002d48565b62001397565b348015620004ba57600080fd5b506200024b6200153f565b348015620004d257600080fd5b506033546001600160a01b03166200033a565b348015620004f257600080fd5b50620002116200050436600462002d9b565b60009182526097602090815260408084206001600160a01b0393909316845291905290205460ff1690565b3480156200053c57600080fd5b50620002cb600081565b3480156200055357600080fd5b506200024b620005653660046200304e565b620015a9565b3480156200057857600080fd5b50610194546200033a906001600160a01b031681565b3480156200059b57600080fd5b506200024b620005ad36600462002dce565b6200170b565b348015620005c057600080fd5b506200024b620005d2366004620030a0565b62001797565b348015620005e557600080fd5b506200024b620005f736600462002d9b565b62001945565b3480156200060a57600080fd5b506200024b6200061c36600462002dce565b6200196f565b3480156200062f57600080fd5b50610193546200033a906001600160a01b031681565b3480156200065257600080fd5b506200024b6200066436600462002dce565b62001a54565b60007fffffffff0000000000000000000000000000000000000000000000000000000082167f7965db0b000000000000000000000000000000000000000000000000000000001480620006fe57507f01ffc9a7000000000000000000000000000000000000000000000000000000007fffffffff000000000000000000000000000000000000000000000000000000008316145b92915050565b826000811180156200071e57506200071c8162001ae0565b155b6200075f5760405162461bcd60e51b815260206004820152600c60248201526b496e76616c6964207a44414f60a01b60448201526064015b60405180910390fd5b600084815261019560205260408082205490517f1f4f7d290000000000000000000000000000000000000000000000000000000081526001600160a01b0390911690631f4f7d2990620007bb9033908890889060040162003102565b6020604051808303816000875af1158015620007db573d6000803e3d6000fd5b505050506040513d601f19601f8201168201806040525081019062000801919062003141565b9050336001600160a01b031681867f3adb4b5b85d780e775af66d5efff3183afc4c951384c4fe9763eb5e0406b15c6436040516200084191815260200190565b60405180910390a4610193546001600160a01b0316634c09e6e860036040805160208101929092528101889052606081018490526080016040516020818303038152906040526040518263ffffffff1660e01b8152600401620008a59190620031b8565b600060405180830381600087803b158015620008c057600080fd5b505af1158015620008d5573d6000803e3d6000fd5b505050505050505050565b610193546001600160a01b031633146200093d5760405162461bcd60e51b815260206004820152601260248201527f4e6f7420612073746174652073656e6465720000000000000000000000000000604482015260640162000756565b6200097e82828080601f01602080910402602001604051908101604052809392919081815260200183838082843760009201919091525062001b7392505050565b5050565b816000811180156200099c57506200099a8162001ae0565b155b620009d95760405162461bcd60e51b815260206004820152600c60248201526b496e76616c6964207a44414f60a01b604482015260640162000756565b60008381526101956020526040908190205490517fbfc42645000000000000000000000000000000000000000000000000000000008152336004820152602481018490526001600160a01b039091169063bfc4264590604401600060405180830381600087803b15801562000a4d57600080fd5b505af115801562000a62573d6000803e3d6000fd5b505060405133925084915085907fe285e47f4804f679760aa4e907da874045af16436d55df64b64ffd9ca2539dfa90600090a4505050565b60008281526097602052604090206001015462000ab8813362001ba2565b62000ac4838362001c2b565b505050565b6001600160a01b038116331462000b495760405162461bcd60e51b815260206004820152602f60248201527f416363657373436f6e74726f6c3a2063616e206f6e6c792072656e6f756e636560448201527f20726f6c657320666f722073656c660000000000000000000000000000000000606482015260840162000756565b6200097e828262001ccf565b306001600160a01b037f000000000000000000000000000000000000000000000000000000000000000016141562000bf65760405162461bcd60e51b815260206004820152602c60248201527f46756e6374696f6e206d7573742062652063616c6c6564207468726f7567682060448201527f64656c656761746563616c6c0000000000000000000000000000000000000000606482015260840162000756565b7f00000000000000000000000000000000000000000000000000000000000000006001600160a01b031662000c527f360894a13ba1a3210667c828492db98dca3e2076cc3735a920a3ca505d382bbc546001600160a01b031690565b6001600160a01b03161462000cd05760405162461bcd60e51b815260206004820152602c60248201527f46756e6374696f6e206d7573742062652063616c6c6564207468726f7567682060448201527f6163746976652070726f78790000000000000000000000000000000000000000606482015260840162000756565b62000cdb8162001d53565b6040805160008082526020820190925262000cf99183919062001daf565b50565b610192546000906001600160a01b0316331462000d5c5760405162461bcd60e51b815260206004820152600e60248201527f4e6f742061207265676973747279000000000000000000000000000000000000604482015260640162000756565b600086815261019560205260409020546001600160a01b03161562000d855762000d85620031cd565b600062000d9583850185620031f2565b6101945460408051306024820152604481018b90526001600160a01b0389811660648301523360848301528451811660a483015260208086015160c48401528584015160e48401526060860151610104840152608086015161012484015260a086015161014484015260c08601511515610164808501919091528451808503909101815261018490930190935291810180517bffffffffffffffffffffffffffffffffffffffffffffffffffffffff167fb77d71f50000000000000000000000000000000000000000000000000000000017905292935060009262000e7f92919091169062001f7a565b600089815261019560205260409020805473ffffffffffffffffffffffffffffffffffffffff19166001600160a01b03838116919091179091556101935491925016634c09e6e860016040858101518651825160208101949094529183018d905260608301526001600160a01b0316608082015260a0016040516020818303038152906040526040518263ffffffff1660e01b815260040162000f239190620031b8565b600060405180830381600087803b15801562000f3e57600080fd5b505af115801562000f53573d6000803e3d6000fd5b50929a9950505050505050505050565b610192546001600160a01b0316331462000fc05760405162461bcd60e51b815260206004820152600e60248201527f4e6f742061207265676973747279000000000000000000000000000000000000604482015260640162000756565b60008181526101956020526040908190205490517f472858b4000000000000000000000000000000000000000000000000000000008152600160048201526001600160a01b039091169063472858b490602401600060405180830381600087803b1580156200102e57600080fd5b505af115801562001043573d6000803e3d6000fd5b505061019354604080516002602082015280820186905281518082038301815260608201928390527f4c09e6e8000000000000000000000000000000000000000000000000000000009092526001600160a01b039092169350634c09e6e89250620010b191606401620031b8565b600060405180830381600087803b158015620010cc57600080fd5b505af1158015620010e1573d6000803e3d6000fd5b5050505050565b306001600160a01b037f0000000000000000000000000000000000000000000000000000000000000000161415620011895760405162461bcd60e51b815260206004820152602c60248201527f46756e6374696f6e206d7573742062652063616c6c6564207468726f7567682060448201527f64656c656761746563616c6c0000000000000000000000000000000000000000606482015260840162000756565b7f00000000000000000000000000000000000000000000000000000000000000006001600160a01b0316620011e57f360894a13ba1a3210667c828492db98dca3e2076cc3735a920a3ca505d382bbc546001600160a01b031690565b6001600160a01b031614620012635760405162461bcd60e51b815260206004820152602c60248201527f46756e6374696f6e206d7573742062652063616c6c6564207468726f7567682060448201527f6163746976652070726f78790000000000000000000000000000000000000000606482015260840162000756565b6200126e8262001d53565b6200097e8282600162001daf565b620013006040518061018001604052806000815260200160006001600160a01b0316815260200160006001600160a01b0316815260200160006001600160a01b031681526020016000815260200160008152602001600081526020016000815260200160008152602001600081526020016000151581526020016000151581525090565b60008281526101956020526040908190205481517fd8191e6c00000000000000000000000000000000000000000000000000000000815291516001600160a01b039091169163d8191e6c916004808301926101809291908290030181865afa15801562001371573d6000803e3d6000fd5b505050506040513d601f19601f82011682018060405250810190620006fe9190620032ac565b81600081118015620013b15750620013af8162001ae0565b155b620013ee5760405162461bcd60e51b815260206004820152600c60248201526b496e76616c6964207a44414f60a01b604482015260640162000756565b60008381526101956020526040908190205490517f53350755000000000000000000000000000000000000000000000000000000008152336004820152602481018490526001600160a01b0390911690635335075590604401600060405180830381600087803b1580156200146257600080fd5b505af115801562001477573d6000803e3d6000fd5b505060405133925084915085907f9ebbce99b668db9a753ddb04f826e8eb33904201a74ad92b015aaa3fa039370e90600090a4610193546001600160a01b0316634c09e6e860046040805160208101929092528101869052606081018590526080016040516020818303038152906040526040518263ffffffff1660e01b8152600401620015069190620031b8565b600060405180830381600087803b1580156200152157600080fd5b505af115801562001536573d6000803e3d6000fd5b50505050505050565b6033546001600160a01b031633146200159b5760405162461bcd60e51b815260206004820181905260248201527f4f776e61626c653a2063616c6c6572206973206e6f7420746865206f776e6572604482015260640162000756565b620015a7600062001fed565b565b600054610100900460ff16620015c65760005460ff1615620015ca565b303b155b6200163e5760405162461bcd60e51b815260206004820152602e60248201527f496e697469616c697a61626c653a20636f6e747261637420697320616c72656160448201527f647920696e697469616c697a6564000000000000000000000000000000000000606482015260840162000756565b600054610100900460ff161580156200167e57600080547fffffffffffffffffffffffffffffffffffffffffffffffffffffffffffff0000166101011790555b620016886200204c565b61019280546001600160a01b0380871673ffffffffffffffffffffffffffffffffffffffff1992831617909255610193805486841690831617905561019480549285169290911691909117905580156200170557600080547fffffffffffffffffffffffffffffffffffffffffffffffffffffffffffff00ff1690555b50505050565b6033546001600160a01b03163314620017675760405162461bcd60e51b815260206004820181905260248201527f4f776e61626c653a2063616c6c6572206973206e6f7420746865206f776e6572604482015260640162000756565b610192805473ffffffffffffffffffffffffffffffffffffffff19166001600160a01b0392909216919091179055565b610192546001600160a01b03163314620017f45760405162461bcd60e51b815260206004820152600e60248201527f4e6f742061207265676973747279000000000000000000000000000000000000604482015260640162000756565b600080620018058385018562003376565b60008881526101956020526040908190205490517f16cbb96e0000000000000000000000000000000000000000000000000000000081526001600160a01b03898116600483015280851660248301526044820184905293955091935091909116906316cbb96e90606401600060405180830381600087803b1580156200188a57600080fd5b505af11580156200189f573d6000803e3d6000fd5b5050610193546001600160a01b03169150634c09e6e89050600760408051602081019290925281018990526001600160a01b03851660608201526080016040516020818303038152906040526040518263ffffffff1660e01b8152600401620019099190620031b8565b600060405180830381600087803b1580156200192457600080fd5b505af115801562001939573d6000803e3d6000fd5b50505050505050505050565b60008281526097602052604090206001015462001963813362001ba2565b62000ac4838362001ccf565b6033546001600160a01b03163314620019cb5760405162461bcd60e51b815260206004820181905260248201527f4f776e61626c653a2063616c6c6572206973206e6f7420746865206f776e6572604482015260640162000756565b6001600160a01b03811662001a495760405162461bcd60e51b815260206004820152602660248201527f4f776e61626c653a206e6577206f776e657220697320746865207a65726f206160448201527f6464726573730000000000000000000000000000000000000000000000000000606482015260840162000756565b62000cf98162001fed565b6033546001600160a01b0316331462001ab05760405162461bcd60e51b815260206004820181905260248201527f4f776e61626c653a2063616c6c6572206973206e6f7420746865206f776e6572604482015260640162000756565b610194805473ffffffffffffffffffffffffffffffffffffffff19166001600160a01b0392909216919091179055565b6000818152610195602090815260408083205481517f359cbbc900000000000000000000000000000000000000000000000000000000815291516001600160a01b039091169263359cbbc992600480820193918290030181865afa15801562001b4d573d6000803e3d6000fd5b505050506040513d601f19601f82011682018060405250810190620006fe9190620033a5565b60008180602001905181019062001b8b919062003141565b905060068114156200097e576200097e8262002131565b60008281526097602090815260408083206001600160a01b038516845290915290205460ff166200097e5762001be3816001600160a01b031660146200229c565b62001bf08360206200229c565b60405160200162001c03929190620033c5565b60408051601f198184030181529082905262461bcd60e51b82526200075691600401620031b8565b60008281526097602090815260408083206001600160a01b038516845290915290205460ff166200097e5760008281526097602090815260408083206001600160a01b03851684529091529020805460ff1916600117905562001c8b3390565b6001600160a01b0316816001600160a01b0316837f2f8788117e7eff1d82e926ec794901d17c78024a50270940304540a733656f0d60405160405180910390a45050565b60008281526097602090815260408083206001600160a01b038516845290915290205460ff16156200097e5760008281526097602090815260408083206001600160a01b0385168085529252808320805460ff1916905551339285917ff6391f5c32d9c69d2a47ea670b442974b53935d1edc7fd64eb21e047a839171b9190a45050565b6033546001600160a01b0316331462000cf95760405162461bcd60e51b815260206004820181905260248201527f4f776e61626c653a2063616c6c6572206973206e6f7420746865206f776e6572604482015260640162000756565b600062001de37f360894a13ba1a3210667c828492db98dca3e2076cc3735a920a3ca505d382bbc546001600160a01b031690565b905062001df084620024ea565b60008351118062001dfe5750815b1562001e125762001e108484620025ae565b505b7f4910fdfa16fed3260ed0e7147f7cc6da11a60208b5b9406d12a635614ffd9143805460ff16620010e157805460ff191660011781556040516001600160a01b038316602482015262001ec290869060440160408051601f198184030181529190526020810180517bffffffffffffffffffffffffffffffffffffffffffffffffffffffff167f3659cfe600000000000000000000000000000000000000000000000000000000179052620025ae565b50805460ff191681557f360894a13ba1a3210667c828492db98dca3e2076cc3735a920a3ca505d382bbc546001600160a01b0383811691161462001f6f5760405162461bcd60e51b815260206004820152602f60248201527f45524331393637557067726164653a207570677261646520627265616b73206660448201527f7572746865722075706772616465730000000000000000000000000000000000606482015260840162000756565b620010e185620026b9565b6000438260405160200162001f919291906200344a565b60405160208183030381529060405280519060200120838360405162001fb79062002c14565b62001fc492919062003472565b8190604051809103906000f590508015801562001fe5573d6000803e3d6000fd5b509392505050565b603380546001600160a01b0383811673ffffffffffffffffffffffffffffffffffffffff19831681179093556040519116919082907f8be0079c531659141344cd1fd0a4f28419497f9722a3daafe3b4186f6b6457e090600090a35050565b600054610100900460ff16620020b95760405162461bcd60e51b815260206004820152602b60248201527f496e697469616c697a61626c653a20636f6e7472616374206973206e6f74206960448201526a6e697469616c697a696e6760a81b606482015260840162000756565b620020c3620026fb565b620020cd6200277c565b620020d762002807565b620020e16200287e565b620020eb620028ff565b6001610191819055604080518082019091528181527f76000000000000000000000000000000000000000000000000000000000000006020820152620015a7916200296c565b600080600080600080868060200190518101906200215091906200349e565b955095509550955095509550600085118015620021755750620021738562001ae0565b155b620021b25760405162461bcd60e51b815260206004820152600c60248201526b496e76616c6964207a44414f60a01b604482015260640162000756565b60008581526101956020526040908190205490517f74cb034f000000000000000000000000000000000000000000000000000000008152600481018690526024810185905260448101849052606481018390526001600160a01b03909116906374cb034f90608401600060405180830381600087803b1580156200223557600080fd5b505af11580156200224a573d6000803e3d6000fd5b505060408051868152602081018690529081018490528692508791507fc5f4ded6fe856e23f8c51620f7792940657a825849eb7efc3ef36aa77951b7929060600160405180910390a350505050505050565b60606000620022ad836002620034ff565b620022ba90600262003521565b67ffffffffffffffff811115620022d557620022d562002e5e565b6040519080825280601f01601f19166020018201604052801562002300576020820181803683370190505b5090507f3000000000000000000000000000000000000000000000000000000000000000816000815181106200233a576200233a6200353c565b60200101907effffffffffffffffffffffffffffffffffffffffffffffffffffffffffffff1916908160001a9053507f780000000000000000000000000000000000000000000000000000000000000081600181518110620023a057620023a06200353c565b60200101907effffffffffffffffffffffffffffffffffffffffffffffffffffffffffffff1916908160001a9053506000620023de846002620034ff565b620023eb90600162003521565b90505b600181111562002492577f303132333435363738396162636465660000000000000000000000000000000085600f16601081106200243057620024306200353c565b1a60f81b8282815181106200244957620024496200353c565b60200101907effffffffffffffffffffffffffffffffffffffffffffffffffffffffffffff1916908160001a90535060049490941c936200248a8162003552565b9050620023ee565b508315620024e35760405162461bcd60e51b815260206004820181905260248201527f537472696e67733a20686578206c656e67746820696e73756666696369656e74604482015260640162000756565b9392505050565b803b620025605760405162461bcd60e51b815260206004820152602d60248201527f455243313936373a206e657720696d706c656d656e746174696f6e206973206e60448201527f6f74206120636f6e747261637400000000000000000000000000000000000000606482015260840162000756565b7f360894a13ba1a3210667c828492db98dca3e2076cc3735a920a3ca505d382bbc805473ffffffffffffffffffffffffffffffffffffffff19166001600160a01b0392909216919091179055565b6060823b620026265760405162461bcd60e51b815260206004820152602660248201527f416464726573733a2064656c65676174652063616c6c20746f206e6f6e2d636f60448201527f6e74726163740000000000000000000000000000000000000000000000000000606482015260840162000756565b600080846001600160a01b0316846040516200264391906200356c565b600060405180830381855af49150503d806000811462002680576040519150601f19603f3d011682016040523d82523d6000602084013e62002685565b606091505b5091509150620026b0828260405180606001604052806027815260200162003dbf60279139620029e3565b95945050505050565b620026c481620024ea565b6040516001600160a01b038216907fbc7cd75a20ee27fd9adebab32041f755214dbc6bffa90cc0225b39da2e5c2d3b90600090a250565b600054610100900460ff16620027685760405162461bcd60e51b815260206004820152602b60248201527f496e697469616c697a61626c653a20636f6e7472616374206973206e6f74206960448201526a6e697469616c697a696e6760a81b606482015260840162000756565b6200277262002a21565b620015a762002a8e565b600054610100900460ff16620027e95760405162461bcd60e51b815260206004820152602b60248201527f496e697469616c697a61626c653a20636f6e7472616374206973206e6f74206960448201526a6e697469616c697a696e6760a81b606482015260840162000756565b620027f362002a21565b620027fd62002a21565b620015a762002a21565b600054610100900460ff16620028745760405162461bcd60e51b815260206004820152602b60248201527f496e697469616c697a61626c653a20636f6e7472616374206973206e6f74206960448201526a6e697469616c697a696e6760a81b606482015260840162000756565b620015a762002b06565b600054610100900460ff16620028eb5760405162461bcd60e51b815260206004820152602b60248201527f496e697469616c697a61626c653a20636f6e7472616374206973206e6f74206960448201526a6e697469616c697a696e6760a81b606482015260840162000756565b620028f562002a21565b620015a762002b7a565b600054610100900460ff16620027f35760405162461bcd60e51b815260206004820152602b60248201527f496e697469616c697a61626c653a20636f6e7472616374206973206e6f74206960448201526a6e697469616c697a696e6760a81b606482015260840162000756565b6200097e8282604051602401620029859291906200358a565b60408051601f198184030181529190526020810180517bffffffffffffffffffffffffffffffffffffffffffffffffffffffff167f9710a9d00000000000000000000000000000000000000000000000000000000017905262002bf3565b60608315620029f4575081620024e3565b82511562002a055782518084602001fd5b8160405162461bcd60e51b8152600401620007569190620031b8565b600054610100900460ff16620015a75760405162461bcd60e51b815260206004820152602b60248201527f496e697469616c697a61626c653a20636f6e7472616374206973206e6f74206960448201526a6e697469616c697a696e6760a81b606482015260840162000756565b600054610100900460ff1662002afb5760405162461bcd60e51b815260206004820152602b60248201527f496e697469616c697a61626c653a20636f6e7472616374206973206e6f74206960448201526a6e697469616c697a696e6760a81b606482015260840162000756565b620015a73362001fed565b600054610100900460ff1662002b735760405162461bcd60e51b815260206004820152602b60248201527f496e697469616c697a61626c653a20636f6e7472616374206973206e6f74206960448201526a6e697469616c697a696e6760a81b606482015260840162000756565b600160c955565b600054610100900460ff1662002be75760405162461bcd60e51b815260206004820152602b60248201527f496e697469616c697a61626c653a20636f6e7472616374206973206e6f74206960448201526a6e697469616c697a696e6760a81b606482015260840162000756565b60fb805460ff19169055565b80516a636f6e736f6c652e6c6f67602083016000808483855afa5050505050565b61081080620035af83390190565b60006020828403121562002c3557600080fd5b81357fffffffff0000000000000000000000000000000000000000000000000000000081168114620024e357600080fd5b60008083601f84011262002c7957600080fd5b50813567ffffffffffffffff81111562002c9257600080fd5b60208301915083602082850101111562002cab57600080fd5b9250929050565b60008060006040848603121562002cc857600080fd5b83359250602084013567ffffffffffffffff81111562002ce757600080fd5b62002cf58682870162002c66565b9497909650939450505050565b6000806020838503121562002d1657600080fd5b823567ffffffffffffffff81111562002d2e57600080fd5b62002d3c8582860162002c66565b90969095509350505050565b6000806040838503121562002d5c57600080fd5b50508035926020909101359150565b60006020828403121562002d7e57600080fd5b5035919050565b6001600160a01b038116811462000cf957600080fd5b6000806040838503121562002daf57600080fd5b82359150602083013562002dc38162002d85565b809150509250929050565b60006020828403121562002de157600080fd5b8135620024e38162002d85565b60008060008060006080868803121562002e0757600080fd5b8535945060208601359350604086013562002e228162002d85565b9250606086013567ffffffffffffffff81111562002e3f57600080fd5b62002e4d8882890162002c66565b969995985093965092949392505050565b634e487b7160e01b600052604160045260246000fd5b604051610180810167ffffffffffffffff8111828210171562002e9b5762002e9b62002e5e565b60405290565b604051601f8201601f1916810167ffffffffffffffff8111828210171562002ecd5762002ecd62002e5e565b604052919050565b6000806040838503121562002ee957600080fd5b823562002ef68162002d85565b915060208381013567ffffffffffffffff8082111562002f1557600080fd5b818601915086601f83011262002f2a57600080fd5b81358181111562002f3f5762002f3f62002e5e565b62002f5384601f19601f8401160162002ea1565b9150808252878482850101111562002f6a57600080fd5b80848401858401376000848284010152508093505050509250929050565b8151815260208083015161018083019162002fad908401826001600160a01b03169052565b50604083015162002fc960408401826001600160a01b03169052565b50606083015162002fe560608401826001600160a01b03169052565b506080830151608083015260a083015160a083015260c083015160c083015260e083015160e0830152610100808401518184015250610120808401518184015250610140808401516200303b8285018215159052565b5050610160928301511515919092015290565b6000806000606084860312156200306457600080fd5b8335620030718162002d85565b92506020840135620030838162002d85565b91506040840135620030958162002d85565b809150509250925092565b60008060008060608587031215620030b757600080fd5b843593506020850135620030cb8162002d85565b9250604085013567ffffffffffffffff811115620030e857600080fd5b620030f68782880162002c66565b95989497509550505050565b6001600160a01b038416815260406020820152816040820152818360608301376000818301606090810191909152601f909201601f1916010192915050565b6000602082840312156200315457600080fd5b5051919050565b60005b83811015620031785781810151838201526020016200315e565b83811115620017055750506000910152565b60008151808452620031a48160208601602086016200315b565b601f01601f19169290920160200192915050565b602081526000620024e360208301846200318a565b634e487b7160e01b600052600160045260246000fd5b801515811462000cf957600080fd5b600060e082840312156200320557600080fd5b60405160e0810181811067ffffffffffffffff821117156200322b576200322b62002e5e565b60405282356200323b8162002d85565b808252506020830135602082015260408301356040820152606083013560608201526080830135608082015260a083013560a082015260c08301356200328181620031e3565b60c08201529392505050565b80516200329a8162002d85565b919050565b80516200329a81620031e3565b60006101808284031215620032c057600080fd5b620032ca62002e74565b82518152620032dc602084016200328d565b6020820152620032ef604084016200328d565b604082015262003302606084016200328d565b60608201526080830151608082015260a083015160a082015260c083015160c082015260e083015160e0820152610100808401518183015250610120808401518183015250610140620033578185016200329f565b908201526101606200336b8482016200329f565b908201529392505050565b600080604083850312156200338a57600080fd5b8235620033978162002d85565b946020939093013593505050565b600060208284031215620033b857600080fd5b8151620024e381620031e3565b7f416363657373436f6e74726f6c3a206163636f756e7420000000000000000000815260008351620033ff8160178501602088016200315b565b7f206973206d697373696e6720726f6c652000000000000000000000000000000060179184019182015283516200343e8160288401602088016200315b565b01602801949350505050565b82815260008251620034648160208501602087016200315b565b919091016020019392505050565b6001600160a01b03831681526040602082015260006200349660408301846200318a565b949350505050565b60008060008060008060c08789031215620034b857600080fd5b865195506020870151945060408701519350606087015192506080870151915060a087015190509295509295509295565b634e487b7160e01b600052601160045260246000fd5b60008160001904831182151516156200351c576200351c620034e9565b500290565b60008219821115620035375762003537620034e9565b500190565b634e487b7160e01b600052603260045260246000fd5b600081620035645762003564620034e9565b506000190190565b60008251620035808184602087016200315b565b9190910192915050565b6040815260006200359f60408301856200318a565b9050826020830152939250505056fe608060405260405161081038038061081083398101604081905261002291610337565b61004d60017f360894a13ba1a3210667c828492db98dca3e2076cc3735a920a3ca505d382bbd610405565b6000805160206107c9833981519152146100695761006961042a565b6100758282600061007c565b505061048f565b610085836100b2565b6000825111806100925750805b156100ad576100ab83836100f260201b6100291760201c565b505b505050565b6100bb8161011e565b6040516001600160a01b038216907fbc7cd75a20ee27fd9adebab32041f755214dbc6bffa90cc0225b39da2e5c2d3b90600090a250565b606061011783836040518060600160405280602781526020016107e9602791396101de565b9392505050565b610131816102b360201b6100551760201c565b6101985760405162461bcd60e51b815260206004820152602d60248201527f455243313936373a206e657720696d706c656d656e746174696f6e206973206e60448201526c1bdd08184818dbdb9d1c9858dd609a1b60648201526084015b60405180910390fd5b806101bd6000805160206107c983398151915260001b6102b960201b61005b1760201c565b80546001600160a01b0319166001600160a01b039290921691909117905550565b6060833b61023d5760405162461bcd60e51b815260206004820152602660248201527f416464726573733a2064656c65676174652063616c6c20746f206e6f6e2d636f6044820152651b9d1c9858dd60d21b606482015260840161018f565b600080856001600160a01b0316856040516102589190610440565b600060405180830381855af49150503d8060008114610293576040519150601f19603f3d011682016040523d82523d6000602084013e610298565b606091505b5090925090506102a98282866102bc565b9695505050505050565b3b151590565b90565b606083156102cb575081610117565b8251156102db5782518084602001fd5b8160405162461bcd60e51b815260040161018f919061045c565b634e487b7160e01b600052604160045260246000fd5b60005b8381101561032657818101518382015260200161030e565b838111156100ab5750506000910152565b6000806040838503121561034a57600080fd5b82516001600160a01b038116811461036157600080fd5b60208401519092506001600160401b038082111561037e57600080fd5b818501915085601f83011261039257600080fd5b8151818111156103a4576103a46102f5565b604051601f8201601f19908116603f011681019083821181831017156103cc576103cc6102f5565b816040528281528860208487010111156103e557600080fd5b6103f683602083016020880161030b565b80955050505050509250929050565b60008282101561042557634e487b7160e01b600052601160045260246000fd5b500390565b634e487b7160e01b600052600160045260246000fd5b6000825161045281846020870161030b565b9190910192915050565b602081526000825180602084015261047b81604085016020870161030b565b601f01601f19169190910160400192915050565b61032b8061049e6000396000f3fe60806040523661001357610011610017565b005b6100115b61002761002261005e565b6100a3565b565b606061004e83836040518060600160405280602781526020016102cf602791396100c7565b9392505050565b3b151590565b90565b600061009e7f360894a13ba1a3210667c828492db98dca3e2076cc3735a920a3ca505d382bbc5473ffffffffffffffffffffffffffffffffffffffff1690565b905090565b3660008037600080366000845af43d6000803e8080156100c2573d6000f35b3d6000fd5b6060833b61015c576040517f08c379a000000000000000000000000000000000000000000000000000000000815260206004820152602660248201527f416464726573733a2064656c65676174652063616c6c20746f206e6f6e2d636f60448201527f6e7472616374000000000000000000000000000000000000000000000000000060648201526084015b60405180910390fd5b6000808573ffffffffffffffffffffffffffffffffffffffff16856040516101849190610261565b600060405180830381855af49150503d80600081146101bf576040519150601f19603f3d011682016040523d82523d6000602084013e6101c4565b606091505b50915091506101d48282866101de565b9695505050505050565b606083156101ed57508161004e565b8251156101fd5782518084602001fd5b816040517f08c379a0000000000000000000000000000000000000000000000000000000008152600401610153919061027d565b60005b8381101561024c578181015183820152602001610234565b8381111561025b576000848401525b50505050565b60008251610273818460208701610231565b9190910192915050565b602081526000825180602084015261029c816040850160208701610231565b601f017fffffffffffffffffffffffffffffffffffffffffffffffffffffffffffffffe016919091016040019291505056fe416464726573733a206c6f772d6c6576656c2064656c65676174652063616c6c206661696c6564a2646970667358221220622d8852ce84c52c9c688b923393379a20b2b81b950c780b39a7458efb7431b964736f6c634300080b0033360894a13ba1a3210667c828492db98dca3e2076cc3735a920a3ca505d382bbc416464726573733a206c6f772d6c6576656c2064656c65676174652063616c6c206661696c6564416464726573733a206c6f772d6c6576656c2064656c65676174652063616c6c206661696c6564a2646970667358221220b9fcdd922d27d4ccffea0de3060639eada7533de25a88508acd5bad489ac9a0a64736f6c634300080b0033",
  "linkReferences": {},
  "deployedLinkReferences": {}
}