{
  "_format": "hh-sol-artifact-1",
  "contractName": "EthereumZDAOChef",
  "sourceName": "contracts/polygon/ethereum/EthereumZDAOChef.sol",
  "abi": [
    {
      "anonymous": false,
      "inputs": [
        {
          "indexed": false,
          "internalType": "address",
          "name": "previousAdmin",
          "type": "address"
        },
        {
          "indexed": false,
          "internalType": "address",
          "name": "newAdmin",
          "type": "address"
        }
      ],
      "name": "AdminChanged",
      "type": "event"
    },
    {
      "anonymous": false,
      "inputs": [
        {
          "indexed": true,
          "internalType": "address",
          "name": "beacon",
          "type": "address"
        }
      ],
      "name": "BeaconUpgraded",
      "type": "event"
    },
    {
      "anonymous": false,
      "inputs": [
        {
          "indexed": true,
          "internalType": "address",
          "name": "previousOwner",
          "type": "address"
        },
        {
          "indexed": true,
          "internalType": "address",
          "name": "newOwner",
          "type": "address"
        }
      ],
      "name": "OwnershipTransferred",
      "type": "event"
    },
    {
      "anonymous": false,
      "inputs": [
        {
          "indexed": false,
          "internalType": "address",
          "name": "account",
          "type": "address"
        }
      ],
      "name": "Paused",
      "type": "event"
    },
    {
      "anonymous": false,
      "inputs": [
        {
          "indexed": true,
          "internalType": "uint256",
          "name": "_zDAOId",
          "type": "uint256"
        },
        {
          "indexed": true,
          "internalType": "uint256",
          "name": "_propoalId",
          "type": "uint256"
        },
        {
          "indexed": false,
          "internalType": "uint256",
          "name": "_voters",
          "type": "uint256"
        },
        {
          "indexed": false,
          "internalType": "uint256",
          "name": "_yes",
          "type": "uint256"
        },
        {
          "indexed": false,
          "internalType": "uint256",
          "name": "_no",
          "type": "uint256"
        }
      ],
      "name": "ProposalCalculated",
      "type": "event"
    },
    {
      "anonymous": false,
      "inputs": [
        {
          "indexed": true,
          "internalType": "uint256",
          "name": "_zDAOId",
          "type": "uint256"
        },
        {
          "indexed": true,
          "internalType": "uint256",
          "name": "_proposalId",
          "type": "uint256"
        },
        {
          "indexed": true,
          "internalType": "address",
          "name": "_cancelBy",
          "type": "address"
        }
      ],
      "name": "ProposalCanceled",
      "type": "event"
    },
    {
      "anonymous": false,
      "inputs": [
        {
          "indexed": true,
          "internalType": "uint256",
          "name": "_zDAOId",
          "type": "uint256"
        },
        {
          "indexed": true,
          "internalType": "uint256",
          "name": "_proposalId",
          "type": "uint256"
        },
        {
          "indexed": true,
          "internalType": "address",
          "name": "_createdBy",
          "type": "address"
        },
        {
          "indexed": false,
          "internalType": "uint256",
          "name": "_snapshot",
          "type": "uint256"
        }
      ],
      "name": "ProposalCreated",
      "type": "event"
    },
    {
      "anonymous": false,
      "inputs": [
        {
          "indexed": true,
          "internalType": "uint256",
          "name": "_zDAOId",
          "type": "uint256"
        },
        {
          "indexed": true,
          "internalType": "uint256",
          "name": "_proposalId",
          "type": "uint256"
        },
        {
          "indexed": true,
          "internalType": "address",
          "name": "_executeBy",
          "type": "address"
        }
      ],
      "name": "ProposalExecuted",
      "type": "event"
    },
    {
      "anonymous": false,
      "inputs": [
        {
          "indexed": true,
          "internalType": "bytes32",
          "name": "role",
          "type": "bytes32"
        },
        {
          "indexed": true,
          "internalType": "bytes32",
          "name": "previousAdminRole",
          "type": "bytes32"
        },
        {
          "indexed": true,
          "internalType": "bytes32",
          "name": "newAdminRole",
          "type": "bytes32"
        }
      ],
      "name": "RoleAdminChanged",
      "type": "event"
    },
    {
      "anonymous": false,
      "inputs": [
        {
          "indexed": true,
          "internalType": "bytes32",
          "name": "role",
          "type": "bytes32"
        },
        {
          "indexed": true,
          "internalType": "address",
          "name": "account",
          "type": "address"
        },
        {
          "indexed": true,
          "internalType": "address",
          "name": "sender",
          "type": "address"
        }
      ],
      "name": "RoleGranted",
      "type": "event"
    },
    {
      "anonymous": false,
      "inputs": [
        {
          "indexed": true,
          "internalType": "bytes32",
          "name": "role",
          "type": "bytes32"
        },
        {
          "indexed": true,
          "internalType": "address",
          "name": "account",
          "type": "address"
        },
        {
          "indexed": true,
          "internalType": "address",
          "name": "sender",
          "type": "address"
        }
      ],
      "name": "RoleRevoked",
      "type": "event"
    },
    {
      "anonymous": false,
      "inputs": [
        {
          "indexed": false,
          "internalType": "address",
          "name": "account",
          "type": "address"
        }
      ],
      "name": "Unpaused",
      "type": "event"
    },
    {
      "anonymous": false,
      "inputs": [
        {
          "indexed": true,
          "internalType": "address",
          "name": "implementation",
          "type": "address"
        }
      ],
      "name": "Upgraded",
      "type": "event"
    },
    {
      "inputs": [],
      "name": "DEFAULT_ADMIN_ROLE",
      "outputs": [
        {
          "internalType": "bytes32",
          "name": "",
          "type": "bytes32"
        }
      ],
      "stateMutability": "view",
      "type": "function"
    },
    {
      "inputs": [
        {
          "internalType": "address",
          "name": "_zDAORegistry",
          "type": "address"
        },
        {
          "internalType": "contract IRootStateSender",
          "name": "_rootStateSender",
          "type": "address"
        },
        {
          "internalType": "address",
          "name": "_zDAOBase",
          "type": "address"
        }
      ],
      "name": "__ZDAOChef_init",
      "outputs": [],
      "stateMutability": "nonpayable",
      "type": "function"
    },
    {
      "inputs": [
        {
          "internalType": "uint256",
          "name": "_zDAOId",
          "type": "uint256"
        },
        {
          "internalType": "uint256",
          "name": "_zNA",
          "type": "uint256"
        },
        {
          "internalType": "address",
          "name": "_gnosisSafe",
          "type": "address"
        },
        {
          "internalType": "bytes",
          "name": "_options",
          "type": "bytes"
        }
      ],
      "name": "addNewZDAO",
      "outputs": [
        {
          "internalType": "address",
          "name": "",
          "type": "address"
        }
      ],
      "stateMutability": "nonpayable",
      "type": "function"
    },
    {
      "inputs": [
        {
          "internalType": "uint256",
          "name": "_zDAOId",
          "type": "uint256"
        },
        {
          "internalType": "uint256",
          "name": "_proposalId",
          "type": "uint256"
        }
      ],
      "name": "cancelProposal",
      "outputs": [],
      "stateMutability": "nonpayable",
      "type": "function"
    },
    {
      "inputs": [
        {
          "internalType": "uint256",
          "name": "_zDAOId",
          "type": "uint256"
        },
        {
          "internalType": "string",
          "name": "_ipfs",
          "type": "string"
        }
      ],
      "name": "createProposal",
      "outputs": [],
      "stateMutability": "nonpayable",
      "type": "function"
    },
    {
      "inputs": [
        {
          "internalType": "uint256",
          "name": "_zDAOId",
          "type": "uint256"
        },
        {
          "internalType": "uint256",
          "name": "_proposalId",
          "type": "uint256"
        }
      ],
      "name": "executeProposal",
      "outputs": [],
      "stateMutability": "nonpayable",
      "type": "function"
    },
    {
      "inputs": [
        {
          "internalType": "bytes32",
          "name": "role",
          "type": "bytes32"
        }
      ],
      "name": "getRoleAdmin",
      "outputs": [
        {
          "internalType": "bytes32",
          "name": "",
          "type": "bytes32"
        }
      ],
      "stateMutability": "view",
      "type": "function"
    },
    {
      "inputs": [
        {
          "internalType": "bytes32",
          "name": "role",
          "type": "bytes32"
        },
        {
          "internalType": "address",
          "name": "account",
          "type": "address"
        }
      ],
      "name": "grantRole",
      "outputs": [],
      "stateMutability": "nonpayable",
      "type": "function"
    },
    {
      "inputs": [
        {
          "internalType": "bytes32",
          "name": "role",
          "type": "bytes32"
        },
        {
          "internalType": "address",
          "name": "account",
          "type": "address"
        }
      ],
      "name": "hasRole",
      "outputs": [
        {
          "internalType": "bool",
          "name": "",
          "type": "bool"
        }
      ],
      "stateMutability": "view",
      "type": "function"
    },
    {
      "inputs": [
        {
          "internalType": "uint256",
          "name": "_zDAOId",
          "type": "uint256"
        },
        {
          "internalType": "address",
          "name": "_gnosisSafe",
          "type": "address"
        },
        {
          "internalType": "bytes",
          "name": "_options",
          "type": "bytes"
        }
      ],
      "name": "modifyZDAO",
      "outputs": [],
      "stateMutability": "nonpayable",
      "type": "function"
    },
    {
      "inputs": [],
      "name": "owner",
      "outputs": [
        {
          "internalType": "address",
          "name": "",
          "type": "address"
        }
      ],
      "stateMutability": "view",
      "type": "function"
    },
    {
      "inputs": [],
      "name": "paused",
      "outputs": [
        {
          "internalType": "bool",
          "name": "",
          "type": "bool"
        }
      ],
      "stateMutability": "view",
      "type": "function"
    },
    {
      "inputs": [
        {
          "internalType": "bytes",
          "name": "_message",
          "type": "bytes"
        }
      ],
      "name": "processMessageFromChild",
      "outputs": [],
      "stateMutability": "nonpayable",
      "type": "function"
    },
    {
      "inputs": [
        {
          "internalType": "uint256",
          "name": "_zDAOId",
          "type": "uint256"
        }
      ],
      "name": "removeZDAO",
      "outputs": [],
      "stateMutability": "nonpayable",
      "type": "function"
    },
    {
      "inputs": [],
      "name": "renounceOwnership",
      "outputs": [],
      "stateMutability": "nonpayable",
      "type": "function"
    },
    {
      "inputs": [
        {
          "internalType": "bytes32",
          "name": "role",
          "type": "bytes32"
        },
        {
          "internalType": "address",
          "name": "account",
          "type": "address"
        }
      ],
      "name": "renounceRole",
      "outputs": [],
      "stateMutability": "nonpayable",
      "type": "function"
    },
    {
      "inputs": [
        {
          "internalType": "bytes32",
          "name": "role",
          "type": "bytes32"
        },
        {
          "internalType": "address",
          "name": "account",
          "type": "address"
        }
      ],
      "name": "revokeRole",
      "outputs": [],
      "stateMutability": "nonpayable",
      "type": "function"
    },
    {
      "inputs": [],
      "name": "rootStateSender",
      "outputs": [
        {
          "internalType": "contract IRootStateSender",
          "name": "",
          "type": "address"
        }
      ],
      "stateMutability": "view",
      "type": "function"
    },
    {
      "inputs": [
        {
          "internalType": "address",
          "name": "_zDAOBase",
          "type": "address"
        }
      ],
      "name": "setZDAOBase",
      "outputs": [],
      "stateMutability": "nonpayable",
      "type": "function"
    },
    {
      "inputs": [
        {
          "internalType": "address",
          "name": "_zDAORgistry",
          "type": "address"
        }
      ],
      "name": "setZDAORegistry",
      "outputs": [],
      "stateMutability": "nonpayable",
      "type": "function"
    },
    {
      "inputs": [
        {
          "internalType": "bytes4",
          "name": "interfaceId",
          "type": "bytes4"
        }
      ],
      "name": "supportsInterface",
      "outputs": [
        {
          "internalType": "bool",
          "name": "",
          "type": "bool"
        }
      ],
      "stateMutability": "view",
      "type": "function"
    },
    {
      "inputs": [
        {
          "internalType": "address",
          "name": "newOwner",
          "type": "address"
        }
      ],
      "name": "transferOwnership",
      "outputs": [],
      "stateMutability": "nonpayable",
      "type": "function"
    },
    {
      "inputs": [
        {
          "internalType": "address",
          "name": "newImplementation",
          "type": "address"
        }
      ],
      "name": "upgradeTo",
      "outputs": [],
      "stateMutability": "nonpayable",
      "type": "function"
    },
    {
      "inputs": [
        {
          "internalType": "address",
          "name": "newImplementation",
          "type": "address"
        },
        {
          "internalType": "bytes",
          "name": "data",
          "type": "bytes"
        }
      ],
      "name": "upgradeToAndCall",
      "outputs": [],
      "stateMutability": "payable",
      "type": "function"
    },
    {
      "inputs": [],
      "name": "version",
      "outputs": [
        {
          "internalType": "uint256",
          "name": "",
          "type": "uint256"
        }
      ],
      "stateMutability": "view",
      "type": "function"
    },
    {
      "inputs": [],
      "name": "zDAOBase",
      "outputs": [
        {
          "internalType": "address",
          "name": "",
          "type": "address"
        }
      ],
      "stateMutability": "view",
      "type": "function"
    },
    {
      "inputs": [],
      "name": "zDAORegistry",
      "outputs": [
        {
          "internalType": "address",
          "name": "",
          "type": "address"
        }
      ],
      "stateMutability": "view",
      "type": "function"
    },
    {
      "inputs": [
        {
          "internalType": "uint256",
          "name": "",
          "type": "uint256"
        }
      ],
      "name": "zDAOs",
      "outputs": [
        {
          "internalType": "contract IEthereumZDAO",
          "name": "",
          "type": "address"
        }
      ],
      "stateMutability": "view",
      "type": "function"
    }
  ],
  "bytecode": "0x60a06040523060805234801561001457600080fd5b50608051613ae461004560003960008181610b2001528181610bb8015281816110b3015261114b0152613ae46000f3fe608060405260043610620001db5760003560e01c80635accac3f11620000ff578063a98bab8a1162000095578063c504f253116200006c578063c504f2531462000596578063d547741f14620005bb578063f2fde38b14620005e0578063fe0ed211146200060557600080fd5b8063a98bab8a1462000529578063b74a2c89146200054e578063b8f92c50146200057157600080fd5b8063715018a611620000d6578063715018a614620004905780638da5cb5b14620004a857806391d1485414620004c8578063a217fddf146200051257600080fd5b80635accac3f146200042e5780635c975abb14620004515780635ded8b06146200046b57600080fd5b80633628e9f711620001755780633ca65bd6116200014c5780633ca65bd614620003b45780634964d9a514620003d95780634f1ef28614620003fe57806354fd4d50146200041557600080fd5b80633628e9f7146200032f57806336568abe146200036a5780633659cfe6146200038f57600080fd5b80631ab7671211620001b65780631ab767121462000266578063248a9ca3146200028b57806329503f7d14620002ce5780632f2ff15d146200030a57600080fd5b806301ffc9a714620001e057806302d52fa4146200021a57806310123b2e1462000241575b600080fd5b348015620001ed57600080fd5b5062000205620001ff36600462002ac7565b6200062a565b60405190151581526020015b60405180910390f35b3480156200022757600080fd5b506200023f6200023936600462002b57565b620006c4565b005b3480156200024e57600080fd5b506200023f6200026036600462002ba7565b620008a0565b3480156200027357600080fd5b506200023f6200028536600462002bed565b62000942565b3480156200029857600080fd5b50620002bf620002aa36600462002c10565b60009081526097602052604090206001015490565b60405190815260200162000211565b348015620002db57600080fd5b5061019354620002f1906001600160a01b031681565b6040516001600160a01b03909116815260200162000211565b3480156200031757600080fd5b506200023f6200032936600462002c40565b62000a5a565b3480156200033c57600080fd5b50620002f16200034e36600462002c10565b610195602052600090815260409020546001600160a01b031681565b3480156200037757600080fd5b506200023f6200038936600462002c40565b62000a89565b3480156200039c57600080fd5b506200023f620003ae36600462002c73565b62000b15565b348015620003c157600080fd5b50620002f1620003d336600462002c93565b62000cbc565b348015620003e657600080fd5b506200023f620003f836600462002c10565b62000f23565b6200023f6200040f36600462002d4d565b620010a8565b3480156200042257600080fd5b50620002bf6101915481565b3480156200043b57600080fd5b5061019254620002f1906001600160a01b031681565b3480156200045e57600080fd5b5060fb5460ff1662000205565b3480156200047857600080fd5b506200023f6200048a36600462002bed565b6200123c565b3480156200049d57600080fd5b506200023f620013e4565b348015620004b557600080fd5b506033546001600160a01b0316620002f1565b348015620004d557600080fd5b5062000205620004e736600462002c40565b60009182526097602090815260408084206001600160a01b0393909316845291905290205460ff1690565b3480156200051f57600080fd5b50620002bf600081565b3480156200053657600080fd5b506200023f6200054836600462002e00565b6200144e565b3480156200055b57600080fd5b5061019454620002f1906001600160a01b031681565b3480156200057e57600080fd5b506200023f6200059036600462002c73565b620015b0565b348015620005a357600080fd5b506200023f620005b536600462002e52565b6200163c565b348015620005c857600080fd5b506200023f620005da36600462002c40565b620017ea565b348015620005ed57600080fd5b506200023f620005ff36600462002c73565b62001814565b3480156200061257600080fd5b506200023f6200062436600462002c73565b620018f9565b60007fffffffff0000000000000000000000000000000000000000000000000000000082167f7965db0b000000000000000000000000000000000000000000000000000000001480620006be57507f01ffc9a7000000000000000000000000000000000000000000000000000000007fffffffff000000000000000000000000000000000000000000000000000000008316145b92915050565b82600081118015620006de5750620006dc8162001985565b155b6200071f5760405162461bcd60e51b815260206004820152600c60248201526b496e76616c6964207a44414f60a01b60448201526064015b60405180910390fd5b600084815261019560205260408082205490517f1f4f7d290000000000000000000000000000000000000000000000000000000081526001600160a01b0390911690631f4f7d29906200077b9033908890889060040162002eb4565b6020604051808303816000875af11580156200079b573d6000803e3d6000fd5b505050506040513d601f19601f82011682018060405250810190620007c1919062002ef3565b9050336001600160a01b031681867f3adb4b5b85d780e775af66d5efff3183afc4c951384c4fe9763eb5e0406b15c6436040516200080191815260200190565b60405180910390a4610193546001600160a01b0316634c09e6e860036040805160208101929092528101889052606081018490526080016040516020818303038152906040526040518263ffffffff1660e01b815260040162000865919062002f6a565b600060405180830381600087803b1580156200088057600080fd5b505af115801562000895573d6000803e3d6000fd5b505050505050505050565b610193546001600160a01b03163314620008fd5760405162461bcd60e51b815260206004820152601260248201527f4e6f7420612073746174652073656e6465720000000000000000000000000000604482015260640162000716565b6200093e82828080601f01602080910402602001604051908101604052809392919081815260200183838082843760009201919091525062001a1892505050565b5050565b816000811180156200095c57506200095a8162001985565b155b620009995760405162461bcd60e51b815260206004820152600c60248201526b496e76616c6964207a44414f60a01b604482015260640162000716565b60008381526101956020526040908190205490517fbfc42645000000000000000000000000000000000000000000000000000000008152336004820152602481018490526001600160a01b039091169063bfc4264590604401600060405180830381600087803b15801562000a0d57600080fd5b505af115801562000a22573d6000803e3d6000fd5b505060405133925084915085907fe285e47f4804f679760aa4e907da874045af16436d55df64b64ffd9ca2539dfa90600090a4505050565b60008281526097602052604090206001015462000a78813362001a47565b62000a84838362001ad0565b505050565b6001600160a01b038116331462000b095760405162461bcd60e51b815260206004820152602f60248201527f416363657373436f6e74726f6c3a2063616e206f6e6c792072656e6f756e636560448201527f20726f6c657320666f722073656c660000000000000000000000000000000000606482015260840162000716565b6200093e828262001b74565b306001600160a01b037f000000000000000000000000000000000000000000000000000000000000000016141562000bb65760405162461bcd60e51b815260206004820152602c60248201527f46756e6374696f6e206d7573742062652063616c6c6564207468726f7567682060448201527f64656c656761746563616c6c0000000000000000000000000000000000000000606482015260840162000716565b7f00000000000000000000000000000000000000000000000000000000000000006001600160a01b031662000c127f360894a13ba1a3210667c828492db98dca3e2076cc3735a920a3ca505d382bbc546001600160a01b031690565b6001600160a01b03161462000c905760405162461bcd60e51b815260206004820152602c60248201527f46756e6374696f6e206d7573742062652063616c6c6564207468726f7567682060448201527f6163746976652070726f78790000000000000000000000000000000000000000606482015260840162000716565b62000c9b8162001bf8565b6040805160008082526020820190925262000cb99183919062001c54565b50565b610192546000906001600160a01b0316331462000d1c5760405162461bcd60e51b815260206004820152600e60248201527f4e6f742061207265676973747279000000000000000000000000000000000000604482015260640162000716565b600086815261019560205260409020546001600160a01b03161562000d455762000d4562002f7f565b600062000d558385018562002fa4565b6101945460408051306024820152604481018b90526001600160a01b0389811660648301523360848301528451811660a483015260208086015160c48401528584015160e48401526060860151610104840152608086015161012484015260a086015161014484015260c08601511515610164808501919091528451808503909101815261018490930190935291810180517bffffffffffffffffffffffffffffffffffffffffffffffffffffffff167fb77d71f50000000000000000000000000000000000000000000000000000000017905292935060009262000e3f92919091169062001e1f565b600089815261019560205260409020805473ffffffffffffffffffffffffffffffffffffffff19166001600160a01b03838116919091179091556101935491925016634c09e6e860016040858101518651825160208101949094529183018d905260608301526001600160a01b0316608082015260a0016040516020818303038152906040526040518263ffffffff1660e01b815260040162000ee3919062002f6a565b600060405180830381600087803b15801562000efe57600080fd5b505af115801562000f13573d6000803e3d6000fd5b50929a9950505050505050505050565b610192546001600160a01b0316331462000f805760405162461bcd60e51b815260206004820152600e60248201527f4e6f742061207265676973747279000000000000000000000000000000000000604482015260640162000716565b60008181526101956020526040908190205490517f472858b4000000000000000000000000000000000000000000000000000000008152600160048201526001600160a01b039091169063472858b490602401600060405180830381600087803b15801562000fee57600080fd5b505af115801562001003573d6000803e3d6000fd5b505061019354604080516002602082015280820186905281518082038301815260608201928390527f4c09e6e8000000000000000000000000000000000000000000000000000000009092526001600160a01b039092169350634c09e6e89250620010719160640162002f6a565b600060405180830381600087803b1580156200108c57600080fd5b505af1158015620010a1573d6000803e3d6000fd5b5050505050565b306001600160a01b037f0000000000000000000000000000000000000000000000000000000000000000161415620011495760405162461bcd60e51b815260206004820152602c60248201527f46756e6374696f6e206d7573742062652063616c6c6564207468726f7567682060448201527f64656c656761746563616c6c0000000000000000000000000000000000000000606482015260840162000716565b7f00000000000000000000000000000000000000000000000000000000000000006001600160a01b0316620011a57f360894a13ba1a3210667c828492db98dca3e2076cc3735a920a3ca505d382bbc546001600160a01b031690565b6001600160a01b031614620012235760405162461bcd60e51b815260206004820152602c60248201527f46756e6374696f6e206d7573742062652063616c6c6564207468726f7567682060448201527f6163746976652070726f78790000000000000000000000000000000000000000606482015260840162000716565b6200122e8262001bf8565b6200093e8282600162001c54565b81600081118015620012565750620012548162001985565b155b620012935760405162461bcd60e51b815260206004820152600c60248201526b496e76616c6964207a44414f60a01b604482015260640162000716565b60008381526101956020526040908190205490517f53350755000000000000000000000000000000000000000000000000000000008152336004820152602481018490526001600160a01b0390911690635335075590604401600060405180830381600087803b1580156200130757600080fd5b505af11580156200131c573d6000803e3d6000fd5b505060405133925084915085907f9ebbce99b668db9a753ddb04f826e8eb33904201a74ad92b015aaa3fa039370e90600090a4610193546001600160a01b0316634c09e6e860046040805160208101929092528101869052606081018590526080016040516020818303038152906040526040518263ffffffff1660e01b8152600401620013ab919062002f6a565b600060405180830381600087803b158015620013c657600080fd5b505af1158015620013db573d6000803e3d6000fd5b50505050505050565b6033546001600160a01b03163314620014405760405162461bcd60e51b815260206004820181905260248201527f4f776e61626c653a2063616c6c6572206973206e6f7420746865206f776e6572604482015260640162000716565b6200144c600062001e92565b565b600054610100900460ff166200146b5760005460ff16156200146f565b303b155b620014e35760405162461bcd60e51b815260206004820152602e60248201527f496e697469616c697a61626c653a20636f6e747261637420697320616c72656160448201527f647920696e697469616c697a6564000000000000000000000000000000000000606482015260840162000716565b600054610100900460ff161580156200152357600080547fffffffffffffffffffffffffffffffffffffffffffffffffffffffffffff0000166101011790555b6200152d62001ef1565b61019280546001600160a01b0380871673ffffffffffffffffffffffffffffffffffffffff199283161790925561019380548684169083161790556101948054928516929091169190911790558015620015aa57600080547fffffffffffffffffffffffffffffffffffffffffffffffffffffffffffff00ff1690555b50505050565b6033546001600160a01b031633146200160c5760405162461bcd60e51b815260206004820181905260248201527f4f776e61626c653a2063616c6c6572206973206e6f7420746865206f776e6572604482015260640162000716565b610192805473ffffffffffffffffffffffffffffffffffffffff19166001600160a01b0392909216919091179055565b610192546001600160a01b03163314620016995760405162461bcd60e51b815260206004820152600e60248201527f4e6f742061207265676973747279000000000000000000000000000000000000604482015260640162000716565b600080620016aa838501856200303f565b60008881526101956020526040908190205490517f16cbb96e0000000000000000000000000000000000000000000000000000000081526001600160a01b03898116600483015280851660248301526044820184905293955091935091909116906316cbb96e90606401600060405180830381600087803b1580156200172f57600080fd5b505af115801562001744573d6000803e3d6000fd5b5050610193546001600160a01b03169150634c09e6e89050600760408051602081019290925281018990526001600160a01b03851660608201526080016040516020818303038152906040526040518263ffffffff1660e01b8152600401620017ae919062002f6a565b600060405180830381600087803b158015620017c957600080fd5b505af1158015620017de573d6000803e3d6000fd5b50505050505050505050565b60008281526097602052604090206001015462001808813362001a47565b62000a84838362001b74565b6033546001600160a01b03163314620018705760405162461bcd60e51b815260206004820181905260248201527f4f776e61626c653a2063616c6c6572206973206e6f7420746865206f776e6572604482015260640162000716565b6001600160a01b038116620018ee5760405162461bcd60e51b815260206004820152602660248201527f4f776e61626c653a206e6577206f776e657220697320746865207a65726f206160448201527f6464726573730000000000000000000000000000000000000000000000000000606482015260840162000716565b62000cb98162001e92565b6033546001600160a01b03163314620019555760405162461bcd60e51b815260206004820181905260248201527f4f776e61626c653a2063616c6c6572206973206e6f7420746865206f776e6572604482015260640162000716565b610194805473ffffffffffffffffffffffffffffffffffffffff19166001600160a01b0392909216919091179055565b6000818152610195602090815260408083205481517f359cbbc900000000000000000000000000000000000000000000000000000000815291516001600160a01b039091169263359cbbc992600480820193918290030181865afa158015620019f2573d6000803e3d6000fd5b505050506040513d601f19601f82011682018060405250810190620006be91906200306e565b60008180602001905181019062001a30919062002ef3565b905060068114156200093e576200093e8262001fd6565b60008281526097602090815260408083206001600160a01b038516845290915290205460ff166200093e5762001a88816001600160a01b0316601462002141565b62001a9583602062002141565b60405160200162001aa89291906200308e565b60408051601f198184030181529082905262461bcd60e51b8252620007169160040162002f6a565b60008281526097602090815260408083206001600160a01b038516845290915290205460ff166200093e5760008281526097602090815260408083206001600160a01b03851684529091529020805460ff1916600117905562001b303390565b6001600160a01b0316816001600160a01b0316837f2f8788117e7eff1d82e926ec794901d17c78024a50270940304540a733656f0d60405160405180910390a45050565b60008281526097602090815260408083206001600160a01b038516845290915290205460ff16156200093e5760008281526097602090815260408083206001600160a01b0385168085529252808320805460ff1916905551339285917ff6391f5c32d9c69d2a47ea670b442974b53935d1edc7fd64eb21e047a839171b9190a45050565b6033546001600160a01b0316331462000cb95760405162461bcd60e51b815260206004820181905260248201527f4f776e61626c653a2063616c6c6572206973206e6f7420746865206f776e6572604482015260640162000716565b600062001c887f360894a13ba1a3210667c828492db98dca3e2076cc3735a920a3ca505d382bbc546001600160a01b031690565b905062001c95846200238f565b60008351118062001ca35750815b1562001cb75762001cb5848462002453565b505b7f4910fdfa16fed3260ed0e7147f7cc6da11a60208b5b9406d12a635614ffd9143805460ff16620010a157805460ff191660011781556040516001600160a01b038316602482015262001d6790869060440160408051601f198184030181529190526020810180517bffffffffffffffffffffffffffffffffffffffffffffffffffffffff167f3659cfe60000000000000000000000000000000000000000000000000000000017905262002453565b50805460ff191681557f360894a13ba1a3210667c828492db98dca3e2076cc3735a920a3ca505d382bbc546001600160a01b0383811691161462001e145760405162461bcd60e51b815260206004820152602f60248201527f45524331393637557067726164653a207570677261646520627265616b73206660448201527f7572746865722075706772616465730000000000000000000000000000000000606482015260840162000716565b620010a1856200255e565b6000438260405160200162001e3692919062003113565b60405160208183030381529060405280519060200120838360405162001e5c9062002ab9565b62001e699291906200313b565b8190604051809103906000f590508015801562001e8a573d6000803e3d6000fd5b509392505050565b603380546001600160a01b0383811673ffffffffffffffffffffffffffffffffffffffff19831681179093556040519116919082907f8be0079c531659141344cd1fd0a4f28419497f9722a3daafe3b4186f6b6457e090600090a35050565b600054610100900460ff1662001f5e5760405162461bcd60e51b815260206004820152602b60248201527f496e697469616c697a61626c653a20636f6e7472616374206973206e6f74206960448201526a6e697469616c697a696e6760a81b606482015260840162000716565b62001f68620025a0565b62001f7262002621565b62001f7c620026ac565b62001f8662002723565b62001f90620027a4565b6001610191819055604080518082019091528181527f760000000000000000000000000000000000000000000000000000000000000060208201526200144c9162002811565b6000806000806000808680602001905181019062001ff5919062003167565b9550955095509550955095506000851180156200201a5750620020188562001985565b155b620020575760405162461bcd60e51b815260206004820152600c60248201526b496e76616c6964207a44414f60a01b604482015260640162000716565b60008581526101956020526040908190205490517f74cb034f000000000000000000000000000000000000000000000000000000008152600481018690526024810185905260448101849052606481018390526001600160a01b03909116906374cb034f90608401600060405180830381600087803b158015620020da57600080fd5b505af1158015620020ef573d6000803e3d6000fd5b505060408051868152602081018690529081018490528692508791507fc5f4ded6fe856e23f8c51620f7792940657a825849eb7efc3ef36aa77951b7929060600160405180910390a350505050505050565b6060600062002152836002620031c8565b6200215f906002620031ea565b67ffffffffffffffff8111156200217a576200217a62002d03565b6040519080825280601f01601f191660200182016040528015620021a5576020820181803683370190505b5090507f300000000000000000000000000000000000000000000000000000000000000081600081518110620021df57620021df62003205565b60200101907effffffffffffffffffffffffffffffffffffffffffffffffffffffffffffff1916908160001a9053507f78000000000000000000000000000000000000000000000000000000000000008160018151811062002245576200224562003205565b60200101907effffffffffffffffffffffffffffffffffffffffffffffffffffffffffffff1916908160001a905350600062002283846002620031c8565b62002290906001620031ea565b90505b600181111562002337577f303132333435363738396162636465660000000000000000000000000000000085600f1660108110620022d557620022d562003205565b1a60f81b828281518110620022ee57620022ee62003205565b60200101907effffffffffffffffffffffffffffffffffffffffffffffffffffffffffffff1916908160001a90535060049490941c936200232f816200321b565b905062002293565b508315620023885760405162461bcd60e51b815260206004820181905260248201527f537472696e67733a20686578206c656e67746820696e73756666696369656e74604482015260640162000716565b9392505050565b803b620024055760405162461bcd60e51b815260206004820152602d60248201527f455243313936373a206e657720696d706c656d656e746174696f6e206973206e60448201527f6f74206120636f6e747261637400000000000000000000000000000000000000606482015260840162000716565b7f360894a13ba1a3210667c828492db98dca3e2076cc3735a920a3ca505d382bbc805473ffffffffffffffffffffffffffffffffffffffff19166001600160a01b0392909216919091179055565b6060823b620024cb5760405162461bcd60e51b815260206004820152602660248201527f416464726573733a2064656c65676174652063616c6c20746f206e6f6e2d636f60448201527f6e74726163740000000000000000000000000000000000000000000000000000606482015260840162000716565b600080846001600160a01b031684604051620024e8919062003235565b600060405180830381855af49150503d806000811462002525576040519150601f19603f3d011682016040523d82523d6000602084013e6200252a565b606091505b509150915062002555828260405180606001604052806027815260200162003a886027913962002888565b95945050505050565b62002569816200238f565b6040516001600160a01b038216907fbc7cd75a20ee27fd9adebab32041f755214dbc6bffa90cc0225b39da2e5c2d3b90600090a250565b600054610100900460ff166200260d5760405162461bcd60e51b815260206004820152602b60248201527f496e697469616c697a61626c653a20636f6e7472616374206973206e6f74206960448201526a6e697469616c697a696e6760a81b606482015260840162000716565b62002617620028c6565b6200144c62002933565b600054610100900460ff166200268e5760405162461bcd60e51b815260206004820152602b60248201527f496e697469616c697a61626c653a20636f6e7472616374206973206e6f74206960448201526a6e697469616c697a696e6760a81b606482015260840162000716565b62002698620028c6565b620026a2620028c6565b6200144c620028c6565b600054610100900460ff16620027195760405162461bcd60e51b815260206004820152602b60248201527f496e697469616c697a61626c653a20636f6e7472616374206973206e6f74206960448201526a6e697469616c697a696e6760a81b606482015260840162000716565b6200144c620029ab565b600054610100900460ff16620027905760405162461bcd60e51b815260206004820152602b60248201527f496e697469616c697a61626c653a20636f6e7472616374206973206e6f74206960448201526a6e697469616c697a696e6760a81b606482015260840162000716565b6200279a620028c6565b6200144c62002a1f565b600054610100900460ff16620026985760405162461bcd60e51b815260206004820152602b60248201527f496e697469616c697a61626c653a20636f6e7472616374206973206e6f74206960448201526a6e697469616c697a696e6760a81b606482015260840162000716565b6200093e82826040516024016200282a92919062003253565b60408051601f198184030181529190526020810180517bffffffffffffffffffffffffffffffffffffffffffffffffffffffff167f9710a9d00000000000000000000000000000000000000000000000000000000017905262002a98565b606083156200289957508162002388565b825115620028aa5782518084602001fd5b8160405162461bcd60e51b815260040162000716919062002f6a565b600054610100900460ff166200144c5760405162461bcd60e51b815260206004820152602b60248201527f496e697469616c697a61626c653a20636f6e7472616374206973206e6f74206960448201526a6e697469616c697a696e6760a81b606482015260840162000716565b600054610100900460ff16620029a05760405162461bcd60e51b815260206004820152602b60248201527f496e697469616c697a61626c653a20636f6e7472616374206973206e6f74206960448201526a6e697469616c697a696e6760a81b606482015260840162000716565b6200144c3362001e92565b600054610100900460ff1662002a185760405162461bcd60e51b815260206004820152602b60248201527f496e697469616c697a61626c653a20636f6e7472616374206973206e6f74206960448201526a6e697469616c697a696e6760a81b606482015260840162000716565b600160c955565b600054610100900460ff1662002a8c5760405162461bcd60e51b815260206004820152602b60248201527f496e697469616c697a61626c653a20636f6e7472616374206973206e6f74206960448201526a6e697469616c697a696e6760a81b606482015260840162000716565b60fb805460ff19169055565b80516a636f6e736f6c652e6c6f67602083016000808483855afa5050505050565b610810806200327883390190565b60006020828403121562002ada57600080fd5b81357fffffffff00000000000000000000000000000000000000000000000000000000811681146200238857600080fd5b60008083601f84011262002b1e57600080fd5b50813567ffffffffffffffff81111562002b3757600080fd5b60208301915083602082850101111562002b5057600080fd5b9250929050565b60008060006040848603121562002b6d57600080fd5b83359250602084013567ffffffffffffffff81111562002b8c57600080fd5b62002b9a8682870162002b0b565b9497909650939450505050565b6000806020838503121562002bbb57600080fd5b823567ffffffffffffffff81111562002bd357600080fd5b62002be18582860162002b0b565b90969095509350505050565b6000806040838503121562002c0157600080fd5b50508035926020909101359150565b60006020828403121562002c2357600080fd5b5035919050565b6001600160a01b038116811462000cb957600080fd5b6000806040838503121562002c5457600080fd5b82359150602083013562002c688162002c2a565b809150509250929050565b60006020828403121562002c8657600080fd5b8135620023888162002c2a565b60008060008060006080868803121562002cac57600080fd5b8535945060208601359350604086013562002cc78162002c2a565b9250606086013567ffffffffffffffff81111562002ce457600080fd5b62002cf28882890162002b0b565b969995985093965092949392505050565b634e487b7160e01b600052604160045260246000fd5b604051601f8201601f1916810167ffffffffffffffff8111828210171562002d455762002d4562002d03565b604052919050565b6000806040838503121562002d6157600080fd5b823562002d6e8162002c2a565b915060208381013567ffffffffffffffff8082111562002d8d57600080fd5b818601915086601f83011262002da257600080fd5b81358181111562002db75762002db762002d03565b62002dcb84601f19601f8401160162002d19565b9150808252878482850101111562002de257600080fd5b80848401858401376000848284010152508093505050509250929050565b60008060006060848603121562002e1657600080fd5b833562002e238162002c2a565b9250602084013562002e358162002c2a565b9150604084013562002e478162002c2a565b809150509250925092565b6000806000806060858703121562002e6957600080fd5b84359350602085013562002e7d8162002c2a565b9250604085013567ffffffffffffffff81111562002e9a57600080fd5b62002ea88782880162002b0b565b95989497509550505050565b6001600160a01b038416815260406020820152816040820152818360608301376000818301606090810191909152601f909201601f1916010192915050565b60006020828403121562002f0657600080fd5b5051919050565b60005b8381101562002f2a57818101518382015260200162002f10565b83811115620015aa5750506000910152565b6000815180845262002f5681602086016020860162002f0d565b601f01601f19169290920160200192915050565b60208152600062002388602083018462002f3c565b634e487b7160e01b600052600160045260246000fd5b801515811462000cb957600080fd5b600060e0828403121562002fb757600080fd5b60405160e0810181811067ffffffffffffffff8211171562002fdd5762002fdd62002d03565b604052823562002fed8162002c2a565b808252506020830135602082015260408301356040820152606083013560608201526080830135608082015260a083013560a082015260c0830135620030338162002f95565b60c08201529392505050565b600080604083850312156200305357600080fd5b8235620030608162002c2a565b946020939093013593505050565b6000602082840312156200308157600080fd5b8151620023888162002f95565b7f416363657373436f6e74726f6c3a206163636f756e7420000000000000000000815260008351620030c881601785016020880162002f0d565b7f206973206d697373696e6720726f6c652000000000000000000000000000000060179184019182015283516200310781602884016020880162002f0d565b01602801949350505050565b828152600082516200312d81602085016020870162002f0d565b919091016020019392505050565b6001600160a01b03831681526040602082015260006200315f604083018462002f3c565b949350505050565b60008060008060008060c087890312156200318157600080fd5b865195506020870151945060408701519350606087015192506080870151915060a087015190509295509295509295565b634e487b7160e01b600052601160045260246000fd5b6000816000190483118215151615620031e557620031e5620031b2565b500290565b60008219821115620032005762003200620031b2565b500190565b634e487b7160e01b600052603260045260246000fd5b6000816200322d576200322d620031b2565b506000190190565b600082516200324981846020870162002f0d565b9190910192915050565b60408152600062003268604083018562002f3c565b9050826020830152939250505056fe608060405260405161081038038061081083398101604081905261002291610337565b61004d60017f360894a13ba1a3210667c828492db98dca3e2076cc3735a920a3ca505d382bbd610405565b6000805160206107c9833981519152146100695761006961042a565b6100758282600061007c565b505061048f565b610085836100b2565b6000825111806100925750805b156100ad576100ab83836100f260201b6100291760201c565b505b505050565b6100bb8161011e565b6040516001600160a01b038216907fbc7cd75a20ee27fd9adebab32041f755214dbc6bffa90cc0225b39da2e5c2d3b90600090a250565b606061011783836040518060600160405280602781526020016107e9602791396101de565b9392505050565b610131816102b360201b6100551760201c565b6101985760405162461bcd60e51b815260206004820152602d60248201527f455243313936373a206e657720696d706c656d656e746174696f6e206973206e60448201526c1bdd08184818dbdb9d1c9858dd609a1b60648201526084015b60405180910390fd5b806101bd6000805160206107c983398151915260001b6102b960201b61005b1760201c565b80546001600160a01b0319166001600160a01b039290921691909117905550565b6060833b61023d5760405162461bcd60e51b815260206004820152602660248201527f416464726573733a2064656c65676174652063616c6c20746f206e6f6e2d636f6044820152651b9d1c9858dd60d21b606482015260840161018f565b600080856001600160a01b0316856040516102589190610440565b600060405180830381855af49150503d8060008114610293576040519150601f19603f3d011682016040523d82523d6000602084013e610298565b606091505b5090925090506102a98282866102bc565b9695505050505050565b3b151590565b90565b606083156102cb575081610117565b8251156102db5782518084602001fd5b8160405162461bcd60e51b815260040161018f919061045c565b634e487b7160e01b600052604160045260246000fd5b60005b8381101561032657818101518382015260200161030e565b838111156100ab5750506000910152565b6000806040838503121561034a57600080fd5b82516001600160a01b038116811461036157600080fd5b60208401519092506001600160401b038082111561037e57600080fd5b818501915085601f83011261039257600080fd5b8151818111156103a4576103a46102f5565b604051601f8201601f19908116603f011681019083821181831017156103cc576103cc6102f5565b816040528281528860208487010111156103e557600080fd5b6103f683602083016020880161030b565b80955050505050509250929050565b60008282101561042557634e487b7160e01b600052601160045260246000fd5b500390565b634e487b7160e01b600052600160045260246000fd5b6000825161045281846020870161030b565b9190910192915050565b602081526000825180602084015261047b81604085016020870161030b565b601f01601f19169190910160400192915050565b61032b8061049e6000396000f3fe60806040523661001357610011610017565b005b6100115b61002761002261005e565b6100a3565b565b606061004e83836040518060600160405280602781526020016102cf602791396100c7565b9392505050565b3b151590565b90565b600061009e7f360894a13ba1a3210667c828492db98dca3e2076cc3735a920a3ca505d382bbc5473ffffffffffffffffffffffffffffffffffffffff1690565b905090565b3660008037600080366000845af43d6000803e8080156100c2573d6000f35b3d6000fd5b6060833b61015c576040517f08c379a000000000000000000000000000000000000000000000000000000000815260206004820152602660248201527f416464726573733a2064656c65676174652063616c6c20746f206e6f6e2d636f60448201527f6e7472616374000000000000000000000000000000000000000000000000000060648201526084015b60405180910390fd5b6000808573ffffffffffffffffffffffffffffffffffffffff16856040516101849190610261565b600060405180830381855af49150503d80600081146101bf576040519150601f19603f3d011682016040523d82523d6000602084013e6101c4565b606091505b50915091506101d48282866101de565b9695505050505050565b606083156101ed57508161004e565b8251156101fd5782518084602001fd5b816040517f08c379a0000000000000000000000000000000000000000000000000000000008152600401610153919061027d565b60005b8381101561024c578181015183820152602001610234565b8381111561025b576000848401525b50505050565b60008251610273818460208701610231565b9190910192915050565b602081526000825180602084015261029c816040850160208701610231565b601f017fffffffffffffffffffffffffffffffffffffffffffffffffffffffffffffffe016919091016040019291505056fe416464726573733a206c6f772d6c6576656c2064656c65676174652063616c6c206661696c6564a2646970667358221220622d8852ce84c52c9c688b923393379a20b2b81b950c780b39a7458efb7431b964736f6c634300080b0033360894a13ba1a3210667c828492db98dca3e2076cc3735a920a3ca505d382bbc416464726573733a206c6f772d6c6576656c2064656c65676174652063616c6c206661696c6564416464726573733a206c6f772d6c6576656c2064656c65676174652063616c6c206661696c6564a2646970667358221220ca7b887d242bef231657582a8519b48eb474a730ad2020ed313c5dcf26ec4eb064736f6c634300080b0033",
  "linkReferences": {},
  "deployedLinkReferences": {}
}