{
  "_format": "hh-sol-artifact-1",
  "contractName": "EtherZDAO",
  "sourceName": "contracts/ethereum/EtherZDAO.sol",
  "abi": [
    {
      "anonymous": false,
      "inputs": [
        {
          "indexed": false,
          "internalType": "address",
          "name": "previousAdmin",
          "type": "address"
        },
        {
          "indexed": false,
          "internalType": "address",
          "name": "newAdmin",
          "type": "address"
        }
      ],
      "name": "AdminChanged",
      "type": "event"
    },
    {
      "anonymous": false,
      "inputs": [
        {
          "indexed": true,
          "internalType": "address",
          "name": "beacon",
          "type": "address"
        }
      ],
      "name": "BeaconUpgraded",
      "type": "event"
    },
    {
      "anonymous": false,
      "inputs": [
        {
          "indexed": true,
          "internalType": "address",
          "name": "previousOwner",
          "type": "address"
        },
        {
          "indexed": true,
          "internalType": "address",
          "name": "newOwner",
          "type": "address"
        }
      ],
      "name": "OwnershipTransferred",
      "type": "event"
    },
    {
      "anonymous": false,
      "inputs": [
        {
          "indexed": false,
          "internalType": "address",
          "name": "account",
          "type": "address"
        }
      ],
      "name": "Paused",
      "type": "event"
    },
    {
      "anonymous": false,
      "inputs": [
        {
          "indexed": true,
          "internalType": "bytes32",
          "name": "role",
          "type": "bytes32"
        },
        {
          "indexed": true,
          "internalType": "bytes32",
          "name": "previousAdminRole",
          "type": "bytes32"
        },
        {
          "indexed": true,
          "internalType": "bytes32",
          "name": "newAdminRole",
          "type": "bytes32"
        }
      ],
      "name": "RoleAdminChanged",
      "type": "event"
    },
    {
      "anonymous": false,
      "inputs": [
        {
          "indexed": true,
          "internalType": "bytes32",
          "name": "role",
          "type": "bytes32"
        },
        {
          "indexed": true,
          "internalType": "address",
          "name": "account",
          "type": "address"
        },
        {
          "indexed": true,
          "internalType": "address",
          "name": "sender",
          "type": "address"
        }
      ],
      "name": "RoleGranted",
      "type": "event"
    },
    {
      "anonymous": false,
      "inputs": [
        {
          "indexed": true,
          "internalType": "bytes32",
          "name": "role",
          "type": "bytes32"
        },
        {
          "indexed": true,
          "internalType": "address",
          "name": "account",
          "type": "address"
        },
        {
          "indexed": true,
          "internalType": "address",
          "name": "sender",
          "type": "address"
        }
      ],
      "name": "RoleRevoked",
      "type": "event"
    },
    {
      "anonymous": false,
      "inputs": [
        {
          "indexed": false,
          "internalType": "address",
          "name": "account",
          "type": "address"
        }
      ],
      "name": "Unpaused",
      "type": "event"
    },
    {
      "anonymous": false,
      "inputs": [
        {
          "indexed": true,
          "internalType": "address",
          "name": "implementation",
          "type": "address"
        }
      ],
      "name": "Upgraded",
      "type": "event"
    },
    {
      "inputs": [],
      "name": "DEFAULT_ADMIN_ROLE",
      "outputs": [
        {
          "internalType": "bytes32",
          "name": "",
          "type": "bytes32"
        }
      ],
      "stateMutability": "view",
      "type": "function"
    },
    {
      "inputs": [
        {
          "internalType": "address",
          "name": "_zDAOChef",
          "type": "address"
        },
        {
          "internalType": "uint256",
          "name": "_zDAOId",
          "type": "uint256"
        },
        {
          "internalType": "address",
          "name": "_createdBy",
          "type": "address"
        },
        {
          "components": [
            {
              "internalType": "string",
              "name": "title",
              "type": "string"
            },
            {
              "internalType": "address",
              "name": "gnosisSafe",
              "type": "address"
            },
            {
              "internalType": "address",
              "name": "token",
              "type": "address"
            },
            {
              "internalType": "uint256",
              "name": "amount",
              "type": "uint256"
            },
            {
              "internalType": "uint256",
              "name": "duration",
              "type": "uint256"
            },
            {
              "internalType": "uint256",
              "name": "votingThreshold",
              "type": "uint256"
            },
            {
              "internalType": "uint256",
              "name": "minimumVotingParticipants",
              "type": "uint256"
            },
            {
              "internalType": "uint256",
              "name": "minimumTotalVotingTokens",
              "type": "uint256"
            },
            {
              "internalType": "bool",
              "name": "isRelativeMajority",
              "type": "bool"
            }
          ],
          "internalType": "struct IEtherZDAOChef.ZDAOConfig",
          "name": "_zDAOConfig",
          "type": "tuple"
        }
      ],
      "name": "__ZDAO_init",
      "outputs": [],
      "stateMutability": "nonpayable",
      "type": "function"
    },
    {
      "inputs": [
        {
          "internalType": "uint256",
          "name": "_proposalId",
          "type": "uint256"
        },
        {
          "internalType": "uint256",
          "name": "_voters",
          "type": "uint256"
        },
        {
          "internalType": "uint256",
          "name": "_yes",
          "type": "uint256"
        },
        {
          "internalType": "uint256",
          "name": "_no",
          "type": "uint256"
        }
      ],
      "name": "calculateProposal",
      "outputs": [],
      "stateMutability": "nonpayable",
      "type": "function"
    },
    {
      "inputs": [
        {
          "internalType": "address",
          "name": "_cancelBy",
          "type": "address"
        },
        {
          "internalType": "uint256",
          "name": "_proposalId",
          "type": "uint256"
        }
      ],
      "name": "cancelProposal",
      "outputs": [],
      "stateMutability": "nonpayable",
      "type": "function"
    },
    {
      "inputs": [
        {
          "internalType": "address",
          "name": "_createdBy",
          "type": "address"
        },
        {
          "internalType": "string",
          "name": "_ipfs",
          "type": "string"
        }
      ],
      "name": "createProposal",
      "outputs": [
        {
          "internalType": "uint256",
          "name": "",
          "type": "uint256"
        }
      ],
      "stateMutability": "nonpayable",
      "type": "function"
    },
    {
      "inputs": [],
      "name": "destroyed",
      "outputs": [
        {
          "internalType": "bool",
          "name": "",
          "type": "bool"
        }
      ],
      "stateMutability": "view",
      "type": "function"
    },
    {
      "inputs": [
        {
          "internalType": "address",
          "name": "_executeBy",
          "type": "address"
        },
        {
          "internalType": "uint256",
          "name": "_proposalId",
          "type": "uint256"
        }
      ],
      "name": "executeProposal",
      "outputs": [],
      "stateMutability": "nonpayable",
      "type": "function"
    },
    {
      "inputs": [
        {
          "internalType": "bytes32",
          "name": "role",
          "type": "bytes32"
        }
      ],
      "name": "getRoleAdmin",
      "outputs": [
        {
          "internalType": "bytes32",
          "name": "",
          "type": "bytes32"
        }
      ],
      "stateMutability": "view",
      "type": "function"
    },
    {
      "inputs": [
        {
          "internalType": "bytes32",
          "name": "role",
          "type": "bytes32"
        },
        {
          "internalType": "address",
          "name": "account",
          "type": "address"
        }
      ],
      "name": "grantRole",
      "outputs": [],
      "stateMutability": "nonpayable",
      "type": "function"
    },
    {
      "inputs": [
        {
          "internalType": "bytes32",
          "name": "role",
          "type": "bytes32"
        },
        {
          "internalType": "address",
          "name": "account",
          "type": "address"
        }
      ],
      "name": "hasRole",
      "outputs": [
        {
          "internalType": "bool",
          "name": "",
          "type": "bool"
        }
      ],
      "stateMutability": "view",
      "type": "function"
    },
    {
      "inputs": [],
      "name": "lastProposalId",
      "outputs": [
        {
          "internalType": "uint256",
          "name": "",
          "type": "uint256"
        }
      ],
      "stateMutability": "view",
      "type": "function"
    },
    {
      "inputs": [
        {
          "internalType": "uint256",
          "name": "_startIndex",
          "type": "uint256"
        },
        {
          "internalType": "uint256",
          "name": "_count",
          "type": "uint256"
        }
      ],
      "name": "listProposals",
      "outputs": [
        {
          "components": [
            {
              "internalType": "uint256",
              "name": "proposalId",
              "type": "uint256"
            },
            {
              "internalType": "address",
              "name": "createdBy",
              "type": "address"
            },
            {
              "internalType": "uint256",
              "name": "yes",
              "type": "uint256"
            },
            {
              "internalType": "uint256",
              "name": "no",
              "type": "uint256"
            },
            {
              "internalType": "uint256",
              "name": "voters",
              "type": "uint256"
            },
            {
              "internalType": "string",
              "name": "ipfs",
              "type": "string"
            },
            {
              "internalType": "uint256",
              "name": "snapshot",
              "type": "uint256"
            },
            {
              "internalType": "bool",
              "name": "calculated",
              "type": "bool"
            },
            {
              "internalType": "bool",
              "name": "executed",
              "type": "bool"
            },
            {
              "internalType": "bool",
              "name": "canceled",
              "type": "bool"
            }
          ],
          "internalType": "struct IEtherZDAO.Proposal[]",
          "name": "records",
          "type": "tuple[]"
        }
      ],
      "stateMutability": "view",
      "type": "function"
    },
    {
      "inputs": [],
      "name": "numberOfProposals",
      "outputs": [
        {
          "internalType": "uint256",
          "name": "",
          "type": "uint256"
        }
      ],
      "stateMutability": "view",
      "type": "function"
    },
    {
      "inputs": [],
      "name": "owner",
      "outputs": [
        {
          "internalType": "address",
          "name": "",
          "type": "address"
        }
      ],
      "stateMutability": "view",
      "type": "function"
    },
    {
      "inputs": [],
      "name": "paused",
      "outputs": [
        {
          "internalType": "bool",
          "name": "",
          "type": "bool"
        }
      ],
      "stateMutability": "view",
      "type": "function"
    },
    {
      "inputs": [
        {
          "internalType": "uint256",
          "name": "",
          "type": "uint256"
        }
      ],
      "name": "proposalIds",
      "outputs": [
        {
          "internalType": "uint256",
          "name": "",
          "type": "uint256"
        }
      ],
      "stateMutability": "view",
      "type": "function"
    },
    {
      "inputs": [
        {
          "internalType": "uint256",
          "name": "",
          "type": "uint256"
        }
      ],
      "name": "proposals",
      "outputs": [
        {
          "internalType": "uint256",
          "name": "proposalId",
          "type": "uint256"
        },
        {
          "internalType": "address",
          "name": "createdBy",
          "type": "address"
        },
        {
          "internalType": "uint256",
          "name": "yes",
          "type": "uint256"
        },
        {
          "internalType": "uint256",
          "name": "no",
          "type": "uint256"
        },
        {
          "internalType": "uint256",
          "name": "voters",
          "type": "uint256"
        },
        {
          "internalType": "string",
          "name": "ipfs",
          "type": "string"
        },
        {
          "internalType": "uint256",
          "name": "snapshot",
          "type": "uint256"
        },
        {
          "internalType": "bool",
          "name": "calculated",
          "type": "bool"
        },
        {
          "internalType": "bool",
          "name": "executed",
          "type": "bool"
        },
        {
          "internalType": "bool",
          "name": "canceled",
          "type": "bool"
        }
      ],
      "stateMutability": "view",
      "type": "function"
    },
    {
      "inputs": [],
      "name": "renounceOwnership",
      "outputs": [],
      "stateMutability": "nonpayable",
      "type": "function"
    },
    {
      "inputs": [
        {
          "internalType": "bytes32",
          "name": "role",
          "type": "bytes32"
        },
        {
          "internalType": "address",
          "name": "account",
          "type": "address"
        }
      ],
      "name": "renounceRole",
      "outputs": [],
      "stateMutability": "nonpayable",
      "type": "function"
    },
    {
      "inputs": [
        {
          "internalType": "bytes32",
          "name": "role",
          "type": "bytes32"
        },
        {
          "internalType": "address",
          "name": "account",
          "type": "address"
        }
      ],
      "name": "revokeRole",
      "outputs": [],
      "stateMutability": "nonpayable",
      "type": "function"
    },
    {
      "inputs": [
        {
          "internalType": "bool",
          "name": "_destroyed",
          "type": "bool"
        }
      ],
      "name": "setDestroyed",
      "outputs": [],
      "stateMutability": "nonpayable",
      "type": "function"
    },
    {
      "inputs": [
        {
          "internalType": "address",
          "name": "_gnosisSafe",
          "type": "address"
        }
      ],
      "name": "setGnosisSafe",
      "outputs": [],
      "stateMutability": "nonpayable",
      "type": "function"
    },
    {
      "inputs": [
        {
          "internalType": "address",
          "name": "_token",
          "type": "address"
        },
        {
          "internalType": "uint256",
          "name": "_amount",
          "type": "uint256"
        }
      ],
      "name": "setVotingToken",
      "outputs": [],
      "stateMutability": "nonpayable",
      "type": "function"
    },
    {
      "inputs": [
        {
          "internalType": "uint256",
          "name": "_proposalId",
          "type": "uint256"
        }
      ],
      "name": "state",
      "outputs": [
        {
          "internalType": "enum IEtherZDAO.ProposalState",
          "name": "",
          "type": "uint8"
        }
      ],
      "stateMutability": "view",
      "type": "function"
    },
    {
      "inputs": [
        {
          "internalType": "bytes4",
          "name": "interfaceId",
          "type": "bytes4"
        }
      ],
      "name": "supportsInterface",
      "outputs": [
        {
          "internalType": "bool",
          "name": "",
          "type": "bool"
        }
      ],
      "stateMutability": "view",
      "type": "function"
    },
    {
      "inputs": [
        {
          "internalType": "address",
          "name": "newOwner",
          "type": "address"
        }
      ],
      "name": "transferOwnership",
      "outputs": [],
      "stateMutability": "nonpayable",
      "type": "function"
    },
    {
      "inputs": [
        {
          "internalType": "address",
          "name": "newImplementation",
          "type": "address"
        }
      ],
      "name": "upgradeTo",
      "outputs": [],
      "stateMutability": "nonpayable",
      "type": "function"
    },
    {
      "inputs": [
        {
          "internalType": "address",
          "name": "newImplementation",
          "type": "address"
        },
        {
          "internalType": "bytes",
          "name": "data",
          "type": "bytes"
        }
      ],
      "name": "upgradeToAndCall",
      "outputs": [],
      "stateMutability": "payable",
      "type": "function"
    },
    {
      "inputs": [],
      "name": "version",
      "outputs": [
        {
          "internalType": "uint256",
          "name": "",
          "type": "uint256"
        }
      ],
      "stateMutability": "view",
      "type": "function"
    },
    {
      "inputs": [],
      "name": "zDAOChef",
      "outputs": [
        {
          "internalType": "address",
          "name": "",
          "type": "address"
        }
      ],
      "stateMutability": "view",
      "type": "function"
    },
    {
      "inputs": [],
      "name": "zDAOInfo",
      "outputs": [
        {
          "internalType": "uint256",
          "name": "zDAOId",
          "type": "uint256"
        },
        {
          "internalType": "string",
          "name": "title",
          "type": "string"
        },
        {
          "internalType": "address",
          "name": "createdBy",
          "type": "address"
        },
        {
          "internalType": "address",
          "name": "gnosisSafe",
          "type": "address"
        },
        {
          "internalType": "address",
          "name": "token",
          "type": "address"
        },
        {
          "internalType": "uint256",
          "name": "amount",
          "type": "uint256"
        },
        {
          "internalType": "uint256",
          "name": "duration",
          "type": "uint256"
        },
        {
          "internalType": "uint256",
          "name": "votingThreshold",
          "type": "uint256"
        },
        {
          "internalType": "uint256",
          "name": "minimumVotingParticipants",
          "type": "uint256"
        },
        {
          "internalType": "uint256",
          "name": "minimumTotalVotingTokens",
          "type": "uint256"
        },
        {
          "internalType": "uint256",
          "name": "snapshot",
          "type": "uint256"
        },
        {
          "internalType": "bool",
          "name": "isRelativeMajority",
          "type": "bool"
        },
        {
          "internalType": "bool",
          "name": "destroyed",
          "type": "bool"
        }
      ],
      "stateMutability": "view",
      "type": "function"
    },
    {
      "inputs": [],
      "name": "zDAOOwner",
      "outputs": [
        {
          "internalType": "address",
          "name": "",
          "type": "address"
        }
      ],
      "stateMutability": "view",
      "type": "function"
    }
  ],
  "bytecode": "0x60a06040523060805234801561001457600080fd5b5060805161386b61004560003960008181610e3301528181610ec90152818161121f01526112b5015261386b6000f3fe6080604052600436106101e35760003560e01c80635c975abb1161010257806391d1485411610095578063c3085a3e11610064578063c3085a3e146105c0578063d547741f146105e0578063d8191e6c14610600578063f2fde38b1461062e57600080fd5b806391d14854146105255780639b644a231461056b578063a217fddf1461058b578063bfc42645146105a057600080fd5b80637f6dda14116100d15780637f6dda14146104a35780638d7af473146104d05780638da5cb5b146104e657806390bfeab31461050457600080fd5b80635c975abb1461043f578063715018a61461045757806374cb034f1461046c57806374cb30411461048c57600080fd5b8063359cbbc91161017a578063472858b411610149578063472858b4146103d55780634f1ef286146103f5578063533507551461040857806354fd4d501461042857600080fd5b8063359cbbc91461034a57806336568abe146103685780633659cfe6146103885780633e4f49e6146103a857600080fd5b80631f4f7d29116101b65780631f4f7d29146102ac578063248a9ca3146102da5780632864cdbf1461030a5780632f2ff15d1461032a57600080fd5b8063013cf08b146101e857806301ffc9a714610227578063116b1a0914610257578063137f415b1461028a575b600080fd5b3480156101f457600080fd5b50610208610203366004612fcb565b61064e565b60405161021e9a99989796959493929190613040565b60405180910390f35b34801561023357600080fd5b506102476102423660046130a9565b61073b565b604051901515815260200161021e565b34801561026357600080fd5b50610194546001600160a01b03165b6040516001600160a01b03909116815260200161021e565b34801561029657600080fd5b506102aa6102a5366004613107565b6107d4565b005b3480156102b857600080fd5b506102cc6102c7366004613131565b6108b3565b60405190815260200161021e565b3480156102e657600080fd5b506102cc6102f5366004612fcb565b60009081526097602052604090206001015490565b34801561031657600080fd5b506102aa6103253660046131b4565b610a82565b34801561033657600080fd5b506102aa610345366004613222565b610d71565b34801561035657600080fd5b5061019d54610100900460ff16610247565b34801561037457600080fd5b506102aa610383366004613222565b610d9c565b34801561039457600080fd5b506102aa6103a336600461324e565b610e28565b3480156103b457600080fd5b506103c86103c3366004612fcb565b610fc6565b60405161021e919061327f565b3480156103e157600080fd5b506102aa6103f03660046132a7565b6111ad565b6102aa6104033660046132df565b611214565b34801561041457600080fd5b506102aa610423366004613107565b61139f565b34801561043457600080fd5b506102cc6101915481565b34801561044b57600080fd5b5060fb5460ff16610247565b34801561046357600080fd5b506102aa6115fd565b34801561047857600080fd5b506102aa6104873660046133a1565b611663565b34801561049857600080fd5b506102cc61019e5481565b3480156104af57600080fd5b506104c36104be3660046133d3565b611870565b60405161021e91906133f5565b3480156104dc57600080fd5b5061019e546102cc565b3480156104f257600080fd5b506033546001600160a01b0316610272565b34801561051057600080fd5b506101a154610272906001600160a01b031681565b34801561053157600080fd5b50610247610540366004613222565b60009182526097602090815260408084206001600160a01b0393909316845291905290205460ff1690565b34801561057757600080fd5b506102cc610586366004612fcb565b611ad1565b34801561059757600080fd5b506102cc600081565b3480156105ac57600080fd5b506102aa6105bb366004613107565b611af3565b3480156105cc57600080fd5b506102aa6105db36600461324e565b611ce2565b3480156105ec57600080fd5b506102aa6105fb366004613222565b611db7565b34801561060c57600080fd5b50610615611ddd565b60405161021e9d9c9b9a999897969594939291906134fe565b34801561063a57600080fd5b506102aa61064936600461324e565b611ed1565b61019f6020526000908152604090208054600182015460028301546003840154600485015460058601805495966001600160a01b0390951695939492939192916106979061358d565b80601f01602080910402602001604051908101604052809291908181526020018280546106c39061358d565b80156107105780601f106106e557610100808354040283529160200191610710565b820191906000526020600020905b8154815290600101906020018083116106f357829003601f168201915b50505050600683015460079093015491929160ff80821692506101008204811691620100009004168a565b60007fffffffff0000000000000000000000000000000000000000000000000000000082167f7965db0b0000000000000000000000000000000000000000000000000000000014806107ce57507f01ffc9a7000000000000000000000000000000000000000000000000000000007fffffffff000000000000000000000000000000000000000000000000000000008316145b92915050565b61019d54610100900460ff16156108325760405162461bcd60e51b815260206004820152601160248201527f416c72656164792064657374726f79656400000000000000000000000000000060448201526064015b60405180910390fd5b6101a1546001600160a01b0316331461087e5760405162461bcd60e51b815260206004820152600e60248201526d2737ba1030902d2220a7a1b432b360911b6044820152606401610829565b610196805473ffffffffffffffffffffffffffffffffffffffff19166001600160a01b03939093169290921790915561019755565b6101a1546000906001600160a01b031633146109025760405162461bcd60e51b815260206004820152600e60248201526d2737ba1030902d2220a7a1b432b360911b6044820152606401610829565b61019d54610100900460ff161561095b5760405162461bcd60e51b815260206004820152601160248201527f416c72656164792064657374726f7965640000000000000000000000000000006044820152606401610829565b61019754610196546040517f70a082310000000000000000000000000000000000000000000000000000000081526001600160a01b03808816600483015287939216906370a0823190602401602060405180830381865afa1580156109c4573d6000803e3d6000fd5b505050506040513d601f19601f820116820180604052508101906109e891906135c8565b1015610a365760405162461bcd60e51b815260206004820152601860248201527f4e6f7420612076616c696420746f6b656e20686f6c64657200000000000000006044820152606401610829565b6000610a788686868080601f016020809104026020016040519081016040528093929190818152602001838380828437600092019190915250611fb092505050565b9695505050505050565b600054610100900460ff16610a9d5760005460ff1615610aa1565b303b155b610b135760405162461bcd60e51b815260206004820152602e60248201527f496e697469616c697a61626c653a20636f6e747261637420697320616c72656160448201527f647920696e697469616c697a65640000000000000000000000000000000000006064820152608401610829565b600054610100900460ff16158015610b35576000805461ffff19166101011790555b610b3d612120565b6101a1805473ffffffffffffffffffffffffffffffffffffffff19166001600160a01b038716179055604080516101a0810190915284815260208101610b8384806135e1565b8080601f0160208091040260200160405190810160405280939291908181526020018383808284376000920191909152505050908252506001600160a01b038516602080830191909152604091820191610be29190860190860161324e565b6001600160a01b03168152602001610c00606085016040860161324e565b6001600160a01b0316815260200183606001358152602001836080013581526020018360a0013581526020018360c0013581526020018360e00135815260200143815260200183610100016020810190610c5a91906132a7565b15158152600060209182015281516101929081558282015180519192610c87926101939290910190612f32565b5060408201516002820180546001600160a01b0392831673ffffffffffffffffffffffffffffffffffffffff19918216179091556060840151600384018054918416918316919091179055608084015160048401805491909316911617905560a0820151600582015560c0820151600682015560e082015160078201556101008083015160088301556101208301516009830155610140830151600a830155610160830151600b909201805461018090940151151590910261ff00199215159290921661ffff19909316929092171790558015610d6a576000805461ff00191690555b5050505050565b600082815260976020526040902060010154610d8d81336121f7565b610d978383612277565b505050565b6001600160a01b0381163314610e1a5760405162461bcd60e51b815260206004820152602f60248201527f416363657373436f6e74726f6c3a2063616e206f6e6c792072656e6f756e636560448201527f20726f6c657320666f722073656c6600000000000000000000000000000000006064820152608401610829565b610e248282612319565b5050565b306001600160a01b037f0000000000000000000000000000000000000000000000000000000000000000161415610ec75760405162461bcd60e51b815260206004820152602c60248201527f46756e6374696f6e206d7573742062652063616c6c6564207468726f7567682060448201527f64656c656761746563616c6c00000000000000000000000000000000000000006064820152608401610829565b7f00000000000000000000000000000000000000000000000000000000000000006001600160a01b0316610f227f360894a13ba1a3210667c828492db98dca3e2076cc3735a920a3ca505d382bbc546001600160a01b031690565b6001600160a01b031614610f9e5760405162461bcd60e51b815260206004820152602c60248201527f46756e6374696f6e206d7573742062652063616c6c6564207468726f7567682060448201527f6163746976652070726f787900000000000000000000000000000000000000006064820152608401610829565b610fa78161239c565b60408051600080825260208201909252610fc3918391906123f6565b50565b600081815261019f60205260408120600781015462010000900460ff1615610ff15750600292915050565b6007810154610100900460ff161561100c5750600392915050565b600781015460ff166110215750600092915050565b61019a546004820154108061104b575061019b54600382015460028301546110499190613663565b105b156110595750600492915050565b61019d5460ff16801561107f575060008160030154826002015461107d9190613663565b115b80156110bc5750610199546003820154600283015461109e9190613663565b60028301546110af9061271061367b565b6110b9919061369a565b10155b156110ca5750600592915050565b61019654604080517f18160ddd00000000000000000000000000000000000000000000000000000000815290516000926001600160a01b0316916318160ddd9160048281019260209291908290030181865afa15801561112e573d6000803e3d6000fd5b505050506040513d601f19601f8201168201806040525081019061115291906135c8565b61019d5490915060ff161580156111695750600081115b8015611194575061019954600283015482906111879061271061367b565b611191919061369a565b10155b156111a3575060059392505050565b5060049392505050565b6101a1546001600160a01b031633146111f95760405162461bcd60e51b815260206004820152600e60248201526d2737ba1030902d2220a7a1b432b360911b6044820152606401610829565b61019d80549115156101000261ff0019909216919091179055565b306001600160a01b037f00000000000000000000000000000000000000000000000000000000000000001614156112b35760405162461bcd60e51b815260206004820152602c60248201527f46756e6374696f6e206d7573742062652063616c6c6564207468726f7567682060448201527f64656c656761746563616c6c00000000000000000000000000000000000000006064820152608401610829565b7f00000000000000000000000000000000000000000000000000000000000000006001600160a01b031661130e7f360894a13ba1a3210667c828492db98dca3e2076cc3735a920a3ca505d382bbc546001600160a01b031690565b6001600160a01b03161461138a5760405162461bcd60e51b815260206004820152602c60248201527f46756e6374696f6e206d7573742062652063616c6c6564207468726f7567682060448201527f6163746976652070726f787900000000000000000000000000000000000000006064820152608401610829565b6113938261239c565b610e24828260016123f6565b6101a1546001600160a01b031633146113eb5760405162461bcd60e51b815260206004820152600e60248201526d2737ba1030902d2220a7a1b432b360911b6044820152606401610829565b61019d54610100900460ff16156114445760405162461bcd60e51b815260206004820152601160248201527f416c72656164792064657374726f7965640000000000000000000000000000006044820152606401610829565b80600081118015611458575061019e548111155b6114a45760405162461bcd60e51b815260206004820152600c60248201527f496e76616c6964207a44414f00000000000000000000000000000000000000006044820152606401610829565b600082815261019f60205260409020600101546001600160a01b038481169116146115115760405162461bcd60e51b815260206004820152601660248201527f4e6f7420612070726f706f73616c2063726561746f72000000000000000000006044820152606401610829565b604051631f27a4f360e11b8152600481018390526000903090633e4f49e690602401602060405180830381865afa158015611550573d6000803e3d6000fd5b505050506040513d601f19601f8201168201806040525081019061157491906136bc565b9050600081600581111561158a5761158a613269565b146115d75760405162461bcd60e51b815260206004820152601660248201527f4e6f7420612070656e64696e672070726f706f73616c000000000000000000006044820152606401610829565b5050600090815261019f60205260409020600701805462ff000019166201000017905550565b6033546001600160a01b031633146116575760405162461bcd60e51b815260206004820181905260248201527f4f776e61626c653a2063616c6c6572206973206e6f7420746865206f776e65726044820152606401610829565b61166160006125b3565b565b6101a1546001600160a01b031633146116af5760405162461bcd60e51b815260206004820152600e60248201526d2737ba1030902d2220a7a1b432b360911b6044820152606401610829565b836000811180156116c3575061019e548111155b61170f5760405162461bcd60e51b815260206004820152600c60248201527f496e76616c6964207a44414f00000000000000000000000000000000000000006044820152606401610829565b600085815261019f60205260409020600781015460ff16156117735760405162461bcd60e51b815260206004820152601b60248201527f416c72656164792063616c63756c617465642070726f706f73616c00000000006044820152606401610829565b604051631f27a4f360e11b8152600481018790526000903090633e4f49e690602401602060405180830381865afa1580156117b2573d6000803e3d6000fd5b505050506040513d601f19601f820116820180604052508101906117d691906136bc565b905060008160058111156117ec576117ec613269565b146118395760405162461bcd60e51b815260206004820152601660248201527f4e6f7420612070656e64696e672070726f706f73616c000000000000000000006044820152606401610829565b506004810194909455506002830191909155600390910155600090815261019f60205260409020600701805460ff19166001179055565b61019e5460609082906118849085906136dd565b81111561189d578361019e5461189a91906136dd565b90505b8067ffffffffffffffff8111156118b6576118b66132c9565b60405190808252806020026020018201604052801561194c57816020015b6119396040518061014001604052806000815260200160006001600160a01b0316815260200160008152602001600081526020016000815260200160608152602001600081526020016000151581526020016000151581526020016000151581525090565b8152602001906001900390816118d45790505b50915060005b81811015611ac95761019f60006119698388613663565b611974906001613663565b815260208082019290925260409081016000208151610140810183528154815260018201546001600160a01b031693810193909352600281015491830191909152600381015460608301526004810154608083015260058101805460a0840191906119de9061358d565b80601f0160208091040260200160405190810160405280929190818152602001828054611a0a9061358d565b8015611a575780601f10611a2c57610100808354040283529160200191611a57565b820191906000526020600020905b815481529060010190602001808311611a3a57829003601f168201915b50505091835250506006820154602082015260079091015460ff808216151560408401526101008204811615156060840152620100009091041615156080909101528351849083908110611aad57611aad6136f4565b602002602001018190525080611ac29061370a565b9050611952565b505092915050565b6101a08181548110611ae257600080fd5b600091825260209091200154905081565b6101a1546001600160a01b03163314611b3f5760405162461bcd60e51b815260206004820152600e60248201526d2737ba1030902d2220a7a1b432b360911b6044820152606401610829565b61019d54610100900460ff1615611b985760405162461bcd60e51b815260206004820152601160248201527f416c72656164792064657374726f7965640000000000000000000000000000006044820152606401610829565b80600081118015611bac575061019e548111155b611bf85760405162461bcd60e51b815260206004820152600c60248201527f496e76616c6964207a44414f00000000000000000000000000000000000000006044820152606401610829565b604051631f27a4f360e11b8152600481018390526000903090633e4f49e690602401602060405180830381865afa158015611c37573d6000803e3d6000fd5b505050506040513d601f19601f82011682018060405250810190611c5b91906136bc565b90506005816005811115611c7157611c71613269565b14611cbe5760405162461bcd60e51b815260206004820152601860248201527f4e6f742061207375636365656465642070726f706f73616c00000000000000006044820152606401610829565b5050600090815261019f60205260409020600701805461ff00191661010017905550565b61019d54610100900460ff1615611d3b5760405162461bcd60e51b815260206004820152601160248201527f416c72656164792064657374726f7965640000000000000000000000000000006044820152606401610829565b6101a1546001600160a01b03163314611d875760405162461bcd60e51b815260206004820152600e60248201526d2737ba1030902d2220a7a1b432b360911b6044820152606401610829565b610195805473ffffffffffffffffffffffffffffffffffffffff19166001600160a01b0392909216919091179055565b600082815260976020526040902060010154611dd381336121f7565b610d978383612319565b61019280546101938054919291611df39061358d565b80601f0160208091040260200160405190810160405280929190818152602001828054611e1f9061358d565b8015611e6c5780601f10611e4157610100808354040283529160200191611e6c565b820191906000526020600020905b815481529060010190602001808311611e4f57829003601f168201915b50505060028401546003850154600486015460058701546006880154600789015460088a015460098b0154600a8c0154600b909c01549a9b6001600160a01b039889169b9789169a509590971697509295919490939060ff808216916101009004168d565b6033546001600160a01b03163314611f2b5760405162461bcd60e51b815260206004820181905260248201527f4f776e61626c653a2063616c6c6572206973206e6f7420746865206f776e65726044820152606401610829565b6001600160a01b038116611fa75760405162461bcd60e51b815260206004820152602660248201527f4f776e61626c653a206e6577206f776e657220697320746865207a65726f206160448201527f64647265737300000000000000000000000000000000000000000000000000006064820152608401610829565b610fc3816125b3565b61019e805460009182611fc28361370a565b9091555050604080516101408101825261019e548082526001600160a01b0386811660208085019182526000858701818152606087018281526080880183815260a089018c81524360c08b015260e08a018590526101008a018590526101208a0185905297845261019f85529890922087518155935160018501805473ffffffffffffffffffffffffffffffffffffffff19169190961617909455925160028301559151600382015593516004850155905180519293926120899260058501920190612f32565b5060c0820151600682015560e082015160079091018054610100808501516101209095015161ffff1990921693151561ff001916939093179315159092029290921762ff000019166201000091151591909102179055505061019e546101a080546001810182556000919091527f7980fe0f714a613298681d64b7b8ffa7b148338dd52429f307d72798d5c317c401819055919050565b600054610100900460ff1661218b5760405162461bcd60e51b815260206004820152602b60248201527f496e697469616c697a61626c653a20636f6e7472616374206973206e6f74206960448201526a6e697469616c697a696e6760a81b6064820152608401610829565b612193612612565b61219b61268d565b6121a3612710565b6121ab612783565b6121b36127fe565b6001610191819055604080518082019091528181527f7600000000000000000000000000000000000000000000000000000000000000602082015261166191612869565b60008281526097602090815260408083206001600160a01b038516845290915290205460ff16610e2457612235816001600160a01b031660146128dc565b6122408360206128dc565b604051602001612251929190613725565b60408051601f198184030181529082905262461bcd60e51b8252610829916004016137a6565b60008281526097602090815260408083206001600160a01b038516845290915290205460ff16610e245760008281526097602090815260408083206001600160a01b03851684529091529020805460ff191660011790556122d53390565b6001600160a01b0316816001600160a01b0316837f2f8788117e7eff1d82e926ec794901d17c78024a50270940304540a733656f0d60405160405180910390a45050565b60008281526097602090815260408083206001600160a01b038516845290915290205460ff1615610e245760008281526097602090815260408083206001600160a01b0385168085529252808320805460ff1916905551339285917ff6391f5c32d9c69d2a47ea670b442974b53935d1edc7fd64eb21e047a839171b9190a45050565b6033546001600160a01b03163314610fc35760405162461bcd60e51b815260206004820181905260248201527f4f776e61626c653a2063616c6c6572206973206e6f7420746865206f776e65726044820152606401610829565b60006124297f360894a13ba1a3210667c828492db98dca3e2076cc3735a920a3ca505d382bbc546001600160a01b031690565b905061243484612b0c565b6000835111806124415750815b15612452576124508484612bce565b505b7f4910fdfa16fed3260ed0e7147f7cc6da11a60208b5b9406d12a635614ffd9143805460ff16610d6a57805460ff191660011781556040516001600160a01b03831660248201526124ff90869060440160408051601f198184030181529190526020810180517bffffffffffffffffffffffffffffffffffffffffffffffffffffffff167f3659cfe600000000000000000000000000000000000000000000000000000000179052612bce565b50805460ff191681557f360894a13ba1a3210667c828492db98dca3e2076cc3735a920a3ca505d382bbc546001600160a01b038381169116146125aa5760405162461bcd60e51b815260206004820152602f60248201527f45524331393637557067726164653a207570677261646520627265616b73206660448201527f75727468657220757067726164657300000000000000000000000000000000006064820152608401610829565b610d6a85612cd0565b603380546001600160a01b0383811673ffffffffffffffffffffffffffffffffffffffff19831681179093556040519116919082907f8be0079c531659141344cd1fd0a4f28419497f9722a3daafe3b4186f6b6457e090600090a35050565b600054610100900460ff1661267d5760405162461bcd60e51b815260206004820152602b60248201527f496e697469616c697a61626c653a20636f6e7472616374206973206e6f74206960448201526a6e697469616c697a696e6760a81b6064820152608401610829565b612685612d10565b611661612d7b565b600054610100900460ff166126f85760405162461bcd60e51b815260206004820152602b60248201527f496e697469616c697a61626c653a20636f6e7472616374206973206e6f74206960448201526a6e697469616c697a696e6760a81b6064820152608401610829565b612700612d10565b612708612d10565b611661612d10565b600054610100900460ff1661277b5760405162461bcd60e51b815260206004820152602b60248201527f496e697469616c697a61626c653a20636f6e7472616374206973206e6f74206960448201526a6e697469616c697a696e6760a81b6064820152608401610829565b611661612def565b600054610100900460ff166127ee5760405162461bcd60e51b815260206004820152602b60248201527f496e697469616c697a61626c653a20636f6e7472616374206973206e6f74206960448201526a6e697469616c697a696e6760a81b6064820152608401610829565b6127f6612d10565b611661612e61565b600054610100900460ff166127005760405162461bcd60e51b815260206004820152602b60248201527f496e697469616c697a61626c653a20636f6e7472616374206973206e6f74206960448201526a6e697469616c697a696e6760a81b6064820152608401610829565b610e24828260405160240161287f9291906137b9565b60408051601f198184030181529190526020810180517bffffffffffffffffffffffffffffffffffffffffffffffffffffffff167f9710a9d000000000000000000000000000000000000000000000000000000000179052612ed8565b606060006128eb83600261367b565b6128f6906002613663565b67ffffffffffffffff81111561290e5761290e6132c9565b6040519080825280601f01601f191660200182016040528015612938576020820181803683370190505b5090507f30000000000000000000000000000000000000000000000000000000000000008160008151811061296f5761296f6136f4565b60200101907effffffffffffffffffffffffffffffffffffffffffffffffffffffffffffff1916908160001a9053507f7800000000000000000000000000000000000000000000000000000000000000816001815181106129d2576129d26136f4565b60200101907effffffffffffffffffffffffffffffffffffffffffffffffffffffffffffff1916908160001a9053506000612a0e84600261367b565b612a19906001613663565b90505b6001811115612ab6577f303132333435363738396162636465660000000000000000000000000000000085600f1660108110612a5a57612a5a6136f4565b1a60f81b828281518110612a7057612a706136f4565b60200101907effffffffffffffffffffffffffffffffffffffffffffffffffffffffffffff1916908160001a90535060049490941c93612aaf816137db565b9050612a1c565b508315612b055760405162461bcd60e51b815260206004820181905260248201527f537472696e67733a20686578206c656e67746820696e73756666696369656e746044820152606401610829565b9392505050565b803b612b805760405162461bcd60e51b815260206004820152602d60248201527f455243313936373a206e657720696d706c656d656e746174696f6e206973206e60448201527f6f74206120636f6e7472616374000000000000000000000000000000000000006064820152608401610829565b7f360894a13ba1a3210667c828492db98dca3e2076cc3735a920a3ca505d382bbc805473ffffffffffffffffffffffffffffffffffffffff19166001600160a01b0392909216919091179055565b6060823b612c445760405162461bcd60e51b815260206004820152602660248201527f416464726573733a2064656c65676174652063616c6c20746f206e6f6e2d636f60448201527f6e747261637400000000000000000000000000000000000000000000000000006064820152608401610829565b600080846001600160a01b031684604051612c5f91906137f2565b600060405180830381855af49150503d8060008114612c9a576040519150601f19603f3d011682016040523d82523d6000602084013e612c9f565b606091505b5091509150612cc7828260405180606001604052806027815260200161380f60279139612ef9565b95945050505050565b612cd981612b0c565b6040516001600160a01b038216907fbc7cd75a20ee27fd9adebab32041f755214dbc6bffa90cc0225b39da2e5c2d3b90600090a250565b600054610100900460ff166116615760405162461bcd60e51b815260206004820152602b60248201527f496e697469616c697a61626c653a20636f6e7472616374206973206e6f74206960448201526a6e697469616c697a696e6760a81b6064820152608401610829565b600054610100900460ff16612de65760405162461bcd60e51b815260206004820152602b60248201527f496e697469616c697a61626c653a20636f6e7472616374206973206e6f74206960448201526a6e697469616c697a696e6760a81b6064820152608401610829565b611661336125b3565b600054610100900460ff16612e5a5760405162461bcd60e51b815260206004820152602b60248201527f496e697469616c697a61626c653a20636f6e7472616374206973206e6f74206960448201526a6e697469616c697a696e6760a81b6064820152608401610829565b600160c955565b600054610100900460ff16612ecc5760405162461bcd60e51b815260206004820152602b60248201527f496e697469616c697a61626c653a20636f6e7472616374206973206e6f74206960448201526a6e697469616c697a696e6760a81b6064820152608401610829565b60fb805460ff19169055565b80516a636f6e736f6c652e6c6f67602083016000808483855afa5050505050565b60608315612f08575081612b05565b825115612f185782518084602001fd5b8160405162461bcd60e51b815260040161082991906137a6565b828054612f3e9061358d565b90600052602060002090601f016020900481019282612f605760008555612fa6565b82601f10612f7957805160ff1916838001178555612fa6565b82800160010185558215612fa6579182015b82811115612fa6578251825591602001919060010190612f8b565b50612fb2929150612fb6565b5090565b5b80821115612fb25760008155600101612fb7565b600060208284031215612fdd57600080fd5b5035919050565b60005b83811015612fff578181015183820152602001612fe7565b8381111561300e576000848401525b50505050565b6000815180845261302c816020860160208601612fe4565b601f01601f19169290920160200192915050565b60006101408c83526001600160a01b038c1660208401528a60408401528960608401528860808401528060a084015261307b81840189613014565b60c0840197909752505092151560e08401529015156101008301521515610120909101529695505050505050565b6000602082840312156130bb57600080fd5b81357fffffffff0000000000000000000000000000000000000000000000000000000081168114612b0557600080fd5b80356001600160a01b038116811461310257600080fd5b919050565b6000806040838503121561311a57600080fd5b613123836130eb565b946020939093013593505050565b60008060006040848603121561314657600080fd5b61314f846130eb565b9250602084013567ffffffffffffffff8082111561316c57600080fd5b818601915086601f83011261318057600080fd5b81358181111561318f57600080fd5b8760208285010111156131a157600080fd5b6020830194508093505050509250925092565b600080600080608085870312156131ca57600080fd5b6131d3856130eb565b9350602085013592506131e8604086016130eb565b9150606085013567ffffffffffffffff81111561320457600080fd5b8501610120818803121561321757600080fd5b939692955090935050565b6000806040838503121561323557600080fd5b82359150613245602084016130eb565b90509250929050565b60006020828403121561326057600080fd5b612b05826130eb565b634e487b7160e01b600052602160045260246000fd5b60208101600683106132a157634e487b7160e01b600052602160045260246000fd5b91905290565b6000602082840312156132b957600080fd5b81358015158114612b0557600080fd5b634e487b7160e01b600052604160045260246000fd5b600080604083850312156132f257600080fd5b6132fb836130eb565b9150602083013567ffffffffffffffff8082111561331857600080fd5b818501915085601f83011261332c57600080fd5b81358181111561333e5761333e6132c9565b604051601f8201601f19908116603f01168101908382118183101715613366576133666132c9565b8160405282815288602084870101111561337f57600080fd5b8260208601602083013760006020848301015280955050505050509250929050565b600080600080608085870312156133b757600080fd5b5050823594602084013594506040840135936060013592509050565b600080604083850312156133e657600080fd5b50508035926020909101359150565b60006020808301818452808551808352604092508286019150828160051b87010184880160005b838110156134f0577fffffffffffffffffffffffffffffffffffffffffffffffffffffffffffffffc08984030185528151610140815185528882015161346c8a8701826001600160a01b03169052565b508188015185890152606080830151908601526080808301519086015260a0808301518187018390526134a183880182613014565b9250505060c080830151818701525060e0808301516134c38288018215159052565b5050610100828101511515908601526101209182015115159190940152938601939086019060010161341c565b509098975050505050505050565b8d81526101a0602082015260006135196101a083018f613014565b90506001600160a01b03808e166040840152808d166060840152808c166080840152508960a08301528860c08301528760e083015286610100830152856101208301528461014083015283151561016083015261357b61018083018415159052565b9e9d5050505050505050505050505050565b600181811c908216806135a157607f821691505b602082108114156135c257634e487b7160e01b600052602260045260246000fd5b50919050565b6000602082840312156135da57600080fd5b5051919050565b60008083357fffffffffffffffffffffffffffffffffffffffffffffffffffffffffffffffe184360301811261361657600080fd5b83018035915067ffffffffffffffff82111561363157600080fd5b60200191503681900382131561364657600080fd5b9250929050565b634e487b7160e01b600052601160045260246000fd5b600082198211156136765761367661364d565b500190565b60008160001904831182151516156136955761369561364d565b500290565b6000826136b757634e487b7160e01b600052601260045260246000fd5b500490565b6000602082840312156136ce57600080fd5b815160068110612b0557600080fd5b6000828210156136ef576136ef61364d565b500390565b634e487b7160e01b600052603260045260246000fd5b600060001982141561371e5761371e61364d565b5060010190565b7f416363657373436f6e74726f6c3a206163636f756e742000000000000000000081526000835161375d816017850160208801612fe4565b7f206973206d697373696e6720726f6c6520000000000000000000000000000000601791840191820152835161379a816028840160208801612fe4565b01602801949350505050565b602081526000612b056020830184613014565b6040815260006137cc6040830185613014565b90508260208301529392505050565b6000816137ea576137ea61364d565b506000190190565b60008251613804818460208701612fe4565b919091019291505056fe416464726573733a206c6f772d6c6576656c2064656c65676174652063616c6c206661696c6564a2646970667358221220fe4c14b908b30d0cf4981a8334ff58507bffc4519c80762a915206f9adf7662064736f6c634300080b0033",
  "linkReferences": {},
  "deployedLinkReferences": {}
}