{
  "_format": "hh-sol-artifact-1",
  "contractName": "EthereumZDAO",
  "sourceName": "contracts/polygon/ethereum/EthereumZDAO.sol",
  "abi": [
    {
      "anonymous": false,
      "inputs": [
        {
          "indexed": false,
          "internalType": "address",
          "name": "previousAdmin",
          "type": "address"
        },
        {
          "indexed": false,
          "internalType": "address",
          "name": "newAdmin",
          "type": "address"
        }
      ],
      "name": "AdminChanged",
      "type": "event"
    },
    {
      "anonymous": false,
      "inputs": [
        {
          "indexed": true,
          "internalType": "address",
          "name": "beacon",
          "type": "address"
        }
      ],
      "name": "BeaconUpgraded",
      "type": "event"
    },
    {
      "anonymous": false,
      "inputs": [
        {
          "indexed": true,
          "internalType": "address",
          "name": "previousOwner",
          "type": "address"
        },
        {
          "indexed": true,
          "internalType": "address",
          "name": "newOwner",
          "type": "address"
        }
      ],
      "name": "OwnershipTransferred",
      "type": "event"
    },
    {
      "anonymous": false,
      "inputs": [
        {
          "indexed": false,
          "internalType": "address",
          "name": "account",
          "type": "address"
        }
      ],
      "name": "Paused",
      "type": "event"
    },
    {
      "anonymous": false,
      "inputs": [
        {
          "indexed": true,
          "internalType": "bytes32",
          "name": "role",
          "type": "bytes32"
        },
        {
          "indexed": true,
          "internalType": "bytes32",
          "name": "previousAdminRole",
          "type": "bytes32"
        },
        {
          "indexed": true,
          "internalType": "bytes32",
          "name": "newAdminRole",
          "type": "bytes32"
        }
      ],
      "name": "RoleAdminChanged",
      "type": "event"
    },
    {
      "anonymous": false,
      "inputs": [
        {
          "indexed": true,
          "internalType": "bytes32",
          "name": "role",
          "type": "bytes32"
        },
        {
          "indexed": true,
          "internalType": "address",
          "name": "account",
          "type": "address"
        },
        {
          "indexed": true,
          "internalType": "address",
          "name": "sender",
          "type": "address"
        }
      ],
      "name": "RoleGranted",
      "type": "event"
    },
    {
      "anonymous": false,
      "inputs": [
        {
          "indexed": true,
          "internalType": "bytes32",
          "name": "role",
          "type": "bytes32"
        },
        {
          "indexed": true,
          "internalType": "address",
          "name": "account",
          "type": "address"
        },
        {
          "indexed": true,
          "internalType": "address",
          "name": "sender",
          "type": "address"
        }
      ],
      "name": "RoleRevoked",
      "type": "event"
    },
    {
      "anonymous": false,
      "inputs": [
        {
          "indexed": false,
          "internalType": "address",
          "name": "account",
          "type": "address"
        }
      ],
      "name": "Unpaused",
      "type": "event"
    },
    {
      "anonymous": false,
      "inputs": [
        {
          "indexed": true,
          "internalType": "address",
          "name": "implementation",
          "type": "address"
        }
      ],
      "name": "Upgraded",
      "type": "event"
    },
    {
      "inputs": [],
      "name": "DEFAULT_ADMIN_ROLE",
      "outputs": [
        {
          "internalType": "bytes32",
          "name": "",
          "type": "bytes32"
        }
      ],
      "stateMutability": "view",
      "type": "function"
    },
    {
      "inputs": [
        {
          "internalType": "address",
          "name": "_zDAOChef",
          "type": "address"
        },
        {
          "internalType": "uint256",
          "name": "_zDAOId",
          "type": "uint256"
        },
        {
          "internalType": "address",
          "name": "_gnosisSafe",
          "type": "address"
        },
        {
          "internalType": "address",
          "name": "_createdBy",
          "type": "address"
        },
        {
          "components": [
            {
              "internalType": "address",
              "name": "token",
              "type": "address"
            },
            {
              "internalType": "uint256",
              "name": "amount",
              "type": "uint256"
            },
            {
              "internalType": "uint256",
              "name": "duration",
              "type": "uint256"
            },
            {
              "internalType": "uint256",
              "name": "votingThreshold",
              "type": "uint256"
            },
            {
              "internalType": "uint256",
              "name": "minimumVotingParticipants",
              "type": "uint256"
            },
            {
              "internalType": "uint256",
              "name": "minimumTotalVotingTokens",
              "type": "uint256"
            },
            {
              "internalType": "bool",
              "name": "isRelativeMajority",
              "type": "bool"
            }
          ],
          "internalType": "struct IEthereumZDAOChef.ZDAOConfig",
          "name": "_zDAOConfig",
          "type": "tuple"
        }
      ],
      "name": "__ZDAO_init",
      "outputs": [],
      "stateMutability": "nonpayable",
      "type": "function"
    },
    {
      "inputs": [
        {
          "internalType": "uint256",
          "name": "_proposalId",
          "type": "uint256"
        },
        {
          "internalType": "uint256",
          "name": "_voters",
          "type": "uint256"
        },
        {
          "internalType": "uint256",
          "name": "_yes",
          "type": "uint256"
        },
        {
          "internalType": "uint256",
          "name": "_no",
          "type": "uint256"
        }
      ],
      "name": "calculateProposal",
      "outputs": [],
      "stateMutability": "nonpayable",
      "type": "function"
    },
    {
      "inputs": [
        {
          "internalType": "address",
          "name": "_cancelBy",
          "type": "address"
        },
        {
          "internalType": "uint256",
          "name": "_proposalId",
          "type": "uint256"
        }
      ],
      "name": "cancelProposal",
      "outputs": [],
      "stateMutability": "nonpayable",
      "type": "function"
    },
    {
      "inputs": [
        {
          "internalType": "address",
          "name": "_createdBy",
          "type": "address"
        },
        {
          "internalType": "string",
          "name": "_ipfs",
          "type": "string"
        }
      ],
      "name": "createProposal",
      "outputs": [
        {
          "internalType": "uint256",
          "name": "",
          "type": "uint256"
        }
      ],
      "stateMutability": "nonpayable",
      "type": "function"
    },
    {
      "inputs": [],
      "name": "destroyed",
      "outputs": [
        {
          "internalType": "bool",
          "name": "",
          "type": "bool"
        }
      ],
      "stateMutability": "view",
      "type": "function"
    },
    {
      "inputs": [],
      "name": "divisionConstant",
      "outputs": [
        {
          "internalType": "uint256",
          "name": "",
          "type": "uint256"
        }
      ],
      "stateMutability": "view",
      "type": "function"
    },
    {
      "inputs": [
        {
          "internalType": "address",
          "name": "_executeBy",
          "type": "address"
        },
        {
          "internalType": "uint256",
          "name": "_proposalId",
          "type": "uint256"
        }
      ],
      "name": "executeProposal",
      "outputs": [],
      "stateMutability": "nonpayable",
      "type": "function"
    },
    {
      "inputs": [
        {
          "internalType": "bytes32",
          "name": "role",
          "type": "bytes32"
        }
      ],
      "name": "getRoleAdmin",
      "outputs": [
        {
          "internalType": "bytes32",
          "name": "",
          "type": "bytes32"
        }
      ],
      "stateMutability": "view",
      "type": "function"
    },
    {
      "inputs": [
        {
          "internalType": "bytes32",
          "name": "role",
          "type": "bytes32"
        },
        {
          "internalType": "address",
          "name": "account",
          "type": "address"
        }
      ],
      "name": "grantRole",
      "outputs": [],
      "stateMutability": "nonpayable",
      "type": "function"
    },
    {
      "inputs": [
        {
          "internalType": "bytes32",
          "name": "role",
          "type": "bytes32"
        },
        {
          "internalType": "address",
          "name": "account",
          "type": "address"
        }
      ],
      "name": "hasRole",
      "outputs": [
        {
          "internalType": "bool",
          "name": "",
          "type": "bool"
        }
      ],
      "stateMutability": "view",
      "type": "function"
    },
    {
      "inputs": [],
      "name": "lastProposalId",
      "outputs": [
        {
          "internalType": "uint256",
          "name": "",
          "type": "uint256"
        }
      ],
      "stateMutability": "view",
      "type": "function"
    },
    {
      "inputs": [
        {
          "internalType": "uint256",
          "name": "_startIndex",
          "type": "uint256"
        },
        {
          "internalType": "uint256",
          "name": "_count",
          "type": "uint256"
        }
      ],
      "name": "listProposals",
      "outputs": [
        {
          "components": [
            {
              "internalType": "uint256",
              "name": "proposalId",
              "type": "uint256"
            },
            {
              "internalType": "address",
              "name": "createdBy",
              "type": "address"
            },
            {
              "internalType": "uint256",
              "name": "created",
              "type": "uint256"
            },
            {
              "internalType": "uint256",
              "name": "yes",
              "type": "uint256"
            },
            {
              "internalType": "uint256",
              "name": "no",
              "type": "uint256"
            },
            {
              "internalType": "uint256",
              "name": "voters",
              "type": "uint256"
            },
            {
              "internalType": "string",
              "name": "ipfs",
              "type": "string"
            },
            {
              "internalType": "uint256",
              "name": "snapshot",
              "type": "uint256"
            },
            {
              "internalType": "bool",
              "name": "calculated",
              "type": "bool"
            },
            {
              "internalType": "bool",
              "name": "executed",
              "type": "bool"
            },
            {
              "internalType": "bool",
              "name": "canceled",
              "type": "bool"
            }
          ],
          "internalType": "struct IEthereumZDAO.Proposal[]",
          "name": "records",
          "type": "tuple[]"
        }
      ],
      "stateMutability": "view",
      "type": "function"
    },
    {
      "inputs": [
        {
          "internalType": "address",
          "name": "_gnosisSafe",
          "type": "address"
        },
        {
          "internalType": "address",
          "name": "_token",
          "type": "address"
        },
        {
          "internalType": "uint256",
          "name": "_amount",
          "type": "uint256"
        }
      ],
      "name": "modifyZDAO",
      "outputs": [],
      "stateMutability": "nonpayable",
      "type": "function"
    },
    {
      "inputs": [],
      "name": "numberOfProposals",
      "outputs": [
        {
          "internalType": "uint256",
          "name": "",
          "type": "uint256"
        }
      ],
      "stateMutability": "view",
      "type": "function"
    },
    {
      "inputs": [],
      "name": "owner",
      "outputs": [
        {
          "internalType": "address",
          "name": "",
          "type": "address"
        }
      ],
      "stateMutability": "view",
      "type": "function"
    },
    {
      "inputs": [],
      "name": "paused",
      "outputs": [
        {
          "internalType": "bool",
          "name": "",
          "type": "bool"
        }
      ],
      "stateMutability": "view",
      "type": "function"
    },
    {
      "inputs": [
        {
          "internalType": "uint256",
          "name": "",
          "type": "uint256"
        }
      ],
      "name": "proposalIds",
      "outputs": [
        {
          "internalType": "uint256",
          "name": "",
          "type": "uint256"
        }
      ],
      "stateMutability": "view",
      "type": "function"
    },
    {
      "inputs": [
        {
          "internalType": "uint256",
          "name": "",
          "type": "uint256"
        }
      ],
      "name": "proposals",
      "outputs": [
        {
          "internalType": "uint256",
          "name": "proposalId",
          "type": "uint256"
        },
        {
          "internalType": "address",
          "name": "createdBy",
          "type": "address"
        },
        {
          "internalType": "uint256",
          "name": "created",
          "type": "uint256"
        },
        {
          "internalType": "uint256",
          "name": "yes",
          "type": "uint256"
        },
        {
          "internalType": "uint256",
          "name": "no",
          "type": "uint256"
        },
        {
          "internalType": "uint256",
          "name": "voters",
          "type": "uint256"
        },
        {
          "internalType": "string",
          "name": "ipfs",
          "type": "string"
        },
        {
          "internalType": "uint256",
          "name": "snapshot",
          "type": "uint256"
        },
        {
          "internalType": "bool",
          "name": "calculated",
          "type": "bool"
        },
        {
          "internalType": "bool",
          "name": "executed",
          "type": "bool"
        },
        {
          "internalType": "bool",
          "name": "canceled",
          "type": "bool"
        }
      ],
      "stateMutability": "view",
      "type": "function"
    },
    {
      "inputs": [],
      "name": "renounceOwnership",
      "outputs": [],
      "stateMutability": "nonpayable",
      "type": "function"
    },
    {
      "inputs": [
        {
          "internalType": "bytes32",
          "name": "role",
          "type": "bytes32"
        },
        {
          "internalType": "address",
          "name": "account",
          "type": "address"
        }
      ],
      "name": "renounceRole",
      "outputs": [],
      "stateMutability": "nonpayable",
      "type": "function"
    },
    {
      "inputs": [
        {
          "internalType": "bytes32",
          "name": "role",
          "type": "bytes32"
        },
        {
          "internalType": "address",
          "name": "account",
          "type": "address"
        }
      ],
      "name": "revokeRole",
      "outputs": [],
      "stateMutability": "nonpayable",
      "type": "function"
    },
    {
      "inputs": [
        {
          "internalType": "bool",
          "name": "_destroyed",
          "type": "bool"
        }
      ],
      "name": "setDestroyed",
      "outputs": [],
      "stateMutability": "nonpayable",
      "type": "function"
    },
    {
      "inputs": [
        {
          "internalType": "uint256",
          "name": "_proposalId",
          "type": "uint256"
        }
      ],
      "name": "state",
      "outputs": [
        {
          "internalType": "enum IEthereumZDAO.ProposalState",
          "name": "",
          "type": "uint8"
        }
      ],
      "stateMutability": "view",
      "type": "function"
    },
    {
      "inputs": [
        {
          "internalType": "bytes4",
          "name": "interfaceId",
          "type": "bytes4"
        }
      ],
      "name": "supportsInterface",
      "outputs": [
        {
          "internalType": "bool",
          "name": "",
          "type": "bool"
        }
      ],
      "stateMutability": "view",
      "type": "function"
    },
    {
      "inputs": [
        {
          "internalType": "address",
          "name": "newOwner",
          "type": "address"
        }
      ],
      "name": "transferOwnership",
      "outputs": [],
      "stateMutability": "nonpayable",
      "type": "function"
    },
    {
      "inputs": [
        {
          "internalType": "address",
          "name": "newImplementation",
          "type": "address"
        }
      ],
      "name": "upgradeTo",
      "outputs": [],
      "stateMutability": "nonpayable",
      "type": "function"
    },
    {
      "inputs": [
        {
          "internalType": "address",
          "name": "newImplementation",
          "type": "address"
        },
        {
          "internalType": "bytes",
          "name": "data",
          "type": "bytes"
        }
      ],
      "name": "upgradeToAndCall",
      "outputs": [],
      "stateMutability": "payable",
      "type": "function"
    },
    {
      "inputs": [],
      "name": "version",
      "outputs": [
        {
          "internalType": "uint256",
          "name": "",
          "type": "uint256"
        }
      ],
      "stateMutability": "view",
      "type": "function"
    },
    {
      "inputs": [],
      "name": "zDAOChef",
      "outputs": [
        {
          "internalType": "address",
          "name": "",
          "type": "address"
        }
      ],
      "stateMutability": "view",
      "type": "function"
    },
    {
      "inputs": [],
      "name": "zDAOInfo",
      "outputs": [
        {
          "components": [
            {
              "internalType": "uint256",
              "name": "zDAOId",
              "type": "uint256"
            },
            {
              "internalType": "address",
              "name": "createdBy",
              "type": "address"
            },
            {
              "internalType": "address",
              "name": "gnosisSafe",
              "type": "address"
            },
            {
              "internalType": "address",
              "name": "token",
              "type": "address"
            },
            {
              "internalType": "uint256",
              "name": "amount",
              "type": "uint256"
            },
            {
              "internalType": "uint256",
              "name": "duration",
              "type": "uint256"
            },
            {
              "internalType": "uint256",
              "name": "votingThreshold",
              "type": "uint256"
            },
            {
              "internalType": "uint256",
              "name": "minimumVotingParticipants",
              "type": "uint256"
            },
            {
              "internalType": "uint256",
              "name": "minimumTotalVotingTokens",
              "type": "uint256"
            },
            {
              "internalType": "uint256",
              "name": "snapshot",
              "type": "uint256"
            },
            {
              "internalType": "bool",
              "name": "isRelativeMajority",
              "type": "bool"
            },
            {
              "internalType": "bool",
              "name": "destroyed",
              "type": "bool"
            }
          ],
          "internalType": "struct IEthereumZDAO.ZDAOInfo",
          "name": "",
          "type": "tuple"
        }
      ],
      "stateMutability": "view",
      "type": "function"
    },
    {
      "inputs": [],
      "name": "zDAOOwner",
      "outputs": [
        {
          "internalType": "address",
          "name": "",
          "type": "address"
        }
      ],
      "stateMutability": "view",
      "type": "function"
    }
  ],
  "bytecode": "0x60a06040523060805234801561001457600080fd5b5060805161379f61004560003960008181610b4501528181610bdb01528181610f330152610fc9015261379f6000f3fe6080604052600436106101e35760003560e01c8063715018a6116101025780639b644a2311610095578063d547741f11610064578063d547741f146105c1578063d8191e6c146105e1578063f2fde38b14610603578063f32e838f1461062357600080fd5b80639b644a231461054c578063a217fddf1461056c578063b77d71f514610581578063bfc42645146105a157600080fd5b80638d7af473116100d15780638d7af473146104b15780638da5cb5b146104c757806390bfeab3146104e557806391d148541461050657600080fd5b8063715018a61461043857806374cb034f1461044d57806374cb30411461046d5780637f6dda141461048457600080fd5b806336568abe1161017a5780634f1ef286116101495780634f1ef286146103d657806353350755146103e957806354fd4d50146104095780635c975abb1461042057600080fd5b806336568abe146103495780633659cfe6146103695780633e4f49e614610389578063472858b4146103b657600080fd5b80631f4f7d29116101b65780631f4f7d29146102ad578063248a9ca3146102db5780632f2ff15d1461030b578063359cbbc91461032b57600080fd5b8063013cf08b146101e857806301ffc9a714610228578063116b1a091461025857806316cbb96e1461028b575b600080fd5b3480156101f457600080fd5b50610208610203366004612ecc565b610639565b60405161021f9b9a99989796959493929190612f41565b60405180910390f35b34801561023457600080fd5b50610248610243366004612fb2565b61072c565b604051901515815260200161021f565b34801561026457600080fd5b50610193546001600160a01b03165b6040516001600160a01b03909116815260200161021f565b34801561029757600080fd5b506102ab6102a6366004613010565b6107c5565b005b3480156102b957600080fd5b506102cd6102c836600461304c565b6108b4565b60405190815260200161021f565b3480156102e757600080fd5b506102cd6102f6366004612ecc565b60009081526097602052604090206001015490565b34801561031757600080fd5b506102ab6103263660046130cf565b610a83565b34801561033757600080fd5b5061019c54610100900460ff16610248565b34801561035557600080fd5b506102ab6103643660046130cf565b610aae565b34801561037557600080fd5b506102ab6103843660046130fb565b610b3a565b34801561039557600080fd5b506103a96103a4366004612ecc565b610cd8565b60405161021f919061312c565b3480156103c257600080fd5b506102ab6103d1366004613154565b610ec1565b6102ab6103e436600461318c565b610f28565b3480156103f557600080fd5b506102ab61040436600461324e565b6110b3565b34801561041557600080fd5b506102cd6101915481565b34801561042c57600080fd5b5060fb5460ff16610248565b34801561044457600080fd5b506102ab611311565b34801561045957600080fd5b506102ab610468366004613278565b611377565b34801561047957600080fd5b506102cd61019d5481565b34801561049057600080fd5b506104a461049f3660046132aa565b611584565b60405161021f91906132cc565b3480156104bd57600080fd5b5061019d546102cd565b3480156104d357600080fd5b506033546001600160a01b0316610273565b3480156104f157600080fd5b506101a054610273906001600160a01b031681565b34801561051257600080fd5b506102486105213660046130cf565b60009182526097602090815260408084206001600160a01b0393909316845291905290205460ff1690565b34801561055857600080fd5b506102cd610567366004612ecc565b6117f6565b34801561057857600080fd5b506102cd600081565b34801561058d57600080fd5b506102ab61059c3660046133e0565b611818565b3480156105ad57600080fd5b506102ab6105bc36600461324e565b611a87565b3480156105cd57600080fd5b506102ab6105dc3660046130cf565b611c76565b3480156105ed57600080fd5b506105f6611c9c565b60405161021f9190613469565b34801561060f57600080fd5b506102ab61061e3660046130fb565b611dba565b34801561062f57600080fd5b506102cd61271081565b61019e60205260009081526040902080546001820154600283015460038401546004850154600586015460068701805496976001600160a01b039096169694959394929391926106889061352d565b80601f01602080910402602001604051908101604052809291908181526020018280546106b49061352d565b80156107015780601f106106d657610100808354040283529160200191610701565b820191906000526020600020905b8154815290600101906020018083116106e457829003601f168201915b50505050600783015460089093015491929160ff80821692506101008204811691620100009004168b565b60007fffffffff0000000000000000000000000000000000000000000000000000000082167f7965db0b0000000000000000000000000000000000000000000000000000000014806107bf57507f01ffc9a7000000000000000000000000000000000000000000000000000000007fffffffff000000000000000000000000000000000000000000000000000000008316145b92915050565b61019c54610100900460ff16156108235760405162461bcd60e51b815260206004820152601160248201527f416c72656164792064657374726f79656400000000000000000000000000000060448201526064015b60405180910390fd5b6101a0546001600160a01b0316331461086f5760405162461bcd60e51b815260206004820152600e60248201526d2737ba1030902d2220a7a1b432b360911b604482015260640161081a565b61019480546001600160a01b0394851673ffffffffffffffffffffffffffffffffffffffff199182161790915561019580549390941692169190911790915561019655565b6101a0546000906001600160a01b031633146109035760405162461bcd60e51b815260206004820152600e60248201526d2737ba1030902d2220a7a1b432b360911b604482015260640161081a565b61019c54610100900460ff161561095c5760405162461bcd60e51b815260206004820152601160248201527f416c72656164792064657374726f796564000000000000000000000000000000604482015260640161081a565b61019654610195546040517f70a082310000000000000000000000000000000000000000000000000000000081526001600160a01b03808816600483015287939216906370a0823190602401602060405180830381865afa1580156109c5573d6000803e3d6000fd5b505050506040513d601f19601f820116820180604052508101906109e99190613568565b1015610a375760405162461bcd60e51b815260206004820152601860248201527f4e6f7420612076616c696420746f6b656e20686f6c6465720000000000000000604482015260640161081a565b6000610a798686868080601f016020809104026020016040519081016040528093929190818152602001838380828437600092019190915250611e9992505050565b9695505050505050565b600082815260976020526040902060010154610a9f813361201a565b610aa9838361209a565b505050565b6001600160a01b0381163314610b2c5760405162461bcd60e51b815260206004820152602f60248201527f416363657373436f6e74726f6c3a2063616e206f6e6c792072656e6f756e636560448201527f20726f6c657320666f722073656c660000000000000000000000000000000000606482015260840161081a565b610b36828261213c565b5050565b306001600160a01b037f0000000000000000000000000000000000000000000000000000000000000000161415610bd95760405162461bcd60e51b815260206004820152602c60248201527f46756e6374696f6e206d7573742062652063616c6c6564207468726f7567682060448201527f64656c656761746563616c6c0000000000000000000000000000000000000000606482015260840161081a565b7f00000000000000000000000000000000000000000000000000000000000000006001600160a01b0316610c347f360894a13ba1a3210667c828492db98dca3e2076cc3735a920a3ca505d382bbc546001600160a01b031690565b6001600160a01b031614610cb05760405162461bcd60e51b815260206004820152602c60248201527f46756e6374696f6e206d7573742062652063616c6c6564207468726f7567682060448201527f6163746976652070726f78790000000000000000000000000000000000000000606482015260840161081a565b610cb9816121bf565b60408051600080825260208201909252610cd591839190612219565b50565b600081815261019e60205260408120600881015462010000900460ff1615610d035750600292915050565b6008810154610100900460ff1615610d1e5750600392915050565b600881015460ff16610d335750600092915050565b6101995460058201541080610d5d575061019a5460048201546003830154610d5b9190613597565b105b15610d6b5750600492915050565b61019c5460ff168015610d915750600081600401548260030154610d8f9190613597565b115b8015610dcf57506101985460048201546003830154610db09190613597565b6127108360030154610dc291906135af565b610dcc91906135ce565b10155b15610ddd5750600592915050565b61019554604080517f18160ddd00000000000000000000000000000000000000000000000000000000815290516000926001600160a01b0316916318160ddd9160048083019260209291908290030181865afa158015610e41573d6000803e3d6000fd5b505050506040513d601f19601f82011682018060405250810190610e659190613568565b61019c5490915060ff16158015610e7c5750600081115b8015610ea857506101985460038301548290610e9b90612710906135af565b610ea591906135ce565b10155b15610eb7575060059392505050565b5060049392505050565b6101a0546001600160a01b03163314610f0d5760405162461bcd60e51b815260206004820152600e60248201526d2737ba1030902d2220a7a1b432b360911b604482015260640161081a565b61019c80549115156101000261ff0019909216919091179055565b306001600160a01b037f0000000000000000000000000000000000000000000000000000000000000000161415610fc75760405162461bcd60e51b815260206004820152602c60248201527f46756e6374696f6e206d7573742062652063616c6c6564207468726f7567682060448201527f64656c656761746563616c6c0000000000000000000000000000000000000000606482015260840161081a565b7f00000000000000000000000000000000000000000000000000000000000000006001600160a01b03166110227f360894a13ba1a3210667c828492db98dca3e2076cc3735a920a3ca505d382bbc546001600160a01b031690565b6001600160a01b03161461109e5760405162461bcd60e51b815260206004820152602c60248201527f46756e6374696f6e206d7573742062652063616c6c6564207468726f7567682060448201527f6163746976652070726f78790000000000000000000000000000000000000000606482015260840161081a565b6110a7826121bf565b610b3682826001612219565b6101a0546001600160a01b031633146110ff5760405162461bcd60e51b815260206004820152600e60248201526d2737ba1030902d2220a7a1b432b360911b604482015260640161081a565b61019c54610100900460ff16156111585760405162461bcd60e51b815260206004820152601160248201527f416c72656164792064657374726f796564000000000000000000000000000000604482015260640161081a565b8060008111801561116c575061019d548111155b6111b85760405162461bcd60e51b815260206004820152600c60248201527f496e76616c6964207a44414f0000000000000000000000000000000000000000604482015260640161081a565b600082815261019e60205260409020600101546001600160a01b038481169116146112255760405162461bcd60e51b815260206004820152601660248201527f4e6f7420612070726f706f73616c2063726561746f7200000000000000000000604482015260640161081a565b604051631f27a4f360e11b8152600481018390526000903090633e4f49e690602401602060405180830381865afa158015611264573d6000803e3d6000fd5b505050506040513d601f19601f8201168201806040525081019061128891906135f0565b9050600081600581111561129e5761129e613116565b146112eb5760405162461bcd60e51b815260206004820152601660248201527f4e6f7420612070656e64696e672070726f706f73616c00000000000000000000604482015260640161081a565b5050600090815261019e60205260409020600801805462ff000019166201000017905550565b6033546001600160a01b0316331461136b5760405162461bcd60e51b815260206004820181905260248201527f4f776e61626c653a2063616c6c6572206973206e6f7420746865206f776e6572604482015260640161081a565b61137560006123dd565b565b6101a0546001600160a01b031633146113c35760405162461bcd60e51b815260206004820152600e60248201526d2737ba1030902d2220a7a1b432b360911b604482015260640161081a565b836000811180156113d7575061019d548111155b6114235760405162461bcd60e51b815260206004820152600c60248201527f496e76616c6964207a44414f0000000000000000000000000000000000000000604482015260640161081a565b600085815261019e60205260409020600881015460ff16156114875760405162461bcd60e51b815260206004820152601b60248201527f416c72656164792063616c63756c617465642070726f706f73616c0000000000604482015260640161081a565b604051631f27a4f360e11b8152600481018790526000903090633e4f49e690602401602060405180830381865afa1580156114c6573d6000803e3d6000fd5b505050506040513d601f19601f820116820180604052508101906114ea91906135f0565b9050600081600581111561150057611500613116565b1461154d5760405162461bcd60e51b815260206004820152601660248201527f4e6f7420612070656e64696e672070726f706f73616c00000000000000000000604482015260640161081a565b506005810194909455506003830191909155600490910155600090815261019e60205260409020600801805460ff19166001179055565b61019d546060908290611598908590613611565b8111156115b1578361019d546115ae9190613611565b90505b8067ffffffffffffffff8111156115ca576115ca613176565b60405190808252806020026020018201604052801561166757816020015b6116546040518061016001604052806000815260200160006001600160a01b031681526020016000815260200160008152602001600081526020016000815260200160608152602001600081526020016000151581526020016000151581526020016000151581525090565b8152602001906001900390816115e85790505b50915060005b818110156117ee5761019e60006116848388613597565b61168f906001613597565b815260208082019290925260409081016000208151610160810183528154815260018201546001600160a01b0316938101939093526002810154918301919091526003810154606083015260048101546080830152600581015460a083015260068101805460c0840191906117039061352d565b80601f016020809104026020016040519081016040528092919081815260200182805461172f9061352d565b801561177c5780601f106117515761010080835404028352916020019161177c565b820191906000526020600020905b81548152906001019060200180831161175f57829003601f168201915b50505091835250506007820154602082015260089091015460ff8082161515604084015261010082048116151560608401526201000090910416151560809091015283518490839081106117d2576117d2613628565b6020026020010181905250806117e79061363e565b905061166d565b505092915050565b61019f818154811061180757600080fd5b600091825260209091200154905081565b600054610100900460ff166118335760005460ff1615611837565b303b155b6118a95760405162461bcd60e51b815260206004820152602e60248201527f496e697469616c697a61626c653a20636f6e747261637420697320616c72656160448201527f647920696e697469616c697a6564000000000000000000000000000000000000606482015260840161081a565b600054610100900460ff161580156118cb576000805461ffff19166101011790555b6118d361243c565b856101a060006101000a8154816001600160a01b0302191690836001600160a01b03160217905550604051806101800160405280868152602001846001600160a01b03168152602001856001600160a01b0316815260200183600001602081019061193e91906130fb565b6001600160a01b03168152602001836020013581526020018360400135815260200183606001358152602001836080013581526020018360a0013581526020014381526020018360c00160208101906119979190613154565b151581526000602091820152815161019255810151610193805473ffffffffffffffffffffffffffffffffffffffff199081166001600160a01b039384161790915560408301516101948054831691841691909117905560608301516101958054909216921691909117905560808101516101965560a08101516101975560c08101516101985560e0810151610199556101008082015161019a5561012082015161019b5561014082015161019c80546101609094015161ffff1990941691151561ff001916919091179215159091029190911790558015611a7f576000805461ff00191690555b505050505050565b6101a0546001600160a01b03163314611ad35760405162461bcd60e51b815260206004820152600e60248201526d2737ba1030902d2220a7a1b432b360911b604482015260640161081a565b61019c54610100900460ff1615611b2c5760405162461bcd60e51b815260206004820152601160248201527f416c72656164792064657374726f796564000000000000000000000000000000604482015260640161081a565b80600081118015611b40575061019d548111155b611b8c5760405162461bcd60e51b815260206004820152600c60248201527f496e76616c6964207a44414f0000000000000000000000000000000000000000604482015260640161081a565b604051631f27a4f360e11b8152600481018390526000903090633e4f49e690602401602060405180830381865afa158015611bcb573d6000803e3d6000fd5b505050506040513d601f19601f82011682018060405250810190611bef91906135f0565b90506005816005811115611c0557611c05613116565b14611c525760405162461bcd60e51b815260206004820152601860248201527f4e6f742061207375636365656465642070726f706f73616c0000000000000000604482015260640161081a565b5050600090815261019e60205260409020600801805461ff00191661010017905550565b600082815260976020526040902060010154611c92813361201a565b610aa9838361213c565b611d1f6040518061018001604052806000815260200160006001600160a01b0316815260200160006001600160a01b0316815260200160006001600160a01b031681526020016000815260200160008152602001600081526020016000815260200160008152602001600081526020016000151581526020016000151581525090565b506040805161018081018252610192548152610193546001600160a01b039081166020830152610194548116928201929092526101955490911660608201526101965460808201526101975460a08201526101985460c08201526101995460e082015261019a546101008083019190915261019b5461012083015261019c5460ff808216151561014085015291900416151561016082015290565b6033546001600160a01b03163314611e145760405162461bcd60e51b815260206004820181905260248201527f4f776e61626c653a2063616c6c6572206973206e6f7420746865206f776e6572604482015260640161081a565b6001600160a01b038116611e905760405162461bcd60e51b815260206004820152602660248201527f4f776e61626c653a206e6577206f776e657220697320746865207a65726f206160448201527f6464726573730000000000000000000000000000000000000000000000000000606482015260840161081a565b610cd5816123dd565b61019d805460009182611eab8361363e565b9091555050604080516101608101825261019d548082526001600160a01b038681166020808501918252428587019081526000606087018181526080880182815260a0890183815260c08a018d81524360e08c01526101008b018590526101208b018590526101408b0185905298845261019e86529990922088518155945160018601805473ffffffffffffffffffffffffffffffffffffffff191691909716179095559051600284015592516003830155915160048201559351600585015590518051929392611f829260068501920190612e33565b5060e0820151600782015561010080830151600890920180546101208501516101409095015161ffff1990911693151561ff001916939093179315159091029290921762ff000019166201000091151591909102179055505061019d5461019f80546001810182556000919091527f393a60fc9175593e1a78e765b331de118c5f3515197c300f7c46d515f7ce93cf01819055919050565b60008281526097602090815260408083206001600160a01b038516845290915290205460ff16610b3657612058816001600160a01b03166014612513565b612063836020612513565b604051602001612074929190613659565b60408051601f198184030181529082905262461bcd60e51b825261081a916004016136da565b60008281526097602090815260408083206001600160a01b038516845290915290205460ff16610b365760008281526097602090815260408083206001600160a01b03851684529091529020805460ff191660011790556120f83390565b6001600160a01b0316816001600160a01b0316837f2f8788117e7eff1d82e926ec794901d17c78024a50270940304540a733656f0d60405160405180910390a45050565b60008281526097602090815260408083206001600160a01b038516845290915290205460ff1615610b365760008281526097602090815260408083206001600160a01b0385168085529252808320805460ff1916905551339285917ff6391f5c32d9c69d2a47ea670b442974b53935d1edc7fd64eb21e047a839171b9190a45050565b6033546001600160a01b03163314610cd55760405162461bcd60e51b815260206004820181905260248201527f4f776e61626c653a2063616c6c6572206973206e6f7420746865206f776e6572604482015260640161081a565b600061224c7f360894a13ba1a3210667c828492db98dca3e2076cc3735a920a3ca505d382bbc546001600160a01b031690565b905061225784612743565b6000835111806122645750815b15612275576122738484612805565b505b7f4910fdfa16fed3260ed0e7147f7cc6da11a60208b5b9406d12a635614ffd9143805460ff166123d657805460ff191660011781556040516001600160a01b038316602482015261232290869060440160408051601f198184030181529190526020810180517bffffffffffffffffffffffffffffffffffffffffffffffffffffffff167f3659cfe600000000000000000000000000000000000000000000000000000000179052612805565b50805460ff191681557f360894a13ba1a3210667c828492db98dca3e2076cc3735a920a3ca505d382bbc546001600160a01b038381169116146123cd5760405162461bcd60e51b815260206004820152602f60248201527f45524331393637557067726164653a207570677261646520627265616b73206660448201527f7572746865722075706772616465730000000000000000000000000000000000606482015260840161081a565b6123d685612907565b5050505050565b603380546001600160a01b0383811673ffffffffffffffffffffffffffffffffffffffff19831681179093556040519116919082907f8be0079c531659141344cd1fd0a4f28419497f9722a3daafe3b4186f6b6457e090600090a35050565b600054610100900460ff166124a75760405162461bcd60e51b815260206004820152602b60248201527f496e697469616c697a61626c653a20636f6e7472616374206973206e6f74206960448201526a6e697469616c697a696e6760a81b606482015260840161081a565b6124af612947565b6124b76129c2565b6124bf612a45565b6124c7612ab8565b6124cf612b33565b6001610191819055604080518082019091528181527f7600000000000000000000000000000000000000000000000000000000000000602082015261137591612b9e565b606060006125228360026135af565b61252d906002613597565b67ffffffffffffffff81111561254557612545613176565b6040519080825280601f01601f19166020018201604052801561256f576020820181803683370190505b5090507f3000000000000000000000000000000000000000000000000000000000000000816000815181106125a6576125a6613628565b60200101907effffffffffffffffffffffffffffffffffffffffffffffffffffffffffffff1916908160001a9053507f78000000000000000000000000000000000000000000000000000000000000008160018151811061260957612609613628565b60200101907effffffffffffffffffffffffffffffffffffffffffffffffffffffffffffff1916908160001a90535060006126458460026135af565b612650906001613597565b90505b60018111156126ed577f303132333435363738396162636465660000000000000000000000000000000085600f166010811061269157612691613628565b1a60f81b8282815181106126a7576126a7613628565b60200101907effffffffffffffffffffffffffffffffffffffffffffffffffffffffffffff1916908160001a90535060049490941c936126e6816136ed565b9050612653565b50831561273c5760405162461bcd60e51b815260206004820181905260248201527f537472696e67733a20686578206c656e67746820696e73756666696369656e74604482015260640161081a565b9392505050565b803b6127b75760405162461bcd60e51b815260206004820152602d60248201527f455243313936373a206e657720696d706c656d656e746174696f6e206973206e60448201527f6f74206120636f6e747261637400000000000000000000000000000000000000606482015260840161081a565b7f360894a13ba1a3210667c828492db98dca3e2076cc3735a920a3ca505d382bbc805473ffffffffffffffffffffffffffffffffffffffff19166001600160a01b0392909216919091179055565b6060823b61287b5760405162461bcd60e51b815260206004820152602660248201527f416464726573733a2064656c65676174652063616c6c20746f206e6f6e2d636f60448201527f6e74726163740000000000000000000000000000000000000000000000000000606482015260840161081a565b600080846001600160a01b0316846040516128969190613704565b600060405180830381855af49150503d80600081146128d1576040519150601f19603f3d011682016040523d82523d6000602084013e6128d6565b606091505b50915091506128fe828260405180606001604052806027815260200161374360279139612c11565b95945050505050565b61291081612743565b6040516001600160a01b038216907fbc7cd75a20ee27fd9adebab32041f755214dbc6bffa90cc0225b39da2e5c2d3b90600090a250565b600054610100900460ff166129b25760405162461bcd60e51b815260206004820152602b60248201527f496e697469616c697a61626c653a20636f6e7472616374206973206e6f74206960448201526a6e697469616c697a696e6760a81b606482015260840161081a565b6129ba612c4a565b611375612cb5565b600054610100900460ff16612a2d5760405162461bcd60e51b815260206004820152602b60248201527f496e697469616c697a61626c653a20636f6e7472616374206973206e6f74206960448201526a6e697469616c697a696e6760a81b606482015260840161081a565b612a35612c4a565b612a3d612c4a565b611375612c4a565b600054610100900460ff16612ab05760405162461bcd60e51b815260206004820152602b60248201527f496e697469616c697a61626c653a20636f6e7472616374206973206e6f74206960448201526a6e697469616c697a696e6760a81b606482015260840161081a565b611375612d29565b600054610100900460ff16612b235760405162461bcd60e51b815260206004820152602b60248201527f496e697469616c697a61626c653a20636f6e7472616374206973206e6f74206960448201526a6e697469616c697a696e6760a81b606482015260840161081a565b612b2b612c4a565b611375612d9b565b600054610100900460ff16612a355760405162461bcd60e51b815260206004820152602b60248201527f496e697469616c697a61626c653a20636f6e7472616374206973206e6f74206960448201526a6e697469616c697a696e6760a81b606482015260840161081a565b610b368282604051602401612bb4929190613720565b60408051601f198184030181529190526020810180517bffffffffffffffffffffffffffffffffffffffffffffffffffffffff167f9710a9d000000000000000000000000000000000000000000000000000000000179052612e12565b60608315612c2057508161273c565b825115612c305782518084602001fd5b8160405162461bcd60e51b815260040161081a91906136da565b600054610100900460ff166113755760405162461bcd60e51b815260206004820152602b60248201527f496e697469616c697a61626c653a20636f6e7472616374206973206e6f74206960448201526a6e697469616c697a696e6760a81b606482015260840161081a565b600054610100900460ff16612d205760405162461bcd60e51b815260206004820152602b60248201527f496e697469616c697a61626c653a20636f6e7472616374206973206e6f74206960448201526a6e697469616c697a696e6760a81b606482015260840161081a565b611375336123dd565b600054610100900460ff16612d945760405162461bcd60e51b815260206004820152602b60248201527f496e697469616c697a61626c653a20636f6e7472616374206973206e6f74206960448201526a6e697469616c697a696e6760a81b606482015260840161081a565b600160c955565b600054610100900460ff16612e065760405162461bcd60e51b815260206004820152602b60248201527f496e697469616c697a61626c653a20636f6e7472616374206973206e6f74206960448201526a6e697469616c697a696e6760a81b606482015260840161081a565b60fb805460ff19169055565b80516a636f6e736f6c652e6c6f67602083016000808483855afa5050505050565b828054612e3f9061352d565b90600052602060002090601f016020900481019282612e615760008555612ea7565b82601f10612e7a57805160ff1916838001178555612ea7565b82800160010185558215612ea7579182015b82811115612ea7578251825591602001919060010190612e8c565b50612eb3929150612eb7565b5090565b5b80821115612eb35760008155600101612eb8565b600060208284031215612ede57600080fd5b5035919050565b60005b83811015612f00578181015183820152602001612ee8565b83811115612f0f576000848401525b50505050565b60008151808452612f2d816020860160208601612ee5565b601f01601f19169290920160200192915050565b60006101608d83526001600160a01b038d1660208401528b60408401528a60608401528960808401528860a08401528060c0840152612f8281840189612f15565b60e08401979097525050921515610100840152901515610120830152151561014090910152979650505050505050565b600060208284031215612fc457600080fd5b81357fffffffff000000000000000000000000000000000000000000000000000000008116811461273c57600080fd5b80356001600160a01b038116811461300b57600080fd5b919050565b60008060006060848603121561302557600080fd5b61302e84612ff4565b925061303c60208501612ff4565b9150604084013590509250925092565b60008060006040848603121561306157600080fd5b61306a84612ff4565b9250602084013567ffffffffffffffff8082111561308757600080fd5b818601915086601f83011261309b57600080fd5b8135818111156130aa57600080fd5b8760208285010111156130bc57600080fd5b6020830194508093505050509250925092565b600080604083850312156130e257600080fd5b823591506130f260208401612ff4565b90509250929050565b60006020828403121561310d57600080fd5b61273c82612ff4565b634e487b7160e01b600052602160045260246000fd5b602081016006831061314e57634e487b7160e01b600052602160045260246000fd5b91905290565b60006020828403121561316657600080fd5b8135801515811461273c57600080fd5b634e487b7160e01b600052604160045260246000fd5b6000806040838503121561319f57600080fd5b6131a883612ff4565b9150602083013567ffffffffffffffff808211156131c557600080fd5b818501915085601f8301126131d957600080fd5b8135818111156131eb576131eb613176565b604051601f8201601f19908116603f0116810190838211818310171561321357613213613176565b8160405282815288602084870101111561322c57600080fd5b8260208601602083013760006020848301015280955050505050509250929050565b6000806040838503121561326157600080fd5b61326a83612ff4565b946020939093013593505050565b6000806000806080858703121561328e57600080fd5b5050823594602084013594506040840135936060013592509050565b600080604083850312156132bd57600080fd5b50508035926020909101359150565b60006020808301818452808551808352604092508286019150828160051b87010184880160005b838110156133d2577fffffffffffffffffffffffffffffffffffffffffffffffffffffffffffffffc0898403018552815161016081518552888201516133438a8701826001600160a01b03169052565b508188015185890152606080830151908601526080808301519086015260a0808301519086015260c08083015181870183905261338283880182612f15565b9250505060e0808301518187015250610100808301516133a58288018215159052565b505061012082810151151590860152610140918201511515919094015293860193908601906001016132f3565b509098975050505050505050565b60008060008060008587036101608112156133fa57600080fd5b61340387612ff4565b95506020870135945061341860408801612ff4565b935061342660608801612ff4565b925060e07fffffffffffffffffffffffffffffffffffffffffffffffffffffffffffffff808201121561345857600080fd5b506080860190509295509295909350565b8151815260208083015161018083019161348d908401826001600160a01b03169052565b5060408301516134a860408401826001600160a01b03169052565b5060608301516134c360608401826001600160a01b03169052565b506080830151608083015260a083015160a083015260c083015160c083015260e083015160e0830152610100808401518184015250610120808401518184015250610140808401516135188285018215159052565b505061016083810151801515848301526117ee565b600181811c9082168061354157607f821691505b6020821081141561356257634e487b7160e01b600052602260045260246000fd5b50919050565b60006020828403121561357a57600080fd5b5051919050565b634e487b7160e01b600052601160045260246000fd5b600082198211156135aa576135aa613581565b500190565b60008160001904831182151516156135c9576135c9613581565b500290565b6000826135eb57634e487b7160e01b600052601260045260246000fd5b500490565b60006020828403121561360257600080fd5b81516006811061273c57600080fd5b60008282101561362357613623613581565b500390565b634e487b7160e01b600052603260045260246000fd5b600060001982141561365257613652613581565b5060010190565b7f416363657373436f6e74726f6c3a206163636f756e7420000000000000000000815260008351613691816017850160208801612ee5565b7f206973206d697373696e6720726f6c652000000000000000000000000000000060179184019182015283516136ce816028840160208801612ee5565b01602801949350505050565b60208152600061273c6020830184612f15565b6000816136fc576136fc613581565b506000190190565b60008251613716818460208701612ee5565b9190910192915050565b6040815260006137336040830185612f15565b9050826020830152939250505056fe416464726573733a206c6f772d6c6576656c2064656c65676174652063616c6c206661696c6564a26469706673582212209bd4e52ef9411f9ed5d5a644929915f7d673d9f018131f45caa57a909b667c8b64736f6c634300080b0033",
  "linkReferences": {},
  "deployedLinkReferences": {}
}