{
  "_format": "hh-sol-artifact-1",
  "contractName": "FxStateEthereumTunnel",
  "sourceName": "contracts/polygon/ethereum/FxStateEthereumTunnel.sol",
  "abi": [
    {
      "anonymous": false,
      "inputs": [
        {
          "indexed": false,
          "internalType": "address",
          "name": "previousAdmin",
          "type": "address"
        },
        {
          "indexed": false,
          "internalType": "address",
          "name": "newAdmin",
          "type": "address"
        }
      ],
      "name": "AdminChanged",
      "type": "event"
    },
    {
      "anonymous": false,
      "inputs": [
        {
          "indexed": true,
          "internalType": "address",
          "name": "beacon",
          "type": "address"
        }
      ],
      "name": "BeaconUpgraded",
      "type": "event"
    },
    {
      "anonymous": false,
      "inputs": [
        {
          "indexed": true,
          "internalType": "address",
          "name": "previousOwner",
          "type": "address"
        },
        {
          "indexed": true,
          "internalType": "address",
          "name": "newOwner",
          "type": "address"
        }
      ],
      "name": "OwnershipTransferred",
      "type": "event"
    },
    {
      "anonymous": false,
      "inputs": [
        {
          "indexed": false,
          "internalType": "address",
          "name": "account",
          "type": "address"
        }
      ],
      "name": "Paused",
      "type": "event"
    },
    {
      "anonymous": false,
      "inputs": [
        {
          "indexed": true,
          "internalType": "bytes32",
          "name": "role",
          "type": "bytes32"
        },
        {
          "indexed": true,
          "internalType": "bytes32",
          "name": "previousAdminRole",
          "type": "bytes32"
        },
        {
          "indexed": true,
          "internalType": "bytes32",
          "name": "newAdminRole",
          "type": "bytes32"
        }
      ],
      "name": "RoleAdminChanged",
      "type": "event"
    },
    {
      "anonymous": false,
      "inputs": [
        {
          "indexed": true,
          "internalType": "bytes32",
          "name": "role",
          "type": "bytes32"
        },
        {
          "indexed": true,
          "internalType": "address",
          "name": "account",
          "type": "address"
        },
        {
          "indexed": true,
          "internalType": "address",
          "name": "sender",
          "type": "address"
        }
      ],
      "name": "RoleGranted",
      "type": "event"
    },
    {
      "anonymous": false,
      "inputs": [
        {
          "indexed": true,
          "internalType": "bytes32",
          "name": "role",
          "type": "bytes32"
        },
        {
          "indexed": true,
          "internalType": "address",
          "name": "account",
          "type": "address"
        },
        {
          "indexed": true,
          "internalType": "address",
          "name": "sender",
          "type": "address"
        }
      ],
      "name": "RoleRevoked",
      "type": "event"
    },
    {
      "anonymous": false,
      "inputs": [
        {
          "indexed": false,
          "internalType": "address",
          "name": "account",
          "type": "address"
        }
      ],
      "name": "Unpaused",
      "type": "event"
    },
    {
      "anonymous": false,
      "inputs": [
        {
          "indexed": true,
          "internalType": "address",
          "name": "implementation",
          "type": "address"
        }
      ],
      "name": "Upgraded",
      "type": "event"
    },
    {
      "inputs": [],
      "name": "DEFAULT_ADMIN_ROLE",
      "outputs": [
        {
          "internalType": "bytes32",
          "name": "",
          "type": "bytes32"
        }
      ],
      "stateMutability": "view",
      "type": "function"
    },
    {
      "inputs": [],
      "name": "SEND_MESSAGE_EVENT_SIG",
      "outputs": [
        {
          "internalType": "bytes32",
          "name": "",
          "type": "bytes32"
        }
      ],
      "stateMutability": "view",
      "type": "function"
    },
    {
      "inputs": [
        {
          "internalType": "address",
          "name": "_checkpointManager",
          "type": "address"
        },
        {
          "internalType": "address",
          "name": "_fxEthereum",
          "type": "address"
        }
      ],
      "name": "__FxStateEthereumTunnel_init",
      "outputs": [],
      "stateMutability": "nonpayable",
      "type": "function"
    },
    {
      "inputs": [],
      "name": "checkpointManager",
      "outputs": [
        {
          "internalType": "contract ICheckpointManager",
          "name": "",
          "type": "address"
        }
      ],
      "stateMutability": "view",
      "type": "function"
    },
    {
      "inputs": [],
      "name": "ethereumStateReceiver",
      "outputs": [
        {
          "internalType": "contract IEthereumStateReceiver",
          "name": "",
          "type": "address"
        }
      ],
      "stateMutability": "view",
      "type": "function"
    },
    {
      "inputs": [],
      "name": "fxChildTunnel",
      "outputs": [
        {
          "internalType": "address",
          "name": "",
          "type": "address"
        }
      ],
      "stateMutability": "view",
      "type": "function"
    },
    {
      "inputs": [],
      "name": "fxRoot",
      "outputs": [
        {
          "internalType": "contract IFxStateSender",
          "name": "",
          "type": "address"
        }
      ],
      "stateMutability": "view",
      "type": "function"
    },
    {
      "inputs": [
        {
          "internalType": "bytes32",
          "name": "role",
          "type": "bytes32"
        }
      ],
      "name": "getRoleAdmin",
      "outputs": [
        {
          "internalType": "bytes32",
          "name": "",
          "type": "bytes32"
        }
      ],
      "stateMutability": "view",
      "type": "function"
    },
    {
      "inputs": [
        {
          "internalType": "bytes32",
          "name": "role",
          "type": "bytes32"
        },
        {
          "internalType": "address",
          "name": "account",
          "type": "address"
        }
      ],
      "name": "grantRole",
      "outputs": [],
      "stateMutability": "nonpayable",
      "type": "function"
    },
    {
      "inputs": [
        {
          "internalType": "bytes32",
          "name": "role",
          "type": "bytes32"
        },
        {
          "internalType": "address",
          "name": "account",
          "type": "address"
        }
      ],
      "name": "hasRole",
      "outputs": [
        {
          "internalType": "bool",
          "name": "",
          "type": "bool"
        }
      ],
      "stateMutability": "view",
      "type": "function"
    },
    {
      "inputs": [],
      "name": "owner",
      "outputs": [
        {
          "internalType": "address",
          "name": "",
          "type": "address"
        }
      ],
      "stateMutability": "view",
      "type": "function"
    },
    {
      "inputs": [],
      "name": "paused",
      "outputs": [
        {
          "internalType": "bool",
          "name": "",
          "type": "bool"
        }
      ],
      "stateMutability": "view",
      "type": "function"
    },
    {
      "inputs": [
        {
          "internalType": "bytes32",
          "name": "",
          "type": "bytes32"
        }
      ],
      "name": "processedExits",
      "outputs": [
        {
          "internalType": "bool",
          "name": "",
          "type": "bool"
        }
      ],
      "stateMutability": "view",
      "type": "function"
    },
    {
      "inputs": [
        {
          "internalType": "bytes",
          "name": "inputData",
          "type": "bytes"
        }
      ],
      "name": "receiveMessage",
      "outputs": [],
      "stateMutability": "nonpayable",
      "type": "function"
    },
    {
      "inputs": [],
      "name": "renounceOwnership",
      "outputs": [],
      "stateMutability": "nonpayable",
      "type": "function"
    },
    {
      "inputs": [
        {
          "internalType": "bytes32",
          "name": "role",
          "type": "bytes32"
        },
        {
          "internalType": "address",
          "name": "account",
          "type": "address"
        }
      ],
      "name": "renounceRole",
      "outputs": [],
      "stateMutability": "nonpayable",
      "type": "function"
    },
    {
      "inputs": [
        {
          "internalType": "bytes32",
          "name": "role",
          "type": "bytes32"
        },
        {
          "internalType": "address",
          "name": "account",
          "type": "address"
        }
      ],
      "name": "revokeRole",
      "outputs": [],
      "stateMutability": "nonpayable",
      "type": "function"
    },
    {
      "inputs": [
        {
          "internalType": "bytes",
          "name": "message",
          "type": "bytes"
        }
      ],
      "name": "sendMessageToChild",
      "outputs": [],
      "stateMutability": "nonpayable",
      "type": "function"
    },
    {
      "inputs": [
        {
          "internalType": "contract IEthereumStateReceiver",
          "name": "_ethereumStateReceiver",
          "type": "address"
        }
      ],
      "name": "setEthereumStateReceiver",
      "outputs": [],
      "stateMutability": "nonpayable",
      "type": "function"
    },
    {
      "inputs": [
        {
          "internalType": "address",
          "name": "_fxChildTunnel",
          "type": "address"
        }
      ],
      "name": "setFxChildTunnel",
      "outputs": [],
      "stateMutability": "nonpayable",
      "type": "function"
    },
    {
      "inputs": [
        {
          "internalType": "bytes4",
          "name": "interfaceId",
          "type": "bytes4"
        }
      ],
      "name": "supportsInterface",
      "outputs": [
        {
          "internalType": "bool",
          "name": "",
          "type": "bool"
        }
      ],
      "stateMutability": "view",
      "type": "function"
    },
    {
      "inputs": [
        {
          "internalType": "address",
          "name": "newOwner",
          "type": "address"
        }
      ],
      "name": "transferOwnership",
      "outputs": [],
      "stateMutability": "nonpayable",
      "type": "function"
    },
    {
      "inputs": [
        {
          "internalType": "address",
          "name": "newImplementation",
          "type": "address"
        }
      ],
      "name": "upgradeTo",
      "outputs": [],
      "stateMutability": "nonpayable",
      "type": "function"
    },
    {
      "inputs": [
        {
          "internalType": "address",
          "name": "newImplementation",
          "type": "address"
        },
        {
          "internalType": "bytes",
          "name": "data",
          "type": "bytes"
        }
      ],
      "name": "upgradeToAndCall",
      "outputs": [],
      "stateMutability": "payable",
      "type": "function"
    },
    {
      "inputs": [],
      "name": "version",
      "outputs": [
        {
          "internalType": "uint256",
          "name": "",
          "type": "uint256"
        }
      ],
      "stateMutability": "view",
      "type": "function"
    }
  ],
  "bytecode": "0x60a06040523060805234801561001457600080fd5b5060805161390e6100456000396000818161068101528181610717015281816108b9015261094f015261390e6000f3fe6080604052600436106101965760003560e01c8063715018a6116100e1578063aea4e49e1161008a578063d547741f11610064578063d547741f146104a0578063de9b771f146104c0578063f2fde38b146104e1578063f953cec71461050157600080fd5b8063aea4e49e1461043f578063c0857ba01461045f578063c253c41d1461048057600080fd5b8063972c4928116100bb578063972c4928146103e9578063a217fddf1461040a578063aa8ca0841461041f57600080fd5b8063715018a6146103705780638da5cb5b1461038557806391d14854146103a357600080fd5b80634c09e6e8116101435780635c975abb1161011d5780635c975abb146102ee578063607f2d42146103065780636516a6a41461033757600080fd5b80634c09e6e8146102a45780634f1ef286146102c457806354fd4d50146102d757600080fd5b80632f2ff15d116101745780632f2ff15d1461024257806336568abe146102645780633659cfe61461028457600080fd5b806301ffc9a71461019b5780630e387de6146101d0578063248a9ca314610212575b600080fd5b3480156101a757600080fd5b506101bb6101b63660046131b3565b610521565b60405190151581526020015b60405180910390f35b3480156101dc57600080fd5b506102047f8c5261668696ce22758910d05bab8f186d6eb247ceac2af2e82c7dc17669b03681565b6040519081526020016101c7565b34801561021e57600080fd5b5061020461022d3660046131f5565b60009081526097602052604090206001015490565b34801561024e57600080fd5b5061026261025d366004613223565b6105ba565b005b34801561027057600080fd5b5061026261027f366004613223565b6105e5565b34801561029057600080fd5b5061026261029f366004613253565b610676565b3480156102b057600080fd5b506102626102bf366004613270565b610814565b6102626102d23660046133a7565b6108ae565b3480156102e357600080fd5b506102046101915481565b3480156102fa57600080fd5b5060fb5460ff166101bb565b34801561031257600080fd5b506101bb6103213660046131f5565b6101956020526000908152604090205460ff1681565b34801561034357600080fd5b5061019654610358906001600160a01b031681565b6040516001600160a01b0390911681526020016101c7565b34801561037c57600080fd5b50610262610a39565b34801561039157600080fd5b506033546001600160a01b0316610358565b3480156103af57600080fd5b506101bb6103be366004613223565b60009182526097602090815260408084206001600160a01b0393909316845291905290205460ff1690565b3480156103f557600080fd5b5061019454610358906001600160a01b031681565b34801561041657600080fd5b50610204600081565b34801561042b57600080fd5b5061026261043a366004613253565b610a9f565b34801561044b57600080fd5b5061026261045a366004613253565b610b29565b34801561046b57600080fd5b5061019354610358906001600160a01b031681565b34801561048c57600080fd5b5061026261049b3660046133f7565b610bb3565b3480156104ac57600080fd5b506102626104bb366004613223565b610cfd565b3480156104cc57600080fd5b5061019254610358906001600160a01b031681565b3480156104ed57600080fd5b506102626104fc366004613253565b610d23565b34801561050d57600080fd5b5061026261051c366004613425565b610e02565b60007fffffffff0000000000000000000000000000000000000000000000000000000082167f7965db0b0000000000000000000000000000000000000000000000000000000014806105b457507f01ffc9a7000000000000000000000000000000000000000000000000000000007fffffffff000000000000000000000000000000000000000000000000000000008316145b92915050565b6000828152609760205260409020600101546105d68133610e18565b6105e08383610e98565b505050565b6001600160a01b03811633146106685760405162461bcd60e51b815260206004820152602f60248201527f416363657373436f6e74726f6c3a2063616e206f6e6c792072656e6f756e636560448201527f20726f6c657320666f722073656c66000000000000000000000000000000000060648201526084015b60405180910390fd5b6106728282610f3a565b5050565b306001600160a01b037f00000000000000000000000000000000000000000000000000000000000000001614156107155760405162461bcd60e51b815260206004820152602c60248201527f46756e6374696f6e206d7573742062652063616c6c6564207468726f7567682060448201527f64656c656761746563616c6c0000000000000000000000000000000000000000606482015260840161065f565b7f00000000000000000000000000000000000000000000000000000000000000006001600160a01b03166107707f360894a13ba1a3210667c828492db98dca3e2076cc3735a920a3ca505d382bbc546001600160a01b031690565b6001600160a01b0316146107ec5760405162461bcd60e51b815260206004820152602c60248201527f46756e6374696f6e206d7573742062652063616c6c6564207468726f7567682060448201527f6163746976652070726f78790000000000000000000000000000000000000000606482015260840161065f565b6107f581610fbd565b6040805160008082526020820190925261081191839190611017565b50565b610196546001600160a01b0316331461086f5760405162461bcd60e51b815260206004820152601760248201527f4f6e6c7920666f72207374617465207265636569766572000000000000000000604482015260640161065f565b61067282828080601f0160208091040260200160405190810160405280939291908181526020018383808284376000920191909152506111db92505050565b306001600160a01b037f000000000000000000000000000000000000000000000000000000000000000016141561094d5760405162461bcd60e51b815260206004820152602c60248201527f46756e6374696f6e206d7573742062652063616c6c6564207468726f7567682060448201527f64656c656761746563616c6c0000000000000000000000000000000000000000606482015260840161065f565b7f00000000000000000000000000000000000000000000000000000000000000006001600160a01b03166109a87f360894a13ba1a3210667c828492db98dca3e2076cc3735a920a3ca505d382bbc546001600160a01b031690565b6001600160a01b031614610a245760405162461bcd60e51b815260206004820152602c60248201527f46756e6374696f6e206d7573742062652063616c6c6564207468726f7567682060448201527f6163746976652070726f78790000000000000000000000000000000000000000606482015260840161065f565b610a2d82610fbd565b61067282826001611017565b6033546001600160a01b03163314610a935760405162461bcd60e51b815260206004820181905260248201527f4f776e61626c653a2063616c6c6572206973206e6f7420746865206f776e6572604482015260640161065f565b610a9d600061125a565b565b6033546001600160a01b03163314610af95760405162461bcd60e51b815260206004820181905260248201527f4f776e61626c653a2063616c6c6572206973206e6f7420746865206f776e6572604482015260640161065f565b610196805473ffffffffffffffffffffffffffffffffffffffff19166001600160a01b0392909216919091179055565b6033546001600160a01b03163314610b835760405162461bcd60e51b815260206004820181905260248201527f4f776e61626c653a2063616c6c6572206973206e6f7420746865206f776e6572604482015260640161065f565b610194805473ffffffffffffffffffffffffffffffffffffffff19166001600160a01b0392909216919091179055565b600054610100900460ff16610bce5760005460ff1615610bd2565b303b155b610c445760405162461bcd60e51b815260206004820152602e60248201527f496e697469616c697a61626c653a20636f6e747261637420697320616c72656160448201527f647920696e697469616c697a6564000000000000000000000000000000000000606482015260840161065f565b600054610100900460ff16158015610c8357600080547fffffffffffffffffffffffffffffffffffffffffffffffffffffffffffff0000166101011790555b610c8b6112b9565b61019380546001600160a01b0380861673ffffffffffffffffffffffffffffffffffffffff199283161790925561019280549285169290911691909117905580156105e057600080547fffffffffffffffffffffffffffffffffffffffffffffffffffffffffffff00ff169055505050565b600082815260976020526040902060010154610d198133610e18565b6105e08383610f3a565b6033546001600160a01b03163314610d7d5760405162461bcd60e51b815260206004820181905260248201527f4f776e61626c653a2063616c6c6572206973206e6f7420746865206f776e6572604482015260640161065f565b6001600160a01b038116610df95760405162461bcd60e51b815260206004820152602660248201527f4f776e61626c653a206e6577206f776e657220697320746865207a65726f206160448201527f6464726573730000000000000000000000000000000000000000000000000000606482015260840161065f565b6108118161125a565b6000610e0d82611354565b905061067281611688565b60008281526097602090815260408083206001600160a01b038516845290915290205460ff1661067257610e56816001600160a01b031660146116e4565b610e618360206116e4565b604051602001610e7292919061348a565b60408051601f198184030181529082905262461bcd60e51b825261065f91600401613537565b60008281526097602090815260408083206001600160a01b038516845290915290205460ff166106725760008281526097602090815260408083206001600160a01b03851684529091529020805460ff19166001179055610ef63390565b6001600160a01b0316816001600160a01b0316837f2f8788117e7eff1d82e926ec794901d17c78024a50270940304540a733656f0d60405160405180910390a45050565b60008281526097602090815260408083206001600160a01b038516845290915290205460ff16156106725760008281526097602090815260408083206001600160a01b0385168085529252808320805460ff1916905551339285917ff6391f5c32d9c69d2a47ea670b442974b53935d1edc7fd64eb21e047a839171b9190a45050565b6033546001600160a01b031633146108115760405162461bcd60e51b815260206004820181905260248201527f4f776e61626c653a2063616c6c6572206973206e6f7420746865206f776e6572604482015260640161065f565b600061104a7f360894a13ba1a3210667c828492db98dca3e2076cc3735a920a3ca505d382bbc546001600160a01b031690565b9050611055846118cc565b6000835111806110625750815b1561107357611071848461198e565b505b7f4910fdfa16fed3260ed0e7147f7cc6da11a60208b5b9406d12a635614ffd9143805460ff166111d457805460ff191660011781556040516001600160a01b038316602482015261112090869060440160408051601f198184030181529190526020810180517bffffffffffffffffffffffffffffffffffffffffffffffffffffffff167f3659cfe60000000000000000000000000000000000000000000000000000000017905261198e565b50805460ff191681557f360894a13ba1a3210667c828492db98dca3e2076cc3735a920a3ca505d382bbc546001600160a01b038381169116146111cb5760405162461bcd60e51b815260206004820152602f60248201527f45524331393637557067726164653a207570677261646520627265616b73206660448201527f7572746865722075706772616465730000000000000000000000000000000000606482015260840161065f565b6111d485611a90565b5050505050565b61019254610194546040517fb47204770000000000000000000000000000000000000000000000000000000081526001600160a01b039283169263b47204779261122c92911690859060040161354a565b600060405180830381600087803b15801561124657600080fd5b505af11580156111d4573d6000803e3d6000fd5b603380546001600160a01b0383811673ffffffffffffffffffffffffffffffffffffffff19831681179093556040519116919082907f8be0079c531659141344cd1fd0a4f28419497f9722a3daafe3b4186f6b6457e090600090a35050565b600054610100900460ff166113245760405162461bcd60e51b815260206004820152602b60248201527f496e697469616c697a61626c653a20636f6e7472616374206973206e6f74206960448201526a6e697469616c697a696e6760a81b606482015260840161065f565b61132c611ad0565b611334611b4b565b61133c611bce565b611344611c41565b61134c611cbc565b600161019155565b6060600061136183611d27565b9050600061136e82611d86565b9050600061137b83611daf565b905060008161138984611dd8565b61139286611f96565b6040516020016113a49392919061356c565b60408051601f198184030181529181528151602092830120600081815261019590935291205490915060ff16156114425760405162461bcd60e51b8152602060048201526024808201527f4678526f6f7454756e6e656c3a20455849545f414c52454144595f50524f434560448201527f5353454400000000000000000000000000000000000000000000000000000000606482015260840161065f565b600081815261019560205260408120805460ff1916600117905561146585611fb2565b90506000611472826120fc565b905061147d8161218c565b610194546001600160a01b039081169116146115015760405162461bcd60e51b815260206004820152602560248201527f4678526f6f7454756e6e656c3a20494e56414c49445f46585f4348494c445f5460448201527f554e4e454c000000000000000000000000000000000000000000000000000000606482015260840161065f565b600061150c876121b5565b905061152c61151c846020015190565b876115268a6121d1565b846121ed565b61159e5760405162461bcd60e51b815260206004820152602360248201527f4678526f6f7454756e6e656c3a20494e56414c49445f524543454950545f505260448201527f4f4f460000000000000000000000000000000000000000000000000000000000606482015260840161065f565b6115cc856115ab896124a4565b6115b48a6124c0565b846115be8c6124dc565b6115c78d6124f8565b612514565b5060006115d883612654565b90507f8c5261668696ce22758910d05bab8f186d6eb247ceac2af2e82c7dc17669b03661160e611609836000612690565b6126c8565b1461165b5760405162461bcd60e51b815260206004820152601f60248201527f4678526f6f7454756e6e656c3a20494e56414c49445f5349474e415455524500604482015260640161065f565b600061166684612743565b8060200190518101906116799190613599565b9b9a5050505050505050505050565b610196546001600160a01b03161561081157610196546040517f10123b2e0000000000000000000000000000000000000000000000000000000081526001600160a01b03909116906310123b2e9061122c908490600401613537565b606060006116f383600261361d565b6116fe90600261363c565b67ffffffffffffffff811115611716576117166132e2565b6040519080825280601f01601f191660200182016040528015611740576020820181803683370190505b5090507f30000000000000000000000000000000000000000000000000000000000000008160008151811061177757611777613654565b60200101906001600160f81b031916908160001a9053507f7800000000000000000000000000000000000000000000000000000000000000816001815181106117c2576117c2613654565b60200101906001600160f81b031916908160001a90535060006117e684600261361d565b6117f190600161363c565b90505b6001811115611876577f303132333435363738396162636465660000000000000000000000000000000085600f166010811061183257611832613654565b1a60f81b82828151811061184857611848613654565b60200101906001600160f81b031916908160001a90535060049490941c9361186f8161366a565b90506117f4565b5083156118c55760405162461bcd60e51b815260206004820181905260248201527f537472696e67733a20686578206c656e67746820696e73756666696369656e74604482015260640161065f565b9392505050565b803b6119405760405162461bcd60e51b815260206004820152602d60248201527f455243313936373a206e657720696d706c656d656e746174696f6e206973206e60448201527f6f74206120636f6e747261637400000000000000000000000000000000000000606482015260840161065f565b7f360894a13ba1a3210667c828492db98dca3e2076cc3735a920a3ca505d382bbc805473ffffffffffffffffffffffffffffffffffffffff19166001600160a01b0392909216919091179055565b6060823b611a045760405162461bcd60e51b815260206004820152602660248201527f416464726573733a2064656c65676174652063616c6c20746f206e6f6e2d636f60448201527f6e74726163740000000000000000000000000000000000000000000000000000606482015260840161065f565b600080846001600160a01b031684604051611a1f9190613681565b600060405180830381855af49150503d8060008114611a5a576040519150601f19603f3d011682016040523d82523d6000602084013e611a5f565b606091505b5091509150611a8782826040518060600160405280602781526020016138b26027913961275f565b95945050505050565b611a99816118cc565b6040516001600160a01b038216907fbc7cd75a20ee27fd9adebab32041f755214dbc6bffa90cc0225b39da2e5c2d3b90600090a250565b600054610100900460ff16611b3b5760405162461bcd60e51b815260206004820152602b60248201527f496e697469616c697a61626c653a20636f6e7472616374206973206e6f74206960448201526a6e697469616c697a696e6760a81b606482015260840161065f565b611b43612798565b610a9d612803565b600054610100900460ff16611bb65760405162461bcd60e51b815260206004820152602b60248201527f496e697469616c697a61626c653a20636f6e7472616374206973206e6f74206960448201526a6e697469616c697a696e6760a81b606482015260840161065f565b611bbe612798565b611bc6612798565b610a9d612798565b600054610100900460ff16611c395760405162461bcd60e51b815260206004820152602b60248201527f496e697469616c697a61626c653a20636f6e7472616374206973206e6f74206960448201526a6e697469616c697a696e6760a81b606482015260840161065f565b610a9d612877565b600054610100900460ff16611cac5760405162461bcd60e51b815260206004820152602b60248201527f496e697469616c697a61626c653a20636f6e7472616374206973206e6f74206960448201526a6e697469616c697a696e6760a81b606482015260840161065f565b611cb4612798565b610a9d6128e9565b600054610100900460ff16611bbe5760405162461bcd60e51b815260206004820152602b60248201527f496e697469616c697a61626c653a20636f6e7472616374206973206e6f74206960448201526a6e697469616c697a696e6760a81b606482015260840161065f565b6040805160208101909152606081526000611d71611d6c8460408051808201825260008082526020918201528151808301909252825182529182019181019190915290565b612960565b60408051602081019091529081529392505050565b60606105b48260000151600881518110611da257611da2613654565b6020026020010151612a76565b60006105b48260000151600281518110611dcb57611dcb613654565b60200260200101516126c8565b604080516020810190915260008152815160609190156105b457600080611e00600086612b13565b60f81c90506001811480611e1757508060ff166003145b15611ebf57600185516002611e2c919061361d565b611e36919061369d565b67ffffffffffffffff811115611e4e57611e4e6132e2565b6040519080825280601f01601f191660200182016040528015611e78576020820181803683370190505b5092506000611e88600187612b13565b90508084600081518110611e9e57611e9e613654565b60200101906001600160f81b031916908160001a9053506001925050611f23565b600285516002611ecf919061361d565b611ed9919061369d565b67ffffffffffffffff811115611ef157611ef16132e2565b6040519080825280601f01601f191660200182016040528015611f1b576020820181803683370190505b509250600091505b60ff82165b8351811015611f8d57611f52611f4160ff85168361369d565b611f4c90600261363c565b87612b13565b848281518110611f6457611f64613654565b60200101906001600160f81b031916908160001a90535080611f85816136b4565b915050611f28565b50505092915050565b60006105b48260000151600981518110611dcb57611dcb613654565b611fd660405180606001604052806060815260200160608152602001600081525090565b611ff08260000151600681518110611da257611da2613654565b60208281018290526040805180820182526000808252908301528051808201909152825181529181019082015261202681612b94565b1561203b5761203481612960565b82526120e8565b602082015180516000906120519060019061369d565b67ffffffffffffffff811115612069576120696132e2565b6040519080825280601f01601f191660200182016040528015612093576020820181803683370190505b5090506000808360210191508260200190506120b182828551612bcd565b6040805180820182526000808252602091820152815180830190925284518252808501908201526120e190612960565b8652505050505b6120f183611f96565b604083015250919050565b60408051608081018252600091810182815260608083019390935281526020810191909152600061214a836000015160038151811061213d5761213d613654565b6020026020010151612960565b83604001518151811061215f5761215f613654565b60200260200101519050604051806040016040528082815260200161218383612960565b90529392505050565b60006105b482602001516000815181106121a8576121a8613654565b6020026020010151612c48565b60006105b48260000151600581518110611dcb57611dcb613654565b60606105b48260000151600781518110611da257611da2613654565b6000806122218460408051808201825260008082526020918201528151808301909252825182529182019181019190915290565b9050600061222e82612960565b9050606080856000806122408b611dd8565b905080516000141561225c57600097505050505050505061249c565b60005b86518110156124935781518311156122825760009850505050505050505061249c565b6122a487828151811061229757612297613654565b6020026020010151612c62565b9550858051906020012084146122c55760009850505050505050505061249c565b6122da87828151811061213d5761213d613654565b94508451601114156123af57815183141561233c578c8051906020012061230d86601081518110611da257611da2613654565b80519060200120141561232b5760019850505050505050505061249c565b60009850505050505050505061249c565b600082848151811061235057612350613654565b016020015160f81c90506010811115612375576000995050505050505050505061249c565b61239a868260ff168151811061238d5761238d613654565b6020026020010151612ce2565b94506123a760018561363c565b935050612481565b84516002141561232b5760006123db6123d487600081518110611da257611da2613654565b8486612d10565b83519091506123ea828661363c565b141561243f578d8051906020012061240e87600181518110611da257611da2613654565b80519060200120141561242d576001995050505050505050505061249c565b6000995050505050505050505061249c565b80612456576000995050505050505050505061249c565b612460818561363c565b93506124788660018151811061238d5761238d613654565b94506124819050565b8061248b816136b4565b91505061225f565b50505050505050505b949350505050565b60006105b48260000151600381518110611dcb57611dcb613654565b60006105b48260000151600481518110611dcb57611dcb613654565b60006105b48260000151600081518110611dcb57611dcb613654565b60606105b48260000151600181518110611da257611da2613654565b610193546040517f41539d4a000000000000000000000000000000000000000000000000000000008152600481018490526000918291829182916001600160a01b03909116906341539d4a9060240160a060405180830381865afa158015612580573d6000803e3d6000fd5b505050506040513d601f19601f820116820180604052508101906125a491906136cf565b50935050925092506125fb828b6125bb919061369d565b6040805160208082018f90528183018e9052606082018d905260808083018d90528351808403909101815260a09092019092528051910120908588612e31565b6126475760405162461bcd60e51b815260206004820152601c60248201527f4678526f6f7454756e6e656c3a20494e56414c49445f48454144455200000000604482015260640161065f565b9998505050505050505050565b6040805160208101909152606081526040518060200160405280612688846020015160018151811061213d5761213d613654565b905292915050565b604080518082019091526000808252602082015282518051839081106126b8576126b8613654565b6020026020010151905092915050565b8051600090158015906126dd57508151602110155b6126e657600080fd5b60006126f58360200151612fa7565b90506000818460000151612709919061369d565b905060008083866020015161271e919061363c565b905080519150602083101561273a57826020036101000a820491505b50949350505050565b60606105b48260200151600281518110611da257611da2613654565b6060831561276e5750816118c5565b82511561277e5782518084602001fd5b8160405162461bcd60e51b815260040161065f9190613537565b600054610100900460ff16610a9d5760405162461bcd60e51b815260206004820152602b60248201527f496e697469616c697a61626c653a20636f6e7472616374206973206e6f74206960448201526a6e697469616c697a696e6760a81b606482015260840161065f565b600054610100900460ff1661286e5760405162461bcd60e51b815260206004820152602b60248201527f496e697469616c697a61626c653a20636f6e7472616374206973206e6f74206960448201526a6e697469616c697a696e6760a81b606482015260840161065f565b610a9d3361125a565b600054610100900460ff166128e25760405162461bcd60e51b815260206004820152602b60248201527f496e697469616c697a61626c653a20636f6e7472616374206973206e6f74206960448201526a6e697469616c697a696e6760a81b606482015260840161065f565b600160c955565b600054610100900460ff166129545760405162461bcd60e51b815260206004820152602b60248201527f496e697469616c697a61626c653a20636f6e7472616374206973206e6f74206960448201526a6e697469616c697a696e6760a81b606482015260840161065f565b60fb805460ff19169055565b606061296b82612b94565b61297457600080fd5b600061297f83613022565b905060008167ffffffffffffffff81111561299c5761299c6132e2565b6040519080825280602002602001820160405280156129e157816020015b60408051808201909152600080825260208201528152602001906001900390816129ba5790505b50905060006129f38560200151612fa7565b8560200151612a02919061363c565b90506000805b84811015612a6b57612a19836130a5565b9150604051806040016040528083815260200184815250848281518110612a4257612a42613654565b6020908102919091010152612a57828461363c565b925080612a63816136b4565b915050612a08565b509195945050505050565b8051606090612a8457600080fd5b6000612a938360200151612fa7565b90506000818460000151612aa7919061369d565b905060008167ffffffffffffffff811115612ac457612ac46132e2565b6040519080825280601f01601f191660200182016040528015612aee576020820181803683370190505b509050600081602001905061273a848760200151612b0c919061363c565b8285613167565b6000612b20600284613732565b15612b5a57601082612b33600286613746565b81518110612b4357612b43613654565b0160200151612b55919060f81c61375a565b612b8a565b601082612b68600286613746565b81518110612b7857612b78613654565b0160200151612b8a919060f81c61377c565b60f81b9392505050565b8051600090612ba557506000919050565b6020820151805160001a9060c0821015612bc3575060009392505050565b5060019392505050565b80612bd757505050565b60208110612c0f5782518252612bee60208461363c565b9250612bfb60208361363c565b9150612c0860208261369d565b9050612bd7565b60006001612c1e83602061369d565b612c2a90610100613882565b612c34919061369d565b935183518516941916939093179091525050565b8051600090601514612c5957600080fd5b6105b4826126c8565b60606000826000015167ffffffffffffffff811115612c8357612c836132e2565b6040519080825280601f01601f191660200182016040528015612cad576020820181803683370190505b509050805160001415612cc05792915050565b6000816020019050612cdb8460200151828660000151613167565b5092915050565b8051600090602114612cf357600080fd5b60008083602001516001612d07919061363c565b51949350505050565b60008080612d1d86611dd8565b90506000815167ffffffffffffffff811115612d3b57612d3b6132e2565b6040519080825280601f01601f191660200182016040528015612d65576020820181803683370190505b509050845b8251612d76908761363c565b811015612e01576000878281518110612d9157612d91613654565b01602001517fff000000000000000000000000000000000000000000000000000000000000001690508083612dc6898561369d565b81518110612dd657612dd6613654565b60200101906001600160f81b031916908160001a905350508080612df9906136b4565b915050612d6a565b50808051906020012082805190602001201415612e215781519250612e26565b600092505b509095945050505050565b600060208251612e419190613732565b15612e8e5760405162461bcd60e51b815260206004820152601460248201527f496e76616c69642070726f6f66206c656e677468000000000000000000000000604482015260640161065f565b600060208351612e9e9190613746565b9050612eab816002613882565b8510612ef95760405162461bcd60e51b815260206004820152601560248201527f4c65616620696e64657820697320746f6f206269670000000000000000000000604482015260640161065f565b60008660205b85518111612f9957858101519250612f18600289613732565b612f4d576040805160208101849052908101849052606001604051602081830303815290604052805190602001209150612f7a565b60408051602081018590529081018390526060016040516020818303038152906040528051906020012091505b612f85600289613746565b9750612f9260208261363c565b9050612eff565b509094149695505050505050565b8051600090811a6080811015612fc05750600092915050565b60b8811080612fdb575060c08110801590612fdb575060f881105b15612fe95750600192915050565b60c081101561301657612ffe600160b861388e565b61300b9060ff168261369d565b6118c590600161363c565b612ffe600160f861388e565b805160009061303357506000919050565b6000806130438460200151612fa7565b8460200151613052919061363c565b905060008460000151856020015161306a919061363c565b90505b8082101561309c5761307e826130a5565b613088908361363c565b915082613094816136b4565b93505061306d565b50909392505050565b80516000908190811a60808110156130c05760019150612cdb565b60b88110156130e6576130d460808261369d565b6130df90600161363c565b9150612cdb565b60c08110156131135760b78103600185019450806020036101000a85510460018201810193505050612cdb565b60f8811015613127576130d460c08261369d565b60019390930151602084900360f7016101000a90049092017fffffffffffffffffffffffffffffffffffffffffffffffffffffffffffffff0a0192915050565b8061317157505050565b602081106131a9578251825261318860208461363c565b925061319560208361363c565b91506131a260208261369d565b9050613171565b80612c0f57505050565b6000602082840312156131c557600080fd5b81357fffffffff00000000000000000000000000000000000000000000000000000000811681146118c557600080fd5b60006020828403121561320757600080fd5b5035919050565b6001600160a01b038116811461081157600080fd5b6000806040838503121561323657600080fd5b8235915060208301356132488161320e565b809150509250929050565b60006020828403121561326557600080fd5b81356118c58161320e565b6000806020838503121561328357600080fd5b823567ffffffffffffffff8082111561329b57600080fd5b818501915085601f8301126132af57600080fd5b8135818111156132be57600080fd5b8660208285010111156132d057600080fd5b60209290920196919550909350505050565b634e487b7160e01b600052604160045260246000fd5b604051601f8201601f1916810167ffffffffffffffff81118282101715613321576133216132e2565b604052919050565b600067ffffffffffffffff821115613343576133436132e2565b50601f01601f191660200190565b600082601f83011261336257600080fd5b813561337561337082613329565b6132f8565b81815284602083860101111561338a57600080fd5b816020850160208301376000918101602001919091529392505050565b600080604083850312156133ba57600080fd5b82356133c58161320e565b9150602083013567ffffffffffffffff8111156133e157600080fd5b6133ed85828601613351565b9150509250929050565b6000806040838503121561340a57600080fd5b82356134158161320e565b915060208301356132488161320e565b60006020828403121561343757600080fd5b813567ffffffffffffffff81111561344e57600080fd5b61249c84828501613351565b60005b8381101561347557818101518382015260200161345d565b83811115613484576000848401525b50505050565b7f416363657373436f6e74726f6c3a206163636f756e74200000000000000000008152600083516134c281601785016020880161345a565b7f206973206d697373696e6720726f6c652000000000000000000000000000000060179184019182015283516134ff81602884016020880161345a565b01602801949350505050565b6000815180845261352381602086016020860161345a565b601f01601f19169290920160200192915050565b6020815260006118c5602083018461350b565b6001600160a01b038316815260406020820152600061249c604083018461350b565b8381526000835161358481602085016020880161345a565b60209201918201929092526040019392505050565b6000602082840312156135ab57600080fd5b815167ffffffffffffffff8111156135c257600080fd5b8201601f810184136135d357600080fd5b80516135e161337082613329565b8181528560208385010111156135f657600080fd5b611a8782602083016020860161345a565b634e487b7160e01b600052601160045260246000fd5b600081600019048311821515161561363757613637613607565b500290565b6000821982111561364f5761364f613607565b500190565b634e487b7160e01b600052603260045260246000fd5b60008161367957613679613607565b506000190190565b6000825161369381846020870161345a565b9190910192915050565b6000828210156136af576136af613607565b500390565b60006000198214156136c8576136c8613607565b5060010190565b600080600080600060a086880312156136e757600080fd5b85519450602086015193506040860151925060608601519150608086015161370e8161320e565b809150509295509295909350565b634e487b7160e01b600052601260045260246000fd5b6000826137415761374161371c565b500690565b6000826137555761375561371c565b500490565b600060ff83168061376d5761376d61371c565b8060ff84160691505092915050565b600060ff83168061378f5761378f61371c565b8060ff84160491505092915050565b600181815b808511156137d95781600019048211156137bf576137bf613607565b808516156137cc57918102915b93841c93908002906137a3565b509250929050565b6000826137f0575060016105b4565b816137fd575060006105b4565b8160018114613813576002811461381d57613839565b60019150506105b4565b60ff84111561382e5761382e613607565b50506001821b6105b4565b5060208310610133831016604e8410600b841016171561385c575081810a6105b4565b613866838361379e565b806000190482111561387a5761387a613607565b029392505050565b60006118c583836137e1565b600060ff821660ff8416808210156138a8576138a8613607565b9003939250505056fe416464726573733a206c6f772d6c6576656c2064656c65676174652063616c6c206661696c6564a2646970667358221220290f220a20c80ac3b20a4bf6ca444aef0de892c4833a09a7b61140875be34e9a64736f6c634300080b0033",
  "linkReferences": {},
  "deployedLinkReferences": {}
}