{
  "_format": "hh-sol-artifact-1",
  "contractName": "FxStateRootTunnel",
  "sourceName": "contracts/polygon/root/FxStateRootTunnel.sol",
  "abi": [
    {
      "anonymous": false,
      "inputs": [
        {
          "indexed": false,
          "internalType": "address",
          "name": "previousAdmin",
          "type": "address"
        },
        {
          "indexed": false,
          "internalType": "address",
          "name": "newAdmin",
          "type": "address"
        }
      ],
      "name": "AdminChanged",
      "type": "event"
    },
    {
      "anonymous": false,
      "inputs": [
        {
          "indexed": true,
          "internalType": "address",
          "name": "beacon",
          "type": "address"
        }
      ],
      "name": "BeaconUpgraded",
      "type": "event"
    },
    {
      "anonymous": false,
      "inputs": [
        {
          "indexed": true,
          "internalType": "address",
          "name": "previousOwner",
          "type": "address"
        },
        {
          "indexed": true,
          "internalType": "address",
          "name": "newOwner",
          "type": "address"
        }
      ],
      "name": "OwnershipTransferred",
      "type": "event"
    },
    {
      "anonymous": false,
      "inputs": [
        {
          "indexed": false,
          "internalType": "address",
          "name": "account",
          "type": "address"
        }
      ],
      "name": "Paused",
      "type": "event"
    },
    {
      "anonymous": false,
      "inputs": [
        {
          "indexed": true,
          "internalType": "bytes32",
          "name": "role",
          "type": "bytes32"
        },
        {
          "indexed": true,
          "internalType": "bytes32",
          "name": "previousAdminRole",
          "type": "bytes32"
        },
        {
          "indexed": true,
          "internalType": "bytes32",
          "name": "newAdminRole",
          "type": "bytes32"
        }
      ],
      "name": "RoleAdminChanged",
      "type": "event"
    },
    {
      "anonymous": false,
      "inputs": [
        {
          "indexed": true,
          "internalType": "bytes32",
          "name": "role",
          "type": "bytes32"
        },
        {
          "indexed": true,
          "internalType": "address",
          "name": "account",
          "type": "address"
        },
        {
          "indexed": true,
          "internalType": "address",
          "name": "sender",
          "type": "address"
        }
      ],
      "name": "RoleGranted",
      "type": "event"
    },
    {
      "anonymous": false,
      "inputs": [
        {
          "indexed": true,
          "internalType": "bytes32",
          "name": "role",
          "type": "bytes32"
        },
        {
          "indexed": true,
          "internalType": "address",
          "name": "account",
          "type": "address"
        },
        {
          "indexed": true,
          "internalType": "address",
          "name": "sender",
          "type": "address"
        }
      ],
      "name": "RoleRevoked",
      "type": "event"
    },
    {
      "anonymous": false,
      "inputs": [
        {
          "indexed": false,
          "internalType": "address",
          "name": "account",
          "type": "address"
        }
      ],
      "name": "Unpaused",
      "type": "event"
    },
    {
      "anonymous": false,
      "inputs": [
        {
          "indexed": true,
          "internalType": "address",
          "name": "implementation",
          "type": "address"
        }
      ],
      "name": "Upgraded",
      "type": "event"
    },
    {
      "inputs": [],
      "name": "DEFAULT_ADMIN_ROLE",
      "outputs": [
        {
          "internalType": "bytes32",
          "name": "",
          "type": "bytes32"
        }
      ],
      "stateMutability": "view",
      "type": "function"
    },
    {
      "inputs": [],
      "name": "SEND_MESSAGE_EVENT_SIG",
      "outputs": [
        {
          "internalType": "bytes32",
          "name": "",
          "type": "bytes32"
        }
      ],
      "stateMutability": "view",
      "type": "function"
    },
    {
      "inputs": [
        {
          "internalType": "address",
          "name": "_checkpointManager",
          "type": "address"
        },
        {
          "internalType": "address",
          "name": "_fxRoot",
          "type": "address"
        }
      ],
      "name": "__FxStateRootTunnel_init",
      "outputs": [],
      "stateMutability": "nonpayable",
      "type": "function"
    },
    {
      "inputs": [],
      "name": "checkpointManager",
      "outputs": [
        {
          "internalType": "contract ICheckpointManager",
          "name": "",
          "type": "address"
        }
      ],
      "stateMutability": "view",
      "type": "function"
    },
    {
      "inputs": [],
      "name": "fxChildTunnel",
      "outputs": [
        {
          "internalType": "address",
          "name": "",
          "type": "address"
        }
      ],
      "stateMutability": "view",
      "type": "function"
    },
    {
      "inputs": [],
      "name": "fxRoot",
      "outputs": [
        {
          "internalType": "contract IFxStateSender",
          "name": "",
          "type": "address"
        }
      ],
      "stateMutability": "view",
      "type": "function"
    },
    {
      "inputs": [
        {
          "internalType": "bytes32",
          "name": "role",
          "type": "bytes32"
        }
      ],
      "name": "getRoleAdmin",
      "outputs": [
        {
          "internalType": "bytes32",
          "name": "",
          "type": "bytes32"
        }
      ],
      "stateMutability": "view",
      "type": "function"
    },
    {
      "inputs": [
        {
          "internalType": "bytes32",
          "name": "role",
          "type": "bytes32"
        },
        {
          "internalType": "address",
          "name": "account",
          "type": "address"
        }
      ],
      "name": "grantRole",
      "outputs": [],
      "stateMutability": "nonpayable",
      "type": "function"
    },
    {
      "inputs": [
        {
          "internalType": "bytes32",
          "name": "role",
          "type": "bytes32"
        },
        {
          "internalType": "address",
          "name": "account",
          "type": "address"
        }
      ],
      "name": "hasRole",
      "outputs": [
        {
          "internalType": "bool",
          "name": "",
          "type": "bool"
        }
      ],
      "stateMutability": "view",
      "type": "function"
    },
    {
      "inputs": [],
      "name": "owner",
      "outputs": [
        {
          "internalType": "address",
          "name": "",
          "type": "address"
        }
      ],
      "stateMutability": "view",
      "type": "function"
    },
    {
      "inputs": [],
      "name": "paused",
      "outputs": [
        {
          "internalType": "bool",
          "name": "",
          "type": "bool"
        }
      ],
      "stateMutability": "view",
      "type": "function"
    },
    {
      "inputs": [
        {
          "internalType": "bytes32",
          "name": "",
          "type": "bytes32"
        }
      ],
      "name": "processedExits",
      "outputs": [
        {
          "internalType": "bool",
          "name": "",
          "type": "bool"
        }
      ],
      "stateMutability": "view",
      "type": "function"
    },
    {
      "inputs": [
        {
          "internalType": "bytes",
          "name": "inputData",
          "type": "bytes"
        }
      ],
      "name": "receiveMessage",
      "outputs": [],
      "stateMutability": "nonpayable",
      "type": "function"
    },
    {
      "inputs": [],
      "name": "renounceOwnership",
      "outputs": [],
      "stateMutability": "nonpayable",
      "type": "function"
    },
    {
      "inputs": [
        {
          "internalType": "bytes32",
          "name": "role",
          "type": "bytes32"
        },
        {
          "internalType": "address",
          "name": "account",
          "type": "address"
        }
      ],
      "name": "renounceRole",
      "outputs": [],
      "stateMutability": "nonpayable",
      "type": "function"
    },
    {
      "inputs": [
        {
          "internalType": "bytes32",
          "name": "role",
          "type": "bytes32"
        },
        {
          "internalType": "address",
          "name": "account",
          "type": "address"
        }
      ],
      "name": "revokeRole",
      "outputs": [],
      "stateMutability": "nonpayable",
      "type": "function"
    },
    {
      "inputs": [],
      "name": "rootStateReceiver",
      "outputs": [
        {
          "internalType": "contract IRootStateReceiver",
          "name": "",
          "type": "address"
        }
      ],
      "stateMutability": "view",
      "type": "function"
    },
    {
      "inputs": [
        {
          "internalType": "bytes",
          "name": "message",
          "type": "bytes"
        }
      ],
      "name": "sendMessageToChild",
      "outputs": [],
      "stateMutability": "nonpayable",
      "type": "function"
    },
    {
      "inputs": [
        {
          "internalType": "address",
          "name": "_fxChildTunnel",
          "type": "address"
        }
      ],
      "name": "setFxChildTunnel",
      "outputs": [],
      "stateMutability": "nonpayable",
      "type": "function"
    },
    {
      "inputs": [
        {
          "internalType": "contract IRootStateReceiver",
          "name": "_rootStateReceiver",
          "type": "address"
        }
      ],
      "name": "setRootStateReceiver",
      "outputs": [],
      "stateMutability": "nonpayable",
      "type": "function"
    },
    {
      "inputs": [
        {
          "internalType": "bytes4",
          "name": "interfaceId",
          "type": "bytes4"
        }
      ],
      "name": "supportsInterface",
      "outputs": [
        {
          "internalType": "bool",
          "name": "",
          "type": "bool"
        }
      ],
      "stateMutability": "view",
      "type": "function"
    },
    {
      "inputs": [
        {
          "internalType": "address",
          "name": "newOwner",
          "type": "address"
        }
      ],
      "name": "transferOwnership",
      "outputs": [],
      "stateMutability": "nonpayable",
      "type": "function"
    },
    {
      "inputs": [
        {
          "internalType": "address",
          "name": "newImplementation",
          "type": "address"
        }
      ],
      "name": "upgradeTo",
      "outputs": [],
      "stateMutability": "nonpayable",
      "type": "function"
    },
    {
      "inputs": [
        {
          "internalType": "address",
          "name": "newImplementation",
          "type": "address"
        },
        {
          "internalType": "bytes",
          "name": "data",
          "type": "bytes"
        }
      ],
      "name": "upgradeToAndCall",
      "outputs": [],
      "stateMutability": "payable",
      "type": "function"
    },
    {
      "inputs": [],
      "name": "version",
      "outputs": [
        {
          "internalType": "uint256",
          "name": "",
          "type": "uint256"
        }
      ],
      "stateMutability": "view",
      "type": "function"
    }
  ],
  "bytecode": "0x60a06040523060805234801561001457600080fd5b506080516139fc6100456000396000818161067d01528181610713015281816108b5015261094b01526139fc6000f3fe6080604052600436106101965760003560e01c80638da5cb5b116100e1578063c0857ba01161008a578063de9b771f11610064578063de9b771f1461049c578063df8db3cc146104bd578063f2fde38b146104dd578063f953cec7146104fd57600080fd5b8063c0857ba01461043a578063d4f21eaa1461045b578063d547741f1461047c57600080fd5b8063a217fddf116100bb578063a217fddf146103e5578063accb2cc8146103fa578063aea4e49e1461041a57600080fd5b80638da5cb5b1461034c57806391d148541461037e578063972c4928146103c457600080fd5b80634c09e6e8116101435780635c975abb1161011d5780635c975abb146102ee578063607f2d4214610306578063715018a61461033757600080fd5b80634c09e6e8146102a45780634f1ef286146102c457806354fd4d50146102d757600080fd5b80632f2ff15d116101745780632f2ff15d1461024257806336568abe146102645780633659cfe61461028457600080fd5b806301ffc9a71461019b5780630e387de6146101d0578063248a9ca314610212575b600080fd5b3480156101a757600080fd5b506101bb6101b636600461327f565b61051d565b60405190151581526020015b60405180910390f35b3480156101dc57600080fd5b506102047f8c5261668696ce22758910d05bab8f186d6eb247ceac2af2e82c7dc17669b03681565b6040519081526020016101c7565b34801561021e57600080fd5b5061020461022d3660046132c1565b60009081526097602052604090206001015490565b34801561024e57600080fd5b5061026261025d3660046132ef565b6105b6565b005b34801561027057600080fd5b5061026261027f3660046132ef565b6105e1565b34801561029057600080fd5b5061026261029f36600461331f565b610672565b3480156102b057600080fd5b506102626102bf36600461333c565b610810565b6102626102d2366004613473565b6108aa565b3480156102e357600080fd5b506102046101915481565b3480156102fa57600080fd5b5060fb5460ff166101bb565b34801561031257600080fd5b506101bb6103213660046132c1565b6101956020526000908152604090205460ff1681565b34801561034357600080fd5b50610262610a35565b34801561035857600080fd5b506033546001600160a01b03165b6040516001600160a01b0390911681526020016101c7565b34801561038a57600080fd5b506101bb6103993660046132ef565b60009182526097602090815260408084206001600160a01b0393909316845291905290205460ff1690565b3480156103d057600080fd5b5061019454610366906001600160a01b031681565b3480156103f157600080fd5b50610204600081565b34801561040657600080fd5b5061026261041536600461331f565b610a9b565b34801561042657600080fd5b5061026261043536600461331f565b610b25565b34801561044657600080fd5b5061019354610366906001600160a01b031681565b34801561046757600080fd5b5061019654610366906001600160a01b031681565b34801561048857600080fd5b506102626104973660046132ef565b610baf565b3480156104a857600080fd5b5061019254610366906001600160a01b031681565b3480156104c957600080fd5b506102626104d83660046134c3565b610bd5565b3480156104e957600080fd5b506102626104f836600461331f565b610d1f565b34801561050957600080fd5b506102626105183660046134f1565b610dfe565b60007fffffffff0000000000000000000000000000000000000000000000000000000082167f7965db0b0000000000000000000000000000000000000000000000000000000014806105b057507f01ffc9a7000000000000000000000000000000000000000000000000000000007fffffffff000000000000000000000000000000000000000000000000000000008316145b92915050565b6000828152609760205260409020600101546105d28133610e14565b6105dc8383610e94565b505050565b6001600160a01b03811633146106645760405162461bcd60e51b815260206004820152602f60248201527f416363657373436f6e74726f6c3a2063616e206f6e6c792072656e6f756e636560448201527f20726f6c657320666f722073656c66000000000000000000000000000000000060648201526084015b60405180910390fd5b61066e8282610f36565b5050565b306001600160a01b037f00000000000000000000000000000000000000000000000000000000000000001614156107115760405162461bcd60e51b815260206004820152602c60248201527f46756e6374696f6e206d7573742062652063616c6c6564207468726f7567682060448201527f64656c656761746563616c6c0000000000000000000000000000000000000000606482015260840161065b565b7f00000000000000000000000000000000000000000000000000000000000000006001600160a01b031661076c7f360894a13ba1a3210667c828492db98dca3e2076cc3735a920a3ca505d382bbc546001600160a01b031690565b6001600160a01b0316146107e85760405162461bcd60e51b815260206004820152602c60248201527f46756e6374696f6e206d7573742062652063616c6c6564207468726f7567682060448201527f6163746976652070726f78790000000000000000000000000000000000000000606482015260840161065b565b6107f181610fb9565b6040805160008082526020820190925261080d91839190611013565b50565b610196546001600160a01b0316331461086b5760405162461bcd60e51b815260206004820152601760248201527f4f6e6c7920666f72207374617465207265636569766572000000000000000000604482015260640161065b565b61066e82828080601f0160208091040260200160405190810160405280939291908181526020018383808284376000920191909152506111d792505050565b306001600160a01b037f00000000000000000000000000000000000000000000000000000000000000001614156109495760405162461bcd60e51b815260206004820152602c60248201527f46756e6374696f6e206d7573742062652063616c6c6564207468726f7567682060448201527f64656c656761746563616c6c0000000000000000000000000000000000000000606482015260840161065b565b7f00000000000000000000000000000000000000000000000000000000000000006001600160a01b03166109a47f360894a13ba1a3210667c828492db98dca3e2076cc3735a920a3ca505d382bbc546001600160a01b031690565b6001600160a01b031614610a205760405162461bcd60e51b815260206004820152602c60248201527f46756e6374696f6e206d7573742062652063616c6c6564207468726f7567682060448201527f6163746976652070726f78790000000000000000000000000000000000000000606482015260840161065b565b610a2982610fb9565b61066e82826001611013565b6033546001600160a01b03163314610a8f5760405162461bcd60e51b815260206004820181905260248201527f4f776e61626c653a2063616c6c6572206973206e6f7420746865206f776e6572604482015260640161065b565b610a996000611256565b565b6033546001600160a01b03163314610af55760405162461bcd60e51b815260206004820181905260248201527f4f776e61626c653a2063616c6c6572206973206e6f7420746865206f776e6572604482015260640161065b565b610196805473ffffffffffffffffffffffffffffffffffffffff19166001600160a01b0392909216919091179055565b6033546001600160a01b03163314610b7f5760405162461bcd60e51b815260206004820181905260248201527f4f776e61626c653a2063616c6c6572206973206e6f7420746865206f776e6572604482015260640161065b565b610194805473ffffffffffffffffffffffffffffffffffffffff19166001600160a01b0392909216919091179055565b600082815260976020526040902060010154610bcb8133610e14565b6105dc8383610f36565b600054610100900460ff16610bf05760005460ff1615610bf4565b303b155b610c665760405162461bcd60e51b815260206004820152602e60248201527f496e697469616c697a61626c653a20636f6e747261637420697320616c72656160448201527f647920696e697469616c697a6564000000000000000000000000000000000000606482015260840161065b565b600054610100900460ff16158015610ca557600080547fffffffffffffffffffffffffffffffffffffffffffffffffffffffffffff0000166101011790555b610cad6112b5565b61019380546001600160a01b0380861673ffffffffffffffffffffffffffffffffffffffff199283161790925561019280549285169290911691909117905580156105dc57600080547fffffffffffffffffffffffffffffffffffffffffffffffffffffffffffff00ff169055505050565b6033546001600160a01b03163314610d795760405162461bcd60e51b815260206004820181905260248201527f4f776e61626c653a2063616c6c6572206973206e6f7420746865206f776e6572604482015260640161065b565b6001600160a01b038116610df55760405162461bcd60e51b815260206004820152602660248201527f4f776e61626c653a206e6577206f776e657220697320746865207a65726f206160448201527f6464726573730000000000000000000000000000000000000000000000000000606482015260840161065b565b61080d81611256565b6000610e098261138c565b905061066e816116c0565b60008281526097602090815260408083206001600160a01b038516845290915290205460ff1661066e57610e52816001600160a01b0316601461171c565b610e5d83602061171c565b604051602001610e6e929190613556565b60408051601f198184030181529082905262461bcd60e51b825261065b91600401613603565b60008281526097602090815260408083206001600160a01b038516845290915290205460ff1661066e5760008281526097602090815260408083206001600160a01b03851684529091529020805460ff19166001179055610ef23390565b6001600160a01b0316816001600160a01b0316837f2f8788117e7eff1d82e926ec794901d17c78024a50270940304540a733656f0d60405160405180910390a45050565b60008281526097602090815260408083206001600160a01b038516845290915290205460ff161561066e5760008281526097602090815260408083206001600160a01b0385168085529252808320805460ff1916905551339285917ff6391f5c32d9c69d2a47ea670b442974b53935d1edc7fd64eb21e047a839171b9190a45050565b6033546001600160a01b0316331461080d5760405162461bcd60e51b815260206004820181905260248201527f4f776e61626c653a2063616c6c6572206973206e6f7420746865206f776e6572604482015260640161065b565b60006110467f360894a13ba1a3210667c828492db98dca3e2076cc3735a920a3ca505d382bbc546001600160a01b031690565b905061105184611904565b60008351118061105e5750815b1561106f5761106d84846119c6565b505b7f4910fdfa16fed3260ed0e7147f7cc6da11a60208b5b9406d12a635614ffd9143805460ff166111d057805460ff191660011781556040516001600160a01b038316602482015261111c90869060440160408051601f198184030181529190526020810180517bffffffffffffffffffffffffffffffffffffffffffffffffffffffff167f3659cfe6000000000000000000000000000000000000000000000000000000001790526119c6565b50805460ff191681557f360894a13ba1a3210667c828492db98dca3e2076cc3735a920a3ca505d382bbc546001600160a01b038381169116146111c75760405162461bcd60e51b815260206004820152602f60248201527f45524331393637557067726164653a207570677261646520627265616b73206660448201527f7572746865722075706772616465730000000000000000000000000000000000606482015260840161065b565b6111d085611ac8565b5050505050565b61019254610194546040517fb47204770000000000000000000000000000000000000000000000000000000081526001600160a01b039283169263b472047792611228929116908590600401613616565b600060405180830381600087803b15801561124257600080fd5b505af11580156111d0573d6000803e3d6000fd5b603380546001600160a01b0383811673ffffffffffffffffffffffffffffffffffffffff19831681179093556040519116919082907f8be0079c531659141344cd1fd0a4f28419497f9722a3daafe3b4186f6b6457e090600090a35050565b600054610100900460ff166113205760405162461bcd60e51b815260206004820152602b60248201527f496e697469616c697a61626c653a20636f6e7472616374206973206e6f74206960448201526a6e697469616c697a696e6760a81b606482015260840161065b565b611328611b08565b611330611b83565b611338611c06565b611340611c79565b611348611cf4565b6001610191819055604080518082019091528181527f76000000000000000000000000000000000000000000000000000000000000006020820152610a9991611d5f565b6060600061139983611dd2565b905060006113a682611e31565b905060006113b383611e5a565b90506000816113c184611e83565b6113ca86612041565b6040516020016113dc93929190613638565b60408051601f198184030181529181528151602092830120600081815261019590935291205490915060ff161561147a5760405162461bcd60e51b8152602060048201526024808201527f4678526f6f7454756e6e656c3a20455849545f414c52454144595f50524f434560448201527f5353454400000000000000000000000000000000000000000000000000000000606482015260840161065b565b600081815261019560205260408120805460ff1916600117905561149d8561205d565b905060006114aa826121a7565b90506114b581612237565b610194546001600160a01b039081169116146115395760405162461bcd60e51b815260206004820152602560248201527f4678526f6f7454756e6e656c3a20494e56414c49445f46585f4348494c445f5460448201527f554e4e454c000000000000000000000000000000000000000000000000000000606482015260840161065b565b600061154487612260565b9050611564611554846020015190565b8761155e8a61227c565b84612298565b6115d65760405162461bcd60e51b815260206004820152602360248201527f4678526f6f7454756e6e656c3a20494e56414c49445f524543454950545f505260448201527f4f4f460000000000000000000000000000000000000000000000000000000000606482015260840161065b565b611604856115e38961254f565b6115ec8a61256b565b846115f68c612587565b6115ff8d6125a3565b6125bf565b506000611610836126ff565b90507f8c5261668696ce22758910d05bab8f186d6eb247ceac2af2e82c7dc17669b03661164661164183600061273b565b612773565b146116935760405162461bcd60e51b815260206004820152601f60248201527f4678526f6f7454756e6e656c3a20494e56414c49445f5349474e415455524500604482015260640161065b565b600061169e846127ee565b8060200190518101906116b19190613665565b9b9a5050505050505050505050565b610196546001600160a01b03161561080d57610196546040517f10123b2e0000000000000000000000000000000000000000000000000000000081526001600160a01b03909116906310123b2e90611228908490600401613603565b6060600061172b8360026136e9565b611736906002613708565b67ffffffffffffffff81111561174e5761174e6133ae565b6040519080825280601f01601f191660200182016040528015611778576020820181803683370190505b5090507f3000000000000000000000000000000000000000000000000000000000000000816000815181106117af576117af613720565b60200101906001600160f81b031916908160001a9053507f7800000000000000000000000000000000000000000000000000000000000000816001815181106117fa576117fa613720565b60200101906001600160f81b031916908160001a905350600061181e8460026136e9565b611829906001613708565b90505b60018111156118ae577f303132333435363738396162636465660000000000000000000000000000000085600f166010811061186a5761186a613720565b1a60f81b82828151811061188057611880613720565b60200101906001600160f81b031916908160001a90535060049490941c936118a781613736565b905061182c565b5083156118fd5760405162461bcd60e51b815260206004820181905260248201527f537472696e67733a20686578206c656e67746820696e73756666696369656e74604482015260640161065b565b9392505050565b803b6119785760405162461bcd60e51b815260206004820152602d60248201527f455243313936373a206e657720696d706c656d656e746174696f6e206973206e60448201527f6f74206120636f6e747261637400000000000000000000000000000000000000606482015260840161065b565b7f360894a13ba1a3210667c828492db98dca3e2076cc3735a920a3ca505d382bbc805473ffffffffffffffffffffffffffffffffffffffff19166001600160a01b0392909216919091179055565b6060823b611a3c5760405162461bcd60e51b815260206004820152602660248201527f416464726573733a2064656c65676174652063616c6c20746f206e6f6e2d636f60448201527f6e74726163740000000000000000000000000000000000000000000000000000606482015260840161065b565b600080846001600160a01b031684604051611a57919061374d565b600060405180830381855af49150503d8060008114611a92576040519150601f19603f3d011682016040523d82523d6000602084013e611a97565b606091505b5091509150611abf82826040518060600160405280602781526020016139a06027913961280a565b95945050505050565b611ad181611904565b6040516001600160a01b038216907fbc7cd75a20ee27fd9adebab32041f755214dbc6bffa90cc0225b39da2e5c2d3b90600090a250565b600054610100900460ff16611b735760405162461bcd60e51b815260206004820152602b60248201527f496e697469616c697a61626c653a20636f6e7472616374206973206e6f74206960448201526a6e697469616c697a696e6760a81b606482015260840161065b565b611b7b612843565b610a996128ae565b600054610100900460ff16611bee5760405162461bcd60e51b815260206004820152602b60248201527f496e697469616c697a61626c653a20636f6e7472616374206973206e6f74206960448201526a6e697469616c697a696e6760a81b606482015260840161065b565b611bf6612843565b611bfe612843565b610a99612843565b600054610100900460ff16611c715760405162461bcd60e51b815260206004820152602b60248201527f496e697469616c697a61626c653a20636f6e7472616374206973206e6f74206960448201526a6e697469616c697a696e6760a81b606482015260840161065b565b610a99612922565b600054610100900460ff16611ce45760405162461bcd60e51b815260206004820152602b60248201527f496e697469616c697a61626c653a20636f6e7472616374206973206e6f74206960448201526a6e697469616c697a696e6760a81b606482015260840161065b565b611cec612843565b610a99612994565b600054610100900460ff16611bf65760405162461bcd60e51b815260206004820152602b60248201527f496e697469616c697a61626c653a20636f6e7472616374206973206e6f74206960448201526a6e697469616c697a696e6760a81b606482015260840161065b565b61066e8282604051602401611d75929190613769565b60408051601f198184030181529190526020810180517bffffffffffffffffffffffffffffffffffffffffffffffffffffffff167f9710a9d000000000000000000000000000000000000000000000000000000000179052612a0b565b6040805160208101909152606081526000611e1c611e178460408051808201825260008082526020918201528151808301909252825182529182019181019190915290565b612a2c565b60408051602081019091529081529392505050565b60606105b08260000151600881518110611e4d57611e4d613720565b6020026020010151612b42565b60006105b08260000151600281518110611e7657611e76613720565b6020026020010151612773565b604080516020810190915260008152815160609190156105b057600080611eab600086612bdf565b60f81c90506001811480611ec257508060ff166003145b15611f6a57600185516002611ed791906136e9565b611ee1919061378b565b67ffffffffffffffff811115611ef957611ef96133ae565b6040519080825280601f01601f191660200182016040528015611f23576020820181803683370190505b5092506000611f33600187612bdf565b90508084600081518110611f4957611f49613720565b60200101906001600160f81b031916908160001a9053506001925050611fce565b600285516002611f7a91906136e9565b611f84919061378b565b67ffffffffffffffff811115611f9c57611f9c6133ae565b6040519080825280601f01601f191660200182016040528015611fc6576020820181803683370190505b509250600091505b60ff82165b835181101561203857611ffd611fec60ff85168361378b565b611ff7906002613708565b87612bdf565b84828151811061200f5761200f613720565b60200101906001600160f81b031916908160001a90535080612030816137a2565b915050611fd3565b50505092915050565b60006105b08260000151600981518110611e7657611e76613720565b61208160405180606001604052806060815260200160608152602001600081525090565b61209b8260000151600681518110611e4d57611e4d613720565b6020828101829052604080518082018252600080825290830152805180820190915282518152918101908201526120d181612c60565b156120e6576120df81612a2c565b8252612193565b602082015180516000906120fc9060019061378b565b67ffffffffffffffff811115612114576121146133ae565b6040519080825280601f01601f19166020018201604052801561213e576020820181803683370190505b50905060008083602101915082602001905061215c82828551612c99565b60408051808201825260008082526020918201528151808301909252845182528085019082015261218c90612a2c565b8652505050505b61219c83612041565b604083015250919050565b6040805160808101825260009181018281526060808301939093528152602081019190915260006121f583600001516003815181106121e8576121e8613720565b6020026020010151612a2c565b83604001518151811061220a5761220a613720565b60200260200101519050604051806040016040528082815260200161222e83612a2c565b90529392505050565b60006105b0826020015160008151811061225357612253613720565b6020026020010151612d14565b60006105b08260000151600581518110611e7657611e76613720565b60606105b08260000151600781518110611e4d57611e4d613720565b6000806122cc8460408051808201825260008082526020918201528151808301909252825182529182019181019190915290565b905060006122d982612a2c565b9050606080856000806122eb8b611e83565b9050805160001415612307576000975050505050505050612547565b60005b865181101561253e57815183111561232d57600098505050505050505050612547565b61234f87828151811061234257612342613720565b6020026020010151612d2e565b95508580519060200120841461237057600098505050505050505050612547565b6123858782815181106121e8576121e8613720565b945084516011141561245a5781518314156123e7578c805190602001206123b886601081518110611e4d57611e4d613720565b8051906020012014156123d657600198505050505050505050612547565b600098505050505050505050612547565b60008284815181106123fb576123fb613720565b016020015160f81c905060108111156124205760009950505050505050505050612547565b612445868260ff168151811061243857612438613720565b6020026020010151612dae565b9450612452600185613708565b93505061252c565b8451600214156123d657600061248661247f87600081518110611e4d57611e4d613720565b8486612ddc565b83519091506124958286613708565b14156124ea578d805190602001206124b987600181518110611e4d57611e4d613720565b8051906020012014156124d85760019950505050505050505050612547565b60009950505050505050505050612547565b806125015760009950505050505050505050612547565b61250b8185613708565b93506125238660018151811061243857612438613720565b945061252c9050565b80612536816137a2565b91505061230a565b50505050505050505b949350505050565b60006105b08260000151600381518110611e7657611e76613720565b60006105b08260000151600481518110611e7657611e76613720565b60006105b08260000151600081518110611e7657611e76613720565b60606105b08260000151600181518110611e4d57611e4d613720565b610193546040517f41539d4a000000000000000000000000000000000000000000000000000000008152600481018490526000918291829182916001600160a01b03909116906341539d4a9060240160a060405180830381865afa15801561262b573d6000803e3d6000fd5b505050506040513d601f19601f8201168201806040525081019061264f91906137bd565b50935050925092506126a6828b612666919061378b565b6040805160208082018f90528183018e9052606082018d905260808083018d90528351808403909101815260a09092019092528051910120908588612efd565b6126f25760405162461bcd60e51b815260206004820152601c60248201527f4678526f6f7454756e6e656c3a20494e56414c49445f48454144455200000000604482015260640161065b565b9998505050505050505050565b604080516020810190915260608152604051806020016040528061273384602001516001815181106121e8576121e8613720565b905292915050565b6040805180820190915260008082526020820152825180518390811061276357612763613720565b6020026020010151905092915050565b80516000901580159061278857508151602110155b61279157600080fd5b60006127a08360200151613073565b905060008184600001516127b4919061378b565b90506000808386602001516127c99190613708565b90508051915060208310156127e557826020036101000a820491505b50949350505050565b60606105b08260200151600281518110611e4d57611e4d613720565b606083156128195750816118fd565b8251156128295782518084602001fd5b8160405162461bcd60e51b815260040161065b9190613603565b600054610100900460ff16610a995760405162461bcd60e51b815260206004820152602b60248201527f496e697469616c697a61626c653a20636f6e7472616374206973206e6f74206960448201526a6e697469616c697a696e6760a81b606482015260840161065b565b600054610100900460ff166129195760405162461bcd60e51b815260206004820152602b60248201527f496e697469616c697a61626c653a20636f6e7472616374206973206e6f74206960448201526a6e697469616c697a696e6760a81b606482015260840161065b565b610a9933611256565b600054610100900460ff1661298d5760405162461bcd60e51b815260206004820152602b60248201527f496e697469616c697a61626c653a20636f6e7472616374206973206e6f74206960448201526a6e697469616c697a696e6760a81b606482015260840161065b565b600160c955565b600054610100900460ff166129ff5760405162461bcd60e51b815260206004820152602b60248201527f496e697469616c697a61626c653a20636f6e7472616374206973206e6f74206960448201526a6e697469616c697a696e6760a81b606482015260840161065b565b60fb805460ff19169055565b80516a636f6e736f6c652e6c6f67602083016000808483855afa5050505050565b6060612a3782612c60565b612a4057600080fd5b6000612a4b836130ee565b905060008167ffffffffffffffff811115612a6857612a686133ae565b604051908082528060200260200182016040528015612aad57816020015b6040805180820190915260008082526020820152815260200190600190039081612a865790505b5090506000612abf8560200151613073565b8560200151612ace9190613708565b90506000805b84811015612b3757612ae583613171565b9150604051806040016040528083815260200184815250848281518110612b0e57612b0e613720565b6020908102919091010152612b238284613708565b925080612b2f816137a2565b915050612ad4565b509195945050505050565b8051606090612b5057600080fd5b6000612b5f8360200151613073565b90506000818460000151612b73919061378b565b905060008167ffffffffffffffff811115612b9057612b906133ae565b6040519080825280601f01601f191660200182016040528015612bba576020820181803683370190505b50905060008160200190506127e5848760200151612bd89190613708565b8285613233565b6000612bec600284613820565b15612c2657601082612bff600286613834565b81518110612c0f57612c0f613720565b0160200151612c21919060f81c613848565b612c56565b601082612c34600286613834565b81518110612c4457612c44613720565b0160200151612c56919060f81c61386a565b60f81b9392505050565b8051600090612c7157506000919050565b6020820151805160001a9060c0821015612c8f575060009392505050565b5060019392505050565b80612ca357505050565b60208110612cdb5782518252612cba602084613708565b9250612cc7602083613708565b9150612cd460208261378b565b9050612ca3565b60006001612cea83602061378b565b612cf690610100613970565b612d00919061378b565b935183518516941916939093179091525050565b8051600090601514612d2557600080fd5b6105b082612773565b60606000826000015167ffffffffffffffff811115612d4f57612d4f6133ae565b6040519080825280601f01601f191660200182016040528015612d79576020820181803683370190505b509050805160001415612d8c5792915050565b6000816020019050612da78460200151828660000151613233565b5092915050565b8051600090602114612dbf57600080fd5b60008083602001516001612dd39190613708565b51949350505050565b60008080612de986611e83565b90506000815167ffffffffffffffff811115612e0757612e076133ae565b6040519080825280601f01601f191660200182016040528015612e31576020820181803683370190505b509050845b8251612e429087613708565b811015612ecd576000878281518110612e5d57612e5d613720565b01602001517fff000000000000000000000000000000000000000000000000000000000000001690508083612e92898561378b565b81518110612ea257612ea2613720565b60200101906001600160f81b031916908160001a905350508080612ec5906137a2565b915050612e36565b50808051906020012082805190602001201415612eed5781519250612ef2565b600092505b509095945050505050565b600060208251612f0d9190613820565b15612f5a5760405162461bcd60e51b815260206004820152601460248201527f496e76616c69642070726f6f66206c656e677468000000000000000000000000604482015260640161065b565b600060208351612f6a9190613834565b9050612f77816002613970565b8510612fc55760405162461bcd60e51b815260206004820152601560248201527f4c65616620696e64657820697320746f6f206269670000000000000000000000604482015260640161065b565b60008660205b8551811161306557858101519250612fe4600289613820565b613019576040805160208101849052908101849052606001604051602081830303815290604052805190602001209150613046565b60408051602081018590529081018390526060016040516020818303038152906040528051906020012091505b613051600289613834565b975061305e602082613708565b9050612fcb565b509094149695505050505050565b8051600090811a608081101561308c5750600092915050565b60b88110806130a7575060c081108015906130a7575060f881105b156130b55750600192915050565b60c08110156130e2576130ca600160b861397c565b6130d79060ff168261378b565b6118fd906001613708565b6130ca600160f861397c565b80516000906130ff57506000919050565b60008061310f8460200151613073565b846020015161311e9190613708565b90506000846000015185602001516131369190613708565b90505b808210156131685761314a82613171565b6131549083613708565b915082613160816137a2565b935050613139565b50909392505050565b80516000908190811a608081101561318c5760019150612da7565b60b88110156131b2576131a060808261378b565b6131ab906001613708565b9150612da7565b60c08110156131df5760b78103600185019450806020036101000a85510460018201810193505050612da7565b60f88110156131f3576131a060c08261378b565b60019390930151602084900360f7016101000a90049092017fffffffffffffffffffffffffffffffffffffffffffffffffffffffffffffff0a0192915050565b8061323d57505050565b602081106132755782518252613254602084613708565b9250613261602083613708565b915061326e60208261378b565b905061323d565b80612cdb57505050565b60006020828403121561329157600080fd5b81357fffffffff00000000000000000000000000000000000000000000000000000000811681146118fd57600080fd5b6000602082840312156132d357600080fd5b5035919050565b6001600160a01b038116811461080d57600080fd5b6000806040838503121561330257600080fd5b823591506020830135613314816132da565b809150509250929050565b60006020828403121561333157600080fd5b81356118fd816132da565b6000806020838503121561334f57600080fd5b823567ffffffffffffffff8082111561336757600080fd5b818501915085601f83011261337b57600080fd5b81358181111561338a57600080fd5b86602082850101111561339c57600080fd5b60209290920196919550909350505050565b634e487b7160e01b600052604160045260246000fd5b604051601f8201601f1916810167ffffffffffffffff811182821017156133ed576133ed6133ae565b604052919050565b600067ffffffffffffffff82111561340f5761340f6133ae565b50601f01601f191660200190565b600082601f83011261342e57600080fd5b813561344161343c826133f5565b6133c4565b81815284602083860101111561345657600080fd5b816020850160208301376000918101602001919091529392505050565b6000806040838503121561348657600080fd5b8235613491816132da565b9150602083013567ffffffffffffffff8111156134ad57600080fd5b6134b98582860161341d565b9150509250929050565b600080604083850312156134d657600080fd5b82356134e1816132da565b91506020830135613314816132da565b60006020828403121561350357600080fd5b813567ffffffffffffffff81111561351a57600080fd5b6125478482850161341d565b60005b83811015613541578181015183820152602001613529565b83811115613550576000848401525b50505050565b7f416363657373436f6e74726f6c3a206163636f756e742000000000000000000081526000835161358e816017850160208801613526565b7f206973206d697373696e6720726f6c652000000000000000000000000000000060179184019182015283516135cb816028840160208801613526565b01602801949350505050565b600081518084526135ef816020860160208601613526565b601f01601f19169290920160200192915050565b6020815260006118fd60208301846135d7565b6001600160a01b038316815260406020820152600061254760408301846135d7565b83815260008351613650816020850160208801613526565b60209201918201929092526040019392505050565b60006020828403121561367757600080fd5b815167ffffffffffffffff81111561368e57600080fd5b8201601f8101841361369f57600080fd5b80516136ad61343c826133f5565b8181528560208385010111156136c257600080fd5b611abf826020830160208601613526565b634e487b7160e01b600052601160045260246000fd5b6000816000190483118215151615613703576137036136d3565b500290565b6000821982111561371b5761371b6136d3565b500190565b634e487b7160e01b600052603260045260246000fd5b600081613745576137456136d3565b506000190190565b6000825161375f818460208701613526565b9190910192915050565b60408152600061377c60408301856135d7565b90508260208301529392505050565b60008282101561379d5761379d6136d3565b500390565b60006000198214156137b6576137b66136d3565b5060010190565b600080600080600060a086880312156137d557600080fd5b8551945060208601519350604086015192506060860151915060808601516137fc816132da565b809150509295509295909350565b634e487b7160e01b600052601260045260246000fd5b60008261382f5761382f61380a565b500690565b6000826138435761384361380a565b500490565b600060ff83168061385b5761385b61380a565b8060ff84160691505092915050565b600060ff83168061387d5761387d61380a565b8060ff84160491505092915050565b600181815b808511156138c75781600019048211156138ad576138ad6136d3565b808516156138ba57918102915b93841c9390800290613891565b509250929050565b6000826138de575060016105b0565b816138eb575060006105b0565b8160018114613901576002811461390b57613927565b60019150506105b0565b60ff84111561391c5761391c6136d3565b50506001821b6105b0565b5060208310610133831016604e8410600b841016171561394a575081810a6105b0565b613954838361388c565b8060001904821115613968576139686136d3565b029392505050565b60006118fd83836138cf565b600060ff821660ff841680821015613996576139966136d3565b9003939250505056fe416464726573733a206c6f772d6c6576656c2064656c65676174652063616c6c206661696c6564a2646970667358221220fa004818f2fb01f2dfb1c26f01aba218796a660002e6f6325d596f4f7a91648264736f6c634300080b0033",
  "linkReferences": {},
  "deployedLinkReferences": {}
}