{
  "_format": "hh-sol-artifact-1",
  "contractName": "FxStateEthereumTunnel",
  "sourceName": "contracts/polygon/ethereum/FxStateEthereumTunnel.sol",
  "abi": [
    {
      "anonymous": false,
      "inputs": [
        {
          "indexed": false,
          "internalType": "address",
          "name": "previousAdmin",
          "type": "address"
        },
        {
          "indexed": false,
          "internalType": "address",
          "name": "newAdmin",
          "type": "address"
        }
      ],
      "name": "AdminChanged",
      "type": "event"
    },
    {
      "anonymous": false,
      "inputs": [
        {
          "indexed": true,
          "internalType": "address",
          "name": "beacon",
          "type": "address"
        }
      ],
      "name": "BeaconUpgraded",
      "type": "event"
    },
    {
      "anonymous": false,
      "inputs": [
        {
          "indexed": true,
          "internalType": "address",
          "name": "previousOwner",
          "type": "address"
        },
        {
          "indexed": true,
          "internalType": "address",
          "name": "newOwner",
          "type": "address"
        }
      ],
      "name": "OwnershipTransferred",
      "type": "event"
    },
    {
      "anonymous": false,
      "inputs": [
        {
          "indexed": false,
          "internalType": "address",
          "name": "account",
          "type": "address"
        }
      ],
      "name": "Paused",
      "type": "event"
    },
    {
      "anonymous": false,
      "inputs": [
        {
          "indexed": true,
          "internalType": "bytes32",
          "name": "role",
          "type": "bytes32"
        },
        {
          "indexed": true,
          "internalType": "bytes32",
          "name": "previousAdminRole",
          "type": "bytes32"
        },
        {
          "indexed": true,
          "internalType": "bytes32",
          "name": "newAdminRole",
          "type": "bytes32"
        }
      ],
      "name": "RoleAdminChanged",
      "type": "event"
    },
    {
      "anonymous": false,
      "inputs": [
        {
          "indexed": true,
          "internalType": "bytes32",
          "name": "role",
          "type": "bytes32"
        },
        {
          "indexed": true,
          "internalType": "address",
          "name": "account",
          "type": "address"
        },
        {
          "indexed": true,
          "internalType": "address",
          "name": "sender",
          "type": "address"
        }
      ],
      "name": "RoleGranted",
      "type": "event"
    },
    {
      "anonymous": false,
      "inputs": [
        {
          "indexed": true,
          "internalType": "bytes32",
          "name": "role",
          "type": "bytes32"
        },
        {
          "indexed": true,
          "internalType": "address",
          "name": "account",
          "type": "address"
        },
        {
          "indexed": true,
          "internalType": "address",
          "name": "sender",
          "type": "address"
        }
      ],
      "name": "RoleRevoked",
      "type": "event"
    },
    {
      "anonymous": false,
      "inputs": [
        {
          "indexed": false,
          "internalType": "address",
          "name": "account",
          "type": "address"
        }
      ],
      "name": "Unpaused",
      "type": "event"
    },
    {
      "anonymous": false,
      "inputs": [
        {
          "indexed": true,
          "internalType": "address",
          "name": "implementation",
          "type": "address"
        }
      ],
      "name": "Upgraded",
      "type": "event"
    },
    {
      "inputs": [],
      "name": "DEFAULT_ADMIN_ROLE",
      "outputs": [
        {
          "internalType": "bytes32",
          "name": "",
          "type": "bytes32"
        }
      ],
      "stateMutability": "view",
      "type": "function"
    },
    {
      "inputs": [],
      "name": "SEND_MESSAGE_EVENT_SIG",
      "outputs": [
        {
          "internalType": "bytes32",
          "name": "",
          "type": "bytes32"
        }
      ],
      "stateMutability": "view",
      "type": "function"
    },
    {
      "inputs": [
        {
          "internalType": "address",
          "name": "_checkpointManager",
          "type": "address"
        },
        {
          "internalType": "address",
          "name": "_fxRoot",
          "type": "address"
        }
      ],
      "name": "__FxStateEthereumTunnel_init",
      "outputs": [],
      "stateMutability": "nonpayable",
      "type": "function"
    },
    {
      "inputs": [],
      "name": "checkpointManager",
      "outputs": [
        {
          "internalType": "contract ICheckpointManager",
          "name": "",
          "type": "address"
        }
      ],
      "stateMutability": "view",
      "type": "function"
    },
    {
      "inputs": [],
      "name": "ethereumStateReceiver",
      "outputs": [
        {
          "internalType": "contract IEthereumStateReceiver",
          "name": "",
          "type": "address"
        }
      ],
      "stateMutability": "view",
      "type": "function"
    },
    {
      "inputs": [],
      "name": "fxChildTunnel",
      "outputs": [
        {
          "internalType": "address",
          "name": "",
          "type": "address"
        }
      ],
      "stateMutability": "view",
      "type": "function"
    },
    {
      "inputs": [],
      "name": "fxRoot",
      "outputs": [
        {
          "internalType": "contract IFxStateSender",
          "name": "",
          "type": "address"
        }
      ],
      "stateMutability": "view",
      "type": "function"
    },
    {
      "inputs": [
        {
          "internalType": "bytes32",
          "name": "role",
          "type": "bytes32"
        }
      ],
      "name": "getRoleAdmin",
      "outputs": [
        {
          "internalType": "bytes32",
          "name": "",
          "type": "bytes32"
        }
      ],
      "stateMutability": "view",
      "type": "function"
    },
    {
      "inputs": [
        {
          "internalType": "bytes32",
          "name": "role",
          "type": "bytes32"
        },
        {
          "internalType": "address",
          "name": "account",
          "type": "address"
        }
      ],
      "name": "grantRole",
      "outputs": [],
      "stateMutability": "nonpayable",
      "type": "function"
    },
    {
      "inputs": [
        {
          "internalType": "bytes32",
          "name": "role",
          "type": "bytes32"
        },
        {
          "internalType": "address",
          "name": "account",
          "type": "address"
        }
      ],
      "name": "hasRole",
      "outputs": [
        {
          "internalType": "bool",
          "name": "",
          "type": "bool"
        }
      ],
      "stateMutability": "view",
      "type": "function"
    },
    {
      "inputs": [],
      "name": "owner",
      "outputs": [
        {
          "internalType": "address",
          "name": "",
          "type": "address"
        }
      ],
      "stateMutability": "view",
      "type": "function"
    },
    {
      "inputs": [],
      "name": "paused",
      "outputs": [
        {
          "internalType": "bool",
          "name": "",
          "type": "bool"
        }
      ],
      "stateMutability": "view",
      "type": "function"
    },
    {
      "inputs": [
        {
          "internalType": "bytes32",
          "name": "",
          "type": "bytes32"
        }
      ],
      "name": "processedExits",
      "outputs": [
        {
          "internalType": "bool",
          "name": "",
          "type": "bool"
        }
      ],
      "stateMutability": "view",
      "type": "function"
    },
    {
      "inputs": [
        {
          "internalType": "bytes",
          "name": "inputData",
          "type": "bytes"
        }
      ],
      "name": "receiveMessage",
      "outputs": [],
      "stateMutability": "nonpayable",
      "type": "function"
    },
    {
      "inputs": [],
      "name": "renounceOwnership",
      "outputs": [],
      "stateMutability": "nonpayable",
      "type": "function"
    },
    {
      "inputs": [
        {
          "internalType": "bytes32",
          "name": "role",
          "type": "bytes32"
        },
        {
          "internalType": "address",
          "name": "account",
          "type": "address"
        }
      ],
      "name": "renounceRole",
      "outputs": [],
      "stateMutability": "nonpayable",
      "type": "function"
    },
    {
      "inputs": [
        {
          "internalType": "bytes32",
          "name": "role",
          "type": "bytes32"
        },
        {
          "internalType": "address",
          "name": "account",
          "type": "address"
        }
      ],
      "name": "revokeRole",
      "outputs": [],
      "stateMutability": "nonpayable",
      "type": "function"
    },
    {
      "inputs": [
        {
          "internalType": "bytes",
          "name": "message",
          "type": "bytes"
        }
      ],
      "name": "sendMessageToChild",
      "outputs": [],
      "stateMutability": "nonpayable",
      "type": "function"
    },
    {
      "inputs": [
        {
          "internalType": "contract IEthereumStateReceiver",
          "name": "_ethereumStateReceiver",
          "type": "address"
        }
      ],
      "name": "setEthereumStateReceiver",
      "outputs": [],
      "stateMutability": "nonpayable",
      "type": "function"
    },
    {
      "inputs": [
        {
          "internalType": "address",
          "name": "_polygonTunnel",
          "type": "address"
        }
      ],
      "name": "setPolygonStateTunnel",
      "outputs": [],
      "stateMutability": "nonpayable",
      "type": "function"
    },
    {
      "inputs": [
        {
          "internalType": "bytes4",
          "name": "interfaceId",
          "type": "bytes4"
        }
      ],
      "name": "supportsInterface",
      "outputs": [
        {
          "internalType": "bool",
          "name": "",
          "type": "bool"
        }
      ],
      "stateMutability": "view",
      "type": "function"
    },
    {
      "inputs": [
        {
          "internalType": "address",
          "name": "newOwner",
          "type": "address"
        }
      ],
      "name": "transferOwnership",
      "outputs": [],
      "stateMutability": "nonpayable",
      "type": "function"
    },
    {
      "inputs": [
        {
          "internalType": "address",
          "name": "newImplementation",
          "type": "address"
        }
      ],
      "name": "upgradeTo",
      "outputs": [],
      "stateMutability": "nonpayable",
      "type": "function"
    },
    {
      "inputs": [
        {
          "internalType": "address",
          "name": "newImplementation",
          "type": "address"
        },
        {
          "internalType": "bytes",
          "name": "data",
          "type": "bytes"
        }
      ],
      "name": "upgradeToAndCall",
      "outputs": [],
      "stateMutability": "payable",
      "type": "function"
    },
    {
      "inputs": [],
      "name": "version",
      "outputs": [
        {
          "internalType": "uint256",
          "name": "",
          "type": "uint256"
        }
      ],
      "stateMutability": "view",
      "type": "function"
    }
  ],
  "bytecode": "0x60a06040523060805234801561001457600080fd5b50608051613a0061004560003960008181610681015281816107170152818161094301526109d90152613a006000f3fe6080604052600436106101965760003560e01c80636516a6a4116100e1578063aa8ca0841161008a578063d547741f11610064578063d547741f146104a0578063de9b771f146104c0578063f2fde38b146104e1578063f953cec71461050157600080fd5b8063aa8ca0841461043f578063c0857ba01461045f578063c253c41d1461048057600080fd5b806391d14854116100bb57806391d14854146103c3578063972c492814610409578063a217fddf1461042a57600080fd5b80636516a6a414610357578063715018a6146103905780638da5cb5b146103a557600080fd5b806342e024441161014357806354fd4d501161011d57806354fd4d50146102f75780635c975abb1461030e578063607f2d421461032657600080fd5b806342e02444146102a45780634c09e6e8146102c45780634f1ef286146102e457600080fd5b80632f2ff15d116101745780632f2ff15d1461024257806336568abe146102645780633659cfe61461028457600080fd5b806301ffc9a71461019b5780630e387de6146101d0578063248a9ca314610212575b600080fd5b3480156101a757600080fd5b506101bb6101b6366004613283565b610521565b60405190151581526020015b60405180910390f35b3480156101dc57600080fd5b506102047f8c5261668696ce22758910d05bab8f186d6eb247ceac2af2e82c7dc17669b03681565b6040519081526020016101c7565b34801561021e57600080fd5b5061020461022d3660046132c5565b60009081526097602052604090206001015490565b34801561024e57600080fd5b5061026261025d3660046132f3565b6105ba565b005b34801561027057600080fd5b5061026261027f3660046132f3565b6105e5565b34801561029057600080fd5b5061026261029f366004613323565b610676565b3480156102b057600080fd5b506102626102bf366004613323565b610814565b3480156102d057600080fd5b506102626102df366004613340565b61089e565b6102626102f2366004613477565b610938565b34801561030357600080fd5b506102046101915481565b34801561031a57600080fd5b5060fb5460ff166101bb565b34801561033257600080fd5b506101bb6103413660046132c5565b6101956020526000908152604090205460ff1681565b34801561036357600080fd5b5061019654610378906001600160a01b031681565b6040516001600160a01b0390911681526020016101c7565b34801561039c57600080fd5b50610262610ac3565b3480156103b157600080fd5b506033546001600160a01b0316610378565b3480156103cf57600080fd5b506101bb6103de3660046132f3565b60009182526097602090815260408084206001600160a01b0393909316845291905290205460ff1690565b34801561041557600080fd5b5061019454610378906001600160a01b031681565b34801561043657600080fd5b50610204600081565b34801561044b57600080fd5b5061026261045a366004613323565b610b29565b34801561046b57600080fd5b5061019354610378906001600160a01b031681565b34801561048c57600080fd5b5061026261049b3660046134c7565b610bb3565b3480156104ac57600080fd5b506102626104bb3660046132f3565b610cfd565b3480156104cc57600080fd5b5061019254610378906001600160a01b031681565b3480156104ed57600080fd5b506102626104fc366004613323565b610d23565b34801561050d57600080fd5b5061026261051c3660046134f5565b610e02565b60007fffffffff0000000000000000000000000000000000000000000000000000000082167f7965db0b0000000000000000000000000000000000000000000000000000000014806105b457507f01ffc9a7000000000000000000000000000000000000000000000000000000007fffffffff000000000000000000000000000000000000000000000000000000008316145b92915050565b6000828152609760205260409020600101546105d68133610e18565b6105e08383610e98565b505050565b6001600160a01b03811633146106685760405162461bcd60e51b815260206004820152602f60248201527f416363657373436f6e74726f6c3a2063616e206f6e6c792072656e6f756e636560448201527f20726f6c657320666f722073656c66000000000000000000000000000000000060648201526084015b60405180910390fd5b6106728282610f3a565b5050565b306001600160a01b037f00000000000000000000000000000000000000000000000000000000000000001614156107155760405162461bcd60e51b815260206004820152602c60248201527f46756e6374696f6e206d7573742062652063616c6c6564207468726f7567682060448201527f64656c656761746563616c6c0000000000000000000000000000000000000000606482015260840161065f565b7f00000000000000000000000000000000000000000000000000000000000000006001600160a01b03166107707f360894a13ba1a3210667c828492db98dca3e2076cc3735a920a3ca505d382bbc546001600160a01b031690565b6001600160a01b0316146107ec5760405162461bcd60e51b815260206004820152602c60248201527f46756e6374696f6e206d7573742062652063616c6c6564207468726f7567682060448201527f6163746976652070726f78790000000000000000000000000000000000000000606482015260840161065f565b6107f581610fbd565b6040805160008082526020820190925261081191839190611017565b50565b6033546001600160a01b0316331461086e5760405162461bcd60e51b815260206004820181905260248201527f4f776e61626c653a2063616c6c6572206973206e6f7420746865206f776e6572604482015260640161065f565b610194805473ffffffffffffffffffffffffffffffffffffffff19166001600160a01b0392909216919091179055565b610196546001600160a01b031633146108f95760405162461bcd60e51b815260206004820152601760248201527f4f6e6c7920666f72207374617465207265636569766572000000000000000000604482015260640161065f565b61067282828080601f0160208091040260200160405190810160405280939291908181526020018383808284376000920191909152506111db92505050565b306001600160a01b037f00000000000000000000000000000000000000000000000000000000000000001614156109d75760405162461bcd60e51b815260206004820152602c60248201527f46756e6374696f6e206d7573742062652063616c6c6564207468726f7567682060448201527f64656c656761746563616c6c0000000000000000000000000000000000000000606482015260840161065f565b7f00000000000000000000000000000000000000000000000000000000000000006001600160a01b0316610a327f360894a13ba1a3210667c828492db98dca3e2076cc3735a920a3ca505d382bbc546001600160a01b031690565b6001600160a01b031614610aae5760405162461bcd60e51b815260206004820152602c60248201527f46756e6374696f6e206d7573742062652063616c6c6564207468726f7567682060448201527f6163746976652070726f78790000000000000000000000000000000000000000606482015260840161065f565b610ab782610fbd565b61067282826001611017565b6033546001600160a01b03163314610b1d5760405162461bcd60e51b815260206004820181905260248201527f4f776e61626c653a2063616c6c6572206973206e6f7420746865206f776e6572604482015260640161065f565b610b27600061125a565b565b6033546001600160a01b03163314610b835760405162461bcd60e51b815260206004820181905260248201527f4f776e61626c653a2063616c6c6572206973206e6f7420746865206f776e6572604482015260640161065f565b610196805473ffffffffffffffffffffffffffffffffffffffff19166001600160a01b0392909216919091179055565b600054610100900460ff16610bce5760005460ff1615610bd2565b303b155b610c445760405162461bcd60e51b815260206004820152602e60248201527f496e697469616c697a61626c653a20636f6e747261637420697320616c72656160448201527f647920696e697469616c697a6564000000000000000000000000000000000000606482015260840161065f565b600054610100900460ff16158015610c8357600080547fffffffffffffffffffffffffffffffffffffffffffffffffffffffffffff0000166101011790555b610c8b6112b9565b61019380546001600160a01b0380861673ffffffffffffffffffffffffffffffffffffffff199283161790925561019280549285169290911691909117905580156105e057600080547fffffffffffffffffffffffffffffffffffffffffffffffffffffffffffff00ff169055505050565b600082815260976020526040902060010154610d198133610e18565b6105e08383610f3a565b6033546001600160a01b03163314610d7d5760405162461bcd60e51b815260206004820181905260248201527f4f776e61626c653a2063616c6c6572206973206e6f7420746865206f776e6572604482015260640161065f565b6001600160a01b038116610df95760405162461bcd60e51b815260206004820152602660248201527f4f776e61626c653a206e6577206f776e657220697320746865207a65726f206160448201527f6464726573730000000000000000000000000000000000000000000000000000606482015260840161065f565b6108118161125a565b6000610e0d82611390565b9050610672816116c4565b60008281526097602090815260408083206001600160a01b038516845290915290205460ff1661067257610e56816001600160a01b03166014611720565b610e61836020611720565b604051602001610e7292919061355a565b60408051601f198184030181529082905262461bcd60e51b825261065f91600401613607565b60008281526097602090815260408083206001600160a01b038516845290915290205460ff166106725760008281526097602090815260408083206001600160a01b03851684529091529020805460ff19166001179055610ef63390565b6001600160a01b0316816001600160a01b0316837f2f8788117e7eff1d82e926ec794901d17c78024a50270940304540a733656f0d60405160405180910390a45050565b60008281526097602090815260408083206001600160a01b038516845290915290205460ff16156106725760008281526097602090815260408083206001600160a01b0385168085529252808320805460ff1916905551339285917ff6391f5c32d9c69d2a47ea670b442974b53935d1edc7fd64eb21e047a839171b9190a45050565b6033546001600160a01b031633146108115760405162461bcd60e51b815260206004820181905260248201527f4f776e61626c653a2063616c6c6572206973206e6f7420746865206f776e6572604482015260640161065f565b600061104a7f360894a13ba1a3210667c828492db98dca3e2076cc3735a920a3ca505d382bbc546001600160a01b031690565b905061105584611908565b6000835111806110625750815b156110735761107184846119ca565b505b7f4910fdfa16fed3260ed0e7147f7cc6da11a60208b5b9406d12a635614ffd9143805460ff166111d457805460ff191660011781556040516001600160a01b038316602482015261112090869060440160408051601f198184030181529190526020810180517bffffffffffffffffffffffffffffffffffffffffffffffffffffffff167f3659cfe6000000000000000000000000000000000000000000000000000000001790526119ca565b50805460ff191681557f360894a13ba1a3210667c828492db98dca3e2076cc3735a920a3ca505d382bbc546001600160a01b038381169116146111cb5760405162461bcd60e51b815260206004820152602f60248201527f45524331393637557067726164653a207570677261646520627265616b73206660448201527f7572746865722075706772616465730000000000000000000000000000000000606482015260840161065f565b6111d485611acc565b5050505050565b61019254610194546040517fb47204770000000000000000000000000000000000000000000000000000000081526001600160a01b039283169263b47204779261122c92911690859060040161361a565b600060405180830381600087803b15801561124657600080fd5b505af11580156111d4573d6000803e3d6000fd5b603380546001600160a01b0383811673ffffffffffffffffffffffffffffffffffffffff19831681179093556040519116919082907f8be0079c531659141344cd1fd0a4f28419497f9722a3daafe3b4186f6b6457e090600090a35050565b600054610100900460ff166113245760405162461bcd60e51b815260206004820152602b60248201527f496e697469616c697a61626c653a20636f6e7472616374206973206e6f74206960448201526a6e697469616c697a696e6760a81b606482015260840161065f565b61132c611b0c565b611334611b87565b61133c611c0a565b611344611c7d565b61134c611cf8565b6001610191819055604080518082019091528181527f76000000000000000000000000000000000000000000000000000000000000006020820152610b2791611d63565b6060600061139d83611dd6565b905060006113aa82611e35565b905060006113b783611e5e565b90506000816113c584611e87565b6113ce86612045565b6040516020016113e09392919061363c565b60408051601f198184030181529181528151602092830120600081815261019590935291205490915060ff161561147e5760405162461bcd60e51b8152602060048201526024808201527f4678526f6f7454756e6e656c3a20455849545f414c52454144595f50524f434560448201527f5353454400000000000000000000000000000000000000000000000000000000606482015260840161065f565b600081815261019560205260408120805460ff191660011790556114a185612061565b905060006114ae826121ab565b90506114b98161223b565b610194546001600160a01b0390811691161461153d5760405162461bcd60e51b815260206004820152602560248201527f4678526f6f7454756e6e656c3a20494e56414c49445f46585f4348494c445f5460448201527f554e4e454c000000000000000000000000000000000000000000000000000000606482015260840161065f565b600061154887612264565b9050611568611558846020015190565b876115628a612280565b8461229c565b6115da5760405162461bcd60e51b815260206004820152602360248201527f4678526f6f7454756e6e656c3a20494e56414c49445f524543454950545f505260448201527f4f4f460000000000000000000000000000000000000000000000000000000000606482015260840161065f565b611608856115e789612553565b6115f08a61256f565b846115fa8c61258b565b6116038d6125a7565b6125c3565b50600061161483612703565b90507f8c5261668696ce22758910d05bab8f186d6eb247ceac2af2e82c7dc17669b03661164a61164583600061273f565b612777565b146116975760405162461bcd60e51b815260206004820152601f60248201527f4678526f6f7454756e6e656c3a20494e56414c49445f5349474e415455524500604482015260640161065f565b60006116a2846127f2565b8060200190518101906116b59190613669565b9b9a5050505050505050505050565b610196546001600160a01b03161561081157610196546040517f10123b2e0000000000000000000000000000000000000000000000000000000081526001600160a01b03909116906310123b2e9061122c908490600401613607565b6060600061172f8360026136ed565b61173a90600261370c565b67ffffffffffffffff811115611752576117526133b2565b6040519080825280601f01601f19166020018201604052801561177c576020820181803683370190505b5090507f3000000000000000000000000000000000000000000000000000000000000000816000815181106117b3576117b3613724565b60200101906001600160f81b031916908160001a9053507f7800000000000000000000000000000000000000000000000000000000000000816001815181106117fe576117fe613724565b60200101906001600160f81b031916908160001a90535060006118228460026136ed565b61182d90600161370c565b90505b60018111156118b2577f303132333435363738396162636465660000000000000000000000000000000085600f166010811061186e5761186e613724565b1a60f81b82828151811061188457611884613724565b60200101906001600160f81b031916908160001a90535060049490941c936118ab8161373a565b9050611830565b5083156119015760405162461bcd60e51b815260206004820181905260248201527f537472696e67733a20686578206c656e67746820696e73756666696369656e74604482015260640161065f565b9392505050565b803b61197c5760405162461bcd60e51b815260206004820152602d60248201527f455243313936373a206e657720696d706c656d656e746174696f6e206973206e60448201527f6f74206120636f6e747261637400000000000000000000000000000000000000606482015260840161065f565b7f360894a13ba1a3210667c828492db98dca3e2076cc3735a920a3ca505d382bbc805473ffffffffffffffffffffffffffffffffffffffff19166001600160a01b0392909216919091179055565b6060823b611a405760405162461bcd60e51b815260206004820152602660248201527f416464726573733a2064656c65676174652063616c6c20746f206e6f6e2d636f60448201527f6e74726163740000000000000000000000000000000000000000000000000000606482015260840161065f565b600080846001600160a01b031684604051611a5b9190613751565b600060405180830381855af49150503d8060008114611a96576040519150601f19603f3d011682016040523d82523d6000602084013e611a9b565b606091505b5091509150611ac382826040518060600160405280602781526020016139a46027913961280e565b95945050505050565b611ad581611908565b6040516001600160a01b038216907fbc7cd75a20ee27fd9adebab32041f755214dbc6bffa90cc0225b39da2e5c2d3b90600090a250565b600054610100900460ff16611b775760405162461bcd60e51b815260206004820152602b60248201527f496e697469616c697a61626c653a20636f6e7472616374206973206e6f74206960448201526a6e697469616c697a696e6760a81b606482015260840161065f565b611b7f612847565b610b276128b2565b600054610100900460ff16611bf25760405162461bcd60e51b815260206004820152602b60248201527f496e697469616c697a61626c653a20636f6e7472616374206973206e6f74206960448201526a6e697469616c697a696e6760a81b606482015260840161065f565b611bfa612847565b611c02612847565b610b27612847565b600054610100900460ff16611c755760405162461bcd60e51b815260206004820152602b60248201527f496e697469616c697a61626c653a20636f6e7472616374206973206e6f74206960448201526a6e697469616c697a696e6760a81b606482015260840161065f565b610b27612926565b600054610100900460ff16611ce85760405162461bcd60e51b815260206004820152602b60248201527f496e697469616c697a61626c653a20636f6e7472616374206973206e6f74206960448201526a6e697469616c697a696e6760a81b606482015260840161065f565b611cf0612847565b610b27612998565b600054610100900460ff16611bfa5760405162461bcd60e51b815260206004820152602b60248201527f496e697469616c697a61626c653a20636f6e7472616374206973206e6f74206960448201526a6e697469616c697a696e6760a81b606482015260840161065f565b6106728282604051602401611d7992919061376d565b60408051601f198184030181529190526020810180517bffffffffffffffffffffffffffffffffffffffffffffffffffffffff167f9710a9d000000000000000000000000000000000000000000000000000000000179052612a0f565b6040805160208101909152606081526000611e20611e1b8460408051808201825260008082526020918201528151808301909252825182529182019181019190915290565b612a30565b60408051602081019091529081529392505050565b60606105b48260000151600881518110611e5157611e51613724565b6020026020010151612b46565b60006105b48260000151600281518110611e7a57611e7a613724565b6020026020010151612777565b604080516020810190915260008152815160609190156105b457600080611eaf600086612be3565b60f81c90506001811480611ec657508060ff166003145b15611f6e57600185516002611edb91906136ed565b611ee5919061378f565b67ffffffffffffffff811115611efd57611efd6133b2565b6040519080825280601f01601f191660200182016040528015611f27576020820181803683370190505b5092506000611f37600187612be3565b90508084600081518110611f4d57611f4d613724565b60200101906001600160f81b031916908160001a9053506001925050611fd2565b600285516002611f7e91906136ed565b611f88919061378f565b67ffffffffffffffff811115611fa057611fa06133b2565b6040519080825280601f01601f191660200182016040528015611fca576020820181803683370190505b509250600091505b60ff82165b835181101561203c57612001611ff060ff85168361378f565b611ffb90600261370c565b87612be3565b84828151811061201357612013613724565b60200101906001600160f81b031916908160001a90535080612034816137a6565b915050611fd7565b50505092915050565b60006105b48260000151600981518110611e7a57611e7a613724565b61208560405180606001604052806060815260200160608152602001600081525090565b61209f8260000151600681518110611e5157611e51613724565b6020828101829052604080518082018252600080825290830152805180820190915282518152918101908201526120d581612c64565b156120ea576120e381612a30565b8252612197565b602082015180516000906121009060019061378f565b67ffffffffffffffff811115612118576121186133b2565b6040519080825280601f01601f191660200182016040528015612142576020820181803683370190505b50905060008083602101915082602001905061216082828551612c9d565b60408051808201825260008082526020918201528151808301909252845182528085019082015261219090612a30565b8652505050505b6121a083612045565b604083015250919050565b6040805160808101825260009181018281526060808301939093528152602081019190915260006121f983600001516003815181106121ec576121ec613724565b6020026020010151612a30565b83604001518151811061220e5761220e613724565b60200260200101519050604051806040016040528082815260200161223283612a30565b90529392505050565b60006105b4826020015160008151811061225757612257613724565b6020026020010151612d18565b60006105b48260000151600581518110611e7a57611e7a613724565b60606105b48260000151600781518110611e5157611e51613724565b6000806122d08460408051808201825260008082526020918201528151808301909252825182529182019181019190915290565b905060006122dd82612a30565b9050606080856000806122ef8b611e87565b905080516000141561230b57600097505050505050505061254b565b60005b86518110156125425781518311156123315760009850505050505050505061254b565b61235387828151811061234657612346613724565b6020026020010151612d32565b9550858051906020012084146123745760009850505050505050505061254b565b6123898782815181106121ec576121ec613724565b945084516011141561245e5781518314156123eb578c805190602001206123bc86601081518110611e5157611e51613724565b8051906020012014156123da5760019850505050505050505061254b565b60009850505050505050505061254b565b60008284815181106123ff576123ff613724565b016020015160f81c90506010811115612424576000995050505050505050505061254b565b612449868260ff168151811061243c5761243c613724565b6020026020010151612db2565b945061245660018561370c565b935050612530565b8451600214156123da57600061248a61248387600081518110611e5157611e51613724565b8486612de0565b8351909150612499828661370c565b14156124ee578d805190602001206124bd87600181518110611e5157611e51613724565b8051906020012014156124dc576001995050505050505050505061254b565b6000995050505050505050505061254b565b80612505576000995050505050505050505061254b565b61250f818561370c565b93506125278660018151811061243c5761243c613724565b94506125309050565b8061253a816137a6565b91505061230e565b50505050505050505b949350505050565b60006105b48260000151600381518110611e7a57611e7a613724565b60006105b48260000151600481518110611e7a57611e7a613724565b60006105b48260000151600081518110611e7a57611e7a613724565b60606105b48260000151600181518110611e5157611e51613724565b610193546040517f41539d4a000000000000000000000000000000000000000000000000000000008152600481018490526000918291829182916001600160a01b03909116906341539d4a9060240160a060405180830381865afa15801561262f573d6000803e3d6000fd5b505050506040513d601f19601f8201168201806040525081019061265391906137c1565b50935050925092506126aa828b61266a919061378f565b6040805160208082018f90528183018e9052606082018d905260808083018d90528351808403909101815260a09092019092528051910120908588612f01565b6126f65760405162461bcd60e51b815260206004820152601c60248201527f4678526f6f7454756e6e656c3a20494e56414c49445f48454144455200000000604482015260640161065f565b9998505050505050505050565b604080516020810190915260608152604051806020016040528061273784602001516001815181106121ec576121ec613724565b905292915050565b6040805180820190915260008082526020820152825180518390811061276757612767613724565b6020026020010151905092915050565b80516000901580159061278c57508151602110155b61279557600080fd5b60006127a48360200151613077565b905060008184600001516127b8919061378f565b90506000808386602001516127cd919061370c565b90508051915060208310156127e957826020036101000a820491505b50949350505050565b60606105b48260200151600281518110611e5157611e51613724565b6060831561281d575081611901565b82511561282d5782518084602001fd5b8160405162461bcd60e51b815260040161065f9190613607565b600054610100900460ff16610b275760405162461bcd60e51b815260206004820152602b60248201527f496e697469616c697a61626c653a20636f6e7472616374206973206e6f74206960448201526a6e697469616c697a696e6760a81b606482015260840161065f565b600054610100900460ff1661291d5760405162461bcd60e51b815260206004820152602b60248201527f496e697469616c697a61626c653a20636f6e7472616374206973206e6f74206960448201526a6e697469616c697a696e6760a81b606482015260840161065f565b610b273361125a565b600054610100900460ff166129915760405162461bcd60e51b815260206004820152602b60248201527f496e697469616c697a61626c653a20636f6e7472616374206973206e6f74206960448201526a6e697469616c697a696e6760a81b606482015260840161065f565b600160c955565b600054610100900460ff16612a035760405162461bcd60e51b815260206004820152602b60248201527f496e697469616c697a61626c653a20636f6e7472616374206973206e6f74206960448201526a6e697469616c697a696e6760a81b606482015260840161065f565b60fb805460ff19169055565b80516a636f6e736f6c652e6c6f67602083016000808483855afa5050505050565b6060612a3b82612c64565b612a4457600080fd5b6000612a4f836130f2565b905060008167ffffffffffffffff811115612a6c57612a6c6133b2565b604051908082528060200260200182016040528015612ab157816020015b6040805180820190915260008082526020820152815260200190600190039081612a8a5790505b5090506000612ac38560200151613077565b8560200151612ad2919061370c565b90506000805b84811015612b3b57612ae983613175565b9150604051806040016040528083815260200184815250848281518110612b1257612b12613724565b6020908102919091010152612b27828461370c565b925080612b33816137a6565b915050612ad8565b509195945050505050565b8051606090612b5457600080fd5b6000612b638360200151613077565b90506000818460000151612b77919061378f565b905060008167ffffffffffffffff811115612b9457612b946133b2565b6040519080825280601f01601f191660200182016040528015612bbe576020820181803683370190505b50905060008160200190506127e9848760200151612bdc919061370c565b8285613237565b6000612bf0600284613824565b15612c2a57601082612c03600286613838565b81518110612c1357612c13613724565b0160200151612c25919060f81c61384c565b612c5a565b601082612c38600286613838565b81518110612c4857612c48613724565b0160200151612c5a919060f81c61386e565b60f81b9392505050565b8051600090612c7557506000919050565b6020820151805160001a9060c0821015612c93575060009392505050565b5060019392505050565b80612ca757505050565b60208110612cdf5782518252612cbe60208461370c565b9250612ccb60208361370c565b9150612cd860208261378f565b9050612ca7565b60006001612cee83602061378f565b612cfa90610100613974565b612d04919061378f565b935183518516941916939093179091525050565b8051600090601514612d2957600080fd5b6105b482612777565b60606000826000015167ffffffffffffffff811115612d5357612d536133b2565b6040519080825280601f01601f191660200182016040528015612d7d576020820181803683370190505b509050805160001415612d905792915050565b6000816020019050612dab8460200151828660000151613237565b5092915050565b8051600090602114612dc357600080fd5b60008083602001516001612dd7919061370c565b51949350505050565b60008080612ded86611e87565b90506000815167ffffffffffffffff811115612e0b57612e0b6133b2565b6040519080825280601f01601f191660200182016040528015612e35576020820181803683370190505b509050845b8251612e46908761370c565b811015612ed1576000878281518110612e6157612e61613724565b01602001517fff000000000000000000000000000000000000000000000000000000000000001690508083612e96898561378f565b81518110612ea657612ea6613724565b60200101906001600160f81b031916908160001a905350508080612ec9906137a6565b915050612e3a565b50808051906020012082805190602001201415612ef15781519250612ef6565b600092505b509095945050505050565b600060208251612f119190613824565b15612f5e5760405162461bcd60e51b815260206004820152601460248201527f496e76616c69642070726f6f66206c656e677468000000000000000000000000604482015260640161065f565b600060208351612f6e9190613838565b9050612f7b816002613974565b8510612fc95760405162461bcd60e51b815260206004820152601560248201527f4c65616620696e64657820697320746f6f206269670000000000000000000000604482015260640161065f565b60008660205b8551811161306957858101519250612fe8600289613824565b61301d57604080516020810184905290810184905260600160405160208183030381529060405280519060200120915061304a565b60408051602081018590529081018390526060016040516020818303038152906040528051906020012091505b613055600289613838565b975061306260208261370c565b9050612fcf565b509094149695505050505050565b8051600090811a60808110156130905750600092915050565b60b88110806130ab575060c081108015906130ab575060f881105b156130b95750600192915050565b60c08110156130e6576130ce600160b8613980565b6130db9060ff168261378f565b61190190600161370c565b6130ce600160f8613980565b805160009061310357506000919050565b6000806131138460200151613077565b8460200151613122919061370c565b905060008460000151856020015161313a919061370c565b90505b8082101561316c5761314e82613175565b613158908361370c565b915082613164816137a6565b93505061313d565b50909392505050565b80516000908190811a60808110156131905760019150612dab565b60b88110156131b6576131a460808261378f565b6131af90600161370c565b9150612dab565b60c08110156131e35760b78103600185019450806020036101000a85510460018201810193505050612dab565b60f88110156131f7576131a460c08261378f565b60019390930151602084900360f7016101000a90049092017fffffffffffffffffffffffffffffffffffffffffffffffffffffffffffffff0a0192915050565b8061324157505050565b60208110613279578251825261325860208461370c565b925061326560208361370c565b915061327260208261378f565b9050613241565b80612cdf57505050565b60006020828403121561329557600080fd5b81357fffffffff000000000000000000000000000000000000000000000000000000008116811461190157600080fd5b6000602082840312156132d757600080fd5b5035919050565b6001600160a01b038116811461081157600080fd5b6000806040838503121561330657600080fd5b823591506020830135613318816132de565b809150509250929050565b60006020828403121561333557600080fd5b8135611901816132de565b6000806020838503121561335357600080fd5b823567ffffffffffffffff8082111561336b57600080fd5b818501915085601f83011261337f57600080fd5b81358181111561338e57600080fd5b8660208285010111156133a057600080fd5b60209290920196919550909350505050565b634e487b7160e01b600052604160045260246000fd5b604051601f8201601f1916810167ffffffffffffffff811182821017156133f1576133f16133b2565b604052919050565b600067ffffffffffffffff821115613413576134136133b2565b50601f01601f191660200190565b600082601f83011261343257600080fd5b8135613445613440826133f9565b6133c8565b81815284602083860101111561345a57600080fd5b816020850160208301376000918101602001919091529392505050565b6000806040838503121561348a57600080fd5b8235613495816132de565b9150602083013567ffffffffffffffff8111156134b157600080fd5b6134bd85828601613421565b9150509250929050565b600080604083850312156134da57600080fd5b82356134e5816132de565b91506020830135613318816132de565b60006020828403121561350757600080fd5b813567ffffffffffffffff81111561351e57600080fd5b61254b84828501613421565b60005b8381101561354557818101518382015260200161352d565b83811115613554576000848401525b50505050565b7f416363657373436f6e74726f6c3a206163636f756e742000000000000000000081526000835161359281601785016020880161352a565b7f206973206d697373696e6720726f6c652000000000000000000000000000000060179184019182015283516135cf81602884016020880161352a565b01602801949350505050565b600081518084526135f381602086016020860161352a565b601f01601f19169290920160200192915050565b60208152600061190160208301846135db565b6001600160a01b038316815260406020820152600061254b60408301846135db565b8381526000835161365481602085016020880161352a565b60209201918201929092526040019392505050565b60006020828403121561367b57600080fd5b815167ffffffffffffffff81111561369257600080fd5b8201601f810184136136a357600080fd5b80516136b1613440826133f9565b8181528560208385010111156136c657600080fd5b611ac382602083016020860161352a565b634e487b7160e01b600052601160045260246000fd5b6000816000190483118215151615613707576137076136d7565b500290565b6000821982111561371f5761371f6136d7565b500190565b634e487b7160e01b600052603260045260246000fd5b600081613749576137496136d7565b506000190190565b6000825161376381846020870161352a565b9190910192915050565b60408152600061378060408301856135db565b90508260208301529392505050565b6000828210156137a1576137a16136d7565b500390565b60006000198214156137ba576137ba6136d7565b5060010190565b600080600080600060a086880312156137d957600080fd5b855194506020860151935060408601519250606086015191506080860151613800816132de565b809150509295509295909350565b634e487b7160e01b600052601260045260246000fd5b6000826138335761383361380e565b500690565b6000826138475761384761380e565b500490565b600060ff83168061385f5761385f61380e565b8060ff84160691505092915050565b600060ff8316806138815761388161380e565b8060ff84160491505092915050565b600181815b808511156138cb5781600019048211156138b1576138b16136d7565b808516156138be57918102915b93841c9390800290613895565b509250929050565b6000826138e2575060016105b4565b816138ef575060006105b4565b8160018114613905576002811461390f5761392b565b60019150506105b4565b60ff841115613920576139206136d7565b50506001821b6105b4565b5060208310610133831016604e8410600b841016171561394e575081810a6105b4565b6139588383613890565b806000190482111561396c5761396c6136d7565b029392505050565b600061190183836138d3565b600060ff821660ff84168082101561399a5761399a6136d7565b9003939250505056fe416464726573733a206c6f772d6c6576656c2064656c65676174652063616c6c206661696c6564a264697066735822122013f32ae49100d92460de94e13679703ff7bbd667717a471dbd2ffdaeb93ec91264736f6c634300080b0033",
  "linkReferences": {},
  "deployedLinkReferences": {}
}