{
  "_format": "hh-sol-artifact-1",
  "contractName": "PolyZDAOChef",
  "sourceName": "contracts/polygon/PolyZDAOChef.sol",
  "abi": [
    {
      "anonymous": false,
      "inputs": [
        {
          "indexed": false,
          "internalType": "address",
          "name": "previousAdmin",
          "type": "address"
        },
        {
          "indexed": false,
          "internalType": "address",
          "name": "newAdmin",
          "type": "address"
        }
      ],
      "name": "AdminChanged",
      "type": "event"
    },
    {
      "anonymous": false,
      "inputs": [
        {
          "indexed": true,
          "internalType": "address",
          "name": "beacon",
          "type": "address"
        }
      ],
      "name": "BeaconUpgraded",
      "type": "event"
    },
    {
      "anonymous": false,
      "inputs": [
        {
          "indexed": true,
          "internalType": "uint256",
          "name": "_zDAOId",
          "type": "uint256"
        },
        {
          "indexed": true,
          "internalType": "uint256",
          "name": "_proposalId",
          "type": "uint256"
        },
        {
          "indexed": true,
          "internalType": "address",
          "name": "_voter",
          "type": "address"
        },
        {
          "indexed": false,
          "internalType": "uint256",
          "name": "_choice",
          "type": "uint256"
        }
      ],
      "name": "CastVote",
      "type": "event"
    },
    {
      "anonymous": false,
      "inputs": [
        {
          "indexed": true,
          "internalType": "address",
          "name": "_zDAO",
          "type": "address"
        },
        {
          "indexed": true,
          "internalType": "uint256",
          "name": "_daoId",
          "type": "uint256"
        },
        {
          "indexed": false,
          "internalType": "uint256",
          "name": "_duration",
          "type": "uint256"
        }
      ],
      "name": "DAOCreated",
      "type": "event"
    },
    {
      "anonymous": false,
      "inputs": [
        {
          "indexed": true,
          "internalType": "uint256",
          "name": "_daoId",
          "type": "uint256"
        }
      ],
      "name": "DAODestroyed",
      "type": "event"
    },
    {
      "anonymous": false,
      "inputs": [
        {
          "indexed": true,
          "internalType": "uint256",
          "name": "_daoId",
          "type": "uint256"
        },
        {
          "indexed": true,
          "internalType": "address",
          "name": "_token",
          "type": "address"
        }
      ],
      "name": "DAOTokenUpdated",
      "type": "event"
    },
    {
      "anonymous": false,
      "inputs": [
        {
          "indexed": true,
          "internalType": "address",
          "name": "previousOwner",
          "type": "address"
        },
        {
          "indexed": true,
          "internalType": "address",
          "name": "newOwner",
          "type": "address"
        }
      ],
      "name": "OwnershipTransferred",
      "type": "event"
    },
    {
      "anonymous": false,
      "inputs": [
        {
          "indexed": false,
          "internalType": "address",
          "name": "account",
          "type": "address"
        }
      ],
      "name": "Paused",
      "type": "event"
    },
    {
      "anonymous": false,
      "inputs": [
        {
          "indexed": true,
          "internalType": "uint256",
          "name": "_zDAOId",
          "type": "uint256"
        },
        {
          "indexed": true,
          "internalType": "uint256",
          "name": "_proposalId",
          "type": "uint256"
        },
        {
          "indexed": false,
          "internalType": "uint256",
          "name": "_voters",
          "type": "uint256"
        },
        {
          "indexed": false,
          "internalType": "uint256",
          "name": "_yes",
          "type": "uint256"
        },
        {
          "indexed": false,
          "internalType": "uint256",
          "name": "_no",
          "type": "uint256"
        }
      ],
      "name": "ProposalCalculated",
      "type": "event"
    },
    {
      "anonymous": false,
      "inputs": [
        {
          "indexed": true,
          "internalType": "uint256",
          "name": "_zDAOId",
          "type": "uint256"
        },
        {
          "indexed": true,
          "internalType": "uint256",
          "name": "_proposalId",
          "type": "uint256"
        }
      ],
      "name": "ProposalCanceled",
      "type": "event"
    },
    {
      "anonymous": false,
      "inputs": [
        {
          "indexed": true,
          "internalType": "uint256",
          "name": "_zDAOId",
          "type": "uint256"
        },
        {
          "indexed": true,
          "internalType": "uint256",
          "name": "_proposalId",
          "type": "uint256"
        },
        {
          "indexed": false,
          "internalType": "uint256",
          "name": "_startTimestamp",
          "type": "uint256"
        }
      ],
      "name": "ProposalCreated",
      "type": "event"
    },
    {
      "anonymous": false,
      "inputs": [
        {
          "indexed": true,
          "internalType": "uint256",
          "name": "_zDAOId",
          "type": "uint256"
        },
        {
          "indexed": true,
          "internalType": "uint256",
          "name": "_proposalId",
          "type": "uint256"
        }
      ],
      "name": "ProposalExecuted",
      "type": "event"
    },
    {
      "anonymous": false,
      "inputs": [
        {
          "indexed": true,
          "internalType": "bytes32",
          "name": "role",
          "type": "bytes32"
        },
        {
          "indexed": true,
          "internalType": "bytes32",
          "name": "previousAdminRole",
          "type": "bytes32"
        },
        {
          "indexed": true,
          "internalType": "bytes32",
          "name": "newAdminRole",
          "type": "bytes32"
        }
      ],
      "name": "RoleAdminChanged",
      "type": "event"
    },
    {
      "anonymous": false,
      "inputs": [
        {
          "indexed": true,
          "internalType": "bytes32",
          "name": "role",
          "type": "bytes32"
        },
        {
          "indexed": true,
          "internalType": "address",
          "name": "account",
          "type": "address"
        },
        {
          "indexed": true,
          "internalType": "address",
          "name": "sender",
          "type": "address"
        }
      ],
      "name": "RoleGranted",
      "type": "event"
    },
    {
      "anonymous": false,
      "inputs": [
        {
          "indexed": true,
          "internalType": "bytes32",
          "name": "role",
          "type": "bytes32"
        },
        {
          "indexed": true,
          "internalType": "address",
          "name": "account",
          "type": "address"
        },
        {
          "indexed": true,
          "internalType": "address",
          "name": "sender",
          "type": "address"
        }
      ],
      "name": "RoleRevoked",
      "type": "event"
    },
    {
      "anonymous": false,
      "inputs": [
        {
          "indexed": false,
          "internalType": "address",
          "name": "account",
          "type": "address"
        }
      ],
      "name": "Unpaused",
      "type": "event"
    },
    {
      "anonymous": false,
      "inputs": [
        {
          "indexed": true,
          "internalType": "address",
          "name": "implementation",
          "type": "address"
        }
      ],
      "name": "Upgraded",
      "type": "event"
    },
    {
      "inputs": [],
      "name": "DEFAULT_ADMIN_ROLE",
      "outputs": [
        {
          "internalType": "bytes32",
          "name": "",
          "type": "bytes32"
        }
      ],
      "stateMutability": "view",
      "type": "function"
    },
    {
      "inputs": [
        {
          "internalType": "contract Staking",
          "name": "_stakingBase",
          "type": "address"
        },
        {
          "internalType": "contract IChildStateSender",
          "name": "_childStateSender",
          "type": "address"
        },
        {
          "internalType": "address",
          "name": "_zDAOBase",
          "type": "address"
        },
        {
          "internalType": "contract IChildChainManager",
          "name": "_childChainManager",
          "type": "address"
        }
      ],
      "name": "__ZDAOChef_init",
      "outputs": [],
      "stateMutability": "nonpayable",
      "type": "function"
    },
    {
      "inputs": [
        {
          "internalType": "uint256",
          "name": "_daoId",
          "type": "uint256"
        },
        {
          "internalType": "uint256",
          "name": "_proposalId",
          "type": "uint256"
        }
      ],
      "name": "calculateProposal",
      "outputs": [],
      "stateMutability": "nonpayable",
      "type": "function"
    },
    {
      "inputs": [],
      "name": "childChainManager",
      "outputs": [
        {
          "internalType": "contract IChildChainManager",
          "name": "",
          "type": "address"
        }
      ],
      "stateMutability": "view",
      "type": "function"
    },
    {
      "inputs": [],
      "name": "childStateSender",
      "outputs": [
        {
          "internalType": "contract IChildStateSender",
          "name": "",
          "type": "address"
        }
      ],
      "stateMutability": "view",
      "type": "function"
    },
    {
      "inputs": [
        {
          "internalType": "bytes32",
          "name": "role",
          "type": "bytes32"
        }
      ],
      "name": "getRoleAdmin",
      "outputs": [
        {
          "internalType": "bytes32",
          "name": "",
          "type": "bytes32"
        }
      ],
      "stateMutability": "view",
      "type": "function"
    },
    {
      "inputs": [
        {
          "internalType": "uint256",
          "name": "_daoId",
          "type": "uint256"
        }
      ],
      "name": "getzDAOById",
      "outputs": [
        {
          "internalType": "contract IPolyZDAO",
          "name": "",
          "type": "address"
        }
      ],
      "stateMutability": "view",
      "type": "function"
    },
    {
      "inputs": [
        {
          "internalType": "bytes32",
          "name": "role",
          "type": "bytes32"
        },
        {
          "internalType": "address",
          "name": "account",
          "type": "address"
        }
      ],
      "name": "grantRole",
      "outputs": [],
      "stateMutability": "nonpayable",
      "type": "function"
    },
    {
      "inputs": [
        {
          "internalType": "bytes32",
          "name": "role",
          "type": "bytes32"
        },
        {
          "internalType": "address",
          "name": "account",
          "type": "address"
        }
      ],
      "name": "hasRole",
      "outputs": [
        {
          "internalType": "bool",
          "name": "",
          "type": "bool"
        }
      ],
      "stateMutability": "view",
      "type": "function"
    },
    {
      "inputs": [
        {
          "internalType": "uint256",
          "name": "_startIndex",
          "type": "uint256"
        },
        {
          "internalType": "uint256",
          "name": "_count",
          "type": "uint256"
        }
      ],
      "name": "listzDAOs",
      "outputs": [
        {
          "internalType": "contract IPolyZDAO[]",
          "name": "records",
          "type": "address[]"
        }
      ],
      "stateMutability": "view",
      "type": "function"
    },
    {
      "inputs": [],
      "name": "numberOfzDAOs",
      "outputs": [
        {
          "internalType": "uint256",
          "name": "",
          "type": "uint256"
        }
      ],
      "stateMutability": "view",
      "type": "function"
    },
    {
      "inputs": [],
      "name": "owner",
      "outputs": [
        {
          "internalType": "address",
          "name": "",
          "type": "address"
        }
      ],
      "stateMutability": "view",
      "type": "function"
    },
    {
      "inputs": [],
      "name": "paused",
      "outputs": [
        {
          "internalType": "bool",
          "name": "",
          "type": "bool"
        }
      ],
      "stateMutability": "view",
      "type": "function"
    },
    {
      "inputs": [
        {
          "internalType": "bytes",
          "name": "_message",
          "type": "bytes"
        }
      ],
      "name": "processMessageFromRoot",
      "outputs": [],
      "stateMutability": "nonpayable",
      "type": "function"
    },
    {
      "inputs": [],
      "name": "renounceOwnership",
      "outputs": [],
      "stateMutability": "nonpayable",
      "type": "function"
    },
    {
      "inputs": [
        {
          "internalType": "bytes32",
          "name": "role",
          "type": "bytes32"
        },
        {
          "internalType": "address",
          "name": "account",
          "type": "address"
        }
      ],
      "name": "renounceRole",
      "outputs": [],
      "stateMutability": "nonpayable",
      "type": "function"
    },
    {
      "inputs": [
        {
          "internalType": "bytes32",
          "name": "role",
          "type": "bytes32"
        },
        {
          "internalType": "address",
          "name": "account",
          "type": "address"
        }
      ],
      "name": "revokeRole",
      "outputs": [],
      "stateMutability": "nonpayable",
      "type": "function"
    },
    {
      "inputs": [
        {
          "internalType": "contract IChildChainManager",
          "name": "_childChainManager",
          "type": "address"
        }
      ],
      "name": "setChildChainManager",
      "outputs": [],
      "stateMutability": "nonpayable",
      "type": "function"
    },
    {
      "inputs": [
        {
          "internalType": "contract Staking",
          "name": "_staking",
          "type": "address"
        }
      ],
      "name": "setStaking",
      "outputs": [],
      "stateMutability": "nonpayable",
      "type": "function"
    },
    {
      "inputs": [
        {
          "internalType": "address",
          "name": "_zDAOBase",
          "type": "address"
        }
      ],
      "name": "setZDAOBase",
      "outputs": [],
      "stateMutability": "nonpayable",
      "type": "function"
    },
    {
      "inputs": [],
      "name": "staking",
      "outputs": [
        {
          "internalType": "contract Staking",
          "name": "",
          "type": "address"
        }
      ],
      "stateMutability": "view",
      "type": "function"
    },
    {
      "inputs": [
        {
          "internalType": "bytes4",
          "name": "interfaceId",
          "type": "bytes4"
        }
      ],
      "name": "supportsInterface",
      "outputs": [
        {
          "internalType": "bool",
          "name": "",
          "type": "bool"
        }
      ],
      "stateMutability": "view",
      "type": "function"
    },
    {
      "inputs": [
        {
          "internalType": "address",
          "name": "newOwner",
          "type": "address"
        }
      ],
      "name": "transferOwnership",
      "outputs": [],
      "stateMutability": "nonpayable",
      "type": "function"
    },
    {
      "inputs": [
        {
          "internalType": "address",
          "name": "newImplementation",
          "type": "address"
        }
      ],
      "name": "upgradeTo",
      "outputs": [],
      "stateMutability": "nonpayable",
      "type": "function"
    },
    {
      "inputs": [
        {
          "internalType": "address",
          "name": "newImplementation",
          "type": "address"
        },
        {
          "internalType": "bytes",
          "name": "data",
          "type": "bytes"
        }
      ],
      "name": "upgradeToAndCall",
      "outputs": [],
      "stateMutability": "payable",
      "type": "function"
    },
    {
      "inputs": [],
      "name": "version",
      "outputs": [
        {
          "internalType": "uint256",
          "name": "",
          "type": "uint256"
        }
      ],
      "stateMutability": "view",
      "type": "function"
    },
    {
      "inputs": [
        {
          "internalType": "uint256",
          "name": "_daoId",
          "type": "uint256"
        },
        {
          "internalType": "uint256",
          "name": "_proposalId",
          "type": "uint256"
        },
        {
          "internalType": "uint256",
          "name": "_choice",
          "type": "uint256"
        }
      ],
      "name": "vote",
      "outputs": [],
      "stateMutability": "nonpayable",
      "type": "function"
    },
    {
      "inputs": [],
      "name": "zDAOBase",
      "outputs": [
        {
          "internalType": "address",
          "name": "",
          "type": "address"
        }
      ],
      "stateMutability": "view",
      "type": "function"
    },
    {
      "inputs": [
        {
          "internalType": "uint256",
          "name": "",
          "type": "uint256"
        }
      ],
      "name": "zDAOIds",
      "outputs": [
        {
          "internalType": "uint256",
          "name": "",
          "type": "uint256"
        }
      ],
      "stateMutability": "view",
      "type": "function"
    },
    {
      "inputs": [
        {
          "internalType": "uint256",
          "name": "",
          "type": "uint256"
        }
      ],
      "name": "zDAOs",
      "outputs": [
        {
          "internalType": "contract IPolyZDAO",
          "name": "",
          "type": "address"
        }
      ],
      "stateMutability": "view",
      "type": "function"
    }
  ],
  "bytecode": "0x60a06040523060805234801561001457600080fd5b506080516141636100456000396000818161080a015281816108a2015281816109d40152610a6c01526141636000f3fe608060405260043610620001f35760003560e01c806383b35d58116200010b578063b74a2c8911620000a1578063d547741f116200006c578063d547741f1462000610578063f2fde38b1462000635578063f81880df146200065a578063fe0ed211146200067d57600080fd5b8063b74a2c891462000577578063ba636eef146200059a578063c67cdd0114620005b2578063c8291d8414620005ed57600080fd5b80638ff3909911620000e25780638ff3909914620004bd57806391d1485414620004e2578063946b22e2146200052c578063a217fddf146200056057600080fd5b806383b35d5814620004535780638a6655d614620004785780638da5cb5b146200049d57600080fd5b80634cf088d9116200018d5780636afe60f811620001585780636afe60f814620003cc578063715018a614620003f157806375b9317e1462000409578063764a81bb146200042e57600080fd5b80634cf088d9146200035f5780634f1ef286146200038257806354fd4d5014620003995780635c975abb14620003b257600080fd5b80633628e9f711620001ce5780633628e9f7146200029c57806336568abe14620002f05780633659cfe614620003155780633fc0d115146200033a57600080fd5b806301ffc9a714620001f8578063248a9ca314620002325780632f2ff15d1462000275575b600080fd5b3480156200020557600080fd5b506200021d620002173660046200325b565b620006a2565b60405190151581526020015b60405180910390f35b3480156200023f57600080fd5b5062000266620002513660046200329f565b60009081526097602052604090206001015490565b60405190815260200162000229565b3480156200028257600080fd5b506200029a62000294366004620032cf565b6200073c565b005b348015620002a957600080fd5b50620002d7620002bb3660046200329f565b610195602052600090815260409020546001600160a01b031681565b6040516001600160a01b03909116815260200162000229565b348015620002fd57600080fd5b506200029a6200030f366004620032cf565b6200076b565b3480156200032257600080fd5b506200029a6200033436600462003302565b620007ff565b3480156200034757600080fd5b5062000266620003593660046200329f565b620009a6565b3480156200036c57600080fd5b5061019254620002d7906001600160a01b031681565b6200029a6200039336600462003338565b620009c9565b348015620003a657600080fd5b50620002666101915481565b348015620003bf57600080fd5b5060fb5460ff166200021d565b348015620003d957600080fd5b506200029a620003eb36600462003408565b62000b5d565b348015620003fe57600080fd5b506200029a62000dfd565b3480156200041657600080fd5b506200029a620004283660046200342b565b62000e67565b3480156200043b57600080fd5b506200029a6200044d36600462003302565b62000fd8565b3480156200046057600080fd5b506200029a6200047236600462003490565b62001064565b3480156200048557600080fd5b506200029a6200049736600462003507565b62001102565b348015620004aa57600080fd5b506033546001600160a01b0316620002d7565b348015620004ca57600080fd5b506200029a620004dc36600462003302565b620012ec565b348015620004ef57600080fd5b506200021d62000501366004620032cf565b60009182526097602090815260408084206001600160a01b0393909316845291905290205460ff1690565b3480156200053957600080fd5b50620005516200054b36600462003408565b62001378565b60405162000229919062003534565b3480156200056d57600080fd5b5062000266600081565b3480156200058457600080fd5b5061019454620002d7906001600160a01b031681565b348015620005a757600080fd5b506101965462000266565b348015620005bf57600080fd5b50620002d7620005d13660046200329f565b600090815261019560205260409020546001600160a01b031690565b348015620005fa57600080fd5b5061019754620002d7906001600160a01b031681565b3480156200061d57600080fd5b506200029a6200062f366004620032cf565b6200149b565b3480156200064257600080fd5b506200029a6200065436600462003302565b620014c5565b3480156200066757600080fd5b5061019354620002d7906001600160a01b031681565b3480156200068a57600080fd5b506200029a6200069c36600462003302565b620015aa565b60007fffffffff0000000000000000000000000000000000000000000000000000000082167f7965db0b0000000000000000000000000000000000000000000000000000000014806200073657507f01ffc9a7000000000000000000000000000000000000000000000000000000007fffffffff000000000000000000000000000000000000000000000000000000008316145b92915050565b6000828152609760205260409020600101546200075a813362001636565b620007668383620016bf565b505050565b6001600160a01b0381163314620007ef5760405162461bcd60e51b815260206004820152602f60248201527f416363657373436f6e74726f6c3a2063616e206f6e6c792072656e6f756e636560448201527f20726f6c657320666f722073656c66000000000000000000000000000000000060648201526084015b60405180910390fd5b620007fb828262001763565b5050565b306001600160a01b037f0000000000000000000000000000000000000000000000000000000000000000161415620008a05760405162461bcd60e51b815260206004820152602c60248201527f46756e6374696f6e206d7573742062652063616c6c6564207468726f7567682060448201527f64656c656761746563616c6c00000000000000000000000000000000000000006064820152608401620007e6565b7f00000000000000000000000000000000000000000000000000000000000000006001600160a01b0316620008fc7f360894a13ba1a3210667c828492db98dca3e2076cc3735a920a3ca505d382bbc546001600160a01b031690565b6001600160a01b0316146200097a5760405162461bcd60e51b815260206004820152602c60248201527f46756e6374696f6e206d7573742062652063616c6c6564207468726f7567682060448201527f6163746976652070726f787900000000000000000000000000000000000000006064820152608401620007e6565b6200098581620017e7565b60408051600080825260208201909252620009a39183919062001843565b50565b6101968181548110620009b857600080fd5b600091825260209091200154905081565b306001600160a01b037f000000000000000000000000000000000000000000000000000000000000000016141562000a6a5760405162461bcd60e51b815260206004820152602c60248201527f46756e6374696f6e206d7573742062652063616c6c6564207468726f7567682060448201527f64656c656761746563616c6c00000000000000000000000000000000000000006064820152608401620007e6565b7f00000000000000000000000000000000000000000000000000000000000000006001600160a01b031662000ac67f360894a13ba1a3210667c828492db98dca3e2076cc3735a920a3ca505d382bbc546001600160a01b031690565b6001600160a01b03161462000b445760405162461bcd60e51b815260206004820152602c60248201527f46756e6374696f6e206d7573742062652063616c6c6564207468726f7567682060448201527f6163746976652070726f787900000000000000000000000000000000000000006064820152608401620007e6565b62000b4f82620017e7565b620007fb8282600162001843565b6000828152610195602052604090205482906001600160a01b03161580159062000c195750600081815261019560209081526040918290205482517f359cbbc900000000000000000000000000000000000000000000000000000000815292516001600160a01b039091169263359cbbc99260048083019391928290030181865afa15801562000bf1573d6000803e3d6000fd5b505050506040513d601f19601f8201168201806040525081019062000c17919062003583565b155b62000c675760405162461bcd60e51b815260206004820152600c60248201527f496e76616c6964207a44414f00000000000000000000000000000000000000006044820152606401620007e6565b600083815261019560205260408082205490517f458d567300000000000000000000000000000000000000000000000000000000815260048101859052829182916001600160a01b039091169063458d5673906024016060604051808303816000875af115801562000cdd573d6000803e3d6000fd5b505050506040513d601f19601f8201168201806040525081019062000d039190620035a7565b60408051848152602081018490529081018290529295509093509150859087907fc5f4ded6fe856e23f8c51620f7792940657a825849eb7efc3ef36aa77951b7929060600160405180910390a3610193546001600160a01b0316639a113ee260066040805160208101929092528101899052606081018890526080810186905260a0810185905260c0810184905260e0016040516020818303038152906040526040518263ffffffff1660e01b815260040162000dc1919062003637565b600060405180830381600087803b15801562000ddc57600080fd5b505af115801562000df1573d6000803e3d6000fd5b50505050505050505050565b6033546001600160a01b0316331462000e595760405162461bcd60e51b815260206004820181905260248201527f4f776e61626c653a2063616c6c6572206973206e6f7420746865206f776e65726044820152606401620007e6565b62000e65600062001a0e565b565b600054610100900460ff1662000e845760005460ff161562000e88565b303b155b62000efc5760405162461bcd60e51b815260206004820152602e60248201527f496e697469616c697a61626c653a20636f6e747261637420697320616c72656160448201527f647920696e697469616c697a65640000000000000000000000000000000000006064820152608401620007e6565b600054610100900460ff1615801562000f3c57600080547fffffffffffffffffffffffffffffffffffffffffffffffffffffffffffff0000166101011790555b62000f4662001a6d565b61019280546001600160a01b0380881673ffffffffffffffffffffffffffffffffffffffff199283161790925561019380548784169083161790556101948054868416908316179055610197805492851692909116919091179055801562000fd157600080547fffffffffffffffffffffffffffffffffffffffffffffffffffffffffffff00ff1690555b5050505050565b6033546001600160a01b03163314620010345760405162461bcd60e51b815260206004820181905260248201527f4f776e61626c653a2063616c6c6572206973206e6f7420746865206f776e65726044820152606401620007e6565b610197805473ffffffffffffffffffffffffffffffffffffffff19166001600160a01b0392909216919091179055565b610193546001600160a01b03163314620010c15760405162461bcd60e51b815260206004820152601260248201527f4e6f7420612073746174652073656e64657200000000000000000000000000006044820152606401620007e6565b620007fb82828080601f01602080910402602001604051908101604052809392919081815260200183838082843760009201919091525062001b5292505050565b6000838152610195602052604090205483906001600160a01b031615801590620011be5750600081815261019560209081526040918290205482517f359cbbc900000000000000000000000000000000000000000000000000000000815292516001600160a01b039091169263359cbbc99260048083019391928290030181865afa15801562001196573d6000803e3d6000fd5b505050506040513d601f19601f82011682018060405250810190620011bc919062003583565b155b6200120c5760405162461bcd60e51b815260206004820152600c60248201527f496e76616c6964207a44414f00000000000000000000000000000000000000006044820152606401620007e6565b60008481526101956020526040908190205490517f4de8737c00000000000000000000000000000000000000000000000000000000815260048101859052336024820152604481018490526001600160a01b0390911690634de8737c90606401600060405180830381600087803b1580156200128757600080fd5b505af11580156200129c573d6000803e3d6000fd5b50505050336001600160a01b031683857f94ecd3a313f078703294eda94e7e660df70e5926334b9b92da34ab5e21f24fe185604051620012de91815260200190565b60405180910390a450505050565b6033546001600160a01b03163314620013485760405162461bcd60e51b815260206004820181905260248201527f4f776e61626c653a2063616c6c6572206973206e6f7420746865206f776e65726044820152606401620007e6565b610192805473ffffffffffffffffffffffffffffffffffffffff19166001600160a01b0392909216919091179055565b6101965460609082906200138e90859062003662565b811115620013aa5761019654620013a790859062003662565b90505b8067ffffffffffffffff811115620013c657620013c662003322565b604051908082528060200260200182016040528015620013f0578160200160208202803683370190505b50915060005b81811015620014935761019560006101966200141384896200367c565b8154811062001426576200142662003697565b9060005260206000200154815260200190815260200160002060009054906101000a90046001600160a01b031683828151811062001468576200146862003697565b6001600160a01b03909216602092830291909101909101526200148b81620036ad565b9050620013f6565b505092915050565b600082815260976020526040902060010154620014b9813362001636565b62000766838362001763565b6033546001600160a01b03163314620015215760405162461bcd60e51b815260206004820181905260248201527f4f776e61626c653a2063616c6c6572206973206e6f7420746865206f776e65726044820152606401620007e6565b6001600160a01b0381166200159f5760405162461bcd60e51b815260206004820152602660248201527f4f776e61626c653a206e6577206f776e657220697320746865207a65726f206160448201527f64647265737300000000000000000000000000000000000000000000000000006064820152608401620007e6565b620009a38162001a0e565b6033546001600160a01b03163314620016065760405162461bcd60e51b815260206004820181905260248201527f4f776e61626c653a2063616c6c6572206973206e6f7420746865206f776e65726044820152606401620007e6565b610194805473ffffffffffffffffffffffffffffffffffffffff19166001600160a01b0392909216919091179055565b60008281526097602090815260408083206001600160a01b038516845290915290205460ff16620007fb5762001677816001600160a01b0316601462001bea565b6200168483602062001bea565b60405160200162001697929190620036cb565b60408051601f198184030181529082905262461bcd60e51b8252620007e69160040162003637565b60008281526097602090815260408083206001600160a01b038516845290915290205460ff16620007fb5760008281526097602090815260408083206001600160a01b03851684529091529020805460ff191660011790556200171f3390565b6001600160a01b0316816001600160a01b0316837f2f8788117e7eff1d82e926ec794901d17c78024a50270940304540a733656f0d60405160405180910390a45050565b60008281526097602090815260408083206001600160a01b038516845290915290205460ff1615620007fb5760008281526097602090815260408083206001600160a01b0385168085529252808320805460ff1916905551339285917ff6391f5c32d9c69d2a47ea670b442974b53935d1edc7fd64eb21e047a839171b9190a45050565b6033546001600160a01b03163314620009a35760405162461bcd60e51b815260206004820181905260248201527f4f776e61626c653a2063616c6c6572206973206e6f7420746865206f776e65726044820152606401620007e6565b6000620018777f360894a13ba1a3210667c828492db98dca3e2076cc3735a920a3ca505d382bbc546001600160a01b031690565b9050620018848462001e38565b600083511180620018925750815b15620018a657620018a4848462001efc565b505b7f4910fdfa16fed3260ed0e7147f7cc6da11a60208b5b9406d12a635614ffd9143805460ff1662000fd157805460ff191660011781556040516001600160a01b03831660248201526200195690869060440160408051601f198184030181529190526020810180517bffffffffffffffffffffffffffffffffffffffffffffffffffffffff167f3659cfe60000000000000000000000000000000000000000000000000000000017905262001efc565b50805460ff191681557f360894a13ba1a3210667c828492db98dca3e2076cc3735a920a3ca505d382bbc546001600160a01b0383811691161462001a035760405162461bcd60e51b815260206004820152602f60248201527f45524331393637557067726164653a207570677261646520627265616b73206660448201527f75727468657220757067726164657300000000000000000000000000000000006064820152608401620007e6565b62000fd18562002007565b603380546001600160a01b0383811673ffffffffffffffffffffffffffffffffffffffff19831681179093556040519116919082907f8be0079c531659141344cd1fd0a4f28419497f9722a3daafe3b4186f6b6457e090600090a35050565b600054610100900460ff1662001ada5760405162461bcd60e51b815260206004820152602b60248201527f496e697469616c697a61626c653a20636f6e7472616374206973206e6f74206960448201526a6e697469616c697a696e6760a81b6064820152608401620007e6565b62001ae462002049565b62001aee620020ca565b62001af862002155565b62001b02620021cc565b62001b0c6200224d565b6001610191819055604080518082019091528181527f7600000000000000000000000000000000000000000000000000000000000000602082015262000e6591620022ba565b60008180602001905181019062001b6a919062003750565b9050600181141562001b8157620007668262002331565b600281141562001b9657620007fb82620025a7565b600381141562001bab57620007fb826200274a565b600481141562001bc057620007fb826200296f565b600581141562001bd557620007fb8262002b7f565b6007811415620007fb57620007fb8262002d8f565b6060600062001bfb8360026200376a565b62001c089060026200367c565b67ffffffffffffffff81111562001c235762001c2362003322565b6040519080825280601f01601f19166020018201604052801562001c4e576020820181803683370190505b5090507f30000000000000000000000000000000000000000000000000000000000000008160008151811062001c885762001c8862003697565b60200101907effffffffffffffffffffffffffffffffffffffffffffffffffffffffffffff1916908160001a9053507f78000000000000000000000000000000000000000000000000000000000000008160018151811062001cee5762001cee62003697565b60200101907effffffffffffffffffffffffffffffffffffffffffffffffffffffffffffff1916908160001a905350600062001d2c8460026200376a565b62001d399060016200367c565b90505b600181111562001de0577f303132333435363738396162636465660000000000000000000000000000000085600f166010811062001d7e5762001d7e62003697565b1a60f81b82828151811062001d975762001d9762003697565b60200101907effffffffffffffffffffffffffffffffffffffffffffffffffffffffffffff1916908160001a90535060049490941c9362001dd8816200378c565b905062001d3c565b50831562001e315760405162461bcd60e51b815260206004820181905260248201527f537472696e67733a20686578206c656e67746820696e73756666696369656e746044820152606401620007e6565b9392505050565b803b62001eae5760405162461bcd60e51b815260206004820152602d60248201527f455243313936373a206e657720696d706c656d656e746174696f6e206973206e60448201527f6f74206120636f6e7472616374000000000000000000000000000000000000006064820152608401620007e6565b7f360894a13ba1a3210667c828492db98dca3e2076cc3735a920a3ca505d382bbc805473ffffffffffffffffffffffffffffffffffffffff19166001600160a01b0392909216919091179055565b6060823b62001f745760405162461bcd60e51b815260206004820152602660248201527f416464726573733a2064656c65676174652063616c6c20746f206e6f6e2d636f60448201527f6e747261637400000000000000000000000000000000000000000000000000006064820152608401620007e6565b600080846001600160a01b03168460405162001f919190620037a6565b600060405180830381855af49150503d806000811462001fce576040519150601f19603f3d011682016040523d82523d6000602084013e62001fd3565b606091505b509150915062001ffe8282604051806060016040528060278152602001620041076027913962002fa9565b95945050505050565b620020128162001e38565b6040516001600160a01b038216907fbc7cd75a20ee27fd9adebab32041f755214dbc6bffa90cc0225b39da2e5c2d3b90600090a250565b600054610100900460ff16620020b65760405162461bcd60e51b815260206004820152602b60248201527f496e697469616c697a61626c653a20636f6e7472616374206973206e6f74206960448201526a6e697469616c697a696e6760a81b6064820152608401620007e6565b620020c062002fe7565b62000e6562003054565b600054610100900460ff16620021375760405162461bcd60e51b815260206004820152602b60248201527f496e697469616c697a61626c653a20636f6e7472616374206973206e6f74206960448201526a6e697469616c697a696e6760a81b6064820152608401620007e6565b6200214162002fe7565b6200214b62002fe7565b62000e6562002fe7565b600054610100900460ff16620021c25760405162461bcd60e51b815260206004820152602b60248201527f496e697469616c697a61626c653a20636f6e7472616374206973206e6f74206960448201526a6e697469616c697a696e6760a81b6064820152608401620007e6565b62000e65620030cc565b600054610100900460ff16620022395760405162461bcd60e51b815260206004820152602b60248201527f496e697469616c697a61626c653a20636f6e7472616374206973206e6f74206960448201526a6e697469616c697a696e6760a81b6064820152608401620007e6565b6200224362002fe7565b62000e6562003140565b600054610100900460ff16620021415760405162461bcd60e51b815260206004820152602b60248201527f496e697469616c697a61626c653a20636f6e7472616374206973206e6f74206960448201526a6e697469616c697a696e6760a81b6064820152608401620007e6565b620007fb8282604051602401620022d3929190620037c4565b60408051601f198184030181529190526020810180517bffffffffffffffffffffffffffffffffffffffffffffffffffffffff167f9710a9d000000000000000000000000000000000000000000000000000000000179052620031b9565b6000806000806000858060200190518101906200234f9190620037e8565b60008381526101956020526040902054939750919550935091506001600160a01b031615620023c15760405162461bcd60e51b815260206004820152601860248201527f7a44414f2077617320616c7265616479206372656174656400000000000000006044820152606401620007e6565b610197546040517fea60c7c40000000000000000000000000000000000000000000000000000000081526001600160a01b038381166004830152600092169063ea60c7c490602401602060405180830381865afa15801562002427573d6000803e3d6000fd5b505050506040513d601f19601f820116820180604052508101906200244d919062003821565b6101945461019254604080513060248201526001600160a01b039283166044820152606481018990526084810188905284831660a4808301919091528251808303909101815260c49091019091526020810180517bffffffffffffffffffffffffffffffffffffffffffffffffffffffff167f3327374f00000000000000000000000000000000000000000000000000000000179052929350600092620024f9929190911690620031da565b600086815261019560209081526040808320805473ffffffffffffffffffffffffffffffffffffffff19166001600160a01b038616908117909155610196805460018101825594527f828feda00a4b64eb35101b6df8f6c29717b1ea6bae5dd03d3ddada8de0a9e7cb9093018990555187815292935087927f55ae7d977c54f7ef6855e5c3eeb3ba02e0ea9733775176712ab87eae15b477b3910160405180910390a3979650505050505050565b60008082806020019051810190620025c0919062003841565b60008181526101956020908152604091829020548251631519361360e01b8152925194965092945084936001600160a01b039093169263151936139260048082019392918290030181865afa1580156200261e573d6000803e3d6000fd5b505050506040513d601f19601f8201168201806040525081019062002644919062003750565b14620026935760405162461bcd60e51b815260206004820152600c60248201527f496e76616c6964207a44414f00000000000000000000000000000000000000006044820152606401620007e6565b60008181526101956020526040908190205490517f472858b4000000000000000000000000000000000000000000000000000000008152600160048201526001600160a01b039091169063472858b490602401600060405180830381600087803b1580156200270157600080fd5b505af115801562002716573d6000803e3d6000fd5b50506040518392507f62d16daa2b15fec62c2624e8279f21d75a1e6d3f8dd790378d3129985765cb4a9150600090a2505050565b600080600083806020019051810190620027659190620035a7565b6000828152610195602052604090205492955090935091506001600160a01b0316620027d45760405162461bcd60e51b815260206004820152601460248201527f4e6f742063726561746564207a44414f207965740000000000000000000000006044820152606401620007e6565b60008281526101956020908152604091829020548251631519361360e01b8152925185936001600160a01b0390921692631519361392600480820193918290030181865afa1580156200282b573d6000803e3d6000fd5b505050506040513d601f19601f8201168201806040525081019062002851919062003750565b14620028a05760405162461bcd60e51b815260206004820152601460248201527f53796e63207a44414f20696e666f206572726f720000000000000000000000006044820152606401620007e6565b60008281526101956020526040908190205490517f6935bda6000000000000000000000000000000000000000000000000000000008152600481018390524260248201526001600160a01b0390911690636935bda690604401600060405180830381600087803b1580156200291457600080fd5b505af115801562002929573d6000803e3d6000fd5b5050505080827fa6a21b90631faacde52b977eb6e15e5707522fbbba8eddef55ed173ffde48efa426040516200296191815260200190565b60405180910390a350505050565b6000806000838060200190518101906200298a9190620035a7565b6000828152610195602052604090205492955090935091506001600160a01b0316620029f95760405162461bcd60e51b815260206004820152601460248201527f4e6f742063726561746564207a44414f207965740000000000000000000000006044820152606401620007e6565b60008281526101956020908152604091829020548251631519361360e01b8152925185936001600160a01b0390921692631519361392600480820193918290030181865afa15801562002a50573d6000803e3d6000fd5b505050506040513d601f19601f8201168201806040525081019062002a76919062003750565b1462002ac55760405162461bcd60e51b815260206004820152601460248201527f53796e63207a44414f20696e666f206572726f720000000000000000000000006044820152606401620007e6565b60008281526101956020526040908190205490517fe0a8f6f5000000000000000000000000000000000000000000000000000000008152600481018390526001600160a01b039091169063e0a8f6f590602401600060405180830381600087803b15801562002b3357600080fd5b505af115801562002b48573d6000803e3d6000fd5b50506040518392508491507f740823f5b237fe3c86a5ff1cd7a2345263cab48eaddc595c9bbb35d86c6cc42190600090a350505050565b60008060008380602001905181019062002b9a9190620035a7565b6000828152610195602052604090205492955090935091506001600160a01b031662002c095760405162461bcd60e51b815260206004820152601460248201527f4e6f742063726561746564207a44414f207965740000000000000000000000006044820152606401620007e6565b60008281526101956020908152604091829020548251631519361360e01b8152925185936001600160a01b0390921692631519361392600480820193918290030181865afa15801562002c60573d6000803e3d6000fd5b505050506040513d601f19601f8201168201806040525081019062002c86919062003750565b1462002cd55760405162461bcd60e51b815260206004820152601460248201527f53796e63207a44414f20696e666f206572726f720000000000000000000000006044820152606401620007e6565b60008281526101956020526040908190205490517f0d61b519000000000000000000000000000000000000000000000000000000008152600481018390526001600160a01b0390911690630d61b51990602401600060405180830381600087803b15801562002d4357600080fd5b505af115801562002d58573d6000803e3d6000fd5b50506040518392508491507ff758fc91e01b00ea6b4a6138756f7f28e021f9bf21db6dbf8c36c88eb737257a90600090a350505050565b60008060008380602001905181019062002daa919062003866565b6000828152610195602052604090205492955090935091506001600160a01b031662002e195760405162461bcd60e51b815260206004820152601460248201527f4e6f742063726561746564207a44414f207965740000000000000000000000006044820152606401620007e6565b60008281526101956020908152604091829020548251631519361360e01b8152925185936001600160a01b0390921692631519361392600480820193918290030181865afa15801562002e70573d6000803e3d6000fd5b505050506040513d601f19601f8201168201806040525081019062002e96919062003750565b1462002ee55760405162461bcd60e51b815260206004820152601460248201527f53796e63207a44414f20696e666f206572726f720000000000000000000000006044820152606401620007e6565b60008281526101956020526040908190205490517f7ad3def20000000000000000000000000000000000000000000000000000000081526001600160a01b03838116600483015290911690637ad3def290602401600060405180830381600087803b15801562002f5457600080fd5b505af115801562002f69573d6000803e3d6000fd5b50506040516001600160a01b03841692508491507fd146e07bf65eebfa90bad123dd24a1b3d0b8fc783777272c1a9fec693b16d09c90600090a350505050565b6060831562002fba57508162001e31565b82511562002fcb5782518084602001fd5b8160405162461bcd60e51b8152600401620007e6919062003637565b600054610100900460ff1662000e655760405162461bcd60e51b815260206004820152602b60248201527f496e697469616c697a61626c653a20636f6e7472616374206973206e6f74206960448201526a6e697469616c697a696e6760a81b6064820152608401620007e6565b600054610100900460ff16620030c15760405162461bcd60e51b815260206004820152602b60248201527f496e697469616c697a61626c653a20636f6e7472616374206973206e6f74206960448201526a6e697469616c697a696e6760a81b6064820152608401620007e6565b62000e653362001a0e565b600054610100900460ff16620031395760405162461bcd60e51b815260206004820152602b60248201527f496e697469616c697a61626c653a20636f6e7472616374206973206e6f74206960448201526a6e697469616c697a696e6760a81b6064820152608401620007e6565b600160c955565b600054610100900460ff16620031ad5760405162461bcd60e51b815260206004820152602b60248201527f496e697469616c697a61626c653a20636f6e7472616374206973206e6f74206960448201526a6e697469616c697a696e6760a81b6064820152608401620007e6565b60fb805460ff19169055565b80516a636f6e736f6c652e6c6f67602083016000808483855afa5050505050565b60004382604051602001620031f1929190620038a2565b60405160208183030381529060405280519060200120838360405162003217906200324d565b62003224929190620038ca565b8190604051809103906000f590508015801562003245573d6000803e3d6000fd5b509392505050565b61081080620038f783390190565b6000602082840312156200326e57600080fd5b81357fffffffff000000000000000000000000000000000000000000000000000000008116811462001e3157600080fd5b600060208284031215620032b257600080fd5b5035919050565b6001600160a01b0381168114620009a357600080fd5b60008060408385031215620032e357600080fd5b823591506020830135620032f781620032b9565b809150509250929050565b6000602082840312156200331557600080fd5b813562001e3181620032b9565b634e487b7160e01b600052604160045260246000fd5b600080604083850312156200334c57600080fd5b82356200335981620032b9565b9150602083013567ffffffffffffffff808211156200337757600080fd5b818501915085601f8301126200338c57600080fd5b813581811115620033a157620033a162003322565b604051601f8201601f19908116603f01168101908382118183101715620033cc57620033cc62003322565b81604052828152886020848701011115620033e657600080fd5b8260208601602083013760006020848301015280955050505050509250929050565b600080604083850312156200341c57600080fd5b50508035926020909101359150565b600080600080608085870312156200344257600080fd5b84356200344f81620032b9565b935060208501356200346181620032b9565b925060408501356200347381620032b9565b915060608501356200348581620032b9565b939692955090935050565b60008060208385031215620034a457600080fd5b823567ffffffffffffffff80821115620034bd57600080fd5b818501915085601f830112620034d257600080fd5b813581811115620034e257600080fd5b866020828501011115620034f557600080fd5b60209290920196919550909350505050565b6000806000606084860312156200351d57600080fd5b505081359360208301359350604090920135919050565b6020808252825182820181905260009190848201906040850190845b81811015620035775783516001600160a01b03168352928401929184019160010162003550565b50909695505050505050565b6000602082840312156200359657600080fd5b8151801515811462001e3157600080fd5b600080600060608486031215620035bd57600080fd5b8351925060208401519150604084015190509250925092565b60005b83811015620035f3578181015183820152602001620035d9565b8381111562003603576000848401525b50505050565b6000815180845262003623816020860160208601620035d6565b601f01601f19169290920160200192915050565b60208152600062001e31602083018462003609565b634e487b7160e01b600052601160045260246000fd5b6000828210156200367757620036776200364c565b500390565b600082198211156200369257620036926200364c565b500190565b634e487b7160e01b600052603260045260246000fd5b6000600019821415620036c457620036c46200364c565b5060010190565b7f416363657373436f6e74726f6c3a206163636f756e742000000000000000000081526000835162003705816017850160208801620035d6565b7f206973206d697373696e6720726f6c6520000000000000000000000000000000601791840191820152835162003744816028840160208801620035d6565b01602801949350505050565b6000602082840312156200376357600080fd5b5051919050565b60008160001904831182151516156200378757620037876200364c565b500290565b6000816200379e576200379e6200364c565b506000190190565b60008251620037ba818460208701620035d6565b9190910192915050565b604081526000620037d9604083018562003609565b90508260208301529392505050565b60008060008060808587031215620037ff57600080fd5b84519350602085015192506040850151915060608501516200348581620032b9565b6000602082840312156200383457600080fd5b815162001e3181620032b9565b600080604083850312156200385557600080fd5b505080516020909101519092909150565b6000806000606084860312156200387c57600080fd5b835192506020840151915060408401516200389781620032b9565b809150509250925092565b82815260008251620038bc816020850160208701620035d6565b919091016020019392505050565b6001600160a01b0383168152604060208201526000620038ee604083018462003609565b94935050505056fe608060405260405161081038038061081083398101604081905261002291610337565b61004d60017f360894a13ba1a3210667c828492db98dca3e2076cc3735a920a3ca505d382bbd610405565b6000805160206107c9833981519152146100695761006961042a565b6100758282600061007c565b505061048f565b610085836100b2565b6000825111806100925750805b156100ad576100ab83836100f260201b6100291760201c565b505b505050565b6100bb8161011e565b6040516001600160a01b038216907fbc7cd75a20ee27fd9adebab32041f755214dbc6bffa90cc0225b39da2e5c2d3b90600090a250565b606061011783836040518060600160405280602781526020016107e9602791396101de565b9392505050565b610131816102b360201b6100551760201c565b6101985760405162461bcd60e51b815260206004820152602d60248201527f455243313936373a206e657720696d706c656d656e746174696f6e206973206e60448201526c1bdd08184818dbdb9d1c9858dd609a1b60648201526084015b60405180910390fd5b806101bd6000805160206107c983398151915260001b6102b960201b61005b1760201c565b80546001600160a01b0319166001600160a01b039290921691909117905550565b6060833b61023d5760405162461bcd60e51b815260206004820152602660248201527f416464726573733a2064656c65676174652063616c6c20746f206e6f6e2d636f6044820152651b9d1c9858dd60d21b606482015260840161018f565b600080856001600160a01b0316856040516102589190610440565b600060405180830381855af49150503d8060008114610293576040519150601f19603f3d011682016040523d82523d6000602084013e610298565b606091505b5090925090506102a98282866102bc565b9695505050505050565b3b151590565b90565b606083156102cb575081610117565b8251156102db5782518084602001fd5b8160405162461bcd60e51b815260040161018f919061045c565b634e487b7160e01b600052604160045260246000fd5b60005b8381101561032657818101518382015260200161030e565b838111156100ab5750506000910152565b6000806040838503121561034a57600080fd5b82516001600160a01b038116811461036157600080fd5b60208401519092506001600160401b038082111561037e57600080fd5b818501915085601f83011261039257600080fd5b8151818111156103a4576103a46102f5565b604051601f8201601f19908116603f011681019083821181831017156103cc576103cc6102f5565b816040528281528860208487010111156103e557600080fd5b6103f683602083016020880161030b565b80955050505050509250929050565b60008282101561042557634e487b7160e01b600052601160045260246000fd5b500390565b634e487b7160e01b600052600160045260246000fd5b6000825161045281846020870161030b565b9190910192915050565b602081526000825180602084015261047b81604085016020870161030b565b601f01601f19169190910160400192915050565b61032b8061049e6000396000f3fe60806040523661001357610011610017565b005b6100115b61002761002261005e565b6100a3565b565b606061004e83836040518060600160405280602781526020016102cf602791396100c7565b9392505050565b3b151590565b90565b600061009e7f360894a13ba1a3210667c828492db98dca3e2076cc3735a920a3ca505d382bbc5473ffffffffffffffffffffffffffffffffffffffff1690565b905090565b3660008037600080366000845af43d6000803e8080156100c2573d6000f35b3d6000fd5b6060833b61015c576040517f08c379a000000000000000000000000000000000000000000000000000000000815260206004820152602660248201527f416464726573733a2064656c65676174652063616c6c20746f206e6f6e2d636f60448201527f6e7472616374000000000000000000000000000000000000000000000000000060648201526084015b60405180910390fd5b6000808573ffffffffffffffffffffffffffffffffffffffff16856040516101849190610261565b600060405180830381855af49150503d80600081146101bf576040519150601f19603f3d011682016040523d82523d6000602084013e6101c4565b606091505b50915091506101d48282866101de565b9695505050505050565b606083156101ed57508161004e565b8251156101fd5782518084602001fd5b816040517f08c379a0000000000000000000000000000000000000000000000000000000008152600401610153919061027d565b60005b8381101561024c578181015183820152602001610234565b8381111561025b576000848401525b50505050565b60008251610273818460208701610231565b9190910192915050565b602081526000825180602084015261029c816040850160208701610231565b601f017fffffffffffffffffffffffffffffffffffffffffffffffffffffffffffffffe016919091016040019291505056fe416464726573733a206c6f772d6c6576656c2064656c65676174652063616c6c206661696c6564a2646970667358221220622d8852ce84c52c9c688b923393379a20b2b81b950c780b39a7458efb7431b964736f6c634300080b0033360894a13ba1a3210667c828492db98dca3e2076cc3735a920a3ca505d382bbc416464726573733a206c6f772d6c6576656c2064656c65676174652063616c6c206661696c6564416464726573733a206c6f772d6c6576656c2064656c65676174652063616c6c206661696c6564a2646970667358221220d011baa5d4716d23c57aa0f299e348c8e35765fd1d32a5eb0391bc06fb66afb864736f6c634300080b0033",
  "linkReferences": {},
  "deployedLinkReferences": {}
}