{
  "_format": "hh-sol-artifact-1",
  "contractName": "PolygonZDAO",
  "sourceName": "contracts/polygon/polygon/PolygonZDAO.sol",
  "abi": [
    {
      "anonymous": false,
      "inputs": [
        {
          "indexed": false,
          "internalType": "address",
          "name": "previousAdmin",
          "type": "address"
        },
        {
          "indexed": false,
          "internalType": "address",
          "name": "newAdmin",
          "type": "address"
        }
      ],
      "name": "AdminChanged",
      "type": "event"
    },
    {
      "anonymous": false,
      "inputs": [
        {
          "indexed": true,
          "internalType": "address",
          "name": "beacon",
          "type": "address"
        }
      ],
      "name": "BeaconUpgraded",
      "type": "event"
    },
    {
      "anonymous": false,
      "inputs": [
        {
          "indexed": true,
          "internalType": "address",
          "name": "previousOwner",
          "type": "address"
        },
        {
          "indexed": true,
          "internalType": "address",
          "name": "newOwner",
          "type": "address"
        }
      ],
      "name": "OwnershipTransferred",
      "type": "event"
    },
    {
      "anonymous": false,
      "inputs": [
        {
          "indexed": false,
          "internalType": "address",
          "name": "account",
          "type": "address"
        }
      ],
      "name": "Paused",
      "type": "event"
    },
    {
      "anonymous": false,
      "inputs": [
        {
          "indexed": true,
          "internalType": "bytes32",
          "name": "role",
          "type": "bytes32"
        },
        {
          "indexed": true,
          "internalType": "bytes32",
          "name": "previousAdminRole",
          "type": "bytes32"
        },
        {
          "indexed": true,
          "internalType": "bytes32",
          "name": "newAdminRole",
          "type": "bytes32"
        }
      ],
      "name": "RoleAdminChanged",
      "type": "event"
    },
    {
      "anonymous": false,
      "inputs": [
        {
          "indexed": true,
          "internalType": "bytes32",
          "name": "role",
          "type": "bytes32"
        },
        {
          "indexed": true,
          "internalType": "address",
          "name": "account",
          "type": "address"
        },
        {
          "indexed": true,
          "internalType": "address",
          "name": "sender",
          "type": "address"
        }
      ],
      "name": "RoleGranted",
      "type": "event"
    },
    {
      "anonymous": false,
      "inputs": [
        {
          "indexed": true,
          "internalType": "bytes32",
          "name": "role",
          "type": "bytes32"
        },
        {
          "indexed": true,
          "internalType": "address",
          "name": "account",
          "type": "address"
        },
        {
          "indexed": true,
          "internalType": "address",
          "name": "sender",
          "type": "address"
        }
      ],
      "name": "RoleRevoked",
      "type": "event"
    },
    {
      "anonymous": false,
      "inputs": [
        {
          "indexed": false,
          "internalType": "address",
          "name": "account",
          "type": "address"
        }
      ],
      "name": "Unpaused",
      "type": "event"
    },
    {
      "anonymous": false,
      "inputs": [
        {
          "indexed": true,
          "internalType": "address",
          "name": "implementation",
          "type": "address"
        }
      ],
      "name": "Upgraded",
      "type": "event"
    },
    {
      "inputs": [],
      "name": "DEFAULT_ADMIN_ROLE",
      "outputs": [
        {
          "internalType": "bytes32",
          "name": "",
          "type": "bytes32"
        }
      ],
      "stateMutability": "view",
      "type": "function"
    },
    {
      "inputs": [
        {
          "internalType": "address",
          "name": "_zDAOChef",
          "type": "address"
        },
        {
          "internalType": "address",
          "name": "_staking",
          "type": "address"
        },
        {
          "internalType": "uint256",
          "name": "_zDAOId",
          "type": "uint256"
        },
        {
          "internalType": "uint256",
          "name": "_duration",
          "type": "uint256"
        },
        {
          "internalType": "address",
          "name": "_token",
          "type": "address"
        }
      ],
      "name": "__ZDAO_init",
      "outputs": [],
      "stateMutability": "nonpayable",
      "type": "function"
    },
    {
      "inputs": [
        {
          "internalType": "uint256",
          "name": "_proposalId",
          "type": "uint256"
        }
      ],
      "name": "calculateProposal",
      "outputs": [
        {
          "internalType": "uint256",
          "name": "voters",
          "type": "uint256"
        },
        {
          "internalType": "uint256",
          "name": "yes",
          "type": "uint256"
        },
        {
          "internalType": "uint256",
          "name": "no",
          "type": "uint256"
        }
      ],
      "stateMutability": "nonpayable",
      "type": "function"
    },
    {
      "inputs": [
        {
          "internalType": "uint256",
          "name": "_proposalId",
          "type": "uint256"
        }
      ],
      "name": "canCalculateProposal",
      "outputs": [
        {
          "internalType": "bool",
          "name": "",
          "type": "bool"
        }
      ],
      "stateMutability": "view",
      "type": "function"
    },
    {
      "inputs": [
        {
          "internalType": "uint256",
          "name": "_proposalId",
          "type": "uint256"
        },
        {
          "internalType": "address",
          "name": "_voter",
          "type": "address"
        }
      ],
      "name": "canVote",
      "outputs": [
        {
          "internalType": "bool",
          "name": "",
          "type": "bool"
        }
      ],
      "stateMutability": "view",
      "type": "function"
    },
    {
      "inputs": [
        {
          "internalType": "uint256",
          "name": "_proposalId",
          "type": "uint256"
        }
      ],
      "name": "cancelProposal",
      "outputs": [],
      "stateMutability": "nonpayable",
      "type": "function"
    },
    {
      "inputs": [
        {
          "internalType": "uint256",
          "name": "_proposalId",
          "type": "uint256"
        },
        {
          "internalType": "address",
          "name": "_voter",
          "type": "address"
        }
      ],
      "name": "choiceOfVoter",
      "outputs": [
        {
          "internalType": "enum IPolygonZDAO.VoterChoice",
          "name": "",
          "type": "uint8"
        }
      ],
      "stateMutability": "view",
      "type": "function"
    },
    {
      "inputs": [
        {
          "internalType": "uint256",
          "name": "_proposalId",
          "type": "uint256"
        },
        {
          "internalType": "uint256",
          "name": "_startTimestamp",
          "type": "uint256"
        }
      ],
      "name": "createProposal",
      "outputs": [],
      "stateMutability": "nonpayable",
      "type": "function"
    },
    {
      "inputs": [],
      "name": "destroyed",
      "outputs": [
        {
          "internalType": "bool",
          "name": "",
          "type": "bool"
        }
      ],
      "stateMutability": "view",
      "type": "function"
    },
    {
      "inputs": [
        {
          "internalType": "uint256",
          "name": "_proposalId",
          "type": "uint256"
        }
      ],
      "name": "executeProposal",
      "outputs": [],
      "stateMutability": "nonpayable",
      "type": "function"
    },
    {
      "inputs": [
        {
          "internalType": "bytes32",
          "name": "role",
          "type": "bytes32"
        }
      ],
      "name": "getRoleAdmin",
      "outputs": [
        {
          "internalType": "bytes32",
          "name": "",
          "type": "bytes32"
        }
      ],
      "stateMutability": "view",
      "type": "function"
    },
    {
      "inputs": [
        {
          "internalType": "bytes32",
          "name": "role",
          "type": "bytes32"
        },
        {
          "internalType": "address",
          "name": "account",
          "type": "address"
        }
      ],
      "name": "grantRole",
      "outputs": [],
      "stateMutability": "nonpayable",
      "type": "function"
    },
    {
      "inputs": [
        {
          "internalType": "bytes32",
          "name": "role",
          "type": "bytes32"
        },
        {
          "internalType": "address",
          "name": "account",
          "type": "address"
        }
      ],
      "name": "hasRole",
      "outputs": [
        {
          "internalType": "bool",
          "name": "",
          "type": "bool"
        }
      ],
      "stateMutability": "view",
      "type": "function"
    },
    {
      "inputs": [
        {
          "internalType": "uint256",
          "name": "_startIndex",
          "type": "uint256"
        },
        {
          "internalType": "uint256",
          "name": "_count",
          "type": "uint256"
        }
      ],
      "name": "listProposals",
      "outputs": [
        {
          "components": [
            {
              "internalType": "uint256",
              "name": "proposalId",
              "type": "uint256"
            },
            {
              "internalType": "uint256",
              "name": "startTimestamp",
              "type": "uint256"
            },
            {
              "internalType": "uint256",
              "name": "endTimestamp",
              "type": "uint256"
            },
            {
              "internalType": "uint256",
              "name": "yes",
              "type": "uint256"
            },
            {
              "internalType": "uint256",
              "name": "no",
              "type": "uint256"
            },
            {
              "internalType": "uint256",
              "name": "voters",
              "type": "uint256"
            },
            {
              "internalType": "uint256",
              "name": "snapshot",
              "type": "uint256"
            },
            {
              "internalType": "bool",
              "name": "calculated",
              "type": "bool"
            },
            {
              "internalType": "bool",
              "name": "executed",
              "type": "bool"
            },
            {
              "internalType": "bool",
              "name": "canceled",
              "type": "bool"
            }
          ],
          "internalType": "struct IPolygonZDAO.Proposal[]",
          "name": "records",
          "type": "tuple[]"
        }
      ],
      "stateMutability": "view",
      "type": "function"
    },
    {
      "inputs": [
        {
          "internalType": "uint256",
          "name": "_proposalId",
          "type": "uint256"
        },
        {
          "internalType": "uint256",
          "name": "_startIndex",
          "type": "uint256"
        },
        {
          "internalType": "uint256",
          "name": "_count",
          "type": "uint256"
        }
      ],
      "name": "listVoters",
      "outputs": [
        {
          "internalType": "address[]",
          "name": "voters",
          "type": "address[]"
        },
        {
          "internalType": "uint256[]",
          "name": "choices",
          "type": "uint256[]"
        },
        {
          "internalType": "uint256[]",
          "name": "votes",
          "type": "uint256[]"
        }
      ],
      "stateMutability": "view",
      "type": "function"
    },
    {
      "inputs": [],
      "name": "numberOfProposals",
      "outputs": [
        {
          "internalType": "uint256",
          "name": "",
          "type": "uint256"
        }
      ],
      "stateMutability": "view",
      "type": "function"
    },
    {
      "inputs": [],
      "name": "owner",
      "outputs": [
        {
          "internalType": "address",
          "name": "",
          "type": "address"
        }
      ],
      "stateMutability": "view",
      "type": "function"
    },
    {
      "inputs": [],
      "name": "paused",
      "outputs": [
        {
          "internalType": "bool",
          "name": "",
          "type": "bool"
        }
      ],
      "stateMutability": "view",
      "type": "function"
    },
    {
      "inputs": [
        {
          "internalType": "uint256",
          "name": "",
          "type": "uint256"
        }
      ],
      "name": "proposalIds",
      "outputs": [
        {
          "internalType": "uint256",
          "name": "",
          "type": "uint256"
        }
      ],
      "stateMutability": "view",
      "type": "function"
    },
    {
      "inputs": [
        {
          "internalType": "uint256",
          "name": "",
          "type": "uint256"
        }
      ],
      "name": "proposals",
      "outputs": [
        {
          "internalType": "uint256",
          "name": "proposalId",
          "type": "uint256"
        },
        {
          "internalType": "uint256",
          "name": "startTimestamp",
          "type": "uint256"
        },
        {
          "internalType": "uint256",
          "name": "endTimestamp",
          "type": "uint256"
        },
        {
          "internalType": "uint256",
          "name": "yes",
          "type": "uint256"
        },
        {
          "internalType": "uint256",
          "name": "no",
          "type": "uint256"
        },
        {
          "internalType": "uint256",
          "name": "voters",
          "type": "uint256"
        },
        {
          "internalType": "uint256",
          "name": "snapshot",
          "type": "uint256"
        },
        {
          "internalType": "bool",
          "name": "calculated",
          "type": "bool"
        },
        {
          "internalType": "bool",
          "name": "executed",
          "type": "bool"
        },
        {
          "internalType": "bool",
          "name": "canceled",
          "type": "bool"
        }
      ],
      "stateMutability": "view",
      "type": "function"
    },
    {
      "inputs": [],
      "name": "renounceOwnership",
      "outputs": [],
      "stateMutability": "nonpayable",
      "type": "function"
    },
    {
      "inputs": [
        {
          "internalType": "bytes32",
          "name": "role",
          "type": "bytes32"
        },
        {
          "internalType": "address",
          "name": "account",
          "type": "address"
        }
      ],
      "name": "renounceRole",
      "outputs": [],
      "stateMutability": "nonpayable",
      "type": "function"
    },
    {
      "inputs": [
        {
          "internalType": "bytes32",
          "name": "role",
          "type": "bytes32"
        },
        {
          "internalType": "address",
          "name": "account",
          "type": "address"
        }
      ],
      "name": "revokeRole",
      "outputs": [],
      "stateMutability": "nonpayable",
      "type": "function"
    },
    {
      "inputs": [
        {
          "internalType": "bool",
          "name": "_destroyed",
          "type": "bool"
        }
      ],
      "name": "setDestroyed",
      "outputs": [],
      "stateMutability": "nonpayable",
      "type": "function"
    },
    {
      "inputs": [
        {
          "internalType": "address",
          "name": "_staking",
          "type": "address"
        }
      ],
      "name": "setStaking",
      "outputs": [],
      "stateMutability": "nonpayable",
      "type": "function"
    },
    {
      "inputs": [],
      "name": "staking",
      "outputs": [
        {
          "internalType": "contract Staking",
          "name": "",
          "type": "address"
        }
      ],
      "stateMutability": "view",
      "type": "function"
    },
    {
      "inputs": [
        {
          "internalType": "uint256",
          "name": "_proposalId",
          "type": "uint256"
        }
      ],
      "name": "state",
      "outputs": [
        {
          "internalType": "enum IPolygonZDAO.ProposalState",
          "name": "",
          "type": "uint8"
        }
      ],
      "stateMutability": "view",
      "type": "function"
    },
    {
      "inputs": [
        {
          "internalType": "bytes4",
          "name": "interfaceId",
          "type": "bytes4"
        }
      ],
      "name": "supportsInterface",
      "outputs": [
        {
          "internalType": "bool",
          "name": "",
          "type": "bool"
        }
      ],
      "stateMutability": "view",
      "type": "function"
    },
    {
      "inputs": [
        {
          "internalType": "address",
          "name": "newOwner",
          "type": "address"
        }
      ],
      "name": "transferOwnership",
      "outputs": [],
      "stateMutability": "nonpayable",
      "type": "function"
    },
    {
      "inputs": [
        {
          "internalType": "address",
          "name": "_token",
          "type": "address"
        }
      ],
      "name": "updateToken",
      "outputs": [],
      "stateMutability": "nonpayable",
      "type": "function"
    },
    {
      "inputs": [
        {
          "internalType": "address",
          "name": "newImplementation",
          "type": "address"
        }
      ],
      "name": "upgradeTo",
      "outputs": [],
      "stateMutability": "nonpayable",
      "type": "function"
    },
    {
      "inputs": [
        {
          "internalType": "address",
          "name": "newImplementation",
          "type": "address"
        },
        {
          "internalType": "bytes",
          "name": "data",
          "type": "bytes"
        }
      ],
      "name": "upgradeToAndCall",
      "outputs": [],
      "stateMutability": "payable",
      "type": "function"
    },
    {
      "inputs": [],
      "name": "version",
      "outputs": [
        {
          "internalType": "uint256",
          "name": "",
          "type": "uint256"
        }
      ],
      "stateMutability": "view",
      "type": "function"
    },
    {
      "inputs": [
        {
          "internalType": "uint256",
          "name": "_proposalId",
          "type": "uint256"
        },
        {
          "internalType": "address",
          "name": "_voter",
          "type": "address"
        },
        {
          "internalType": "uint256",
          "name": "_choice",
          "type": "uint256"
        }
      ],
      "name": "vote",
      "outputs": [],
      "stateMutability": "nonpayable",
      "type": "function"
    },
    {
      "inputs": [
        {
          "internalType": "uint256",
          "name": "_proposalId",
          "type": "uint256"
        }
      ],
      "name": "votesResultOfProposal",
      "outputs": [
        {
          "internalType": "uint256",
          "name": "voters",
          "type": "uint256"
        },
        {
          "internalType": "uint256",
          "name": "yes",
          "type": "uint256"
        },
        {
          "internalType": "uint256",
          "name": "no",
          "type": "uint256"
        }
      ],
      "stateMutability": "view",
      "type": "function"
    },
    {
      "inputs": [
        {
          "internalType": "uint256",
          "name": "_proposalId",
          "type": "uint256"
        },
        {
          "internalType": "address",
          "name": "_voter",
          "type": "address"
        }
      ],
      "name": "votingPowerOfVoter",
      "outputs": [
        {
          "internalType": "uint256",
          "name": "",
          "type": "uint256"
        }
      ],
      "stateMutability": "view",
      "type": "function"
    },
    {
      "inputs": [],
      "name": "zDAOChef",
      "outputs": [
        {
          "internalType": "address",
          "name": "",
          "type": "address"
        }
      ],
      "stateMutability": "view",
      "type": "function"
    },
    {
      "inputs": [],
      "name": "zDAOId",
      "outputs": [
        {
          "internalType": "uint256",
          "name": "",
          "type": "uint256"
        }
      ],
      "stateMutability": "view",
      "type": "function"
    },
    {
      "inputs": [],
      "name": "zDAOInfo",
      "outputs": [
        {
          "internalType": "uint256",
          "name": "zDAOId",
          "type": "uint256"
        },
        {
          "internalType": "uint256",
          "name": "duration",
          "type": "uint256"
        },
        {
          "internalType": "address",
          "name": "token",
          "type": "address"
        },
        {
          "internalType": "uint256",
          "name": "snapshot",
          "type": "uint256"
        },
        {
          "internalType": "bool",
          "name": "destroyed",
          "type": "bool"
        }
      ],
      "stateMutability": "view",
      "type": "function"
    }
  ],
  "bytecode": "0x60a06040523060805234801561001457600080fd5b5060805161381061004560003960008181610db801528181610e4e015281816113f4015261148a01526138106000f3fe6080604052600436106102a05760003560e01c80635c975abb1161016e57806391d14854116100cb578063cdb2867b1161007f578063d8191e6c11610064578063d8191e6c1461088b578063e0a8f6f5146108fb578063f2fde38b1461091b57600080fd5b8063cdb2867b1461084b578063d547741f1461086b57600080fd5b8063a217fddf116100b0578063a217fddf146107a8578063affc1793146107bd578063b5c23fdd1461081c57600080fd5b806391d14854146107425780639b644a231461078857600080fd5b80637f6dda14116101225780638da5cb5b116101075780638da5cb5b146106e35780638ff390991461070157806390bfeab31461072157600080fd5b80637f6dda14146106a05780638d7af473146106cd57600080fd5b80636935bda6116101535780636935bda61461064b578063715018a61461066b5780637ad3def21461068057600080fd5b80635c975abb1461061357806362a8dab91461062b57600080fd5b8063359cbbc91161021c578063472858b4116101d05780634de8737c116101b55780634de8737c146105c95780634f1ef286146105e957806354fd4d50146105fc57600080fd5b8063472858b4146105705780634cf088d91461059057600080fd5b80633659cfe6116102015780633659cfe6146105035780633e4f49e614610523578063458d56731461055057600080fd5b8063359cbbc9146104ca57806336568abe146104e357600080fd5b8063120e33da11610273578063248a9ca311610258578063248a9ca31461045a5780632f2ff15d1461048a5780633327374f146104aa57600080fd5b8063120e33da146103e1578063151936131461043a57600080fd5b8063013cf08b146102a557806301ffc9a71461036f5780630d61b5191461039f5780630e402ea3146103c1575b600080fd5b3480156102b157600080fd5b5061031a6102c03660046131c3565b610199602052600090815260409020805460018201546002830154600384015460048501546005860154600687015460079097015495969495939492939192909160ff80821691610100810482169162010000909104168a565b604080519a8b5260208b0199909952978901969096526060880194909452608087019290925260a086015260c0850152151560e084015215156101008301521515610120820152610140015b60405180910390f35b34801561037b57600080fd5b5061038f61038a3660046131dc565b61093b565b6040519015158152602001610366565b3480156103ab57600080fd5b506103bf6103ba3660046131c3565b6109d4565b005b3480156103cd57600080fd5b5061038f6103dc3660046131c3565b610b89565b3480156103ed57600080fd5b5061041f6103fc3660046131c3565b600090815261019960205260409020600581015460038201546004909201549092565b60408051938452602084019290925290820152606001610366565b34801561044657600080fd5b50610194545b604051908152602001610366565b34801561046657600080fd5b5061044c6104753660046131c3565b60009081526097602052604090206001015490565b34801561049657600080fd5b506103bf6104a536600461323a565b610b94565b3480156104b657600080fd5b506103bf6104c5366004613266565b610bbf565b3480156104d657600080fd5b506101985460ff1661038f565b3480156104ef57600080fd5b506103bf6104fe36600461323a565b610d25565b34801561050f57600080fd5b506103bf61051e3660046132bd565b610dad565b34801561052f57600080fd5b5061054361053e3660046131c3565b610f4b565b60405161036691906132ee565b34801561055c57600080fd5b5061041f61056b3660046131c3565b610fd8565b34801561057c57600080fd5b506103bf61058b366004613308565b611196565b34801561059c57600080fd5b50610193546105b1906001600160a01b031681565b6040516001600160a01b039091168152602001610366565b3480156105d557600080fd5b506103bf6105e436600461332a565b6111f6565b6103bf6105f7366004613375565b6113e9565b34801561060857600080fd5b5061044c6101915481565b34801561061f57600080fd5b5060fb5460ff1661038f565b34801561063757600080fd5b5061044c61064636600461323a565b611574565b34801561065757600080fd5b506103bf610666366004613437565b611598565b34801561067757600080fd5b506103bf6116bd565b34801561068c57600080fd5b506103bf61069b3660046132bd565b611723565b3480156106ac57600080fd5b506106c06106bb366004613437565b61179f565b6040516103669190613459565b3480156106d957600080fd5b5061019b5461044c565b3480156106ef57600080fd5b506033546001600160a01b03166105b1565b34801561070d57600080fd5b506103bf61071c3660046132bd565b611973565b34801561072d57600080fd5b50610192546105b1906001600160a01b031681565b34801561074e57600080fd5b5061038f61075d36600461323a565b60009182526097602090815260408084206001600160a01b0393909316845291905290205460ff1690565b34801561079457600080fd5b5061044c6107a33660046131c3565b6119ef565b3480156107b457600080fd5b5061044c600081565b3480156107c957600080fd5b5061080f6107d836600461323a565b600091825261019a602090815260408084206001600160a01b0393909316845260019092019052902054600160a01b900460ff1690565b6040516103669190613502565b34801561082857600080fd5b5061083c610837366004613516565b611a11565b6040516103669392919061357d565b34801561085757600080fd5b5061038f61086636600461323a565b611c43565b34801561087757600080fd5b506103bf61088636600461323a565b611c60565b34801561089757600080fd5b5061019454610195546101965461019754610198546108c39493926001600160a01b0316919060ff1685565b6040805195865260208601949094526001600160a01b039092169284019290925260608301919091521515608082015260a001610366565b34801561090757600080fd5b506103bf6109163660046131c3565b611c86565b34801561092757600080fd5b506103bf6109363660046132bd565b611e5b565b60007fffffffff0000000000000000000000000000000000000000000000000000000082167f7965db0b0000000000000000000000000000000000000000000000000000000014806109ce57507f01ffc9a7000000000000000000000000000000000000000000000000000000007fffffffff000000000000000000000000000000000000000000000000000000008316145b92915050565b610192546001600160a01b03163314610a255760405162461bcd60e51b815260206004820152600e60248201526d2737ba1030902d2220a7a1b432b360911b60448201526064015b60405180910390fd5b6101985460ff1615610a795760405162461bcd60e51b815260206004820152601160248201527f416c72656164792064657374726f7965640000000000000000000000000000006044820152606401610a1c565b6000818152610199602052604090205481908114610ad95760405162461bcd60e51b815260206004820152601060248201527f496e76616c69642070726f706f73616c000000000000000000000000000000006044820152606401610a1c565b6000828152610199602052604090206007015462010000900460ff16158015610b1457506000828152610199602052604090206007015460ff165b610b605760405162461bcd60e51b815260206004820152601460248201527f4e6f7420612076616c69642070726f706f73616c0000000000000000000000006044820152606401610a1c565b610b8582600090815261019960205260409020600701805461ff001916610100179055565b5050565b60006109ce82611f3a565b600082815260976020526040902060010154610bb08133611f60565b610bba8383611fe0565b505050565b600054610100900460ff16610bda5760005460ff1615610bde565b303b155b610c505760405162461bcd60e51b815260206004820152602e60248201527f496e697469616c697a61626c653a20636f6e747261637420697320616c72656160448201527f647920696e697469616c697a65640000000000000000000000000000000000006064820152608401610a1c565b600054610100900460ff16158015610c72576000805461ffff19166101011790555b610c7a612082565b61019280546001600160a01b0380891673ffffffffffffffffffffffffffffffffffffffff199283161790925561019380548884169083161790556040805160a0810182528781526020810187905292851690830181905243606084018190526000608090940193909352610194879055610195869055610196805490921617905561019755610198805460ff191690558015610d1d576000805461ff00191690555b505050505050565b6001600160a01b0381163314610da35760405162461bcd60e51b815260206004820152602f60248201527f416363657373436f6e74726f6c3a2063616e206f6e6c792072656e6f756e636560448201527f20726f6c657320666f722073656c6600000000000000000000000000000000006064820152608401610a1c565b610b85828261211d565b306001600160a01b037f0000000000000000000000000000000000000000000000000000000000000000161415610e4c5760405162461bcd60e51b815260206004820152602c60248201527f46756e6374696f6e206d7573742062652063616c6c6564207468726f7567682060448201527f64656c656761746563616c6c00000000000000000000000000000000000000006064820152608401610a1c565b7f00000000000000000000000000000000000000000000000000000000000000006001600160a01b0316610ea77f360894a13ba1a3210667c828492db98dca3e2076cc3735a920a3ca505d382bbc546001600160a01b031690565b6001600160a01b031614610f235760405162461bcd60e51b815260206004820152602c60248201527f46756e6374696f6e206d7573742062652063616c6c6564207468726f7567682060448201527f6163746976652070726f787900000000000000000000000000000000000000006064820152608401610a1c565b610f2c816121a0565b60408051600080825260208201909252610f48918391906121fa565b50565b600081815261019960205260408120600781015462010000900460ff1615610f765750600292915050565b80600101544211610f8a5750600092915050565b80600201544211610f9e5750600192915050565b6007810154610100900460ff1615610fb95750600392915050565b600781015460ff1615610fcf5750600592915050565b50600492915050565b61019254600090819081906001600160a01b0316331461102b5760405162461bcd60e51b815260206004820152600e60248201526d2737ba1030902d2220a7a1b432b360911b6044820152606401610a1c565b6101985460ff161561107f5760405162461bcd60e51b815260206004820152601160248201527f416c72656164792064657374726f7965640000000000000000000000000000006044820152606401610a1c565b60008481526101996020526040902054849081146110df5760405162461bcd60e51b815260206004820152601060248201527f496e76616c69642070726f706f73616c000000000000000000000000000000006044820152606401610a1c565b600085815261019960205260409020600781015462010000900460ff1615801561110e5750600781015460ff16155b801561111d5750806002015442115b6111695760405162461bcd60e51b815260206004820152601460248201527f4e6f7420612076616c69642070726f706f73616c0000000000000000000000006044820152606401610a1c565b6005810154600382015460048301546007909301805460ff19166001179055909790965090945092505050565b610192546001600160a01b031633146111e25760405162461bcd60e51b815260206004820152600e60248201526d2737ba1030902d2220a7a1b432b360911b6044820152606401610a1c565b610198805460ff1916911515919091179055565b610192546001600160a01b031633146112425760405162461bcd60e51b815260206004820152600e60248201526d2737ba1030902d2220a7a1b432b360911b6044820152606401610a1c565b6101985460ff16156112965760405162461bcd60e51b815260206004820152601160248201527f416c72656164792064657374726f7965640000000000000000000000000000006044820152606401610a1c565b60008381526101996020526040902054839081146112f65760405162461bcd60e51b815260206004820152601060248201527f496e76616c69642070726f706f73616c000000000000000000000000000000006044820152606401610a1c565b60018214806113055750600282145b6113515760405162461bcd60e51b815260206004820152600e60248201527f496e76616c69642063686f6963650000000000000000000000000000000000006044820152606401610a1c565b6101965461136b90859085906001600160a01b03166123be565b6113b75760405162461bcd60e51b815260206004820152601460248201527f4e6f742076616c696420666f7220766f74696e670000000000000000000000006044820152606401610a1c565b610196546113e390859085906001600160a01b03168560028111156113de576113de6132d8565b61249d565b50505050565b306001600160a01b037f00000000000000000000000000000000000000000000000000000000000000001614156114885760405162461bcd60e51b815260206004820152602c60248201527f46756e6374696f6e206d7573742062652063616c6c6564207468726f7567682060448201527f64656c656761746563616c6c00000000000000000000000000000000000000006064820152608401610a1c565b7f00000000000000000000000000000000000000000000000000000000000000006001600160a01b03166114e37f360894a13ba1a3210667c828492db98dca3e2076cc3735a920a3ca505d382bbc546001600160a01b031690565b6001600160a01b03161461155f5760405162461bcd60e51b815260206004820152602c60248201527f46756e6374696f6e206d7573742062652063616c6c6564207468726f7567682060448201527f6163746976652070726f787900000000000000000000000000000000000000006064820152608401610a1c565b611568826121a0565b610b85828260016121fa565b6101965460009061159190849084906001600160a01b031661269f565b9392505050565b610192546001600160a01b031633146115e45760405162461bcd60e51b815260206004820152600e60248201526d2737ba1030902d2220a7a1b432b360911b6044820152606401610a1c565b6101985460ff16156116385760405162461bcd60e51b815260206004820152601160248201527f416c72656164792064657374726f7965640000000000000000000000000000006044820152606401610a1c565b600082118015611655575060008281526101996020526040902054155b6116a15760405162461bcd60e51b815260206004820152601c60248201527f50726f706f73616c2077617320616c72656164792063726561746564000000006044820152606401610a1c565b610b85828261019460010154846116b89190613608565b612752565b6033546001600160a01b031633146117175760405162461bcd60e51b815260206004820181905260248201527f4f776e61626c653a2063616c6c6572206973206e6f7420746865206f776e65726044820152606401610a1c565b61172160006128ad565b565b610192546001600160a01b0316331461176f5760405162461bcd60e51b815260206004820152600e60248201526d2737ba1030902d2220a7a1b432b360911b6044820152606401610a1c565b610196805473ffffffffffffffffffffffffffffffffffffffff19166001600160a01b0392909216919091179055565b61019b5460609082906117b3908590613620565b8111156117cc5761019b546117c9908590613620565b90505b8067ffffffffffffffff8111156117e5576117e561335f565b60405190808252806020026020018201604052801561187257816020015b61185f604051806101400160405280600081526020016000815260200160008152602001600081526020016000815260200160008152602001600081526020016000151581526020016000151581526020016000151581525090565b8152602001906001900390816118035790505b50915060005b8181101561196b57610199600061019b6118928489613608565b815481106118a2576118a2613637565b600091825260208083209091015483528281019390935260409182019020815161014081018352815481526001820154938101939093526002810154918301919091526003810154606083015260048101546080830152600581015460a0830152600681015460c08301526007015460ff808216151560e0840152610100808304821615159084015262010000909104161515610120820152835184908390811061194f5761194f613637565b6020026020010181905250806119649061364d565b9050611878565b505092915050565b610192546001600160a01b031633146119bf5760405162461bcd60e51b815260206004820152600e60248201526d2737ba1030902d2220a7a1b432b360911b6044820152606401610a1c565b610193805473ffffffffffffffffffffffffffffffffffffffff19166001600160a01b0392909216919091179055565b61019b8181548110611a0057600080fd5b600091825260209091200154905081565b600083815261019a60205260409020805460609182918291908590611a37908890613620565b811115611a4e578154611a4b908890613620565b90505b8067ffffffffffffffff811115611a6757611a6761335f565b604051908082528060200260200182016040528015611a90578160200160208202803683370190505b5094508067ffffffffffffffff811115611aac57611aac61335f565b604051908082528060200260200182016040528015611ad5578160200160208202803683370190505b5093508067ffffffffffffffff811115611af157611af161335f565b604051908082528060200260200182016040528015611b1a578160200160208202803683370190505b5092506000805b82811015611c365783611b34828b613608565b81548110611b4457611b44613637565b9060005260206000200160009054906101000a90046001600160a01b0316915081878281518110611b7757611b77613637565b6001600160a01b039283166020918202929092018101919091529083166000908152600186019091526040902054600160a01b900460ff166002811115611bc057611bc06132d8565b868281518110611bd257611bd2613637565b602002602001018181525050836001016000836001600160a01b03166001600160a01b0316815260200190815260200160002060010154858281518110611c1b57611c1b613637565b6020908102919091010152611c2f8161364d565b9050611b21565b5050505093509350939050565b6101965460009061159190849084906001600160a01b03166123be565b600082815260976020526040902060010154611c7c8133611f60565b610bba838361211d565b610192546001600160a01b03163314611cd25760405162461bcd60e51b815260206004820152600e60248201526d2737ba1030902d2220a7a1b432b360911b6044820152606401610a1c565b6101985460ff1615611d265760405162461bcd60e51b815260206004820152601160248201527f416c72656164792064657374726f7965640000000000000000000000000000006044820152606401610a1c565b6000818152610199602052604090205481908114611d865760405162461bcd60e51b815260206004820152601060248201527f496e76616c69642070726f706f73616c000000000000000000000000000000006044820152606401610a1c565b6000828152610199602052604090206007015462010000900460ff16158015611dc257506000828152610199602052604090206007015460ff16155b611e345760405162461bcd60e51b815260206004820152602860248201527f416c72656164792063616e63656c6564206f722063616c63756c61746565642060448201527f70726f706f73616c0000000000000000000000000000000000000000000000006064820152608401610a1c565b610b8582600090815261019960205260409020600701805462ff0000191662010000179055565b6033546001600160a01b03163314611eb55760405162461bcd60e51b815260206004820181905260248201527f4f776e61626c653a2063616c6c6572206973206e6f7420746865206f776e65726044820152606401610a1c565b6001600160a01b038116611f315760405162461bcd60e51b815260206004820152602660248201527f4f776e61626c653a206e6577206f776e657220697320746865207a65726f206160448201527f64647265737300000000000000000000000000000000000000000000000000006064820152608401610a1c565b610f48816128ad565b600081815261019960205260408120805483148015611591575060020154421192915050565b60008281526097602090815260408083206001600160a01b038516845290915290205460ff16610b8557611f9e816001600160a01b0316601461290c565b611fa983602061290c565b604051602001611fba929190613694565b60408051601f198184030181529082905262461bcd60e51b8252610a1c91600401613715565b60008281526097602090815260408083206001600160a01b038516845290915290205460ff16610b855760008281526097602090815260408083206001600160a01b03851684529091529020805460ff1916600117905561203e3390565b6001600160a01b0316816001600160a01b0316837f2f8788117e7eff1d82e926ec794901d17c78024a50270940304540a733656f0d60405160405180910390a45050565b600054610100900460ff166120ed5760405162461bcd60e51b815260206004820152602b60248201527f496e697469616c697a61626c653a20636f6e7472616374206973206e6f74206960448201526a6e697469616c697a696e6760a81b6064820152608401610a1c565b6120f5612b35565b6120fd612bb0565b612105612c33565b61210d612ca6565b612115612d21565b600161019155565b60008281526097602090815260408083206001600160a01b038516845290915290205460ff1615610b855760008281526097602090815260408083206001600160a01b0385168085529252808320805460ff1916905551339285917ff6391f5c32d9c69d2a47ea670b442974b53935d1edc7fd64eb21e047a839171b9190a45050565b6033546001600160a01b03163314610f485760405162461bcd60e51b815260206004820181905260248201527f4f776e61626c653a2063616c6c6572206973206e6f7420746865206f776e65726044820152606401610a1c565b600061222d7f360894a13ba1a3210667c828492db98dca3e2076cc3735a920a3ca505d382bbc546001600160a01b031690565b905061223884612d8c565b6000835111806122455750815b15612256576122548484612e4e565b505b7f4910fdfa16fed3260ed0e7147f7cc6da11a60208b5b9406d12a635614ffd9143805460ff166123b757805460ff191660011781556040516001600160a01b038316602482015261230390869060440160408051601f198184030181529190526020810180517bffffffffffffffffffffffffffffffffffffffffffffffffffffffff167f3659cfe600000000000000000000000000000000000000000000000000000000179052612e4e565b50805460ff191681557f360894a13ba1a3210667c828492db98dca3e2076cc3735a920a3ca505d382bbc546001600160a01b038381169116146123ae5760405162461bcd60e51b815260206004820152602f60248201527f45524331393637557067726164653a207570677261646520627265616b73206660448201527f75727468657220757067726164657300000000000000000000000000000000006064820152608401610a1c565b6123b785612f50565b5050505050565b6000838152610199602052604081208054851415806123e357506123e181612f90565b155b156123f2576000915050611591565b6101935460068201546040517fbcf4d4160000000000000000000000000000000000000000000000000000000081526001600160a01b03878116600483015286811660248301526044820192909252600092919091169063bcf4d41690606401602060405180830381865afa15801561246f573d6000803e3d6000fd5b505050506040513d601f19601f820116820180604052508101906124939190613748565b1195945050505050565b60008481526101996020908152604080832061019a83528184206001600160a01b038816855260018101909352908320549092600160a01b90910460ff16906124e788888861269f565b905060018260028111156124fd576124fd6132d8565b141561252257808460030160008282546125179190613620565b909155506125899050565b6002826002811115612536576125366132d8565b141561255057808460040160008282546125179190613620565b825460018101845560008481526020902001805473ffffffffffffffffffffffffffffffffffffffff19166001600160a01b0389161790555b6001600160a01b03871660008181526001850160205260409020805473ffffffffffffffffffffffffffffffffffffffff1981168317825587927fffffffffffffffffffffff00000000000000000000000000000000000000000090911617600160a01b8360028111156125ff576125ff6132d8565b02179055506001600160a01b0387166000908152600180850160205260409091208101829055856002811115612637576126376132d8565b141561265c57808460030160008282546126519190613608565b909155506126909050565b6002856002811115612670576126706132d8565b1415612690578084600401600082825461268a9190613608565b90915550505b50505460059091015550505050565b61019354600084815261019960205260408082206006015490517fbcf4d4160000000000000000000000000000000000000000000000000000000081526001600160a01b038681166004830152858116602483015260448201929092529192169063bcf4d41690606401602060405180830381865afa158015612726573d6000803e3d6000fd5b505050506040513d601f19601f8201168201806040525081019061274a9190613748565b949350505050565b60008381526101996020526040902054156127af5760405162461bcd60e51b815260206004820152601860248201527f416c72656164792070726f706f73616c206372656174656400000000000000006044820152606401610a1c565b604080516101408101825284815260208082019485528183019384526000606083018181526080840182815260a085018381524360c0870190815260e087018581526101008089018781526101208a018881528e8952610199909952998720985189559a516001808a019190915599516002890155935160038801559151600487015551600586015551600685015551600790930180549451925161ffff1990951693151561ff001916939093179115159095021762ff00001916620100009215159290920291909117905561019b805491820181559091527f24aeb2cd7b2cf328da485c24efd7197e86108b05bbc525c1db80c96ffdf7e1290155565b603380546001600160a01b0383811673ffffffffffffffffffffffffffffffffffffffff19831681179093556040519116919082907f8be0079c531659141344cd1fd0a4f28419497f9722a3daafe3b4186f6b6457e090600090a35050565b6060600061291b836002613761565b612926906002613608565b67ffffffffffffffff81111561293e5761293e61335f565b6040519080825280601f01601f191660200182016040528015612968576020820181803683370190505b5090507f30000000000000000000000000000000000000000000000000000000000000008160008151811061299f5761299f613637565b60200101907effffffffffffffffffffffffffffffffffffffffffffffffffffffffffffff1916908160001a9053507f780000000000000000000000000000000000000000000000000000000000000081600181518110612a0257612a02613637565b60200101907effffffffffffffffffffffffffffffffffffffffffffffffffffffffffffff1916908160001a9053506000612a3e846002613761565b612a49906001613608565b90505b6001811115612ae6577f303132333435363738396162636465660000000000000000000000000000000085600f1660108110612a8a57612a8a613637565b1a60f81b828281518110612aa057612aa0613637565b60200101907effffffffffffffffffffffffffffffffffffffffffffffffffffffffffffff1916908160001a90535060049490941c93612adf81613780565b9050612a4c565b5083156115915760405162461bcd60e51b815260206004820181905260248201527f537472696e67733a20686578206c656e67746820696e73756666696369656e746044820152606401610a1c565b600054610100900460ff16612ba05760405162461bcd60e51b815260206004820152602b60248201527f496e697469616c697a61626c653a20636f6e7472616374206973206e6f74206960448201526a6e697469616c697a696e6760a81b6064820152608401610a1c565b612ba8612fc2565b61172161302d565b600054610100900460ff16612c1b5760405162461bcd60e51b815260206004820152602b60248201527f496e697469616c697a61626c653a20636f6e7472616374206973206e6f74206960448201526a6e697469616c697a696e6760a81b6064820152608401610a1c565b612c23612fc2565b612c2b612fc2565b611721612fc2565b600054610100900460ff16612c9e5760405162461bcd60e51b815260206004820152602b60248201527f496e697469616c697a61626c653a20636f6e7472616374206973206e6f74206960448201526a6e697469616c697a696e6760a81b6064820152608401610a1c565b6117216130a1565b600054610100900460ff16612d115760405162461bcd60e51b815260206004820152602b60248201527f496e697469616c697a61626c653a20636f6e7472616374206973206e6f74206960448201526a6e697469616c697a696e6760a81b6064820152608401610a1c565b612d19612fc2565b611721613113565b600054610100900460ff16612c235760405162461bcd60e51b815260206004820152602b60248201527f496e697469616c697a61626c653a20636f6e7472616374206973206e6f74206960448201526a6e697469616c697a696e6760a81b6064820152608401610a1c565b803b612e005760405162461bcd60e51b815260206004820152602d60248201527f455243313936373a206e657720696d706c656d656e746174696f6e206973206e60448201527f6f74206120636f6e7472616374000000000000000000000000000000000000006064820152608401610a1c565b7f360894a13ba1a3210667c828492db98dca3e2076cc3735a920a3ca505d382bbc805473ffffffffffffffffffffffffffffffffffffffff19166001600160a01b0392909216919091179055565b6060823b612ec45760405162461bcd60e51b815260206004820152602660248201527f416464726573733a2064656c65676174652063616c6c20746f206e6f6e2d636f60448201527f6e747261637400000000000000000000000000000000000000000000000000006064820152608401610a1c565b600080846001600160a01b031684604051612edf9190613797565b600060405180830381855af49150503d8060008114612f1a576040519150601f19603f3d011682016040523d82523d6000602084013e612f1f565b606091505b5091509150612f4782826040518060600160405280602781526020016137b46027913961318a565b95945050505050565b612f5981612d8c565b6040516001600160a01b038216907fbc7cd75a20ee27fd9adebab32041f755214dbc6bffa90cc0225b39da2e5c2d3b90600090a250565b600081600101544210158015612fa95750816002015442105b80156109ce5750506007015462010000900460ff161590565b600054610100900460ff166117215760405162461bcd60e51b815260206004820152602b60248201527f496e697469616c697a61626c653a20636f6e7472616374206973206e6f74206960448201526a6e697469616c697a696e6760a81b6064820152608401610a1c565b600054610100900460ff166130985760405162461bcd60e51b815260206004820152602b60248201527f496e697469616c697a61626c653a20636f6e7472616374206973206e6f74206960448201526a6e697469616c697a696e6760a81b6064820152608401610a1c565b611721336128ad565b600054610100900460ff1661310c5760405162461bcd60e51b815260206004820152602b60248201527f496e697469616c697a61626c653a20636f6e7472616374206973206e6f74206960448201526a6e697469616c697a696e6760a81b6064820152608401610a1c565b600160c955565b600054610100900460ff1661317e5760405162461bcd60e51b815260206004820152602b60248201527f496e697469616c697a61626c653a20636f6e7472616374206973206e6f74206960448201526a6e697469616c697a696e6760a81b6064820152608401610a1c565b60fb805460ff19169055565b60608315613199575081611591565b8251156131a95782518084602001fd5b8160405162461bcd60e51b8152600401610a1c9190613715565b6000602082840312156131d557600080fd5b5035919050565b6000602082840312156131ee57600080fd5b81357fffffffff000000000000000000000000000000000000000000000000000000008116811461159157600080fd5b80356001600160a01b038116811461323557600080fd5b919050565b6000806040838503121561324d57600080fd5b8235915061325d6020840161321e565b90509250929050565b600080600080600060a0868803121561327e57600080fd5b6132878661321e565b94506132956020870161321e565b935060408601359250606086013591506132b16080870161321e565b90509295509295909350565b6000602082840312156132cf57600080fd5b6115918261321e565b634e487b7160e01b600052602160045260246000fd5b6020810160068310613302576133026132d8565b91905290565b60006020828403121561331a57600080fd5b8135801515811461159157600080fd5b60008060006060848603121561333f57600080fd5b8335925061334f6020850161321e565b9150604084013590509250925092565b634e487b7160e01b600052604160045260246000fd5b6000806040838503121561338857600080fd5b6133918361321e565b9150602083013567ffffffffffffffff808211156133ae57600080fd5b818501915085601f8301126133c257600080fd5b8135818111156133d4576133d461335f565b604051601f8201601f19908116603f011681019083821181831017156133fc576133fc61335f565b8160405282815288602084870101111561341557600080fd5b8260208601602083013760006020848301015280955050505050509250929050565b6000806040838503121561344a57600080fd5b50508035926020909101359150565b602080825282518282018190526000919060409081850190868401855b828110156134f55781518051855286810151878601528581015186860152606080820151908601526080808201519086015260a0808201519086015260c0808201519086015260e08082015115159086015261010080820151151590860152610120908101511515908501526101409093019290850190600101613476565b5091979650505050505050565b6020810160038310613302576133026132d8565b60008060006060848603121561352b57600080fd5b505081359360208301359350604090920135919050565b600081518084526020808501945080840160005b8381101561357257815187529582019590820190600101613556565b509495945050505050565b606080825284519082018190526000906020906080840190828801845b828110156135bf5781516001600160a01b03168452928401929084019060010161359a565b505050838103828501526135d38187613542565b91505082810360408401526135e88185613542565b9695505050505050565b634e487b7160e01b600052601160045260246000fd5b6000821982111561361b5761361b6135f2565b500190565b600082821015613632576136326135f2565b500390565b634e487b7160e01b600052603260045260246000fd5b6000600019821415613661576136616135f2565b5060010190565b60005b8381101561368357818101518382015260200161366b565b838111156113e35750506000910152565b7f416363657373436f6e74726f6c3a206163636f756e74200000000000000000008152600083516136cc816017850160208801613668565b7f206973206d697373696e6720726f6c65200000000000000000000000000000006017918401918201528351613709816028840160208801613668565b01602801949350505050565b6020815260008251806020840152613734816040850160208701613668565b601f01601f19169190910160400192915050565b60006020828403121561375a57600080fd5b5051919050565b600081600019048311821515161561377b5761377b6135f2565b500290565b60008161378f5761378f6135f2565b506000190190565b600082516137a9818460208701613668565b919091019291505056fe416464726573733a206c6f772d6c6576656c2064656c65676174652063616c6c206661696c6564a2646970667358221220056bac7b305d7ad2d90178b20b9986e4d1fc1a958f857c069181170578d3d88564736f6c634300080b0033",
  "linkReferences": {},
  "deployedLinkReferences": {}
}