{
  "_format": "hh-sol-artifact-1",
  "contractName": "PolygonZDAOChef",
  "sourceName": "contracts/polygon/polygon/PolygonZDAOChef.sol",
  "abi": [
    {
      "anonymous": false,
      "inputs": [
        {
          "indexed": false,
          "internalType": "address",
          "name": "previousAdmin",
          "type": "address"
        },
        {
          "indexed": false,
          "internalType": "address",
          "name": "newAdmin",
          "type": "address"
        }
      ],
      "name": "AdminChanged",
      "type": "event"
    },
    {
      "anonymous": false,
      "inputs": [
        {
          "indexed": true,
          "internalType": "address",
          "name": "beacon",
          "type": "address"
        }
      ],
      "name": "BeaconUpgraded",
      "type": "event"
    },
    {
      "anonymous": false,
      "inputs": [
        {
          "indexed": true,
          "internalType": "uint256",
          "name": "_zDAOId",
          "type": "uint256"
        },
        {
          "indexed": true,
          "internalType": "uint256",
          "name": "_proposalId",
          "type": "uint256"
        },
        {
          "indexed": true,
          "internalType": "address",
          "name": "_voter",
          "type": "address"
        },
        {
          "indexed": false,
          "internalType": "uint256",
          "name": "_choice",
          "type": "uint256"
        }
      ],
      "name": "CastVote",
      "type": "event"
    },
    {
      "anonymous": false,
      "inputs": [
        {
          "indexed": true,
          "internalType": "address",
          "name": "_zDAO",
          "type": "address"
        },
        {
          "indexed": true,
          "internalType": "uint256",
          "name": "_daoId",
          "type": "uint256"
        },
        {
          "indexed": false,
          "internalType": "uint256",
          "name": "_duration",
          "type": "uint256"
        }
      ],
      "name": "DAOCreated",
      "type": "event"
    },
    {
      "anonymous": false,
      "inputs": [
        {
          "indexed": true,
          "internalType": "uint256",
          "name": "_daoId",
          "type": "uint256"
        }
      ],
      "name": "DAODestroyed",
      "type": "event"
    },
    {
      "anonymous": false,
      "inputs": [
        {
          "indexed": true,
          "internalType": "uint256",
          "name": "_daoId",
          "type": "uint256"
        },
        {
          "indexed": true,
          "internalType": "address",
          "name": "_token",
          "type": "address"
        }
      ],
      "name": "DAOTokenUpdated",
      "type": "event"
    },
    {
      "anonymous": false,
      "inputs": [
        {
          "indexed": true,
          "internalType": "address",
          "name": "previousOwner",
          "type": "address"
        },
        {
          "indexed": true,
          "internalType": "address",
          "name": "newOwner",
          "type": "address"
        }
      ],
      "name": "OwnershipTransferred",
      "type": "event"
    },
    {
      "anonymous": false,
      "inputs": [
        {
          "indexed": false,
          "internalType": "address",
          "name": "account",
          "type": "address"
        }
      ],
      "name": "Paused",
      "type": "event"
    },
    {
      "anonymous": false,
      "inputs": [
        {
          "indexed": true,
          "internalType": "uint256",
          "name": "_zDAOId",
          "type": "uint256"
        },
        {
          "indexed": true,
          "internalType": "uint256",
          "name": "_proposalId",
          "type": "uint256"
        },
        {
          "indexed": false,
          "internalType": "uint256",
          "name": "_voters",
          "type": "uint256"
        },
        {
          "indexed": false,
          "internalType": "uint256",
          "name": "_yes",
          "type": "uint256"
        },
        {
          "indexed": false,
          "internalType": "uint256",
          "name": "_no",
          "type": "uint256"
        }
      ],
      "name": "ProposalCalculated",
      "type": "event"
    },
    {
      "anonymous": false,
      "inputs": [
        {
          "indexed": true,
          "internalType": "uint256",
          "name": "_zDAOId",
          "type": "uint256"
        },
        {
          "indexed": true,
          "internalType": "uint256",
          "name": "_proposalId",
          "type": "uint256"
        }
      ],
      "name": "ProposalCanceled",
      "type": "event"
    },
    {
      "anonymous": false,
      "inputs": [
        {
          "indexed": true,
          "internalType": "uint256",
          "name": "_zDAOId",
          "type": "uint256"
        },
        {
          "indexed": true,
          "internalType": "uint256",
          "name": "_proposalId",
          "type": "uint256"
        },
        {
          "indexed": false,
          "internalType": "uint256",
          "name": "_startTimestamp",
          "type": "uint256"
        }
      ],
      "name": "ProposalCreated",
      "type": "event"
    },
    {
      "anonymous": false,
      "inputs": [
        {
          "indexed": true,
          "internalType": "uint256",
          "name": "_zDAOId",
          "type": "uint256"
        },
        {
          "indexed": true,
          "internalType": "uint256",
          "name": "_proposalId",
          "type": "uint256"
        }
      ],
      "name": "ProposalExecuted",
      "type": "event"
    },
    {
      "anonymous": false,
      "inputs": [
        {
          "indexed": true,
          "internalType": "bytes32",
          "name": "role",
          "type": "bytes32"
        },
        {
          "indexed": true,
          "internalType": "bytes32",
          "name": "previousAdminRole",
          "type": "bytes32"
        },
        {
          "indexed": true,
          "internalType": "bytes32",
          "name": "newAdminRole",
          "type": "bytes32"
        }
      ],
      "name": "RoleAdminChanged",
      "type": "event"
    },
    {
      "anonymous": false,
      "inputs": [
        {
          "indexed": true,
          "internalType": "bytes32",
          "name": "role",
          "type": "bytes32"
        },
        {
          "indexed": true,
          "internalType": "address",
          "name": "account",
          "type": "address"
        },
        {
          "indexed": true,
          "internalType": "address",
          "name": "sender",
          "type": "address"
        }
      ],
      "name": "RoleGranted",
      "type": "event"
    },
    {
      "anonymous": false,
      "inputs": [
        {
          "indexed": true,
          "internalType": "bytes32",
          "name": "role",
          "type": "bytes32"
        },
        {
          "indexed": true,
          "internalType": "address",
          "name": "account",
          "type": "address"
        },
        {
          "indexed": true,
          "internalType": "address",
          "name": "sender",
          "type": "address"
        }
      ],
      "name": "RoleRevoked",
      "type": "event"
    },
    {
      "anonymous": false,
      "inputs": [
        {
          "indexed": false,
          "internalType": "address",
          "name": "account",
          "type": "address"
        }
      ],
      "name": "Unpaused",
      "type": "event"
    },
    {
      "anonymous": false,
      "inputs": [
        {
          "indexed": true,
          "internalType": "address",
          "name": "implementation",
          "type": "address"
        }
      ],
      "name": "Upgraded",
      "type": "event"
    },
    {
      "inputs": [],
      "name": "DEFAULT_ADMIN_ROLE",
      "outputs": [
        {
          "internalType": "bytes32",
          "name": "",
          "type": "bytes32"
        }
      ],
      "stateMutability": "view",
      "type": "function"
    },
    {
      "inputs": [
        {
          "internalType": "contract Staking",
          "name": "_stakingBase",
          "type": "address"
        },
        {
          "internalType": "contract IPolygonStateSender",
          "name": "_polygonStateSender",
          "type": "address"
        },
        {
          "internalType": "address",
          "name": "_zDAOBase",
          "type": "address"
        },
        {
          "internalType": "contract IChildChainManager",
          "name": "_childChainManager",
          "type": "address"
        }
      ],
      "name": "__ZDAOChef_init",
      "outputs": [],
      "stateMutability": "nonpayable",
      "type": "function"
    },
    {
      "inputs": [
        {
          "internalType": "uint256",
          "name": "_daoId",
          "type": "uint256"
        },
        {
          "internalType": "uint256",
          "name": "_proposalId",
          "type": "uint256"
        }
      ],
      "name": "calculateProposal",
      "outputs": [],
      "stateMutability": "nonpayable",
      "type": "function"
    },
    {
      "inputs": [],
      "name": "childChainManager",
      "outputs": [
        {
          "internalType": "contract IChildChainManager",
          "name": "",
          "type": "address"
        }
      ],
      "stateMutability": "view",
      "type": "function"
    },
    {
      "inputs": [
        {
          "internalType": "bytes32",
          "name": "role",
          "type": "bytes32"
        }
      ],
      "name": "getRoleAdmin",
      "outputs": [
        {
          "internalType": "bytes32",
          "name": "",
          "type": "bytes32"
        }
      ],
      "stateMutability": "view",
      "type": "function"
    },
    {
      "inputs": [
        {
          "internalType": "uint256",
          "name": "_daoId",
          "type": "uint256"
        }
      ],
      "name": "getzDAOById",
      "outputs": [
        {
          "internalType": "contract IPolygonZDAO",
          "name": "",
          "type": "address"
        }
      ],
      "stateMutability": "view",
      "type": "function"
    },
    {
      "inputs": [
        {
          "internalType": "bytes32",
          "name": "role",
          "type": "bytes32"
        },
        {
          "internalType": "address",
          "name": "account",
          "type": "address"
        }
      ],
      "name": "grantRole",
      "outputs": [],
      "stateMutability": "nonpayable",
      "type": "function"
    },
    {
      "inputs": [
        {
          "internalType": "bytes32",
          "name": "role",
          "type": "bytes32"
        },
        {
          "internalType": "address",
          "name": "account",
          "type": "address"
        }
      ],
      "name": "hasRole",
      "outputs": [
        {
          "internalType": "bool",
          "name": "",
          "type": "bool"
        }
      ],
      "stateMutability": "view",
      "type": "function"
    },
    {
      "inputs": [
        {
          "internalType": "uint256",
          "name": "_startIndex",
          "type": "uint256"
        },
        {
          "internalType": "uint256",
          "name": "_count",
          "type": "uint256"
        }
      ],
      "name": "listzDAOs",
      "outputs": [
        {
          "internalType": "contract IPolygonZDAO[]",
          "name": "records",
          "type": "address[]"
        }
      ],
      "stateMutability": "view",
      "type": "function"
    },
    {
      "inputs": [],
      "name": "numberOfzDAOs",
      "outputs": [
        {
          "internalType": "uint256",
          "name": "",
          "type": "uint256"
        }
      ],
      "stateMutability": "view",
      "type": "function"
    },
    {
      "inputs": [],
      "name": "owner",
      "outputs": [
        {
          "internalType": "address",
          "name": "",
          "type": "address"
        }
      ],
      "stateMutability": "view",
      "type": "function"
    },
    {
      "inputs": [],
      "name": "paused",
      "outputs": [
        {
          "internalType": "bool",
          "name": "",
          "type": "bool"
        }
      ],
      "stateMutability": "view",
      "type": "function"
    },
    {
      "inputs": [],
      "name": "polygonStateSender",
      "outputs": [
        {
          "internalType": "contract IPolygonStateSender",
          "name": "",
          "type": "address"
        }
      ],
      "stateMutability": "view",
      "type": "function"
    },
    {
      "inputs": [
        {
          "internalType": "bytes",
          "name": "_message",
          "type": "bytes"
        }
      ],
      "name": "processMessageFromRoot",
      "outputs": [],
      "stateMutability": "nonpayable",
      "type": "function"
    },
    {
      "inputs": [],
      "name": "renounceOwnership",
      "outputs": [],
      "stateMutability": "nonpayable",
      "type": "function"
    },
    {
      "inputs": [
        {
          "internalType": "bytes32",
          "name": "role",
          "type": "bytes32"
        },
        {
          "internalType": "address",
          "name": "account",
          "type": "address"
        }
      ],
      "name": "renounceRole",
      "outputs": [],
      "stateMutability": "nonpayable",
      "type": "function"
    },
    {
      "inputs": [
        {
          "internalType": "bytes32",
          "name": "role",
          "type": "bytes32"
        },
        {
          "internalType": "address",
          "name": "account",
          "type": "address"
        }
      ],
      "name": "revokeRole",
      "outputs": [],
      "stateMutability": "nonpayable",
      "type": "function"
    },
    {
      "inputs": [
        {
          "internalType": "contract IChildChainManager",
          "name": "_childChainManager",
          "type": "address"
        }
      ],
      "name": "setChildChainManager",
      "outputs": [],
      "stateMutability": "nonpayable",
      "type": "function"
    },
    {
      "inputs": [
        {
          "internalType": "contract Staking",
          "name": "_staking",
          "type": "address"
        }
      ],
      "name": "setStaking",
      "outputs": [],
      "stateMutability": "nonpayable",
      "type": "function"
    },
    {
      "inputs": [
        {
          "internalType": "address",
          "name": "_zDAOBase",
          "type": "address"
        }
      ],
      "name": "setZDAOBase",
      "outputs": [],
      "stateMutability": "nonpayable",
      "type": "function"
    },
    {
      "inputs": [],
      "name": "staking",
      "outputs": [
        {
          "internalType": "contract Staking",
          "name": "",
          "type": "address"
        }
      ],
      "stateMutability": "view",
      "type": "function"
    },
    {
      "inputs": [
        {
          "internalType": "bytes4",
          "name": "interfaceId",
          "type": "bytes4"
        }
      ],
      "name": "supportsInterface",
      "outputs": [
        {
          "internalType": "bool",
          "name": "",
          "type": "bool"
        }
      ],
      "stateMutability": "view",
      "type": "function"
    },
    {
      "inputs": [
        {
          "internalType": "address",
          "name": "newOwner",
          "type": "address"
        }
      ],
      "name": "transferOwnership",
      "outputs": [],
      "stateMutability": "nonpayable",
      "type": "function"
    },
    {
      "inputs": [
        {
          "internalType": "address",
          "name": "newImplementation",
          "type": "address"
        }
      ],
      "name": "upgradeTo",
      "outputs": [],
      "stateMutability": "nonpayable",
      "type": "function"
    },
    {
      "inputs": [
        {
          "internalType": "address",
          "name": "newImplementation",
          "type": "address"
        },
        {
          "internalType": "bytes",
          "name": "data",
          "type": "bytes"
        }
      ],
      "name": "upgradeToAndCall",
      "outputs": [],
      "stateMutability": "payable",
      "type": "function"
    },
    {
      "inputs": [],
      "name": "version",
      "outputs": [
        {
          "internalType": "uint256",
          "name": "",
          "type": "uint256"
        }
      ],
      "stateMutability": "view",
      "type": "function"
    },
    {
      "inputs": [
        {
          "internalType": "uint256",
          "name": "_daoId",
          "type": "uint256"
        },
        {
          "internalType": "uint256",
          "name": "_proposalId",
          "type": "uint256"
        },
        {
          "internalType": "uint256",
          "name": "_choice",
          "type": "uint256"
        }
      ],
      "name": "vote",
      "outputs": [],
      "stateMutability": "nonpayable",
      "type": "function"
    },
    {
      "inputs": [],
      "name": "zDAOBase",
      "outputs": [
        {
          "internalType": "address",
          "name": "",
          "type": "address"
        }
      ],
      "stateMutability": "view",
      "type": "function"
    },
    {
      "inputs": [
        {
          "internalType": "uint256",
          "name": "",
          "type": "uint256"
        }
      ],
      "name": "zDAOIds",
      "outputs": [
        {
          "internalType": "uint256",
          "name": "",
          "type": "uint256"
        }
      ],
      "stateMutability": "view",
      "type": "function"
    },
    {
      "inputs": [
        {
          "internalType": "uint256",
          "name": "",
          "type": "uint256"
        }
      ],
      "name": "zDAOs",
      "outputs": [
        {
          "internalType": "contract IPolygonZDAO",
          "name": "",
          "type": "address"
        }
      ],
      "stateMutability": "view",
      "type": "function"
    }
  ],
  "bytecode": "0x60a06040523060805234801561001457600080fd5b506080516140696100456000396000818161080a015281816108a2015281816109d40152610a6c01526140696000f3fe608060405260043610620001f35760003560e01c8063764a81bb116200010b578063a217fddf11620000a1578063c8291d84116200006c578063c8291d841462000610578063d547741f1462000633578063f2fde38b1462000658578063fe0ed211146200067d57600080fd5b8063a217fddf1462000583578063b74a2c89146200059a578063ba636eef14620005bd578063c67cdd0114620005d557600080fd5b80638da5cb5b11620000e25780638da5cb5b14620004c05780638ff3909914620004e057806391d148541462000505578063946b22e2146200054f57600080fd5b8063764a81bb146200045157806383b35d5814620004765780638a6655d6146200049b57600080fd5b80633fc0d115116200018d5780635c975abb11620001585780635c975abb14620003d55780636afe60f814620003ef578063715018a6146200041457806375b9317e146200042c57600080fd5b80633fc0d115146200035d5780634cf088d914620003825780634f1ef28614620003a557806354fd4d5014620003bc57600080fd5b80632f2ff15d11620001ce5780632f2ff15d14620002b15780633628e9f714620002d857806336568abe14620003135780633659cfe6146200033857600080fd5b806301ffc9a714620001f8578063067302c11462000232578063248a9ca3146200026e575b600080fd5b3480156200020557600080fd5b506200021d6200021736600462003185565b620006a2565b60405190151581526020015b60405180910390f35b3480156200023f57600080fd5b506101935462000255906001600160a01b031681565b6040516001600160a01b03909116815260200162000229565b3480156200027b57600080fd5b50620002a26200028d366004620031c9565b60009081526097602052604090206001015490565b60405190815260200162000229565b348015620002be57600080fd5b50620002d6620002d0366004620031f9565b6200073c565b005b348015620002e557600080fd5b5062000255620002f7366004620031c9565b610195602052600090815260409020546001600160a01b031681565b3480156200032057600080fd5b50620002d662000332366004620031f9565b6200076b565b3480156200034557600080fd5b50620002d6620003573660046200322c565b620007ff565b3480156200036a57600080fd5b50620002a26200037c366004620031c9565b620009a6565b3480156200038f57600080fd5b506101925462000255906001600160a01b031681565b620002d6620003b636600462003262565b620009c9565b348015620003c957600080fd5b50620002a26101915481565b348015620003e257600080fd5b5060fb5460ff166200021d565b348015620003fc57600080fd5b50620002d66200040e36600462003332565b62000b5d565b3480156200042157600080fd5b50620002d662000dfd565b3480156200043957600080fd5b50620002d66200044b36600462003355565b62000e67565b3480156200045e57600080fd5b50620002d6620004703660046200322c565b62000fd8565b3480156200048357600080fd5b50620002d662000495366004620033ba565b62001064565b348015620004a857600080fd5b50620002d6620004ba36600462003431565b62001102565b348015620004cd57600080fd5b506033546001600160a01b031662000255565b348015620004ed57600080fd5b50620002d6620004ff3660046200322c565b620012ec565b3480156200051257600080fd5b506200021d62000524366004620031f9565b60009182526097602090815260408084206001600160a01b0393909316845291905290205460ff1690565b3480156200055c57600080fd5b50620005746200056e36600462003332565b62001378565b6040516200022991906200345e565b3480156200059057600080fd5b50620002a2600081565b348015620005a757600080fd5b506101945462000255906001600160a01b031681565b348015620005ca57600080fd5b5061019654620002a2565b348015620005e257600080fd5b5062000255620005f4366004620031c9565b600090815261019560205260409020546001600160a01b031690565b3480156200061d57600080fd5b506101975462000255906001600160a01b031681565b3480156200064057600080fd5b50620002d662000652366004620031f9565b6200149b565b3480156200066557600080fd5b50620002d6620006773660046200322c565b620014c5565b3480156200068a57600080fd5b50620002d66200069c3660046200322c565b620015aa565b60007fffffffff0000000000000000000000000000000000000000000000000000000082167f7965db0b0000000000000000000000000000000000000000000000000000000014806200073657507f01ffc9a7000000000000000000000000000000000000000000000000000000007fffffffff000000000000000000000000000000000000000000000000000000008316145b92915050565b6000828152609760205260409020600101546200075a813362001636565b620007668383620016bf565b505050565b6001600160a01b0381163314620007ef5760405162461bcd60e51b815260206004820152602f60248201527f416363657373436f6e74726f6c3a2063616e206f6e6c792072656e6f756e636560448201527f20726f6c657320666f722073656c66000000000000000000000000000000000060648201526084015b60405180910390fd5b620007fb828262001763565b5050565b306001600160a01b037f0000000000000000000000000000000000000000000000000000000000000000161415620008a05760405162461bcd60e51b815260206004820152602c60248201527f46756e6374696f6e206d7573742062652063616c6c6564207468726f7567682060448201527f64656c656761746563616c6c00000000000000000000000000000000000000006064820152608401620007e6565b7f00000000000000000000000000000000000000000000000000000000000000006001600160a01b0316620008fc7f360894a13ba1a3210667c828492db98dca3e2076cc3735a920a3ca505d382bbc546001600160a01b031690565b6001600160a01b0316146200097a5760405162461bcd60e51b815260206004820152602c60248201527f46756e6374696f6e206d7573742062652063616c6c6564207468726f7567682060448201527f6163746976652070726f787900000000000000000000000000000000000000006064820152608401620007e6565b6200098581620017e7565b60408051600080825260208201909252620009a39183919062001843565b50565b6101968181548110620009b857600080fd5b600091825260209091200154905081565b306001600160a01b037f000000000000000000000000000000000000000000000000000000000000000016141562000a6a5760405162461bcd60e51b815260206004820152602c60248201527f46756e6374696f6e206d7573742062652063616c6c6564207468726f7567682060448201527f64656c656761746563616c6c00000000000000000000000000000000000000006064820152608401620007e6565b7f00000000000000000000000000000000000000000000000000000000000000006001600160a01b031662000ac67f360894a13ba1a3210667c828492db98dca3e2076cc3735a920a3ca505d382bbc546001600160a01b031690565b6001600160a01b03161462000b445760405162461bcd60e51b815260206004820152602c60248201527f46756e6374696f6e206d7573742062652063616c6c6564207468726f7567682060448201527f6163746976652070726f787900000000000000000000000000000000000000006064820152608401620007e6565b62000b4f82620017e7565b620007fb8282600162001843565b6000828152610195602052604090205482906001600160a01b03161580159062000c195750600081815261019560209081526040918290205482517f359cbbc900000000000000000000000000000000000000000000000000000000815292516001600160a01b039091169263359cbbc99260048083019391928290030181865afa15801562000bf1573d6000803e3d6000fd5b505050506040513d601f19601f8201168201806040525081019062000c179190620034ad565b155b62000c675760405162461bcd60e51b815260206004820152600c60248201527f496e76616c6964207a44414f00000000000000000000000000000000000000006044820152606401620007e6565b600083815261019560205260408082205490517f458d567300000000000000000000000000000000000000000000000000000000815260048101859052829182916001600160a01b039091169063458d5673906024016060604051808303816000875af115801562000cdd573d6000803e3d6000fd5b505050506040513d601f19601f8201168201806040525081019062000d039190620034d1565b60408051848152602081018490529081018290529295509093509150859087907fc5f4ded6fe856e23f8c51620f7792940657a825849eb7efc3ef36aa77951b7929060600160405180910390a3610193546001600160a01b0316639a113ee260066040805160208101929092528101899052606081018890526080810186905260a0810185905260c0810184905260e0016040516020818303038152906040526040518263ffffffff1660e01b815260040162000dc1919062003561565b600060405180830381600087803b15801562000ddc57600080fd5b505af115801562000df1573d6000803e3d6000fd5b50505050505050505050565b6033546001600160a01b0316331462000e595760405162461bcd60e51b815260206004820181905260248201527f4f776e61626c653a2063616c6c6572206973206e6f7420746865206f776e65726044820152606401620007e6565b62000e65600062001a0e565b565b600054610100900460ff1662000e845760005460ff161562000e88565b303b155b62000efc5760405162461bcd60e51b815260206004820152602e60248201527f496e697469616c697a61626c653a20636f6e747261637420697320616c72656160448201527f647920696e697469616c697a65640000000000000000000000000000000000006064820152608401620007e6565b600054610100900460ff1615801562000f3c57600080547fffffffffffffffffffffffffffffffffffffffffffffffffffffffffffff0000166101011790555b62000f4662001a6d565b61019280546001600160a01b0380881673ffffffffffffffffffffffffffffffffffffffff199283161790925561019380548784169083161790556101948054868416908316179055610197805492851692909116919091179055801562000fd157600080547fffffffffffffffffffffffffffffffffffffffffffffffffffffffffffff00ff1690555b5050505050565b6033546001600160a01b03163314620010345760405162461bcd60e51b815260206004820181905260248201527f4f776e61626c653a2063616c6c6572206973206e6f7420746865206f776e65726044820152606401620007e6565b610197805473ffffffffffffffffffffffffffffffffffffffff19166001600160a01b0392909216919091179055565b610193546001600160a01b03163314620010c15760405162461bcd60e51b815260206004820152601260248201527f4e6f7420612073746174652073656e64657200000000000000000000000000006044820152606401620007e6565b620007fb82828080601f01602080910402602001604051908101604052809392919081815260200183838082843760009201919091525062001b1492505050565b6000838152610195602052604090205483906001600160a01b031615801590620011be5750600081815261019560209081526040918290205482517f359cbbc900000000000000000000000000000000000000000000000000000000815292516001600160a01b039091169263359cbbc99260048083019391928290030181865afa15801562001196573d6000803e3d6000fd5b505050506040513d601f19601f82011682018060405250810190620011bc9190620034ad565b155b6200120c5760405162461bcd60e51b815260206004820152600c60248201527f496e76616c6964207a44414f00000000000000000000000000000000000000006044820152606401620007e6565b60008481526101956020526040908190205490517f4de8737c00000000000000000000000000000000000000000000000000000000815260048101859052336024820152604481018490526001600160a01b0390911690634de8737c90606401600060405180830381600087803b1580156200128757600080fd5b505af11580156200129c573d6000803e3d6000fd5b50505050336001600160a01b031683857f94ecd3a313f078703294eda94e7e660df70e5926334b9b92da34ab5e21f24fe185604051620012de91815260200190565b60405180910390a450505050565b6033546001600160a01b03163314620013485760405162461bcd60e51b815260206004820181905260248201527f4f776e61626c653a2063616c6c6572206973206e6f7420746865206f776e65726044820152606401620007e6565b610192805473ffffffffffffffffffffffffffffffffffffffff19166001600160a01b0392909216919091179055565b6101965460609082906200138e9085906200358c565b811115620013aa5761019654620013a79085906200358c565b90505b8067ffffffffffffffff811115620013c657620013c66200324c565b604051908082528060200260200182016040528015620013f0578160200160208202803683370190505b50915060005b8181101562001493576101956000610196620014138489620035a6565b81548110620014265762001426620035c1565b9060005260206000200154815260200190815260200160002060009054906101000a90046001600160a01b0316838281518110620014685762001468620035c1565b6001600160a01b03909216602092830291909101909101526200148b81620035d7565b9050620013f6565b505092915050565b600082815260976020526040902060010154620014b9813362001636565b62000766838362001763565b6033546001600160a01b03163314620015215760405162461bcd60e51b815260206004820181905260248201527f4f776e61626c653a2063616c6c6572206973206e6f7420746865206f776e65726044820152606401620007e6565b6001600160a01b0381166200159f5760405162461bcd60e51b815260206004820152602660248201527f4f776e61626c653a206e6577206f776e657220697320746865207a65726f206160448201527f64647265737300000000000000000000000000000000000000000000000000006064820152608401620007e6565b620009a38162001a0e565b6033546001600160a01b03163314620016065760405162461bcd60e51b815260206004820181905260248201527f4f776e61626c653a2063616c6c6572206973206e6f7420746865206f776e65726044820152606401620007e6565b610194805473ffffffffffffffffffffffffffffffffffffffff19166001600160a01b0392909216919091179055565b60008281526097602090815260408083206001600160a01b038516845290915290205460ff16620007fb5762001677816001600160a01b0316601462001bac565b6200168483602062001bac565b60405160200162001697929190620035f5565b60408051601f198184030181529082905262461bcd60e51b8252620007e69160040162003561565b60008281526097602090815260408083206001600160a01b038516845290915290205460ff16620007fb5760008281526097602090815260408083206001600160a01b03851684529091529020805460ff191660011790556200171f3390565b6001600160a01b0316816001600160a01b0316837f2f8788117e7eff1d82e926ec794901d17c78024a50270940304540a733656f0d60405160405180910390a45050565b60008281526097602090815260408083206001600160a01b038516845290915290205460ff1615620007fb5760008281526097602090815260408083206001600160a01b0385168085529252808320805460ff1916905551339285917ff6391f5c32d9c69d2a47ea670b442974b53935d1edc7fd64eb21e047a839171b9190a45050565b6033546001600160a01b03163314620009a35760405162461bcd60e51b815260206004820181905260248201527f4f776e61626c653a2063616c6c6572206973206e6f7420746865206f776e65726044820152606401620007e6565b6000620018777f360894a13ba1a3210667c828492db98dca3e2076cc3735a920a3ca505d382bbc546001600160a01b031690565b9050620018848462001dfa565b600083511180620018925750815b15620018a657620018a4848462001ebe565b505b7f4910fdfa16fed3260ed0e7147f7cc6da11a60208b5b9406d12a635614ffd9143805460ff1662000fd157805460ff191660011781556040516001600160a01b03831660248201526200195690869060440160408051601f198184030181529190526020810180517bffffffffffffffffffffffffffffffffffffffffffffffffffffffff167f3659cfe60000000000000000000000000000000000000000000000000000000017905262001ebe565b50805460ff191681557f360894a13ba1a3210667c828492db98dca3e2076cc3735a920a3ca505d382bbc546001600160a01b0383811691161462001a035760405162461bcd60e51b815260206004820152602f60248201527f45524331393637557067726164653a207570677261646520627265616b73206660448201527f75727468657220757067726164657300000000000000000000000000000000006064820152608401620007e6565b62000fd18562001fc9565b603380546001600160a01b0383811673ffffffffffffffffffffffffffffffffffffffff19831681179093556040519116919082907f8be0079c531659141344cd1fd0a4f28419497f9722a3daafe3b4186f6b6457e090600090a35050565b600054610100900460ff1662001ada5760405162461bcd60e51b815260206004820152602b60248201527f496e697469616c697a61626c653a20636f6e7472616374206973206e6f74206960448201526a6e697469616c697a696e6760a81b6064820152608401620007e6565b62001ae46200200b565b62001aee6200208c565b62001af862002117565b62001b026200218e565b62001b0c6200220f565b600161019155565b60008180602001905181019062001b2c91906200367a565b9050600181141562001b435762000766826200227c565b600281141562001b5857620007fb82620024f2565b600381141562001b6d57620007fb8262002695565b600481141562001b8257620007fb82620028ba565b600581141562001b9757620007fb8262002aca565b6007811415620007fb57620007fb8262002cda565b6060600062001bbd83600262003694565b62001bca906002620035a6565b67ffffffffffffffff81111562001be55762001be56200324c565b6040519080825280601f01601f19166020018201604052801562001c10576020820181803683370190505b5090507f30000000000000000000000000000000000000000000000000000000000000008160008151811062001c4a5762001c4a620035c1565b60200101907effffffffffffffffffffffffffffffffffffffffffffffffffffffffffffff1916908160001a9053507f78000000000000000000000000000000000000000000000000000000000000008160018151811062001cb05762001cb0620035c1565b60200101907effffffffffffffffffffffffffffffffffffffffffffffffffffffffffffff1916908160001a905350600062001cee84600262003694565b62001cfb906001620035a6565b90505b600181111562001da2577f303132333435363738396162636465660000000000000000000000000000000085600f166010811062001d405762001d40620035c1565b1a60f81b82828151811062001d595762001d59620035c1565b60200101907effffffffffffffffffffffffffffffffffffffffffffffffffffffffffffff1916908160001a90535060049490941c9362001d9a81620036b6565b905062001cfe565b50831562001df35760405162461bcd60e51b815260206004820181905260248201527f537472696e67733a20686578206c656e67746820696e73756666696369656e746044820152606401620007e6565b9392505050565b803b62001e705760405162461bcd60e51b815260206004820152602d60248201527f455243313936373a206e657720696d706c656d656e746174696f6e206973206e60448201527f6f74206120636f6e7472616374000000000000000000000000000000000000006064820152608401620007e6565b7f360894a13ba1a3210667c828492db98dca3e2076cc3735a920a3ca505d382bbc805473ffffffffffffffffffffffffffffffffffffffff19166001600160a01b0392909216919091179055565b6060823b62001f365760405162461bcd60e51b815260206004820152602660248201527f416464726573733a2064656c65676174652063616c6c20746f206e6f6e2d636f60448201527f6e747261637400000000000000000000000000000000000000000000000000006064820152608401620007e6565b600080846001600160a01b03168460405162001f539190620036d0565b600060405180830381855af49150503d806000811462001f90576040519150601f19603f3d011682016040523d82523d6000602084013e62001f95565b606091505b509150915062001fc082826040518060600160405280602781526020016200400d6027913962002ef4565b95945050505050565b62001fd48162001dfa565b6040516001600160a01b038216907fbc7cd75a20ee27fd9adebab32041f755214dbc6bffa90cc0225b39da2e5c2d3b90600090a250565b600054610100900460ff16620020785760405162461bcd60e51b815260206004820152602b60248201527f496e697469616c697a61626c653a20636f6e7472616374206973206e6f74206960448201526a6e697469616c697a696e6760a81b6064820152608401620007e6565b6200208262002f32565b62000e6562002f9f565b600054610100900460ff16620020f95760405162461bcd60e51b815260206004820152602b60248201527f496e697469616c697a61626c653a20636f6e7472616374206973206e6f74206960448201526a6e697469616c697a696e6760a81b6064820152608401620007e6565b6200210362002f32565b6200210d62002f32565b62000e6562002f32565b600054610100900460ff16620021845760405162461bcd60e51b815260206004820152602b60248201527f496e697469616c697a61626c653a20636f6e7472616374206973206e6f74206960448201526a6e697469616c697a696e6760a81b6064820152608401620007e6565b62000e6562003017565b600054610100900460ff16620021fb5760405162461bcd60e51b815260206004820152602b60248201527f496e697469616c697a61626c653a20636f6e7472616374206973206e6f74206960448201526a6e697469616c697a696e6760a81b6064820152608401620007e6565b6200220562002f32565b62000e656200308b565b600054610100900460ff16620021035760405162461bcd60e51b815260206004820152602b60248201527f496e697469616c697a61626c653a20636f6e7472616374206973206e6f74206960448201526a6e697469616c697a696e6760a81b6064820152608401620007e6565b6000806000806000858060200190518101906200229a9190620036ee565b60008381526101956020526040902054939750919550935091506001600160a01b0316156200230c5760405162461bcd60e51b815260206004820152601860248201527f7a44414f2077617320616c7265616479206372656174656400000000000000006044820152606401620007e6565b610197546040517fea60c7c40000000000000000000000000000000000000000000000000000000081526001600160a01b038381166004830152600092169063ea60c7c490602401602060405180830381865afa15801562002372573d6000803e3d6000fd5b505050506040513d601f19601f8201168201806040525081019062002398919062003727565b6101945461019254604080513060248201526001600160a01b039283166044820152606481018990526084810188905284831660a4808301919091528251808303909101815260c49091019091526020810180517bffffffffffffffffffffffffffffffffffffffffffffffffffffffff167f3327374f000000000000000000000000000000000000000000000000000000001790529293506000926200244492919091169062003104565b600086815261019560209081526040808320805473ffffffffffffffffffffffffffffffffffffffff19166001600160a01b038616908117909155610196805460018101825594527f828feda00a4b64eb35101b6df8f6c29717b1ea6bae5dd03d3ddada8de0a9e7cb9093018990555187815292935087927f55ae7d977c54f7ef6855e5c3eeb3ba02e0ea9733775176712ab87eae15b477b3910160405180910390a3979650505050505050565b600080828060200190518101906200250b919062003747565b60008181526101956020908152604091829020548251631519361360e01b8152925194965092945084936001600160a01b039093169263151936139260048082019392918290030181865afa15801562002569573d6000803e3d6000fd5b505050506040513d601f19601f820116820180604052508101906200258f91906200367a565b14620025de5760405162461bcd60e51b815260206004820152600c60248201527f496e76616c6964207a44414f00000000000000000000000000000000000000006044820152606401620007e6565b60008181526101956020526040908190205490517f472858b4000000000000000000000000000000000000000000000000000000008152600160048201526001600160a01b039091169063472858b490602401600060405180830381600087803b1580156200264c57600080fd5b505af115801562002661573d6000803e3d6000fd5b50506040518392507f62d16daa2b15fec62c2624e8279f21d75a1e6d3f8dd790378d3129985765cb4a9150600090a2505050565b600080600083806020019051810190620026b09190620034d1565b6000828152610195602052604090205492955090935091506001600160a01b03166200271f5760405162461bcd60e51b815260206004820152601460248201527f4e6f742063726561746564207a44414f207965740000000000000000000000006044820152606401620007e6565b60008281526101956020908152604091829020548251631519361360e01b8152925185936001600160a01b0390921692631519361392600480820193918290030181865afa15801562002776573d6000803e3d6000fd5b505050506040513d601f19601f820116820180604052508101906200279c91906200367a565b14620027eb5760405162461bcd60e51b815260206004820152601460248201527f53796e63207a44414f20696e666f206572726f720000000000000000000000006044820152606401620007e6565b60008281526101956020526040908190205490517f6935bda6000000000000000000000000000000000000000000000000000000008152600481018390524260248201526001600160a01b0390911690636935bda690604401600060405180830381600087803b1580156200285f57600080fd5b505af115801562002874573d6000803e3d6000fd5b5050505080827fa6a21b90631faacde52b977eb6e15e5707522fbbba8eddef55ed173ffde48efa42604051620028ac91815260200190565b60405180910390a350505050565b600080600083806020019051810190620028d59190620034d1565b6000828152610195602052604090205492955090935091506001600160a01b0316620029445760405162461bcd60e51b815260206004820152601460248201527f4e6f742063726561746564207a44414f207965740000000000000000000000006044820152606401620007e6565b60008281526101956020908152604091829020548251631519361360e01b8152925185936001600160a01b0390921692631519361392600480820193918290030181865afa1580156200299b573d6000803e3d6000fd5b505050506040513d601f19601f82011682018060405250810190620029c191906200367a565b1462002a105760405162461bcd60e51b815260206004820152601460248201527f53796e63207a44414f20696e666f206572726f720000000000000000000000006044820152606401620007e6565b60008281526101956020526040908190205490517fe0a8f6f5000000000000000000000000000000000000000000000000000000008152600481018390526001600160a01b039091169063e0a8f6f590602401600060405180830381600087803b15801562002a7e57600080fd5b505af115801562002a93573d6000803e3d6000fd5b50506040518392508491507f740823f5b237fe3c86a5ff1cd7a2345263cab48eaddc595c9bbb35d86c6cc42190600090a350505050565b60008060008380602001905181019062002ae59190620034d1565b6000828152610195602052604090205492955090935091506001600160a01b031662002b545760405162461bcd60e51b815260206004820152601460248201527f4e6f742063726561746564207a44414f207965740000000000000000000000006044820152606401620007e6565b60008281526101956020908152604091829020548251631519361360e01b8152925185936001600160a01b0390921692631519361392600480820193918290030181865afa15801562002bab573d6000803e3d6000fd5b505050506040513d601f19601f8201168201806040525081019062002bd191906200367a565b1462002c205760405162461bcd60e51b815260206004820152601460248201527f53796e63207a44414f20696e666f206572726f720000000000000000000000006044820152606401620007e6565b60008281526101956020526040908190205490517f0d61b519000000000000000000000000000000000000000000000000000000008152600481018390526001600160a01b0390911690630d61b51990602401600060405180830381600087803b15801562002c8e57600080fd5b505af115801562002ca3573d6000803e3d6000fd5b50506040518392508491507ff758fc91e01b00ea6b4a6138756f7f28e021f9bf21db6dbf8c36c88eb737257a90600090a350505050565b60008060008380602001905181019062002cf591906200376c565b6000828152610195602052604090205492955090935091506001600160a01b031662002d645760405162461bcd60e51b815260206004820152601460248201527f4e6f742063726561746564207a44414f207965740000000000000000000000006044820152606401620007e6565b60008281526101956020908152604091829020548251631519361360e01b8152925185936001600160a01b0390921692631519361392600480820193918290030181865afa15801562002dbb573d6000803e3d6000fd5b505050506040513d601f19601f8201168201806040525081019062002de191906200367a565b1462002e305760405162461bcd60e51b815260206004820152601460248201527f53796e63207a44414f20696e666f206572726f720000000000000000000000006044820152606401620007e6565b60008281526101956020526040908190205490517f7ad3def20000000000000000000000000000000000000000000000000000000081526001600160a01b03838116600483015290911690637ad3def290602401600060405180830381600087803b15801562002e9f57600080fd5b505af115801562002eb4573d6000803e3d6000fd5b50506040516001600160a01b03841692508491507fd146e07bf65eebfa90bad123dd24a1b3d0b8fc783777272c1a9fec693b16d09c90600090a350505050565b6060831562002f0557508162001df3565b82511562002f165782518084602001fd5b8160405162461bcd60e51b8152600401620007e6919062003561565b600054610100900460ff1662000e655760405162461bcd60e51b815260206004820152602b60248201527f496e697469616c697a61626c653a20636f6e7472616374206973206e6f74206960448201526a6e697469616c697a696e6760a81b6064820152608401620007e6565b600054610100900460ff166200300c5760405162461bcd60e51b815260206004820152602b60248201527f496e697469616c697a61626c653a20636f6e7472616374206973206e6f74206960448201526a6e697469616c697a696e6760a81b6064820152608401620007e6565b62000e653362001a0e565b600054610100900460ff16620030845760405162461bcd60e51b815260206004820152602b60248201527f496e697469616c697a61626c653a20636f6e7472616374206973206e6f74206960448201526a6e697469616c697a696e6760a81b6064820152608401620007e6565b600160c955565b600054610100900460ff16620030f85760405162461bcd60e51b815260206004820152602b60248201527f496e697469616c697a61626c653a20636f6e7472616374206973206e6f74206960448201526a6e697469616c697a696e6760a81b6064820152608401620007e6565b60fb805460ff19169055565b600043826040516020016200311b929190620037a8565b604051602081830303815290604052805190602001208383604051620031419062003177565b6200314e929190620037d0565b8190604051809103906000f59050801580156200316f573d6000803e3d6000fd5b509392505050565b61081080620037fd83390190565b6000602082840312156200319857600080fd5b81357fffffffff000000000000000000000000000000000000000000000000000000008116811462001df357600080fd5b600060208284031215620031dc57600080fd5b5035919050565b6001600160a01b0381168114620009a357600080fd5b600080604083850312156200320d57600080fd5b8235915060208301356200322181620031e3565b809150509250929050565b6000602082840312156200323f57600080fd5b813562001df381620031e3565b634e487b7160e01b600052604160045260246000fd5b600080604083850312156200327657600080fd5b82356200328381620031e3565b9150602083013567ffffffffffffffff80821115620032a157600080fd5b818501915085601f830112620032b657600080fd5b813581811115620032cb57620032cb6200324c565b604051601f8201601f19908116603f01168101908382118183101715620032f657620032f66200324c565b816040528281528860208487010111156200331057600080fd5b8260208601602083013760006020848301015280955050505050509250929050565b600080604083850312156200334657600080fd5b50508035926020909101359150565b600080600080608085870312156200336c57600080fd5b84356200337981620031e3565b935060208501356200338b81620031e3565b925060408501356200339d81620031e3565b91506060850135620033af81620031e3565b939692955090935050565b60008060208385031215620033ce57600080fd5b823567ffffffffffffffff80821115620033e757600080fd5b818501915085601f830112620033fc57600080fd5b8135818111156200340c57600080fd5b8660208285010111156200341f57600080fd5b60209290920196919550909350505050565b6000806000606084860312156200344757600080fd5b505081359360208301359350604090920135919050565b6020808252825182820181905260009190848201906040850190845b81811015620034a15783516001600160a01b0316835292840192918401916001016200347a565b50909695505050505050565b600060208284031215620034c057600080fd5b8151801515811462001df357600080fd5b600080600060608486031215620034e757600080fd5b8351925060208401519150604084015190509250925092565b60005b838110156200351d57818101518382015260200162003503565b838111156200352d576000848401525b50505050565b600081518084526200354d81602086016020860162003500565b601f01601f19169290920160200192915050565b60208152600062001df3602083018462003533565b634e487b7160e01b600052601160045260246000fd5b600082821015620035a157620035a162003576565b500390565b60008219821115620035bc57620035bc62003576565b500190565b634e487b7160e01b600052603260045260246000fd5b6000600019821415620035ee57620035ee62003576565b5060010190565b7f416363657373436f6e74726f6c3a206163636f756e74200000000000000000008152600083516200362f81601785016020880162003500565b7f206973206d697373696e6720726f6c652000000000000000000000000000000060179184019182015283516200366e81602884016020880162003500565b01602801949350505050565b6000602082840312156200368d57600080fd5b5051919050565b6000816000190483118215151615620036b157620036b162003576565b500290565b600081620036c857620036c862003576565b506000190190565b60008251620036e481846020870162003500565b9190910192915050565b600080600080608085870312156200370557600080fd5b8451935060208501519250604085015191506060850151620033af81620031e3565b6000602082840312156200373a57600080fd5b815162001df381620031e3565b600080604083850312156200375b57600080fd5b505080516020909101519092909150565b6000806000606084860312156200378257600080fd5b835192506020840151915060408401516200379d81620031e3565b809150509250925092565b82815260008251620037c281602085016020870162003500565b919091016020019392505050565b6001600160a01b0383168152604060208201526000620037f4604083018462003533565b94935050505056fe608060405260405161081038038061081083398101604081905261002291610337565b61004d60017f360894a13ba1a3210667c828492db98dca3e2076cc3735a920a3ca505d382bbd610405565b6000805160206107c9833981519152146100695761006961042a565b6100758282600061007c565b505061048f565b610085836100b2565b6000825111806100925750805b156100ad576100ab83836100f260201b6100291760201c565b505b505050565b6100bb8161011e565b6040516001600160a01b038216907fbc7cd75a20ee27fd9adebab32041f755214dbc6bffa90cc0225b39da2e5c2d3b90600090a250565b606061011783836040518060600160405280602781526020016107e9602791396101de565b9392505050565b610131816102b360201b6100551760201c565b6101985760405162461bcd60e51b815260206004820152602d60248201527f455243313936373a206e657720696d706c656d656e746174696f6e206973206e60448201526c1bdd08184818dbdb9d1c9858dd609a1b60648201526084015b60405180910390fd5b806101bd6000805160206107c983398151915260001b6102b960201b61005b1760201c565b80546001600160a01b0319166001600160a01b039290921691909117905550565b6060833b61023d5760405162461bcd60e51b815260206004820152602660248201527f416464726573733a2064656c65676174652063616c6c20746f206e6f6e2d636f6044820152651b9d1c9858dd60d21b606482015260840161018f565b600080856001600160a01b0316856040516102589190610440565b600060405180830381855af49150503d8060008114610293576040519150601f19603f3d011682016040523d82523d6000602084013e610298565b606091505b5090925090506102a98282866102bc565b9695505050505050565b3b151590565b90565b606083156102cb575081610117565b8251156102db5782518084602001fd5b8160405162461bcd60e51b815260040161018f919061045c565b634e487b7160e01b600052604160045260246000fd5b60005b8381101561032657818101518382015260200161030e565b838111156100ab5750506000910152565b6000806040838503121561034a57600080fd5b82516001600160a01b038116811461036157600080fd5b60208401519092506001600160401b038082111561037e57600080fd5b818501915085601f83011261039257600080fd5b8151818111156103a4576103a46102f5565b604051601f8201601f19908116603f011681019083821181831017156103cc576103cc6102f5565b816040528281528860208487010111156103e557600080fd5b6103f683602083016020880161030b565b80955050505050509250929050565b60008282101561042557634e487b7160e01b600052601160045260246000fd5b500390565b634e487b7160e01b600052600160045260246000fd5b6000825161045281846020870161030b565b9190910192915050565b602081526000825180602084015261047b81604085016020870161030b565b601f01601f19169190910160400192915050565b61032b8061049e6000396000f3fe60806040523661001357610011610017565b005b6100115b61002761002261005e565b6100a3565b565b606061004e83836040518060600160405280602781526020016102cf602791396100c7565b9392505050565b3b151590565b90565b600061009e7f360894a13ba1a3210667c828492db98dca3e2076cc3735a920a3ca505d382bbc5473ffffffffffffffffffffffffffffffffffffffff1690565b905090565b3660008037600080366000845af43d6000803e8080156100c2573d6000f35b3d6000fd5b6060833b61015c576040517f08c379a000000000000000000000000000000000000000000000000000000000815260206004820152602660248201527f416464726573733a2064656c65676174652063616c6c20746f206e6f6e2d636f60448201527f6e7472616374000000000000000000000000000000000000000000000000000060648201526084015b60405180910390fd5b6000808573ffffffffffffffffffffffffffffffffffffffff16856040516101849190610261565b600060405180830381855af49150503d80600081146101bf576040519150601f19603f3d011682016040523d82523d6000602084013e6101c4565b606091505b50915091506101d48282866101de565b9695505050505050565b606083156101ed57508161004e565b8251156101fd5782518084602001fd5b816040517f08c379a0000000000000000000000000000000000000000000000000000000008152600401610153919061027d565b60005b8381101561024c578181015183820152602001610234565b8381111561025b576000848401525b50505050565b60008251610273818460208701610231565b9190910192915050565b602081526000825180602084015261029c816040850160208701610231565b601f017fffffffffffffffffffffffffffffffffffffffffffffffffffffffffffffffe016919091016040019291505056fe416464726573733a206c6f772d6c6576656c2064656c65676174652063616c6c206661696c6564a26469706673582212205d8cf11d25035ee7e8de4d55415591edecec71b825efdb63cab90b96322ff76364736f6c634300080b0033360894a13ba1a3210667c828492db98dca3e2076cc3735a920a3ca505d382bbc416464726573733a206c6f772d6c6576656c2064656c65676174652063616c6c206661696c6564416464726573733a206c6f772d6c6576656c2064656c65676174652063616c6c206661696c6564a26469706673582212204fc77c7530150fd0067d331d428bde46760840486d5c8f8f294afeabf5b3129764736f6c634300080b0033",
  "linkReferences": {},
  "deployedLinkReferences": {}
}