{
  "_format": "hh-sol-artifact-1",
  "contractName": "PolygonZDAO",
  "sourceName": "contracts/polygon/polygon/PolygonZDAO.sol",
  "abi": [
    {
      "anonymous": false,
      "inputs": [
        {
          "indexed": false,
          "internalType": "address",
          "name": "previousAdmin",
          "type": "address"
        },
        {
          "indexed": false,
          "internalType": "address",
          "name": "newAdmin",
          "type": "address"
        }
      ],
      "name": "AdminChanged",
      "type": "event"
    },
    {
      "anonymous": false,
      "inputs": [
        {
          "indexed": true,
          "internalType": "address",
          "name": "beacon",
          "type": "address"
        }
      ],
      "name": "BeaconUpgraded",
      "type": "event"
    },
    {
      "anonymous": false,
      "inputs": [
        {
          "indexed": true,
          "internalType": "address",
          "name": "previousOwner",
          "type": "address"
        },
        {
          "indexed": true,
          "internalType": "address",
          "name": "newOwner",
          "type": "address"
        }
      ],
      "name": "OwnershipTransferred",
      "type": "event"
    },
    {
      "anonymous": false,
      "inputs": [
        {
          "indexed": false,
          "internalType": "address",
          "name": "account",
          "type": "address"
        }
      ],
      "name": "Paused",
      "type": "event"
    },
    {
      "anonymous": false,
      "inputs": [
        {
          "indexed": true,
          "internalType": "bytes32",
          "name": "role",
          "type": "bytes32"
        },
        {
          "indexed": true,
          "internalType": "bytes32",
          "name": "previousAdminRole",
          "type": "bytes32"
        },
        {
          "indexed": true,
          "internalType": "bytes32",
          "name": "newAdminRole",
          "type": "bytes32"
        }
      ],
      "name": "RoleAdminChanged",
      "type": "event"
    },
    {
      "anonymous": false,
      "inputs": [
        {
          "indexed": true,
          "internalType": "bytes32",
          "name": "role",
          "type": "bytes32"
        },
        {
          "indexed": true,
          "internalType": "address",
          "name": "account",
          "type": "address"
        },
        {
          "indexed": true,
          "internalType": "address",
          "name": "sender",
          "type": "address"
        }
      ],
      "name": "RoleGranted",
      "type": "event"
    },
    {
      "anonymous": false,
      "inputs": [
        {
          "indexed": true,
          "internalType": "bytes32",
          "name": "role",
          "type": "bytes32"
        },
        {
          "indexed": true,
          "internalType": "address",
          "name": "account",
          "type": "address"
        },
        {
          "indexed": true,
          "internalType": "address",
          "name": "sender",
          "type": "address"
        }
      ],
      "name": "RoleRevoked",
      "type": "event"
    },
    {
      "anonymous": false,
      "inputs": [
        {
          "indexed": false,
          "internalType": "address",
          "name": "account",
          "type": "address"
        }
      ],
      "name": "Unpaused",
      "type": "event"
    },
    {
      "anonymous": false,
      "inputs": [
        {
          "indexed": true,
          "internalType": "address",
          "name": "implementation",
          "type": "address"
        }
      ],
      "name": "Upgraded",
      "type": "event"
    },
    {
      "inputs": [],
      "name": "DEFAULT_ADMIN_ROLE",
      "outputs": [
        {
          "internalType": "bytes32",
          "name": "",
          "type": "bytes32"
        }
      ],
      "stateMutability": "view",
      "type": "function"
    },
    {
      "inputs": [
        {
          "internalType": "address",
          "name": "_zDAOChef",
          "type": "address"
        },
        {
          "internalType": "address",
          "name": "_staking",
          "type": "address"
        },
        {
          "internalType": "uint256",
          "name": "_zDAOId",
          "type": "uint256"
        },
        {
          "internalType": "uint256",
          "name": "_duration",
          "type": "uint256"
        },
        {
          "internalType": "address",
          "name": "_token",
          "type": "address"
        }
      ],
      "name": "__ZDAO_init",
      "outputs": [],
      "stateMutability": "nonpayable",
      "type": "function"
    },
    {
      "inputs": [
        {
          "internalType": "uint256",
          "name": "_proposalId",
          "type": "uint256"
        }
      ],
      "name": "calculateProposal",
      "outputs": [
        {
          "internalType": "uint256",
          "name": "voters",
          "type": "uint256"
        },
        {
          "internalType": "uint256",
          "name": "yes",
          "type": "uint256"
        },
        {
          "internalType": "uint256",
          "name": "no",
          "type": "uint256"
        }
      ],
      "stateMutability": "nonpayable",
      "type": "function"
    },
    {
      "inputs": [
        {
          "internalType": "uint256",
          "name": "_proposalId",
          "type": "uint256"
        }
      ],
      "name": "canCalculateProposal",
      "outputs": [
        {
          "internalType": "bool",
          "name": "",
          "type": "bool"
        }
      ],
      "stateMutability": "view",
      "type": "function"
    },
    {
      "inputs": [
        {
          "internalType": "uint256",
          "name": "_proposalId",
          "type": "uint256"
        },
        {
          "internalType": "address",
          "name": "_voter",
          "type": "address"
        }
      ],
      "name": "canVote",
      "outputs": [
        {
          "internalType": "bool",
          "name": "",
          "type": "bool"
        }
      ],
      "stateMutability": "view",
      "type": "function"
    },
    {
      "inputs": [
        {
          "internalType": "uint256",
          "name": "_proposalId",
          "type": "uint256"
        }
      ],
      "name": "cancelProposal",
      "outputs": [],
      "stateMutability": "nonpayable",
      "type": "function"
    },
    {
      "inputs": [
        {
          "internalType": "uint256",
          "name": "_proposalId",
          "type": "uint256"
        },
        {
          "internalType": "address",
          "name": "_voter",
          "type": "address"
        }
      ],
      "name": "choiceOfVoter",
      "outputs": [
        {
          "internalType": "enum IPolygonZDAO.VoterChoice",
          "name": "",
          "type": "uint8"
        }
      ],
      "stateMutability": "view",
      "type": "function"
    },
    {
      "inputs": [
        {
          "internalType": "uint256",
          "name": "_proposalId",
          "type": "uint256"
        },
        {
          "internalType": "uint256",
          "name": "_startTimestamp",
          "type": "uint256"
        }
      ],
      "name": "createProposal",
      "outputs": [],
      "stateMutability": "nonpayable",
      "type": "function"
    },
    {
      "inputs": [],
      "name": "destroyed",
      "outputs": [
        {
          "internalType": "bool",
          "name": "",
          "type": "bool"
        }
      ],
      "stateMutability": "view",
      "type": "function"
    },
    {
      "inputs": [
        {
          "internalType": "uint256",
          "name": "_proposalId",
          "type": "uint256"
        }
      ],
      "name": "executeProposal",
      "outputs": [],
      "stateMutability": "nonpayable",
      "type": "function"
    },
    {
      "inputs": [
        {
          "internalType": "bytes32",
          "name": "role",
          "type": "bytes32"
        }
      ],
      "name": "getRoleAdmin",
      "outputs": [
        {
          "internalType": "bytes32",
          "name": "",
          "type": "bytes32"
        }
      ],
      "stateMutability": "view",
      "type": "function"
    },
    {
      "inputs": [
        {
          "internalType": "bytes32",
          "name": "role",
          "type": "bytes32"
        },
        {
          "internalType": "address",
          "name": "account",
          "type": "address"
        }
      ],
      "name": "grantRole",
      "outputs": [],
      "stateMutability": "nonpayable",
      "type": "function"
    },
    {
      "inputs": [
        {
          "internalType": "bytes32",
          "name": "role",
          "type": "bytes32"
        },
        {
          "internalType": "address",
          "name": "account",
          "type": "address"
        }
      ],
      "name": "hasRole",
      "outputs": [
        {
          "internalType": "bool",
          "name": "",
          "type": "bool"
        }
      ],
      "stateMutability": "view",
      "type": "function"
    },
    {
      "inputs": [
        {
          "internalType": "uint256",
          "name": "_startIndex",
          "type": "uint256"
        },
        {
          "internalType": "uint256",
          "name": "_count",
          "type": "uint256"
        }
      ],
      "name": "listProposals",
      "outputs": [
        {
          "components": [
            {
              "internalType": "uint256",
              "name": "proposalId",
              "type": "uint256"
            },
            {
              "internalType": "uint256",
              "name": "startTimestamp",
              "type": "uint256"
            },
            {
              "internalType": "uint256",
              "name": "endTimestamp",
              "type": "uint256"
            },
            {
              "internalType": "uint256",
              "name": "yes",
              "type": "uint256"
            },
            {
              "internalType": "uint256",
              "name": "no",
              "type": "uint256"
            },
            {
              "internalType": "uint256",
              "name": "voters",
              "type": "uint256"
            },
            {
              "internalType": "uint256",
              "name": "snapshot",
              "type": "uint256"
            },
            {
              "internalType": "bool",
              "name": "calculated",
              "type": "bool"
            },
            {
              "internalType": "bool",
              "name": "executed",
              "type": "bool"
            },
            {
              "internalType": "bool",
              "name": "canceled",
              "type": "bool"
            }
          ],
          "internalType": "struct IPolygonZDAO.Proposal[]",
          "name": "records",
          "type": "tuple[]"
        }
      ],
      "stateMutability": "view",
      "type": "function"
    },
    {
      "inputs": [
        {
          "internalType": "uint256",
          "name": "_proposalId",
          "type": "uint256"
        },
        {
          "internalType": "uint256",
          "name": "_startIndex",
          "type": "uint256"
        },
        {
          "internalType": "uint256",
          "name": "_count",
          "type": "uint256"
        }
      ],
      "name": "listVoters",
      "outputs": [
        {
          "internalType": "address[]",
          "name": "voters",
          "type": "address[]"
        },
        {
          "internalType": "uint256[]",
          "name": "choices",
          "type": "uint256[]"
        },
        {
          "internalType": "uint256[]",
          "name": "votes",
          "type": "uint256[]"
        }
      ],
      "stateMutability": "view",
      "type": "function"
    },
    {
      "inputs": [],
      "name": "numberOfProposals",
      "outputs": [
        {
          "internalType": "uint256",
          "name": "",
          "type": "uint256"
        }
      ],
      "stateMutability": "view",
      "type": "function"
    },
    {
      "inputs": [],
      "name": "owner",
      "outputs": [
        {
          "internalType": "address",
          "name": "",
          "type": "address"
        }
      ],
      "stateMutability": "view",
      "type": "function"
    },
    {
      "inputs": [],
      "name": "paused",
      "outputs": [
        {
          "internalType": "bool",
          "name": "",
          "type": "bool"
        }
      ],
      "stateMutability": "view",
      "type": "function"
    },
    {
      "inputs": [
        {
          "internalType": "uint256",
          "name": "",
          "type": "uint256"
        }
      ],
      "name": "proposalIds",
      "outputs": [
        {
          "internalType": "uint256",
          "name": "",
          "type": "uint256"
        }
      ],
      "stateMutability": "view",
      "type": "function"
    },
    {
      "inputs": [
        {
          "internalType": "uint256",
          "name": "",
          "type": "uint256"
        }
      ],
      "name": "proposals",
      "outputs": [
        {
          "internalType": "uint256",
          "name": "proposalId",
          "type": "uint256"
        },
        {
          "internalType": "uint256",
          "name": "startTimestamp",
          "type": "uint256"
        },
        {
          "internalType": "uint256",
          "name": "endTimestamp",
          "type": "uint256"
        },
        {
          "internalType": "uint256",
          "name": "yes",
          "type": "uint256"
        },
        {
          "internalType": "uint256",
          "name": "no",
          "type": "uint256"
        },
        {
          "internalType": "uint256",
          "name": "voters",
          "type": "uint256"
        },
        {
          "internalType": "uint256",
          "name": "snapshot",
          "type": "uint256"
        },
        {
          "internalType": "bool",
          "name": "calculated",
          "type": "bool"
        },
        {
          "internalType": "bool",
          "name": "executed",
          "type": "bool"
        },
        {
          "internalType": "bool",
          "name": "canceled",
          "type": "bool"
        }
      ],
      "stateMutability": "view",
      "type": "function"
    },
    {
      "inputs": [],
      "name": "renounceOwnership",
      "outputs": [],
      "stateMutability": "nonpayable",
      "type": "function"
    },
    {
      "inputs": [
        {
          "internalType": "bytes32",
          "name": "role",
          "type": "bytes32"
        },
        {
          "internalType": "address",
          "name": "account",
          "type": "address"
        }
      ],
      "name": "renounceRole",
      "outputs": [],
      "stateMutability": "nonpayable",
      "type": "function"
    },
    {
      "inputs": [
        {
          "internalType": "bytes32",
          "name": "role",
          "type": "bytes32"
        },
        {
          "internalType": "address",
          "name": "account",
          "type": "address"
        }
      ],
      "name": "revokeRole",
      "outputs": [],
      "stateMutability": "nonpayable",
      "type": "function"
    },
    {
      "inputs": [
        {
          "internalType": "bool",
          "name": "_destroyed",
          "type": "bool"
        }
      ],
      "name": "setDestroyed",
      "outputs": [],
      "stateMutability": "nonpayable",
      "type": "function"
    },
    {
      "inputs": [],
      "name": "staking",
      "outputs": [
        {
          "internalType": "contract Staking",
          "name": "",
          "type": "address"
        }
      ],
      "stateMutability": "view",
      "type": "function"
    },
    {
      "inputs": [
        {
          "internalType": "uint256",
          "name": "_proposalId",
          "type": "uint256"
        }
      ],
      "name": "state",
      "outputs": [
        {
          "internalType": "enum IPolygonZDAO.ProposalState",
          "name": "",
          "type": "uint8"
        }
      ],
      "stateMutability": "view",
      "type": "function"
    },
    {
      "inputs": [
        {
          "internalType": "bytes4",
          "name": "interfaceId",
          "type": "bytes4"
        }
      ],
      "name": "supportsInterface",
      "outputs": [
        {
          "internalType": "bool",
          "name": "",
          "type": "bool"
        }
      ],
      "stateMutability": "view",
      "type": "function"
    },
    {
      "inputs": [
        {
          "internalType": "address",
          "name": "newOwner",
          "type": "address"
        }
      ],
      "name": "transferOwnership",
      "outputs": [],
      "stateMutability": "nonpayable",
      "type": "function"
    },
    {
      "inputs": [
        {
          "internalType": "address",
          "name": "_token",
          "type": "address"
        }
      ],
      "name": "updateToken",
      "outputs": [],
      "stateMutability": "nonpayable",
      "type": "function"
    },
    {
      "inputs": [
        {
          "internalType": "address",
          "name": "newImplementation",
          "type": "address"
        }
      ],
      "name": "upgradeTo",
      "outputs": [],
      "stateMutability": "nonpayable",
      "type": "function"
    },
    {
      "inputs": [
        {
          "internalType": "address",
          "name": "newImplementation",
          "type": "address"
        },
        {
          "internalType": "bytes",
          "name": "data",
          "type": "bytes"
        }
      ],
      "name": "upgradeToAndCall",
      "outputs": [],
      "stateMutability": "payable",
      "type": "function"
    },
    {
      "inputs": [],
      "name": "version",
      "outputs": [
        {
          "internalType": "uint256",
          "name": "",
          "type": "uint256"
        }
      ],
      "stateMutability": "view",
      "type": "function"
    },
    {
      "inputs": [
        {
          "internalType": "uint256",
          "name": "_proposalId",
          "type": "uint256"
        },
        {
          "internalType": "address",
          "name": "_voter",
          "type": "address"
        },
        {
          "internalType": "uint256",
          "name": "_choice",
          "type": "uint256"
        }
      ],
      "name": "vote",
      "outputs": [],
      "stateMutability": "nonpayable",
      "type": "function"
    },
    {
      "inputs": [
        {
          "internalType": "uint256",
          "name": "_proposalId",
          "type": "uint256"
        }
      ],
      "name": "votesResultOfProposal",
      "outputs": [
        {
          "internalType": "uint256",
          "name": "voters",
          "type": "uint256"
        },
        {
          "internalType": "uint256",
          "name": "yes",
          "type": "uint256"
        },
        {
          "internalType": "uint256",
          "name": "no",
          "type": "uint256"
        }
      ],
      "stateMutability": "view",
      "type": "function"
    },
    {
      "inputs": [
        {
          "internalType": "uint256",
          "name": "_proposalId",
          "type": "uint256"
        },
        {
          "internalType": "address",
          "name": "_voter",
          "type": "address"
        }
      ],
      "name": "votingPowerOfVoter",
      "outputs": [
        {
          "internalType": "uint256",
          "name": "",
          "type": "uint256"
        }
      ],
      "stateMutability": "view",
      "type": "function"
    },
    {
      "inputs": [],
      "name": "zDAOChef",
      "outputs": [
        {
          "internalType": "address",
          "name": "",
          "type": "address"
        }
      ],
      "stateMutability": "view",
      "type": "function"
    },
    {
      "inputs": [],
      "name": "zDAOId",
      "outputs": [
        {
          "internalType": "uint256",
          "name": "",
          "type": "uint256"
        }
      ],
      "stateMutability": "view",
      "type": "function"
    },
    {
      "inputs": [],
      "name": "zDAOInfo",
      "outputs": [
        {
          "internalType": "uint256",
          "name": "zDAOId",
          "type": "uint256"
        },
        {
          "internalType": "uint256",
          "name": "duration",
          "type": "uint256"
        },
        {
          "internalType": "address",
          "name": "token",
          "type": "address"
        },
        {
          "internalType": "uint256",
          "name": "snapshot",
          "type": "uint256"
        },
        {
          "internalType": "bool",
          "name": "destroyed",
          "type": "bool"
        }
      ],
      "stateMutability": "view",
      "type": "function"
    }
  ],
  "bytecode": "0x60a06040523060805234801561001457600080fd5b5060805161375961004560003960008181610d7d01528181610e13015281816113b9015261144f01526137596000f3fe6080604052600436106102855760003560e01c80635c975abb1161015357806391d14854116100cb578063cdb2867b1161007f578063d8191e6c11610064578063d8191e6c14610850578063e0a8f6f5146108c0578063f2fde38b146108e057600080fd5b8063cdb2867b14610810578063d547741f1461083057600080fd5b8063a217fddf116100b0578063a217fddf1461076d578063affc179314610782578063b5c23fdd146107e157600080fd5b806391d14854146107075780639b644a231461074d57600080fd5b80637ad3def2116101225780638d7af473116101075780638d7af473146106b25780638da5cb5b146106c857806390bfeab3146106e657600080fd5b80637ad3def2146106655780637f6dda141461068557600080fd5b80635c975abb146105f857806362a8dab9146106105780636935bda614610630578063715018a61461065057600080fd5b8063359cbbc911610201578063472858b4116101b55780634de8737c1161019a5780634de8737c146105ae5780634f1ef286146105ce57806354fd4d50146105e157600080fd5b8063472858b4146105555780634cf088d91461057557600080fd5b80633659cfe6116101e65780633659cfe6146104e85780633e4f49e614610508578063458d56731461053557600080fd5b8063359cbbc9146104af57806336568abe146104c857600080fd5b8063120e33da11610258578063248a9ca31161023d578063248a9ca31461043f5780632f2ff15d1461046f5780633327374f1461048f57600080fd5b8063120e33da146103c6578063151936131461041f57600080fd5b8063013cf08b1461028a57806301ffc9a7146103545780630d61b519146103845780630e402ea3146103a6575b600080fd5b34801561029657600080fd5b506102ff6102a536600461310c565b610199602052600090815260409020805460018201546002830154600384015460048501546005860154600687015460079097015495969495939492939192909160ff80821691610100810482169162010000909104168a565b604080519a8b5260208b0199909952978901969096526060880194909452608087019290925260a086015260c0850152151560e084015215156101008301521515610120820152610140015b60405180910390f35b34801561036057600080fd5b5061037461036f366004613125565b610900565b604051901515815260200161034b565b34801561039057600080fd5b506103a461039f36600461310c565b610999565b005b3480156103b257600080fd5b506103746103c136600461310c565b610b4e565b3480156103d257600080fd5b506104046103e136600461310c565b600090815261019960205260409020600581015460038201546004909201549092565b6040805193845260208401929092529082015260600161034b565b34801561042b57600080fd5b50610194545b60405190815260200161034b565b34801561044b57600080fd5b5061043161045a36600461310c565b60009081526097602052604090206001015490565b34801561047b57600080fd5b506103a461048a366004613183565b610b59565b34801561049b57600080fd5b506103a46104aa3660046131af565b610b84565b3480156104bb57600080fd5b506101985460ff16610374565b3480156104d457600080fd5b506103a46104e3366004613183565b610cea565b3480156104f457600080fd5b506103a4610503366004613206565b610d72565b34801561051457600080fd5b5061052861052336600461310c565b610f10565b60405161034b9190613237565b34801561054157600080fd5b5061040461055036600461310c565b610f9d565b34801561056157600080fd5b506103a4610570366004613251565b61115b565b34801561058157600080fd5b5061019354610596906001600160a01b031681565b6040516001600160a01b03909116815260200161034b565b3480156105ba57600080fd5b506103a46105c9366004613273565b6111bb565b6103a46105dc3660046132be565b6113ae565b3480156105ed57600080fd5b506104316101915481565b34801561060457600080fd5b5060fb5460ff16610374565b34801561061c57600080fd5b5061043161062b366004613183565b611539565b34801561063c57600080fd5b506103a461064b366004613380565b61155d565b34801561065c57600080fd5b506103a4611682565b34801561067157600080fd5b506103a4610680366004613206565b6116e8565b34801561069157600080fd5b506106a56106a0366004613380565b611764565b60405161034b91906133a2565b3480156106be57600080fd5b5061019b54610431565b3480156106d457600080fd5b506033546001600160a01b0316610596565b3480156106f257600080fd5b5061019254610596906001600160a01b031681565b34801561071357600080fd5b50610374610722366004613183565b60009182526097602090815260408084206001600160a01b0393909316845291905290205460ff1690565b34801561075957600080fd5b5061043161076836600461310c565b611938565b34801561077957600080fd5b50610431600081565b34801561078e57600080fd5b506107d461079d366004613183565b600091825261019a602090815260408084206001600160a01b0393909316845260019092019052902054600160a01b900460ff1690565b60405161034b919061344b565b3480156107ed57600080fd5b506108016107fc36600461345f565b61195a565b60405161034b939291906134c6565b34801561081c57600080fd5b5061037461082b366004613183565b611b8c565b34801561083c57600080fd5b506103a461084b366004613183565b611ba9565b34801561085c57600080fd5b5061019454610195546101965461019754610198546108889493926001600160a01b0316919060ff1685565b6040805195865260208601949094526001600160a01b039092169284019290925260608301919091521515608082015260a00161034b565b3480156108cc57600080fd5b506103a46108db36600461310c565b611bcf565b3480156108ec57600080fd5b506103a46108fb366004613206565b611da4565b60007fffffffff0000000000000000000000000000000000000000000000000000000082167f7965db0b00000000000000000000000000000000000000000000000000000000148061099357507f01ffc9a7000000000000000000000000000000000000000000000000000000007fffffffff000000000000000000000000000000000000000000000000000000008316145b92915050565b610192546001600160a01b031633146109ea5760405162461bcd60e51b815260206004820152600e60248201526d2737ba1030902d2220a7a1b432b360911b60448201526064015b60405180910390fd5b6101985460ff1615610a3e5760405162461bcd60e51b815260206004820152601160248201527f416c72656164792064657374726f79656400000000000000000000000000000060448201526064016109e1565b6000818152610199602052604090205481908114610a9e5760405162461bcd60e51b815260206004820152601060248201527f496e76616c69642070726f706f73616c0000000000000000000000000000000060448201526064016109e1565b6000828152610199602052604090206007015462010000900460ff16158015610ad957506000828152610199602052604090206007015460ff165b610b255760405162461bcd60e51b815260206004820152601460248201527f4e6f7420612076616c69642070726f706f73616c00000000000000000000000060448201526064016109e1565b610b4a82600090815261019960205260409020600701805461ff001916610100179055565b5050565b600061099382611e83565b600082815260976020526040902060010154610b758133611ea9565b610b7f8383611f29565b505050565b600054610100900460ff16610b9f5760005460ff1615610ba3565b303b155b610c155760405162461bcd60e51b815260206004820152602e60248201527f496e697469616c697a61626c653a20636f6e747261637420697320616c72656160448201527f647920696e697469616c697a656400000000000000000000000000000000000060648201526084016109e1565b600054610100900460ff16158015610c37576000805461ffff19166101011790555b610c3f611fcb565b61019280546001600160a01b0380891673ffffffffffffffffffffffffffffffffffffffff199283161790925561019380548884169083161790556040805160a0810182528781526020810187905292851690830181905243606084018190526000608090940193909352610194879055610195869055610196805490921617905561019755610198805460ff191690558015610ce2576000805461ff00191690555b505050505050565b6001600160a01b0381163314610d685760405162461bcd60e51b815260206004820152602f60248201527f416363657373436f6e74726f6c3a2063616e206f6e6c792072656e6f756e636560448201527f20726f6c657320666f722073656c66000000000000000000000000000000000060648201526084016109e1565b610b4a8282612066565b306001600160a01b037f0000000000000000000000000000000000000000000000000000000000000000161415610e115760405162461bcd60e51b815260206004820152602c60248201527f46756e6374696f6e206d7573742062652063616c6c6564207468726f7567682060448201527f64656c656761746563616c6c000000000000000000000000000000000000000060648201526084016109e1565b7f00000000000000000000000000000000000000000000000000000000000000006001600160a01b0316610e6c7f360894a13ba1a3210667c828492db98dca3e2076cc3735a920a3ca505d382bbc546001600160a01b031690565b6001600160a01b031614610ee85760405162461bcd60e51b815260206004820152602c60248201527f46756e6374696f6e206d7573742062652063616c6c6564207468726f7567682060448201527f6163746976652070726f7879000000000000000000000000000000000000000060648201526084016109e1565b610ef1816120e9565b60408051600080825260208201909252610f0d91839190612143565b50565b600081815261019960205260408120600781015462010000900460ff1615610f3b5750600292915050565b80600101544211610f4f5750600092915050565b80600201544211610f635750600192915050565b6007810154610100900460ff1615610f7e5750600392915050565b600781015460ff1615610f945750600592915050565b50600492915050565b61019254600090819081906001600160a01b03163314610ff05760405162461bcd60e51b815260206004820152600e60248201526d2737ba1030902d2220a7a1b432b360911b60448201526064016109e1565b6101985460ff16156110445760405162461bcd60e51b815260206004820152601160248201527f416c72656164792064657374726f79656400000000000000000000000000000060448201526064016109e1565b60008481526101996020526040902054849081146110a45760405162461bcd60e51b815260206004820152601060248201527f496e76616c69642070726f706f73616c0000000000000000000000000000000060448201526064016109e1565b600085815261019960205260409020600781015462010000900460ff161580156110d35750600781015460ff16155b80156110e25750806002015442115b61112e5760405162461bcd60e51b815260206004820152601460248201527f4e6f7420612076616c69642070726f706f73616c00000000000000000000000060448201526064016109e1565b6005810154600382015460048301546007909301805460ff19166001179055909790965090945092505050565b610192546001600160a01b031633146111a75760405162461bcd60e51b815260206004820152600e60248201526d2737ba1030902d2220a7a1b432b360911b60448201526064016109e1565b610198805460ff1916911515919091179055565b610192546001600160a01b031633146112075760405162461bcd60e51b815260206004820152600e60248201526d2737ba1030902d2220a7a1b432b360911b60448201526064016109e1565b6101985460ff161561125b5760405162461bcd60e51b815260206004820152601160248201527f416c72656164792064657374726f79656400000000000000000000000000000060448201526064016109e1565b60008381526101996020526040902054839081146112bb5760405162461bcd60e51b815260206004820152601060248201527f496e76616c69642070726f706f73616c0000000000000000000000000000000060448201526064016109e1565b60018214806112ca5750600282145b6113165760405162461bcd60e51b815260206004820152600e60248201527f496e76616c69642063686f69636500000000000000000000000000000000000060448201526064016109e1565b6101965461133090859085906001600160a01b0316612307565b61137c5760405162461bcd60e51b815260206004820152601460248201527f4e6f742076616c696420666f7220766f74696e6700000000000000000000000060448201526064016109e1565b610196546113a890859085906001600160a01b03168560028111156113a3576113a3613221565b6123e6565b50505050565b306001600160a01b037f000000000000000000000000000000000000000000000000000000000000000016141561144d5760405162461bcd60e51b815260206004820152602c60248201527f46756e6374696f6e206d7573742062652063616c6c6564207468726f7567682060448201527f64656c656761746563616c6c000000000000000000000000000000000000000060648201526084016109e1565b7f00000000000000000000000000000000000000000000000000000000000000006001600160a01b03166114a87f360894a13ba1a3210667c828492db98dca3e2076cc3735a920a3ca505d382bbc546001600160a01b031690565b6001600160a01b0316146115245760405162461bcd60e51b815260206004820152602c60248201527f46756e6374696f6e206d7573742062652063616c6c6564207468726f7567682060448201527f6163746976652070726f7879000000000000000000000000000000000000000060648201526084016109e1565b61152d826120e9565b610b4a82826001612143565b6101965460009061155690849084906001600160a01b03166125e8565b9392505050565b610192546001600160a01b031633146115a95760405162461bcd60e51b815260206004820152600e60248201526d2737ba1030902d2220a7a1b432b360911b60448201526064016109e1565b6101985460ff16156115fd5760405162461bcd60e51b815260206004820152601160248201527f416c72656164792064657374726f79656400000000000000000000000000000060448201526064016109e1565b60008211801561161a575060008281526101996020526040902054155b6116665760405162461bcd60e51b815260206004820152601c60248201527f50726f706f73616c2077617320616c726561647920637265617465640000000060448201526064016109e1565b610b4a8282610194600101548461167d9190613551565b61269b565b6033546001600160a01b031633146116dc5760405162461bcd60e51b815260206004820181905260248201527f4f776e61626c653a2063616c6c6572206973206e6f7420746865206f776e657260448201526064016109e1565b6116e660006127f6565b565b610192546001600160a01b031633146117345760405162461bcd60e51b815260206004820152600e60248201526d2737ba1030902d2220a7a1b432b360911b60448201526064016109e1565b610196805473ffffffffffffffffffffffffffffffffffffffff19166001600160a01b0392909216919091179055565b61019b546060908290611778908590613569565b8111156117915761019b5461178e908590613569565b90505b8067ffffffffffffffff8111156117aa576117aa6132a8565b60405190808252806020026020018201604052801561183757816020015b611824604051806101400160405280600081526020016000815260200160008152602001600081526020016000815260200160008152602001600081526020016000151581526020016000151581526020016000151581525090565b8152602001906001900390816117c85790505b50915060005b8181101561193057610199600061019b6118578489613551565b8154811061186757611867613580565b600091825260208083209091015483528281019390935260409182019020815161014081018352815481526001820154938101939093526002810154918301919091526003810154606083015260048101546080830152600581015460a0830152600681015460c08301526007015460ff808216151560e0840152610100808304821615159084015262010000909104161515610120820152835184908390811061191457611914613580565b60200260200101819052508061192990613596565b905061183d565b505092915050565b61019b818154811061194957600080fd5b600091825260209091200154905081565b600083815261019a60205260409020805460609182918291908590611980908890613569565b811115611997578154611994908890613569565b90505b8067ffffffffffffffff8111156119b0576119b06132a8565b6040519080825280602002602001820160405280156119d9578160200160208202803683370190505b5094508067ffffffffffffffff8111156119f5576119f56132a8565b604051908082528060200260200182016040528015611a1e578160200160208202803683370190505b5093508067ffffffffffffffff811115611a3a57611a3a6132a8565b604051908082528060200260200182016040528015611a63578160200160208202803683370190505b5092506000805b82811015611b7f5783611a7d828b613551565b81548110611a8d57611a8d613580565b9060005260206000200160009054906101000a90046001600160a01b0316915081878281518110611ac057611ac0613580565b6001600160a01b039283166020918202929092018101919091529083166000908152600186019091526040902054600160a01b900460ff166002811115611b0957611b09613221565b868281518110611b1b57611b1b613580565b602002602001018181525050836001016000836001600160a01b03166001600160a01b0316815260200190815260200160002060010154858281518110611b6457611b64613580565b6020908102919091010152611b7881613596565b9050611a6a565b5050505093509350939050565b6101965460009061155690849084906001600160a01b0316612307565b600082815260976020526040902060010154611bc58133611ea9565b610b7f8383612066565b610192546001600160a01b03163314611c1b5760405162461bcd60e51b815260206004820152600e60248201526d2737ba1030902d2220a7a1b432b360911b60448201526064016109e1565b6101985460ff1615611c6f5760405162461bcd60e51b815260206004820152601160248201527f416c72656164792064657374726f79656400000000000000000000000000000060448201526064016109e1565b6000818152610199602052604090205481908114611ccf5760405162461bcd60e51b815260206004820152601060248201527f496e76616c69642070726f706f73616c0000000000000000000000000000000060448201526064016109e1565b6000828152610199602052604090206007015462010000900460ff16158015611d0b57506000828152610199602052604090206007015460ff16155b611d7d5760405162461bcd60e51b815260206004820152602860248201527f416c72656164792063616e63656c6564206f722063616c63756c61746565642060448201527f70726f706f73616c00000000000000000000000000000000000000000000000060648201526084016109e1565b610b4a82600090815261019960205260409020600701805462ff0000191662010000179055565b6033546001600160a01b03163314611dfe5760405162461bcd60e51b815260206004820181905260248201527f4f776e61626c653a2063616c6c6572206973206e6f7420746865206f776e657260448201526064016109e1565b6001600160a01b038116611e7a5760405162461bcd60e51b815260206004820152602660248201527f4f776e61626c653a206e6577206f776e657220697320746865207a65726f206160448201527f646472657373000000000000000000000000000000000000000000000000000060648201526084016109e1565b610f0d816127f6565b600081815261019960205260408120805483148015611556575060020154421192915050565b60008281526097602090815260408083206001600160a01b038516845290915290205460ff16610b4a57611ee7816001600160a01b03166014612855565b611ef2836020612855565b604051602001611f039291906135dd565b60408051601f198184030181529082905262461bcd60e51b82526109e19160040161365e565b60008281526097602090815260408083206001600160a01b038516845290915290205460ff16610b4a5760008281526097602090815260408083206001600160a01b03851684529091529020805460ff19166001179055611f873390565b6001600160a01b0316816001600160a01b0316837f2f8788117e7eff1d82e926ec794901d17c78024a50270940304540a733656f0d60405160405180910390a45050565b600054610100900460ff166120365760405162461bcd60e51b815260206004820152602b60248201527f496e697469616c697a61626c653a20636f6e7472616374206973206e6f74206960448201526a6e697469616c697a696e6760a81b60648201526084016109e1565b61203e612a7e565b612046612af9565b61204e612b7c565b612056612bef565b61205e612c6a565b600161019155565b60008281526097602090815260408083206001600160a01b038516845290915290205460ff1615610b4a5760008281526097602090815260408083206001600160a01b0385168085529252808320805460ff1916905551339285917ff6391f5c32d9c69d2a47ea670b442974b53935d1edc7fd64eb21e047a839171b9190a45050565b6033546001600160a01b03163314610f0d5760405162461bcd60e51b815260206004820181905260248201527f4f776e61626c653a2063616c6c6572206973206e6f7420746865206f776e657260448201526064016109e1565b60006121767f360894a13ba1a3210667c828492db98dca3e2076cc3735a920a3ca505d382bbc546001600160a01b031690565b905061218184612cd5565b60008351118061218e5750815b1561219f5761219d8484612d97565b505b7f4910fdfa16fed3260ed0e7147f7cc6da11a60208b5b9406d12a635614ffd9143805460ff1661230057805460ff191660011781556040516001600160a01b038316602482015261224c90869060440160408051601f198184030181529190526020810180517bffffffffffffffffffffffffffffffffffffffffffffffffffffffff167f3659cfe600000000000000000000000000000000000000000000000000000000179052612d97565b50805460ff191681557f360894a13ba1a3210667c828492db98dca3e2076cc3735a920a3ca505d382bbc546001600160a01b038381169116146122f75760405162461bcd60e51b815260206004820152602f60248201527f45524331393637557067726164653a207570677261646520627265616b73206660448201527f757274686572207570677261646573000000000000000000000000000000000060648201526084016109e1565b61230085612e99565b5050505050565b60008381526101996020526040812080548514158061232c575061232a81612ed9565b155b1561233b576000915050611556565b6101935460068201546040517fbcf4d4160000000000000000000000000000000000000000000000000000000081526001600160a01b03878116600483015286811660248301526044820192909252600092919091169063bcf4d41690606401602060405180830381865afa1580156123b8573d6000803e3d6000fd5b505050506040513d601f19601f820116820180604052508101906123dc9190613691565b1195945050505050565b60008481526101996020908152604080832061019a83528184206001600160a01b038816855260018101909352908320549092600160a01b90910460ff16906124308888886125e8565b9050600182600281111561244657612446613221565b141561246b57808460030160008282546124609190613569565b909155506124d29050565b600282600281111561247f5761247f613221565b141561249957808460040160008282546124609190613569565b825460018101845560008481526020902001805473ffffffffffffffffffffffffffffffffffffffff19166001600160a01b0389161790555b6001600160a01b03871660008181526001850160205260409020805473ffffffffffffffffffffffffffffffffffffffff1981168317825587927fffffffffffffffffffffff00000000000000000000000000000000000000000090911617600160a01b83600281111561254857612548613221565b02179055506001600160a01b038716600090815260018085016020526040909120810182905585600281111561258057612580613221565b14156125a5578084600301600082825461259a9190613551565b909155506125d99050565b60028560028111156125b9576125b9613221565b14156125d957808460040160008282546125d39190613551565b90915550505b50505460059091015550505050565b61019354600084815261019960205260408082206006015490517fbcf4d4160000000000000000000000000000000000000000000000000000000081526001600160a01b038681166004830152858116602483015260448201929092529192169063bcf4d41690606401602060405180830381865afa15801561266f573d6000803e3d6000fd5b505050506040513d601f19601f820116820180604052508101906126939190613691565b949350505050565b60008381526101996020526040902054156126f85760405162461bcd60e51b815260206004820152601860248201527f416c72656164792070726f706f73616c2063726561746564000000000000000060448201526064016109e1565b604080516101408101825284815260208082019485528183019384526000606083018181526080840182815260a085018381524360c0870190815260e087018581526101008089018781526101208a018881528e8952610199909952998720985189559a516001808a019190915599516002890155935160038801559151600487015551600586015551600685015551600790930180549451925161ffff1990951693151561ff001916939093179115159095021762ff00001916620100009215159290920291909117905561019b805491820181559091527f24aeb2cd7b2cf328da485c24efd7197e86108b05bbc525c1db80c96ffdf7e1290155565b603380546001600160a01b0383811673ffffffffffffffffffffffffffffffffffffffff19831681179093556040519116919082907f8be0079c531659141344cd1fd0a4f28419497f9722a3daafe3b4186f6b6457e090600090a35050565b606060006128648360026136aa565b61286f906002613551565b67ffffffffffffffff811115612887576128876132a8565b6040519080825280601f01601f1916602001820160405280156128b1576020820181803683370190505b5090507f3000000000000000000000000000000000000000000000000000000000000000816000815181106128e8576128e8613580565b60200101907effffffffffffffffffffffffffffffffffffffffffffffffffffffffffffff1916908160001a9053507f78000000000000000000000000000000000000000000000000000000000000008160018151811061294b5761294b613580565b60200101907effffffffffffffffffffffffffffffffffffffffffffffffffffffffffffff1916908160001a90535060006129878460026136aa565b612992906001613551565b90505b6001811115612a2f577f303132333435363738396162636465660000000000000000000000000000000085600f16601081106129d3576129d3613580565b1a60f81b8282815181106129e9576129e9613580565b60200101907effffffffffffffffffffffffffffffffffffffffffffffffffffffffffffff1916908160001a90535060049490941c93612a28816136c9565b9050612995565b5083156115565760405162461bcd60e51b815260206004820181905260248201527f537472696e67733a20686578206c656e67746820696e73756666696369656e7460448201526064016109e1565b600054610100900460ff16612ae95760405162461bcd60e51b815260206004820152602b60248201527f496e697469616c697a61626c653a20636f6e7472616374206973206e6f74206960448201526a6e697469616c697a696e6760a81b60648201526084016109e1565b612af1612f0b565b6116e6612f76565b600054610100900460ff16612b645760405162461bcd60e51b815260206004820152602b60248201527f496e697469616c697a61626c653a20636f6e7472616374206973206e6f74206960448201526a6e697469616c697a696e6760a81b60648201526084016109e1565b612b6c612f0b565b612b74612f0b565b6116e6612f0b565b600054610100900460ff16612be75760405162461bcd60e51b815260206004820152602b60248201527f496e697469616c697a61626c653a20636f6e7472616374206973206e6f74206960448201526a6e697469616c697a696e6760a81b60648201526084016109e1565b6116e6612fea565b600054610100900460ff16612c5a5760405162461bcd60e51b815260206004820152602b60248201527f496e697469616c697a61626c653a20636f6e7472616374206973206e6f74206960448201526a6e697469616c697a696e6760a81b60648201526084016109e1565b612c62612f0b565b6116e661305c565b600054610100900460ff16612b6c5760405162461bcd60e51b815260206004820152602b60248201527f496e697469616c697a61626c653a20636f6e7472616374206973206e6f74206960448201526a6e697469616c697a696e6760a81b60648201526084016109e1565b803b612d495760405162461bcd60e51b815260206004820152602d60248201527f455243313936373a206e657720696d706c656d656e746174696f6e206973206e60448201527f6f74206120636f6e74726163740000000000000000000000000000000000000060648201526084016109e1565b7f360894a13ba1a3210667c828492db98dca3e2076cc3735a920a3ca505d382bbc805473ffffffffffffffffffffffffffffffffffffffff19166001600160a01b0392909216919091179055565b6060823b612e0d5760405162461bcd60e51b815260206004820152602660248201527f416464726573733a2064656c65676174652063616c6c20746f206e6f6e2d636f60448201527f6e7472616374000000000000000000000000000000000000000000000000000060648201526084016109e1565b600080846001600160a01b031684604051612e2891906136e0565b600060405180830381855af49150503d8060008114612e63576040519150601f19603f3d011682016040523d82523d6000602084013e612e68565b606091505b5091509150612e9082826040518060600160405280602781526020016136fd602791396130d3565b95945050505050565b612ea281612cd5565b6040516001600160a01b038216907fbc7cd75a20ee27fd9adebab32041f755214dbc6bffa90cc0225b39da2e5c2d3b90600090a250565b600081600101544210158015612ef25750816002015442105b80156109935750506007015462010000900460ff161590565b600054610100900460ff166116e65760405162461bcd60e51b815260206004820152602b60248201527f496e697469616c697a61626c653a20636f6e7472616374206973206e6f74206960448201526a6e697469616c697a696e6760a81b60648201526084016109e1565b600054610100900460ff16612fe15760405162461bcd60e51b815260206004820152602b60248201527f496e697469616c697a61626c653a20636f6e7472616374206973206e6f74206960448201526a6e697469616c697a696e6760a81b60648201526084016109e1565b6116e6336127f6565b600054610100900460ff166130555760405162461bcd60e51b815260206004820152602b60248201527f496e697469616c697a61626c653a20636f6e7472616374206973206e6f74206960448201526a6e697469616c697a696e6760a81b60648201526084016109e1565b600160c955565b600054610100900460ff166130c75760405162461bcd60e51b815260206004820152602b60248201527f496e697469616c697a61626c653a20636f6e7472616374206973206e6f74206960448201526a6e697469616c697a696e6760a81b60648201526084016109e1565b60fb805460ff19169055565b606083156130e2575081611556565b8251156130f25782518084602001fd5b8160405162461bcd60e51b81526004016109e1919061365e565b60006020828403121561311e57600080fd5b5035919050565b60006020828403121561313757600080fd5b81357fffffffff000000000000000000000000000000000000000000000000000000008116811461155657600080fd5b80356001600160a01b038116811461317e57600080fd5b919050565b6000806040838503121561319657600080fd5b823591506131a660208401613167565b90509250929050565b600080600080600060a086880312156131c757600080fd5b6131d086613167565b94506131de60208701613167565b935060408601359250606086013591506131fa60808701613167565b90509295509295909350565b60006020828403121561321857600080fd5b61155682613167565b634e487b7160e01b600052602160045260246000fd5b602081016006831061324b5761324b613221565b91905290565b60006020828403121561326357600080fd5b8135801515811461155657600080fd5b60008060006060848603121561328857600080fd5b8335925061329860208501613167565b9150604084013590509250925092565b634e487b7160e01b600052604160045260246000fd5b600080604083850312156132d157600080fd5b6132da83613167565b9150602083013567ffffffffffffffff808211156132f757600080fd5b818501915085601f83011261330b57600080fd5b81358181111561331d5761331d6132a8565b604051601f8201601f19908116603f01168101908382118183101715613345576133456132a8565b8160405282815288602084870101111561335e57600080fd5b8260208601602083013760006020848301015280955050505050509250929050565b6000806040838503121561339357600080fd5b50508035926020909101359150565b602080825282518282018190526000919060409081850190868401855b8281101561343e5781518051855286810151878601528581015186860152606080820151908601526080808201519086015260a0808201519086015260c0808201519086015260e080820151151590860152610100808201511515908601526101209081015115159085015261014090930192908501906001016133bf565b5091979650505050505050565b602081016003831061324b5761324b613221565b60008060006060848603121561347457600080fd5b505081359360208301359350604090920135919050565b600081518084526020808501945080840160005b838110156134bb5781518752958201959082019060010161349f565b509495945050505050565b606080825284519082018190526000906020906080840190828801845b828110156135085781516001600160a01b0316845292840192908401906001016134e3565b5050508381038285015261351c818761348b565b9150508281036040840152613531818561348b565b9695505050505050565b634e487b7160e01b600052601160045260246000fd5b600082198211156135645761356461353b565b500190565b60008282101561357b5761357b61353b565b500390565b634e487b7160e01b600052603260045260246000fd5b60006000198214156135aa576135aa61353b565b5060010190565b60005b838110156135cc5781810151838201526020016135b4565b838111156113a85750506000910152565b7f416363657373436f6e74726f6c3a206163636f756e74200000000000000000008152600083516136158160178501602088016135b1565b7f206973206d697373696e6720726f6c652000000000000000000000000000000060179184019182015283516136528160288401602088016135b1565b01602801949350505050565b602081526000825180602084015261367d8160408501602087016135b1565b601f01601f19169190910160400192915050565b6000602082840312156136a357600080fd5b5051919050565b60008160001904831182151516156136c4576136c461353b565b500290565b6000816136d8576136d861353b565b506000190190565b600082516136f28184602087016135b1565b919091019291505056fe416464726573733a206c6f772d6c6576656c2064656c65676174652063616c6c206661696c6564a26469706673582212201d8ff5d959786b9d7ff1c8a68816388fcb9b89db7215d9adbd5560a6af53833c64736f6c634300080b0033",
  "linkReferences": {},
  "deployedLinkReferences": {}
}