{
  "_format": "hh-sol-artifact-1",
  "contractName": "RootZDAO",
  "sourceName": "contracts/polygon/root/RootZDAO.sol",
  "abi": [
    {
      "anonymous": false,
      "inputs": [
        {
          "indexed": false,
          "internalType": "address",
          "name": "previousAdmin",
          "type": "address"
        },
        {
          "indexed": false,
          "internalType": "address",
          "name": "newAdmin",
          "type": "address"
        }
      ],
      "name": "AdminChanged",
      "type": "event"
    },
    {
      "anonymous": false,
      "inputs": [
        {
          "indexed": true,
          "internalType": "address",
          "name": "beacon",
          "type": "address"
        }
      ],
      "name": "BeaconUpgraded",
      "type": "event"
    },
    {
      "anonymous": false,
      "inputs": [
        {
          "indexed": true,
          "internalType": "address",
          "name": "previousOwner",
          "type": "address"
        },
        {
          "indexed": true,
          "internalType": "address",
          "name": "newOwner",
          "type": "address"
        }
      ],
      "name": "OwnershipTransferred",
      "type": "event"
    },
    {
      "anonymous": false,
      "inputs": [
        {
          "indexed": false,
          "internalType": "address",
          "name": "account",
          "type": "address"
        }
      ],
      "name": "Paused",
      "type": "event"
    },
    {
      "anonymous": false,
      "inputs": [
        {
          "indexed": true,
          "internalType": "bytes32",
          "name": "role",
          "type": "bytes32"
        },
        {
          "indexed": true,
          "internalType": "bytes32",
          "name": "previousAdminRole",
          "type": "bytes32"
        },
        {
          "indexed": true,
          "internalType": "bytes32",
          "name": "newAdminRole",
          "type": "bytes32"
        }
      ],
      "name": "RoleAdminChanged",
      "type": "event"
    },
    {
      "anonymous": false,
      "inputs": [
        {
          "indexed": true,
          "internalType": "bytes32",
          "name": "role",
          "type": "bytes32"
        },
        {
          "indexed": true,
          "internalType": "address",
          "name": "account",
          "type": "address"
        },
        {
          "indexed": true,
          "internalType": "address",
          "name": "sender",
          "type": "address"
        }
      ],
      "name": "RoleGranted",
      "type": "event"
    },
    {
      "anonymous": false,
      "inputs": [
        {
          "indexed": true,
          "internalType": "bytes32",
          "name": "role",
          "type": "bytes32"
        },
        {
          "indexed": true,
          "internalType": "address",
          "name": "account",
          "type": "address"
        },
        {
          "indexed": true,
          "internalType": "address",
          "name": "sender",
          "type": "address"
        }
      ],
      "name": "RoleRevoked",
      "type": "event"
    },
    {
      "anonymous": false,
      "inputs": [
        {
          "indexed": false,
          "internalType": "address",
          "name": "account",
          "type": "address"
        }
      ],
      "name": "Unpaused",
      "type": "event"
    },
    {
      "anonymous": false,
      "inputs": [
        {
          "indexed": true,
          "internalType": "address",
          "name": "implementation",
          "type": "address"
        }
      ],
      "name": "Upgraded",
      "type": "event"
    },
    {
      "inputs": [],
      "name": "DEFAULT_ADMIN_ROLE",
      "outputs": [
        {
          "internalType": "bytes32",
          "name": "",
          "type": "bytes32"
        }
      ],
      "stateMutability": "view",
      "type": "function"
    },
    {
      "inputs": [
        {
          "internalType": "address",
          "name": "_zDAOChef",
          "type": "address"
        },
        {
          "internalType": "uint256",
          "name": "_zDAOId",
          "type": "uint256"
        },
        {
          "internalType": "address",
          "name": "_gnosisSafe",
          "type": "address"
        },
        {
          "internalType": "address",
          "name": "_createdBy",
          "type": "address"
        },
        {
          "internalType": "string",
          "name": "_title",
          "type": "string"
        },
        {
          "components": [
            {
              "internalType": "address",
              "name": "token",
              "type": "address"
            },
            {
              "internalType": "uint256",
              "name": "amount",
              "type": "uint256"
            },
            {
              "internalType": "uint256",
              "name": "duration",
              "type": "uint256"
            },
            {
              "internalType": "uint256",
              "name": "votingThreshold",
              "type": "uint256"
            },
            {
              "internalType": "uint256",
              "name": "minimumVotingParticipants",
              "type": "uint256"
            },
            {
              "internalType": "uint256",
              "name": "minimumTotalVotingTokens",
              "type": "uint256"
            },
            {
              "internalType": "bool",
              "name": "isRelativeMajority",
              "type": "bool"
            }
          ],
          "internalType": "struct IRootZDAOChef.ZDAOConfig",
          "name": "_zDAOConfig",
          "type": "tuple"
        }
      ],
      "name": "__ZDAO_init",
      "outputs": [],
      "stateMutability": "nonpayable",
      "type": "function"
    },
    {
      "inputs": [
        {
          "internalType": "uint256",
          "name": "_proposalId",
          "type": "uint256"
        },
        {
          "internalType": "uint256",
          "name": "_voters",
          "type": "uint256"
        },
        {
          "internalType": "uint256",
          "name": "_yes",
          "type": "uint256"
        },
        {
          "internalType": "uint256",
          "name": "_no",
          "type": "uint256"
        }
      ],
      "name": "calculateProposal",
      "outputs": [],
      "stateMutability": "nonpayable",
      "type": "function"
    },
    {
      "inputs": [
        {
          "internalType": "address",
          "name": "_cancelBy",
          "type": "address"
        },
        {
          "internalType": "uint256",
          "name": "_proposalId",
          "type": "uint256"
        }
      ],
      "name": "cancelProposal",
      "outputs": [],
      "stateMutability": "nonpayable",
      "type": "function"
    },
    {
      "inputs": [
        {
          "internalType": "address",
          "name": "_createdBy",
          "type": "address"
        },
        {
          "internalType": "string",
          "name": "_ipfs",
          "type": "string"
        }
      ],
      "name": "createProposal",
      "outputs": [
        {
          "internalType": "uint256",
          "name": "",
          "type": "uint256"
        }
      ],
      "stateMutability": "nonpayable",
      "type": "function"
    },
    {
      "inputs": [],
      "name": "destroyed",
      "outputs": [
        {
          "internalType": "bool",
          "name": "",
          "type": "bool"
        }
      ],
      "stateMutability": "view",
      "type": "function"
    },
    {
      "inputs": [
        {
          "internalType": "address",
          "name": "_executeBy",
          "type": "address"
        },
        {
          "internalType": "uint256",
          "name": "_proposalId",
          "type": "uint256"
        }
      ],
      "name": "executeProposal",
      "outputs": [],
      "stateMutability": "nonpayable",
      "type": "function"
    },
    {
      "inputs": [
        {
          "internalType": "bytes32",
          "name": "role",
          "type": "bytes32"
        }
      ],
      "name": "getRoleAdmin",
      "outputs": [
        {
          "internalType": "bytes32",
          "name": "",
          "type": "bytes32"
        }
      ],
      "stateMutability": "view",
      "type": "function"
    },
    {
      "inputs": [
        {
          "internalType": "bytes32",
          "name": "role",
          "type": "bytes32"
        },
        {
          "internalType": "address",
          "name": "account",
          "type": "address"
        }
      ],
      "name": "grantRole",
      "outputs": [],
      "stateMutability": "nonpayable",
      "type": "function"
    },
    {
      "inputs": [
        {
          "internalType": "bytes32",
          "name": "role",
          "type": "bytes32"
        },
        {
          "internalType": "address",
          "name": "account",
          "type": "address"
        }
      ],
      "name": "hasRole",
      "outputs": [
        {
          "internalType": "bool",
          "name": "",
          "type": "bool"
        }
      ],
      "stateMutability": "view",
      "type": "function"
    },
    {
      "inputs": [],
      "name": "lastProposalId",
      "outputs": [
        {
          "internalType": "uint256",
          "name": "",
          "type": "uint256"
        }
      ],
      "stateMutability": "view",
      "type": "function"
    },
    {
      "inputs": [
        {
          "internalType": "uint256",
          "name": "_startIndex",
          "type": "uint256"
        },
        {
          "internalType": "uint256",
          "name": "_count",
          "type": "uint256"
        }
      ],
      "name": "listProposals",
      "outputs": [
        {
          "components": [
            {
              "internalType": "uint256",
              "name": "proposalId",
              "type": "uint256"
            },
            {
              "internalType": "address",
              "name": "createdBy",
              "type": "address"
            },
            {
              "internalType": "uint256",
              "name": "created",
              "type": "uint256"
            },
            {
              "internalType": "uint256",
              "name": "yes",
              "type": "uint256"
            },
            {
              "internalType": "uint256",
              "name": "no",
              "type": "uint256"
            },
            {
              "internalType": "uint256",
              "name": "voters",
              "type": "uint256"
            },
            {
              "internalType": "string",
              "name": "ipfs",
              "type": "string"
            },
            {
              "internalType": "uint256",
              "name": "snapshot",
              "type": "uint256"
            },
            {
              "internalType": "bool",
              "name": "calculated",
              "type": "bool"
            },
            {
              "internalType": "bool",
              "name": "executed",
              "type": "bool"
            },
            {
              "internalType": "bool",
              "name": "canceled",
              "type": "bool"
            }
          ],
          "internalType": "struct IRootZDAO.Proposal[]",
          "name": "records",
          "type": "tuple[]"
        }
      ],
      "stateMutability": "view",
      "type": "function"
    },
    {
      "inputs": [
        {
          "internalType": "address",
          "name": "_gnosisSafe",
          "type": "address"
        },
        {
          "internalType": "address",
          "name": "_token",
          "type": "address"
        },
        {
          "internalType": "uint256",
          "name": "_amount",
          "type": "uint256"
        }
      ],
      "name": "modifyZDAO",
      "outputs": [],
      "stateMutability": "nonpayable",
      "type": "function"
    },
    {
      "inputs": [],
      "name": "numberOfProposals",
      "outputs": [
        {
          "internalType": "uint256",
          "name": "",
          "type": "uint256"
        }
      ],
      "stateMutability": "view",
      "type": "function"
    },
    {
      "inputs": [],
      "name": "owner",
      "outputs": [
        {
          "internalType": "address",
          "name": "",
          "type": "address"
        }
      ],
      "stateMutability": "view",
      "type": "function"
    },
    {
      "inputs": [],
      "name": "paused",
      "outputs": [
        {
          "internalType": "bool",
          "name": "",
          "type": "bool"
        }
      ],
      "stateMutability": "view",
      "type": "function"
    },
    {
      "inputs": [
        {
          "internalType": "uint256",
          "name": "",
          "type": "uint256"
        }
      ],
      "name": "proposalIds",
      "outputs": [
        {
          "internalType": "uint256",
          "name": "",
          "type": "uint256"
        }
      ],
      "stateMutability": "view",
      "type": "function"
    },
    {
      "inputs": [
        {
          "internalType": "uint256",
          "name": "",
          "type": "uint256"
        }
      ],
      "name": "proposals",
      "outputs": [
        {
          "internalType": "uint256",
          "name": "proposalId",
          "type": "uint256"
        },
        {
          "internalType": "address",
          "name": "createdBy",
          "type": "address"
        },
        {
          "internalType": "uint256",
          "name": "created",
          "type": "uint256"
        },
        {
          "internalType": "uint256",
          "name": "yes",
          "type": "uint256"
        },
        {
          "internalType": "uint256",
          "name": "no",
          "type": "uint256"
        },
        {
          "internalType": "uint256",
          "name": "voters",
          "type": "uint256"
        },
        {
          "internalType": "string",
          "name": "ipfs",
          "type": "string"
        },
        {
          "internalType": "uint256",
          "name": "snapshot",
          "type": "uint256"
        },
        {
          "internalType": "bool",
          "name": "calculated",
          "type": "bool"
        },
        {
          "internalType": "bool",
          "name": "executed",
          "type": "bool"
        },
        {
          "internalType": "bool",
          "name": "canceled",
          "type": "bool"
        }
      ],
      "stateMutability": "view",
      "type": "function"
    },
    {
      "inputs": [],
      "name": "renounceOwnership",
      "outputs": [],
      "stateMutability": "nonpayable",
      "type": "function"
    },
    {
      "inputs": [
        {
          "internalType": "bytes32",
          "name": "role",
          "type": "bytes32"
        },
        {
          "internalType": "address",
          "name": "account",
          "type": "address"
        }
      ],
      "name": "renounceRole",
      "outputs": [],
      "stateMutability": "nonpayable",
      "type": "function"
    },
    {
      "inputs": [
        {
          "internalType": "bytes32",
          "name": "role",
          "type": "bytes32"
        },
        {
          "internalType": "address",
          "name": "account",
          "type": "address"
        }
      ],
      "name": "revokeRole",
      "outputs": [],
      "stateMutability": "nonpayable",
      "type": "function"
    },
    {
      "inputs": [
        {
          "internalType": "bool",
          "name": "_destroyed",
          "type": "bool"
        }
      ],
      "name": "setDestroyed",
      "outputs": [],
      "stateMutability": "nonpayable",
      "type": "function"
    },
    {
      "inputs": [
        {
          "internalType": "uint256",
          "name": "_proposalId",
          "type": "uint256"
        }
      ],
      "name": "state",
      "outputs": [
        {
          "internalType": "enum IRootZDAO.ProposalState",
          "name": "",
          "type": "uint8"
        }
      ],
      "stateMutability": "view",
      "type": "function"
    },
    {
      "inputs": [
        {
          "internalType": "bytes4",
          "name": "interfaceId",
          "type": "bytes4"
        }
      ],
      "name": "supportsInterface",
      "outputs": [
        {
          "internalType": "bool",
          "name": "",
          "type": "bool"
        }
      ],
      "stateMutability": "view",
      "type": "function"
    },
    {
      "inputs": [
        {
          "internalType": "address",
          "name": "newOwner",
          "type": "address"
        }
      ],
      "name": "transferOwnership",
      "outputs": [],
      "stateMutability": "nonpayable",
      "type": "function"
    },
    {
      "inputs": [
        {
          "internalType": "address",
          "name": "newImplementation",
          "type": "address"
        }
      ],
      "name": "upgradeTo",
      "outputs": [],
      "stateMutability": "nonpayable",
      "type": "function"
    },
    {
      "inputs": [
        {
          "internalType": "address",
          "name": "newImplementation",
          "type": "address"
        },
        {
          "internalType": "bytes",
          "name": "data",
          "type": "bytes"
        }
      ],
      "name": "upgradeToAndCall",
      "outputs": [],
      "stateMutability": "payable",
      "type": "function"
    },
    {
      "inputs": [],
      "name": "version",
      "outputs": [
        {
          "internalType": "uint256",
          "name": "",
          "type": "uint256"
        }
      ],
      "stateMutability": "view",
      "type": "function"
    },
    {
      "inputs": [],
      "name": "zDAOChef",
      "outputs": [
        {
          "internalType": "address",
          "name": "",
          "type": "address"
        }
      ],
      "stateMutability": "view",
      "type": "function"
    },
    {
      "inputs": [],
      "name": "zDAOInfo",
      "outputs": [
        {
          "internalType": "uint256",
          "name": "zDAOId",
          "type": "uint256"
        },
        {
          "internalType": "string",
          "name": "title",
          "type": "string"
        },
        {
          "internalType": "address",
          "name": "createdBy",
          "type": "address"
        },
        {
          "internalType": "address",
          "name": "gnosisSafe",
          "type": "address"
        },
        {
          "internalType": "address",
          "name": "token",
          "type": "address"
        },
        {
          "internalType": "uint256",
          "name": "amount",
          "type": "uint256"
        },
        {
          "internalType": "uint256",
          "name": "duration",
          "type": "uint256"
        },
        {
          "internalType": "uint256",
          "name": "votingThreshold",
          "type": "uint256"
        },
        {
          "internalType": "uint256",
          "name": "minimumVotingParticipants",
          "type": "uint256"
        },
        {
          "internalType": "uint256",
          "name": "minimumTotalVotingTokens",
          "type": "uint256"
        },
        {
          "internalType": "uint256",
          "name": "snapshot",
          "type": "uint256"
        },
        {
          "internalType": "bool",
          "name": "isRelativeMajority",
          "type": "bool"
        },
        {
          "internalType": "bool",
          "name": "destroyed",
          "type": "bool"
        }
      ],
      "stateMutability": "view",
      "type": "function"
    },
    {
      "inputs": [],
      "name": "zDAOOwner",
      "outputs": [
        {
          "internalType": "address",
          "name": "",
          "type": "address"
        }
      ],
      "stateMutability": "view",
      "type": "function"
    }
  ],
  "bytecode": "0x60a06040523060805234801561001457600080fd5b506080516137d261004560003960008181610dfe01528181610e94015281816111ea015261128001526137d26000f3fe6080604052600436106101d85760003560e01c806354fd4d501161010257806390bfeab311610095578063bfc4264511610064578063bfc4264514610596578063d547741f146105b6578063d8191e6c146105d6578063f2fde38b1461060457600080fd5b806390bfeab3146104fa57806391d148541461051b5780639b644a2314610561578063a217fddf1461058157600080fd5b806374cb3041116100d157806374cb3041146104825780637f6dda14146104995780638d7af473146104c65780638da5cb5b146104dc57600080fd5b806354fd4d501461041e5780635c975abb14610435578063715018a61461044d57806374cb034f1461046257600080fd5b80632f2ff15d1161017a5780633e4f49e6116101495780633e4f49e61461039e578063472858b4146103cb5780634f1ef286146103eb57806353350755146103fe57600080fd5b80632f2ff15d14610320578063359cbbc91461034057806336568abe1461035e5780633659cfe61461037e57600080fd5b806316cbb96e116101b657806316cbb96e146102805780631f4f7d29146102a2578063248a9ca3146102d05780632ebd7b751461030057600080fd5b8063013cf08b146101dd57806301ffc9a71461021d578063116b1a091461024d575b600080fd5b3480156101e957600080fd5b506101fd6101f8366004612eea565b610624565b6040516102149b9a99989796959493929190612f5f565b60405180910390f35b34801561022957600080fd5b5061023d610238366004612fd0565b610717565b6040519015158152602001610214565b34801561025957600080fd5b50610194546001600160a01b03165b6040516001600160a01b039091168152602001610214565b34801561028c57600080fd5b506102a061029b36600461302e565b6107b0565b005b3480156102ae57600080fd5b506102c26102bd3660046130b3565b61089f565b604051908152602001610214565b3480156102dc57600080fd5b506102c26102eb366004612eea565b60009081526097602052604090206001015490565b34801561030c57600080fd5b506102a061031b366004613106565b610a6e565b34801561032c57600080fd5b506102a061033b3660046131c0565b610d3c565b34801561034c57600080fd5b5061019d54610100900460ff1661023d565b34801561036a57600080fd5b506102a06103793660046131c0565b610d67565b34801561038a57600080fd5b506102a06103993660046131ec565b610df3565b3480156103aa57600080fd5b506103be6103b9366004612eea565b610f91565b604051610214919061321d565b3480156103d757600080fd5b506102a06103e6366004613245565b611178565b6102a06103f936600461327d565b6111df565b34801561040a57600080fd5b506102a061041936600461333f565b61136a565b34801561042a57600080fd5b506102c26101915481565b34801561044157600080fd5b5060fb5460ff1661023d565b34801561045957600080fd5b506102a06115c8565b34801561046e57600080fd5b506102a061047d366004613369565b61162e565b34801561048e57600080fd5b506102c261019e5481565b3480156104a557600080fd5b506104b96104b436600461339b565b61183b565b60405161021491906133bd565b3480156104d257600080fd5b5061019e546102c2565b3480156104e857600080fd5b506033546001600160a01b0316610268565b34801561050657600080fd5b506101a154610268906001600160a01b031681565b34801561052757600080fd5b5061023d6105363660046131c0565b60009182526097602090815260408084206001600160a01b0393909316845291905290205460ff1690565b34801561056d57600080fd5b506102c261057c366004612eea565b611aad565b34801561058d57600080fd5b506102c2600081565b3480156105a257600080fd5b506102a06105b136600461333f565b611acf565b3480156105c257600080fd5b506102a06105d13660046131c0565b611cbe565b3480156105e257600080fd5b506105eb611ce4565b6040516102149d9c9b9a999897969594939291906134d1565b34801561061057600080fd5b506102a061061f3660046131ec565b611dd8565b61019f60205260009081526040902080546001820154600283015460038401546004850154600586015460068701805496976001600160a01b0390961696949593949293919261067390613560565b80601f016020809104026020016040519081016040528092919081815260200182805461069f90613560565b80156106ec5780601f106106c1576101008083540402835291602001916106ec565b820191906000526020600020905b8154815290600101906020018083116106cf57829003601f168201915b50505050600783015460089093015491929160ff80821692506101008204811691620100009004168b565b60007fffffffff0000000000000000000000000000000000000000000000000000000082167f7965db0b0000000000000000000000000000000000000000000000000000000014806107aa57507f01ffc9a7000000000000000000000000000000000000000000000000000000007fffffffff000000000000000000000000000000000000000000000000000000008316145b92915050565b61019d54610100900460ff161561080e5760405162461bcd60e51b815260206004820152601160248201527f416c72656164792064657374726f79656400000000000000000000000000000060448201526064015b60405180910390fd5b6101a1546001600160a01b0316331461085a5760405162461bcd60e51b815260206004820152600e60248201526d2737ba1030902d2220a7a1b432b360911b6044820152606401610805565b61019580546001600160a01b0394851673ffffffffffffffffffffffffffffffffffffffff199182161790915561019680549390941692169190911790915561019755565b6101a1546000906001600160a01b031633146108ee5760405162461bcd60e51b815260206004820152600e60248201526d2737ba1030902d2220a7a1b432b360911b6044820152606401610805565b61019d54610100900460ff16156109475760405162461bcd60e51b815260206004820152601160248201527f416c72656164792064657374726f7965640000000000000000000000000000006044820152606401610805565b61019754610196546040517f70a082310000000000000000000000000000000000000000000000000000000081526001600160a01b03808816600483015287939216906370a0823190602401602060405180830381865afa1580156109b0573d6000803e3d6000fd5b505050506040513d601f19601f820116820180604052508101906109d4919061359b565b1015610a225760405162461bcd60e51b815260206004820152601860248201527f4e6f7420612076616c696420746f6b656e20686f6c64657200000000000000006044820152606401610805565b6000610a648686868080601f016020809104026020016040519081016040528093929190818152602001838380828437600092019190915250611eb792505050565b9695505050505050565b600054610100900460ff16610a895760005460ff1615610a8d565b303b155b610aff5760405162461bcd60e51b815260206004820152602e60248201527f496e697469616c697a61626c653a20636f6e747261637420697320616c72656160448201527f647920696e697469616c697a65640000000000000000000000000000000000006064820152608401610805565b600054610100900460ff16158015610b21576000805461ffff19166101011790555b610b29612038565b6101a1805473ffffffffffffffffffffffffffffffffffffffff19166001600160a01b038a16179055604080516101a08101825288815281516020601f87018190048102820181019093528581529091808301919087908790819084018382808284376000920191909152505050908252506001600160a01b038088166020808401919091529089166040830152606090910190610bc9908501856131ec565b6001600160a01b03168152602001836020013581526020018360400135815260200183606001358152602001836080013581526020018360a0013581526020014381526020018360c0016020810190610c229190613245565b15158152600060209182015281516101929081558282015180519192610c4f926101939290910190612e51565b5060408201516002820180546001600160a01b0392831673ffffffffffffffffffffffffffffffffffffffff19918216179091556060840151600384018054918416918316919091179055608084015160048401805491909316911617905560a0820151600582015560c0820151600682015560e082015160078201556101008083015160088301556101208301516009830155610140830151600a830155610160830151600b909201805461018090940151151590910261ff00199215159290921661ffff19909316929092171790558015610d32576000805461ff00191690555b5050505050505050565b600082815260976020526040902060010154610d58813361210f565b610d62838361218f565b505050565b6001600160a01b0381163314610de55760405162461bcd60e51b815260206004820152602f60248201527f416363657373436f6e74726f6c3a2063616e206f6e6c792072656e6f756e636560448201527f20726f6c657320666f722073656c6600000000000000000000000000000000006064820152608401610805565b610def8282612231565b5050565b306001600160a01b037f0000000000000000000000000000000000000000000000000000000000000000161415610e925760405162461bcd60e51b815260206004820152602c60248201527f46756e6374696f6e206d7573742062652063616c6c6564207468726f7567682060448201527f64656c656761746563616c6c00000000000000000000000000000000000000006064820152608401610805565b7f00000000000000000000000000000000000000000000000000000000000000006001600160a01b0316610eed7f360894a13ba1a3210667c828492db98dca3e2076cc3735a920a3ca505d382bbc546001600160a01b031690565b6001600160a01b031614610f695760405162461bcd60e51b815260206004820152602c60248201527f46756e6374696f6e206d7573742062652063616c6c6564207468726f7567682060448201527f6163746976652070726f787900000000000000000000000000000000000000006064820152608401610805565b610f72816122b4565b60408051600080825260208201909252610f8e9183919061230e565b50565b600081815261019f60205260408120600881015462010000900460ff1615610fbc5750600292915050565b6008810154610100900460ff1615610fd75750600392915050565b600881015460ff16610fec5750600092915050565b61019a5460058201541080611016575061019b546004820154600383015461101491906135ca565b105b156110245750600492915050565b61019d5460ff16801561104a575060008160040154826003015461104891906135ca565b115b80156110875750610199546004820154600383015461106991906135ca565b600383015461107a906127106135e2565b6110849190613601565b10155b156110955750600592915050565b61019654604080517f18160ddd00000000000000000000000000000000000000000000000000000000815290516000926001600160a01b0316916318160ddd9160048281019260209291908290030181865afa1580156110f9573d6000803e3d6000fd5b505050506040513d601f19601f8201168201806040525081019061111d919061359b565b61019d5490915060ff161580156111345750600081115b801561115f57506101995460038301548290611152906127106135e2565b61115c9190613601565b10155b1561116e575060059392505050565b5060049392505050565b6101a1546001600160a01b031633146111c45760405162461bcd60e51b815260206004820152600e60248201526d2737ba1030902d2220a7a1b432b360911b6044820152606401610805565b61019d80549115156101000261ff0019909216919091179055565b306001600160a01b037f000000000000000000000000000000000000000000000000000000000000000016141561127e5760405162461bcd60e51b815260206004820152602c60248201527f46756e6374696f6e206d7573742062652063616c6c6564207468726f7567682060448201527f64656c656761746563616c6c00000000000000000000000000000000000000006064820152608401610805565b7f00000000000000000000000000000000000000000000000000000000000000006001600160a01b03166112d97f360894a13ba1a3210667c828492db98dca3e2076cc3735a920a3ca505d382bbc546001600160a01b031690565b6001600160a01b0316146113555760405162461bcd60e51b815260206004820152602c60248201527f46756e6374696f6e206d7573742062652063616c6c6564207468726f7567682060448201527f6163746976652070726f787900000000000000000000000000000000000000006064820152608401610805565b61135e826122b4565b610def8282600161230e565b6101a1546001600160a01b031633146113b65760405162461bcd60e51b815260206004820152600e60248201526d2737ba1030902d2220a7a1b432b360911b6044820152606401610805565b61019d54610100900460ff161561140f5760405162461bcd60e51b815260206004820152601160248201527f416c72656164792064657374726f7965640000000000000000000000000000006044820152606401610805565b80600081118015611423575061019e548111155b61146f5760405162461bcd60e51b815260206004820152600c60248201527f496e76616c6964207a44414f00000000000000000000000000000000000000006044820152606401610805565b600082815261019f60205260409020600101546001600160a01b038481169116146114dc5760405162461bcd60e51b815260206004820152601660248201527f4e6f7420612070726f706f73616c2063726561746f72000000000000000000006044820152606401610805565b604051631f27a4f360e11b8152600481018390526000903090633e4f49e690602401602060405180830381865afa15801561151b573d6000803e3d6000fd5b505050506040513d601f19601f8201168201806040525081019061153f9190613623565b9050600081600581111561155557611555613207565b146115a25760405162461bcd60e51b815260206004820152601660248201527f4e6f7420612070656e64696e672070726f706f73616c000000000000000000006044820152606401610805565b5050600090815261019f60205260409020600801805462ff000019166201000017905550565b6033546001600160a01b031633146116225760405162461bcd60e51b815260206004820181905260248201527f4f776e61626c653a2063616c6c6572206973206e6f7420746865206f776e65726044820152606401610805565b61162c60006124d2565b565b6101a1546001600160a01b0316331461167a5760405162461bcd60e51b815260206004820152600e60248201526d2737ba1030902d2220a7a1b432b360911b6044820152606401610805565b8360008111801561168e575061019e548111155b6116da5760405162461bcd60e51b815260206004820152600c60248201527f496e76616c6964207a44414f00000000000000000000000000000000000000006044820152606401610805565b600085815261019f60205260409020600881015460ff161561173e5760405162461bcd60e51b815260206004820152601b60248201527f416c72656164792063616c63756c617465642070726f706f73616c00000000006044820152606401610805565b604051631f27a4f360e11b8152600481018790526000903090633e4f49e690602401602060405180830381865afa15801561177d573d6000803e3d6000fd5b505050506040513d601f19601f820116820180604052508101906117a19190613623565b905060008160058111156117b7576117b7613207565b146118045760405162461bcd60e51b815260206004820152601660248201527f4e6f7420612070656e64696e672070726f706f73616c000000000000000000006044820152606401610805565b506005810194909455506003830191909155600490910155600090815261019f60205260409020600801805460ff19166001179055565b61019e54606090829061184f908590613644565b811115611868578361019e546118659190613644565b90505b8067ffffffffffffffff81111561188157611881613267565b60405190808252806020026020018201604052801561191e57816020015b61190b6040518061016001604052806000815260200160006001600160a01b031681526020016000815260200160008152602001600081526020016000815260200160608152602001600081526020016000151581526020016000151581526020016000151581525090565b81526020019060019003908161189f5790505b50915060005b81811015611aa55761019f600061193b83886135ca565b6119469060016135ca565b815260208082019290925260409081016000208151610160810183528154815260018201546001600160a01b0316938101939093526002810154918301919091526003810154606083015260048101546080830152600581015460a083015260068101805460c0840191906119ba90613560565b80601f01602080910402602001604051908101604052809291908181526020018280546119e690613560565b8015611a335780601f10611a0857610100808354040283529160200191611a33565b820191906000526020600020905b815481529060010190602001808311611a1657829003601f168201915b50505091835250506007820154602082015260089091015460ff808216151560408401526101008204811615156060840152620100009091041615156080909101528351849083908110611a8957611a8961365b565b602002602001018190525080611a9e90613671565b9050611924565b505092915050565b6101a08181548110611abe57600080fd5b600091825260209091200154905081565b6101a1546001600160a01b03163314611b1b5760405162461bcd60e51b815260206004820152600e60248201526d2737ba1030902d2220a7a1b432b360911b6044820152606401610805565b61019d54610100900460ff1615611b745760405162461bcd60e51b815260206004820152601160248201527f416c72656164792064657374726f7965640000000000000000000000000000006044820152606401610805565b80600081118015611b88575061019e548111155b611bd45760405162461bcd60e51b815260206004820152600c60248201527f496e76616c6964207a44414f00000000000000000000000000000000000000006044820152606401610805565b604051631f27a4f360e11b8152600481018390526000903090633e4f49e690602401602060405180830381865afa158015611c13573d6000803e3d6000fd5b505050506040513d601f19601f82011682018060405250810190611c379190613623565b90506005816005811115611c4d57611c4d613207565b14611c9a5760405162461bcd60e51b815260206004820152601860248201527f4e6f742061207375636365656465642070726f706f73616c00000000000000006044820152606401610805565b5050600090815261019f60205260409020600801805461ff00191661010017905550565b600082815260976020526040902060010154611cda813361210f565b610d628383612231565b61019280546101938054919291611cfa90613560565b80601f0160208091040260200160405190810160405280929190818152602001828054611d2690613560565b8015611d735780601f10611d4857610100808354040283529160200191611d73565b820191906000526020600020905b815481529060010190602001808311611d5657829003601f168201915b50505060028401546003850154600486015460058701546006880154600789015460088a015460098b0154600a8c0154600b909c01549a9b6001600160a01b039889169b9789169a509590971697509295919490939060ff808216916101009004168d565b6033546001600160a01b03163314611e325760405162461bcd60e51b815260206004820181905260248201527f4f776e61626c653a2063616c6c6572206973206e6f7420746865206f776e65726044820152606401610805565b6001600160a01b038116611eae5760405162461bcd60e51b815260206004820152602660248201527f4f776e61626c653a206e6577206f776e657220697320746865207a65726f206160448201527f64647265737300000000000000000000000000000000000000000000000000006064820152608401610805565b610f8e816124d2565b61019e805460009182611ec983613671565b9091555050604080516101608101825261019e548082526001600160a01b038681166020808501918252428587019081526000606087018181526080880182815260a0890183815260c08a018d81524360e08c01526101008b018590526101208b018590526101408b0185905298845261019f86529990922088518155945160018601805473ffffffffffffffffffffffffffffffffffffffff191691909716179095559051600284015592516003830155915160048201559351600585015590518051929392611fa09260068501920190612e51565b5060e0820151600782015561010080830151600890920180546101208501516101409095015161ffff1990911693151561ff001916939093179315159091029290921762ff000019166201000091151591909102179055505061019e546101a080546001810182556000919091527f7980fe0f714a613298681d64b7b8ffa7b148338dd52429f307d72798d5c317c401819055919050565b600054610100900460ff166120a35760405162461bcd60e51b815260206004820152602b60248201527f496e697469616c697a61626c653a20636f6e7472616374206973206e6f74206960448201526a6e697469616c697a696e6760a81b6064820152608401610805565b6120ab612531565b6120b36125ac565b6120bb61262f565b6120c36126a2565b6120cb61271d565b6001610191819055604080518082019091528181527f7600000000000000000000000000000000000000000000000000000000000000602082015261162c91612788565b60008281526097602090815260408083206001600160a01b038516845290915290205460ff16610def5761214d816001600160a01b031660146127fb565b6121588360206127fb565b60405160200161216992919061368c565b60408051601f198184030181529082905262461bcd60e51b82526108059160040161370d565b60008281526097602090815260408083206001600160a01b038516845290915290205460ff16610def5760008281526097602090815260408083206001600160a01b03851684529091529020805460ff191660011790556121ed3390565b6001600160a01b0316816001600160a01b0316837f2f8788117e7eff1d82e926ec794901d17c78024a50270940304540a733656f0d60405160405180910390a45050565b60008281526097602090815260408083206001600160a01b038516845290915290205460ff1615610def5760008281526097602090815260408083206001600160a01b0385168085529252808320805460ff1916905551339285917ff6391f5c32d9c69d2a47ea670b442974b53935d1edc7fd64eb21e047a839171b9190a45050565b6033546001600160a01b03163314610f8e5760405162461bcd60e51b815260206004820181905260248201527f4f776e61626c653a2063616c6c6572206973206e6f7420746865206f776e65726044820152606401610805565b60006123417f360894a13ba1a3210667c828492db98dca3e2076cc3735a920a3ca505d382bbc546001600160a01b031690565b905061234c84612a2b565b6000835111806123595750815b1561236a576123688484612aed565b505b7f4910fdfa16fed3260ed0e7147f7cc6da11a60208b5b9406d12a635614ffd9143805460ff166124cb57805460ff191660011781556040516001600160a01b038316602482015261241790869060440160408051601f198184030181529190526020810180517bffffffffffffffffffffffffffffffffffffffffffffffffffffffff167f3659cfe600000000000000000000000000000000000000000000000000000000179052612aed565b50805460ff191681557f360894a13ba1a3210667c828492db98dca3e2076cc3735a920a3ca505d382bbc546001600160a01b038381169116146124c25760405162461bcd60e51b815260206004820152602f60248201527f45524331393637557067726164653a207570677261646520627265616b73206660448201527f75727468657220757067726164657300000000000000000000000000000000006064820152608401610805565b6124cb85612bef565b5050505050565b603380546001600160a01b0383811673ffffffffffffffffffffffffffffffffffffffff19831681179093556040519116919082907f8be0079c531659141344cd1fd0a4f28419497f9722a3daafe3b4186f6b6457e090600090a35050565b600054610100900460ff1661259c5760405162461bcd60e51b815260206004820152602b60248201527f496e697469616c697a61626c653a20636f6e7472616374206973206e6f74206960448201526a6e697469616c697a696e6760a81b6064820152608401610805565b6125a4612c2f565b61162c612c9a565b600054610100900460ff166126175760405162461bcd60e51b815260206004820152602b60248201527f496e697469616c697a61626c653a20636f6e7472616374206973206e6f74206960448201526a6e697469616c697a696e6760a81b6064820152608401610805565b61261f612c2f565b612627612c2f565b61162c612c2f565b600054610100900460ff1661269a5760405162461bcd60e51b815260206004820152602b60248201527f496e697469616c697a61626c653a20636f6e7472616374206973206e6f74206960448201526a6e697469616c697a696e6760a81b6064820152608401610805565b61162c612d0e565b600054610100900460ff1661270d5760405162461bcd60e51b815260206004820152602b60248201527f496e697469616c697a61626c653a20636f6e7472616374206973206e6f74206960448201526a6e697469616c697a696e6760a81b6064820152608401610805565b612715612c2f565b61162c612d80565b600054610100900460ff1661261f5760405162461bcd60e51b815260206004820152602b60248201527f496e697469616c697a61626c653a20636f6e7472616374206973206e6f74206960448201526a6e697469616c697a696e6760a81b6064820152608401610805565b610def828260405160240161279e929190613720565b60408051601f198184030181529190526020810180517bffffffffffffffffffffffffffffffffffffffffffffffffffffffff167f9710a9d000000000000000000000000000000000000000000000000000000000179052612df7565b6060600061280a8360026135e2565b6128159060026135ca565b67ffffffffffffffff81111561282d5761282d613267565b6040519080825280601f01601f191660200182016040528015612857576020820181803683370190505b5090507f30000000000000000000000000000000000000000000000000000000000000008160008151811061288e5761288e61365b565b60200101907effffffffffffffffffffffffffffffffffffffffffffffffffffffffffffff1916908160001a9053507f7800000000000000000000000000000000000000000000000000000000000000816001815181106128f1576128f161365b565b60200101907effffffffffffffffffffffffffffffffffffffffffffffffffffffffffffff1916908160001a905350600061292d8460026135e2565b6129389060016135ca565b90505b60018111156129d5577f303132333435363738396162636465660000000000000000000000000000000085600f16601081106129795761297961365b565b1a60f81b82828151811061298f5761298f61365b565b60200101907effffffffffffffffffffffffffffffffffffffffffffffffffffffffffffff1916908160001a90535060049490941c936129ce81613742565b905061293b565b508315612a245760405162461bcd60e51b815260206004820181905260248201527f537472696e67733a20686578206c656e67746820696e73756666696369656e746044820152606401610805565b9392505050565b803b612a9f5760405162461bcd60e51b815260206004820152602d60248201527f455243313936373a206e657720696d706c656d656e746174696f6e206973206e60448201527f6f74206120636f6e7472616374000000000000000000000000000000000000006064820152608401610805565b7f360894a13ba1a3210667c828492db98dca3e2076cc3735a920a3ca505d382bbc805473ffffffffffffffffffffffffffffffffffffffff19166001600160a01b0392909216919091179055565b6060823b612b635760405162461bcd60e51b815260206004820152602660248201527f416464726573733a2064656c65676174652063616c6c20746f206e6f6e2d636f60448201527f6e747261637400000000000000000000000000000000000000000000000000006064820152608401610805565b600080846001600160a01b031684604051612b7e9190613759565b600060405180830381855af49150503d8060008114612bb9576040519150601f19603f3d011682016040523d82523d6000602084013e612bbe565b606091505b5091509150612be6828260405180606001604052806027815260200161377660279139612e18565b95945050505050565b612bf881612a2b565b6040516001600160a01b038216907fbc7cd75a20ee27fd9adebab32041f755214dbc6bffa90cc0225b39da2e5c2d3b90600090a250565b600054610100900460ff1661162c5760405162461bcd60e51b815260206004820152602b60248201527f496e697469616c697a61626c653a20636f6e7472616374206973206e6f74206960448201526a6e697469616c697a696e6760a81b6064820152608401610805565b600054610100900460ff16612d055760405162461bcd60e51b815260206004820152602b60248201527f496e697469616c697a61626c653a20636f6e7472616374206973206e6f74206960448201526a6e697469616c697a696e6760a81b6064820152608401610805565b61162c336124d2565b600054610100900460ff16612d795760405162461bcd60e51b815260206004820152602b60248201527f496e697469616c697a61626c653a20636f6e7472616374206973206e6f74206960448201526a6e697469616c697a696e6760a81b6064820152608401610805565b600160c955565b600054610100900460ff16612deb5760405162461bcd60e51b815260206004820152602b60248201527f496e697469616c697a61626c653a20636f6e7472616374206973206e6f74206960448201526a6e697469616c697a696e6760a81b6064820152608401610805565b60fb805460ff19169055565b80516a636f6e736f6c652e6c6f67602083016000808483855afa5050505050565b60608315612e27575081612a24565b825115612e375782518084602001fd5b8160405162461bcd60e51b8152600401610805919061370d565b828054612e5d90613560565b90600052602060002090601f016020900481019282612e7f5760008555612ec5565b82601f10612e9857805160ff1916838001178555612ec5565b82800160010185558215612ec5579182015b82811115612ec5578251825591602001919060010190612eaa565b50612ed1929150612ed5565b5090565b5b80821115612ed15760008155600101612ed6565b600060208284031215612efc57600080fd5b5035919050565b60005b83811015612f1e578181015183820152602001612f06565b83811115612f2d576000848401525b50505050565b60008151808452612f4b816020860160208601612f03565b601f01601f19169290920160200192915050565b60006101608d83526001600160a01b038d1660208401528b60408401528a60608401528960808401528860a08401528060c0840152612fa081840189612f33565b60e08401979097525050921515610100840152901515610120830152151561014090910152979650505050505050565b600060208284031215612fe257600080fd5b81357fffffffff0000000000000000000000000000000000000000000000000000000081168114612a2457600080fd5b80356001600160a01b038116811461302957600080fd5b919050565b60008060006060848603121561304357600080fd5b61304c84613012565b925061305a60208501613012565b9150604084013590509250925092565b60008083601f84011261307c57600080fd5b50813567ffffffffffffffff81111561309457600080fd5b6020830191508360208285010111156130ac57600080fd5b9250929050565b6000806000604084860312156130c857600080fd5b6130d184613012565b9250602084013567ffffffffffffffff8111156130ed57600080fd5b6130f98682870161306a565b9497909650939450505050565b600080600080600080600087890361018081121561312357600080fd5b61312c89613012565b97506020890135965061314160408a01613012565b955061314f60608a01613012565b9450608089013567ffffffffffffffff81111561316b57600080fd5b6131778b828c0161306a565b90955093505060e07fffffffffffffffffffffffffffffffffffffffffffffffffffffffffffffff60820112156131ad57600080fd5b5060a08801905092959891949750929550565b600080604083850312156131d357600080fd5b823591506131e360208401613012565b90509250929050565b6000602082840312156131fe57600080fd5b612a2482613012565b634e487b7160e01b600052602160045260246000fd5b602081016006831061323f57634e487b7160e01b600052602160045260246000fd5b91905290565b60006020828403121561325757600080fd5b81358015158114612a2457600080fd5b634e487b7160e01b600052604160045260246000fd5b6000806040838503121561329057600080fd5b61329983613012565b9150602083013567ffffffffffffffff808211156132b657600080fd5b818501915085601f8301126132ca57600080fd5b8135818111156132dc576132dc613267565b604051601f8201601f19908116603f0116810190838211818310171561330457613304613267565b8160405282815288602084870101111561331d57600080fd5b8260208601602083013760006020848301015280955050505050509250929050565b6000806040838503121561335257600080fd5b61335b83613012565b946020939093013593505050565b6000806000806080858703121561337f57600080fd5b5050823594602084013594506040840135936060013592509050565b600080604083850312156133ae57600080fd5b50508035926020909101359150565b60006020808301818452808551808352604092508286019150828160051b87010184880160005b838110156134c3577fffffffffffffffffffffffffffffffffffffffffffffffffffffffffffffffc0898403018552815161016081518552888201516134348a8701826001600160a01b03169052565b508188015185890152606080830151908601526080808301519086015260a0808301519086015260c08083015181870183905261347383880182612f33565b9250505060e0808301518187015250610100808301516134968288018215159052565b505061012082810151151590860152610140918201511515919094015293860193908601906001016133e4565b509098975050505050505050565b8d81526101a0602082015260006134ec6101a083018f612f33565b90506001600160a01b03808e166040840152808d166060840152808c166080840152508960a08301528860c08301528760e083015286610100830152856101208301528461014083015283151561016083015261354e61018083018415159052565b9e9d5050505050505050505050505050565b600181811c9082168061357457607f821691505b6020821081141561359557634e487b7160e01b600052602260045260246000fd5b50919050565b6000602082840312156135ad57600080fd5b5051919050565b634e487b7160e01b600052601160045260246000fd5b600082198211156135dd576135dd6135b4565b500190565b60008160001904831182151516156135fc576135fc6135b4565b500290565b60008261361e57634e487b7160e01b600052601260045260246000fd5b500490565b60006020828403121561363557600080fd5b815160068110612a2457600080fd5b600082821015613656576136566135b4565b500390565b634e487b7160e01b600052603260045260246000fd5b6000600019821415613685576136856135b4565b5060010190565b7f416363657373436f6e74726f6c3a206163636f756e74200000000000000000008152600083516136c4816017850160208801612f03565b7f206973206d697373696e6720726f6c65200000000000000000000000000000006017918401918201528351613701816028840160208801612f03565b01602801949350505050565b602081526000612a246020830184612f33565b6040815260006137336040830185612f33565b90508260208301529392505050565b600081613751576137516135b4565b506000190190565b6000825161376b818460208701612f03565b919091019291505056fe416464726573733a206c6f772d6c6576656c2064656c65676174652063616c6c206661696c6564a2646970667358221220828c8d8268a6499f48e1ee56a1d306322bb6e22773bdba83de72ad298aa851f764736f6c634300080b0033",
  "linkReferences": {},
  "deployedLinkReferences": {}
}