{
  "_format": "hh-sol-artifact-1",
  "contractName": "RootZDAOChef",
  "sourceName": "contracts/polygon/root/RootZDAOChef.sol",
  "abi": [
    {
      "anonymous": false,
      "inputs": [
        {
          "indexed": false,
          "internalType": "address",
          "name": "previousAdmin",
          "type": "address"
        },
        {
          "indexed": false,
          "internalType": "address",
          "name": "newAdmin",
          "type": "address"
        }
      ],
      "name": "AdminChanged",
      "type": "event"
    },
    {
      "anonymous": false,
      "inputs": [
        {
          "indexed": true,
          "internalType": "address",
          "name": "beacon",
          "type": "address"
        }
      ],
      "name": "BeaconUpgraded",
      "type": "event"
    },
    {
      "anonymous": false,
      "inputs": [
        {
          "indexed": true,
          "internalType": "address",
          "name": "previousOwner",
          "type": "address"
        },
        {
          "indexed": true,
          "internalType": "address",
          "name": "newOwner",
          "type": "address"
        }
      ],
      "name": "OwnershipTransferred",
      "type": "event"
    },
    {
      "anonymous": false,
      "inputs": [
        {
          "indexed": false,
          "internalType": "address",
          "name": "account",
          "type": "address"
        }
      ],
      "name": "Paused",
      "type": "event"
    },
    {
      "anonymous": false,
      "inputs": [
        {
          "indexed": true,
          "internalType": "uint256",
          "name": "_zDAOId",
          "type": "uint256"
        },
        {
          "indexed": true,
          "internalType": "uint256",
          "name": "_propoalId",
          "type": "uint256"
        },
        {
          "indexed": false,
          "internalType": "uint256",
          "name": "_voters",
          "type": "uint256"
        },
        {
          "indexed": false,
          "internalType": "uint256",
          "name": "_yes",
          "type": "uint256"
        },
        {
          "indexed": false,
          "internalType": "uint256",
          "name": "_no",
          "type": "uint256"
        }
      ],
      "name": "ProposalCalculated",
      "type": "event"
    },
    {
      "anonymous": false,
      "inputs": [
        {
          "indexed": true,
          "internalType": "uint256",
          "name": "_zDAOId",
          "type": "uint256"
        },
        {
          "indexed": true,
          "internalType": "uint256",
          "name": "_proposalId",
          "type": "uint256"
        },
        {
          "indexed": true,
          "internalType": "address",
          "name": "_cancelBy",
          "type": "address"
        }
      ],
      "name": "ProposalCanceled",
      "type": "event"
    },
    {
      "anonymous": false,
      "inputs": [
        {
          "indexed": true,
          "internalType": "uint256",
          "name": "_zDAOId",
          "type": "uint256"
        },
        {
          "indexed": true,
          "internalType": "uint256",
          "name": "_proposalId",
          "type": "uint256"
        },
        {
          "indexed": true,
          "internalType": "address",
          "name": "_createdBy",
          "type": "address"
        },
        {
          "indexed": false,
          "internalType": "uint256",
          "name": "_snapshot",
          "type": "uint256"
        }
      ],
      "name": "ProposalCreated",
      "type": "event"
    },
    {
      "anonymous": false,
      "inputs": [
        {
          "indexed": true,
          "internalType": "uint256",
          "name": "_zDAOId",
          "type": "uint256"
        },
        {
          "indexed": true,
          "internalType": "uint256",
          "name": "_proposalId",
          "type": "uint256"
        },
        {
          "indexed": true,
          "internalType": "address",
          "name": "_executeBy",
          "type": "address"
        }
      ],
      "name": "ProposalExecuted",
      "type": "event"
    },
    {
      "anonymous": false,
      "inputs": [
        {
          "indexed": true,
          "internalType": "bytes32",
          "name": "role",
          "type": "bytes32"
        },
        {
          "indexed": true,
          "internalType": "bytes32",
          "name": "previousAdminRole",
          "type": "bytes32"
        },
        {
          "indexed": true,
          "internalType": "bytes32",
          "name": "newAdminRole",
          "type": "bytes32"
        }
      ],
      "name": "RoleAdminChanged",
      "type": "event"
    },
    {
      "anonymous": false,
      "inputs": [
        {
          "indexed": true,
          "internalType": "bytes32",
          "name": "role",
          "type": "bytes32"
        },
        {
          "indexed": true,
          "internalType": "address",
          "name": "account",
          "type": "address"
        },
        {
          "indexed": true,
          "internalType": "address",
          "name": "sender",
          "type": "address"
        }
      ],
      "name": "RoleGranted",
      "type": "event"
    },
    {
      "anonymous": false,
      "inputs": [
        {
          "indexed": true,
          "internalType": "bytes32",
          "name": "role",
          "type": "bytes32"
        },
        {
          "indexed": true,
          "internalType": "address",
          "name": "account",
          "type": "address"
        },
        {
          "indexed": true,
          "internalType": "address",
          "name": "sender",
          "type": "address"
        }
      ],
      "name": "RoleRevoked",
      "type": "event"
    },
    {
      "anonymous": false,
      "inputs": [
        {
          "indexed": false,
          "internalType": "address",
          "name": "account",
          "type": "address"
        }
      ],
      "name": "Unpaused",
      "type": "event"
    },
    {
      "anonymous": false,
      "inputs": [
        {
          "indexed": true,
          "internalType": "address",
          "name": "implementation",
          "type": "address"
        }
      ],
      "name": "Upgraded",
      "type": "event"
    },
    {
      "inputs": [],
      "name": "DEFAULT_ADMIN_ROLE",
      "outputs": [
        {
          "internalType": "bytes32",
          "name": "",
          "type": "bytes32"
        }
      ],
      "stateMutability": "view",
      "type": "function"
    },
    {
      "inputs": [
        {
          "internalType": "address",
          "name": "_zDAORegistry",
          "type": "address"
        },
        {
          "internalType": "contract IRootStateSender",
          "name": "_rootStateSender",
          "type": "address"
        },
        {
          "internalType": "address",
          "name": "_zDAOBase",
          "type": "address"
        }
      ],
      "name": "__ZDAOChef_init",
      "outputs": [],
      "stateMutability": "nonpayable",
      "type": "function"
    },
    {
      "inputs": [
        {
          "internalType": "uint256",
          "name": "_zDAOId",
          "type": "uint256"
        },
        {
          "internalType": "uint256",
          "name": "_zNA",
          "type": "uint256"
        },
        {
          "internalType": "address",
          "name": "_gnosisSafe",
          "type": "address"
        },
        {
          "internalType": "bytes",
          "name": "_options",
          "type": "bytes"
        }
      ],
      "name": "addNewZDAO",
      "outputs": [
        {
          "internalType": "address",
          "name": "",
          "type": "address"
        }
      ],
      "stateMutability": "nonpayable",
      "type": "function"
    },
    {
      "inputs": [
        {
          "internalType": "uint256",
          "name": "_zDAOId",
          "type": "uint256"
        },
        {
          "internalType": "uint256",
          "name": "_proposalId",
          "type": "uint256"
        }
      ],
      "name": "cancelProposal",
      "outputs": [],
      "stateMutability": "nonpayable",
      "type": "function"
    },
    {
      "inputs": [
        {
          "internalType": "uint256",
          "name": "_zDAOId",
          "type": "uint256"
        },
        {
          "internalType": "string",
          "name": "_ipfs",
          "type": "string"
        }
      ],
      "name": "createProposal",
      "outputs": [],
      "stateMutability": "nonpayable",
      "type": "function"
    },
    {
      "inputs": [
        {
          "internalType": "uint256",
          "name": "_zDAOId",
          "type": "uint256"
        },
        {
          "internalType": "uint256",
          "name": "_proposalId",
          "type": "uint256"
        }
      ],
      "name": "executeProposal",
      "outputs": [],
      "stateMutability": "nonpayable",
      "type": "function"
    },
    {
      "inputs": [
        {
          "internalType": "bytes32",
          "name": "role",
          "type": "bytes32"
        }
      ],
      "name": "getRoleAdmin",
      "outputs": [
        {
          "internalType": "bytes32",
          "name": "",
          "type": "bytes32"
        }
      ],
      "stateMutability": "view",
      "type": "function"
    },
    {
      "inputs": [
        {
          "internalType": "bytes32",
          "name": "role",
          "type": "bytes32"
        },
        {
          "internalType": "address",
          "name": "account",
          "type": "address"
        }
      ],
      "name": "grantRole",
      "outputs": [],
      "stateMutability": "nonpayable",
      "type": "function"
    },
    {
      "inputs": [
        {
          "internalType": "bytes32",
          "name": "role",
          "type": "bytes32"
        },
        {
          "internalType": "address",
          "name": "account",
          "type": "address"
        }
      ],
      "name": "hasRole",
      "outputs": [
        {
          "internalType": "bool",
          "name": "",
          "type": "bool"
        }
      ],
      "stateMutability": "view",
      "type": "function"
    },
    {
      "inputs": [
        {
          "internalType": "uint256",
          "name": "_zDAOId",
          "type": "uint256"
        },
        {
          "internalType": "address",
          "name": "_gnosisSafe",
          "type": "address"
        },
        {
          "internalType": "bytes",
          "name": "_options",
          "type": "bytes"
        }
      ],
      "name": "modifyZDAO",
      "outputs": [],
      "stateMutability": "nonpayable",
      "type": "function"
    },
    {
      "inputs": [],
      "name": "owner",
      "outputs": [
        {
          "internalType": "address",
          "name": "",
          "type": "address"
        }
      ],
      "stateMutability": "view",
      "type": "function"
    },
    {
      "inputs": [],
      "name": "paused",
      "outputs": [
        {
          "internalType": "bool",
          "name": "",
          "type": "bool"
        }
      ],
      "stateMutability": "view",
      "type": "function"
    },
    {
      "inputs": [
        {
          "internalType": "bytes",
          "name": "_message",
          "type": "bytes"
        }
      ],
      "name": "processMessageFromChild",
      "outputs": [],
      "stateMutability": "nonpayable",
      "type": "function"
    },
    {
      "inputs": [
        {
          "internalType": "uint256",
          "name": "_zDAOId",
          "type": "uint256"
        }
      ],
      "name": "removeZDAO",
      "outputs": [],
      "stateMutability": "nonpayable",
      "type": "function"
    },
    {
      "inputs": [],
      "name": "renounceOwnership",
      "outputs": [],
      "stateMutability": "nonpayable",
      "type": "function"
    },
    {
      "inputs": [
        {
          "internalType": "bytes32",
          "name": "role",
          "type": "bytes32"
        },
        {
          "internalType": "address",
          "name": "account",
          "type": "address"
        }
      ],
      "name": "renounceRole",
      "outputs": [],
      "stateMutability": "nonpayable",
      "type": "function"
    },
    {
      "inputs": [
        {
          "internalType": "bytes32",
          "name": "role",
          "type": "bytes32"
        },
        {
          "internalType": "address",
          "name": "account",
          "type": "address"
        }
      ],
      "name": "revokeRole",
      "outputs": [],
      "stateMutability": "nonpayable",
      "type": "function"
    },
    {
      "inputs": [],
      "name": "rootStateSender",
      "outputs": [
        {
          "internalType": "contract IRootStateSender",
          "name": "",
          "type": "address"
        }
      ],
      "stateMutability": "view",
      "type": "function"
    },
    {
      "inputs": [
        {
          "internalType": "address",
          "name": "_zDAOBase",
          "type": "address"
        }
      ],
      "name": "setZDAOBase",
      "outputs": [],
      "stateMutability": "nonpayable",
      "type": "function"
    },
    {
      "inputs": [
        {
          "internalType": "bytes4",
          "name": "interfaceId",
          "type": "bytes4"
        }
      ],
      "name": "supportsInterface",
      "outputs": [
        {
          "internalType": "bool",
          "name": "",
          "type": "bool"
        }
      ],
      "stateMutability": "view",
      "type": "function"
    },
    {
      "inputs": [
        {
          "internalType": "address",
          "name": "newOwner",
          "type": "address"
        }
      ],
      "name": "transferOwnership",
      "outputs": [],
      "stateMutability": "nonpayable",
      "type": "function"
    },
    {
      "inputs": [
        {
          "internalType": "address",
          "name": "newImplementation",
          "type": "address"
        }
      ],
      "name": "upgradeTo",
      "outputs": [],
      "stateMutability": "nonpayable",
      "type": "function"
    },
    {
      "inputs": [
        {
          "internalType": "address",
          "name": "newImplementation",
          "type": "address"
        },
        {
          "internalType": "bytes",
          "name": "data",
          "type": "bytes"
        }
      ],
      "name": "upgradeToAndCall",
      "outputs": [],
      "stateMutability": "payable",
      "type": "function"
    },
    {
      "inputs": [],
      "name": "version",
      "outputs": [
        {
          "internalType": "uint256",
          "name": "",
          "type": "uint256"
        }
      ],
      "stateMutability": "view",
      "type": "function"
    },
    {
      "inputs": [],
      "name": "zDAOBase",
      "outputs": [
        {
          "internalType": "address",
          "name": "",
          "type": "address"
        }
      ],
      "stateMutability": "view",
      "type": "function"
    },
    {
      "inputs": [],
      "name": "zDAORegistry",
      "outputs": [
        {
          "internalType": "address",
          "name": "",
          "type": "address"
        }
      ],
      "stateMutability": "view",
      "type": "function"
    },
    {
      "inputs": [
        {
          "internalType": "uint256",
          "name": "",
          "type": "uint256"
        }
      ],
      "name": "zDAOs",
      "outputs": [
        {
          "internalType": "contract IRootZDAO",
          "name": "",
          "type": "address"
        }
      ],
      "stateMutability": "view",
      "type": "function"
    }
  ],
  "bytecode": "0x60a06040523060805234801561001457600080fd5b50608051613b1561004560003960008181610b8001528181610c18015281816110eb01526111830152613b156000f3fe608060405260043610620001cf5760003560e01c806354fd4d5011620000ff578063a217fddf1162000095578063c504f253116200006c578063c504f2531462000565578063d547741f146200058a578063f2fde38b14620005af578063fe0ed21114620005d457600080fd5b8063a217fddf1462000506578063a98bab8a146200051d578063b74a2c89146200054257600080fd5b80635ded8b0611620000d65780635ded8b06146200045f578063715018a614620004845780638da5cb5b146200049c57806391d1485414620004bc57600080fd5b806354fd4d5014620004095780635accac3f14620004225780635c975abb146200044557600080fd5b80632f2ff15d11620001755780633659cfe6116200014c5780633659cfe614620003835780633ca65bd614620003a85780634964d9a514620003cd5780634f1ef28614620003f257600080fd5b80632f2ff15d14620002fe5780633628e9f7146200032357806336568abe146200035e57600080fd5b80631ab7671211620001aa5780631ab76712146200025a578063248a9ca3146200027f57806329503f7d14620002c257600080fd5b806301ffc9a714620001d457806302d52fa4146200020e57806310123b2e1462000235575b600080fd5b348015620001e157600080fd5b50620001f9620001f3366004620029f8565b620005f9565b60405190151581526020015b60405180910390f35b3480156200021b57600080fd5b50620002336200022d36600462002a88565b62000693565b005b3480156200024257600080fd5b50620002336200025436600462002ad8565b6200086f565b3480156200026757600080fd5b50620002336200027936600462002b1e565b62000911565b3480156200028c57600080fd5b50620002b36200029e36600462002b41565b60009081526097602052604090206001015490565b60405190815260200162000205565b348015620002cf57600080fd5b5061019354620002e5906001600160a01b031681565b6040516001600160a01b03909116815260200162000205565b3480156200030b57600080fd5b50620002336200031d36600462002b71565b62000aba565b3480156200033057600080fd5b50620002e56200034236600462002b41565b610195602052600090815260409020546001600160a01b031681565b3480156200036b57600080fd5b50620002336200037d36600462002b71565b62000ae9565b3480156200039057600080fd5b5062000233620003a236600462002ba4565b62000b75565b348015620003b557600080fd5b50620002e5620003c736600462002bc4565b62000d1c565b348015620003da57600080fd5b5062000233620003ec36600462002b41565b62000f5b565b620002336200040336600462002cf3565b620010e0565b3480156200041657600080fd5b50620002b36101915481565b3480156200042f57600080fd5b5061019254620002e5906001600160a01b031681565b3480156200045257600080fd5b5060fb5460ff16620001f9565b3480156200046c57600080fd5b50620002336200047e36600462002b1e565b62001274565b3480156200049157600080fd5b5062000233620013a1565b348015620004a957600080fd5b506033546001600160a01b0316620002e5565b348015620004c957600080fd5b50620001f9620004db36600462002b71565b60009182526097602090815260408084206001600160a01b0393909316845291905290205460ff1690565b3480156200051357600080fd5b50620002b3600081565b3480156200052a57600080fd5b50620002336200053c36600462002d5e565b6200140b565b3480156200054f57600080fd5b5061019454620002e5906001600160a01b031681565b3480156200057257600080fd5b50620002336200058436600462002db0565b6200156d565b3480156200059757600080fd5b5062000233620005a936600462002b71565b6200171b565b348015620005bc57600080fd5b5062000233620005ce36600462002ba4565b62001745565b348015620005e157600080fd5b5062000233620005f336600462002ba4565b6200182a565b60007fffffffff0000000000000000000000000000000000000000000000000000000082167f7965db0b0000000000000000000000000000000000000000000000000000000014806200068d57507f01ffc9a7000000000000000000000000000000000000000000000000000000007fffffffff000000000000000000000000000000000000000000000000000000008316145b92915050565b82600081118015620006ad5750620006ab81620018b6565b155b620006ee5760405162461bcd60e51b815260206004820152600c60248201526b496e76616c6964207a44414f60a01b60448201526064015b60405180910390fd5b600084815261019560205260408082205490517f1f4f7d290000000000000000000000000000000000000000000000000000000081526001600160a01b0390911690631f4f7d29906200074a9033908890889060040162002e12565b6020604051808303816000875af11580156200076a573d6000803e3d6000fd5b505050506040513d601f19601f8201168201806040525081019062000790919062002e51565b9050336001600160a01b031681867f3adb4b5b85d780e775af66d5efff3183afc4c951384c4fe9763eb5e0406b15c643604051620007d091815260200190565b60405180910390a4610193546001600160a01b0316634c09e6e860036040805160208101929092528101889052606081018490526080016040516020818303038152906040526040518263ffffffff1660e01b815260040162000834919062002ec8565b600060405180830381600087803b1580156200084f57600080fd5b505af115801562000864573d6000803e3d6000fd5b505050505050505050565b610193546001600160a01b03163314620008cc5760405162461bcd60e51b815260206004820152601260248201527f4e6f7420612073746174652073656e64657200000000000000000000000000006044820152606401620006e5565b6200090d82828080601f0160208091040260200160405190810160405280939291908181526020018383808284376000920191909152506200194992505050565b5050565b816000811180156200092b57506200092981620018b6565b155b620009685760405162461bcd60e51b815260206004820152600c60248201526b496e76616c6964207a44414f60a01b6044820152606401620006e5565b60008381526101956020526040908190205490517fbfc42645000000000000000000000000000000000000000000000000000000008152336004820152602481018490526001600160a01b039091169063bfc4264590604401600060405180830381600087803b158015620009dc57600080fd5b505af1158015620009f1573d6000803e3d6000fd5b505060405133925084915085907fe285e47f4804f679760aa4e907da874045af16436d55df64b64ffd9ca2539dfa90600090a4610193546001600160a01b0316634c09e6e860055b6040805160208101929092528101869052606081018590526080016040516020818303038152906040526040518263ffffffff1660e01b815260040162000a81919062002ec8565b600060405180830381600087803b15801562000a9c57600080fd5b505af115801562000ab1573d6000803e3d6000fd5b50505050505050565b60008281526097602052604090206001015462000ad8813362001978565b62000ae4838362001a01565b505050565b6001600160a01b038116331462000b695760405162461bcd60e51b815260206004820152602f60248201527f416363657373436f6e74726f6c3a2063616e206f6e6c792072656e6f756e636560448201527f20726f6c657320666f722073656c6600000000000000000000000000000000006064820152608401620006e5565b6200090d828262001aa5565b306001600160a01b037f000000000000000000000000000000000000000000000000000000000000000016141562000c165760405162461bcd60e51b815260206004820152602c60248201527f46756e6374696f6e206d7573742062652063616c6c6564207468726f7567682060448201527f64656c656761746563616c6c00000000000000000000000000000000000000006064820152608401620006e5565b7f00000000000000000000000000000000000000000000000000000000000000006001600160a01b031662000c727f360894a13ba1a3210667c828492db98dca3e2076cc3735a920a3ca505d382bbc546001600160a01b031690565b6001600160a01b03161462000cf05760405162461bcd60e51b815260206004820152602c60248201527f46756e6374696f6e206d7573742062652063616c6c6564207468726f7567682060448201527f6163746976652070726f787900000000000000000000000000000000000000006064820152608401620006e5565b62000cfb8162001b29565b6040805160008082526020820190925262000d199183919062001b85565b50565b610192546000906001600160a01b0316331462000d7c5760405162461bcd60e51b815260206004820152600e60248201527f4e6f7420612072656769737472790000000000000000000000000000000000006044820152606401620006e5565b600086815261019560205260409020546001600160a01b03161562000da55762000da562002edd565b60008062000db68486018662002f02565b6101945460405192945090925060009162000e76916001600160a01b0316907f2ebd7b75000000000000000000000000000000000000000000000000000000009062000e119030908e908d9033908b908b9060240162002fda565b60408051601f198184030181529190526020810180517bffffffffffffffffffffffffffffffffffffffffffffffffffffffff167fffffffff000000000000000000000000000000000000000000000000000000009093169290921790915262001d50565b60008a815261019560205260409020805473ffffffffffffffffffffffffffffffffffffffff19166001600160a01b03838116919091179091556101935491925016634c09e6e860016040858101518651825160208101949094529183018e905260608301526001600160a01b0316608082015260a0016040516020818303038152906040526040518263ffffffff1660e01b815260040162000f1a919062002ec8565b600060405180830381600087803b15801562000f3557600080fd5b505af115801562000f4a573d6000803e3d6000fd5b50929b9a5050505050505050505050565b610192546001600160a01b0316331462000fb85760405162461bcd60e51b815260206004820152600e60248201527f4e6f7420612072656769737472790000000000000000000000000000000000006044820152606401620006e5565b60008181526101956020526040908190205490517f472858b4000000000000000000000000000000000000000000000000000000008152600160048201526001600160a01b039091169063472858b490602401600060405180830381600087803b1580156200102657600080fd5b505af11580156200103b573d6000803e3d6000fd5b505061019354604080516002602082015280820186905281518082038301815260608201928390527f4c09e6e8000000000000000000000000000000000000000000000000000000009092526001600160a01b039092169350634c09e6e89250620010a99160640162002ec8565b600060405180830381600087803b158015620010c457600080fd5b505af1158015620010d9573d6000803e3d6000fd5b5050505050565b306001600160a01b037f0000000000000000000000000000000000000000000000000000000000000000161415620011815760405162461bcd60e51b815260206004820152602c60248201527f46756e6374696f6e206d7573742062652063616c6c6564207468726f7567682060448201527f64656c656761746563616c6c00000000000000000000000000000000000000006064820152608401620006e5565b7f00000000000000000000000000000000000000000000000000000000000000006001600160a01b0316620011dd7f360894a13ba1a3210667c828492db98dca3e2076cc3735a920a3ca505d382bbc546001600160a01b031690565b6001600160a01b0316146200125b5760405162461bcd60e51b815260206004820152602c60248201527f46756e6374696f6e206d7573742062652063616c6c6564207468726f7567682060448201527f6163746976652070726f787900000000000000000000000000000000000000006064820152608401620006e5565b620012668262001b29565b6200090d8282600162001b85565b816000811180156200128e57506200128c81620018b6565b155b620012cb5760405162461bcd60e51b815260206004820152600c60248201526b496e76616c6964207a44414f60a01b6044820152606401620006e5565b60008381526101956020526040908190205490517f53350755000000000000000000000000000000000000000000000000000000008152336004820152602481018490526001600160a01b0390911690635335075590604401600060405180830381600087803b1580156200133f57600080fd5b505af115801562001354573d6000803e3d6000fd5b505060405133925084915085907f9ebbce99b668db9a753ddb04f826e8eb33904201a74ad92b015aaa3fa039370e90600090a4610193546001600160a01b0316634c09e6e8600462000a39565b6033546001600160a01b03163314620013fd5760405162461bcd60e51b815260206004820181905260248201527f4f776e61626c653a2063616c6c6572206973206e6f7420746865206f776e65726044820152606401620006e5565b62001409600062001dc3565b565b600054610100900460ff16620014285760005460ff16156200142c565b303b155b620014a05760405162461bcd60e51b815260206004820152602e60248201527f496e697469616c697a61626c653a20636f6e747261637420697320616c72656160448201527f647920696e697469616c697a65640000000000000000000000000000000000006064820152608401620006e5565b600054610100900460ff16158015620014e057600080547fffffffffffffffffffffffffffffffffffffffffffffffffffffffffffff0000166101011790555b620014ea62001e22565b61019280546001600160a01b0380871673ffffffffffffffffffffffffffffffffffffffff1992831617909255610193805486841690831617905561019480549285169290911691909117905580156200156757600080547fffffffffffffffffffffffffffffffffffffffffffffffffffffffffffff00ff1690555b50505050565b610192546001600160a01b03163314620015ca5760405162461bcd60e51b815260206004820152600e60248201527f4e6f7420612072656769737472790000000000000000000000000000000000006044820152606401620006e5565b600080620015db8385018562003070565b60008881526101956020526040908190205490517f16cbb96e0000000000000000000000000000000000000000000000000000000081526001600160a01b03898116600483015280851660248301526044820184905293955091935091909116906316cbb96e90606401600060405180830381600087803b1580156200166057600080fd5b505af115801562001675573d6000803e3d6000fd5b5050610193546001600160a01b03169150634c09e6e89050600760408051602081019290925281018990526001600160a01b03851660608201526080016040516020818303038152906040526040518263ffffffff1660e01b8152600401620016df919062002ec8565b600060405180830381600087803b158015620016fa57600080fd5b505af11580156200170f573d6000803e3d6000fd5b50505050505050505050565b60008281526097602052604090206001015462001739813362001978565b62000ae4838362001aa5565b6033546001600160a01b03163314620017a15760405162461bcd60e51b815260206004820181905260248201527f4f776e61626c653a2063616c6c6572206973206e6f7420746865206f776e65726044820152606401620006e5565b6001600160a01b0381166200181f5760405162461bcd60e51b815260206004820152602660248201527f4f776e61626c653a206e6577206f776e657220697320746865207a65726f206160448201527f64647265737300000000000000000000000000000000000000000000000000006064820152608401620006e5565b62000d198162001dc3565b6033546001600160a01b03163314620018865760405162461bcd60e51b815260206004820181905260248201527f4f776e61626c653a2063616c6c6572206973206e6f7420746865206f776e65726044820152606401620006e5565b610194805473ffffffffffffffffffffffffffffffffffffffff19166001600160a01b0392909216919091179055565b6000818152610195602090815260408083205481517f359cbbc900000000000000000000000000000000000000000000000000000000815291516001600160a01b039091169263359cbbc992600480820193918290030181865afa15801562001923573d6000803e3d6000fd5b505050506040513d601f19601f820116820180604052508101906200068d91906200309f565b60008180602001905181019062001961919062002e51565b905060068114156200090d576200090d8262001f07565b60008281526097602090815260408083206001600160a01b038516845290915290205460ff166200090d57620019b9816001600160a01b0316601462002072565b620019c683602062002072565b604051602001620019d9929190620030bf565b60408051601f198184030181529082905262461bcd60e51b8252620006e59160040162002ec8565b60008281526097602090815260408083206001600160a01b038516845290915290205460ff166200090d5760008281526097602090815260408083206001600160a01b03851684529091529020805460ff1916600117905562001a613390565b6001600160a01b0316816001600160a01b0316837f2f8788117e7eff1d82e926ec794901d17c78024a50270940304540a733656f0d60405160405180910390a45050565b60008281526097602090815260408083206001600160a01b038516845290915290205460ff16156200090d5760008281526097602090815260408083206001600160a01b0385168085529252808320805460ff1916905551339285917ff6391f5c32d9c69d2a47ea670b442974b53935d1edc7fd64eb21e047a839171b9190a45050565b6033546001600160a01b0316331462000d195760405162461bcd60e51b815260206004820181905260248201527f4f776e61626c653a2063616c6c6572206973206e6f7420746865206f776e65726044820152606401620006e5565b600062001bb97f360894a13ba1a3210667c828492db98dca3e2076cc3735a920a3ca505d382bbc546001600160a01b031690565b905062001bc684620022c0565b60008351118062001bd45750815b1562001be85762001be6848462002384565b505b7f4910fdfa16fed3260ed0e7147f7cc6da11a60208b5b9406d12a635614ffd9143805460ff16620010d957805460ff191660011781556040516001600160a01b038316602482015262001c9890869060440160408051601f198184030181529190526020810180517bffffffffffffffffffffffffffffffffffffffffffffffffffffffff167f3659cfe60000000000000000000000000000000000000000000000000000000017905262002384565b50805460ff191681557f360894a13ba1a3210667c828492db98dca3e2076cc3735a920a3ca505d382bbc546001600160a01b0383811691161462001d455760405162461bcd60e51b815260206004820152602f60248201527f45524331393637557067726164653a207570677261646520627265616b73206660448201527f75727468657220757067726164657300000000000000000000000000000000006064820152608401620006e5565b620010d9856200248f565b6000438260405160200162001d6792919062003144565b60405160208183030381529060405280519060200120838360405162001d8d90620029ea565b62001d9a9291906200316c565b8190604051809103906000f590508015801562001dbb573d6000803e3d6000fd5b509392505050565b603380546001600160a01b0383811673ffffffffffffffffffffffffffffffffffffffff19831681179093556040519116919082907f8be0079c531659141344cd1fd0a4f28419497f9722a3daafe3b4186f6b6457e090600090a35050565b600054610100900460ff1662001e8f5760405162461bcd60e51b815260206004820152602b60248201527f496e697469616c697a61626c653a20636f6e7472616374206973206e6f74206960448201526a6e697469616c697a696e6760a81b6064820152608401620006e5565b62001e99620024d1565b62001ea362002552565b62001ead620025dd565b62001eb762002654565b62001ec1620026d5565b6001610191819055604080518082019091528181527f76000000000000000000000000000000000000000000000000000000000000006020820152620014099162002742565b6000806000806000808680602001905181019062001f26919062003198565b95509550955095509550955060008511801562001f4b575062001f4985620018b6565b155b62001f885760405162461bcd60e51b815260206004820152600c60248201526b496e76616c6964207a44414f60a01b6044820152606401620006e5565b60008581526101956020526040908190205490517f74cb034f000000000000000000000000000000000000000000000000000000008152600481018690526024810185905260448101849052606481018390526001600160a01b03909116906374cb034f90608401600060405180830381600087803b1580156200200b57600080fd5b505af115801562002020573d6000803e3d6000fd5b505060408051868152602081018690529081018490528692508791507fc5f4ded6fe856e23f8c51620f7792940657a825849eb7efc3ef36aa77951b7929060600160405180910390a350505050505050565b6060600062002083836002620031f9565b620020909060026200321b565b67ffffffffffffffff811115620020ab57620020ab62002c34565b6040519080825280601f01601f191660200182016040528015620020d6576020820181803683370190505b5090507f30000000000000000000000000000000000000000000000000000000000000008160008151811062002110576200211062003236565b60200101907effffffffffffffffffffffffffffffffffffffffffffffffffffffffffffff1916908160001a9053507f78000000000000000000000000000000000000000000000000000000000000008160018151811062002176576200217662003236565b60200101907effffffffffffffffffffffffffffffffffffffffffffffffffffffffffffff1916908160001a9053506000620021b4846002620031f9565b620021c19060016200321b565b90505b600181111562002268577f303132333435363738396162636465660000000000000000000000000000000085600f166010811062002206576200220662003236565b1a60f81b8282815181106200221f576200221f62003236565b60200101907effffffffffffffffffffffffffffffffffffffffffffffffffffffffffffff1916908160001a90535060049490941c9362002260816200324c565b9050620021c4565b508315620022b95760405162461bcd60e51b815260206004820181905260248201527f537472696e67733a20686578206c656e67746820696e73756666696369656e746044820152606401620006e5565b9392505050565b803b620023365760405162461bcd60e51b815260206004820152602d60248201527f455243313936373a206e657720696d706c656d656e746174696f6e206973206e60448201527f6f74206120636f6e7472616374000000000000000000000000000000000000006064820152608401620006e5565b7f360894a13ba1a3210667c828492db98dca3e2076cc3735a920a3ca505d382bbc805473ffffffffffffffffffffffffffffffffffffffff19166001600160a01b0392909216919091179055565b6060823b620023fc5760405162461bcd60e51b815260206004820152602660248201527f416464726573733a2064656c65676174652063616c6c20746f206e6f6e2d636f60448201527f6e747261637400000000000000000000000000000000000000000000000000006064820152608401620006e5565b600080846001600160a01b03168460405162002419919062003266565b600060405180830381855af49150503d806000811462002456576040519150601f19603f3d011682016040523d82523d6000602084013e6200245b565b606091505b509150915062002486828260405180606001604052806027815260200162003ab960279139620027b9565b95945050505050565b6200249a81620022c0565b6040516001600160a01b038216907fbc7cd75a20ee27fd9adebab32041f755214dbc6bffa90cc0225b39da2e5c2d3b90600090a250565b600054610100900460ff166200253e5760405162461bcd60e51b815260206004820152602b60248201527f496e697469616c697a61626c653a20636f6e7472616374206973206e6f74206960448201526a6e697469616c697a696e6760a81b6064820152608401620006e5565b62002548620027f7565b6200140962002864565b600054610100900460ff16620025bf5760405162461bcd60e51b815260206004820152602b60248201527f496e697469616c697a61626c653a20636f6e7472616374206973206e6f74206960448201526a6e697469616c697a696e6760a81b6064820152608401620006e5565b620025c9620027f7565b620025d3620027f7565b62001409620027f7565b600054610100900460ff166200264a5760405162461bcd60e51b815260206004820152602b60248201527f496e697469616c697a61626c653a20636f6e7472616374206973206e6f74206960448201526a6e697469616c697a696e6760a81b6064820152608401620006e5565b62001409620028dc565b600054610100900460ff16620026c15760405162461bcd60e51b815260206004820152602b60248201527f496e697469616c697a61626c653a20636f6e7472616374206973206e6f74206960448201526a6e697469616c697a696e6760a81b6064820152608401620006e5565b620026cb620027f7565b6200140962002950565b600054610100900460ff16620025c95760405162461bcd60e51b815260206004820152602b60248201527f496e697469616c697a61626c653a20636f6e7472616374206973206e6f74206960448201526a6e697469616c697a696e6760a81b6064820152608401620006e5565b6200090d82826040516024016200275b92919062003284565b60408051601f198184030181529190526020810180517bffffffffffffffffffffffffffffffffffffffffffffffffffffffff167f9710a9d000000000000000000000000000000000000000000000000000000000179052620029c9565b60608315620027ca575081620022b9565b825115620027db5782518084602001fd5b8160405162461bcd60e51b8152600401620006e5919062002ec8565b600054610100900460ff16620014095760405162461bcd60e51b815260206004820152602b60248201527f496e697469616c697a61626c653a20636f6e7472616374206973206e6f74206960448201526a6e697469616c697a696e6760a81b6064820152608401620006e5565b600054610100900460ff16620028d15760405162461bcd60e51b815260206004820152602b60248201527f496e697469616c697a61626c653a20636f6e7472616374206973206e6f74206960448201526a6e697469616c697a696e6760a81b6064820152608401620006e5565b620014093362001dc3565b600054610100900460ff16620029495760405162461bcd60e51b815260206004820152602b60248201527f496e697469616c697a61626c653a20636f6e7472616374206973206e6f74206960448201526a6e697469616c697a696e6760a81b6064820152608401620006e5565b600160c955565b600054610100900460ff16620029bd5760405162461bcd60e51b815260206004820152602b60248201527f496e697469616c697a61626c653a20636f6e7472616374206973206e6f74206960448201526a6e697469616c697a696e6760a81b6064820152608401620006e5565b60fb805460ff19169055565b80516a636f6e736f6c652e6c6f67602083016000808483855afa5050505050565b61081080620032a983390190565b60006020828403121562002a0b57600080fd5b81357fffffffff0000000000000000000000000000000000000000000000000000000081168114620022b957600080fd5b60008083601f84011262002a4f57600080fd5b50813567ffffffffffffffff81111562002a6857600080fd5b60208301915083602082850101111562002a8157600080fd5b9250929050565b60008060006040848603121562002a9e57600080fd5b83359250602084013567ffffffffffffffff81111562002abd57600080fd5b62002acb8682870162002a3c565b9497909650939450505050565b6000806020838503121562002aec57600080fd5b823567ffffffffffffffff81111562002b0457600080fd5b62002b128582860162002a3c565b90969095509350505050565b6000806040838503121562002b3257600080fd5b50508035926020909101359150565b60006020828403121562002b5457600080fd5b5035919050565b6001600160a01b038116811462000d1957600080fd5b6000806040838503121562002b8557600080fd5b82359150602083013562002b998162002b5b565b809150509250929050565b60006020828403121562002bb757600080fd5b8135620022b98162002b5b565b60008060008060006080868803121562002bdd57600080fd5b8535945060208601359350604086013562002bf88162002b5b565b9250606086013567ffffffffffffffff81111562002c1557600080fd5b62002c238882890162002a3c565b969995985093965092949392505050565b634e487b7160e01b600052604160045260246000fd5b60405160e0810167ffffffffffffffff8111828210171562002c705762002c7062002c34565b60405290565b600067ffffffffffffffff8084111562002c945762002c9462002c34565b604051601f8501601f19908116603f0116810190828211818310171562002cbf5762002cbf62002c34565b8160405280935085815286868601111562002cd957600080fd5b858560208301376000602087830101525050509392505050565b6000806040838503121562002d0757600080fd5b823562002d148162002b5b565b9150602083013567ffffffffffffffff81111562002d3157600080fd5b8301601f8101851362002d4357600080fd5b62002d548582356020840162002c76565b9150509250929050565b60008060006060848603121562002d7457600080fd5b833562002d818162002b5b565b9250602084013562002d938162002b5b565b9150604084013562002da58162002b5b565b809150509250925092565b6000806000806060858703121562002dc757600080fd5b84359350602085013562002ddb8162002b5b565b9250604085013567ffffffffffffffff81111562002df857600080fd5b62002e068782880162002a3c565b95989497509550505050565b6001600160a01b038416815260406020820152816040820152818360608301376000818301606090810191909152601f909201601f1916010192915050565b60006020828403121562002e6457600080fd5b5051919050565b60005b8381101562002e8857818101518382015260200162002e6e565b83811115620015675750506000910152565b6000815180845262002eb481602086016020860162002e6b565b601f01601f19169290920160200192915050565b602081526000620022b9602083018462002e9a565b634e487b7160e01b600052600160045260246000fd5b801515811462000d1957600080fd5b60008082840361010081121562002f1857600080fd5b833567ffffffffffffffff81111562002f3057600080fd5b8401601f8101861362002f4257600080fd5b62002f538682356020840162002c76565b93505060e0601f198201121562002f6957600080fd5b5062002f7462002c4a565b602084013562002f848162002b5b565b8082525060408401356020820152606084013560408201526080840135606082015260a0840135608082015260c084013560a082015260e084013562002fca8162002ef3565b60c0820152919491935090915050565b60006101806001600160a01b03808a16845288602085015280881660408501528087166060850152816080850152620030168285018762002e9a565b92508085511660a08501525050602083015160c0830152604083015160e08301526060830151610100830152608083015161012083015260a083015161014083015260c08301511515610160830152979650505050505050565b600080604083850312156200308457600080fd5b8235620030918162002b5b565b946020939093013593505050565b600060208284031215620030b257600080fd5b8151620022b98162002ef3565b7f416363657373436f6e74726f6c3a206163636f756e7420000000000000000000815260008351620030f981601785016020880162002e6b565b7f206973206d697373696e6720726f6c652000000000000000000000000000000060179184019182015283516200313881602884016020880162002e6b565b01602801949350505050565b828152600082516200315e81602085016020870162002e6b565b919091016020019392505050565b6001600160a01b038316815260406020820152600062003190604083018462002e9a565b949350505050565b60008060008060008060c08789031215620031b257600080fd5b865195506020870151945060408701519350606087015192506080870151915060a087015190509295509295509295565b634e487b7160e01b600052601160045260246000fd5b6000816000190483118215151615620032165762003216620031e3565b500290565b60008219821115620032315762003231620031e3565b500190565b634e487b7160e01b600052603260045260246000fd5b6000816200325e576200325e620031e3565b506000190190565b600082516200327a81846020870162002e6b565b9190910192915050565b60408152600062003299604083018562002e9a565b9050826020830152939250505056fe608060405260405161081038038061081083398101604081905261002291610337565b61004d60017f360894a13ba1a3210667c828492db98dca3e2076cc3735a920a3ca505d382bbd610405565b6000805160206107c9833981519152146100695761006961042a565b6100758282600061007c565b505061048f565b610085836100b2565b6000825111806100925750805b156100ad576100ab83836100f260201b6100291760201c565b505b505050565b6100bb8161011e565b6040516001600160a01b038216907fbc7cd75a20ee27fd9adebab32041f755214dbc6bffa90cc0225b39da2e5c2d3b90600090a250565b606061011783836040518060600160405280602781526020016107e9602791396101de565b9392505050565b610131816102b360201b6100551760201c565b6101985760405162461bcd60e51b815260206004820152602d60248201527f455243313936373a206e657720696d706c656d656e746174696f6e206973206e60448201526c1bdd08184818dbdb9d1c9858dd609a1b60648201526084015b60405180910390fd5b806101bd6000805160206107c983398151915260001b6102b960201b61005b1760201c565b80546001600160a01b0319166001600160a01b039290921691909117905550565b6060833b61023d5760405162461bcd60e51b815260206004820152602660248201527f416464726573733a2064656c65676174652063616c6c20746f206e6f6e2d636f6044820152651b9d1c9858dd60d21b606482015260840161018f565b600080856001600160a01b0316856040516102589190610440565b600060405180830381855af49150503d8060008114610293576040519150601f19603f3d011682016040523d82523d6000602084013e610298565b606091505b5090925090506102a98282866102bc565b9695505050505050565b3b151590565b90565b606083156102cb575081610117565b8251156102db5782518084602001fd5b8160405162461bcd60e51b815260040161018f919061045c565b634e487b7160e01b600052604160045260246000fd5b60005b8381101561032657818101518382015260200161030e565b838111156100ab5750506000910152565b6000806040838503121561034a57600080fd5b82516001600160a01b038116811461036157600080fd5b60208401519092506001600160401b038082111561037e57600080fd5b818501915085601f83011261039257600080fd5b8151818111156103a4576103a46102f5565b604051601f8201601f19908116603f011681019083821181831017156103cc576103cc6102f5565b816040528281528860208487010111156103e557600080fd5b6103f683602083016020880161030b565b80955050505050509250929050565b60008282101561042557634e487b7160e01b600052601160045260246000fd5b500390565b634e487b7160e01b600052600160045260246000fd5b6000825161045281846020870161030b565b9190910192915050565b602081526000825180602084015261047b81604085016020870161030b565b601f01601f19169190910160400192915050565b61032b8061049e6000396000f3fe60806040523661001357610011610017565b005b6100115b61002761002261005e565b6100a3565b565b606061004e83836040518060600160405280602781526020016102cf602791396100c7565b9392505050565b3b151590565b90565b600061009e7f360894a13ba1a3210667c828492db98dca3e2076cc3735a920a3ca505d382bbc5473ffffffffffffffffffffffffffffffffffffffff1690565b905090565b3660008037600080366000845af43d6000803e8080156100c2573d6000f35b3d6000fd5b6060833b61015c576040517f08c379a000000000000000000000000000000000000000000000000000000000815260206004820152602660248201527f416464726573733a2064656c65676174652063616c6c20746f206e6f6e2d636f60448201527f6e7472616374000000000000000000000000000000000000000000000000000060648201526084015b60405180910390fd5b6000808573ffffffffffffffffffffffffffffffffffffffff16856040516101849190610261565b600060405180830381855af49150503d80600081146101bf576040519150601f19603f3d011682016040523d82523d6000602084013e6101c4565b606091505b50915091506101d48282866101de565b9695505050505050565b606083156101ed57508161004e565b8251156101fd5782518084602001fd5b816040517f08c379a0000000000000000000000000000000000000000000000000000000008152600401610153919061027d565b60005b8381101561024c578181015183820152602001610234565b8381111561025b576000848401525b50505050565b60008251610273818460208701610231565b9190910192915050565b602081526000825180602084015261029c816040850160208701610231565b601f017fffffffffffffffffffffffffffffffffffffffffffffffffffffffffffffffe016919091016040019291505056fe416464726573733a206c6f772d6c6576656c2064656c65676174652063616c6c206661696c6564a2646970667358221220622d8852ce84c52c9c688b923393379a20b2b81b950c780b39a7458efb7431b964736f6c634300080b0033360894a13ba1a3210667c828492db98dca3e2076cc3735a920a3ca505d382bbc416464726573733a206c6f772d6c6576656c2064656c65676174652063616c6c206661696c6564416464726573733a206c6f772d6c6576656c2064656c65676174652063616c6c206661696c6564a26469706673582212200a280e1721685f31d1d819f2ffd15a86a8411da3ab912b03e89b93d8ef52448064736f6c634300080b0033",
  "linkReferences": {},
  "deployedLinkReferences": {}
}