{
  "_format": "hh-sol-artifact-1",
  "contractName": "Staking",
  "sourceName": "contracts/polygon/child/Staking.sol",
  "abi": [
    {
      "anonymous": false,
      "inputs": [
        {
          "indexed": false,
          "internalType": "address",
          "name": "previousAdmin",
          "type": "address"
        },
        {
          "indexed": false,
          "internalType": "address",
          "name": "newAdmin",
          "type": "address"
        }
      ],
      "name": "AdminChanged",
      "type": "event"
    },
    {
      "anonymous": false,
      "inputs": [
        {
          "indexed": true,
          "internalType": "address",
          "name": "beacon",
          "type": "address"
        }
      ],
      "name": "BeaconUpgraded",
      "type": "event"
    },
    {
      "anonymous": false,
      "inputs": [
        {
          "indexed": true,
          "internalType": "address",
          "name": "previousOwner",
          "type": "address"
        },
        {
          "indexed": true,
          "internalType": "address",
          "name": "newOwner",
          "type": "address"
        }
      ],
      "name": "OwnershipTransferred",
      "type": "event"
    },
    {
      "anonymous": false,
      "inputs": [
        {
          "indexed": false,
          "internalType": "address",
          "name": "account",
          "type": "address"
        }
      ],
      "name": "Paused",
      "type": "event"
    },
    {
      "anonymous": false,
      "inputs": [
        {
          "indexed": true,
          "internalType": "bytes32",
          "name": "role",
          "type": "bytes32"
        },
        {
          "indexed": true,
          "internalType": "bytes32",
          "name": "previousAdminRole",
          "type": "bytes32"
        },
        {
          "indexed": true,
          "internalType": "bytes32",
          "name": "newAdminRole",
          "type": "bytes32"
        }
      ],
      "name": "RoleAdminChanged",
      "type": "event"
    },
    {
      "anonymous": false,
      "inputs": [
        {
          "indexed": true,
          "internalType": "bytes32",
          "name": "role",
          "type": "bytes32"
        },
        {
          "indexed": true,
          "internalType": "address",
          "name": "account",
          "type": "address"
        },
        {
          "indexed": true,
          "internalType": "address",
          "name": "sender",
          "type": "address"
        }
      ],
      "name": "RoleGranted",
      "type": "event"
    },
    {
      "anonymous": false,
      "inputs": [
        {
          "indexed": true,
          "internalType": "bytes32",
          "name": "role",
          "type": "bytes32"
        },
        {
          "indexed": true,
          "internalType": "address",
          "name": "account",
          "type": "address"
        },
        {
          "indexed": true,
          "internalType": "address",
          "name": "sender",
          "type": "address"
        }
      ],
      "name": "RoleRevoked",
      "type": "event"
    },
    {
      "anonymous": false,
      "inputs": [
        {
          "indexed": true,
          "internalType": "address",
          "name": "_user",
          "type": "address"
        },
        {
          "indexed": true,
          "internalType": "address",
          "name": "_token",
          "type": "address"
        },
        {
          "indexed": true,
          "internalType": "uint256",
          "name": "_amount",
          "type": "uint256"
        }
      ],
      "name": "StakedERC20",
      "type": "event"
    },
    {
      "anonymous": false,
      "inputs": [
        {
          "indexed": true,
          "internalType": "address",
          "name": "_user",
          "type": "address"
        },
        {
          "indexed": true,
          "internalType": "address",
          "name": "_token",
          "type": "address"
        },
        {
          "indexed": true,
          "internalType": "uint256",
          "name": "_tokenId",
          "type": "uint256"
        }
      ],
      "name": "StakedERC721",
      "type": "event"
    },
    {
      "anonymous": false,
      "inputs": [
        {
          "indexed": true,
          "internalType": "address",
          "name": "_delegate",
          "type": "address"
        },
        {
          "indexed": true,
          "internalType": "address",
          "name": "_token",
          "type": "address"
        },
        {
          "indexed": false,
          "internalType": "uint256",
          "name": "_oldValue",
          "type": "uint256"
        },
        {
          "indexed": false,
          "internalType": "uint256",
          "name": "_newValue",
          "type": "uint256"
        }
      ],
      "name": "StakingPowerChanged",
      "type": "event"
    },
    {
      "anonymous": false,
      "inputs": [
        {
          "indexed": false,
          "internalType": "address",
          "name": "account",
          "type": "address"
        }
      ],
      "name": "Unpaused",
      "type": "event"
    },
    {
      "anonymous": false,
      "inputs": [
        {
          "indexed": true,
          "internalType": "address",
          "name": "_user",
          "type": "address"
        },
        {
          "indexed": true,
          "internalType": "address",
          "name": "_token",
          "type": "address"
        },
        {
          "indexed": true,
          "internalType": "uint256",
          "name": "_amount",
          "type": "uint256"
        }
      ],
      "name": "UnstakedERC20",
      "type": "event"
    },
    {
      "anonymous": false,
      "inputs": [
        {
          "indexed": true,
          "internalType": "address",
          "name": "_user",
          "type": "address"
        },
        {
          "indexed": true,
          "internalType": "address",
          "name": "_token",
          "type": "address"
        },
        {
          "indexed": true,
          "internalType": "uint256",
          "name": "_tokenId",
          "type": "uint256"
        }
      ],
      "name": "UnstakedERC721",
      "type": "event"
    },
    {
      "anonymous": false,
      "inputs": [
        {
          "indexed": true,
          "internalType": "address",
          "name": "implementation",
          "type": "address"
        }
      ],
      "name": "Upgraded",
      "type": "event"
    },
    {
      "inputs": [],
      "name": "DEFAULT_ADMIN_ROLE",
      "outputs": [
        {
          "internalType": "bytes32",
          "name": "",
          "type": "bytes32"
        }
      ],
      "stateMutability": "view",
      "type": "function"
    },
    {
      "inputs": [],
      "name": "__Staking_init",
      "outputs": [],
      "stateMutability": "nonpayable",
      "type": "function"
    },
    {
      "inputs": [
        {
          "internalType": "bytes32",
          "name": "role",
          "type": "bytes32"
        }
      ],
      "name": "getRoleAdmin",
      "outputs": [
        {
          "internalType": "bytes32",
          "name": "",
          "type": "bytes32"
        }
      ],
      "stateMutability": "view",
      "type": "function"
    },
    {
      "inputs": [
        {
          "internalType": "bytes32",
          "name": "role",
          "type": "bytes32"
        },
        {
          "internalType": "address",
          "name": "account",
          "type": "address"
        }
      ],
      "name": "grantRole",
      "outputs": [],
      "stateMutability": "nonpayable",
      "type": "function"
    },
    {
      "inputs": [
        {
          "internalType": "bytes32",
          "name": "role",
          "type": "bytes32"
        },
        {
          "internalType": "address",
          "name": "account",
          "type": "address"
        }
      ],
      "name": "hasRole",
      "outputs": [
        {
          "internalType": "bool",
          "name": "",
          "type": "bool"
        }
      ],
      "stateMutability": "view",
      "type": "function"
    },
    {
      "inputs": [
        {
          "internalType": "address",
          "name": "",
          "type": "address"
        },
        {
          "internalType": "address",
          "name": "",
          "type": "address"
        },
        {
          "internalType": "uint256",
          "name": "",
          "type": "uint256"
        },
        {
          "internalType": "bytes",
          "name": "",
          "type": "bytes"
        }
      ],
      "name": "onERC721Received",
      "outputs": [
        {
          "internalType": "bytes4",
          "name": "",
          "type": "bytes4"
        }
      ],
      "stateMutability": "nonpayable",
      "type": "function"
    },
    {
      "inputs": [],
      "name": "owner",
      "outputs": [
        {
          "internalType": "address",
          "name": "",
          "type": "address"
        }
      ],
      "stateMutability": "view",
      "type": "function"
    },
    {
      "inputs": [
        {
          "internalType": "address",
          "name": "_user",
          "type": "address"
        },
        {
          "internalType": "address",
          "name": "_token",
          "type": "address"
        },
        {
          "internalType": "uint256",
          "name": "_blockNumber",
          "type": "uint256"
        }
      ],
      "name": "pastStakingPower",
      "outputs": [
        {
          "internalType": "uint256",
          "name": "",
          "type": "uint256"
        }
      ],
      "stateMutability": "view",
      "type": "function"
    },
    {
      "inputs": [],
      "name": "paused",
      "outputs": [
        {
          "internalType": "bool",
          "name": "",
          "type": "bool"
        }
      ],
      "stateMutability": "view",
      "type": "function"
    },
    {
      "inputs": [],
      "name": "renounceOwnership",
      "outputs": [],
      "stateMutability": "nonpayable",
      "type": "function"
    },
    {
      "inputs": [
        {
          "internalType": "bytes32",
          "name": "role",
          "type": "bytes32"
        },
        {
          "internalType": "address",
          "name": "account",
          "type": "address"
        }
      ],
      "name": "renounceRole",
      "outputs": [],
      "stateMutability": "nonpayable",
      "type": "function"
    },
    {
      "inputs": [
        {
          "internalType": "bytes32",
          "name": "role",
          "type": "bytes32"
        },
        {
          "internalType": "address",
          "name": "account",
          "type": "address"
        }
      ],
      "name": "revokeRole",
      "outputs": [],
      "stateMutability": "nonpayable",
      "type": "function"
    },
    {
      "inputs": [
        {
          "internalType": "address",
          "name": "_token",
          "type": "address"
        },
        {
          "internalType": "uint256",
          "name": "_amount",
          "type": "uint256"
        }
      ],
      "name": "stakeERC20",
      "outputs": [],
      "stateMutability": "nonpayable",
      "type": "function"
    },
    {
      "inputs": [
        {
          "internalType": "address",
          "name": "_token",
          "type": "address"
        },
        {
          "internalType": "uint256",
          "name": "_tokenId",
          "type": "uint256"
        }
      ],
      "name": "stakeERC721",
      "outputs": [],
      "stateMutability": "nonpayable",
      "type": "function"
    },
    {
      "inputs": [
        {
          "internalType": "address",
          "name": "_user",
          "type": "address"
        },
        {
          "internalType": "address",
          "name": "_token",
          "type": "address"
        }
      ],
      "name": "stakingPower",
      "outputs": [
        {
          "internalType": "uint256",
          "name": "",
          "type": "uint256"
        }
      ],
      "stateMutability": "view",
      "type": "function"
    },
    {
      "inputs": [
        {
          "internalType": "bytes4",
          "name": "interfaceId",
          "type": "bytes4"
        }
      ],
      "name": "supportsInterface",
      "outputs": [
        {
          "internalType": "bool",
          "name": "",
          "type": "bool"
        }
      ],
      "stateMutability": "view",
      "type": "function"
    },
    {
      "inputs": [
        {
          "internalType": "address",
          "name": "newOwner",
          "type": "address"
        }
      ],
      "name": "transferOwnership",
      "outputs": [],
      "stateMutability": "nonpayable",
      "type": "function"
    },
    {
      "inputs": [
        {
          "internalType": "address",
          "name": "_token",
          "type": "address"
        },
        {
          "internalType": "uint256",
          "name": "_amount",
          "type": "uint256"
        }
      ],
      "name": "unstakeERC20",
      "outputs": [],
      "stateMutability": "nonpayable",
      "type": "function"
    },
    {
      "inputs": [
        {
          "internalType": "address",
          "name": "_token",
          "type": "address"
        },
        {
          "internalType": "uint256",
          "name": "_tokenId",
          "type": "uint256"
        }
      ],
      "name": "unstakeERC721",
      "outputs": [],
      "stateMutability": "nonpayable",
      "type": "function"
    },
    {
      "inputs": [
        {
          "internalType": "address",
          "name": "newImplementation",
          "type": "address"
        }
      ],
      "name": "upgradeTo",
      "outputs": [],
      "stateMutability": "nonpayable",
      "type": "function"
    },
    {
      "inputs": [
        {
          "internalType": "address",
          "name": "newImplementation",
          "type": "address"
        },
        {
          "internalType": "bytes",
          "name": "data",
          "type": "bytes"
        }
      ],
      "name": "upgradeToAndCall",
      "outputs": [],
      "stateMutability": "payable",
      "type": "function"
    },
    {
      "inputs": [],
      "name": "version",
      "outputs": [
        {
          "internalType": "uint256",
          "name": "",
          "type": "uint256"
        }
      ],
      "stateMutability": "view",
      "type": "function"
    }
  ],
  "bytecode": "0x60a06040523060805234801561001457600080fd5b50608051613041610045600039600081816107de01528181610874015281816109d90152610a6f01526130416000f3fe6080604052600436106101755760003560e01c806354fd4d50116100cb578063a217fddf1161007f578063d547741f11610059578063d547741f1461043b578063e46f4ead1461045b578063f2fde38b1461047b57600080fd5b8063a217fddf146103e6578063bcf4d416146103fb578063c581af911461041b57600080fd5b8063715018a6116100b0578063715018a6146103635780638da5cb5b1461037857806391d14854146103a057600080fd5b806354fd4d50146103345780635c975abb1461034b57600080fd5b8063248a9ca31161012d5780633659cfe6116101075780633659cfe6146102e15780634c23648d146103015780634f1ef2861461032157600080fd5b8063248a9ca3146102715780632f2ff15d146102a157806336568abe146102c157600080fd5b8063150b7a021161015e578063150b7a02146101d157806320f77f081461022e57806322dc55951461025c57600080fd5b806301ffc9a71461017a578063075b52c6146101af575b600080fd5b34801561018657600080fd5b5061019a610195366004612a43565b61049b565b60405190151581526020015b60405180910390f35b3480156101bb57600080fd5b506101cf6101ca366004612a89565b6104eb565b005b3480156101dd57600080fd5b506102156101ec366004612b56565b7f150b7a0200000000000000000000000000000000000000000000000000000000949350505050565b6040516001600160e01b031990911681526020016101a6565b34801561023a57600080fd5b5061024e610249366004612bbe565b6104fa565b6040519081526020016101a6565b34801561026857600080fd5b506101cf610609565b34801561027d57600080fd5b5061024e61028c366004612bf1565b60009081526097602052604090206001015490565b3480156102ad57600080fd5b506101cf6102bc366004612c0a565b610720565b3480156102cd57600080fd5b506101cf6102dc366004612c0a565b61074b565b3480156102ed57600080fd5b506101cf6102fc366004612c2d565b6107d3565b34801561030d57600080fd5b506101cf61031c366004612a89565b61096e565b6101cf61032f366004612c48565b6109ce565b34801561034057600080fd5b5061024e6101915481565b34801561035757600080fd5b5060fb5460ff1661019a565b34801561036f57600080fd5b506101cf610b59565b34801561038457600080fd5b506033546040516001600160a01b0390911681526020016101a6565b3480156103ac57600080fd5b5061019a6103bb366004612c0a565b60009182526097602090815260408084206001600160a01b0393909316845291905290205460ff1690565b3480156103f257600080fd5b5061024e600081565b34801561040757600080fd5b5061024e610416366004612c96565b610bbf565b34801561042757600080fd5b506101cf610436366004612a89565b610caa565b34801561044757600080fd5b506101cf610456366004612c0a565b610cb5565b34801561046757600080fd5b506101cf610476366004612a89565b610cdb565b34801561048757600080fd5b506101cf610496366004612c2d565b610d3c565b60006001600160e01b031982167f7965db0b0000000000000000000000000000000000000000000000000000000014806104e557506301ffc9a760e01b6001600160e01b03198316145b92915050565b6104f6338383610e1b565b5050565b600061050582610f6c565b15610554576001600160a01b0380841660009081526101c460209081526040808320938616835292905290812061053b90610fa1565b1161054757600061054a565b60015b60ff1690506104e5565b6000826001600160a01b031663313ce5676040518163ffffffff1660e01b8152600401602060405180830381865afa158015610594573d6000803e3d6000fd5b505050506040513d601f19601f820116820180604052508101906105b89190612cd2565b60ff1690506105c881600a612def565b6001600160a01b0380861660009081526101c4602090815260408083209388168352929052206105f790610fa1565b6106019190612dfb565b949350505050565b600054610100900460ff166106245760005460ff1615610628565b303b155b61069f5760405162461bcd60e51b815260206004820152602e60248201527f496e697469616c697a61626c653a20636f6e747261637420697320616c72656160448201527f647920696e697469616c697a656400000000000000000000000000000000000060648201526084015b60405180910390fd5b600054610100900460ff161580156106de57600080547fffffffffffffffffffffffffffffffffffffffffffffffffffffffffffff0000166101011790555b6106e6610ffd565b6106ee6110d4565b801561071d57600080547fffffffffffffffffffffffffffffffffffffffffffffffffffffffffffff00ff1690555b50565b60008281526097602052604090206001015461073c8133611147565b61074683836111c7565b505050565b6001600160a01b03811633146107c95760405162461bcd60e51b815260206004820152602f60248201527f416363657373436f6e74726f6c3a2063616e206f6e6c792072656e6f756e636560448201527f20726f6c657320666f722073656c6600000000000000000000000000000000006064820152608401610696565b6104f68282611269565b306001600160a01b037f00000000000000000000000000000000000000000000000000000000000000001614156108725760405162461bcd60e51b815260206004820152602c60248201527f46756e6374696f6e206d7573742062652063616c6c6564207468726f7567682060448201527f64656c656761746563616c6c00000000000000000000000000000000000000006064820152608401610696565b7f00000000000000000000000000000000000000000000000000000000000000006001600160a01b03166108cd7f360894a13ba1a3210667c828492db98dca3e2076cc3735a920a3ca505d382bbc546001600160a01b031690565b6001600160a01b0316146109495760405162461bcd60e51b815260206004820152602c60248201527f46756e6374696f6e206d7573742062652063616c6c6564207468726f7567682060448201527f6163746976652070726f787900000000000000000000000000000000000000006064820152608401610696565b610952816112ec565b6040805160008082526020820190925261071d91839190611346565b61097782610f6c565b6109c35760405162461bcd60e51b815260206004820152601b60248201527f53686f756c642045524337323120746f6b656e206164647265737300000000006044820152606401610696565b6104f63383836114f5565b306001600160a01b037f0000000000000000000000000000000000000000000000000000000000000000161415610a6d5760405162461bcd60e51b815260206004820152602c60248201527f46756e6374696f6e206d7573742062652063616c6c6564207468726f7567682060448201527f64656c656761746563616c6c00000000000000000000000000000000000000006064820152608401610696565b7f00000000000000000000000000000000000000000000000000000000000000006001600160a01b0316610ac87f360894a13ba1a3210667c828492db98dca3e2076cc3735a920a3ca505d382bbc546001600160a01b031690565b6001600160a01b031614610b445760405162461bcd60e51b815260206004820152602c60248201527f46756e6374696f6e206d7573742062652063616c6c6564207468726f7567682060448201527f6163746976652070726f787900000000000000000000000000000000000000006064820152608401610696565b610b4d826112ec565b6104f682826001611346565b6033546001600160a01b03163314610bb35760405162461bcd60e51b815260206004820181905260248201527f4f776e61626c653a2063616c6c6572206973206e6f7420746865206f776e65726044820152606401610696565b610bbd6000611644565b565b6001600160a01b0380841660009081526101c46020908152604080832093861683529290529081208190610bf390846116ae565b9050610bfe84610f6c565b15610c205760008111610c12576000610c15565b60015b60ff16915050610ca3565b6000846001600160a01b031663313ce5676040518163ffffffff1660e01b8152600401602060405180830381865afa158015610c60573d6000803e3d6000fd5b505050506040513d601f19601f82011682018060405250810190610c849190612cd2565b60ff169050610c9481600a612def565b610c9e9083612dfb565b925050505b9392505050565b6104f63383836117bd565b600082815260976020526040902060010154610cd18133611147565b6107468383611269565b610ce482610f6c565b15610d315760405162461bcd60e51b815260206004820152601a60248201527f53686f756c6420455243323020746f6b656e20616464726573730000000000006044820152606401610696565b6104f63383836118a2565b6033546001600160a01b03163314610d965760405162461bcd60e51b815260206004820181905260248201527f4f776e61626c653a2063616c6c6572206973206e6f7420746865206f776e65726044820152606401610696565b6001600160a01b038116610e125760405162461bcd60e51b815260206004820152602660248201527f4f776e61626c653a206e6577206f776e657220697320746865207a65726f206160448201527f64647265737300000000000000000000000000000000000000000000000000006064820152608401610696565b61071d81611644565b6001600160a01b0380841660009081526101c4602090815260408083209386168352929052208190610e4c90610fa1565b14610e995760405162461bcd60e51b815260206004820152601760248201527f53686f756c64206265207374616b6564204552433732310000000000000000006044820152606401610696565b610ea530848484611909565b6040517f42842e0e0000000000000000000000000000000000000000000000000000000081523060048201526001600160a01b038481166024830152604482018390528316906342842e0e90606401600060405180830381600087803b158015610f0e57600080fd5b505af1158015610f22573d6000803e3d6000fd5b5050505080826001600160a01b0316846001600160a01b03167ff42fc84f71459722b71bcf13bcaab8061790b57e1e180944ae338cd2d1f642fd60405160405180910390a4505050565b60006104e56001600160a01b0383167f80ac58cd00000000000000000000000000000000000000000000000000000000611a7e565b80546000908015610fea5782610fb8600183612e1d565b81548110610fc857610fc8612e34565b60009182526020909120015464010000000090046001600160e01b0316610fed565b60005b6001600160e01b03169392505050565b600054610100900460ff166110685760405162461bcd60e51b815260206004820152602b60248201527f496e697469616c697a61626c653a20636f6e7472616374206973206e6f74206960448201526a6e697469616c697a696e6760a81b6064820152608401610696565b611070611a9a565b611078611b15565b611080611b90565b611088611c03565b611090611c7e565b6001610191819055604080518082019091528181527f76000000000000000000000000000000000000000000000000000000000000006020820152610bbd91611ce9565b600054610100900460ff1661113f5760405162461bcd60e51b815260206004820152602b60248201527f496e697469616c697a61626c653a20636f6e7472616374206973206e6f74206960448201526a6e697469616c697a696e6760a81b6064820152608401610696565b610bbd611d47565b60008281526097602090815260408083206001600160a01b038516845290915290205460ff166104f657611185816001600160a01b03166014611db2565b611190836020611db2565b6040516020016111a1929190612e76565b60408051601f198184030181529082905262461bcd60e51b825261069691600401612f23565b60008281526097602090815260408083206001600160a01b038516845290915290205460ff166104f65760008281526097602090815260408083206001600160a01b03851684529091529020805460ff191660011790556112253390565b6001600160a01b0316816001600160a01b0316837f2f8788117e7eff1d82e926ec794901d17c78024a50270940304540a733656f0d60405160405180910390a45050565b60008281526097602090815260408083206001600160a01b038516845290915290205460ff16156104f65760008281526097602090815260408083206001600160a01b0385168085529252808320805460ff1916905551339285917ff6391f5c32d9c69d2a47ea670b442974b53935d1edc7fd64eb21e047a839171b9190a45050565b6033546001600160a01b0316331461071d5760405162461bcd60e51b815260206004820181905260248201527f4f776e61626c653a2063616c6c6572206973206e6f7420746865206f776e65726044820152606401610696565b60006113797f360894a13ba1a3210667c828492db98dca3e2076cc3735a920a3ca505d382bbc546001600160a01b031690565b905061138484611fdb565b6000835111806113915750815b156113a2576113a084846120a8565b505b7f4910fdfa16fed3260ed0e7147f7cc6da11a60208b5b9406d12a635614ffd9143805460ff166114ee57805460ff191660011781556040516001600160a01b038316602482015261143a90869060440160408051601f198184030181529190526020810180516001600160e01b03167f3659cfe6000000000000000000000000000000000000000000000000000000001790526120a8565b50805460ff191681557f360894a13ba1a3210667c828492db98dca3e2076cc3735a920a3ca505d382bbc546001600160a01b038381169116146114e55760405162461bcd60e51b815260206004820152602f60248201527f45524331393637557067726164653a207570677261646520627265616b73206660448201527f75727468657220757067726164657300000000000000000000000000000000006064820152608401610696565b6114ee856121aa565b5050505050565b6001600160a01b0380841660009081526101c46020908152604080832093861683529290522061152490610fa1565b156115715760405162461bcd60e51b815260206004820152601560248201527f416c7265616479207374616b65642045524337323100000000000000000000006044820152606401610696565b6040517f42842e0e0000000000000000000000000000000000000000000000000000000081526001600160a01b038481166004830152306024830152604482018390528316906342842e0e90606401600060405180830381600087803b1580156115da57600080fd5b505af11580156115ee573d6000803e3d6000fd5b505050506115fe83308484611909565b80826001600160a01b0316846001600160a01b03167f37cf53153b223ad8ab091cc144080e0cc9f5a3f9e0444019abb4bb797c87205660405160405180910390a4505050565b603380546001600160a01b038381167fffffffffffffffffffffffff0000000000000000000000000000000000000000831681179093556040519116919082907f8be0079c531659141344cd1fd0a4f28419497f9722a3daafe3b4186f6b6457e090600090a35050565b60004382106116ff5760405162461bcd60e51b815260206004820181905260248201527f436865636b706f696e74733a20626c6f636b206e6f7420796574206d696e65646044820152606401610696565b825460005b8181101561176457600061171882846121ea565b90508486600001828154811061173057611730612e34565b60009182526020909120015463ffffffff1611156117505780925061175e565b61175b816001612f36565b91505b50611704565b81156117a85784611776600184612e1d565b8154811061178657611786612e34565b60009182526020909120015464010000000090046001600160e01b03166117ab565b60005b6001600160e01b031695945050505050565b6001600160a01b0380841660009081526101c46020908152604080832093861683529290522081906117ee90610fa1565b101561183c5760405162461bcd60e51b815260206004820152601f60248201527f53686f756c64206e6f7420657863656564207374616b656420616d6f756e74006044820152606401610696565b61184830848484611909565b61185c6001600160a01b0383168483612205565b80826001600160a01b0316846001600160a01b03167ff8f44f6e5b90b8ac8214f8b9492e33fd1393dbf840fc2424d247ea8b18bf45c460405160405180910390a4505050565b6118b76001600160a01b038316843084612281565b6118c383308484611909565b80826001600160a01b0316846001600160a01b03167f04d8f60fa44691072ee4e6e9128f56dfe9f2bf33a8f9df9d41fb15002a69e85160405160405180910390a4505050565b826001600160a01b0316846001600160a01b03161415801561192b5750600081115b15611a78576001600160a01b03841630146119d4576001600160a01b0380851660009081526101c46020908152604080832093861683529290529081208190611977906122d2856122de565b91509150836001600160a01b0316866001600160a01b03167fa8022c9baae39d47d226e7275bdf43ba27a8c2c0c142af8bb0ebe017e1a2d60084846040516119c9929190918252602082015260400190565b60405180910390a350505b6001600160a01b0383163014611a78576001600160a01b0380841660009081526101c46020908152604080832093861683529290529081208190611a1b9061230c856122de565b91509150836001600160a01b0316856001600160a01b03167fa8022c9baae39d47d226e7275bdf43ba27a8c2c0c142af8bb0ebe017e1a2d6008484604051611a6d929190918252602082015260400190565b60405180910390a350505b50505050565b6000611a8983612318565b8015610ca35750610ca3838361234b565b600054610100900460ff16611b055760405162461bcd60e51b815260206004820152602b60248201527f496e697469616c697a61626c653a20636f6e7472616374206973206e6f74206960448201526a6e697469616c697a696e6760a81b6064820152608401610696565b611b0d611d47565b610bbd612434565b600054610100900460ff16611b805760405162461bcd60e51b815260206004820152602b60248201527f496e697469616c697a61626c653a20636f6e7472616374206973206e6f74206960448201526a6e697469616c697a696e6760a81b6064820152608401610696565b611b88611d47565b61113f611d47565b600054610100900460ff16611bfb5760405162461bcd60e51b815260206004820152602b60248201527f496e697469616c697a61626c653a20636f6e7472616374206973206e6f74206960448201526a6e697469616c697a696e6760a81b6064820152608401610696565b610bbd6124a8565b600054610100900460ff16611c6e5760405162461bcd60e51b815260206004820152602b60248201527f496e697469616c697a61626c653a20636f6e7472616374206973206e6f74206960448201526a6e697469616c697a696e6760a81b6064820152608401610696565b611c76611d47565b610bbd61251a565b600054610100900460ff16611b885760405162461bcd60e51b815260206004820152602b60248201527f496e697469616c697a61626c653a20636f6e7472616374206973206e6f74206960448201526a6e697469616c697a696e6760a81b6064820152608401610696565b6104f68282604051602401611cff929190612f4e565b60408051601f198184030181529190526020810180516001600160e01b03167f9710a9d000000000000000000000000000000000000000000000000000000000179052612591565b600054610100900460ff16610bbd5760405162461bcd60e51b815260206004820152602b60248201527f496e697469616c697a61626c653a20636f6e7472616374206973206e6f74206960448201526a6e697469616c697a696e6760a81b6064820152608401610696565b60606000611dc1836002612f70565b611dcc906002612f36565b67ffffffffffffffff811115611de457611de4612ab3565b6040519080825280601f01601f191660200182016040528015611e0e576020820181803683370190505b5090507f300000000000000000000000000000000000000000000000000000000000000081600081518110611e4557611e45612e34565b60200101907effffffffffffffffffffffffffffffffffffffffffffffffffffffffffffff1916908160001a9053507f780000000000000000000000000000000000000000000000000000000000000081600181518110611ea857611ea8612e34565b60200101907effffffffffffffffffffffffffffffffffffffffffffffffffffffffffffff1916908160001a9053506000611ee4846002612f70565b611eef906001612f36565b90505b6001811115611f8c577f303132333435363738396162636465660000000000000000000000000000000085600f1660108110611f3057611f30612e34565b1a60f81b828281518110611f4657611f46612e34565b60200101907effffffffffffffffffffffffffffffffffffffffffffffffffffffffffffff1916908160001a90535060049490941c93611f8581612f8f565b9050611ef2565b508315610ca35760405162461bcd60e51b815260206004820181905260248201527f537472696e67733a20686578206c656e67746820696e73756666696369656e746044820152606401610696565b803b61204f5760405162461bcd60e51b815260206004820152602d60248201527f455243313936373a206e657720696d706c656d656e746174696f6e206973206e60448201527f6f74206120636f6e7472616374000000000000000000000000000000000000006064820152608401610696565b7f360894a13ba1a3210667c828492db98dca3e2076cc3735a920a3ca505d382bbc80547fffffffffffffffffffffffff0000000000000000000000000000000000000000166001600160a01b0392909216919091179055565b6060823b61211e5760405162461bcd60e51b815260206004820152602660248201527f416464726573733a2064656c65676174652063616c6c20746f206e6f6e2d636f60448201527f6e747261637400000000000000000000000000000000000000000000000000006064820152608401610696565b600080846001600160a01b0316846040516121399190612fa6565b600060405180830381855af49150503d8060008114612174576040519150601f19603f3d011682016040523d82523d6000602084013e612179565b606091505b50915091506121a18282604051806060016040528060278152602001612fe5602791396125b2565b95945050505050565b6121b381611fdb565b6040516001600160a01b038216907fbc7cd75a20ee27fd9adebab32041f755214dbc6bffa90cc0225b39da2e5c2d3b90600090a250565b60006121f96002848418612dfb565b610ca390848416612f36565b6040516001600160a01b0383166024820152604481018290526107469084907fa9059cbb00000000000000000000000000000000000000000000000000000000906064015b60408051601f198184030181529190526020810180516001600160e01b03166001600160e01b0319909316929092179091526125eb565b6040516001600160a01b0380851660248301528316604482015260648101829052611a789085907f23b872dd000000000000000000000000000000000000000000000000000000009060840161224a565b6000610ca38284612f36565b600080612300856122fb6122f188610fa1565b868863ffffffff16565b6126d0565b91509150935093915050565b6000610ca38284612e1d565b600061232b826301ffc9a760e01b61234b565b80156104e55750612344826001600160e01b031961234b565b1592915050565b604080516001600160e01b0319831660248083019190915282518083039091018152604490910182526020810180516001600160e01b03166301ffc9a760e01b179052905160009190829081906001600160a01b03871690617530906123b2908690612fa6565b6000604051808303818686fa925050503d80600081146123ee576040519150601f19603f3d011682016040523d82523d6000602084013e6123f3565b606091505b509150915060208151101561240e57600093505050506104e5565b81801561242a57508080602001905181019061242a9190612fc2565b9695505050505050565b600054610100900460ff1661249f5760405162461bcd60e51b815260206004820152602b60248201527f496e697469616c697a61626c653a20636f6e7472616374206973206e6f74206960448201526a6e697469616c697a696e6760a81b6064820152608401610696565b610bbd33611644565b600054610100900460ff166125135760405162461bcd60e51b815260206004820152602b60248201527f496e697469616c697a61626c653a20636f6e7472616374206973206e6f74206960448201526a6e697469616c697a696e6760a81b6064820152608401610696565b600160c955565b600054610100900460ff166125855760405162461bcd60e51b815260206004820152602b60248201527f496e697469616c697a61626c653a20636f6e7472616374206973206e6f74206960448201526a6e697469616c697a696e6760a81b6064820152608401610696565b60fb805460ff19169055565b80516a636f6e736f6c652e6c6f67602083016000808483855afa5050505050565b606083156125c1575081610ca3565b8251156125d15782518084602001fd5b8160405162461bcd60e51b81526004016106969190612f23565b6000612640826040518060400160405280602081526020017f5361666545524332303a206c6f772d6c6576656c2063616c6c206661696c6564815250856001600160a01b03166127f69092919063ffffffff16565b805190915015610746578080602001905181019061265e9190612fc2565b6107465760405162461bcd60e51b815260206004820152602a60248201527f5361666545524332303a204552433230206f7065726174696f6e20646964206e60448201527f6f742073756363656564000000000000000000000000000000000000000000006064820152608401610696565b81546000908190816126e186610fa1565b905060008211801561271f575043866126fb600185612e1d565b8154811061270b5761270b612e34565b60009182526020909120015463ffffffff16145b1561277f5761272d85612805565b86612739600185612e1d565b8154811061274957612749612e34565b9060005260206000200160000160046101000a8154816001600160e01b0302191690836001600160e01b031602179055506127ed565b85600001604051806040016040528061279743612888565b63ffffffff1681526020016127ab88612805565b6001600160e01b0390811690915282546001810184556000938452602093849020835194909301519091166401000000000263ffffffff909316929092179101555b95939450505050565b60606106018484600085612904565b60006001600160e01b038211156128845760405162461bcd60e51b815260206004820152602760248201527f53616665436173743a2076616c756520646f65736e27742066697420696e203260448201527f32342062697473000000000000000000000000000000000000000000000000006064820152608401610696565b5090565b600063ffffffff8211156128845760405162461bcd60e51b815260206004820152602660248201527f53616665436173743a2076616c756520646f65736e27742066697420696e203360448201527f32206269747300000000000000000000000000000000000000000000000000006064820152608401610696565b60608247101561297c5760405162461bcd60e51b815260206004820152602660248201527f416464726573733a20696e73756666696369656e742062616c616e636520666f60448201527f722063616c6c00000000000000000000000000000000000000000000000000006064820152608401610696565b843b6129ca5760405162461bcd60e51b815260206004820152601d60248201527f416464726573733a2063616c6c20746f206e6f6e2d636f6e74726163740000006044820152606401610696565b600080866001600160a01b031685876040516129e69190612fa6565b60006040518083038185875af1925050503d8060008114612a23576040519150601f19603f3d011682016040523d82523d6000602084013e612a28565b606091505b5091509150612a388282866125b2565b979650505050505050565b600060208284031215612a5557600080fd5b81356001600160e01b031981168114610ca357600080fd5b80356001600160a01b0381168114612a8457600080fd5b919050565b60008060408385031215612a9c57600080fd5b612aa583612a6d565b946020939093013593505050565b634e487b7160e01b600052604160045260246000fd5b600082601f830112612ada57600080fd5b813567ffffffffffffffff80821115612af557612af5612ab3565b604051601f8301601f19908116603f01168101908282118183101715612b1d57612b1d612ab3565b81604052838152866020858801011115612b3657600080fd5b836020870160208301376000602085830101528094505050505092915050565b60008060008060808587031215612b6c57600080fd5b612b7585612a6d565b9350612b8360208601612a6d565b925060408501359150606085013567ffffffffffffffff811115612ba657600080fd5b612bb287828801612ac9565b91505092959194509250565b60008060408385031215612bd157600080fd5b612bda83612a6d565b9150612be860208401612a6d565b90509250929050565b600060208284031215612c0357600080fd5b5035919050565b60008060408385031215612c1d57600080fd5b82359150612be860208401612a6d565b600060208284031215612c3f57600080fd5b610ca382612a6d565b60008060408385031215612c5b57600080fd5b612c6483612a6d565b9150602083013567ffffffffffffffff811115612c8057600080fd5b612c8c85828601612ac9565b9150509250929050565b600080600060608486031215612cab57600080fd5b612cb484612a6d565b9250612cc260208501612a6d565b9150604084013590509250925092565b600060208284031215612ce457600080fd5b815160ff81168114610ca357600080fd5b634e487b7160e01b600052601160045260246000fd5b600181815b80851115612d46578160001904821115612d2c57612d2c612cf5565b80851615612d3957918102915b93841c9390800290612d10565b509250929050565b600082612d5d575060016104e5565b81612d6a575060006104e5565b8160018114612d805760028114612d8a57612da6565b60019150506104e5565b60ff841115612d9b57612d9b612cf5565b50506001821b6104e5565b5060208310610133831016604e8410600b8410161715612dc9575081810a6104e5565b612dd38383612d0b565b8060001904821115612de757612de7612cf5565b029392505050565b6000610ca38383612d4e565b600082612e1857634e487b7160e01b600052601260045260246000fd5b500490565b600082821015612e2f57612e2f612cf5565b500390565b634e487b7160e01b600052603260045260246000fd5b60005b83811015612e65578181015183820152602001612e4d565b83811115611a785750506000910152565b7f416363657373436f6e74726f6c3a206163636f756e7420000000000000000000815260008351612eae816017850160208801612e4a565b7f206973206d697373696e6720726f6c65200000000000000000000000000000006017918401918201528351612eeb816028840160208801612e4a565b01602801949350505050565b60008151808452612f0f816020860160208601612e4a565b601f01601f19169290920160200192915050565b602081526000610ca36020830184612ef7565b60008219821115612f4957612f49612cf5565b500190565b604081526000612f616040830185612ef7565b90508260208301529392505050565b6000816000190483118215151615612f8a57612f8a612cf5565b500290565b600081612f9e57612f9e612cf5565b506000190190565b60008251612fb8818460208701612e4a565b9190910192915050565b600060208284031215612fd457600080fd5b81518015158114610ca357600080fdfe416464726573733a206c6f772d6c6576656c2064656c65676174652063616c6c206661696c6564a2646970667358221220c0d241c51948a094aae448cc4bf63ca45f621ac18f47ea2fc1f12b269ff2949964736f6c634300080b0033",
  "linkReferences": {},
  "deployedLinkReferences": {}
}