{
  "_format": "hh-sol-artifact-1",
  "contractName": "Staking",
  "sourceName": "contracts/polygon/polygon/Staking.sol",
  "abi": [
    {
      "anonymous": false,
      "inputs": [
        {
          "indexed": false,
          "internalType": "address",
          "name": "previousAdmin",
          "type": "address"
        },
        {
          "indexed": false,
          "internalType": "address",
          "name": "newAdmin",
          "type": "address"
        }
      ],
      "name": "AdminChanged",
      "type": "event"
    },
    {
      "anonymous": false,
      "inputs": [
        {
          "indexed": true,
          "internalType": "address",
          "name": "beacon",
          "type": "address"
        }
      ],
      "name": "BeaconUpgraded",
      "type": "event"
    },
    {
      "anonymous": false,
      "inputs": [
        {
          "indexed": true,
          "internalType": "address",
          "name": "previousOwner",
          "type": "address"
        },
        {
          "indexed": true,
          "internalType": "address",
          "name": "newOwner",
          "type": "address"
        }
      ],
      "name": "OwnershipTransferred",
      "type": "event"
    },
    {
      "anonymous": false,
      "inputs": [
        {
          "indexed": false,
          "internalType": "address",
          "name": "account",
          "type": "address"
        }
      ],
      "name": "Paused",
      "type": "event"
    },
    {
      "anonymous": false,
      "inputs": [
        {
          "indexed": true,
          "internalType": "bytes32",
          "name": "role",
          "type": "bytes32"
        },
        {
          "indexed": true,
          "internalType": "bytes32",
          "name": "previousAdminRole",
          "type": "bytes32"
        },
        {
          "indexed": true,
          "internalType": "bytes32",
          "name": "newAdminRole",
          "type": "bytes32"
        }
      ],
      "name": "RoleAdminChanged",
      "type": "event"
    },
    {
      "anonymous": false,
      "inputs": [
        {
          "indexed": true,
          "internalType": "bytes32",
          "name": "role",
          "type": "bytes32"
        },
        {
          "indexed": true,
          "internalType": "address",
          "name": "account",
          "type": "address"
        },
        {
          "indexed": true,
          "internalType": "address",
          "name": "sender",
          "type": "address"
        }
      ],
      "name": "RoleGranted",
      "type": "event"
    },
    {
      "anonymous": false,
      "inputs": [
        {
          "indexed": true,
          "internalType": "bytes32",
          "name": "role",
          "type": "bytes32"
        },
        {
          "indexed": true,
          "internalType": "address",
          "name": "account",
          "type": "address"
        },
        {
          "indexed": true,
          "internalType": "address",
          "name": "sender",
          "type": "address"
        }
      ],
      "name": "RoleRevoked",
      "type": "event"
    },
    {
      "anonymous": false,
      "inputs": [
        {
          "indexed": true,
          "internalType": "address",
          "name": "_user",
          "type": "address"
        },
        {
          "indexed": true,
          "internalType": "address",
          "name": "_token",
          "type": "address"
        },
        {
          "indexed": true,
          "internalType": "uint256",
          "name": "_amount",
          "type": "uint256"
        }
      ],
      "name": "StakedERC20",
      "type": "event"
    },
    {
      "anonymous": false,
      "inputs": [
        {
          "indexed": true,
          "internalType": "address",
          "name": "_user",
          "type": "address"
        },
        {
          "indexed": true,
          "internalType": "address",
          "name": "_token",
          "type": "address"
        },
        {
          "indexed": true,
          "internalType": "uint256",
          "name": "_tokenId",
          "type": "uint256"
        }
      ],
      "name": "StakedERC721",
      "type": "event"
    },
    {
      "anonymous": false,
      "inputs": [
        {
          "indexed": true,
          "internalType": "address",
          "name": "_delegate",
          "type": "address"
        },
        {
          "indexed": true,
          "internalType": "address",
          "name": "_token",
          "type": "address"
        },
        {
          "indexed": false,
          "internalType": "uint256",
          "name": "_oldValue",
          "type": "uint256"
        },
        {
          "indexed": false,
          "internalType": "uint256",
          "name": "_newValue",
          "type": "uint256"
        }
      ],
      "name": "StakingPowerChanged",
      "type": "event"
    },
    {
      "anonymous": false,
      "inputs": [
        {
          "indexed": false,
          "internalType": "address",
          "name": "account",
          "type": "address"
        }
      ],
      "name": "Unpaused",
      "type": "event"
    },
    {
      "anonymous": false,
      "inputs": [
        {
          "indexed": true,
          "internalType": "address",
          "name": "_user",
          "type": "address"
        },
        {
          "indexed": true,
          "internalType": "address",
          "name": "_token",
          "type": "address"
        },
        {
          "indexed": true,
          "internalType": "uint256",
          "name": "_amount",
          "type": "uint256"
        }
      ],
      "name": "UnstakedERC20",
      "type": "event"
    },
    {
      "anonymous": false,
      "inputs": [
        {
          "indexed": true,
          "internalType": "address",
          "name": "_user",
          "type": "address"
        },
        {
          "indexed": true,
          "internalType": "address",
          "name": "_token",
          "type": "address"
        },
        {
          "indexed": true,
          "internalType": "uint256",
          "name": "_tokenId",
          "type": "uint256"
        }
      ],
      "name": "UnstakedERC721",
      "type": "event"
    },
    {
      "anonymous": false,
      "inputs": [
        {
          "indexed": true,
          "internalType": "address",
          "name": "implementation",
          "type": "address"
        }
      ],
      "name": "Upgraded",
      "type": "event"
    },
    {
      "inputs": [],
      "name": "DEFAULT_ADMIN_ROLE",
      "outputs": [
        {
          "internalType": "bytes32",
          "name": "",
          "type": "bytes32"
        }
      ],
      "stateMutability": "view",
      "type": "function"
    },
    {
      "inputs": [],
      "name": "__Staking_init",
      "outputs": [],
      "stateMutability": "nonpayable",
      "type": "function"
    },
    {
      "inputs": [
        {
          "internalType": "bytes32",
          "name": "role",
          "type": "bytes32"
        }
      ],
      "name": "getRoleAdmin",
      "outputs": [
        {
          "internalType": "bytes32",
          "name": "",
          "type": "bytes32"
        }
      ],
      "stateMutability": "view",
      "type": "function"
    },
    {
      "inputs": [
        {
          "internalType": "bytes32",
          "name": "role",
          "type": "bytes32"
        },
        {
          "internalType": "address",
          "name": "account",
          "type": "address"
        }
      ],
      "name": "grantRole",
      "outputs": [],
      "stateMutability": "nonpayable",
      "type": "function"
    },
    {
      "inputs": [
        {
          "internalType": "bytes32",
          "name": "role",
          "type": "bytes32"
        },
        {
          "internalType": "address",
          "name": "account",
          "type": "address"
        }
      ],
      "name": "hasRole",
      "outputs": [
        {
          "internalType": "bool",
          "name": "",
          "type": "bool"
        }
      ],
      "stateMutability": "view",
      "type": "function"
    },
    {
      "inputs": [
        {
          "internalType": "address",
          "name": "_user",
          "type": "address"
        },
        {
          "internalType": "address",
          "name": "_token",
          "type": "address"
        },
        {
          "internalType": "uint256",
          "name": "_tokenId",
          "type": "uint256"
        }
      ],
      "name": "isStakedERC721",
      "outputs": [
        {
          "internalType": "bool",
          "name": "",
          "type": "bool"
        }
      ],
      "stateMutability": "view",
      "type": "function"
    },
    {
      "inputs": [
        {
          "internalType": "address",
          "name": "",
          "type": "address"
        },
        {
          "internalType": "address",
          "name": "",
          "type": "address"
        },
        {
          "internalType": "uint256",
          "name": "",
          "type": "uint256"
        },
        {
          "internalType": "bytes",
          "name": "",
          "type": "bytes"
        }
      ],
      "name": "onERC721Received",
      "outputs": [
        {
          "internalType": "bytes4",
          "name": "",
          "type": "bytes4"
        }
      ],
      "stateMutability": "nonpayable",
      "type": "function"
    },
    {
      "inputs": [],
      "name": "owner",
      "outputs": [
        {
          "internalType": "address",
          "name": "",
          "type": "address"
        }
      ],
      "stateMutability": "view",
      "type": "function"
    },
    {
      "inputs": [
        {
          "internalType": "address",
          "name": "_user",
          "type": "address"
        },
        {
          "internalType": "address",
          "name": "_token",
          "type": "address"
        },
        {
          "internalType": "uint256",
          "name": "_blockNumber",
          "type": "uint256"
        }
      ],
      "name": "pastStakingPower",
      "outputs": [
        {
          "internalType": "uint256",
          "name": "",
          "type": "uint256"
        }
      ],
      "stateMutability": "view",
      "type": "function"
    },
    {
      "inputs": [],
      "name": "paused",
      "outputs": [
        {
          "internalType": "bool",
          "name": "",
          "type": "bool"
        }
      ],
      "stateMutability": "view",
      "type": "function"
    },
    {
      "inputs": [],
      "name": "renounceOwnership",
      "outputs": [],
      "stateMutability": "nonpayable",
      "type": "function"
    },
    {
      "inputs": [
        {
          "internalType": "bytes32",
          "name": "role",
          "type": "bytes32"
        },
        {
          "internalType": "address",
          "name": "account",
          "type": "address"
        }
      ],
      "name": "renounceRole",
      "outputs": [],
      "stateMutability": "nonpayable",
      "type": "function"
    },
    {
      "inputs": [
        {
          "internalType": "bytes32",
          "name": "role",
          "type": "bytes32"
        },
        {
          "internalType": "address",
          "name": "account",
          "type": "address"
        }
      ],
      "name": "revokeRole",
      "outputs": [],
      "stateMutability": "nonpayable",
      "type": "function"
    },
    {
      "inputs": [
        {
          "internalType": "address",
          "name": "_token",
          "type": "address"
        },
        {
          "internalType": "uint256",
          "name": "_amount",
          "type": "uint256"
        }
      ],
      "name": "stakeERC20",
      "outputs": [],
      "stateMutability": "nonpayable",
      "type": "function"
    },
    {
      "inputs": [
        {
          "internalType": "address",
          "name": "_token",
          "type": "address"
        },
        {
          "internalType": "uint256",
          "name": "_tokenId",
          "type": "uint256"
        }
      ],
      "name": "stakeERC721",
      "outputs": [],
      "stateMutability": "nonpayable",
      "type": "function"
    },
    {
      "inputs": [
        {
          "internalType": "address",
          "name": "_user",
          "type": "address"
        },
        {
          "internalType": "address",
          "name": "_token",
          "type": "address"
        }
      ],
      "name": "stakedERC20Amount",
      "outputs": [
        {
          "internalType": "uint256",
          "name": "",
          "type": "uint256"
        }
      ],
      "stateMutability": "view",
      "type": "function"
    },
    {
      "inputs": [
        {
          "internalType": "address",
          "name": "_user",
          "type": "address"
        },
        {
          "internalType": "address",
          "name": "_token",
          "type": "address"
        }
      ],
      "name": "stakingPower",
      "outputs": [
        {
          "internalType": "uint256",
          "name": "",
          "type": "uint256"
        }
      ],
      "stateMutability": "view",
      "type": "function"
    },
    {
      "inputs": [
        {
          "internalType": "bytes4",
          "name": "interfaceId",
          "type": "bytes4"
        }
      ],
      "name": "supportsInterface",
      "outputs": [
        {
          "internalType": "bool",
          "name": "",
          "type": "bool"
        }
      ],
      "stateMutability": "view",
      "type": "function"
    },
    {
      "inputs": [
        {
          "internalType": "address",
          "name": "newOwner",
          "type": "address"
        }
      ],
      "name": "transferOwnership",
      "outputs": [],
      "stateMutability": "nonpayable",
      "type": "function"
    },
    {
      "inputs": [
        {
          "internalType": "address",
          "name": "_token",
          "type": "address"
        },
        {
          "internalType": "uint256",
          "name": "_amount",
          "type": "uint256"
        }
      ],
      "name": "unstakeERC20",
      "outputs": [],
      "stateMutability": "nonpayable",
      "type": "function"
    },
    {
      "inputs": [
        {
          "internalType": "address",
          "name": "_token",
          "type": "address"
        },
        {
          "internalType": "uint256",
          "name": "_tokenId",
          "type": "uint256"
        }
      ],
      "name": "unstakeERC721",
      "outputs": [],
      "stateMutability": "nonpayable",
      "type": "function"
    },
    {
      "inputs": [
        {
          "internalType": "address",
          "name": "newImplementation",
          "type": "address"
        }
      ],
      "name": "upgradeTo",
      "outputs": [],
      "stateMutability": "nonpayable",
      "type": "function"
    },
    {
      "inputs": [
        {
          "internalType": "address",
          "name": "newImplementation",
          "type": "address"
        },
        {
          "internalType": "bytes",
          "name": "data",
          "type": "bytes"
        }
      ],
      "name": "upgradeToAndCall",
      "outputs": [],
      "stateMutability": "payable",
      "type": "function"
    },
    {
      "inputs": [],
      "name": "version",
      "outputs": [
        {
          "internalType": "uint256",
          "name": "",
          "type": "uint256"
        }
      ],
      "stateMutability": "view",
      "type": "function"
    }
  ],
  "bytecode": "0x60a06040523060805234801561001457600080fd5b50608051612fef61004560003960008181610820015281816108b601528181610a6e0152610b040152612fef6000f3fe60806040526004361061018b5760003560e01c806354781511116100d6578063a217fddf1161007f578063d547741f11610059578063d547741f14610491578063e46f4ead146104b1578063f2fde38b146104d157600080fd5b8063a217fddf1461043c578063bcf4d41614610451578063c581af911461047157600080fd5b8063715018a6116100b0578063715018a6146103b95780638da5cb5b146103ce57806391d14854146103f657600080fd5b8063547815111461036a57806354fd4d501461038a5780635c975abb146103a157600080fd5b80632f2ff15d11610138578063421302dd11610112578063421302dd146103175780634c23648d146103375780634f1ef2861461035757600080fd5b80632f2ff15d146102b757806336568abe146102d75780633659cfe6146102f757600080fd5b806320f77f081161016957806320f77f081461024457806322dc559514610272578063248a9ca31461028757600080fd5b806301ffc9a714610190578063075b52c6146101c5578063150b7a02146101e7575b600080fd5b34801561019c57600080fd5b506101b06101ab366004612a1f565b6104f1565b60405190151581526020015b60405180910390f35b3480156101d157600080fd5b506101e56101e0366004612a65565b610541565b005b3480156101f357600080fd5b5061022b610202366004612b32565b7f150b7a0200000000000000000000000000000000000000000000000000000000949350505050565b6040516001600160e01b031990911681526020016101bc565b34801561025057600080fd5b5061026461025f366004612b9a565b610550565b6040519081526020016101bc565b34801561027e57600080fd5b506101e561064b565b34801561029357600080fd5b506102646102a2366004612bcd565b60009081526097602052604090206001015490565b3480156102c357600080fd5b506101e56102d2366004612be6565b610762565b3480156102e357600080fd5b506101e56102f2366004612be6565b61078d565b34801561030357600080fd5b506101e5610312366004612c09565b610815565b34801561032357600080fd5b506101b0610332366004612c24565b6109b0565b34801561034357600080fd5b506101e5610352366004612a65565b610a03565b6101e5610365366004612c60565b610a63565b34801561037657600080fd5b50610264610385366004612b9a565b610bee565b34801561039657600080fd5b506102646101915481565b3480156103ad57600080fd5b5060fb5460ff166101b0565b3480156103c557600080fd5b506101e5610c3a565b3480156103da57600080fd5b506033546040516001600160a01b0390911681526020016101bc565b34801561040257600080fd5b506101b0610411366004612be6565b60009182526097602090815260408084206001600160a01b0393909316845291905290205460ff1690565b34801561044857600080fd5b50610264600081565b34801561045d57600080fd5b5061026461046c366004612c24565b610ca0565b34801561047d57600080fd5b506101e561048c366004612a65565b610d73565b34801561049d57600080fd5b506101e56104ac366004612be6565b610d7e565b3480156104bd57600080fd5b506101e56104cc366004612a65565b610da4565b3480156104dd57600080fd5b506101e56104ec366004612c09565b610e05565b60006001600160e01b031982167f7965db0b00000000000000000000000000000000000000000000000000000000148061053b57506301ffc9a760e01b6001600160e01b03198316145b92915050565b61054c338383610ee4565b5050565b600061055b82611064565b15610596576001600160a01b0380841660009081526101c46020908152604080832093861683529290522061058f90611099565b905061053b565b6000826001600160a01b031663313ce5676040518163ffffffff1660e01b8152600401602060405180830381865afa1580156105d6573d6000803e3d6000fd5b505050506040513d601f19601f820116820180604052508101906105fa9190612cae565b60ff16905061060a81600a612dcb565b6001600160a01b0380861660009081526101c46020908152604080832093881683529290522061063990611099565b6106439190612dd7565b949350505050565b600054610100900460ff166106665760005460ff161561066a565b303b155b6106e15760405162461bcd60e51b815260206004820152602e60248201527f496e697469616c697a61626c653a20636f6e747261637420697320616c72656160448201527f647920696e697469616c697a656400000000000000000000000000000000000060648201526084015b60405180910390fd5b600054610100900460ff1615801561072057600080547fffffffffffffffffffffffffffffffffffffffffffffffffffffffffffff0000166101011790555b6107286110f5565b610730611190565b801561075f57600080547fffffffffffffffffffffffffffffffffffffffffffffffffffffffffffff00ff1690555b50565b60008281526097602052604090206001015461077e8133611203565b6107888383611283565b505050565b6001600160a01b038116331461080b5760405162461bcd60e51b815260206004820152602f60248201527f416363657373436f6e74726f6c3a2063616e206f6e6c792072656e6f756e636560448201527f20726f6c657320666f722073656c66000000000000000000000000000000000060648201526084016106d8565b61054c8282611325565b306001600160a01b037f00000000000000000000000000000000000000000000000000000000000000001614156108b45760405162461bcd60e51b815260206004820152602c60248201527f46756e6374696f6e206d7573742062652063616c6c6564207468726f7567682060448201527f64656c656761746563616c6c000000000000000000000000000000000000000060648201526084016106d8565b7f00000000000000000000000000000000000000000000000000000000000000006001600160a01b031661090f7f360894a13ba1a3210667c828492db98dca3e2076cc3735a920a3ca505d382bbc546001600160a01b031690565b6001600160a01b03161461098b5760405162461bcd60e51b815260206004820152602c60248201527f46756e6374696f6e206d7573742062652063616c6c6564207468726f7567682060448201527f6163746976652070726f7879000000000000000000000000000000000000000060648201526084016106d8565b610994816113a8565b6040805160008082526020820190925261075f91839190611402565b60006109bb83611064565b6109c65760006109f9565b6001600160a01b0380851660009081526101c56020908152604080832093871683529281528282208583529052205460ff165b90505b9392505050565b610a0c82611064565b610a585760405162461bcd60e51b815260206004820152601b60248201527f53686f756c642045524337323120746f6b656e2061646472657373000000000060448201526064016106d8565b61054c3383836115b1565b306001600160a01b037f0000000000000000000000000000000000000000000000000000000000000000161415610b025760405162461bcd60e51b815260206004820152602c60248201527f46756e6374696f6e206d7573742062652063616c6c6564207468726f7567682060448201527f64656c656761746563616c6c000000000000000000000000000000000000000060648201526084016106d8565b7f00000000000000000000000000000000000000000000000000000000000000006001600160a01b0316610b5d7f360894a13ba1a3210667c828492db98dca3e2076cc3735a920a3ca505d382bbc546001600160a01b031690565b6001600160a01b031614610bd95760405162461bcd60e51b815260206004820152602c60248201527f46756e6374696f6e206d7573742062652063616c6c6564207468726f7567682060448201527f6163746976652070726f7879000000000000000000000000000000000000000060648201526084016106d8565b610be2826113a8565b61054c82826001611402565b6000610bf982611064565b610c31576001600160a01b0380841660009081526101c460209081526040808320938616835292905220610c2c90611099565b6109fc565b60009392505050565b6033546001600160a01b03163314610c945760405162461bcd60e51b815260206004820181905260248201527f4f776e61626c653a2063616c6c6572206973206e6f7420746865206f776e657260448201526064016106d8565b610c9e60006116a9565b565b6001600160a01b0380841660009081526101c46020908152604080832093861683529290529081208190610cd49084611713565b9050610cdf84611064565b15610ceb5790506109fc565b6000846001600160a01b031663313ce5676040518163ffffffff1660e01b8152600401602060405180830381865afa158015610d2b573d6000803e3d6000fd5b505050506040513d601f19601f82011682018060405250810190610d4f9190612cae565b60ff169050610d5f81600a612dcb565b610d699083612dd7565b9695505050505050565b61054c338383611822565b600082815260976020526040902060010154610d9a8133611203565b6107888383611325565b610dad82611064565b15610dfa5760405162461bcd60e51b815260206004820152601a60248201527f53686f756c6420455243323020746f6b656e206164647265737300000000000060448201526064016106d8565b61054c338383611907565b6033546001600160a01b03163314610e5f5760405162461bcd60e51b815260206004820181905260248201527f4f776e61626c653a2063616c6c6572206973206e6f7420746865206f776e657260448201526064016106d8565b6001600160a01b038116610edb5760405162461bcd60e51b815260206004820152602660248201527f4f776e61626c653a206e6577206f776e657220697320746865207a65726f206160448201527f646472657373000000000000000000000000000000000000000000000000000060648201526084016106d8565b61075f816116a9565b6001600160a01b0380841660009081526101c56020908152604080832093861683529281528282208483529052205460ff16610f625760405162461bcd60e51b815260206004820152601760248201527f53686f756c64206265207374616b65642045524337323100000000000000000060448201526064016106d8565b610f6f308484600161196e565b6001600160a01b0383811660008181526101c56020908152604080832094871680845294825280832086845290915290819020805460ff19169055517f42842e0e0000000000000000000000000000000000000000000000000000000081523060048201526024810191909152604481018390526342842e0e90606401600060405180830381600087803b15801561100657600080fd5b505af115801561101a573d6000803e3d6000fd5b5050505080826001600160a01b0316846001600160a01b03167ff42fc84f71459722b71bcf13bcaab8061790b57e1e180944ae338cd2d1f642fd60405160405180910390a4505050565b600061053b6001600160a01b0383167f80ac58cd00000000000000000000000000000000000000000000000000000000611ae3565b805460009080156110e257826110b0600183612df9565b815481106110c0576110c0612e10565b60009182526020909120015464010000000090046001600160e01b03166110e5565b60005b6001600160e01b03169392505050565b600054610100900460ff166111605760405162461bcd60e51b815260206004820152602b60248201527f496e697469616c697a61626c653a20636f6e7472616374206973206e6f74206960448201526a6e697469616c697a696e6760a81b60648201526084016106d8565b611168611aff565b611170611b7a565b611178611bf5565b611180611c68565b611188611ce3565b600161019155565b600054610100900460ff166111fb5760405162461bcd60e51b815260206004820152602b60248201527f496e697469616c697a61626c653a20636f6e7472616374206973206e6f74206960448201526a6e697469616c697a696e6760a81b60648201526084016106d8565b610c9e611d4e565b60008281526097602090815260408083206001600160a01b038516845290915290205460ff1661054c57611241816001600160a01b03166014611db9565b61124c836020611db9565b60405160200161125d929190612e52565b60408051601f198184030181529082905262461bcd60e51b82526106d891600401612ed3565b60008281526097602090815260408083206001600160a01b038516845290915290205460ff1661054c5760008281526097602090815260408083206001600160a01b03851684529091529020805460ff191660011790556112e13390565b6001600160a01b0316816001600160a01b0316837f2f8788117e7eff1d82e926ec794901d17c78024a50270940304540a733656f0d60405160405180910390a45050565b60008281526097602090815260408083206001600160a01b038516845290915290205460ff161561054c5760008281526097602090815260408083206001600160a01b0385168085529252808320805460ff1916905551339285917ff6391f5c32d9c69d2a47ea670b442974b53935d1edc7fd64eb21e047a839171b9190a45050565b6033546001600160a01b0316331461075f5760405162461bcd60e51b815260206004820181905260248201527f4f776e61626c653a2063616c6c6572206973206e6f7420746865206f776e657260448201526064016106d8565b60006114357f360894a13ba1a3210667c828492db98dca3e2076cc3735a920a3ca505d382bbc546001600160a01b031690565b905061144084611fe2565b60008351118061144d5750815b1561145e5761145c84846120af565b505b7f4910fdfa16fed3260ed0e7147f7cc6da11a60208b5b9406d12a635614ffd9143805460ff166115aa57805460ff191660011781556040516001600160a01b03831660248201526114f690869060440160408051601f198184030181529190526020810180516001600160e01b03167f3659cfe6000000000000000000000000000000000000000000000000000000001790526120af565b50805460ff191681557f360894a13ba1a3210667c828492db98dca3e2076cc3735a920a3ca505d382bbc546001600160a01b038381169116146115a15760405162461bcd60e51b815260206004820152602f60248201527f45524331393637557067726164653a207570677261646520627265616b73206660448201527f757274686572207570677261646573000000000000000000000000000000000060648201526084016106d8565b6115aa856121b1565b5050505050565b6040517f42842e0e0000000000000000000000000000000000000000000000000000000081526001600160a01b038481166004830152306024830152604482018390528316906342842e0e90606401600060405180830381600087803b15801561161a57600080fd5b505af115801561162e573d6000803e3d6000fd5b5050505061163f833084600161196e565b6001600160a01b0380841660008181526101c560209081526040808320948716808452948252808320868452909152808220805460ff1916600117905551849392917f37cf53153b223ad8ab091cc144080e0cc9f5a3f9e0444019abb4bb797c87205691a4505050565b603380546001600160a01b038381167fffffffffffffffffffffffff0000000000000000000000000000000000000000831681179093556040519116919082907f8be0079c531659141344cd1fd0a4f28419497f9722a3daafe3b4186f6b6457e090600090a35050565b60004382106117645760405162461bcd60e51b815260206004820181905260248201527f436865636b706f696e74733a20626c6f636b206e6f7420796574206d696e656460448201526064016106d8565b825460005b818110156117c957600061177d82846121f1565b90508486600001828154811061179557611795612e10565b60009182526020909120015463ffffffff1611156117b5578092506117c3565b6117c0816001612f06565b91505b50611769565b811561180d57846117db600184612df9565b815481106117eb576117eb612e10565b60009182526020909120015464010000000090046001600160e01b0316611810565b60005b6001600160e01b031695945050505050565b6001600160a01b0380841660009081526101c460209081526040808320938616835292905220819061185390611099565b10156118a15760405162461bcd60e51b815260206004820152601f60248201527f53686f756c64206e6f7420657863656564207374616b656420616d6f756e740060448201526064016106d8565b6118ad3084848461196e565b6118c16001600160a01b038316848361220c565b80826001600160a01b0316846001600160a01b03167ff8f44f6e5b90b8ac8214f8b9492e33fd1393dbf840fc2424d247ea8b18bf45c460405160405180910390a4505050565b61191c6001600160a01b038316843084612288565b6119288330848461196e565b80826001600160a01b0316846001600160a01b03167f04d8f60fa44691072ee4e6e9128f56dfe9f2bf33a8f9df9d41fb15002a69e85160405160405180910390a4505050565b826001600160a01b0316846001600160a01b0316141580156119905750600081115b15611add576001600160a01b0384163014611a39576001600160a01b0380851660009081526101c460209081526040808320938616835292905290812081906119dc906122d9856122e5565b91509150836001600160a01b0316866001600160a01b03167fa8022c9baae39d47d226e7275bdf43ba27a8c2c0c142af8bb0ebe017e1a2d6008484604051611a2e929190918252602082015260400190565b60405180910390a350505b6001600160a01b0383163014611add576001600160a01b0380841660009081526101c46020908152604080832093861683529290529081208190611a8090612313856122e5565b91509150836001600160a01b0316856001600160a01b03167fa8022c9baae39d47d226e7275bdf43ba27a8c2c0c142af8bb0ebe017e1a2d6008484604051611ad2929190918252602082015260400190565b60405180910390a350505b50505050565b6000611aee8361231f565b80156109fc57506109fc8383612352565b600054610100900460ff16611b6a5760405162461bcd60e51b815260206004820152602b60248201527f496e697469616c697a61626c653a20636f6e7472616374206973206e6f74206960448201526a6e697469616c697a696e6760a81b60648201526084016106d8565b611b72611d4e565b610c9e612431565b600054610100900460ff16611be55760405162461bcd60e51b815260206004820152602b60248201527f496e697469616c697a61626c653a20636f6e7472616374206973206e6f74206960448201526a6e697469616c697a696e6760a81b60648201526084016106d8565b611bed611d4e565b6111fb611d4e565b600054610100900460ff16611c605760405162461bcd60e51b815260206004820152602b60248201527f496e697469616c697a61626c653a20636f6e7472616374206973206e6f74206960448201526a6e697469616c697a696e6760a81b60648201526084016106d8565b610c9e6124a5565b600054610100900460ff16611cd35760405162461bcd60e51b815260206004820152602b60248201527f496e697469616c697a61626c653a20636f6e7472616374206973206e6f74206960448201526a6e697469616c697a696e6760a81b60648201526084016106d8565b611cdb611d4e565b610c9e612517565b600054610100900460ff16611bed5760405162461bcd60e51b815260206004820152602b60248201527f496e697469616c697a61626c653a20636f6e7472616374206973206e6f74206960448201526a6e697469616c697a696e6760a81b60648201526084016106d8565b600054610100900460ff16610c9e5760405162461bcd60e51b815260206004820152602b60248201527f496e697469616c697a61626c653a20636f6e7472616374206973206e6f74206960448201526a6e697469616c697a696e6760a81b60648201526084016106d8565b60606000611dc8836002612f1e565b611dd3906002612f06565b67ffffffffffffffff811115611deb57611deb612a8f565b6040519080825280601f01601f191660200182016040528015611e15576020820181803683370190505b5090507f300000000000000000000000000000000000000000000000000000000000000081600081518110611e4c57611e4c612e10565b60200101907effffffffffffffffffffffffffffffffffffffffffffffffffffffffffffff1916908160001a9053507f780000000000000000000000000000000000000000000000000000000000000081600181518110611eaf57611eaf612e10565b60200101907effffffffffffffffffffffffffffffffffffffffffffffffffffffffffffff1916908160001a9053506000611eeb846002612f1e565b611ef6906001612f06565b90505b6001811115611f93577f303132333435363738396162636465660000000000000000000000000000000085600f1660108110611f3757611f37612e10565b1a60f81b828281518110611f4d57611f4d612e10565b60200101907effffffffffffffffffffffffffffffffffffffffffffffffffffffffffffff1916908160001a90535060049490941c93611f8c81612f3d565b9050611ef9565b5083156109fc5760405162461bcd60e51b815260206004820181905260248201527f537472696e67733a20686578206c656e67746820696e73756666696369656e7460448201526064016106d8565b803b6120565760405162461bcd60e51b815260206004820152602d60248201527f455243313936373a206e657720696d706c656d656e746174696f6e206973206e60448201527f6f74206120636f6e74726163740000000000000000000000000000000000000060648201526084016106d8565b7f360894a13ba1a3210667c828492db98dca3e2076cc3735a920a3ca505d382bbc80547fffffffffffffffffffffffff0000000000000000000000000000000000000000166001600160a01b0392909216919091179055565b6060823b6121255760405162461bcd60e51b815260206004820152602660248201527f416464726573733a2064656c65676174652063616c6c20746f206e6f6e2d636f60448201527f6e7472616374000000000000000000000000000000000000000000000000000060648201526084016106d8565b600080846001600160a01b0316846040516121409190612f54565b600060405180830381855af49150503d806000811461217b576040519150601f19603f3d011682016040523d82523d6000602084013e612180565b606091505b50915091506121a88282604051806060016040528060278152602001612f936027913961258e565b95945050505050565b6121ba81611fe2565b6040516001600160a01b038216907fbc7cd75a20ee27fd9adebab32041f755214dbc6bffa90cc0225b39da2e5c2d3b90600090a250565b60006122006002848418612dd7565b6109fc90848416612f06565b6040516001600160a01b0383166024820152604481018290526107889084907fa9059cbb00000000000000000000000000000000000000000000000000000000906064015b60408051601f198184030181529190526020810180516001600160e01b03166001600160e01b0319909316929092179091526125c7565b6040516001600160a01b0380851660248301528316604482015260648101829052611add9085907f23b872dd0000000000000000000000000000000000000000000000000000000090608401612251565b60006109fc8284612f06565b600080612307856123026122f888611099565b868863ffffffff16565b6126ac565b91509150935093915050565b60006109fc8284612df9565b6000612332826301ffc9a760e01b612352565b801561053b575061234b826001600160e01b0319612352565b1592915050565b604080516001600160e01b0319831660248083019190915282518083039091018152604490910182526020810180516001600160e01b03166301ffc9a760e01b179052905160009190829081906001600160a01b03871690617530906123b9908690612f54565b6000604051808303818686fa925050503d80600081146123f5576040519150601f19603f3d011682016040523d82523d6000602084013e6123fa565b606091505b5091509150602081511015612415576000935050505061053b565b818015610d69575080806020019051810190610d699190612f70565b600054610100900460ff1661249c5760405162461bcd60e51b815260206004820152602b60248201527f496e697469616c697a61626c653a20636f6e7472616374206973206e6f74206960448201526a6e697469616c697a696e6760a81b60648201526084016106d8565b610c9e336116a9565b600054610100900460ff166125105760405162461bcd60e51b815260206004820152602b60248201527f496e697469616c697a61626c653a20636f6e7472616374206973206e6f74206960448201526a6e697469616c697a696e6760a81b60648201526084016106d8565b600160c955565b600054610100900460ff166125825760405162461bcd60e51b815260206004820152602b60248201527f496e697469616c697a61626c653a20636f6e7472616374206973206e6f74206960448201526a6e697469616c697a696e6760a81b60648201526084016106d8565b60fb805460ff19169055565b6060831561259d5750816109fc565b8251156125ad5782518084602001fd5b8160405162461bcd60e51b81526004016106d89190612ed3565b600061261c826040518060400160405280602081526020017f5361666545524332303a206c6f772d6c6576656c2063616c6c206661696c6564815250856001600160a01b03166127d29092919063ffffffff16565b805190915015610788578080602001905181019061263a9190612f70565b6107885760405162461bcd60e51b815260206004820152602a60248201527f5361666545524332303a204552433230206f7065726174696f6e20646964206e60448201527f6f7420737563636565640000000000000000000000000000000000000000000060648201526084016106d8565b81546000908190816126bd86611099565b90506000821180156126fb575043866126d7600185612df9565b815481106126e7576126e7612e10565b60009182526020909120015463ffffffff16145b1561275b57612709856127e1565b86612715600185612df9565b8154811061272557612725612e10565b9060005260206000200160000160046101000a8154816001600160e01b0302191690836001600160e01b031602179055506127c9565b85600001604051806040016040528061277343612864565b63ffffffff168152602001612787886127e1565b6001600160e01b0390811690915282546001810184556000938452602093849020835194909301519091166401000000000263ffffffff909316929092179101555b95939450505050565b60606109f984846000856128e0565b60006001600160e01b038211156128605760405162461bcd60e51b815260206004820152602760248201527f53616665436173743a2076616c756520646f65736e27742066697420696e203260448201527f323420626974730000000000000000000000000000000000000000000000000060648201526084016106d8565b5090565b600063ffffffff8211156128605760405162461bcd60e51b815260206004820152602660248201527f53616665436173743a2076616c756520646f65736e27742066697420696e203360448201527f322062697473000000000000000000000000000000000000000000000000000060648201526084016106d8565b6060824710156129585760405162461bcd60e51b815260206004820152602660248201527f416464726573733a20696e73756666696369656e742062616c616e636520666f60448201527f722063616c6c000000000000000000000000000000000000000000000000000060648201526084016106d8565b843b6129a65760405162461bcd60e51b815260206004820152601d60248201527f416464726573733a2063616c6c20746f206e6f6e2d636f6e747261637400000060448201526064016106d8565b600080866001600160a01b031685876040516129c29190612f54565b60006040518083038185875af1925050503d80600081146129ff576040519150601f19603f3d011682016040523d82523d6000602084013e612a04565b606091505b5091509150612a1482828661258e565b979650505050505050565b600060208284031215612a3157600080fd5b81356001600160e01b0319811681146109fc57600080fd5b80356001600160a01b0381168114612a6057600080fd5b919050565b60008060408385031215612a7857600080fd5b612a8183612a49565b946020939093013593505050565b634e487b7160e01b600052604160045260246000fd5b600082601f830112612ab657600080fd5b813567ffffffffffffffff80821115612ad157612ad1612a8f565b604051601f8301601f19908116603f01168101908282118183101715612af957612af9612a8f565b81604052838152866020858801011115612b1257600080fd5b836020870160208301376000602085830101528094505050505092915050565b60008060008060808587031215612b4857600080fd5b612b5185612a49565b9350612b5f60208601612a49565b925060408501359150606085013567ffffffffffffffff811115612b8257600080fd5b612b8e87828801612aa5565b91505092959194509250565b60008060408385031215612bad57600080fd5b612bb683612a49565b9150612bc460208401612a49565b90509250929050565b600060208284031215612bdf57600080fd5b5035919050565b60008060408385031215612bf957600080fd5b82359150612bc460208401612a49565b600060208284031215612c1b57600080fd5b6109fc82612a49565b600080600060608486031215612c3957600080fd5b612c4284612a49565b9250612c5060208501612a49565b9150604084013590509250925092565b60008060408385031215612c7357600080fd5b612c7c83612a49565b9150602083013567ffffffffffffffff811115612c9857600080fd5b612ca485828601612aa5565b9150509250929050565b600060208284031215612cc057600080fd5b815160ff811681146109fc57600080fd5b634e487b7160e01b600052601160045260246000fd5b600181815b80851115612d22578160001904821115612d0857612d08612cd1565b80851615612d1557918102915b93841c9390800290612cec565b509250929050565b600082612d395750600161053b565b81612d465750600061053b565b8160018114612d5c5760028114612d6657612d82565b600191505061053b565b60ff841115612d7757612d77612cd1565b50506001821b61053b565b5060208310610133831016604e8410600b8410161715612da5575081810a61053b565b612daf8383612ce7565b8060001904821115612dc357612dc3612cd1565b029392505050565b60006109fc8383612d2a565b600082612df457634e487b7160e01b600052601260045260246000fd5b500490565b600082821015612e0b57612e0b612cd1565b500390565b634e487b7160e01b600052603260045260246000fd5b60005b83811015612e41578181015183820152602001612e29565b83811115611add5750506000910152565b7f416363657373436f6e74726f6c3a206163636f756e7420000000000000000000815260008351612e8a816017850160208801612e26565b7f206973206d697373696e6720726f6c65200000000000000000000000000000006017918401918201528351612ec7816028840160208801612e26565b01602801949350505050565b6020815260008251806020840152612ef2816040850160208701612e26565b601f01601f19169190910160400192915050565b60008219821115612f1957612f19612cd1565b500190565b6000816000190483118215151615612f3857612f38612cd1565b500290565b600081612f4c57612f4c612cd1565b506000190190565b60008251612f66818460208701612e26565b9190910192915050565b600060208284031215612f8257600080fd5b815180151581146109fc57600080fdfe416464726573733a206c6f772d6c6576656c2064656c65676174652063616c6c206661696c6564a26469706673582212208d943a556aa282ff9ae028e5cbc0e7511f1d7ae1f75efc50241a6e98e23009d264736f6c634300080b0033",
  "linkReferences": {},
  "deployedLinkReferences": {}
}