{
  "_format": "hh-sol-artifact-1",
  "contractName": "Staking",
  "sourceName": "contracts/polygon/polygon/Staking.sol",
  "abi": [
    {
      "anonymous": false,
      "inputs": [
        {
          "indexed": false,
          "internalType": "address",
          "name": "previousAdmin",
          "type": "address"
        },
        {
          "indexed": false,
          "internalType": "address",
          "name": "newAdmin",
          "type": "address"
        }
      ],
      "name": "AdminChanged",
      "type": "event"
    },
    {
      "anonymous": false,
      "inputs": [
        {
          "indexed": true,
          "internalType": "address",
          "name": "beacon",
          "type": "address"
        }
      ],
      "name": "BeaconUpgraded",
      "type": "event"
    },
    {
      "anonymous": false,
      "inputs": [
        {
          "indexed": true,
          "internalType": "address",
          "name": "previousOwner",
          "type": "address"
        },
        {
          "indexed": true,
          "internalType": "address",
          "name": "newOwner",
          "type": "address"
        }
      ],
      "name": "OwnershipTransferred",
      "type": "event"
    },
    {
      "anonymous": false,
      "inputs": [
        {
          "indexed": false,
          "internalType": "address",
          "name": "account",
          "type": "address"
        }
      ],
      "name": "Paused",
      "type": "event"
    },
    {
      "anonymous": false,
      "inputs": [
        {
          "indexed": true,
          "internalType": "bytes32",
          "name": "role",
          "type": "bytes32"
        },
        {
          "indexed": true,
          "internalType": "bytes32",
          "name": "previousAdminRole",
          "type": "bytes32"
        },
        {
          "indexed": true,
          "internalType": "bytes32",
          "name": "newAdminRole",
          "type": "bytes32"
        }
      ],
      "name": "RoleAdminChanged",
      "type": "event"
    },
    {
      "anonymous": false,
      "inputs": [
        {
          "indexed": true,
          "internalType": "bytes32",
          "name": "role",
          "type": "bytes32"
        },
        {
          "indexed": true,
          "internalType": "address",
          "name": "account",
          "type": "address"
        },
        {
          "indexed": true,
          "internalType": "address",
          "name": "sender",
          "type": "address"
        }
      ],
      "name": "RoleGranted",
      "type": "event"
    },
    {
      "anonymous": false,
      "inputs": [
        {
          "indexed": true,
          "internalType": "bytes32",
          "name": "role",
          "type": "bytes32"
        },
        {
          "indexed": true,
          "internalType": "address",
          "name": "account",
          "type": "address"
        },
        {
          "indexed": true,
          "internalType": "address",
          "name": "sender",
          "type": "address"
        }
      ],
      "name": "RoleRevoked",
      "type": "event"
    },
    {
      "anonymous": false,
      "inputs": [
        {
          "indexed": true,
          "internalType": "address",
          "name": "_user",
          "type": "address"
        },
        {
          "indexed": true,
          "internalType": "address",
          "name": "_token",
          "type": "address"
        },
        {
          "indexed": true,
          "internalType": "uint256",
          "name": "_decimals",
          "type": "uint256"
        },
        {
          "indexed": false,
          "internalType": "uint256",
          "name": "_amount",
          "type": "uint256"
        }
      ],
      "name": "StakedERC20",
      "type": "event"
    },
    {
      "anonymous": false,
      "inputs": [
        {
          "indexed": true,
          "internalType": "address",
          "name": "_user",
          "type": "address"
        },
        {
          "indexed": true,
          "internalType": "address",
          "name": "_token",
          "type": "address"
        },
        {
          "indexed": true,
          "internalType": "uint256",
          "name": "_tokenId",
          "type": "uint256"
        }
      ],
      "name": "StakedERC721",
      "type": "event"
    },
    {
      "anonymous": false,
      "inputs": [
        {
          "indexed": true,
          "internalType": "address",
          "name": "_delegate",
          "type": "address"
        },
        {
          "indexed": true,
          "internalType": "address",
          "name": "_token",
          "type": "address"
        },
        {
          "indexed": false,
          "internalType": "uint256",
          "name": "_oldValue",
          "type": "uint256"
        },
        {
          "indexed": false,
          "internalType": "uint256",
          "name": "_newValue",
          "type": "uint256"
        }
      ],
      "name": "StakingPowerChanged",
      "type": "event"
    },
    {
      "anonymous": false,
      "inputs": [
        {
          "indexed": false,
          "internalType": "address",
          "name": "account",
          "type": "address"
        }
      ],
      "name": "Unpaused",
      "type": "event"
    },
    {
      "anonymous": false,
      "inputs": [
        {
          "indexed": true,
          "internalType": "address",
          "name": "_user",
          "type": "address"
        },
        {
          "indexed": true,
          "internalType": "address",
          "name": "_token",
          "type": "address"
        },
        {
          "indexed": true,
          "internalType": "uint256",
          "name": "_decimals",
          "type": "uint256"
        },
        {
          "indexed": false,
          "internalType": "uint256",
          "name": "_amount",
          "type": "uint256"
        }
      ],
      "name": "UnstakedERC20",
      "type": "event"
    },
    {
      "anonymous": false,
      "inputs": [
        {
          "indexed": true,
          "internalType": "address",
          "name": "_user",
          "type": "address"
        },
        {
          "indexed": true,
          "internalType": "address",
          "name": "_token",
          "type": "address"
        },
        {
          "indexed": true,
          "internalType": "uint256",
          "name": "_tokenId",
          "type": "uint256"
        }
      ],
      "name": "UnstakedERC721",
      "type": "event"
    },
    {
      "anonymous": false,
      "inputs": [
        {
          "indexed": true,
          "internalType": "address",
          "name": "implementation",
          "type": "address"
        }
      ],
      "name": "Upgraded",
      "type": "event"
    },
    {
      "inputs": [],
      "name": "DEFAULT_ADMIN_ROLE",
      "outputs": [
        {
          "internalType": "bytes32",
          "name": "",
          "type": "bytes32"
        }
      ],
      "stateMutability": "view",
      "type": "function"
    },
    {
      "inputs": [],
      "name": "__Staking_init",
      "outputs": [],
      "stateMutability": "nonpayable",
      "type": "function"
    },
    {
      "inputs": [
        {
          "internalType": "bytes32",
          "name": "role",
          "type": "bytes32"
        }
      ],
      "name": "getRoleAdmin",
      "outputs": [
        {
          "internalType": "bytes32",
          "name": "",
          "type": "bytes32"
        }
      ],
      "stateMutability": "view",
      "type": "function"
    },
    {
      "inputs": [
        {
          "internalType": "bytes32",
          "name": "role",
          "type": "bytes32"
        },
        {
          "internalType": "address",
          "name": "account",
          "type": "address"
        }
      ],
      "name": "grantRole",
      "outputs": [],
      "stateMutability": "nonpayable",
      "type": "function"
    },
    {
      "inputs": [
        {
          "internalType": "bytes32",
          "name": "role",
          "type": "bytes32"
        },
        {
          "internalType": "address",
          "name": "account",
          "type": "address"
        }
      ],
      "name": "hasRole",
      "outputs": [
        {
          "internalType": "bool",
          "name": "",
          "type": "bool"
        }
      ],
      "stateMutability": "view",
      "type": "function"
    },
    {
      "inputs": [
        {
          "internalType": "address",
          "name": "_user",
          "type": "address"
        },
        {
          "internalType": "address",
          "name": "_token",
          "type": "address"
        },
        {
          "internalType": "uint256",
          "name": "_tokenId",
          "type": "uint256"
        }
      ],
      "name": "isStakedERC721",
      "outputs": [
        {
          "internalType": "bool",
          "name": "",
          "type": "bool"
        }
      ],
      "stateMutability": "view",
      "type": "function"
    },
    {
      "inputs": [
        {
          "internalType": "address",
          "name": "",
          "type": "address"
        },
        {
          "internalType": "address",
          "name": "",
          "type": "address"
        },
        {
          "internalType": "uint256",
          "name": "",
          "type": "uint256"
        },
        {
          "internalType": "bytes",
          "name": "",
          "type": "bytes"
        }
      ],
      "name": "onERC721Received",
      "outputs": [
        {
          "internalType": "bytes4",
          "name": "",
          "type": "bytes4"
        }
      ],
      "stateMutability": "nonpayable",
      "type": "function"
    },
    {
      "inputs": [],
      "name": "owner",
      "outputs": [
        {
          "internalType": "address",
          "name": "",
          "type": "address"
        }
      ],
      "stateMutability": "view",
      "type": "function"
    },
    {
      "inputs": [
        {
          "internalType": "address",
          "name": "_user",
          "type": "address"
        },
        {
          "internalType": "address",
          "name": "_token",
          "type": "address"
        },
        {
          "internalType": "uint256",
          "name": "_blockNumber",
          "type": "uint256"
        }
      ],
      "name": "pastStakingPower",
      "outputs": [
        {
          "internalType": "uint256",
          "name": "",
          "type": "uint256"
        }
      ],
      "stateMutability": "view",
      "type": "function"
    },
    {
      "inputs": [],
      "name": "paused",
      "outputs": [
        {
          "internalType": "bool",
          "name": "",
          "type": "bool"
        }
      ],
      "stateMutability": "view",
      "type": "function"
    },
    {
      "inputs": [],
      "name": "renounceOwnership",
      "outputs": [],
      "stateMutability": "nonpayable",
      "type": "function"
    },
    {
      "inputs": [
        {
          "internalType": "bytes32",
          "name": "role",
          "type": "bytes32"
        },
        {
          "internalType": "address",
          "name": "account",
          "type": "address"
        }
      ],
      "name": "renounceRole",
      "outputs": [],
      "stateMutability": "nonpayable",
      "type": "function"
    },
    {
      "inputs": [
        {
          "internalType": "bytes32",
          "name": "role",
          "type": "bytes32"
        },
        {
          "internalType": "address",
          "name": "account",
          "type": "address"
        }
      ],
      "name": "revokeRole",
      "outputs": [],
      "stateMutability": "nonpayable",
      "type": "function"
    },
    {
      "inputs": [
        {
          "internalType": "address",
          "name": "_token",
          "type": "address"
        },
        {
          "internalType": "uint256",
          "name": "_amount",
          "type": "uint256"
        }
      ],
      "name": "stakeERC20",
      "outputs": [],
      "stateMutability": "nonpayable",
      "type": "function"
    },
    {
      "inputs": [
        {
          "internalType": "address",
          "name": "_token",
          "type": "address"
        },
        {
          "internalType": "uint256",
          "name": "_tokenId",
          "type": "uint256"
        }
      ],
      "name": "stakeERC721",
      "outputs": [],
      "stateMutability": "nonpayable",
      "type": "function"
    },
    {
      "inputs": [
        {
          "internalType": "address",
          "name": "_user",
          "type": "address"
        },
        {
          "internalType": "address",
          "name": "_token",
          "type": "address"
        }
      ],
      "name": "stakedERC20Amount",
      "outputs": [
        {
          "internalType": "uint256",
          "name": "",
          "type": "uint256"
        }
      ],
      "stateMutability": "view",
      "type": "function"
    },
    {
      "inputs": [
        {
          "internalType": "address",
          "name": "_user",
          "type": "address"
        },
        {
          "internalType": "address",
          "name": "_token",
          "type": "address"
        }
      ],
      "name": "stakingPower",
      "outputs": [
        {
          "internalType": "uint256",
          "name": "",
          "type": "uint256"
        }
      ],
      "stateMutability": "view",
      "type": "function"
    },
    {
      "inputs": [
        {
          "internalType": "bytes4",
          "name": "interfaceId",
          "type": "bytes4"
        }
      ],
      "name": "supportsInterface",
      "outputs": [
        {
          "internalType": "bool",
          "name": "",
          "type": "bool"
        }
      ],
      "stateMutability": "view",
      "type": "function"
    },
    {
      "inputs": [
        {
          "internalType": "address",
          "name": "newOwner",
          "type": "address"
        }
      ],
      "name": "transferOwnership",
      "outputs": [],
      "stateMutability": "nonpayable",
      "type": "function"
    },
    {
      "inputs": [
        {
          "internalType": "address",
          "name": "_token",
          "type": "address"
        },
        {
          "internalType": "uint256",
          "name": "_amount",
          "type": "uint256"
        }
      ],
      "name": "unstakeERC20",
      "outputs": [],
      "stateMutability": "nonpayable",
      "type": "function"
    },
    {
      "inputs": [
        {
          "internalType": "address",
          "name": "_token",
          "type": "address"
        },
        {
          "internalType": "uint256",
          "name": "_tokenId",
          "type": "uint256"
        }
      ],
      "name": "unstakeERC721",
      "outputs": [],
      "stateMutability": "nonpayable",
      "type": "function"
    },
    {
      "inputs": [
        {
          "internalType": "address",
          "name": "newImplementation",
          "type": "address"
        }
      ],
      "name": "upgradeTo",
      "outputs": [],
      "stateMutability": "nonpayable",
      "type": "function"
    },
    {
      "inputs": [
        {
          "internalType": "address",
          "name": "newImplementation",
          "type": "address"
        },
        {
          "internalType": "bytes",
          "name": "data",
          "type": "bytes"
        }
      ],
      "name": "upgradeToAndCall",
      "outputs": [],
      "stateMutability": "payable",
      "type": "function"
    },
    {
      "inputs": [],
      "name": "version",
      "outputs": [
        {
          "internalType": "uint256",
          "name": "",
          "type": "uint256"
        }
      ],
      "stateMutability": "view",
      "type": "function"
    }
  ],
  "bytecode": "0x60a06040523060805234801561001457600080fd5b50608051613050610045600039600081816107e00152818161087601528181610a150152610aab01526130506000f3fe60806040526004361061018b5760003560e01c806354781511116100d6578063a217fddf1161007f578063d547741f11610059578063d547741f14610491578063e46f4ead146104b1578063f2fde38b146104d157600080fd5b8063a217fddf1461043c578063bcf4d41614610451578063c581af911461047157600080fd5b8063715018a6116100b0578063715018a6146103b95780638da5cb5b146103ce57806391d14854146103f657600080fd5b8063547815111461036a57806354fd4d501461038a5780635c975abb146103a157600080fd5b80632f2ff15d11610138578063421302dd11610112578063421302dd146103175780634c23648d146103375780634f1ef2861461035757600080fd5b80632f2ff15d146102b757806336568abe146102d75780633659cfe6146102f757600080fd5b806320f77f081161016957806320f77f081461024457806322dc559514610272578063248a9ca31461028757600080fd5b806301ffc9a714610190578063075b52c6146101c5578063150b7a02146101e7575b600080fd5b34801561019c57600080fd5b506101b06101ab366004612a80565b6104f1565b60405190151581526020015b60405180910390f35b3480156101d157600080fd5b506101e56101e0366004612ac6565b610541565b005b3480156101f357600080fd5b5061022b610202366004612b93565b7f150b7a0200000000000000000000000000000000000000000000000000000000949350505050565b6040516001600160e01b031990911681526020016101bc565b34801561025057600080fd5b5061026461025f366004612bfb565b6105aa565b6040519081526020016101bc565b34801561027e57600080fd5b506101e5610610565b34801561029357600080fd5b506102646102a2366004612c2e565b60009081526097602052604090206001015490565b3480156102c357600080fd5b506101e56102d2366004612c47565b610722565b3480156102e357600080fd5b506101e56102f2366004612c47565b61074d565b34801561030357600080fd5b506101e5610312366004612c6a565b6107d5565b34801561032357600080fd5b506101b0610332366004612c85565b610970565b34801561034357600080fd5b506101e5610352366004612ac6565b6109aa565b6101e5610365366004612cc1565b610a0a565b34801561037657600080fd5b50610264610385366004612bfb565b610b95565b34801561039657600080fd5b506102646101915481565b3480156103ad57600080fd5b5060fb5460ff166101b0565b3480156103c557600080fd5b506101e5610bc6565b3480156103da57600080fd5b506033546040516001600160a01b0390911681526020016101bc565b34801561040257600080fd5b506101b0610411366004612c47565b60009182526097602090815260408084206001600160a01b0393909316845291905290205460ff1690565b34801561044857600080fd5b50610264600081565b34801561045d57600080fd5b5061026461046c366004612c85565b610c2c565b34801561047d57600080fd5b506101e561048c366004612ac6565b610c9c565b34801561049d57600080fd5b506101e56104ac366004612c47565b610ca7565b3480156104bd57600080fd5b506101e56104cc366004612ac6565b610ccd565b3480156104dd57600080fd5b506101e56104ec366004612c6a565b610cd8565b60006001600160e01b031982167f7965db0b00000000000000000000000000000000000000000000000000000000148061053b57506301ffc9a760e01b6001600160e01b03198316145b92915050565b61054a82610db7565b61059b5760405162461bcd60e51b815260206004820152601b60248201527f53686f756c642045524337323120746f6b656e2061646472657373000000000060448201526064015b60405180910390fd5b6105a6338383610dec565b5050565b6001600160a01b03811660009081526101c660205260408120546105cf81600a612e09565b6001600160a01b0380861660009081526101c4602090815260408083209388168352929052206105fe90610f6c565b6106089190612e15565b949350505050565b600054610100900460ff1661062b5760005460ff161561062f565b303b155b6106a15760405162461bcd60e51b815260206004820152602e60248201527f496e697469616c697a61626c653a20636f6e747261637420697320616c72656160448201527f647920696e697469616c697a65640000000000000000000000000000000000006064820152608401610592565b600054610100900460ff161580156106e057600080547fffffffffffffffffffffffffffffffffffffffffffffffffffffffffffff0000166101011790555b6106e8610fc8565b6106f0611063565b801561071f57600080547fffffffffffffffffffffffffffffffffffffffffffffffffffffffffffff00ff1690555b50565b60008281526097602052604090206001015461073e81336110d6565b6107488383611156565b505050565b6001600160a01b03811633146107cb5760405162461bcd60e51b815260206004820152602f60248201527f416363657373436f6e74726f6c3a2063616e206f6e6c792072656e6f756e636560448201527f20726f6c657320666f722073656c6600000000000000000000000000000000006064820152608401610592565b6105a682826111f8565b306001600160a01b037f00000000000000000000000000000000000000000000000000000000000000001614156108745760405162461bcd60e51b815260206004820152602c60248201527f46756e6374696f6e206d7573742062652063616c6c6564207468726f7567682060448201527f64656c656761746563616c6c00000000000000000000000000000000000000006064820152608401610592565b7f00000000000000000000000000000000000000000000000000000000000000006001600160a01b03166108cf7f360894a13ba1a3210667c828492db98dca3e2076cc3735a920a3ca505d382bbc546001600160a01b031690565b6001600160a01b03161461094b5760405162461bcd60e51b815260206004820152602c60248201527f46756e6374696f6e206d7573742062652063616c6c6564207468726f7567682060448201527f6163746976652070726f787900000000000000000000000000000000000000006064820152608401610592565b6109548161127b565b6040805160008082526020820190925261071f918391906112d5565b6001600160a01b0380841660009081526101c56020908152604080832093861683529281528282208483529052205460ff165b9392505050565b6109b382610db7565b6109ff5760405162461bcd60e51b815260206004820152601b60248201527f53686f756c642045524337323120746f6b656e206164647265737300000000006044820152606401610592565b6105a6338383611484565b306001600160a01b037f0000000000000000000000000000000000000000000000000000000000000000161415610aa95760405162461bcd60e51b815260206004820152602c60248201527f46756e6374696f6e206d7573742062652063616c6c6564207468726f7567682060448201527f64656c656761746563616c6c00000000000000000000000000000000000000006064820152608401610592565b7f00000000000000000000000000000000000000000000000000000000000000006001600160a01b0316610b047f360894a13ba1a3210667c828492db98dca3e2076cc3735a920a3ca505d382bbc546001600160a01b031690565b6001600160a01b031614610b805760405162461bcd60e51b815260206004820152602c60248201527f46756e6374696f6e206d7573742062652063616c6c6564207468726f7567682060448201527f6163746976652070726f787900000000000000000000000000000000000000006064820152608401610592565b610b898261127b565b6105a6828260016112d5565b6001600160a01b0380831660009081526101c46020908152604080832093851683529290529081206109a390610f6c565b6033546001600160a01b03163314610c205760405162461bcd60e51b815260206004820181905260248201527f4f776e61626c653a2063616c6c6572206973206e6f7420746865206f776e65726044820152606401610592565b610c2a600061158f565b565b6001600160a01b0380841660009081526101c46020908152604080832093861683529290529081208190610c6090846115f9565b6001600160a01b03851660009081526101c66020526040902054909150610c8881600a612e09565b610c929083612e15565b9695505050505050565b6105a6338383611708565b600082815260976020526040902060010154610cc381336110d6565b61074883836111f8565b6105a63383836118d9565b6033546001600160a01b03163314610d325760405162461bcd60e51b815260206004820181905260248201527f4f776e61626c653a2063616c6c6572206973206e6f7420746865206f776e65726044820152606401610592565b6001600160a01b038116610dae5760405162461bcd60e51b815260206004820152602660248201527f4f776e61626c653a206e6577206f776e657220697320746865207a65726f206160448201527f64647265737300000000000000000000000000000000000000000000000000006064820152608401610592565b61071f8161158f565b600061053b6001600160a01b0383167f80ac58cd000000000000000000000000000000000000000000000000000000006119cf565b6001600160a01b0380841660009081526101c56020908152604080832093861683529281528282208483529052205460ff16610e6a5760405162461bcd60e51b815260206004820152601760248201527f53686f756c64206265207374616b6564204552433732310000000000000000006044820152606401610592565b610e7730848460016119eb565b6001600160a01b0383811660008181526101c56020908152604080832094871680845294825280832086845290915290819020805460ff19169055517f42842e0e0000000000000000000000000000000000000000000000000000000081523060048201526024810191909152604481018390526342842e0e90606401600060405180830381600087803b158015610f0e57600080fd5b505af1158015610f22573d6000803e3d6000fd5b5050505080826001600160a01b0316846001600160a01b03167ff42fc84f71459722b71bcf13bcaab8061790b57e1e180944ae338cd2d1f642fd60405160405180910390a4505050565b80546000908015610fb55782610f83600183612e37565b81548110610f9357610f93612e4e565b60009182526020909120015464010000000090046001600160e01b0316610fb8565b60005b6001600160e01b03169392505050565b600054610100900460ff166110335760405162461bcd60e51b815260206004820152602b60248201527f496e697469616c697a61626c653a20636f6e7472616374206973206e6f74206960448201526a6e697469616c697a696e6760a81b6064820152608401610592565b61103b611b60565b611043611bdb565b61104b611c56565b611053611cc9565b61105b611d44565b600161019155565b600054610100900460ff166110ce5760405162461bcd60e51b815260206004820152602b60248201527f496e697469616c697a61626c653a20636f6e7472616374206973206e6f74206960448201526a6e697469616c697a696e6760a81b6064820152608401610592565b610c2a611daf565b60008281526097602090815260408083206001600160a01b038516845290915290205460ff166105a657611114816001600160a01b03166014611e1a565b61111f836020611e1a565b604051602001611130929190612e90565b60408051601f198184030181529082905262461bcd60e51b825261059291600401612f11565b60008281526097602090815260408083206001600160a01b038516845290915290205460ff166105a65760008281526097602090815260408083206001600160a01b03851684529091529020805460ff191660011790556111b43390565b6001600160a01b0316816001600160a01b0316837f2f8788117e7eff1d82e926ec794901d17c78024a50270940304540a733656f0d60405160405180910390a45050565b60008281526097602090815260408083206001600160a01b038516845290915290205460ff16156105a65760008281526097602090815260408083206001600160a01b0385168085529252808320805460ff1916905551339285917ff6391f5c32d9c69d2a47ea670b442974b53935d1edc7fd64eb21e047a839171b9190a45050565b6033546001600160a01b0316331461071f5760405162461bcd60e51b815260206004820181905260248201527f4f776e61626c653a2063616c6c6572206973206e6f7420746865206f776e65726044820152606401610592565b60006113087f360894a13ba1a3210667c828492db98dca3e2076cc3735a920a3ca505d382bbc546001600160a01b031690565b905061131384612043565b6000835111806113205750815b156113315761132f8484612110565b505b7f4910fdfa16fed3260ed0e7147f7cc6da11a60208b5b9406d12a635614ffd9143805460ff1661147d57805460ff191660011781556040516001600160a01b03831660248201526113c990869060440160408051601f198184030181529190526020810180516001600160e01b03167f3659cfe600000000000000000000000000000000000000000000000000000000179052612110565b50805460ff191681557f360894a13ba1a3210667c828492db98dca3e2076cc3735a920a3ca505d382bbc546001600160a01b038381169116146114745760405162461bcd60e51b815260206004820152602f60248201527f45524331393637557067726164653a207570677261646520627265616b73206660448201527f75727468657220757067726164657300000000000000000000000000000000006064820152608401610592565b61147d85612212565b5050505050565b6001600160a01b0382811660008181526101c6602052604080822091909155517f42842e0e000000000000000000000000000000000000000000000000000000008152918516600483015230602483015260448201839052906342842e0e90606401600060405180830381600087803b15801561150057600080fd5b505af1158015611514573d6000803e3d6000fd5b5050505061152583308460016119eb565b6001600160a01b0380841660008181526101c560209081526040808320948716808452948252808320868452909152808220805460ff1916600117905551849392917f37cf53153b223ad8ab091cc144080e0cc9f5a3f9e0444019abb4bb797c87205691a4505050565b603380546001600160a01b038381167fffffffffffffffffffffffff0000000000000000000000000000000000000000831681179093556040519116919082907f8be0079c531659141344cd1fd0a4f28419497f9722a3daafe3b4186f6b6457e090600090a35050565b600043821061164a5760405162461bcd60e51b815260206004820181905260248201527f436865636b706f696e74733a20626c6f636b206e6f7420796574206d696e65646044820152606401610592565b825460005b818110156116af5760006116638284612252565b90508486600001828154811061167b5761167b612e4e565b60009182526020909120015463ffffffff16111561169b578092506116a9565b6116a6816001612f44565b91505b5061164f565b81156116f357846116c1600184612e37565b815481106116d1576116d1612e4e565b60009182526020909120015464010000000090046001600160e01b03166116f6565b60005b6001600160e01b031695945050505050565b6101c66000836001600160a01b03166001600160a01b0316815260200190815260200160002054826001600160a01b031663313ce5676040518163ffffffff1660e01b8152600401602060405180830381865afa15801561176d573d6000803e3d6000fd5b505050506040513d601f19601f820116820180604052508101906117919190612f5c565b60ff16146117e15760405162461bcd60e51b815260206004820152601a60248201527f53686f756c6420455243323020746f6b656e20616464726573730000000000006044820152606401610592565b6001600160a01b0380841660009081526101c460209081526040808320938616835292905220819061181290610f6c565b10156118605760405162461bcd60e51b815260206004820152601f60248201527f53686f756c64206e6f7420657863656564207374616b656420616d6f756e74006044820152606401610592565b61186c308484846119eb565b6118806001600160a01b038316848361226d565b6001600160a01b0382811660008181526101c6602090815260409182902054915185815291938716917f64b8c65ba4b0826e706af9bb160f340bff304df077aeed5c0df8b5ee238f2c2a910160405180910390a4505050565b6000826001600160a01b031663313ce5676040518163ffffffff1660e01b8152600401602060405180830381865afa158015611919573d6000803e3d6000fd5b505050506040513d601f19601f8201168201806040525081019061193d9190612f5c565b6001600160a01b03841660008181526101c66020526040902060ff929092169182905590915061196f908530856122e9565b61197b843085856119eb565b80836001600160a01b0316856001600160a01b03167f192156f4d1a94b319b075c7325f06b279dc2a8672cb03027c22e6360ed295c5f856040516119c191815260200190565b60405180910390a450505050565b60006119da8361233a565b80156109a357506109a3838361236d565b826001600160a01b0316846001600160a01b031614158015611a0d5750600081115b15611b5a576001600160a01b0384163014611ab6576001600160a01b0380851660009081526101c46020908152604080832093861683529290529081208190611a599061244c85612458565b91509150836001600160a01b0316866001600160a01b03167fa8022c9baae39d47d226e7275bdf43ba27a8c2c0c142af8bb0ebe017e1a2d6008484604051611aab929190918252602082015260400190565b60405180910390a350505b6001600160a01b0383163014611b5a576001600160a01b0380841660009081526101c46020908152604080832093861683529290529081208190611afd9061248685612458565b91509150836001600160a01b0316856001600160a01b03167fa8022c9baae39d47d226e7275bdf43ba27a8c2c0c142af8bb0ebe017e1a2d6008484604051611b4f929190918252602082015260400190565b60405180910390a350505b50505050565b600054610100900460ff16611bcb5760405162461bcd60e51b815260206004820152602b60248201527f496e697469616c697a61626c653a20636f6e7472616374206973206e6f74206960448201526a6e697469616c697a696e6760a81b6064820152608401610592565b611bd3611daf565b610c2a612492565b600054610100900460ff16611c465760405162461bcd60e51b815260206004820152602b60248201527f496e697469616c697a61626c653a20636f6e7472616374206973206e6f74206960448201526a6e697469616c697a696e6760a81b6064820152608401610592565b611c4e611daf565b6110ce611daf565b600054610100900460ff16611cc15760405162461bcd60e51b815260206004820152602b60248201527f496e697469616c697a61626c653a20636f6e7472616374206973206e6f74206960448201526a6e697469616c697a696e6760a81b6064820152608401610592565b610c2a612506565b600054610100900460ff16611d345760405162461bcd60e51b815260206004820152602b60248201527f496e697469616c697a61626c653a20636f6e7472616374206973206e6f74206960448201526a6e697469616c697a696e6760a81b6064820152608401610592565b611d3c611daf565b610c2a612578565b600054610100900460ff16611c4e5760405162461bcd60e51b815260206004820152602b60248201527f496e697469616c697a61626c653a20636f6e7472616374206973206e6f74206960448201526a6e697469616c697a696e6760a81b6064820152608401610592565b600054610100900460ff16610c2a5760405162461bcd60e51b815260206004820152602b60248201527f496e697469616c697a61626c653a20636f6e7472616374206973206e6f74206960448201526a6e697469616c697a696e6760a81b6064820152608401610592565b60606000611e29836002612f7f565b611e34906002612f44565b67ffffffffffffffff811115611e4c57611e4c612af0565b6040519080825280601f01601f191660200182016040528015611e76576020820181803683370190505b5090507f300000000000000000000000000000000000000000000000000000000000000081600081518110611ead57611ead612e4e565b60200101907effffffffffffffffffffffffffffffffffffffffffffffffffffffffffffff1916908160001a9053507f780000000000000000000000000000000000000000000000000000000000000081600181518110611f1057611f10612e4e565b60200101907effffffffffffffffffffffffffffffffffffffffffffffffffffffffffffff1916908160001a9053506000611f4c846002612f7f565b611f57906001612f44565b90505b6001811115611ff4577f303132333435363738396162636465660000000000000000000000000000000085600f1660108110611f9857611f98612e4e565b1a60f81b828281518110611fae57611fae612e4e565b60200101907effffffffffffffffffffffffffffffffffffffffffffffffffffffffffffff1916908160001a90535060049490941c93611fed81612f9e565b9050611f5a565b5083156109a35760405162461bcd60e51b815260206004820181905260248201527f537472696e67733a20686578206c656e67746820696e73756666696369656e746044820152606401610592565b803b6120b75760405162461bcd60e51b815260206004820152602d60248201527f455243313936373a206e657720696d706c656d656e746174696f6e206973206e60448201527f6f74206120636f6e7472616374000000000000000000000000000000000000006064820152608401610592565b7f360894a13ba1a3210667c828492db98dca3e2076cc3735a920a3ca505d382bbc80547fffffffffffffffffffffffff0000000000000000000000000000000000000000166001600160a01b0392909216919091179055565b6060823b6121865760405162461bcd60e51b815260206004820152602660248201527f416464726573733a2064656c65676174652063616c6c20746f206e6f6e2d636f60448201527f6e747261637400000000000000000000000000000000000000000000000000006064820152608401610592565b600080846001600160a01b0316846040516121a19190612fb5565b600060405180830381855af49150503d80600081146121dc576040519150601f19603f3d011682016040523d82523d6000602084013e6121e1565b606091505b50915091506122098282604051806060016040528060278152602001612ff4602791396125ef565b95945050505050565b61221b81612043565b6040516001600160a01b038216907fbc7cd75a20ee27fd9adebab32041f755214dbc6bffa90cc0225b39da2e5c2d3b90600090a250565b60006122616002848418612e15565b6109a390848416612f44565b6040516001600160a01b0383166024820152604481018290526107489084907fa9059cbb00000000000000000000000000000000000000000000000000000000906064015b60408051601f198184030181529190526020810180516001600160e01b03166001600160e01b031990931692909217909152612628565b6040516001600160a01b0380851660248301528316604482015260648101829052611b5a9085907f23b872dd00000000000000000000000000000000000000000000000000000000906084016122b2565b600061234d826301ffc9a760e01b61236d565b801561053b5750612366826001600160e01b031961236d565b1592915050565b604080516001600160e01b0319831660248083019190915282518083039091018152604490910182526020810180516001600160e01b03166301ffc9a760e01b179052905160009190829081906001600160a01b03871690617530906123d4908690612fb5565b6000604051808303818686fa925050503d8060008114612410576040519150601f19603f3d011682016040523d82523d6000602084013e612415565b606091505b5091509150602081511015612430576000935050505061053b565b818015610c92575080806020019051810190610c929190612fd1565b60006109a38284612f44565b60008061247a8561247561246b88610f6c565b868863ffffffff16565b61270d565b91509150935093915050565b60006109a38284612e37565b600054610100900460ff166124fd5760405162461bcd60e51b815260206004820152602b60248201527f496e697469616c697a61626c653a20636f6e7472616374206973206e6f74206960448201526a6e697469616c697a696e6760a81b6064820152608401610592565b610c2a3361158f565b600054610100900460ff166125715760405162461bcd60e51b815260206004820152602b60248201527f496e697469616c697a61626c653a20636f6e7472616374206973206e6f74206960448201526a6e697469616c697a696e6760a81b6064820152608401610592565b600160c955565b600054610100900460ff166125e35760405162461bcd60e51b815260206004820152602b60248201527f496e697469616c697a61626c653a20636f6e7472616374206973206e6f74206960448201526a6e697469616c697a696e6760a81b6064820152608401610592565b60fb805460ff19169055565b606083156125fe5750816109a3565b82511561260e5782518084602001fd5b8160405162461bcd60e51b81526004016105929190612f11565b600061267d826040518060400160405280602081526020017f5361666545524332303a206c6f772d6c6576656c2063616c6c206661696c6564815250856001600160a01b03166128339092919063ffffffff16565b805190915015610748578080602001905181019061269b9190612fd1565b6107485760405162461bcd60e51b815260206004820152602a60248201527f5361666545524332303a204552433230206f7065726174696f6e20646964206e60448201527f6f742073756363656564000000000000000000000000000000000000000000006064820152608401610592565b815460009081908161271e86610f6c565b905060008211801561275c57504386612738600185612e37565b8154811061274857612748612e4e565b60009182526020909120015463ffffffff16145b156127bc5761276a85612842565b86612776600185612e37565b8154811061278657612786612e4e565b9060005260206000200160000160046101000a8154816001600160e01b0302191690836001600160e01b0316021790555061282a565b8560000160405180604001604052806127d4436128c5565b63ffffffff1681526020016127e888612842565b6001600160e01b0390811690915282546001810184556000938452602093849020835194909301519091166401000000000263ffffffff909316929092179101555b95939450505050565b60606106088484600085612941565b60006001600160e01b038211156128c15760405162461bcd60e51b815260206004820152602760248201527f53616665436173743a2076616c756520646f65736e27742066697420696e203260448201527f32342062697473000000000000000000000000000000000000000000000000006064820152608401610592565b5090565b600063ffffffff8211156128c15760405162461bcd60e51b815260206004820152602660248201527f53616665436173743a2076616c756520646f65736e27742066697420696e203360448201527f32206269747300000000000000000000000000000000000000000000000000006064820152608401610592565b6060824710156129b95760405162461bcd60e51b815260206004820152602660248201527f416464726573733a20696e73756666696369656e742062616c616e636520666f60448201527f722063616c6c00000000000000000000000000000000000000000000000000006064820152608401610592565b843b612a075760405162461bcd60e51b815260206004820152601d60248201527f416464726573733a2063616c6c20746f206e6f6e2d636f6e74726163740000006044820152606401610592565b600080866001600160a01b03168587604051612a239190612fb5565b60006040518083038185875af1925050503d8060008114612a60576040519150601f19603f3d011682016040523d82523d6000602084013e612a65565b606091505b5091509150612a758282866125ef565b979650505050505050565b600060208284031215612a9257600080fd5b81356001600160e01b0319811681146109a357600080fd5b80356001600160a01b0381168114612ac157600080fd5b919050565b60008060408385031215612ad957600080fd5b612ae283612aaa565b946020939093013593505050565b634e487b7160e01b600052604160045260246000fd5b600082601f830112612b1757600080fd5b813567ffffffffffffffff80821115612b3257612b32612af0565b604051601f8301601f19908116603f01168101908282118183101715612b5a57612b5a612af0565b81604052838152866020858801011115612b7357600080fd5b836020870160208301376000602085830101528094505050505092915050565b60008060008060808587031215612ba957600080fd5b612bb285612aaa565b9350612bc060208601612aaa565b925060408501359150606085013567ffffffffffffffff811115612be357600080fd5b612bef87828801612b06565b91505092959194509250565b60008060408385031215612c0e57600080fd5b612c1783612aaa565b9150612c2560208401612aaa565b90509250929050565b600060208284031215612c4057600080fd5b5035919050565b60008060408385031215612c5a57600080fd5b82359150612c2560208401612aaa565b600060208284031215612c7c57600080fd5b6109a382612aaa565b600080600060608486031215612c9a57600080fd5b612ca384612aaa565b9250612cb160208501612aaa565b9150604084013590509250925092565b60008060408385031215612cd457600080fd5b612cdd83612aaa565b9150602083013567ffffffffffffffff811115612cf957600080fd5b612d0585828601612b06565b9150509250929050565b634e487b7160e01b600052601160045260246000fd5b600181815b80851115612d60578160001904821115612d4657612d46612d0f565b80851615612d5357918102915b93841c9390800290612d2a565b509250929050565b600082612d775750600161053b565b81612d845750600061053b565b8160018114612d9a5760028114612da457612dc0565b600191505061053b565b60ff841115612db557612db5612d0f565b50506001821b61053b565b5060208310610133831016604e8410600b8410161715612de3575081810a61053b565b612ded8383612d25565b8060001904821115612e0157612e01612d0f565b029392505050565b60006109a38383612d68565b600082612e3257634e487b7160e01b600052601260045260246000fd5b500490565b600082821015612e4957612e49612d0f565b500390565b634e487b7160e01b600052603260045260246000fd5b60005b83811015612e7f578181015183820152602001612e67565b83811115611b5a5750506000910152565b7f416363657373436f6e74726f6c3a206163636f756e7420000000000000000000815260008351612ec8816017850160208801612e64565b7f206973206d697373696e6720726f6c65200000000000000000000000000000006017918401918201528351612f05816028840160208801612e64565b01602801949350505050565b6020815260008251806020840152612f30816040850160208701612e64565b601f01601f19169190910160400192915050565b60008219821115612f5757612f57612d0f565b500190565b600060208284031215612f6e57600080fd5b815160ff811681146109a357600080fd5b6000816000190483118215151615612f9957612f99612d0f565b500290565b600081612fad57612fad612d0f565b506000190190565b60008251612fc7818460208701612e64565b9190910192915050565b600060208284031215612fe357600080fd5b815180151581146109a357600080fdfe416464726573733a206c6f772d6c6576656c2064656c65676174652063616c6c206661696c6564a26469706673582212200912360016f175de40d42259c096d4b5d403a902361d0b90fe4da7cdbe6fce5964736f6c634300080b0033",
  "linkReferences": {},
  "deployedLinkReferences": {}
}