{
  "_format": "hh-sol-artifact-1",
  "contractName": "EtherZDAO",
  "sourceName": "contracts/ethereum/EtherZDAO.sol",
  "abi": [
    {
      "anonymous": false,
      "inputs": [
        {
          "indexed": false,
          "internalType": "address",
          "name": "previousAdmin",
          "type": "address"
        },
        {
          "indexed": false,
          "internalType": "address",
          "name": "newAdmin",
          "type": "address"
        }
      ],
      "name": "AdminChanged",
      "type": "event"
    },
    {
      "anonymous": false,
      "inputs": [
        {
          "indexed": true,
          "internalType": "address",
          "name": "beacon",
          "type": "address"
        }
      ],
      "name": "BeaconUpgraded",
      "type": "event"
    },
    {
      "anonymous": false,
      "inputs": [
        {
          "indexed": true,
          "internalType": "address",
          "name": "previousOwner",
          "type": "address"
        },
        {
          "indexed": true,
          "internalType": "address",
          "name": "newOwner",
          "type": "address"
        }
      ],
      "name": "OwnershipTransferred",
      "type": "event"
    },
    {
      "anonymous": false,
      "inputs": [
        {
          "indexed": false,
          "internalType": "address",
          "name": "account",
          "type": "address"
        }
      ],
      "name": "Paused",
      "type": "event"
    },
    {
      "anonymous": false,
      "inputs": [
        {
          "indexed": true,
          "internalType": "bytes32",
          "name": "role",
          "type": "bytes32"
        },
        {
          "indexed": true,
          "internalType": "bytes32",
          "name": "previousAdminRole",
          "type": "bytes32"
        },
        {
          "indexed": true,
          "internalType": "bytes32",
          "name": "newAdminRole",
          "type": "bytes32"
        }
      ],
      "name": "RoleAdminChanged",
      "type": "event"
    },
    {
      "anonymous": false,
      "inputs": [
        {
          "indexed": true,
          "internalType": "bytes32",
          "name": "role",
          "type": "bytes32"
        },
        {
          "indexed": true,
          "internalType": "address",
          "name": "account",
          "type": "address"
        },
        {
          "indexed": true,
          "internalType": "address",
          "name": "sender",
          "type": "address"
        }
      ],
      "name": "RoleGranted",
      "type": "event"
    },
    {
      "anonymous": false,
      "inputs": [
        {
          "indexed": true,
          "internalType": "bytes32",
          "name": "role",
          "type": "bytes32"
        },
        {
          "indexed": true,
          "internalType": "address",
          "name": "account",
          "type": "address"
        },
        {
          "indexed": true,
          "internalType": "address",
          "name": "sender",
          "type": "address"
        }
      ],
      "name": "RoleRevoked",
      "type": "event"
    },
    {
      "anonymous": false,
      "inputs": [
        {
          "indexed": false,
          "internalType": "address",
          "name": "account",
          "type": "address"
        }
      ],
      "name": "Unpaused",
      "type": "event"
    },
    {
      "anonymous": false,
      "inputs": [
        {
          "indexed": true,
          "internalType": "address",
          "name": "implementation",
          "type": "address"
        }
      ],
      "name": "Upgraded",
      "type": "event"
    },
    {
      "inputs": [],
      "name": "DEFAULT_ADMIN_ROLE",
      "outputs": [
        {
          "internalType": "bytes32",
          "name": "",
          "type": "bytes32"
        }
      ],
      "stateMutability": "view",
      "type": "function"
    },
    {
      "inputs": [
        {
          "internalType": "address",
          "name": "_zDAOChef",
          "type": "address"
        },
        {
          "internalType": "uint256",
          "name": "_zDAOId",
          "type": "uint256"
        },
        {
          "internalType": "address",
          "name": "_createdBy",
          "type": "address"
        },
        {
          "components": [
            {
              "internalType": "string",
              "name": "title",
              "type": "string"
            },
            {
              "internalType": "address",
              "name": "gnosisSafe",
              "type": "address"
            },
            {
              "internalType": "address",
              "name": "token",
              "type": "address"
            },
            {
              "internalType": "uint256",
              "name": "amount",
              "type": "uint256"
            },
            {
              "internalType": "uint256",
              "name": "duration",
              "type": "uint256"
            },
            {
              "internalType": "uint256",
              "name": "votingThreshold",
              "type": "uint256"
            },
            {
              "internalType": "uint256",
              "name": "minimumVotingParticipants",
              "type": "uint256"
            },
            {
              "internalType": "uint256",
              "name": "minimumTotalVotingTokens",
              "type": "uint256"
            },
            {
              "internalType": "bool",
              "name": "isRelativeMajority",
              "type": "bool"
            }
          ],
          "internalType": "struct IEtherZDAOChef.ZDAOConfig",
          "name": "_zDAOConfig",
          "type": "tuple"
        }
      ],
      "name": "__ZDAO_init",
      "outputs": [],
      "stateMutability": "nonpayable",
      "type": "function"
    },
    {
      "inputs": [
        {
          "internalType": "address",
          "name": "",
          "type": "address"
        },
        {
          "internalType": "uint256",
          "name": "_proposalId",
          "type": "uint256"
        }
      ],
      "name": "cancelProposal",
      "outputs": [],
      "stateMutability": "nonpayable",
      "type": "function"
    },
    {
      "inputs": [
        {
          "internalType": "uint256",
          "name": "_proposalId",
          "type": "uint256"
        },
        {
          "internalType": "uint256",
          "name": "_voters",
          "type": "uint256"
        },
        {
          "internalType": "uint256",
          "name": "_yes",
          "type": "uint256"
        },
        {
          "internalType": "uint256",
          "name": "_no",
          "type": "uint256"
        }
      ],
      "name": "collectProposal",
      "outputs": [],
      "stateMutability": "nonpayable",
      "type": "function"
    },
    {
      "inputs": [
        {
          "internalType": "address",
          "name": "_createdBy",
          "type": "address"
        },
        {
          "internalType": "string",
          "name": "_ipfs",
          "type": "string"
        }
      ],
      "name": "createProposal",
      "outputs": [
        {
          "internalType": "uint256",
          "name": "",
          "type": "uint256"
        }
      ],
      "stateMutability": "nonpayable",
      "type": "function"
    },
    {
      "inputs": [],
      "name": "destroyed",
      "outputs": [
        {
          "internalType": "bool",
          "name": "",
          "type": "bool"
        }
      ],
      "stateMutability": "view",
      "type": "function"
    },
    {
      "inputs": [
        {
          "internalType": "address",
          "name": "_executeBy",
          "type": "address"
        },
        {
          "internalType": "uint256",
          "name": "_proposalId",
          "type": "uint256"
        }
      ],
      "name": "executeProposal",
      "outputs": [],
      "stateMutability": "nonpayable",
      "type": "function"
    },
    {
      "inputs": [
        {
          "internalType": "bytes32",
          "name": "role",
          "type": "bytes32"
        }
      ],
      "name": "getRoleAdmin",
      "outputs": [
        {
          "internalType": "bytes32",
          "name": "",
          "type": "bytes32"
        }
      ],
      "stateMutability": "view",
      "type": "function"
    },
    {
      "inputs": [
        {
          "internalType": "bytes32",
          "name": "role",
          "type": "bytes32"
        },
        {
          "internalType": "address",
          "name": "account",
          "type": "address"
        }
      ],
      "name": "grantRole",
      "outputs": [],
      "stateMutability": "nonpayable",
      "type": "function"
    },
    {
      "inputs": [
        {
          "internalType": "bytes32",
          "name": "role",
          "type": "bytes32"
        },
        {
          "internalType": "address",
          "name": "account",
          "type": "address"
        }
      ],
      "name": "hasRole",
      "outputs": [
        {
          "internalType": "bool",
          "name": "",
          "type": "bool"
        }
      ],
      "stateMutability": "view",
      "type": "function"
    },
    {
      "inputs": [],
      "name": "lastProposalId",
      "outputs": [
        {
          "internalType": "uint256",
          "name": "",
          "type": "uint256"
        }
      ],
      "stateMutability": "view",
      "type": "function"
    },
    {
      "inputs": [
        {
          "internalType": "uint256",
          "name": "_startIndex",
          "type": "uint256"
        },
        {
          "internalType": "uint256",
          "name": "_count",
          "type": "uint256"
        }
      ],
      "name": "listProposals",
      "outputs": [
        {
          "components": [
            {
              "internalType": "uint256",
              "name": "proposalId",
              "type": "uint256"
            },
            {
              "internalType": "address",
              "name": "createdBy",
              "type": "address"
            },
            {
              "internalType": "uint256",
              "name": "yes",
              "type": "uint256"
            },
            {
              "internalType": "uint256",
              "name": "no",
              "type": "uint256"
            },
            {
              "internalType": "uint256",
              "name": "voters",
              "type": "uint256"
            },
            {
              "internalType": "string",
              "name": "ipfs",
              "type": "string"
            },
            {
              "internalType": "uint256",
              "name": "snapshot",
              "type": "uint256"
            },
            {
              "internalType": "bool",
              "name": "collected",
              "type": "bool"
            },
            {
              "internalType": "bool",
              "name": "executed",
              "type": "bool"
            },
            {
              "internalType": "bool",
              "name": "canceled",
              "type": "bool"
            }
          ],
          "internalType": "struct IEtherZDAO.Proposal[]",
          "name": "records",
          "type": "tuple[]"
        }
      ],
      "stateMutability": "view",
      "type": "function"
    },
    {
      "inputs": [],
      "name": "numberOfProposals",
      "outputs": [
        {
          "internalType": "uint256",
          "name": "",
          "type": "uint256"
        }
      ],
      "stateMutability": "view",
      "type": "function"
    },
    {
      "inputs": [],
      "name": "owner",
      "outputs": [
        {
          "internalType": "address",
          "name": "",
          "type": "address"
        }
      ],
      "stateMutability": "view",
      "type": "function"
    },
    {
      "inputs": [],
      "name": "paused",
      "outputs": [
        {
          "internalType": "bool",
          "name": "",
          "type": "bool"
        }
      ],
      "stateMutability": "view",
      "type": "function"
    },
    {
      "inputs": [
        {
          "internalType": "uint256",
          "name": "",
          "type": "uint256"
        }
      ],
      "name": "proposalIds",
      "outputs": [
        {
          "internalType": "uint256",
          "name": "",
          "type": "uint256"
        }
      ],
      "stateMutability": "view",
      "type": "function"
    },
    {
      "inputs": [
        {
          "internalType": "uint256",
          "name": "",
          "type": "uint256"
        }
      ],
      "name": "proposals",
      "outputs": [
        {
          "internalType": "uint256",
          "name": "proposalId",
          "type": "uint256"
        },
        {
          "internalType": "address",
          "name": "createdBy",
          "type": "address"
        },
        {
          "internalType": "uint256",
          "name": "yes",
          "type": "uint256"
        },
        {
          "internalType": "uint256",
          "name": "no",
          "type": "uint256"
        },
        {
          "internalType": "uint256",
          "name": "voters",
          "type": "uint256"
        },
        {
          "internalType": "string",
          "name": "ipfs",
          "type": "string"
        },
        {
          "internalType": "uint256",
          "name": "snapshot",
          "type": "uint256"
        },
        {
          "internalType": "bool",
          "name": "collected",
          "type": "bool"
        },
        {
          "internalType": "bool",
          "name": "executed",
          "type": "bool"
        },
        {
          "internalType": "bool",
          "name": "canceled",
          "type": "bool"
        }
      ],
      "stateMutability": "view",
      "type": "function"
    },
    {
      "inputs": [],
      "name": "renounceOwnership",
      "outputs": [],
      "stateMutability": "nonpayable",
      "type": "function"
    },
    {
      "inputs": [
        {
          "internalType": "bytes32",
          "name": "role",
          "type": "bytes32"
        },
        {
          "internalType": "address",
          "name": "account",
          "type": "address"
        }
      ],
      "name": "renounceRole",
      "outputs": [],
      "stateMutability": "nonpayable",
      "type": "function"
    },
    {
      "inputs": [
        {
          "internalType": "bytes32",
          "name": "role",
          "type": "bytes32"
        },
        {
          "internalType": "address",
          "name": "account",
          "type": "address"
        }
      ],
      "name": "revokeRole",
      "outputs": [],
      "stateMutability": "nonpayable",
      "type": "function"
    },
    {
      "inputs": [
        {
          "internalType": "bool",
          "name": "_destroyed",
          "type": "bool"
        }
      ],
      "name": "setDestroyed",
      "outputs": [],
      "stateMutability": "nonpayable",
      "type": "function"
    },
    {
      "inputs": [
        {
          "internalType": "address",
          "name": "_gnosisSafe",
          "type": "address"
        }
      ],
      "name": "setGnosisSafe",
      "outputs": [],
      "stateMutability": "nonpayable",
      "type": "function"
    },
    {
      "inputs": [
        {
          "internalType": "address",
          "name": "_token",
          "type": "address"
        },
        {
          "internalType": "uint256",
          "name": "_amount",
          "type": "uint256"
        }
      ],
      "name": "setVotingToken",
      "outputs": [],
      "stateMutability": "nonpayable",
      "type": "function"
    },
    {
      "inputs": [
        {
          "internalType": "uint256",
          "name": "_proposalId",
          "type": "uint256"
        }
      ],
      "name": "state",
      "outputs": [
        {
          "internalType": "enum IEtherZDAO.ProposalState",
          "name": "",
          "type": "uint8"
        }
      ],
      "stateMutability": "view",
      "type": "function"
    },
    {
      "inputs": [
        {
          "internalType": "bytes4",
          "name": "interfaceId",
          "type": "bytes4"
        }
      ],
      "name": "supportsInterface",
      "outputs": [
        {
          "internalType": "bool",
          "name": "",
          "type": "bool"
        }
      ],
      "stateMutability": "view",
      "type": "function"
    },
    {
      "inputs": [
        {
          "internalType": "address",
          "name": "newOwner",
          "type": "address"
        }
      ],
      "name": "transferOwnership",
      "outputs": [],
      "stateMutability": "nonpayable",
      "type": "function"
    },
    {
      "inputs": [
        {
          "internalType": "address",
          "name": "newImplementation",
          "type": "address"
        }
      ],
      "name": "upgradeTo",
      "outputs": [],
      "stateMutability": "nonpayable",
      "type": "function"
    },
    {
      "inputs": [
        {
          "internalType": "address",
          "name": "newImplementation",
          "type": "address"
        },
        {
          "internalType": "bytes",
          "name": "data",
          "type": "bytes"
        }
      ],
      "name": "upgradeToAndCall",
      "outputs": [],
      "stateMutability": "payable",
      "type": "function"
    },
    {
      "inputs": [],
      "name": "version",
      "outputs": [
        {
          "internalType": "uint256",
          "name": "",
          "type": "uint256"
        }
      ],
      "stateMutability": "view",
      "type": "function"
    },
    {
      "inputs": [],
      "name": "zDAOChef",
      "outputs": [
        {
          "internalType": "address",
          "name": "",
          "type": "address"
        }
      ],
      "stateMutability": "view",
      "type": "function"
    },
    {
      "inputs": [],
      "name": "zDAOInfo",
      "outputs": [
        {
          "internalType": "uint256",
          "name": "zDAOId",
          "type": "uint256"
        },
        {
          "internalType": "string",
          "name": "title",
          "type": "string"
        },
        {
          "internalType": "address",
          "name": "createdBy",
          "type": "address"
        },
        {
          "internalType": "address",
          "name": "gnosisSafe",
          "type": "address"
        },
        {
          "internalType": "address",
          "name": "token",
          "type": "address"
        },
        {
          "internalType": "uint256",
          "name": "amount",
          "type": "uint256"
        },
        {
          "internalType": "uint256",
          "name": "duration",
          "type": "uint256"
        },
        {
          "internalType": "uint256",
          "name": "votingThreshold",
          "type": "uint256"
        },
        {
          "internalType": "uint256",
          "name": "minimumVotingParticipants",
          "type": "uint256"
        },
        {
          "internalType": "uint256",
          "name": "minimumTotalVotingTokens",
          "type": "uint256"
        },
        {
          "internalType": "uint256",
          "name": "snapshot",
          "type": "uint256"
        },
        {
          "internalType": "bool",
          "name": "isRelativeMajority",
          "type": "bool"
        },
        {
          "internalType": "bool",
          "name": "destroyed",
          "type": "bool"
        }
      ],
      "stateMutability": "view",
      "type": "function"
    },
    {
      "inputs": [],
      "name": "zDAOOwner",
      "outputs": [
        {
          "internalType": "address",
          "name": "",
          "type": "address"
        }
      ],
      "stateMutability": "view",
      "type": "function"
    }
  ],
  "bytecode": "0x60a06040523060805234801561001457600080fd5b5060805161374c61004560003960008181610dda01528181610e70015281816111c6015261125c015261374c6000f3fe6080604052600436106101e35760003560e01c80635c975abb1161010257806393850b4411610095578063c3085a3e11610064578063c3085a3e146105c0578063d547741f146105e0578063d8191e6c14610600578063f2fde38b1461062e57600080fd5b806393850b441461054b5780639b644a231461056b578063a217fddf1461058b578063bfc42645146105a057600080fd5b80638d7af473116100d15780638d7af473146104b05780638da5cb5b146104c657806390bfeab3146104e457806391d148541461050557600080fd5b80635c975abb1461043f578063715018a61461045757806374cb30411461046c5780637f6dda141461048357600080fd5b8063359cbbc91161017a578063472858b411610149578063472858b4146103d55780634f1ef286146103f5578063533507551461040857806354fd4d501461042857600080fd5b8063359cbbc91461034a57806336568abe146103685780633659cfe6146103885780633e4f49e6146103a857600080fd5b80631f4f7d29116101b65780631f4f7d29146102ac578063248a9ca3146102da5780632864cdbf1461030a5780632f2ff15d1461032a57600080fd5b8063013cf08b146101e857806301ffc9a714610227578063116b1a0914610257578063137f415b1461028a575b600080fd5b3480156101f457600080fd5b50610208610203366004612eac565b61064e565b60405161021e9a99989796959493929190612f21565b60405180910390f35b34801561023357600080fd5b50610247610242366004612f8a565b61073b565b604051901515815260200161021e565b34801561026357600080fd5b50610194546001600160a01b03165b6040516001600160a01b03909116815260200161021e565b34801561029657600080fd5b506102aa6102a5366004612fe8565b6107d4565b005b3480156102b857600080fd5b506102cc6102c7366004613012565b61085a565b60405190815260200161021e565b3480156102e657600080fd5b506102cc6102f5366004612eac565b60009081526097602052604090206001015490565b34801561031657600080fd5b506102aa610325366004613095565b610a29565b34801561033657600080fd5b506102aa610345366004613103565b610d18565b34801561035657600080fd5b5061019d54610100900460ff16610247565b34801561037457600080fd5b506102aa610383366004613103565b610d43565b34801561039457600080fd5b506102aa6103a336600461312f565b610dcf565b3480156103b457600080fd5b506103c86103c3366004612eac565b610f6d565b60405161021e9190613160565b3480156103e157600080fd5b506102aa6103f0366004613188565b611154565b6102aa6104033660046131c0565b6111bb565b34801561041457600080fd5b506102aa610423366004612fe8565b611346565b34801561043457600080fd5b506102cc6101915481565b34801561044b57600080fd5b5060fb5460ff16610247565b34801561046357600080fd5b506102aa611537565b34801561047857600080fd5b506102cc61019e5481565b34801561048f57600080fd5b506104a361049e366004613282565b61159d565b60405161021e91906132a4565b3480156104bc57600080fd5b5061019e546102cc565b3480156104d257600080fd5b506033546001600160a01b0316610272565b3480156104f057600080fd5b506101a154610272906001600160a01b031681565b34801561051157600080fd5b50610247610520366004613103565b60009182526097602090815260408084206001600160a01b0393909316845291905290205460ff1690565b34801561055757600080fd5b506102aa6105663660046133ad565b6117fe565b34801561057757600080fd5b506102cc610586366004612eac565b611a0b565b34801561059757600080fd5b506102cc600081565b3480156105ac57600080fd5b506102aa6105bb366004612fe8565b611a2d565b3480156105cc57600080fd5b506102aa6105db36600461312f565b611c1c565b3480156105ec57600080fd5b506102aa6105fb366004613103565b611c98565b34801561060c57600080fd5b50610615611cbe565b60405161021e9d9c9b9a999897969594939291906133df565b34801561063a57600080fd5b506102aa61064936600461312f565b611db2565b61019f6020526000908152604090208054600182015460028301546003840154600485015460058601805495966001600160a01b0390951695939492939192916106979061346e565b80601f01602080910402602001604051908101604052809291908181526020018280546106c39061346e565b80156107105780601f106106e557610100808354040283529160200191610710565b820191906000526020600020905b8154815290600101906020018083116106f357829003601f168201915b50505050600683015460079093015491929160ff80821692506101008204811691620100009004168a565b60007fffffffff0000000000000000000000000000000000000000000000000000000082167f7965db0b0000000000000000000000000000000000000000000000000000000014806107ce57507f01ffc9a7000000000000000000000000000000000000000000000000000000007fffffffff000000000000000000000000000000000000000000000000000000008316145b92915050565b6101a1546001600160a01b031633146108255760405162461bcd60e51b815260206004820152600e60248201526d2737ba1030902d2220a7a1b432b360911b60448201526064015b60405180910390fd5b610196805473ffffffffffffffffffffffffffffffffffffffff19166001600160a01b03939093169290921790915561019755565b6101a1546000906001600160a01b031633146108a95760405162461bcd60e51b815260206004820152600e60248201526d2737ba1030902d2220a7a1b432b360911b604482015260640161081c565b61019d54610100900460ff16156109025760405162461bcd60e51b815260206004820152601160248201527f416c72656164792064657374726f796564000000000000000000000000000000604482015260640161081c565b61019754610196546040517f70a082310000000000000000000000000000000000000000000000000000000081526001600160a01b03808816600483015287939216906370a0823190602401602060405180830381865afa15801561096b573d6000803e3d6000fd5b505050506040513d601f19601f8201168201806040525081019061098f91906134a9565b10156109dd5760405162461bcd60e51b815260206004820152601860248201527f4e6f7420612076616c696420746f6b656e20686f6c6465720000000000000000604482015260640161081c565b6000610a1f8686868080601f016020809104026020016040519081016040528093929190818152602001838380828437600092019190915250611e9192505050565b9695505050505050565b600054610100900460ff16610a445760005460ff1615610a48565b303b155b610aba5760405162461bcd60e51b815260206004820152602e60248201527f496e697469616c697a61626c653a20636f6e747261637420697320616c72656160448201527f647920696e697469616c697a6564000000000000000000000000000000000000606482015260840161081c565b600054610100900460ff16158015610adc576000805461ffff19166101011790555b610ae4612001565b6101a1805473ffffffffffffffffffffffffffffffffffffffff19166001600160a01b038716179055604080516101a0810190915284815260208101610b2a84806134c2565b8080601f0160208091040260200160405190810160405280939291908181526020018383808284376000920191909152505050908252506001600160a01b038516602080830191909152604091820191610b899190860190860161312f565b6001600160a01b03168152602001610ba7606085016040860161312f565b6001600160a01b0316815260200183606001358152602001836080013581526020018360a0013581526020018360c0013581526020018360e00135815260200143815260200183610100016020810190610c019190613188565b15158152600060209182015281516101929081558282015180519192610c2e926101939290910190612e13565b5060408201516002820180546001600160a01b0392831673ffffffffffffffffffffffffffffffffffffffff19918216179091556060840151600384018054918416918316919091179055608084015160048401805491909316911617905560a0820151600582015560c0820151600682015560e082015160078201556101008083015160088301556101208301516009830155610140830151600a830155610160830151600b909201805461018090940151151590910261ff00199215159290921661ffff19909316929092171790558015610d11576000805461ff00191690555b5050505050565b600082815260976020526040902060010154610d3481336120d8565b610d3e8383612158565b505050565b6001600160a01b0381163314610dc15760405162461bcd60e51b815260206004820152602f60248201527f416363657373436f6e74726f6c3a2063616e206f6e6c792072656e6f756e636560448201527f20726f6c657320666f722073656c660000000000000000000000000000000000606482015260840161081c565b610dcb82826121fa565b5050565b306001600160a01b037f0000000000000000000000000000000000000000000000000000000000000000161415610e6e5760405162461bcd60e51b815260206004820152602c60248201527f46756e6374696f6e206d7573742062652063616c6c6564207468726f7567682060448201527f64656c656761746563616c6c0000000000000000000000000000000000000000606482015260840161081c565b7f00000000000000000000000000000000000000000000000000000000000000006001600160a01b0316610ec97f360894a13ba1a3210667c828492db98dca3e2076cc3735a920a3ca505d382bbc546001600160a01b031690565b6001600160a01b031614610f455760405162461bcd60e51b815260206004820152602c60248201527f46756e6374696f6e206d7573742062652063616c6c6564207468726f7567682060448201527f6163746976652070726f78790000000000000000000000000000000000000000606482015260840161081c565b610f4e8161227d565b60408051600080825260208201909252610f6a918391906122d7565b50565b600081815261019f60205260408120600781015462010000900460ff1615610f985750600292915050565b6007810154610100900460ff1615610fb35750600392915050565b600781015460ff16610fc85750600092915050565b61019a5460048201541080610ff2575061019b5460038201546002830154610ff09190613544565b105b156110005750600492915050565b61019d5460ff16801561102657506000816003015482600201546110249190613544565b115b8015611063575061019954600382015460028301546110459190613544565b60028301546110569061271061355c565b611060919061357b565b10155b156110715750600592915050565b61019654604080517f18160ddd00000000000000000000000000000000000000000000000000000000815290516000926001600160a01b0316916318160ddd9160048281019260209291908290030181865afa1580156110d5573d6000803e3d6000fd5b505050506040513d601f19601f820116820180604052508101906110f991906134a9565b61019d5490915060ff161580156111105750600081115b801561113b5750610199546002830154829061112e9061271061355c565b611138919061357b565b10155b1561114a575060059392505050565b5060049392505050565b6101a1546001600160a01b031633146111a05760405162461bcd60e51b815260206004820152600e60248201526d2737ba1030902d2220a7a1b432b360911b604482015260640161081c565b61019d80549115156101000261ff0019909216919091179055565b306001600160a01b037f000000000000000000000000000000000000000000000000000000000000000016141561125a5760405162461bcd60e51b815260206004820152602c60248201527f46756e6374696f6e206d7573742062652063616c6c6564207468726f7567682060448201527f64656c656761746563616c6c0000000000000000000000000000000000000000606482015260840161081c565b7f00000000000000000000000000000000000000000000000000000000000000006001600160a01b03166112b57f360894a13ba1a3210667c828492db98dca3e2076cc3735a920a3ca505d382bbc546001600160a01b031690565b6001600160a01b0316146113315760405162461bcd60e51b815260206004820152602c60248201527f46756e6374696f6e206d7573742062652063616c6c6564207468726f7567682060448201527f6163746976652070726f78790000000000000000000000000000000000000000606482015260840161081c565b61133a8261227d565b610dcb828260016122d7565b6101a1546001600160a01b031633146113925760405162461bcd60e51b815260206004820152600e60248201526d2737ba1030902d2220a7a1b432b360911b604482015260640161081c565b61019d54610100900460ff16156113eb5760405162461bcd60e51b815260206004820152601160248201527f416c72656164792064657374726f796564000000000000000000000000000000604482015260640161081c565b806000811180156113ff575061019e548111155b61144b5760405162461bcd60e51b815260206004820152600c60248201527f496e76616c6964207a44414f0000000000000000000000000000000000000000604482015260640161081c565b604051631f27a4f360e11b8152600481018390526000903090633e4f49e690602401602060405180830381865afa15801561148a573d6000803e3d6000fd5b505050506040513d601f19601f820116820180604052508101906114ae919061359d565b905060008160058111156114c4576114c461314a565b146115115760405162461bcd60e51b815260206004820152601660248201527f4e6f7420612070656e64696e672070726f706f73616c00000000000000000000604482015260640161081c565b5050600090815261019f60205260409020600701805462ff000019166201000017905550565b6033546001600160a01b031633146115915760405162461bcd60e51b815260206004820181905260248201527f4f776e61626c653a2063616c6c6572206973206e6f7420746865206f776e6572604482015260640161081c565b61159b6000612494565b565b61019e5460609082906115b19085906135be565b8111156115ca578361019e546115c791906135be565b90505b8067ffffffffffffffff8111156115e3576115e36131aa565b60405190808252806020026020018201604052801561167957816020015b6116666040518061014001604052806000815260200160006001600160a01b0316815260200160008152602001600081526020016000815260200160608152602001600081526020016000151581526020016000151581526020016000151581525090565b8152602001906001900390816116015790505b50915060005b818110156117f65761019f60006116968388613544565b6116a1906001613544565b815260208082019290925260409081016000208151610140810183528154815260018201546001600160a01b031693810193909352600281015491830191909152600381015460608301526004810154608083015260058101805460a08401919061170b9061346e565b80601f01602080910402602001604051908101604052809291908181526020018280546117379061346e565b80156117845780601f1061175957610100808354040283529160200191611784565b820191906000526020600020905b81548152906001019060200180831161176757829003601f168201915b50505091835250506006820154602082015260079091015460ff8082161515604084015261010082048116151560608401526201000090910416151560809091015283518490839081106117da576117da6135d5565b6020026020010181905250806117ef906135eb565b905061167f565b505092915050565b6101a1546001600160a01b0316331461184a5760405162461bcd60e51b815260206004820152600e60248201526d2737ba1030902d2220a7a1b432b360911b604482015260640161081c565b8360008111801561185e575061019e548111155b6118aa5760405162461bcd60e51b815260206004820152600c60248201527f496e76616c6964207a44414f0000000000000000000000000000000000000000604482015260640161081c565b600085815261019f60205260409020600781015460ff161561190e5760405162461bcd60e51b815260206004820152601a60248201527f416c726561647920636f6c6c65637465642070726f706f73616c000000000000604482015260640161081c565b604051631f27a4f360e11b8152600481018790526000903090633e4f49e690602401602060405180830381865afa15801561194d573d6000803e3d6000fd5b505050506040513d601f19601f82011682018060405250810190611971919061359d565b905060008160058111156119875761198761314a565b146119d45760405162461bcd60e51b815260206004820152601660248201527f4e6f7420612070656e64696e672070726f706f73616c00000000000000000000604482015260640161081c565b506004810194909455506002830191909155600390910155600090815261019f60205260409020600701805460ff19166001179055565b6101a08181548110611a1c57600080fd5b600091825260209091200154905081565b6101a1546001600160a01b03163314611a795760405162461bcd60e51b815260206004820152600e60248201526d2737ba1030902d2220a7a1b432b360911b604482015260640161081c565b61019d54610100900460ff1615611ad25760405162461bcd60e51b815260206004820152601160248201527f416c72656164792064657374726f796564000000000000000000000000000000604482015260640161081c565b80600081118015611ae6575061019e548111155b611b325760405162461bcd60e51b815260206004820152600c60248201527f496e76616c6964207a44414f0000000000000000000000000000000000000000604482015260640161081c565b604051631f27a4f360e11b8152600481018390526000903090633e4f49e690602401602060405180830381865afa158015611b71573d6000803e3d6000fd5b505050506040513d601f19601f82011682018060405250810190611b95919061359d565b90506005816005811115611bab57611bab61314a565b14611bf85760405162461bcd60e51b815260206004820152601860248201527f4e6f742061207375636365656465642070726f706f73616c0000000000000000604482015260640161081c565b5050600090815261019f60205260409020600701805461ff00191661010017905550565b6101a1546001600160a01b03163314611c685760405162461bcd60e51b815260206004820152600e60248201526d2737ba1030902d2220a7a1b432b360911b604482015260640161081c565b610195805473ffffffffffffffffffffffffffffffffffffffff19166001600160a01b0392909216919091179055565b600082815260976020526040902060010154611cb481336120d8565b610d3e83836121fa565b61019280546101938054919291611cd49061346e565b80601f0160208091040260200160405190810160405280929190818152602001828054611d009061346e565b8015611d4d5780601f10611d2257610100808354040283529160200191611d4d565b820191906000526020600020905b815481529060010190602001808311611d3057829003601f168201915b50505060028401546003850154600486015460058701546006880154600789015460088a015460098b0154600a8c0154600b909c01549a9b6001600160a01b039889169b9789169a509590971697509295919490939060ff808216916101009004168d565b6033546001600160a01b03163314611e0c5760405162461bcd60e51b815260206004820181905260248201527f4f776e61626c653a2063616c6c6572206973206e6f7420746865206f776e6572604482015260640161081c565b6001600160a01b038116611e885760405162461bcd60e51b815260206004820152602660248201527f4f776e61626c653a206e6577206f776e657220697320746865207a65726f206160448201527f6464726573730000000000000000000000000000000000000000000000000000606482015260840161081c565b610f6a81612494565b61019e805460009182611ea3836135eb565b9091555050604080516101408101825261019e548082526001600160a01b0386811660208085019182526000858701818152606087018281526080880183815260a089018c81524360c08b015260e08a018590526101008a018590526101208a0185905297845261019f85529890922087518155935160018501805473ffffffffffffffffffffffffffffffffffffffff1916919096161790945592516002830155915160038201559351600485015590518051929392611f6a9260058501920190612e13565b5060c0820151600682015560e082015160079091018054610100808501516101209095015161ffff1990921693151561ff001916939093179315159092029290921762ff000019166201000091151591909102179055505061019e546101a080546001810182556000919091527f7980fe0f714a613298681d64b7b8ffa7b148338dd52429f307d72798d5c317c401819055919050565b600054610100900460ff1661206c5760405162461bcd60e51b815260206004820152602b60248201527f496e697469616c697a61626c653a20636f6e7472616374206973206e6f74206960448201526a6e697469616c697a696e6760a81b606482015260840161081c565b6120746124f3565b61207c61256e565b6120846125f1565b61208c612664565b6120946126df565b6001610191819055604080518082019091528181527f7600000000000000000000000000000000000000000000000000000000000000602082015261159b9161274a565b60008281526097602090815260408083206001600160a01b038516845290915290205460ff16610dcb57612116816001600160a01b031660146127bd565b6121218360206127bd565b604051602001612132929190613606565b60408051601f198184030181529082905262461bcd60e51b825261081c91600401613687565b60008281526097602090815260408083206001600160a01b038516845290915290205460ff16610dcb5760008281526097602090815260408083206001600160a01b03851684529091529020805460ff191660011790556121b63390565b6001600160a01b0316816001600160a01b0316837f2f8788117e7eff1d82e926ec794901d17c78024a50270940304540a733656f0d60405160405180910390a45050565b60008281526097602090815260408083206001600160a01b038516845290915290205460ff1615610dcb5760008281526097602090815260408083206001600160a01b0385168085529252808320805460ff1916905551339285917ff6391f5c32d9c69d2a47ea670b442974b53935d1edc7fd64eb21e047a839171b9190a45050565b6033546001600160a01b03163314610f6a5760405162461bcd60e51b815260206004820181905260248201527f4f776e61626c653a2063616c6c6572206973206e6f7420746865206f776e6572604482015260640161081c565b600061230a7f360894a13ba1a3210667c828492db98dca3e2076cc3735a920a3ca505d382bbc546001600160a01b031690565b9050612315846129ed565b6000835111806123225750815b15612333576123318484612aaf565b505b7f4910fdfa16fed3260ed0e7147f7cc6da11a60208b5b9406d12a635614ffd9143805460ff16610d1157805460ff191660011781556040516001600160a01b03831660248201526123e090869060440160408051601f198184030181529190526020810180517bffffffffffffffffffffffffffffffffffffffffffffffffffffffff167f3659cfe600000000000000000000000000000000000000000000000000000000179052612aaf565b50805460ff191681557f360894a13ba1a3210667c828492db98dca3e2076cc3735a920a3ca505d382bbc546001600160a01b0383811691161461248b5760405162461bcd60e51b815260206004820152602f60248201527f45524331393637557067726164653a207570677261646520627265616b73206660448201527f7572746865722075706772616465730000000000000000000000000000000000606482015260840161081c565b610d1185612bb1565b603380546001600160a01b0383811673ffffffffffffffffffffffffffffffffffffffff19831681179093556040519116919082907f8be0079c531659141344cd1fd0a4f28419497f9722a3daafe3b4186f6b6457e090600090a35050565b600054610100900460ff1661255e5760405162461bcd60e51b815260206004820152602b60248201527f496e697469616c697a61626c653a20636f6e7472616374206973206e6f74206960448201526a6e697469616c697a696e6760a81b606482015260840161081c565b612566612bf1565b61159b612c5c565b600054610100900460ff166125d95760405162461bcd60e51b815260206004820152602b60248201527f496e697469616c697a61626c653a20636f6e7472616374206973206e6f74206960448201526a6e697469616c697a696e6760a81b606482015260840161081c565b6125e1612bf1565b6125e9612bf1565b61159b612bf1565b600054610100900460ff1661265c5760405162461bcd60e51b815260206004820152602b60248201527f496e697469616c697a61626c653a20636f6e7472616374206973206e6f74206960448201526a6e697469616c697a696e6760a81b606482015260840161081c565b61159b612cd0565b600054610100900460ff166126cf5760405162461bcd60e51b815260206004820152602b60248201527f496e697469616c697a61626c653a20636f6e7472616374206973206e6f74206960448201526a6e697469616c697a696e6760a81b606482015260840161081c565b6126d7612bf1565b61159b612d42565b600054610100900460ff166125e15760405162461bcd60e51b815260206004820152602b60248201527f496e697469616c697a61626c653a20636f6e7472616374206973206e6f74206960448201526a6e697469616c697a696e6760a81b606482015260840161081c565b610dcb828260405160240161276092919061369a565b60408051601f198184030181529190526020810180517bffffffffffffffffffffffffffffffffffffffffffffffffffffffff167f9710a9d000000000000000000000000000000000000000000000000000000000179052612db9565b606060006127cc83600261355c565b6127d7906002613544565b67ffffffffffffffff8111156127ef576127ef6131aa565b6040519080825280601f01601f191660200182016040528015612819576020820181803683370190505b5090507f300000000000000000000000000000000000000000000000000000000000000081600081518110612850576128506135d5565b60200101907effffffffffffffffffffffffffffffffffffffffffffffffffffffffffffff1916908160001a9053507f7800000000000000000000000000000000000000000000000000000000000000816001815181106128b3576128b36135d5565b60200101907effffffffffffffffffffffffffffffffffffffffffffffffffffffffffffff1916908160001a90535060006128ef84600261355c565b6128fa906001613544565b90505b6001811115612997577f303132333435363738396162636465660000000000000000000000000000000085600f166010811061293b5761293b6135d5565b1a60f81b828281518110612951576129516135d5565b60200101907effffffffffffffffffffffffffffffffffffffffffffffffffffffffffffff1916908160001a90535060049490941c93612990816136bc565b90506128fd565b5083156129e65760405162461bcd60e51b815260206004820181905260248201527f537472696e67733a20686578206c656e67746820696e73756666696369656e74604482015260640161081c565b9392505050565b803b612a615760405162461bcd60e51b815260206004820152602d60248201527f455243313936373a206e657720696d706c656d656e746174696f6e206973206e60448201527f6f74206120636f6e747261637400000000000000000000000000000000000000606482015260840161081c565b7f360894a13ba1a3210667c828492db98dca3e2076cc3735a920a3ca505d382bbc805473ffffffffffffffffffffffffffffffffffffffff19166001600160a01b0392909216919091179055565b6060823b612b255760405162461bcd60e51b815260206004820152602660248201527f416464726573733a2064656c65676174652063616c6c20746f206e6f6e2d636f60448201527f6e74726163740000000000000000000000000000000000000000000000000000606482015260840161081c565b600080846001600160a01b031684604051612b4091906136d3565b600060405180830381855af49150503d8060008114612b7b576040519150601f19603f3d011682016040523d82523d6000602084013e612b80565b606091505b5091509150612ba882826040518060600160405280602781526020016136f060279139612dda565b95945050505050565b612bba816129ed565b6040516001600160a01b038216907fbc7cd75a20ee27fd9adebab32041f755214dbc6bffa90cc0225b39da2e5c2d3b90600090a250565b600054610100900460ff1661159b5760405162461bcd60e51b815260206004820152602b60248201527f496e697469616c697a61626c653a20636f6e7472616374206973206e6f74206960448201526a6e697469616c697a696e6760a81b606482015260840161081c565b600054610100900460ff16612cc75760405162461bcd60e51b815260206004820152602b60248201527f496e697469616c697a61626c653a20636f6e7472616374206973206e6f74206960448201526a6e697469616c697a696e6760a81b606482015260840161081c565b61159b33612494565b600054610100900460ff16612d3b5760405162461bcd60e51b815260206004820152602b60248201527f496e697469616c697a61626c653a20636f6e7472616374206973206e6f74206960448201526a6e697469616c697a696e6760a81b606482015260840161081c565b600160c955565b600054610100900460ff16612dad5760405162461bcd60e51b815260206004820152602b60248201527f496e697469616c697a61626c653a20636f6e7472616374206973206e6f74206960448201526a6e697469616c697a696e6760a81b606482015260840161081c565b60fb805460ff19169055565b80516a636f6e736f6c652e6c6f67602083016000808483855afa5050505050565b60608315612de95750816129e6565b825115612df95782518084602001fd5b8160405162461bcd60e51b815260040161081c9190613687565b828054612e1f9061346e565b90600052602060002090601f016020900481019282612e415760008555612e87565b82601f10612e5a57805160ff1916838001178555612e87565b82800160010185558215612e87579182015b82811115612e87578251825591602001919060010190612e6c565b50612e93929150612e97565b5090565b5b80821115612e935760008155600101612e98565b600060208284031215612ebe57600080fd5b5035919050565b60005b83811015612ee0578181015183820152602001612ec8565b83811115612eef576000848401525b50505050565b60008151808452612f0d816020860160208601612ec5565b601f01601f19169290920160200192915050565b60006101408c83526001600160a01b038c1660208401528a60408401528960608401528860808401528060a0840152612f5c81840189612ef5565b60c0840197909752505092151560e08401529015156101008301521515610120909101529695505050505050565b600060208284031215612f9c57600080fd5b81357fffffffff00000000000000000000000000000000000000000000000000000000811681146129e657600080fd5b80356001600160a01b0381168114612fe357600080fd5b919050565b60008060408385031215612ffb57600080fd5b61300483612fcc565b946020939093013593505050565b60008060006040848603121561302757600080fd5b61303084612fcc565b9250602084013567ffffffffffffffff8082111561304d57600080fd5b818601915086601f83011261306157600080fd5b81358181111561307057600080fd5b87602082850101111561308257600080fd5b6020830194508093505050509250925092565b600080600080608085870312156130ab57600080fd5b6130b485612fcc565b9350602085013592506130c960408601612fcc565b9150606085013567ffffffffffffffff8111156130e557600080fd5b850161012081880312156130f857600080fd5b939692955090935050565b6000806040838503121561311657600080fd5b8235915061312660208401612fcc565b90509250929050565b60006020828403121561314157600080fd5b6129e682612fcc565b634e487b7160e01b600052602160045260246000fd5b602081016006831061318257634e487b7160e01b600052602160045260246000fd5b91905290565b60006020828403121561319a57600080fd5b813580151581146129e657600080fd5b634e487b7160e01b600052604160045260246000fd5b600080604083850312156131d357600080fd5b6131dc83612fcc565b9150602083013567ffffffffffffffff808211156131f957600080fd5b818501915085601f83011261320d57600080fd5b81358181111561321f5761321f6131aa565b604051601f8201601f19908116603f01168101908382118183101715613247576132476131aa565b8160405282815288602084870101111561326057600080fd5b8260208601602083013760006020848301015280955050505050509250929050565b6000806040838503121561329557600080fd5b50508035926020909101359150565b60006020808301818452808551808352604092508286019150828160051b87010184880160005b8381101561339f577fffffffffffffffffffffffffffffffffffffffffffffffffffffffffffffffc08984030185528151610140815185528882015161331b8a8701826001600160a01b03169052565b508188015185890152606080830151908601526080808301519086015260a08083015181870183905261335083880182612ef5565b9250505060c080830151818701525060e0808301516133728288018215159052565b505061010082810151151590860152610120918201511515919094015293860193908601906001016132cb565b509098975050505050505050565b600080600080608085870312156133c357600080fd5b5050823594602084013594506040840135936060013592509050565b8d81526101a0602082015260006133fa6101a083018f612ef5565b90506001600160a01b03808e166040840152808d166060840152808c166080840152508960a08301528860c08301528760e083015286610100830152856101208301528461014083015283151561016083015261345c61018083018415159052565b9e9d5050505050505050505050505050565b600181811c9082168061348257607f821691505b602082108114156134a357634e487b7160e01b600052602260045260246000fd5b50919050565b6000602082840312156134bb57600080fd5b5051919050565b60008083357fffffffffffffffffffffffffffffffffffffffffffffffffffffffffffffffe18436030181126134f757600080fd5b83018035915067ffffffffffffffff82111561351257600080fd5b60200191503681900382131561352757600080fd5b9250929050565b634e487b7160e01b600052601160045260246000fd5b600082198211156135575761355761352e565b500190565b60008160001904831182151516156135765761357661352e565b500290565b60008261359857634e487b7160e01b600052601260045260246000fd5b500490565b6000602082840312156135af57600080fd5b8151600681106129e657600080fd5b6000828210156135d0576135d061352e565b500390565b634e487b7160e01b600052603260045260246000fd5b60006000198214156135ff576135ff61352e565b5060010190565b7f416363657373436f6e74726f6c3a206163636f756e742000000000000000000081526000835161363e816017850160208801612ec5565b7f206973206d697373696e6720726f6c6520000000000000000000000000000000601791840191820152835161367b816028840160208801612ec5565b01602801949350505050565b6020815260006129e66020830184612ef5565b6040815260006136ad6040830185612ef5565b90508260208301529392505050565b6000816136cb576136cb61352e565b506000190190565b600082516136e5818460208701612ec5565b919091019291505056fe416464726573733a206c6f772d6c6576656c2064656c65676174652063616c6c206661696c6564a2646970667358221220d708205f920782c1fe20581a1e8e68de72374a973729e649f4374d4b60f5101964736f6c634300080b0033",
  "linkReferences": {},
  "deployedLinkReferences": {}
}