{
  "_format": "hh-sol-artifact-1",
  "contractName": "EtherZDAOChef",
  "sourceName": "contracts/ethereum/EtherZDAOChef.sol",
  "abi": [
    {
      "anonymous": false,
      "inputs": [
        {
          "indexed": false,
          "internalType": "address",
          "name": "previousAdmin",
          "type": "address"
        },
        {
          "indexed": false,
          "internalType": "address",
          "name": "newAdmin",
          "type": "address"
        }
      ],
      "name": "AdminChanged",
      "type": "event"
    },
    {
      "anonymous": false,
      "inputs": [
        {
          "indexed": true,
          "internalType": "address",
          "name": "beacon",
          "type": "address"
        }
      ],
      "name": "BeaconUpgraded",
      "type": "event"
    },
    {
      "anonymous": false,
      "inputs": [
        {
          "indexed": true,
          "internalType": "uint256",
          "name": "_daoId",
          "type": "uint256"
        },
        {
          "indexed": true,
          "internalType": "address",
          "name": "_creator",
          "type": "address"
        },
        {
          "indexed": true,
          "internalType": "address",
          "name": "_zDAO",
          "type": "address"
        }
      ],
      "name": "DAOCreated",
      "type": "event"
    },
    {
      "anonymous": false,
      "inputs": [
        {
          "indexed": true,
          "internalType": "uint256",
          "name": "_daoId",
          "type": "uint256"
        }
      ],
      "name": "DAODestroyed",
      "type": "event"
    },
    {
      "anonymous": false,
      "inputs": [
        {
          "indexed": true,
          "internalType": "uint256",
          "name": "_daoId",
          "type": "uint256"
        },
        {
          "indexed": true,
          "internalType": "address",
          "name": "_gnosisSafe",
          "type": "address"
        }
      ],
      "name": "DAOUpdateGnosisSafe",
      "type": "event"
    },
    {
      "anonymous": false,
      "inputs": [
        {
          "indexed": true,
          "internalType": "uint256",
          "name": "_daoId",
          "type": "uint256"
        },
        {
          "indexed": true,
          "internalType": "address",
          "name": "_token",
          "type": "address"
        },
        {
          "indexed": true,
          "internalType": "uint256",
          "name": "_amount",
          "type": "uint256"
        }
      ],
      "name": "DAOUpdateVotingtoken",
      "type": "event"
    },
    {
      "anonymous": false,
      "inputs": [
        {
          "indexed": true,
          "internalType": "uint256",
          "name": "_daoId",
          "type": "uint256"
        },
        {
          "indexed": true,
          "internalType": "uint256",
          "name": "_zNA",
          "type": "uint256"
        }
      ],
      "name": "LinkAdded",
      "type": "event"
    },
    {
      "anonymous": false,
      "inputs": [
        {
          "indexed": true,
          "internalType": "uint256",
          "name": "_daoId",
          "type": "uint256"
        },
        {
          "indexed": true,
          "internalType": "uint256",
          "name": "_zNA",
          "type": "uint256"
        }
      ],
      "name": "LinkRemoved",
      "type": "event"
    },
    {
      "anonymous": false,
      "inputs": [
        {
          "indexed": true,
          "internalType": "address",
          "name": "previousOwner",
          "type": "address"
        },
        {
          "indexed": true,
          "internalType": "address",
          "name": "newOwner",
          "type": "address"
        }
      ],
      "name": "OwnershipTransferred",
      "type": "event"
    },
    {
      "anonymous": false,
      "inputs": [
        {
          "indexed": false,
          "internalType": "address",
          "name": "account",
          "type": "address"
        }
      ],
      "name": "Paused",
      "type": "event"
    },
    {
      "anonymous": false,
      "inputs": [
        {
          "indexed": true,
          "internalType": "uint256",
          "name": "_zDAOId",
          "type": "uint256"
        },
        {
          "indexed": true,
          "internalType": "uint256",
          "name": "_proposalId",
          "type": "uint256"
        },
        {
          "indexed": true,
          "internalType": "address",
          "name": "_cancelBy",
          "type": "address"
        }
      ],
      "name": "ProposalCanceled",
      "type": "event"
    },
    {
      "anonymous": false,
      "inputs": [
        {
          "indexed": true,
          "internalType": "uint256",
          "name": "_zDAOId",
          "type": "uint256"
        },
        {
          "indexed": true,
          "internalType": "uint256",
          "name": "_propoalId",
          "type": "uint256"
        },
        {
          "indexed": false,
          "internalType": "uint256",
          "name": "_voters",
          "type": "uint256"
        },
        {
          "indexed": false,
          "internalType": "uint256",
          "name": "_yes",
          "type": "uint256"
        },
        {
          "indexed": false,
          "internalType": "uint256",
          "name": "_no",
          "type": "uint256"
        }
      ],
      "name": "ProposalCollected",
      "type": "event"
    },
    {
      "anonymous": false,
      "inputs": [
        {
          "indexed": true,
          "internalType": "uint256",
          "name": "_zDAOId",
          "type": "uint256"
        },
        {
          "indexed": true,
          "internalType": "uint256",
          "name": "_proposalId",
          "type": "uint256"
        },
        {
          "indexed": true,
          "internalType": "address",
          "name": "_createdBy",
          "type": "address"
        },
        {
          "indexed": false,
          "internalType": "uint256",
          "name": "_duration",
          "type": "uint256"
        },
        {
          "indexed": false,
          "internalType": "uint256",
          "name": "_snapshot",
          "type": "uint256"
        }
      ],
      "name": "ProposalCreated",
      "type": "event"
    },
    {
      "anonymous": false,
      "inputs": [
        {
          "indexed": true,
          "internalType": "uint256",
          "name": "_zDAOId",
          "type": "uint256"
        },
        {
          "indexed": true,
          "internalType": "uint256",
          "name": "_proposalId",
          "type": "uint256"
        },
        {
          "indexed": true,
          "internalType": "address",
          "name": "_executeBy",
          "type": "address"
        }
      ],
      "name": "ProposalExecuted",
      "type": "event"
    },
    {
      "anonymous": false,
      "inputs": [
        {
          "indexed": true,
          "internalType": "bytes32",
          "name": "role",
          "type": "bytes32"
        },
        {
          "indexed": true,
          "internalType": "bytes32",
          "name": "previousAdminRole",
          "type": "bytes32"
        },
        {
          "indexed": true,
          "internalType": "bytes32",
          "name": "newAdminRole",
          "type": "bytes32"
        }
      ],
      "name": "RoleAdminChanged",
      "type": "event"
    },
    {
      "anonymous": false,
      "inputs": [
        {
          "indexed": true,
          "internalType": "bytes32",
          "name": "role",
          "type": "bytes32"
        },
        {
          "indexed": true,
          "internalType": "address",
          "name": "account",
          "type": "address"
        },
        {
          "indexed": true,
          "internalType": "address",
          "name": "sender",
          "type": "address"
        }
      ],
      "name": "RoleGranted",
      "type": "event"
    },
    {
      "anonymous": false,
      "inputs": [
        {
          "indexed": true,
          "internalType": "bytes32",
          "name": "role",
          "type": "bytes32"
        },
        {
          "indexed": true,
          "internalType": "address",
          "name": "account",
          "type": "address"
        },
        {
          "indexed": true,
          "internalType": "address",
          "name": "sender",
          "type": "address"
        }
      ],
      "name": "RoleRevoked",
      "type": "event"
    },
    {
      "anonymous": false,
      "inputs": [
        {
          "indexed": false,
          "internalType": "address",
          "name": "account",
          "type": "address"
        }
      ],
      "name": "Unpaused",
      "type": "event"
    },
    {
      "anonymous": false,
      "inputs": [
        {
          "indexed": true,
          "internalType": "address",
          "name": "implementation",
          "type": "address"
        }
      ],
      "name": "Upgraded",
      "type": "event"
    },
    {
      "inputs": [],
      "name": "DEFAULT_ADMIN_ROLE",
      "outputs": [
        {
          "internalType": "bytes32",
          "name": "",
          "type": "bytes32"
        }
      ],
      "stateMutability": "view",
      "type": "function"
    },
    {
      "inputs": [
        {
          "internalType": "contract IZNSHub",
          "name": "_znsHub",
          "type": "address"
        },
        {
          "internalType": "contract IRootStateSender",
          "name": "_rootStateSender",
          "type": "address"
        },
        {
          "internalType": "address",
          "name": "_zDAOBase",
          "type": "address"
        }
      ],
      "name": "__ZDAOChef_init",
      "outputs": [],
      "stateMutability": "nonpayable",
      "type": "function"
    },
    {
      "inputs": [
        {
          "internalType": "uint256",
          "name": "_zNA",
          "type": "uint256"
        },
        {
          "components": [
            {
              "internalType": "string",
              "name": "title",
              "type": "string"
            },
            {
              "internalType": "address",
              "name": "gnosisSafe",
              "type": "address"
            },
            {
              "internalType": "address",
              "name": "token",
              "type": "address"
            },
            {
              "internalType": "uint256",
              "name": "amount",
              "type": "uint256"
            },
            {
              "internalType": "uint256",
              "name": "threshold",
              "type": "uint256"
            },
            {
              "internalType": "uint256",
              "name": "quorumParticipants",
              "type": "uint256"
            },
            {
              "internalType": "uint256",
              "name": "quorumVotes",
              "type": "uint256"
            },
            {
              "internalType": "bool",
              "name": "isRelativeMajority",
              "type": "bool"
            }
          ],
          "internalType": "struct IEtherZDAOChef.ZDAOConfig",
          "name": "_zDAOConfig",
          "type": "tuple"
        }
      ],
      "name": "addNewDAO",
      "outputs": [],
      "stateMutability": "nonpayable",
      "type": "function"
    },
    {
      "inputs": [
        {
          "internalType": "uint256",
          "name": "_daoId",
          "type": "uint256"
        },
        {
          "internalType": "uint256",
          "name": "_zNA",
          "type": "uint256"
        }
      ],
      "name": "addZNAAssociation",
      "outputs": [],
      "stateMutability": "nonpayable",
      "type": "function"
    },
    {
      "inputs": [
        {
          "internalType": "uint256",
          "name": "_daoId",
          "type": "uint256"
        },
        {
          "internalType": "uint256",
          "name": "_proposalId",
          "type": "uint256"
        }
      ],
      "name": "cancelProposal",
      "outputs": [],
      "stateMutability": "nonpayable",
      "type": "function"
    },
    {
      "inputs": [
        {
          "internalType": "uint256",
          "name": "_daoId",
          "type": "uint256"
        },
        {
          "internalType": "uint256",
          "name": "_duration",
          "type": "uint256"
        },
        {
          "internalType": "address",
          "name": "_target",
          "type": "address"
        },
        {
          "internalType": "uint256",
          "name": "_value",
          "type": "uint256"
        },
        {
          "internalType": "bytes",
          "name": "_data",
          "type": "bytes"
        },
        {
          "internalType": "string",
          "name": "_ipfs",
          "type": "string"
        }
      ],
      "name": "createProposal",
      "outputs": [],
      "stateMutability": "nonpayable",
      "type": "function"
    },
    {
      "inputs": [
        {
          "internalType": "uint256",
          "name": "_zNA",
          "type": "uint256"
        }
      ],
      "name": "doeszDAOExistForzNA",
      "outputs": [
        {
          "internalType": "bool",
          "name": "",
          "type": "bool"
        }
      ],
      "stateMutability": "view",
      "type": "function"
    },
    {
      "inputs": [
        {
          "internalType": "uint256",
          "name": "_daoId",
          "type": "uint256"
        },
        {
          "internalType": "uint256",
          "name": "_proposalId",
          "type": "uint256"
        }
      ],
      "name": "executeProposal",
      "outputs": [],
      "stateMutability": "nonpayable",
      "type": "function"
    },
    {
      "inputs": [
        {
          "internalType": "bytes32",
          "name": "role",
          "type": "bytes32"
        }
      ],
      "name": "getRoleAdmin",
      "outputs": [
        {
          "internalType": "bytes32",
          "name": "",
          "type": "bytes32"
        }
      ],
      "stateMutability": "view",
      "type": "function"
    },
    {
      "inputs": [
        {
          "internalType": "uint256",
          "name": "_daoId",
          "type": "uint256"
        }
      ],
      "name": "getzDAOById",
      "outputs": [
        {
          "components": [
            {
              "internalType": "uint256",
              "name": "id",
              "type": "uint256"
            },
            {
              "internalType": "contract IEtherZDAO",
              "name": "zDAO",
              "type": "address"
            },
            {
              "internalType": "uint256[]",
              "name": "associatedzNAs",
              "type": "uint256[]"
            }
          ],
          "internalType": "struct IEtherZDAOChef.ZDAORecord",
          "name": "",
          "type": "tuple"
        }
      ],
      "stateMutability": "view",
      "type": "function"
    },
    {
      "inputs": [
        {
          "internalType": "uint256",
          "name": "_zNA",
          "type": "uint256"
        }
      ],
      "name": "getzDaoByZNA",
      "outputs": [
        {
          "components": [
            {
              "internalType": "uint256",
              "name": "id",
              "type": "uint256"
            },
            {
              "internalType": "contract IEtherZDAO",
              "name": "zDAO",
              "type": "address"
            },
            {
              "internalType": "uint256[]",
              "name": "associatedzNAs",
              "type": "uint256[]"
            }
          ],
          "internalType": "struct IEtherZDAOChef.ZDAORecord",
          "name": "",
          "type": "tuple"
        }
      ],
      "stateMutability": "view",
      "type": "function"
    },
    {
      "inputs": [
        {
          "internalType": "bytes32",
          "name": "role",
          "type": "bytes32"
        },
        {
          "internalType": "address",
          "name": "account",
          "type": "address"
        }
      ],
      "name": "grantRole",
      "outputs": [],
      "stateMutability": "nonpayable",
      "type": "function"
    },
    {
      "inputs": [
        {
          "internalType": "bytes32",
          "name": "role",
          "type": "bytes32"
        },
        {
          "internalType": "address",
          "name": "account",
          "type": "address"
        }
      ],
      "name": "hasRole",
      "outputs": [
        {
          "internalType": "bool",
          "name": "",
          "type": "bool"
        }
      ],
      "stateMutability": "view",
      "type": "function"
    },
    {
      "inputs": [],
      "name": "lastZDAOId",
      "outputs": [
        {
          "internalType": "uint256",
          "name": "",
          "type": "uint256"
        }
      ],
      "stateMutability": "view",
      "type": "function"
    },
    {
      "inputs": [
        {
          "internalType": "uint256",
          "name": "_startIndex",
          "type": "uint256"
        },
        {
          "internalType": "uint256",
          "name": "_count",
          "type": "uint256"
        }
      ],
      "name": "listzDAOs",
      "outputs": [
        {
          "components": [
            {
              "internalType": "uint256",
              "name": "id",
              "type": "uint256"
            },
            {
              "internalType": "contract IEtherZDAO",
              "name": "zDAO",
              "type": "address"
            },
            {
              "internalType": "uint256[]",
              "name": "associatedzNAs",
              "type": "uint256[]"
            }
          ],
          "internalType": "struct IEtherZDAOChef.ZDAORecord[]",
          "name": "records",
          "type": "tuple[]"
        }
      ],
      "stateMutability": "view",
      "type": "function"
    },
    {
      "inputs": [],
      "name": "numberOfzDAOs",
      "outputs": [
        {
          "internalType": "uint256",
          "name": "",
          "type": "uint256"
        }
      ],
      "stateMutability": "view",
      "type": "function"
    },
    {
      "inputs": [],
      "name": "owner",
      "outputs": [
        {
          "internalType": "address",
          "name": "",
          "type": "address"
        }
      ],
      "stateMutability": "view",
      "type": "function"
    },
    {
      "inputs": [],
      "name": "paused",
      "outputs": [
        {
          "internalType": "bool",
          "name": "",
          "type": "bool"
        }
      ],
      "stateMutability": "view",
      "type": "function"
    },
    {
      "inputs": [
        {
          "internalType": "bytes",
          "name": "_message",
          "type": "bytes"
        }
      ],
      "name": "processMessageFromChild",
      "outputs": [],
      "stateMutability": "nonpayable",
      "type": "function"
    },
    {
      "inputs": [
        {
          "internalType": "uint256",
          "name": "_daoId",
          "type": "uint256"
        }
      ],
      "name": "removeDAO",
      "outputs": [],
      "stateMutability": "nonpayable",
      "type": "function"
    },
    {
      "inputs": [
        {
          "internalType": "uint256",
          "name": "_daoId",
          "type": "uint256"
        },
        {
          "internalType": "uint256",
          "name": "_zNA",
          "type": "uint256"
        }
      ],
      "name": "removeZNAAssociation",
      "outputs": [],
      "stateMutability": "nonpayable",
      "type": "function"
    },
    {
      "inputs": [],
      "name": "renounceOwnership",
      "outputs": [],
      "stateMutability": "nonpayable",
      "type": "function"
    },
    {
      "inputs": [
        {
          "internalType": "bytes32",
          "name": "role",
          "type": "bytes32"
        },
        {
          "internalType": "address",
          "name": "account",
          "type": "address"
        }
      ],
      "name": "renounceRole",
      "outputs": [],
      "stateMutability": "nonpayable",
      "type": "function"
    },
    {
      "inputs": [
        {
          "internalType": "bytes32",
          "name": "role",
          "type": "bytes32"
        },
        {
          "internalType": "address",
          "name": "account",
          "type": "address"
        }
      ],
      "name": "revokeRole",
      "outputs": [],
      "stateMutability": "nonpayable",
      "type": "function"
    },
    {
      "inputs": [],
      "name": "rootStateSender",
      "outputs": [
        {
          "internalType": "contract IRootStateSender",
          "name": "",
          "type": "address"
        }
      ],
      "stateMutability": "view",
      "type": "function"
    },
    {
      "inputs": [
        {
          "internalType": "uint256",
          "name": "_daoId",
          "type": "uint256"
        },
        {
          "internalType": "address",
          "name": "_gnosisSafe",
          "type": "address"
        }
      ],
      "name": "setDAOGnosisSafe",
      "outputs": [],
      "stateMutability": "nonpayable",
      "type": "function"
    },
    {
      "inputs": [
        {
          "internalType": "uint256",
          "name": "_daoId",
          "type": "uint256"
        },
        {
          "internalType": "address",
          "name": "_token",
          "type": "address"
        },
        {
          "internalType": "uint256",
          "name": "_amount",
          "type": "uint256"
        }
      ],
      "name": "setDAOVotingToken",
      "outputs": [],
      "stateMutability": "nonpayable",
      "type": "function"
    },
    {
      "inputs": [
        {
          "internalType": "address",
          "name": "_zDAOBase",
          "type": "address"
        }
      ],
      "name": "setZDAOBase",
      "outputs": [],
      "stateMutability": "nonpayable",
      "type": "function"
    },
    {
      "inputs": [
        {
          "internalType": "address",
          "name": "_znsHub",
          "type": "address"
        }
      ],
      "name": "setZNSHub",
      "outputs": [],
      "stateMutability": "nonpayable",
      "type": "function"
    },
    {
      "inputs": [
        {
          "internalType": "bytes4",
          "name": "interfaceId",
          "type": "bytes4"
        }
      ],
      "name": "supportsInterface",
      "outputs": [
        {
          "internalType": "bool",
          "name": "",
          "type": "bool"
        }
      ],
      "stateMutability": "view",
      "type": "function"
    },
    {
      "inputs": [
        {
          "internalType": "address",
          "name": "newOwner",
          "type": "address"
        }
      ],
      "name": "transferOwnership",
      "outputs": [],
      "stateMutability": "nonpayable",
      "type": "function"
    },
    {
      "inputs": [
        {
          "internalType": "address",
          "name": "newImplementation",
          "type": "address"
        }
      ],
      "name": "upgradeTo",
      "outputs": [],
      "stateMutability": "nonpayable",
      "type": "function"
    },
    {
      "inputs": [
        {
          "internalType": "address",
          "name": "newImplementation",
          "type": "address"
        },
        {
          "internalType": "bytes",
          "name": "data",
          "type": "bytes"
        }
      ],
      "name": "upgradeToAndCall",
      "outputs": [],
      "stateMutability": "payable",
      "type": "function"
    },
    {
      "inputs": [],
      "name": "version",
      "outputs": [
        {
          "internalType": "uint256",
          "name": "",
          "type": "uint256"
        }
      ],
      "stateMutability": "view",
      "type": "function"
    },
    {
      "inputs": [],
      "name": "zDAOBase",
      "outputs": [
        {
          "internalType": "address",
          "name": "",
          "type": "address"
        }
      ],
      "stateMutability": "view",
      "type": "function"
    },
    {
      "inputs": [
        {
          "internalType": "uint256",
          "name": "",
          "type": "uint256"
        }
      ],
      "name": "zDAORecords",
      "outputs": [
        {
          "internalType": "uint256",
          "name": "id",
          "type": "uint256"
        },
        {
          "internalType": "contract IEtherZDAO",
          "name": "zDAO",
          "type": "address"
        }
      ],
      "stateMutability": "view",
      "type": "function"
    },
    {
      "inputs": [],
      "name": "znsHub",
      "outputs": [
        {
          "internalType": "contract IZNSHub",
          "name": "",
          "type": "address"
        }
      ],
      "stateMutability": "view",
      "type": "function"
    }
  ],
  "bytecode": "0x60a06040523060805234801561001457600080fd5b50608051614cef61004560003960008181610f2b01528181610fc30152818161130101526113990152614cef6000f3fe6080604052600436106200029c5760003560e01c8063759e6a07116200016e578063ba636eef11620000db578063ea0458041162000089578063f2fde38b116200006c578063f2fde38b146200080e578063fa771c641462000833578063fe0ed211146200084c57600080fd5b8063ea04580414620007b5578063ebc31f2614620007da57600080fd5b8063c67cdd0111620000be578063c67cdd011462000746578063d547741f146200076b578063e187a7cf146200079057600080fd5b8063ba636eef1462000709578063bf48022b146200072157600080fd5b8063974a58171162000139578063a3fbe7d3116200011c578063a3fbe7d3146200069c578063a98bab8a14620006c1578063b74a2c8914620006e657600080fd5b8063974a58171462000651578063a217fddf146200068557600080fd5b8063759e6a07146200058e5780638da5cb5b14620005b357806391d1485414620005d3578063946b22e2146200061d57600080fd5b80633659cfe6116200020d5780635c975abb11620001d857806362acf0f511620001bb57806362acf0f5146200052e578063715018a614620005515780637200aff9146200056957600080fd5b80635c975abb14620004ef5780635ded8b06146200050957600080fd5b80633659cfe614620004755780634859ef46146200049a5780634f1ef28614620004bf57806354fd4d5014620004d657600080fd5b8063246c88dc116200026b57806329503f7d116200024e57806329503f7d14620003ef5780632f2ff15d146200042b57806336568abe146200045057600080fd5b8063246c88dc146200034c578063248a9ca314620003ac57600080fd5b806301ffc9a714620002a157806310123b2e14620002db57806315ff8fa614620003025780631ab767121462000327575b600080fd5b348015620002ae57600080fd5b50620002c6620002c036600462003abd565b62000871565b60405190151581526020015b60405180910390f35b348015620002e857600080fd5b5062000300620002fa36600462003b4d565b6200090b565b005b3480156200030f57600080fd5b50620003006200032136600462003b93565b620009b1565b3480156200033457600080fd5b50620003006200034636600462003be5565b62000ca8565b3480156200035957600080fd5b506200038e6200036b36600462003c08565b61019560205260009081526040902080546001909101546001600160a01b031682565b604080519283526001600160a01b03909116602083015201620002d2565b348015620003b957600080fd5b50620003e0620003cb36600462003c08565b60009081526097602052604090206001015490565b604051908152602001620002d2565b348015620003fc57600080fd5b506101935462000412906001600160a01b031681565b6040516001600160a01b039091168152602001620002d2565b3480156200043857600080fd5b50620003006200044a36600462003c4a565b62000e65565b3480156200045d57600080fd5b50620003006200046f36600462003c4a565b62000e94565b3480156200048257600080fd5b50620003006200049436600462003c72565b62000f20565b348015620004a757600080fd5b5062000300620004b936600462003c08565b620010c7565b62000300620004d036600462003ca8565b620012f6565b348015620004e357600080fd5b50620003e06101915481565b348015620004fc57600080fd5b5060fb5460ff16620002c6565b3480156200051657600080fd5b50620003006200052836600462003be5565b6200148a565b3480156200053b57600080fd5b506101925462000412906001600160a01b031681565b3480156200055e57600080fd5b5062000300620015ca565b3480156200057657600080fd5b50620003006200058836600462003be5565b62001634565b3480156200059b57600080fd5b5062000300620005ad36600462003be5565b6200177a565b348015620005c057600080fd5b506033546001600160a01b031662000412565b348015620005e057600080fd5b50620002c6620005f236600462003c4a565b60009182526097602090815260408084206001600160a01b0393909316845291905290205460ff1690565b3480156200062a57600080fd5b50620006426200063c36600462003be5565b62001922565b604051620002d2919062003de4565b3480156200065e57600080fd5b50620006766200067036600462003c08565b62001aae565b604051620002d2919062003e68565b3480156200069257600080fd5b50620003e0600081565b348015620006a957600080fd5b5062000300620006bb36600462003e7d565b62001bdf565b348015620006ce57600080fd5b5062000300620006e036600462003f25565b62001dd9565b348015620006f357600080fd5b506101945462000412906001600160a01b031681565b3480156200071657600080fd5b5061019754620003e0565b3480156200072e57600080fd5b50620003006200074036600462003c4a565b62001f3a565b3480156200075357600080fd5b50620006766200076536600462003c08565b6200214a565b3480156200077857600080fd5b50620003006200078a36600462003c4a565b620021ef565b3480156200079d57600080fd5b5062000300620007af36600462003f77565b62002219565b348015620007c257600080fd5b5062000300620007d436600462003c72565b62002433565b348015620007e757600080fd5b50620002c6620007f936600462003c08565b60009081526101966020526040902054151590565b3480156200081b57600080fd5b50620003006200082d36600462003c72565b620024bf565b3480156200084057600080fd5b50620003e06101975481565b3480156200085957600080fd5b50620003006200086b36600462003c72565b620025a4565b60007fffffffff0000000000000000000000000000000000000000000000000000000082167f7965db0b0000000000000000000000000000000000000000000000000000000014806200090557507f01ffc9a7000000000000000000000000000000000000000000000000000000007fffffffff000000000000000000000000000000000000000000000000000000008316145b92915050565b610193546001600160a01b031633146200096c5760405162461bcd60e51b815260206004820152601260248201527f4e6f7420612073746174652073656e646572000000000000000000000000000060448201526064015b60405180910390fd5b620009ad82828080601f0160208091040260200160405190810160405280939291908181526020018383808284376000920191909152506200263092505050565b5050565b610192546040516331a9108f60e11b815260048101849052839133916001600160a01b0390911690636352211e90602401602060405180830381865afa15801562000a00573d6000803e3d6000fd5b505050506040513d601f19601f8201168201806040525081019062000a26919062003fb2565b6001600160a01b03161462000a7e5760405162461bcd60e51b815260206004820152600f60248201527f4e6f742061207a4e41206f776e65720000000000000000000000000000000000604482015260640162000963565b60008381526101966020526040902054801562000b045760405162461bcd60e51b815260206004820152602960248201527f446f206e6f7420616c6c6f7720746f20616464206e65772044414f207769746860448201527f2073616d65207a4e410000000000000000000000000000000000000000000000606482015260840162000963565b600062000b11846200265f565b604080516060810182526101975481526001600160a01b03831660208201529192508101600060405190808252806020026020018201604052801562000b61578160200160208202803683370190505b5090526101975460009081526101956020908152604091829020835181558382015160018201805473ffffffffffffffffffffffffffffffffffffffff19166001600160a01b0390921691909117905591830151805162000bc9926002850192019062003a48565b5050610197546040516001600160a01b03841692503391907fbac692442c8f05b9b2d2f2c97dc28685a5ea91646da4c845fd03a3f73bcc283a90600090a462000c1661019754866200272d565b610193546001600160a01b0316634c09e6e86001610197546040805160208101939093528201526060016040516020818303038152906040526040518263ffffffff1660e01b815260040162000c6d91906200402f565b600060405180830381600087803b15801562000c8857600080fd5b505af115801562000c9d573d6000803e3d6000fd5b505050505050505050565b8160008111801562000cbd5750610197548111155b801562000cd2575062000cd08162002807565b155b62000d0f5760405162461bcd60e51b815260206004820152600c60248201526b496e76616c6964207a44414f60a01b604482015260640162000963565b60008381526101956020526040908190206001015490517fbfc42645000000000000000000000000000000000000000000000000000000008152336004820152602481018490526001600160a01b039091169063bfc4264590604401600060405180830381600087803b15801562000d8657600080fd5b505af115801562000d9b573d6000803e3d6000fd5b505060405133925084915085907fe285e47f4804f679760aa4e907da874045af16436d55df64b64ffd9ca2539dfa90600090a4610193546001600160a01b0316634c09e6e860055b6040805160208101929092528101869052606081018590526080015b6040516020818303038152906040526040518263ffffffff1660e01b815260040162000e2c91906200402f565b600060405180830381600087803b15801562000e4757600080fd5b505af115801562000e5c573d6000803e3d6000fd5b50505050505050565b60008281526097602052604090206001015462000e8381336200289d565b62000e8f838362002926565b505050565b6001600160a01b038116331462000f145760405162461bcd60e51b815260206004820152602f60248201527f416363657373436f6e74726f6c3a2063616e206f6e6c792072656e6f756e636560448201527f20726f6c657320666f722073656c660000000000000000000000000000000000606482015260840162000963565b620009ad8282620029ca565b306001600160a01b037f000000000000000000000000000000000000000000000000000000000000000016141562000fc15760405162461bcd60e51b815260206004820152602c60248201527f46756e6374696f6e206d7573742062652063616c6c6564207468726f7567682060448201527f64656c656761746563616c6c0000000000000000000000000000000000000000606482015260840162000963565b7f00000000000000000000000000000000000000000000000000000000000000006001600160a01b03166200101d7f360894a13ba1a3210667c828492db98dca3e2076cc3735a920a3ca505d382bbc546001600160a01b031690565b6001600160a01b0316146200109b5760405162461bcd60e51b815260206004820152602c60248201527f46756e6374696f6e206d7573742062652063616c6c6564207468726f7567682060448201527f6163746976652070726f78790000000000000000000000000000000000000000606482015260840162000963565b620010a68162002a4e565b60408051600080825260208201909252620010c49183919062002aaa565b50565b6000818152610195602090815260409182902060010154825163116b1a0960e01b8152925184936001600160a01b039092169263116b1a0992600480820193918290030181865afa15801562001121573d6000803e3d6000fd5b505050506040513d601f19601f8201168201806040525081019062001147919062003fb2565b6001600160a01b0316336001600160a01b031614620011a95760405162461bcd60e51b815260206004820152601260248201527f496e76616c6964207a44414f204f776e65720000000000000000000000000000604482015260640162000963565b81600081118015620011be5750610197548111155b8015620011d35750620011d18162002807565b155b620012105760405162461bcd60e51b815260206004820152600c60248201526b496e76616c6964207a44414f60a01b604482015260640162000963565b600083815261019560205260409081902060019081015491517f472858b400000000000000000000000000000000000000000000000000000000815260048101919091526001600160a01b039091169063472858b490602401600060405180830381600087803b1580156200128457600080fd5b505af115801562001299573d6000803e3d6000fd5b50506040518592507f62d16daa2b15fec62c2624e8279f21d75a1e6d3f8dd790378d3129985765cb4a9150600090a2610193546001600160a01b0316634c09e6e86002604080516020810192909252810186905260600162000dff565b306001600160a01b037f0000000000000000000000000000000000000000000000000000000000000000161415620013975760405162461bcd60e51b815260206004820152602c60248201527f46756e6374696f6e206d7573742062652063616c6c6564207468726f7567682060448201527f64656c656761746563616c6c0000000000000000000000000000000000000000606482015260840162000963565b7f00000000000000000000000000000000000000000000000000000000000000006001600160a01b0316620013f37f360894a13ba1a3210667c828492db98dca3e2076cc3735a920a3ca505d382bbc546001600160a01b031690565b6001600160a01b031614620014715760405162461bcd60e51b815260206004820152602c60248201527f46756e6374696f6e206d7573742062652063616c6c6564207468726f7567682060448201527f6163746976652070726f78790000000000000000000000000000000000000000606482015260840162000963565b6200147c8262002a4e565b620009ad8282600162002aaa565b816000811180156200149f5750610197548111155b8015620014b45750620014b28162002807565b155b620014f15760405162461bcd60e51b815260206004820152600c60248201526b496e76616c6964207a44414f60a01b604482015260640162000963565b60008381526101956020526040908190206001015490517f53350755000000000000000000000000000000000000000000000000000000008152336004820152602481018490526001600160a01b0390911690635335075590604401600060405180830381600087803b1580156200156857600080fd5b505af11580156200157d573d6000803e3d6000fd5b505060405133925084915085907f9ebbce99b668db9a753ddb04f826e8eb33904201a74ad92b015aaa3fa039370e90600090a4610193546001600160a01b0316634c09e6e8600462000de3565b6033546001600160a01b03163314620016265760405162461bcd60e51b815260206004820181905260248201527f4f776e61626c653a2063616c6c6572206973206e6f7420746865206f776e6572604482015260640162000963565b62001632600062002c75565b565b81600081118015620016495750610197548111155b80156200165e57506200165c8162002807565b155b6200169b5760405162461bcd60e51b815260206004820152600c60248201526b496e76616c6964207a44414f60a01b604482015260640162000963565b610192546040516331a9108f60e11b815260048101849052839133916001600160a01b0390911690636352211e90602401602060405180830381865afa158015620016ea573d6000803e3d6000fd5b505050506040513d601f19601f8201168201806040525081019062001710919062003fb2565b6001600160a01b031614620017685760405162461bcd60e51b815260206004820152600f60248201527f4e6f742061207a4e41206f776e65720000000000000000000000000000000000604482015260640162000963565b6200177484846200272d565b50505050565b816000811180156200178f5750610197548111155b8015620017a45750620017a28162002807565b155b620017e15760405162461bcd60e51b815260206004820152600c60248201526b496e76616c6964207a44414f60a01b604482015260640162000963565b610192546040516331a9108f60e11b815260048101849052839133916001600160a01b0390911690636352211e90602401602060405180830381865afa15801562001830573d6000803e3d6000fd5b505050506040513d601f19601f8201168201806040525081019062001856919062003fb2565b6001600160a01b031614620018ae5760405162461bcd60e51b815260206004820152600f60248201527f4e6f742061207a4e41206f776e65720000000000000000000000000000000000604482015260640162000963565b600083815261019660205260409020548481146200190f5760405162461bcd60e51b815260206004820152601260248201527f7a4e41206e6f74206173736f6369617465640000000000000000000000000000604482015260640162000963565b6200191b858562002cd4565b5050505050565b610197546060908290620019389085906200405a565b811115620019545783610197546200195191906200405a565b90505b8067ffffffffffffffff81111562001970576200197062003c92565b604051908082528060200260200182016040528015620019bf57816020015b604080516060808201835260008083526020830152918101919091528152602001906001900390816200198f5790505b50915060005b8181101562001aa6576101956000620019df838862004074565b620019ec90600162004074565b8152602080820192909252604090810160002081516060810183528154815260018201546001600160a01b03168185015260028201805484518187028101870186528181529295939486019383018282801562001a6957602002820191906000526020600020905b81548152602001906001019080831162001a54575b50505050508152505083828151811062001a875762001a876200408f565b60200260200101819052508062001a9e90620040a5565b9050620019c5565b505092915050565b6040805160608082018352600080835260208301529181019190915260008281526101966020526040902054801580159062001aed5750610197548111155b801562001b02575062001b008162002807565b155b62001b505760405162461bcd60e51b815260206004820152601b60248201527f4e6f207a44414f206173736f6369617465642077697468207a4e410000000000604482015260640162000963565b6000818152610195602090815260409182902082516060810184528154815260018201546001600160a01b0316818401526002820180548551818602810186018752818152929593949386019383018282801562001bce57602002820191906000526020600020905b81548152602001906001019080831162001bb9575b505050505081525050915050919050565b8760008111801562001bf45750610197548111155b801562001c09575062001c078162002807565b155b62001c465760405162461bcd60e51b815260206004820152600c60248201526b496e76616c6964207a44414f60a01b604482015260640162000963565b600089815261019560205260408082206001015490517fb43ddd870000000000000000000000000000000000000000000000000000000081526001600160a01b039091169063b43ddd879062001caf9033908d908d908d908d908d908d908d90600401620040ee565b6020604051808303816000875af115801562001ccf573d6000803e3d6000fd5b505050506040513d601f19601f8201168201806040525081019062001cf591906200414d565b604080518b8152436020820152919250339183918d917fa67ca5ea1ca35cfdf24fd867604d1db6d4cdb7b7df1f737293e16e549ac45fd0910160405180910390a4610193546001600160a01b0316634c09e6e8600360408051602081019290925281018d905260608101849052608081018c905260a0016040516020818303038152906040526040518263ffffffff1660e01b815260040162001d9991906200402f565b600060405180830381600087803b15801562001db457600080fd5b505af115801562001dc9573d6000803e3d6000fd5b5050505050505050505050505050565b600054610100900460ff1662001df65760005460ff161562001dfa565b303b155b62001e6e5760405162461bcd60e51b815260206004820152602e60248201527f496e697469616c697a61626c653a20636f6e747261637420697320616c72656160448201527f647920696e697469616c697a6564000000000000000000000000000000000000606482015260840162000963565b600054610100900460ff1615801562001eae57600080547fffffffffffffffffffffffffffffffffffffffffffffffffffffffffffff0000166101011790555b62001eb862002df7565b61019280546001600160a01b0380871673ffffffffffffffffffffffffffffffffffffffff1992831617909255610193805486841690831617905561019480549285169290911691909117905580156200177457600080547fffffffffffffffffffffffffffffffffffffffffffffffffffffffffffff00ff16905550505050565b6000828152610195602090815260409182902060010154825163116b1a0960e01b8152925185936001600160a01b039092169263116b1a0992600480820193918290030181865afa15801562001f94573d6000803e3d6000fd5b505050506040513d601f19601f8201168201806040525081019062001fba919062003fb2565b6001600160a01b0316336001600160a01b0316146200201c5760405162461bcd60e51b815260206004820152601260248201527f496e76616c6964207a44414f204f776e65720000000000000000000000000000604482015260640162000963565b82600081118015620020315750610197548111155b8015620020465750620020448162002807565b155b620020835760405162461bcd60e51b815260206004820152600c60248201526b496e76616c6964207a44414f60a01b604482015260640162000963565b60008481526101956020526040908190206001015490517fc3085a3e0000000000000000000000000000000000000000000000000000000081526001600160a01b0385811660048301529091169063c3085a3e90602401600060405180830381600087803b158015620020f557600080fd5b505af11580156200210a573d6000803e3d6000fd5b50506040516001600160a01b03861692508691507fd13c04b9ca2e0b8d9b68dec914067c36f1a5b8ecf729b26fc901ac7bd449fadd90600090a350505050565b604080516060808201835260008083526020808401829052838501839052858252610195815290849020845192830185528054835260018101546001600160a01b0316838301526002810180548651818502810185018852818152959694959294860193830182828015620021df57602002820191906000526020600020905b815481526020019060010190808311620021ca575b5050505050815250509050919050565b6000828152609760205260409020600101546200220d81336200289d565b62000e8f8383620029ca565b6000838152610195602090815260409182902060010154825163116b1a0960e01b8152925186936001600160a01b039092169263116b1a0992600480820193918290030181865afa15801562002273573d6000803e3d6000fd5b505050506040513d601f19601f8201168201806040525081019062002299919062003fb2565b6001600160a01b0316336001600160a01b031614620022fb5760405162461bcd60e51b815260206004820152601260248201527f496e76616c6964207a44414f204f776e65720000000000000000000000000000604482015260640162000963565b83600081118015620023105750610197548111155b8015620023255750620023238162002807565b155b620023625760405162461bcd60e51b815260206004820152600c60248201526b496e76616c6964207a44414f60a01b604482015260640162000963565b60008581526101956020526040908190206001015490517f137f415b0000000000000000000000000000000000000000000000000000000081526001600160a01b038681166004830152602482018690529091169063137f415b90604401600060405180830381600087803b158015620023db57600080fd5b505af1158015620023f0573d6000803e3d6000fd5b5050505082846001600160a01b0316867fb5d5414a361b43f2683d9995f54f8b72cffd37276d05a1001b91eb0cefbcb98260405160405180910390a45050505050565b6033546001600160a01b031633146200248f5760405162461bcd60e51b815260206004820181905260248201527f4f776e61626c653a2063616c6c6572206973206e6f7420746865206f776e6572604482015260640162000963565b610192805473ffffffffffffffffffffffffffffffffffffffff19166001600160a01b0392909216919091179055565b6033546001600160a01b031633146200251b5760405162461bcd60e51b815260206004820181905260248201527f4f776e61626c653a2063616c6c6572206973206e6f7420746865206f776e6572604482015260640162000963565b6001600160a01b038116620025995760405162461bcd60e51b815260206004820152602660248201527f4f776e61626c653a206e6577206f776e657220697320746865207a65726f206160448201527f6464726573730000000000000000000000000000000000000000000000000000606482015260840162000963565b620010c48162002c75565b6033546001600160a01b03163314620026005760405162461bcd60e51b815260206004820181905260248201527f4f776e61626c653a2063616c6c6572206973206e6f7420746865206f776e6572604482015260640162000963565b610194805473ffffffffffffffffffffffffffffffffffffffff19166001600160a01b0392909216919091179055565b6000818060200190518101906200264891906200414d565b90506006811415620009ad57620009ad8262002edc565b6101978054600091826200267383620040a5565b9091555050610194546101975460405162000905926001600160a01b0316917f39cf4e890000000000000000000000000000000000000000000000000000000091620026c89130913390899060240162004183565b60408051601f198184030181529190526020810180517bffffffffffffffffffffffffffffffffffffffffffffffffffffffff167fffffffff00000000000000000000000000000000000000000000000000000000909316929092179091526200305d565b60008181526101966020526040902054828114156200278f5760405162461bcd60e51b815260206004820152601960248201527f7a4e4120616c7265616479206c696e6b656420746f2044414f00000000000000604482015260640162000963565b8015620027a257620027a2818362002cd4565b6000828152610196602090815260408083208690558583526101958252808320600201805460018101825590845291832090910184905551839185917fffdc17a33b6ff8f8f10d88a733ea9fb0db3faa0b4ec1cf8612f81ba96656cd919190a3505050565b6000818152610195602090815260408083206001015481517f359cbbc900000000000000000000000000000000000000000000000000000000815291516001600160a01b039091169263359cbbc992600480820193918290030181865afa15801562002877573d6000803e3d6000fd5b505050506040513d601f19601f82011682018060405250810190620009059190620042aa565b60008281526097602090815260408083206001600160a01b038516845290915290205460ff16620009ad57620028de816001600160a01b03166014620030d0565b620028eb836020620030d0565b604051602001620028fe929190620042ca565b60408051601f198184030181529082905262461bcd60e51b825262000963916004016200402f565b60008281526097602090815260408083206001600160a01b038516845290915290205460ff16620009ad5760008281526097602090815260408083206001600160a01b03851684529091529020805460ff19166001179055620029863390565b6001600160a01b0316816001600160a01b0316837f2f8788117e7eff1d82e926ec794901d17c78024a50270940304540a733656f0d60405160405180910390a45050565b60008281526097602090815260408083206001600160a01b038516845290915290205460ff1615620009ad5760008281526097602090815260408083206001600160a01b0385168085529252808320805460ff1916905551339285917ff6391f5c32d9c69d2a47ea670b442974b53935d1edc7fd64eb21e047a839171b9190a45050565b6033546001600160a01b03163314620010c45760405162461bcd60e51b815260206004820181905260248201527f4f776e61626c653a2063616c6c6572206973206e6f7420746865206f776e6572604482015260640162000963565b600062002ade7f360894a13ba1a3210667c828492db98dca3e2076cc3735a920a3ca505d382bbc546001600160a01b031690565b905062002aeb846200331e565b60008351118062002af95750815b1562002b0d5762002b0b8484620033e2565b505b7f4910fdfa16fed3260ed0e7147f7cc6da11a60208b5b9406d12a635614ffd9143805460ff166200191b57805460ff191660011781556040516001600160a01b038316602482015262002bbd90869060440160408051601f198184030181529190526020810180517bffffffffffffffffffffffffffffffffffffffffffffffffffffffff167f3659cfe600000000000000000000000000000000000000000000000000000000179052620033e2565b50805460ff191681557f360894a13ba1a3210667c828492db98dca3e2076cc3735a920a3ca505d382bbc546001600160a01b0383811691161462002c6a5760405162461bcd60e51b815260206004820152602f60248201527f45524331393637557067726164653a207570677261646520627265616b73206660448201527f7572746865722075706772616465730000000000000000000000000000000000606482015260840162000963565b6200191b85620034ed565b603380546001600160a01b0383811673ffffffffffffffffffffffffffffffffffffffff19831681179093556040519116919082907f8be0079c531659141344cd1fd0a4f28419497f9722a3daafe3b4186f6b6457e090600090a35050565b600082815261019560205260408120600281015490915b818110156200191b578383600201828154811062002d0d5762002d0d6200408f565b9060005260206000200154141562002de2576002830162002d306001846200405a565b8154811062002d435762002d436200408f565b906000526020600020015483600201828154811062002d665762002d666200408f565b6000918252602090912001556002830180548062002d885762002d886200434f565b6000828152602080822083016000199081018390559092019092558582526101969052604080822082905551859187917ffa997975b6b7327afbe399fcdbc2861d51d0d52e5828cf7e1c8a98cd0cadb7ae9190a36200191b565b8062002dee81620040a5565b91505062002ceb565b600054610100900460ff1662002e645760405162461bcd60e51b815260206004820152602b60248201527f496e697469616c697a61626c653a20636f6e7472616374206973206e6f74206960448201526a6e697469616c697a696e6760a81b606482015260840162000963565b62002e6e6200352f565b62002e78620035b0565b62002e826200363b565b62002e8c620036b2565b62002e9662003733565b6001610191819055604080518082019091528181527f760000000000000000000000000000000000000000000000000000000000000060208201526200163291620037a0565b6000806000806000808680602001905181019062002efb919062004365565b95509550955095509550955060008511801562002f1b5750610197548511155b801562002f33575062002f316101975462002807565b155b62002f705760405162461bcd60e51b815260206004820152600c60248201526b496e76616c6964207a44414f60a01b604482015260640162000963565b60008581526101956020526040908190206001015490517f93850b44000000000000000000000000000000000000000000000000000000008152600481018690526024810185905260448101849052606481018390526001600160a01b03909116906393850b4490608401600060405180830381600087803b15801562002ff657600080fd5b505af11580156200300b573d6000803e3d6000fd5b505060408051868152602081018690529081018490528692508791507f453fcfa6f72f89b17a857f2b4bb96ba21f2a6d6c7c8a175b6df638e8fa92763d9060600160405180910390a350505050505050565b6000438260405160200162003074929190620043b0565b6040516020818303038152906040528051906020012083836040516200309a9062003a98565b620030a7929190620043d8565b8190604051809103906000f5905080158015620030c8573d6000803e3d6000fd5b509392505050565b60606000620030e183600262004404565b620030ee90600262004074565b67ffffffffffffffff81111562003109576200310962003c92565b6040519080825280601f01601f19166020018201604052801562003134576020820181803683370190505b5090507f3000000000000000000000000000000000000000000000000000000000000000816000815181106200316e576200316e6200408f565b60200101907effffffffffffffffffffffffffffffffffffffffffffffffffffffffffffff1916908160001a9053507f780000000000000000000000000000000000000000000000000000000000000081600181518110620031d457620031d46200408f565b60200101907effffffffffffffffffffffffffffffffffffffffffffffffffffffffffffff1916908160001a90535060006200321284600262004404565b6200321f90600162004074565b90505b6001811115620032c6577f303132333435363738396162636465660000000000000000000000000000000085600f16601081106200326457620032646200408f565b1a60f81b8282815181106200327d576200327d6200408f565b60200101907effffffffffffffffffffffffffffffffffffffffffffffffffffffffffffff1916908160001a90535060049490941c93620032be8162004426565b905062003222565b508315620033175760405162461bcd60e51b815260206004820181905260248201527f537472696e67733a20686578206c656e67746820696e73756666696369656e74604482015260640162000963565b9392505050565b803b620033945760405162461bcd60e51b815260206004820152602d60248201527f455243313936373a206e657720696d706c656d656e746174696f6e206973206e60448201527f6f74206120636f6e747261637400000000000000000000000000000000000000606482015260840162000963565b7f360894a13ba1a3210667c828492db98dca3e2076cc3735a920a3ca505d382bbc805473ffffffffffffffffffffffffffffffffffffffff19166001600160a01b0392909216919091179055565b6060823b6200345a5760405162461bcd60e51b815260206004820152602660248201527f416464726573733a2064656c65676174652063616c6c20746f206e6f6e2d636f60448201527f6e74726163740000000000000000000000000000000000000000000000000000606482015260840162000963565b600080846001600160a01b03168460405162003477919062004440565b600060405180830381855af49150503d8060008114620034b4576040519150601f19603f3d011682016040523d82523d6000602084013e620034b9565b606091505b5091509150620034e4828260405180606001604052806027815260200162004c936027913962003817565b95945050505050565b620034f8816200331e565b6040516001600160a01b038216907fbc7cd75a20ee27fd9adebab32041f755214dbc6bffa90cc0225b39da2e5c2d3b90600090a250565b600054610100900460ff166200359c5760405162461bcd60e51b815260206004820152602b60248201527f496e697469616c697a61626c653a20636f6e7472616374206973206e6f74206960448201526a6e697469616c697a696e6760a81b606482015260840162000963565b620035a662003855565b62001632620038c2565b600054610100900460ff166200361d5760405162461bcd60e51b815260206004820152602b60248201527f496e697469616c697a61626c653a20636f6e7472616374206973206e6f74206960448201526a6e697469616c697a696e6760a81b606482015260840162000963565b6200362762003855565b6200363162003855565b6200163262003855565b600054610100900460ff16620036a85760405162461bcd60e51b815260206004820152602b60248201527f496e697469616c697a61626c653a20636f6e7472616374206973206e6f74206960448201526a6e697469616c697a696e6760a81b606482015260840162000963565b620016326200393a565b600054610100900460ff166200371f5760405162461bcd60e51b815260206004820152602b60248201527f496e697469616c697a61626c653a20636f6e7472616374206973206e6f74206960448201526a6e697469616c697a696e6760a81b606482015260840162000963565b6200372962003855565b62001632620039ae565b600054610100900460ff16620036275760405162461bcd60e51b815260206004820152602b60248201527f496e697469616c697a61626c653a20636f6e7472616374206973206e6f74206960448201526a6e697469616c697a696e6760a81b606482015260840162000963565b620009ad8282604051602401620037b99291906200445e565b60408051601f198184030181529190526020810180517bffffffffffffffffffffffffffffffffffffffffffffffffffffffff167f9710a9d00000000000000000000000000000000000000000000000000000000017905262003a27565b606083156200382857508162003317565b825115620038395782518084602001fd5b8160405162461bcd60e51b81526004016200096391906200402f565b600054610100900460ff16620016325760405162461bcd60e51b815260206004820152602b60248201527f496e697469616c697a61626c653a20636f6e7472616374206973206e6f74206960448201526a6e697469616c697a696e6760a81b606482015260840162000963565b600054610100900460ff166200392f5760405162461bcd60e51b815260206004820152602b60248201527f496e697469616c697a61626c653a20636f6e7472616374206973206e6f74206960448201526a6e697469616c697a696e6760a81b606482015260840162000963565b620016323362002c75565b600054610100900460ff16620039a75760405162461bcd60e51b815260206004820152602b60248201527f496e697469616c697a61626c653a20636f6e7472616374206973206e6f74206960448201526a6e697469616c697a696e6760a81b606482015260840162000963565b600160c955565b600054610100900460ff1662003a1b5760405162461bcd60e51b815260206004820152602b60248201527f496e697469616c697a61626c653a20636f6e7472616374206973206e6f74206960448201526a6e697469616c697a696e6760a81b606482015260840162000963565b60fb805460ff19169055565b80516a636f6e736f6c652e6c6f67602083016000808483855afa5050505050565b82805482825590600052602060002090810192821562003a86579160200282015b8281111562003a8657825182559160200191906001019062003a69565b5062003a9492915062003aa6565b5090565b610810806200448383390190565b5b8082111562003a94576000815560010162003aa7565b60006020828403121562003ad057600080fd5b81357fffffffff00000000000000000000000000000000000000000000000000000000811681146200331757600080fd5b60008083601f84011262003b1457600080fd5b50813567ffffffffffffffff81111562003b2d57600080fd5b60208301915083602082850101111562003b4657600080fd5b9250929050565b6000806020838503121562003b6157600080fd5b823567ffffffffffffffff81111562003b7957600080fd5b62003b878582860162003b01565b90969095509350505050565b6000806040838503121562003ba757600080fd5b82359150602083013567ffffffffffffffff81111562003bc657600080fd5b8301610100818603121562003bda57600080fd5b809150509250929050565b6000806040838503121562003bf957600080fd5b50508035926020909101359150565b60006020828403121562003c1b57600080fd5b5035919050565b6001600160a01b0381168114620010c457600080fd5b803562003c458162003c22565b919050565b6000806040838503121562003c5e57600080fd5b82359150602083013562003bda8162003c22565b60006020828403121562003c8557600080fd5b8135620033178162003c22565b634e487b7160e01b600052604160045260246000fd5b6000806040838503121562003cbc57600080fd5b823562003cc98162003c22565b9150602083013567ffffffffffffffff8082111562003ce757600080fd5b818501915085601f83011262003cfc57600080fd5b81358181111562003d115762003d1162003c92565b604051601f8201601f19908116603f0116810190838211818310171562003d3c5762003d3c62003c92565b8160405282815288602084870101111562003d5657600080fd5b8260208601602083013760006020848301015280955050505050509250929050565b6000606083018251845260206001600160a01b038185015116818601526040840151606060408701528281518085526080880191508383019450600092505b8083101562003dd9578451825293830193600192909201919083019062003db7565b509695505050505050565b6000602080830181845280855180835260408601915060408160051b870101925083870160005b8281101562003e5b577fffffffffffffffffffffffffffffffffffffffffffffffffffffffffffffffc088860301845262003e4885835162003d78565b9450928501929085019060010162003e0b565b5092979650505050505050565b60208152600062003317602083018462003d78565b60008060008060008060008060c0898b03121562003e9a57600080fd5b8835975060208901359650604089013562003eb58162003c22565b955060608901359450608089013567ffffffffffffffff8082111562003eda57600080fd5b62003ee88c838d0162003b01565b909650945060a08b013591508082111562003f0257600080fd5b5062003f118b828c0162003b01565b999c989b5096995094979396929594505050565b60008060006060848603121562003f3b57600080fd5b833562003f488162003c22565b9250602084013562003f5a8162003c22565b9150604084013562003f6c8162003c22565b809150509250925092565b60008060006060848603121562003f8d57600080fd5b83359250602084013562003fa18162003c22565b929592945050506040919091013590565b60006020828403121562003fc557600080fd5b8151620033178162003c22565b60005b8381101562003fef57818101518382015260200162003fd5565b83811115620017745750506000910152565b600081518084526200401b81602086016020860162003fd2565b601f01601f19169290920160200192915050565b60208152600062003317602083018462004001565b634e487b7160e01b600052601160045260246000fd5b6000828210156200406f576200406f62004044565b500390565b600082198211156200408a576200408a62004044565b500190565b634e487b7160e01b600052603260045260246000fd5b6000600019821415620040bc57620040bc62004044565b5060010190565b818352818160208501375060006020828401015260006020601f19601f840116840101905092915050565b60006001600160a01b03808b16835289602084015280891660408401525086606083015260c060808301526200412960c083018688620040c3565b82810360a08401526200413e818587620040c3565b9b9a5050505050505050505050565b6000602082840312156200416057600080fd5b5051919050565b8015158114620010c457600080fd5b803562003c458162004167565b60006001600160a01b0380871683528560208401528085166040840152506080606083015282357fffffffffffffffffffffffffffffffffffffffffffffffffffffffffffffffe1843603018112620041db57600080fd5b8301803567ffffffffffffffff811115620041f557600080fd5b8036038513156200420557600080fd5b6101008060808601526200422261018086018360208601620040c3565b9250620042326020870162003c38565b6001600160a01b03811660a08701529150620042516040870162003c38565b6001600160a01b03811660c08701529150606086013560e0860152608086013581860152505060a084013561012084015260c08401356101408401526200429b60e0850162004176565b80151561016085015262003dd9565b600060208284031215620042bd57600080fd5b8151620033178162004167565b7f416363657373436f6e74726f6c3a206163636f756e74200000000000000000008152600083516200430481601785016020880162003fd2565b7f206973206d697373696e6720726f6c652000000000000000000000000000000060179184019182015283516200434381602884016020880162003fd2565b01602801949350505050565b634e487b7160e01b600052603160045260246000fd5b60008060008060008060c087890312156200437f57600080fd5b865195506020870151945060408701519350606087015192506080870151915060a087015190509295509295509295565b82815260008251620043ca81602085016020870162003fd2565b919091016020019392505050565b6001600160a01b0383168152604060208201526000620043fc604083018462004001565b949350505050565b600081600019048311821515161562004421576200442162004044565b500290565b60008162004438576200443862004044565b506000190190565b600082516200445481846020870162003fd2565b9190910192915050565b60408152600062004473604083018562004001565b9050826020830152939250505056fe608060405260405161081038038061081083398101604081905261002291610337565b61004d60017f360894a13ba1a3210667c828492db98dca3e2076cc3735a920a3ca505d382bbd610405565b6000805160206107c9833981519152146100695761006961042a565b6100758282600061007c565b505061048f565b610085836100b2565b6000825111806100925750805b156100ad576100ab83836100f260201b6100291760201c565b505b505050565b6100bb8161011e565b6040516001600160a01b038216907fbc7cd75a20ee27fd9adebab32041f755214dbc6bffa90cc0225b39da2e5c2d3b90600090a250565b606061011783836040518060600160405280602781526020016107e9602791396101de565b9392505050565b610131816102b360201b6100551760201c565b6101985760405162461bcd60e51b815260206004820152602d60248201527f455243313936373a206e657720696d706c656d656e746174696f6e206973206e60448201526c1bdd08184818dbdb9d1c9858dd609a1b60648201526084015b60405180910390fd5b806101bd6000805160206107c983398151915260001b6102b960201b61005b1760201c565b80546001600160a01b0319166001600160a01b039290921691909117905550565b6060833b61023d5760405162461bcd60e51b815260206004820152602660248201527f416464726573733a2064656c65676174652063616c6c20746f206e6f6e2d636f6044820152651b9d1c9858dd60d21b606482015260840161018f565b600080856001600160a01b0316856040516102589190610440565b600060405180830381855af49150503d8060008114610293576040519150601f19603f3d011682016040523d82523d6000602084013e610298565b606091505b5090925090506102a98282866102bc565b9695505050505050565b3b151590565b90565b606083156102cb575081610117565b8251156102db5782518084602001fd5b8160405162461bcd60e51b815260040161018f919061045c565b634e487b7160e01b600052604160045260246000fd5b60005b8381101561032657818101518382015260200161030e565b838111156100ab5750506000910152565b6000806040838503121561034a57600080fd5b82516001600160a01b038116811461036157600080fd5b60208401519092506001600160401b038082111561037e57600080fd5b818501915085601f83011261039257600080fd5b8151818111156103a4576103a46102f5565b604051601f8201601f19908116603f011681019083821181831017156103cc576103cc6102f5565b816040528281528860208487010111156103e557600080fd5b6103f683602083016020880161030b565b80955050505050509250929050565b60008282101561042557634e487b7160e01b600052601160045260246000fd5b500390565b634e487b7160e01b600052600160045260246000fd5b6000825161045281846020870161030b565b9190910192915050565b602081526000825180602084015261047b81604085016020870161030b565b601f01601f19169190910160400192915050565b61032b8061049e6000396000f3fe60806040523661001357610011610017565b005b6100115b61002761002261005e565b6100a3565b565b606061004e83836040518060600160405280602781526020016102cf602791396100c7565b9392505050565b3b151590565b90565b600061009e7f360894a13ba1a3210667c828492db98dca3e2076cc3735a920a3ca505d382bbc5473ffffffffffffffffffffffffffffffffffffffff1690565b905090565b3660008037600080366000845af43d6000803e8080156100c2573d6000f35b3d6000fd5b6060833b61015c576040517f08c379a000000000000000000000000000000000000000000000000000000000815260206004820152602660248201527f416464726573733a2064656c65676174652063616c6c20746f206e6f6e2d636f60448201527f6e7472616374000000000000000000000000000000000000000000000000000060648201526084015b60405180910390fd5b6000808573ffffffffffffffffffffffffffffffffffffffff16856040516101849190610261565b600060405180830381855af49150503d80600081146101bf576040519150601f19603f3d011682016040523d82523d6000602084013e6101c4565b606091505b50915091506101d48282866101de565b9695505050505050565b606083156101ed57508161004e565b8251156101fd5782518084602001fd5b816040517f08c379a0000000000000000000000000000000000000000000000000000000008152600401610153919061027d565b60005b8381101561024c578181015183820152602001610234565b8381111561025b576000848401525b50505050565b60008251610273818460208701610231565b9190910192915050565b602081526000825180602084015261029c816040850160208701610231565b601f017fffffffffffffffffffffffffffffffffffffffffffffffffffffffffffffffe016919091016040019291505056fe416464726573733a206c6f772d6c6576656c2064656c65676174652063616c6c206661696c6564a2646970667358221220622d8852ce84c52c9c688b923393379a20b2b81b950c780b39a7458efb7431b964736f6c634300080b0033360894a13ba1a3210667c828492db98dca3e2076cc3735a920a3ca505d382bbc416464726573733a206c6f772d6c6576656c2064656c65676174652063616c6c206661696c6564416464726573733a206c6f772d6c6576656c2064656c65676174652063616c6c206661696c6564a2646970667358221220ecae926d2bf2a599d7438a7ffd05c26a7a1abcd8c0285960835da1ff0934310c64736f6c634300080b0033",
  "linkReferences": {},
  "deployedLinkReferences": {}
}