{
  "_format": "hh-sol-artifact-1",
  "contractName": "EtherZDAO",
  "sourceName": "contracts/ethereum/EtherZDAO.sol",
  "abi": [
    {
      "anonymous": false,
      "inputs": [
        {
          "indexed": false,
          "internalType": "address",
          "name": "previousAdmin",
          "type": "address"
        },
        {
          "indexed": false,
          "internalType": "address",
          "name": "newAdmin",
          "type": "address"
        }
      ],
      "name": "AdminChanged",
      "type": "event"
    },
    {
      "anonymous": false,
      "inputs": [
        {
          "indexed": true,
          "internalType": "address",
          "name": "beacon",
          "type": "address"
        }
      ],
      "name": "BeaconUpgraded",
      "type": "event"
    },
    {
      "anonymous": false,
      "inputs": [
        {
          "indexed": true,
          "internalType": "address",
          "name": "previousOwner",
          "type": "address"
        },
        {
          "indexed": true,
          "internalType": "address",
          "name": "newOwner",
          "type": "address"
        }
      ],
      "name": "OwnershipTransferred",
      "type": "event"
    },
    {
      "anonymous": false,
      "inputs": [
        {
          "indexed": false,
          "internalType": "address",
          "name": "account",
          "type": "address"
        }
      ],
      "name": "Paused",
      "type": "event"
    },
    {
      "anonymous": false,
      "inputs": [
        {
          "indexed": true,
          "internalType": "bytes32",
          "name": "role",
          "type": "bytes32"
        },
        {
          "indexed": true,
          "internalType": "bytes32",
          "name": "previousAdminRole",
          "type": "bytes32"
        },
        {
          "indexed": true,
          "internalType": "bytes32",
          "name": "newAdminRole",
          "type": "bytes32"
        }
      ],
      "name": "RoleAdminChanged",
      "type": "event"
    },
    {
      "anonymous": false,
      "inputs": [
        {
          "indexed": true,
          "internalType": "bytes32",
          "name": "role",
          "type": "bytes32"
        },
        {
          "indexed": true,
          "internalType": "address",
          "name": "account",
          "type": "address"
        },
        {
          "indexed": true,
          "internalType": "address",
          "name": "sender",
          "type": "address"
        }
      ],
      "name": "RoleGranted",
      "type": "event"
    },
    {
      "anonymous": false,
      "inputs": [
        {
          "indexed": true,
          "internalType": "bytes32",
          "name": "role",
          "type": "bytes32"
        },
        {
          "indexed": true,
          "internalType": "address",
          "name": "account",
          "type": "address"
        },
        {
          "indexed": true,
          "internalType": "address",
          "name": "sender",
          "type": "address"
        }
      ],
      "name": "RoleRevoked",
      "type": "event"
    },
    {
      "anonymous": false,
      "inputs": [
        {
          "indexed": false,
          "internalType": "address",
          "name": "account",
          "type": "address"
        }
      ],
      "name": "Unpaused",
      "type": "event"
    },
    {
      "anonymous": false,
      "inputs": [
        {
          "indexed": true,
          "internalType": "address",
          "name": "implementation",
          "type": "address"
        }
      ],
      "name": "Upgraded",
      "type": "event"
    },
    {
      "inputs": [],
      "name": "DEFAULT_ADMIN_ROLE",
      "outputs": [
        {
          "internalType": "bytes32",
          "name": "",
          "type": "bytes32"
        }
      ],
      "stateMutability": "view",
      "type": "function"
    },
    {
      "inputs": [
        {
          "internalType": "address",
          "name": "_zDAOChef",
          "type": "address"
        },
        {
          "internalType": "uint256",
          "name": "_zDAOId",
          "type": "uint256"
        },
        {
          "internalType": "address",
          "name": "_createdBy",
          "type": "address"
        },
        {
          "components": [
            {
              "internalType": "string",
              "name": "title",
              "type": "string"
            },
            {
              "internalType": "address",
              "name": "gnosisSafe",
              "type": "address"
            },
            {
              "internalType": "address",
              "name": "token",
              "type": "address"
            },
            {
              "internalType": "uint256",
              "name": "amount",
              "type": "uint256"
            },
            {
              "internalType": "uint256",
              "name": "threshold",
              "type": "uint256"
            },
            {
              "internalType": "uint256",
              "name": "quorumParticipants",
              "type": "uint256"
            },
            {
              "internalType": "uint256",
              "name": "quorumVotes",
              "type": "uint256"
            },
            {
              "internalType": "bool",
              "name": "isRelativeMajority",
              "type": "bool"
            }
          ],
          "internalType": "struct IEtherZDAOChef.ZDAOConfig",
          "name": "_zDAOConfig",
          "type": "tuple"
        }
      ],
      "name": "__ZDAO_init",
      "outputs": [],
      "stateMutability": "nonpayable",
      "type": "function"
    },
    {
      "inputs": [
        {
          "internalType": "address",
          "name": "",
          "type": "address"
        },
        {
          "internalType": "uint256",
          "name": "_proposalId",
          "type": "uint256"
        }
      ],
      "name": "cancelProposal",
      "outputs": [],
      "stateMutability": "nonpayable",
      "type": "function"
    },
    {
      "inputs": [
        {
          "internalType": "uint256",
          "name": "_proposalId",
          "type": "uint256"
        },
        {
          "internalType": "uint256",
          "name": "_voters",
          "type": "uint256"
        },
        {
          "internalType": "uint256",
          "name": "_yes",
          "type": "uint256"
        },
        {
          "internalType": "uint256",
          "name": "_no",
          "type": "uint256"
        }
      ],
      "name": "collectProposal",
      "outputs": [],
      "stateMutability": "nonpayable",
      "type": "function"
    },
    {
      "inputs": [
        {
          "internalType": "address",
          "name": "_createdBy",
          "type": "address"
        },
        {
          "internalType": "uint256",
          "name": "_duration",
          "type": "uint256"
        },
        {
          "internalType": "address",
          "name": "_target",
          "type": "address"
        },
        {
          "internalType": "uint256",
          "name": "_value",
          "type": "uint256"
        },
        {
          "internalType": "bytes",
          "name": "_data",
          "type": "bytes"
        },
        {
          "internalType": "string",
          "name": "_ipfs",
          "type": "string"
        }
      ],
      "name": "createProposal",
      "outputs": [
        {
          "internalType": "uint256",
          "name": "",
          "type": "uint256"
        }
      ],
      "stateMutability": "nonpayable",
      "type": "function"
    },
    {
      "inputs": [],
      "name": "destroyed",
      "outputs": [
        {
          "internalType": "bool",
          "name": "",
          "type": "bool"
        }
      ],
      "stateMutability": "view",
      "type": "function"
    },
    {
      "inputs": [
        {
          "internalType": "address",
          "name": "_executeBy",
          "type": "address"
        },
        {
          "internalType": "uint256",
          "name": "_proposalId",
          "type": "uint256"
        }
      ],
      "name": "executeProposal",
      "outputs": [],
      "stateMutability": "nonpayable",
      "type": "function"
    },
    {
      "inputs": [
        {
          "internalType": "bytes32",
          "name": "role",
          "type": "bytes32"
        }
      ],
      "name": "getRoleAdmin",
      "outputs": [
        {
          "internalType": "bytes32",
          "name": "",
          "type": "bytes32"
        }
      ],
      "stateMutability": "view",
      "type": "function"
    },
    {
      "inputs": [
        {
          "internalType": "bytes32",
          "name": "role",
          "type": "bytes32"
        },
        {
          "internalType": "address",
          "name": "account",
          "type": "address"
        }
      ],
      "name": "grantRole",
      "outputs": [],
      "stateMutability": "nonpayable",
      "type": "function"
    },
    {
      "inputs": [
        {
          "internalType": "bytes32",
          "name": "role",
          "type": "bytes32"
        },
        {
          "internalType": "address",
          "name": "account",
          "type": "address"
        }
      ],
      "name": "hasRole",
      "outputs": [
        {
          "internalType": "bool",
          "name": "",
          "type": "bool"
        }
      ],
      "stateMutability": "view",
      "type": "function"
    },
    {
      "inputs": [],
      "name": "lastProposalId",
      "outputs": [
        {
          "internalType": "uint256",
          "name": "",
          "type": "uint256"
        }
      ],
      "stateMutability": "view",
      "type": "function"
    },
    {
      "inputs": [
        {
          "internalType": "uint256",
          "name": "_startIndex",
          "type": "uint256"
        },
        {
          "internalType": "uint256",
          "name": "_endIndex",
          "type": "uint256"
        }
      ],
      "name": "listProposals",
      "outputs": [
        {
          "components": [
            {
              "internalType": "uint256",
              "name": "proposalId",
              "type": "uint256"
            },
            {
              "internalType": "address",
              "name": "createdBy",
              "type": "address"
            },
            {
              "internalType": "uint256",
              "name": "duration",
              "type": "uint256"
            },
            {
              "internalType": "uint256",
              "name": "yes",
              "type": "uint256"
            },
            {
              "internalType": "uint256",
              "name": "no",
              "type": "uint256"
            },
            {
              "internalType": "uint256",
              "name": "voters",
              "type": "uint256"
            },
            {
              "internalType": "string",
              "name": "ipfs",
              "type": "string"
            },
            {
              "internalType": "address",
              "name": "target",
              "type": "address"
            },
            {
              "internalType": "uint256",
              "name": "value",
              "type": "uint256"
            },
            {
              "internalType": "bytes",
              "name": "data",
              "type": "bytes"
            },
            {
              "internalType": "uint256",
              "name": "snapshot",
              "type": "uint256"
            },
            {
              "internalType": "bool",
              "name": "collected",
              "type": "bool"
            },
            {
              "internalType": "bool",
              "name": "executed",
              "type": "bool"
            },
            {
              "internalType": "bool",
              "name": "canceled",
              "type": "bool"
            }
          ],
          "internalType": "struct IEtherZDAO.Proposal[]",
          "name": "",
          "type": "tuple[]"
        }
      ],
      "stateMutability": "view",
      "type": "function"
    },
    {
      "inputs": [],
      "name": "numberOfProposals",
      "outputs": [
        {
          "internalType": "uint256",
          "name": "",
          "type": "uint256"
        }
      ],
      "stateMutability": "view",
      "type": "function"
    },
    {
      "inputs": [],
      "name": "owner",
      "outputs": [
        {
          "internalType": "address",
          "name": "",
          "type": "address"
        }
      ],
      "stateMutability": "view",
      "type": "function"
    },
    {
      "inputs": [],
      "name": "paused",
      "outputs": [
        {
          "internalType": "bool",
          "name": "",
          "type": "bool"
        }
      ],
      "stateMutability": "view",
      "type": "function"
    },
    {
      "inputs": [
        {
          "internalType": "uint256",
          "name": "",
          "type": "uint256"
        }
      ],
      "name": "proposalIds",
      "outputs": [
        {
          "internalType": "uint256",
          "name": "",
          "type": "uint256"
        }
      ],
      "stateMutability": "view",
      "type": "function"
    },
    {
      "inputs": [
        {
          "internalType": "uint256",
          "name": "",
          "type": "uint256"
        }
      ],
      "name": "proposals",
      "outputs": [
        {
          "internalType": "uint256",
          "name": "proposalId",
          "type": "uint256"
        },
        {
          "internalType": "address",
          "name": "createdBy",
          "type": "address"
        },
        {
          "internalType": "uint256",
          "name": "duration",
          "type": "uint256"
        },
        {
          "internalType": "uint256",
          "name": "yes",
          "type": "uint256"
        },
        {
          "internalType": "uint256",
          "name": "no",
          "type": "uint256"
        },
        {
          "internalType": "uint256",
          "name": "voters",
          "type": "uint256"
        },
        {
          "internalType": "string",
          "name": "ipfs",
          "type": "string"
        },
        {
          "internalType": "address",
          "name": "target",
          "type": "address"
        },
        {
          "internalType": "uint256",
          "name": "value",
          "type": "uint256"
        },
        {
          "internalType": "bytes",
          "name": "data",
          "type": "bytes"
        },
        {
          "internalType": "uint256",
          "name": "snapshot",
          "type": "uint256"
        },
        {
          "internalType": "bool",
          "name": "collected",
          "type": "bool"
        },
        {
          "internalType": "bool",
          "name": "executed",
          "type": "bool"
        },
        {
          "internalType": "bool",
          "name": "canceled",
          "type": "bool"
        }
      ],
      "stateMutability": "view",
      "type": "function"
    },
    {
      "inputs": [],
      "name": "renounceOwnership",
      "outputs": [],
      "stateMutability": "nonpayable",
      "type": "function"
    },
    {
      "inputs": [
        {
          "internalType": "bytes32",
          "name": "role",
          "type": "bytes32"
        },
        {
          "internalType": "address",
          "name": "account",
          "type": "address"
        }
      ],
      "name": "renounceRole",
      "outputs": [],
      "stateMutability": "nonpayable",
      "type": "function"
    },
    {
      "inputs": [
        {
          "internalType": "bytes32",
          "name": "role",
          "type": "bytes32"
        },
        {
          "internalType": "address",
          "name": "account",
          "type": "address"
        }
      ],
      "name": "revokeRole",
      "outputs": [],
      "stateMutability": "nonpayable",
      "type": "function"
    },
    {
      "inputs": [
        {
          "internalType": "bool",
          "name": "_destroyed",
          "type": "bool"
        }
      ],
      "name": "setDestroyed",
      "outputs": [],
      "stateMutability": "nonpayable",
      "type": "function"
    },
    {
      "inputs": [
        {
          "internalType": "address",
          "name": "_gnosisSafe",
          "type": "address"
        }
      ],
      "name": "setGnosisSafe",
      "outputs": [],
      "stateMutability": "nonpayable",
      "type": "function"
    },
    {
      "inputs": [
        {
          "internalType": "address",
          "name": "_token",
          "type": "address"
        },
        {
          "internalType": "uint256",
          "name": "_amount",
          "type": "uint256"
        }
      ],
      "name": "setVotingToken",
      "outputs": [],
      "stateMutability": "nonpayable",
      "type": "function"
    },
    {
      "inputs": [
        {
          "internalType": "uint256",
          "name": "_proposalId",
          "type": "uint256"
        }
      ],
      "name": "state",
      "outputs": [
        {
          "internalType": "enum IEtherZDAO.ProposalState",
          "name": "",
          "type": "uint8"
        }
      ],
      "stateMutability": "view",
      "type": "function"
    },
    {
      "inputs": [
        {
          "internalType": "bytes4",
          "name": "interfaceId",
          "type": "bytes4"
        }
      ],
      "name": "supportsInterface",
      "outputs": [
        {
          "internalType": "bool",
          "name": "",
          "type": "bool"
        }
      ],
      "stateMutability": "view",
      "type": "function"
    },
    {
      "inputs": [
        {
          "internalType": "address",
          "name": "newOwner",
          "type": "address"
        }
      ],
      "name": "transferOwnership",
      "outputs": [],
      "stateMutability": "nonpayable",
      "type": "function"
    },
    {
      "inputs": [
        {
          "internalType": "address",
          "name": "newImplementation",
          "type": "address"
        }
      ],
      "name": "upgradeTo",
      "outputs": [],
      "stateMutability": "nonpayable",
      "type": "function"
    },
    {
      "inputs": [
        {
          "internalType": "address",
          "name": "newImplementation",
          "type": "address"
        },
        {
          "internalType": "bytes",
          "name": "data",
          "type": "bytes"
        }
      ],
      "name": "upgradeToAndCall",
      "outputs": [],
      "stateMutability": "payable",
      "type": "function"
    },
    {
      "inputs": [],
      "name": "version",
      "outputs": [
        {
          "internalType": "uint256",
          "name": "",
          "type": "uint256"
        }
      ],
      "stateMutability": "view",
      "type": "function"
    },
    {
      "inputs": [],
      "name": "zDAOChef",
      "outputs": [
        {
          "internalType": "address",
          "name": "",
          "type": "address"
        }
      ],
      "stateMutability": "view",
      "type": "function"
    },
    {
      "inputs": [],
      "name": "zDAOInfo",
      "outputs": [
        {
          "internalType": "uint256",
          "name": "zDAOId",
          "type": "uint256"
        },
        {
          "internalType": "string",
          "name": "title",
          "type": "string"
        },
        {
          "internalType": "address",
          "name": "createdBy",
          "type": "address"
        },
        {
          "internalType": "address",
          "name": "gnosisSafe",
          "type": "address"
        },
        {
          "internalType": "address",
          "name": "token",
          "type": "address"
        },
        {
          "internalType": "uint256",
          "name": "amount",
          "type": "uint256"
        },
        {
          "internalType": "uint256",
          "name": "threshold",
          "type": "uint256"
        },
        {
          "internalType": "uint256",
          "name": "quorumParticipants",
          "type": "uint256"
        },
        {
          "internalType": "uint256",
          "name": "quorumVotes",
          "type": "uint256"
        },
        {
          "internalType": "uint256",
          "name": "snapshot",
          "type": "uint256"
        },
        {
          "internalType": "bool",
          "name": "isRelativeMajority",
          "type": "bool"
        },
        {
          "internalType": "bool",
          "name": "destroyed",
          "type": "bool"
        }
      ],
      "stateMutability": "view",
      "type": "function"
    },
    {
      "inputs": [],
      "name": "zDAOOwner",
      "outputs": [
        {
          "internalType": "address",
          "name": "",
          "type": "address"
        }
      ],
      "stateMutability": "view",
      "type": "function"
    }
  ],
  "bytecode": "0x60a06040523060805234801561001457600080fd5b50608051613c23610045600039600081816109cd01528181610a63015281816110ba01526111500152613c236000f3fe6080604052600436106101e35760003560e01c8063715018a6116101025780639b644a2311610095578063c3085a3e11610064578063c3085a3e146105c4578063d547741f146105e4578063d8191e6c14610604578063f2fde38b1461063157600080fd5b80639b644a231461054f578063a217fddf1461056f578063b43ddd8714610584578063bfc42645146105a457600080fd5b80638da5cb5b116100d15780638da5cb5b146104aa57806390bfeab3146104c857806391d14854146104e957806393850b441461052f57600080fd5b8063715018a61461043b57806374cb3041146104505780637f6dda14146104675780638d7af4731461049457600080fd5b80633659cfe61161017a5780634f1ef286116101495780634f1ef286146103d957806353350755146103ec57806354fd4d501461040c5780635c975abb1461042357600080fd5b80633659cfe61461034c57806339cf4e891461036c5780633e4f49e61461038c578063472858b4146103b957600080fd5b8063248a9ca3116101b6578063248a9ca3146102b05780632f2ff15d146102ee578063359cbbc91461030e57806336568abe1461032c57600080fd5b8063013cf08b146101e857806301ffc9a71461022b578063116b1a091461025b578063137f415b1461028e575b600080fd5b3480156101f457600080fd5b50610208610203366004613232565b610651565b6040516102229e9d9c9b9a999897969594939291906132a7565b60405180910390f35b34801561023757600080fd5b5061024b61024636600461334e565b6107ec565b6040519015158152602001610222565b34801561026757600080fd5b50610194546001600160a01b03165b6040516001600160a01b039091168152602001610222565b34801561029a57600080fd5b506102ae6102a93660046133ac565b610885565b005b3480156102bc57600080fd5b506102e06102cb366004613232565b60009081526097602052604090206001015490565b604051908152602001610222565b3480156102fa57600080fd5b506102ae6103093660046133d6565b61090b565b34801561031a57600080fd5b5061019c54610100900460ff1661024b565b34801561033857600080fd5b506102ae6103473660046133d6565b610936565b34801561035857600080fd5b506102ae610367366004613402565b6109c2565b34801561037857600080fd5b506102ae61038736600461341d565b610b60565b34801561039857600080fd5b506103ac6103a7366004613232565b610e39565b60405161022291906134a1565b3480156103c557600080fd5b506102ae6103d43660046134c9565b611048565b6102ae6103e7366004613501565b6110af565b3480156103f857600080fd5b506102ae6104073660046133ac565b61123a565b34801561041857600080fd5b506102e06101915481565b34801561042f57600080fd5b5060fb5460ff1661024b565b34801561044757600080fd5b506102ae61141a565b34801561045c57600080fd5b506102e061019d5481565b34801561047357600080fd5b506104876104823660046135c3565b611480565b60405161022291906135e5565b3480156104a057600080fd5b5061019d546102e0565b3480156104b657600080fd5b506033546001600160a01b0316610276565b3480156104d457600080fd5b506101a054610276906001600160a01b031681565b3480156104f557600080fd5b5061024b6105043660046133d6565b60009182526097602090815260408084206001600160a01b0393909316845291905290205460ff1690565b34801561053b57600080fd5b506102ae61054a36600461373d565b6118ef565b34801561055b57600080fd5b506102e061056a366004613232565b611aeb565b34801561057b57600080fd5b506102e0600081565b34801561059057600080fd5b506102e061059f3660046137b8565b611b0d565b3480156105b057600080fd5b506102ae6105bf3660046133ac565b611d18565b3480156105d057600080fd5b506102ae6105df366004613402565b611fc4565b3480156105f057600080fd5b506102ae6105ff3660046133d6565b612040565b34801561061057600080fd5b50610619612066565b6040516102229c9b9a9998979695949392919061385c565b34801561063d57600080fd5b506102ae61064c366004613402565b612156565b61019e60205260009081526040902080546001820154600283015460038401546004850154600586015460068701805496976001600160a01b039096169694959394929391926106a0906138d8565b80601f01602080910402602001604051908101604052809291908181526020018280546106cc906138d8565b80156107195780601f106106ee57610100808354040283529160200191610719565b820191906000526020600020905b8154815290600101906020018083116106fc57829003601f168201915b505050506007830154600884015460098501805494956001600160a01b039093169491935090610748906138d8565b80601f0160208091040260200160405190810160405280929190818152602001828054610774906138d8565b80156107c15780601f10610796576101008083540402835291602001916107c1565b820191906000526020600020905b8154815290600101906020018083116107a457829003601f168201915b50505050600a830154600b9093015491929160ff80821692506101008204811691620100009004168e565b60007fffffffff0000000000000000000000000000000000000000000000000000000082167f7965db0b00000000000000000000000000000000000000000000000000000000148061087f57507f01ffc9a7000000000000000000000000000000000000000000000000000000007fffffffff000000000000000000000000000000000000000000000000000000008316145b92915050565b6101a0546001600160a01b031633146108d65760405162461bcd60e51b815260206004820152600e60248201526d2737ba1030902d2220a7a1b432b360911b60448201526064015b60405180910390fd5b610196805473ffffffffffffffffffffffffffffffffffffffff19166001600160a01b03939093169290921790915561019755565b6000828152609760205260409020600101546109278133612235565b61093183836122b5565b505050565b6001600160a01b03811633146109b45760405162461bcd60e51b815260206004820152602f60248201527f416363657373436f6e74726f6c3a2063616e206f6e6c792072656e6f756e636560448201527f20726f6c657320666f722073656c66000000000000000000000000000000000060648201526084016108cd565b6109be8282612357565b5050565b306001600160a01b037f0000000000000000000000000000000000000000000000000000000000000000161415610a615760405162461bcd60e51b815260206004820152602c60248201527f46756e6374696f6e206d7573742062652063616c6c6564207468726f7567682060448201527f64656c656761746563616c6c000000000000000000000000000000000000000060648201526084016108cd565b7f00000000000000000000000000000000000000000000000000000000000000006001600160a01b0316610abc7f360894a13ba1a3210667c828492db98dca3e2076cc3735a920a3ca505d382bbc546001600160a01b031690565b6001600160a01b031614610b385760405162461bcd60e51b815260206004820152602c60248201527f46756e6374696f6e206d7573742062652063616c6c6564207468726f7567682060448201527f6163746976652070726f7879000000000000000000000000000000000000000060648201526084016108cd565b610b41816123da565b60408051600080825260208201909252610b5d91839190612434565b50565b600054610100900460ff16610b7b5760005460ff1615610b7f565b303b155b610bf15760405162461bcd60e51b815260206004820152602e60248201527f496e697469616c697a61626c653a20636f6e747261637420697320616c72656160448201527f647920696e697469616c697a656400000000000000000000000000000000000060648201526084016108cd565b600054610100900460ff16158015610c13576000805461ffff19166101011790555b610c1b6125f1565b6101a0805473ffffffffffffffffffffffffffffffffffffffff19166001600160a01b03871617905560408051610180810190915284815260208101610c61848061390d565b8080601f0160208091040260200160405190810160405280939291908181526020018383808284376000920191909152505050908252506001600160a01b038516602080830191909152604091820191610cc091908601908601613402565b6001600160a01b03168152602001610cde6060850160408601613402565b6001600160a01b0316815260200183606001358152602001836080013581526020018360a0013581526020018360c0013581526020014381526020018360e0016020810190610d2d91906134c9565b15158152600060209182015281516101929081558282015180519192610d5a926101939290910190613199565b5060408201516002820180546001600160a01b0392831673ffffffffffffffffffffffffffffffffffffffff19918216179091556060840151600384018054918416918316919091179055608084015160048401805491909316911617905560a0820151600582015560c0820151600682015560e082015160078201556101008083015160088301556101208301516009830155610140830151600a909201805461016090940151151590910261ff00199215159290921661ffff19909316929092171790558015610e32576000805461ff00191690555b5050505050565b600081600081118015610e4f575061019d548111155b610e8a5760405162461bcd60e51b815260206004820152600c60248201526b496e76616c6964207a44414f60a01b60448201526064016108cd565b600083815261019e60205260409020600b81015462010000900460ff1615610eb6576002925050611042565b600b810154610100900460ff1615610ed2576003925050611042565b600b81015460ff16610ee8576000925050611042565b6101995460058201541080610f12575061019a5460048201546003830154610f109190613988565b105b15610f21576004925050611042565b61019c5460ff168015610f6557506101985460048201546003830154610f479190613988565b6003830154610f58906127106139a0565b610f6291906139bf565b10155b15610f74576005925050611042565b61019c5460ff1615801561102d57506101985461019654604080517f18160ddd00000000000000000000000000000000000000000000000000000000815290516001600160a01b03909216916318160ddd916004818101926020929091908290030181865afa158015610feb573d6000803e3d6000fd5b505050506040513d601f19601f8201168201806040525081019061100f91906139e1565b6003830154611020906127106139a0565b61102a91906139bf565b10155b1561103c576005925050611042565b60049250505b50919050565b6101a0546001600160a01b031633146110945760405162461bcd60e51b815260206004820152600e60248201526d2737ba1030902d2220a7a1b432b360911b60448201526064016108cd565b61019c80549115156101000261ff0019909216919091179055565b306001600160a01b037f000000000000000000000000000000000000000000000000000000000000000016141561114e5760405162461bcd60e51b815260206004820152602c60248201527f46756e6374696f6e206d7573742062652063616c6c6564207468726f7567682060448201527f64656c656761746563616c6c000000000000000000000000000000000000000060648201526084016108cd565b7f00000000000000000000000000000000000000000000000000000000000000006001600160a01b03166111a97f360894a13ba1a3210667c828492db98dca3e2076cc3735a920a3ca505d382bbc546001600160a01b031690565b6001600160a01b0316146112255760405162461bcd60e51b815260206004820152602c60248201527f46756e6374696f6e206d7573742062652063616c6c6564207468726f7567682060448201527f6163746976652070726f7879000000000000000000000000000000000000000060648201526084016108cd565b61122e826123da565b6109be82826001612434565b6101a0546001600160a01b031633146112865760405162461bcd60e51b815260206004820152600e60248201526d2737ba1030902d2220a7a1b432b360911b60448201526064016108cd565b61019c54610100900460ff16156112df5760405162461bcd60e51b815260206004820152601160248201527f416c72656164792064657374726f79656400000000000000000000000000000060448201526064016108cd565b806000811180156112f3575061019d548111155b61132e5760405162461bcd60e51b815260206004820152600c60248201526b496e76616c6964207a44414f60a01b60448201526064016108cd565b604051631f27a4f360e11b8152600481018390526000903090633e4f49e690602401602060405180830381865afa15801561136d573d6000803e3d6000fd5b505050506040513d601f19601f8201168201806040525081019061139191906139fa565b905060008160058111156113a7576113a761348b565b146113f45760405162461bcd60e51b815260206004820152601660248201527f4e6f7420612070656e64696e672070726f706f73616c0000000000000000000060448201526064016108cd565b5050600090815261019e60205260409020600b01805462ff000019166201000017905550565b6033546001600160a01b031633146114745760405162461bcd60e51b815260206004820181905260248201527f4f776e61626c653a2063616c6c6572206973206e6f7420746865206f776e657260448201526064016108cd565b61147e600061268c565b565b6060600083116114d25760405162461bcd60e51b815260206004820152601660248201527f73686f756c6420737461727420696e646578203e20300000000000000000000060448201526064016108cd565b818311156115225760405162461bcd60e51b815260206004820152601960248201527f73686f756c6420737461727420696e646578203c3d20656e640000000000000060448201526064016108cd565b61019d548311156115755760405162461bcd60e51b815260206004820152601c60248201527f73686f756c6420737461727420696e646578203c3d206c656e6774680000000060448201526064016108cd565b61019d548211156115c85760405162461bcd60e51b815260206004820152601a60248201527f73686f756c6420656e6420696e646578203c3d206c656e67746800000000000060448201526064016108cd565b60006115d48484613a1b565b6115df906001613988565b905060008167ffffffffffffffff8111156115fc576115fc6134eb565b6040519080825280602002602001820160405280156116b757816020015b6116a4604051806101c001604052806000815260200160006001600160a01b03168152602001600081526020016000815260200160008152602001600081526020016060815260200160006001600160a01b031681526020016000815260200160608152602001600081526020016000151581526020016000151581526020016000151581525090565b81526020019060019003908161161a5790505b50905060005b828110156118e65761019e60006116d48389613988565b8152602080820192909252604090810160002081516101c0810183528154815260018201546001600160a01b0316938101939093526002810154918301919091526003810154606083015260048101546080830152600581015460a083015260068101805460c084019190611748906138d8565b80601f0160208091040260200160405190810160405280929190818152602001828054611774906138d8565b80156117c15780601f10611796576101008083540402835291602001916117c1565b820191906000526020600020905b8154815290600101906020018083116117a457829003601f168201915b505050918352505060078201546001600160a01b03166020820152600882015460408201526009820180546060909201916117fb906138d8565b80601f0160208091040260200160405190810160405280929190818152602001828054611827906138d8565b80156118745780601f1061184957610100808354040283529160200191611874565b820191906000526020600020905b81548152906001019060200180831161185757829003601f168201915b5050509183525050600a8201546020820152600b9091015460ff8082161515604084015261010082048116151560608401526201000090910416151560809091015282518390839081106118ca576118ca613a32565b6020026020010181905250806118df90613a48565b90506116bd565b50949350505050565b6101a0546001600160a01b0316331461193b5760405162461bcd60e51b815260206004820152600e60248201526d2737ba1030902d2220a7a1b432b360911b60448201526064016108cd565b8360008111801561194f575061019d548111155b61198a5760405162461bcd60e51b815260206004820152600c60248201526b496e76616c6964207a44414f60a01b60448201526064016108cd565b600085815261019e60205260409020600b81015460ff16156119ee5760405162461bcd60e51b815260206004820152601a60248201527f416c726561647920636f6c6c65637465642070726f706f73616c00000000000060448201526064016108cd565b604051631f27a4f360e11b8152600481018790526000903090633e4f49e690602401602060405180830381865afa158015611a2d573d6000803e3d6000fd5b505050506040513d601f19601f82011682018060405250810190611a5191906139fa565b90506000816005811115611a6757611a6761348b565b14611ab45760405162461bcd60e51b815260206004820152601660248201527f4e6f7420612070656e64696e672070726f706f73616c0000000000000000000060448201526064016108cd565b506005810194909455506003830191909155600490910155600090815261019e60205260409020600b01805460ff19166001179055565b61019f8181548110611afc57600080fd5b600091825260209091200154905081565b6101a0546000906001600160a01b03163314611b5c5760405162461bcd60e51b815260206004820152600e60248201526d2737ba1030902d2220a7a1b432b360911b60448201526064016108cd565b61019c54610100900460ff1615611bb55760405162461bcd60e51b815260206004820152601160248201527f416c72656164792064657374726f79656400000000000000000000000000000060448201526064016108cd565b61019754610196546040517f70a082310000000000000000000000000000000000000000000000000000000081526001600160a01b03808d1660048301528c939216906370a0823190602401602060405180830381865afa158015611c1e573d6000803e3d6000fd5b505050506040513d601f19601f82011682018060405250810190611c4291906139e1565b1015611c905760405162461bcd60e51b815260206004820152601860248201527f4e6f7420612076616c696420746f6b656e20686f6c646572000000000000000060448201526064016108cd565b6000611d098b8b8b8b8b8b8080601f01602080910402602001604051908101604052809392919081815260200183838082843760009201919091525050604080516020601f8f018190048102820181019092528d815292508d91508c90819084018382808284376000920191909152506126eb92505050565b9b9a5050505050505050505050565b6101a0546001600160a01b03163314611d645760405162461bcd60e51b815260206004820152600e60248201526d2737ba1030902d2220a7a1b432b360911b60448201526064016108cd565b61019c54610100900460ff1615611dbd5760405162461bcd60e51b815260206004820152601160248201527f416c72656164792064657374726f79656400000000000000000000000000000060448201526064016108cd565b80600081118015611dd1575061019d548111155b611e0c5760405162461bcd60e51b815260206004820152600c60248201526b496e76616c6964207a44414f60a01b60448201526064016108cd565b604051631f27a4f360e11b8152600481018390526000903090633e4f49e690602401602060405180830381865afa158015611e4b573d6000803e3d6000fd5b505050506040513d601f19601f82011682018060405250810190611e6f91906139fa565b90506005816005811115611e8557611e8561348b565b14611ed25760405162461bcd60e51b815260206004820152601860248201527f4e6f742061207375636365656465642070726f706f73616c000000000000000060448201526064016108cd565b600083815261019e60205260408082206007810154600882015492519193926001600160a01b0390911691611f0b906009860190613a63565b60006040518083038185875af1925050503d8060008114611f48576040519150601f19603f3d011682016040523d82523d6000602084013e611f4d565b606091505b5050905080611f9e5760405162461bcd60e51b815260206004820152601e60248201527f457865637574696f6e207472616e73616374696f6e207265766572746564000060448201526064016108cd565b50505060009182525061019e60205260409020600b01805461ff00191661010017905550565b6101a0546001600160a01b031633146120105760405162461bcd60e51b815260206004820152600e60248201526d2737ba1030902d2220a7a1b432b360911b60448201526064016108cd565b610195805473ffffffffffffffffffffffffffffffffffffffff19166001600160a01b0392909216919091179055565b60008281526097602052604090206001015461205c8133612235565b6109318383612357565b6101928054610193805491929161207c906138d8565b80601f01602080910402602001604051908101604052809291908181526020018280546120a8906138d8565b80156120f55780601f106120ca576101008083540402835291602001916120f5565b820191906000526020600020905b8154815290600101906020018083116120d857829003601f168201915b50505060028401546003850154600486015460058701546006880154600789015460088a015460098b0154600a909b0154999a6001600160a01b039788169a9688169950949096169650919490939192909160ff808216916101009004168c565b6033546001600160a01b031633146121b05760405162461bcd60e51b815260206004820181905260248201527f4f776e61626c653a2063616c6c6572206973206e6f7420746865206f776e657260448201526064016108cd565b6001600160a01b03811661222c5760405162461bcd60e51b815260206004820152602660248201527f4f776e61626c653a206e6577206f776e657220697320746865207a65726f206160448201527f646472657373000000000000000000000000000000000000000000000000000060648201526084016108cd565b610b5d8161268c565b60008281526097602090815260408083206001600160a01b038516845290915290205460ff166109be57612273816001600160a01b0316601461290d565b61227e83602061290d565b60405160200161228f929190613aff565b60408051601f198184030181529082905262461bcd60e51b82526108cd91600401613b80565b60008281526097602090815260408083206001600160a01b038516845290915290205460ff166109be5760008281526097602090815260408083206001600160a01b03851684529091529020805460ff191660011790556123133390565b6001600160a01b0316816001600160a01b0316837f2f8788117e7eff1d82e926ec794901d17c78024a50270940304540a733656f0d60405160405180910390a45050565b60008281526097602090815260408083206001600160a01b038516845290915290205460ff16156109be5760008281526097602090815260408083206001600160a01b0385168085529252808320805460ff1916905551339285917ff6391f5c32d9c69d2a47ea670b442974b53935d1edc7fd64eb21e047a839171b9190a45050565b6033546001600160a01b03163314610b5d5760405162461bcd60e51b815260206004820181905260248201527f4f776e61626c653a2063616c6c6572206973206e6f7420746865206f776e657260448201526064016108cd565b60006124677f360894a13ba1a3210667c828492db98dca3e2076cc3735a920a3ca505d382bbc546001600160a01b031690565b905061247284612b3d565b60008351118061247f5750815b156124905761248e8484612bff565b505b7f4910fdfa16fed3260ed0e7147f7cc6da11a60208b5b9406d12a635614ffd9143805460ff16610e3257805460ff191660011781556040516001600160a01b038316602482015261253d90869060440160408051601f198184030181529190526020810180517bffffffffffffffffffffffffffffffffffffffffffffffffffffffff167f3659cfe600000000000000000000000000000000000000000000000000000000179052612bff565b50805460ff191681557f360894a13ba1a3210667c828492db98dca3e2076cc3735a920a3ca505d382bbc546001600160a01b038381169116146125e85760405162461bcd60e51b815260206004820152602f60248201527f45524331393637557067726164653a207570677261646520627265616b73206660448201527f757274686572207570677261646573000000000000000000000000000000000060648201526084016108cd565b610e3285612d01565b600054610100900460ff1661265c5760405162461bcd60e51b815260206004820152602b60248201527f496e697469616c697a61626c653a20636f6e7472616374206973206e6f74206960448201526a6e697469616c697a696e6760a81b60648201526084016108cd565b612664612d41565b61266c612dbc565b612674612e3f565b61267c612eb2565b612684612f2d565b600161019155565b603380546001600160a01b0383811673ffffffffffffffffffffffffffffffffffffffff19831681179093556040519116919082907f8be0079c531659141344cd1fd0a4f28419497f9722a3daafe3b4186f6b6457e090600090a35050565b61019d8054600091826126fd83613a48565b9190505550604051806101c0016040528061019d548152602001886001600160a01b03168152602001878152602001600081526020016000815260200160008152602001838152602001866001600160a01b031681526020018581526020018481526020014381526020016000151581526020016000151581526020016000151581525061019e600061019d5481526020019081526020016000206000820151816000015560208201518160010160006101000a8154816001600160a01b0302191690836001600160a01b0316021790555060408201518160020155606082015181600301556080820151816004015560a0820151816005015560c0820151816006019080519060200190612813929190613199565b5060e082015160078201805473ffffffffffffffffffffffffffffffffffffffff19166001600160a01b039092169190911790556101008201516008820155610120820151805161286e916009840191602090910190613199565b50610140820151600a820155610160820151600b90910180546101808401516101a0909401511515620100000262ff0000199415156101000261ff00199415159490941661ffff199092169190911792909217929092161790555061019d5461019f80546001810182556000919091527f393a60fc9175593e1a78e765b331de118c5f3515197c300f7c46d515f7ce93cf018190559695505050505050565b6060600061291c8360026139a0565b612927906002613988565b67ffffffffffffffff81111561293f5761293f6134eb565b6040519080825280601f01601f191660200182016040528015612969576020820181803683370190505b5090507f3000000000000000000000000000000000000000000000000000000000000000816000815181106129a0576129a0613a32565b60200101907effffffffffffffffffffffffffffffffffffffffffffffffffffffffffffff1916908160001a9053507f780000000000000000000000000000000000000000000000000000000000000081600181518110612a0357612a03613a32565b60200101907effffffffffffffffffffffffffffffffffffffffffffffffffffffffffffff1916908160001a9053506000612a3f8460026139a0565b612a4a906001613988565b90505b6001811115612ae7577f303132333435363738396162636465660000000000000000000000000000000085600f1660108110612a8b57612a8b613a32565b1a60f81b828281518110612aa157612aa1613a32565b60200101907effffffffffffffffffffffffffffffffffffffffffffffffffffffffffffff1916908160001a90535060049490941c93612ae081613b93565b9050612a4d565b508315612b365760405162461bcd60e51b815260206004820181905260248201527f537472696e67733a20686578206c656e67746820696e73756666696369656e7460448201526064016108cd565b9392505050565b803b612bb15760405162461bcd60e51b815260206004820152602d60248201527f455243313936373a206e657720696d706c656d656e746174696f6e206973206e60448201527f6f74206120636f6e74726163740000000000000000000000000000000000000060648201526084016108cd565b7f360894a13ba1a3210667c828492db98dca3e2076cc3735a920a3ca505d382bbc805473ffffffffffffffffffffffffffffffffffffffff19166001600160a01b0392909216919091179055565b6060823b612c755760405162461bcd60e51b815260206004820152602660248201527f416464726573733a2064656c65676174652063616c6c20746f206e6f6e2d636f60448201527f6e7472616374000000000000000000000000000000000000000000000000000060648201526084016108cd565b600080846001600160a01b031684604051612c909190613baa565b600060405180830381855af49150503d8060008114612ccb576040519150601f19603f3d011682016040523d82523d6000602084013e612cd0565b606091505b5091509150612cf88282604051806060016040528060278152602001613bc760279139612f98565b95945050505050565b612d0a81612b3d565b6040516001600160a01b038216907fbc7cd75a20ee27fd9adebab32041f755214dbc6bffa90cc0225b39da2e5c2d3b90600090a250565b600054610100900460ff16612dac5760405162461bcd60e51b815260206004820152602b60248201527f496e697469616c697a61626c653a20636f6e7472616374206973206e6f74206960448201526a6e697469616c697a696e6760a81b60648201526084016108cd565b612db4612fd1565b61147e61303c565b600054610100900460ff16612e275760405162461bcd60e51b815260206004820152602b60248201527f496e697469616c697a61626c653a20636f6e7472616374206973206e6f74206960448201526a6e697469616c697a696e6760a81b60648201526084016108cd565b612e2f612fd1565b612e37612fd1565b61147e612fd1565b600054610100900460ff16612eaa5760405162461bcd60e51b815260206004820152602b60248201527f496e697469616c697a61626c653a20636f6e7472616374206973206e6f74206960448201526a6e697469616c697a696e6760a81b60648201526084016108cd565b61147e6130b0565b600054610100900460ff16612f1d5760405162461bcd60e51b815260206004820152602b60248201527f496e697469616c697a61626c653a20636f6e7472616374206973206e6f74206960448201526a6e697469616c697a696e6760a81b60648201526084016108cd565b612f25612fd1565b61147e613122565b600054610100900460ff16612e2f5760405162461bcd60e51b815260206004820152602b60248201527f496e697469616c697a61626c653a20636f6e7472616374206973206e6f74206960448201526a6e697469616c697a696e6760a81b60648201526084016108cd565b60608315612fa7575081612b36565b825115612fb75782518084602001fd5b8160405162461bcd60e51b81526004016108cd9190613b80565b600054610100900460ff1661147e5760405162461bcd60e51b815260206004820152602b60248201527f496e697469616c697a61626c653a20636f6e7472616374206973206e6f74206960448201526a6e697469616c697a696e6760a81b60648201526084016108cd565b600054610100900460ff166130a75760405162461bcd60e51b815260206004820152602b60248201527f496e697469616c697a61626c653a20636f6e7472616374206973206e6f74206960448201526a6e697469616c697a696e6760a81b60648201526084016108cd565b61147e3361268c565b600054610100900460ff1661311b5760405162461bcd60e51b815260206004820152602b60248201527f496e697469616c697a61626c653a20636f6e7472616374206973206e6f74206960448201526a6e697469616c697a696e6760a81b60648201526084016108cd565b600160c955565b600054610100900460ff1661318d5760405162461bcd60e51b815260206004820152602b60248201527f496e697469616c697a61626c653a20636f6e7472616374206973206e6f74206960448201526a6e697469616c697a696e6760a81b60648201526084016108cd565b60fb805460ff19169055565b8280546131a5906138d8565b90600052602060002090601f0160209004810192826131c7576000855561320d565b82601f106131e057805160ff191683800117855561320d565b8280016001018555821561320d579182015b8281111561320d5782518255916020019190600101906131f2565b5061321992915061321d565b5090565b5b80821115613219576000815560010161321e565b60006020828403121561324457600080fd5b5035919050565b60005b8381101561326657818101518382015260200161324e565b83811115613275576000848401525b50505050565b6000815180845261329381602086016020860161324b565b601f01601f19169290920160200192915050565b8e81526001600160a01b038e1660208201528c60408201528b60608201528a60808201528960a08201526101c060c082015260006132e96101c083018b61327b565b6001600160a01b038a1660e084015288610100840152828103610120840152613312818961327b565b9150508561014083015261332b61016083018615159052565b9215156101808201529015156101a0909101529c9b505050505050505050505050565b60006020828403121561336057600080fd5b81357fffffffff0000000000000000000000000000000000000000000000000000000081168114612b3657600080fd5b80356001600160a01b03811681146133a757600080fd5b919050565b600080604083850312156133bf57600080fd5b6133c883613390565b946020939093013593505050565b600080604083850312156133e957600080fd5b823591506133f960208401613390565b90509250929050565b60006020828403121561341457600080fd5b612b3682613390565b6000806000806080858703121561343357600080fd5b61343c85613390565b93506020850135925061345160408601613390565b9150606085013567ffffffffffffffff81111561346d57600080fd5b8501610100818803121561348057600080fd5b939692955090935050565b634e487b7160e01b600052602160045260246000fd5b60208101600683106134c357634e487b7160e01b600052602160045260246000fd5b91905290565b6000602082840312156134db57600080fd5b81358015158114612b3657600080fd5b634e487b7160e01b600052604160045260246000fd5b6000806040838503121561351457600080fd5b61351d83613390565b9150602083013567ffffffffffffffff8082111561353a57600080fd5b818501915085601f83011261354e57600080fd5b813581811115613560576135606134eb565b604051601f8201601f19908116603f01168101908382118183101715613588576135886134eb565b816040528281528860208487010111156135a157600080fd5b8260208601602083013760006020848301015280955050505050509250929050565b600080604083850312156135d657600080fd5b50508035926020909101359150565b60006020808301818452808551808352604092508286019150828160051b87010184880160005b8381101561372f577fffffffffffffffffffffffffffffffffffffffffffffffffffffffffffffffc089840301855281516101c0815185528882015161365c8a8701826001600160a01b03169052565b508188015185890152606080830151908601526080808301519086015260a0808301519086015260c08083015181870183905261369b8388018261327b565b9250505060e0808301516136b9828801826001600160a01b03169052565b5050610100828101519086015261012080830151868303828801526136de838261327b565b92505050610140808301518187015250610160808301516137028288018215159052565b5050610180828101511515908601526101a09182015115159190940152938601939086019060010161360c565b509098975050505050505050565b6000806000806080858703121561375357600080fd5b5050823594602084013594506040840135936060013592509050565b60008083601f84011261378157600080fd5b50813567ffffffffffffffff81111561379957600080fd5b6020830191508360208285010111156137b157600080fd5b9250929050565b60008060008060008060008060c0898b0312156137d457600080fd5b6137dd89613390565b9750602089013596506137f260408a01613390565b955060608901359450608089013567ffffffffffffffff8082111561381657600080fd5b6138228c838d0161376f565b909650945060a08b013591508082111561383b57600080fd5b506138488b828c0161376f565b999c989b5096995094979396929594505050565b60006101808e83528060208401526138768184018f61327b565b6001600160a01b039d8e1660408501529b8d166060840152505097909916608088015260a087019590955260c086019390935260e085019190915261010084015261012083015215156101408201529115156101609092019190915292915050565b600181811c908216806138ec57607f821691505b6020821081141561104257634e487b7160e01b600052602260045260246000fd5b60008083357fffffffffffffffffffffffffffffffffffffffffffffffffffffffffffffffe184360301811261394257600080fd5b83018035915067ffffffffffffffff82111561395d57600080fd5b6020019150368190038213156137b157600080fd5b634e487b7160e01b600052601160045260246000fd5b6000821982111561399b5761399b613972565b500190565b60008160001904831182151516156139ba576139ba613972565b500290565b6000826139dc57634e487b7160e01b600052601260045260246000fd5b500490565b6000602082840312156139f357600080fd5b5051919050565b600060208284031215613a0c57600080fd5b815160068110612b3657600080fd5b600082821015613a2d57613a2d613972565b500390565b634e487b7160e01b600052603260045260246000fd5b6000600019821415613a5c57613a5c613972565b5060010190565b600080835481600182811c915080831680613a7f57607f831692505b6020808410821415613a9f57634e487b7160e01b86526022600452602486fd5b818015613ab35760018114613ac457613af1565b60ff19861689528489019650613af1565b60008a81526020902060005b86811015613ae95781548b820152908501908301613ad0565b505084890196505b509498975050505050505050565b7f416363657373436f6e74726f6c3a206163636f756e7420000000000000000000815260008351613b3781601785016020880161324b565b7f206973206d697373696e6720726f6c65200000000000000000000000000000006017918401918201528351613b7481602884016020880161324b565b01602801949350505050565b602081526000612b36602083018461327b565b600081613ba257613ba2613972565b506000190190565b60008251613bbc81846020870161324b565b919091019291505056fe416464726573733a206c6f772d6c6576656c2064656c65676174652063616c6c206661696c6564a2646970667358221220bd8962b288a95bae7fe98347801cbeb1d7f4e92e679de535a2c0a5f806de6d4564736f6c634300080b0033",
  "linkReferences": {},
  "deployedLinkReferences": {}
}