{
  "_format": "hh-sol-artifact-1",
  "contractName": "EtherZDAO",
  "sourceName": "contracts/ethereum/EtherZDAO.sol",
  "abi": [
    {
      "anonymous": false,
      "inputs": [
        {
          "indexed": false,
          "internalType": "address",
          "name": "previousAdmin",
          "type": "address"
        },
        {
          "indexed": false,
          "internalType": "address",
          "name": "newAdmin",
          "type": "address"
        }
      ],
      "name": "AdminChanged",
      "type": "event"
    },
    {
      "anonymous": false,
      "inputs": [
        {
          "indexed": true,
          "internalType": "address",
          "name": "beacon",
          "type": "address"
        }
      ],
      "name": "BeaconUpgraded",
      "type": "event"
    },
    {
      "anonymous": false,
      "inputs": [
        {
          "indexed": true,
          "internalType": "address",
          "name": "previousOwner",
          "type": "address"
        },
        {
          "indexed": true,
          "internalType": "address",
          "name": "newOwner",
          "type": "address"
        }
      ],
      "name": "OwnershipTransferred",
      "type": "event"
    },
    {
      "anonymous": false,
      "inputs": [
        {
          "indexed": false,
          "internalType": "address",
          "name": "account",
          "type": "address"
        }
      ],
      "name": "Paused",
      "type": "event"
    },
    {
      "anonymous": false,
      "inputs": [
        {
          "indexed": true,
          "internalType": "bytes32",
          "name": "role",
          "type": "bytes32"
        },
        {
          "indexed": true,
          "internalType": "bytes32",
          "name": "previousAdminRole",
          "type": "bytes32"
        },
        {
          "indexed": true,
          "internalType": "bytes32",
          "name": "newAdminRole",
          "type": "bytes32"
        }
      ],
      "name": "RoleAdminChanged",
      "type": "event"
    },
    {
      "anonymous": false,
      "inputs": [
        {
          "indexed": true,
          "internalType": "bytes32",
          "name": "role",
          "type": "bytes32"
        },
        {
          "indexed": true,
          "internalType": "address",
          "name": "account",
          "type": "address"
        },
        {
          "indexed": true,
          "internalType": "address",
          "name": "sender",
          "type": "address"
        }
      ],
      "name": "RoleGranted",
      "type": "event"
    },
    {
      "anonymous": false,
      "inputs": [
        {
          "indexed": true,
          "internalType": "bytes32",
          "name": "role",
          "type": "bytes32"
        },
        {
          "indexed": true,
          "internalType": "address",
          "name": "account",
          "type": "address"
        },
        {
          "indexed": true,
          "internalType": "address",
          "name": "sender",
          "type": "address"
        }
      ],
      "name": "RoleRevoked",
      "type": "event"
    },
    {
      "anonymous": false,
      "inputs": [
        {
          "indexed": false,
          "internalType": "address",
          "name": "account",
          "type": "address"
        }
      ],
      "name": "Unpaused",
      "type": "event"
    },
    {
      "anonymous": false,
      "inputs": [
        {
          "indexed": true,
          "internalType": "address",
          "name": "implementation",
          "type": "address"
        }
      ],
      "name": "Upgraded",
      "type": "event"
    },
    {
      "inputs": [],
      "name": "DEFAULT_ADMIN_ROLE",
      "outputs": [
        {
          "internalType": "bytes32",
          "name": "",
          "type": "bytes32"
        }
      ],
      "stateMutability": "view",
      "type": "function"
    },
    {
      "inputs": [
        {
          "internalType": "address",
          "name": "_zDAOChef",
          "type": "address"
        },
        {
          "internalType": "uint256",
          "name": "_zDAOId",
          "type": "uint256"
        },
        {
          "internalType": "address",
          "name": "_createdBy",
          "type": "address"
        },
        {
          "components": [
            {
              "internalType": "string",
              "name": "title",
              "type": "string"
            },
            {
              "internalType": "address",
              "name": "gnosisSafe",
              "type": "address"
            },
            {
              "internalType": "address",
              "name": "token",
              "type": "address"
            },
            {
              "internalType": "uint256",
              "name": "amount",
              "type": "uint256"
            },
            {
              "internalType": "uint256",
              "name": "duration",
              "type": "uint256"
            },
            {
              "internalType": "uint256",
              "name": "votingThreshold",
              "type": "uint256"
            },
            {
              "internalType": "uint256",
              "name": "minimumVotingParticipants",
              "type": "uint256"
            },
            {
              "internalType": "uint256",
              "name": "minimumTotalVotingTokens",
              "type": "uint256"
            },
            {
              "internalType": "bool",
              "name": "isRelativeMajority",
              "type": "bool"
            }
          ],
          "internalType": "struct IEtherZDAOChef.ZDAOConfig",
          "name": "_zDAOConfig",
          "type": "tuple"
        }
      ],
      "name": "__ZDAO_init",
      "outputs": [],
      "stateMutability": "nonpayable",
      "type": "function"
    },
    {
      "inputs": [
        {
          "internalType": "address",
          "name": "",
          "type": "address"
        },
        {
          "internalType": "uint256",
          "name": "_proposalId",
          "type": "uint256"
        }
      ],
      "name": "cancelProposal",
      "outputs": [],
      "stateMutability": "nonpayable",
      "type": "function"
    },
    {
      "inputs": [
        {
          "internalType": "uint256",
          "name": "_proposalId",
          "type": "uint256"
        },
        {
          "internalType": "uint256",
          "name": "_voters",
          "type": "uint256"
        },
        {
          "internalType": "uint256",
          "name": "_yes",
          "type": "uint256"
        },
        {
          "internalType": "uint256",
          "name": "_no",
          "type": "uint256"
        }
      ],
      "name": "collectProposal",
      "outputs": [],
      "stateMutability": "nonpayable",
      "type": "function"
    },
    {
      "inputs": [
        {
          "internalType": "address",
          "name": "_createdBy",
          "type": "address"
        },
        {
          "internalType": "address",
          "name": "_target",
          "type": "address"
        },
        {
          "internalType": "uint256",
          "name": "_value",
          "type": "uint256"
        },
        {
          "internalType": "bytes",
          "name": "_data",
          "type": "bytes"
        },
        {
          "internalType": "string",
          "name": "_ipfs",
          "type": "string"
        }
      ],
      "name": "createProposal",
      "outputs": [
        {
          "internalType": "uint256",
          "name": "",
          "type": "uint256"
        }
      ],
      "stateMutability": "nonpayable",
      "type": "function"
    },
    {
      "inputs": [],
      "name": "destroyed",
      "outputs": [
        {
          "internalType": "bool",
          "name": "",
          "type": "bool"
        }
      ],
      "stateMutability": "view",
      "type": "function"
    },
    {
      "inputs": [
        {
          "internalType": "address",
          "name": "_executeBy",
          "type": "address"
        },
        {
          "internalType": "uint256",
          "name": "_proposalId",
          "type": "uint256"
        }
      ],
      "name": "executeProposal",
      "outputs": [],
      "stateMutability": "nonpayable",
      "type": "function"
    },
    {
      "inputs": [
        {
          "internalType": "bytes32",
          "name": "role",
          "type": "bytes32"
        }
      ],
      "name": "getRoleAdmin",
      "outputs": [
        {
          "internalType": "bytes32",
          "name": "",
          "type": "bytes32"
        }
      ],
      "stateMutability": "view",
      "type": "function"
    },
    {
      "inputs": [
        {
          "internalType": "bytes32",
          "name": "role",
          "type": "bytes32"
        },
        {
          "internalType": "address",
          "name": "account",
          "type": "address"
        }
      ],
      "name": "grantRole",
      "outputs": [],
      "stateMutability": "nonpayable",
      "type": "function"
    },
    {
      "inputs": [
        {
          "internalType": "bytes32",
          "name": "role",
          "type": "bytes32"
        },
        {
          "internalType": "address",
          "name": "account",
          "type": "address"
        }
      ],
      "name": "hasRole",
      "outputs": [
        {
          "internalType": "bool",
          "name": "",
          "type": "bool"
        }
      ],
      "stateMutability": "view",
      "type": "function"
    },
    {
      "inputs": [],
      "name": "lastProposalId",
      "outputs": [
        {
          "internalType": "uint256",
          "name": "",
          "type": "uint256"
        }
      ],
      "stateMutability": "view",
      "type": "function"
    },
    {
      "inputs": [
        {
          "internalType": "uint256",
          "name": "_startIndex",
          "type": "uint256"
        },
        {
          "internalType": "uint256",
          "name": "_count",
          "type": "uint256"
        }
      ],
      "name": "listProposals",
      "outputs": [
        {
          "components": [
            {
              "internalType": "uint256",
              "name": "proposalId",
              "type": "uint256"
            },
            {
              "internalType": "address",
              "name": "createdBy",
              "type": "address"
            },
            {
              "internalType": "uint256",
              "name": "yes",
              "type": "uint256"
            },
            {
              "internalType": "uint256",
              "name": "no",
              "type": "uint256"
            },
            {
              "internalType": "uint256",
              "name": "voters",
              "type": "uint256"
            },
            {
              "internalType": "string",
              "name": "ipfs",
              "type": "string"
            },
            {
              "internalType": "address",
              "name": "target",
              "type": "address"
            },
            {
              "internalType": "uint256",
              "name": "value",
              "type": "uint256"
            },
            {
              "internalType": "bytes",
              "name": "data",
              "type": "bytes"
            },
            {
              "internalType": "uint256",
              "name": "snapshot",
              "type": "uint256"
            },
            {
              "internalType": "bool",
              "name": "collected",
              "type": "bool"
            },
            {
              "internalType": "bool",
              "name": "executed",
              "type": "bool"
            },
            {
              "internalType": "bool",
              "name": "canceled",
              "type": "bool"
            }
          ],
          "internalType": "struct IEtherZDAO.Proposal[]",
          "name": "records",
          "type": "tuple[]"
        }
      ],
      "stateMutability": "view",
      "type": "function"
    },
    {
      "inputs": [],
      "name": "numberOfProposals",
      "outputs": [
        {
          "internalType": "uint256",
          "name": "",
          "type": "uint256"
        }
      ],
      "stateMutability": "view",
      "type": "function"
    },
    {
      "inputs": [],
      "name": "owner",
      "outputs": [
        {
          "internalType": "address",
          "name": "",
          "type": "address"
        }
      ],
      "stateMutability": "view",
      "type": "function"
    },
    {
      "inputs": [],
      "name": "paused",
      "outputs": [
        {
          "internalType": "bool",
          "name": "",
          "type": "bool"
        }
      ],
      "stateMutability": "view",
      "type": "function"
    },
    {
      "inputs": [
        {
          "internalType": "uint256",
          "name": "",
          "type": "uint256"
        }
      ],
      "name": "proposalIds",
      "outputs": [
        {
          "internalType": "uint256",
          "name": "",
          "type": "uint256"
        }
      ],
      "stateMutability": "view",
      "type": "function"
    },
    {
      "inputs": [
        {
          "internalType": "uint256",
          "name": "",
          "type": "uint256"
        }
      ],
      "name": "proposals",
      "outputs": [
        {
          "internalType": "uint256",
          "name": "proposalId",
          "type": "uint256"
        },
        {
          "internalType": "address",
          "name": "createdBy",
          "type": "address"
        },
        {
          "internalType": "uint256",
          "name": "yes",
          "type": "uint256"
        },
        {
          "internalType": "uint256",
          "name": "no",
          "type": "uint256"
        },
        {
          "internalType": "uint256",
          "name": "voters",
          "type": "uint256"
        },
        {
          "internalType": "string",
          "name": "ipfs",
          "type": "string"
        },
        {
          "internalType": "address",
          "name": "target",
          "type": "address"
        },
        {
          "internalType": "uint256",
          "name": "value",
          "type": "uint256"
        },
        {
          "internalType": "bytes",
          "name": "data",
          "type": "bytes"
        },
        {
          "internalType": "uint256",
          "name": "snapshot",
          "type": "uint256"
        },
        {
          "internalType": "bool",
          "name": "collected",
          "type": "bool"
        },
        {
          "internalType": "bool",
          "name": "executed",
          "type": "bool"
        },
        {
          "internalType": "bool",
          "name": "canceled",
          "type": "bool"
        }
      ],
      "stateMutability": "view",
      "type": "function"
    },
    {
      "inputs": [],
      "name": "renounceOwnership",
      "outputs": [],
      "stateMutability": "nonpayable",
      "type": "function"
    },
    {
      "inputs": [
        {
          "internalType": "bytes32",
          "name": "role",
          "type": "bytes32"
        },
        {
          "internalType": "address",
          "name": "account",
          "type": "address"
        }
      ],
      "name": "renounceRole",
      "outputs": [],
      "stateMutability": "nonpayable",
      "type": "function"
    },
    {
      "inputs": [
        {
          "internalType": "bytes32",
          "name": "role",
          "type": "bytes32"
        },
        {
          "internalType": "address",
          "name": "account",
          "type": "address"
        }
      ],
      "name": "revokeRole",
      "outputs": [],
      "stateMutability": "nonpayable",
      "type": "function"
    },
    {
      "inputs": [
        {
          "internalType": "bool",
          "name": "_destroyed",
          "type": "bool"
        }
      ],
      "name": "setDestroyed",
      "outputs": [],
      "stateMutability": "nonpayable",
      "type": "function"
    },
    {
      "inputs": [
        {
          "internalType": "address",
          "name": "_gnosisSafe",
          "type": "address"
        }
      ],
      "name": "setGnosisSafe",
      "outputs": [],
      "stateMutability": "nonpayable",
      "type": "function"
    },
    {
      "inputs": [
        {
          "internalType": "address",
          "name": "_token",
          "type": "address"
        },
        {
          "internalType": "uint256",
          "name": "_amount",
          "type": "uint256"
        }
      ],
      "name": "setVotingToken",
      "outputs": [],
      "stateMutability": "nonpayable",
      "type": "function"
    },
    {
      "inputs": [
        {
          "internalType": "uint256",
          "name": "_proposalId",
          "type": "uint256"
        }
      ],
      "name": "state",
      "outputs": [
        {
          "internalType": "enum IEtherZDAO.ProposalState",
          "name": "",
          "type": "uint8"
        }
      ],
      "stateMutability": "view",
      "type": "function"
    },
    {
      "inputs": [
        {
          "internalType": "bytes4",
          "name": "interfaceId",
          "type": "bytes4"
        }
      ],
      "name": "supportsInterface",
      "outputs": [
        {
          "internalType": "bool",
          "name": "",
          "type": "bool"
        }
      ],
      "stateMutability": "view",
      "type": "function"
    },
    {
      "inputs": [
        {
          "internalType": "address",
          "name": "newOwner",
          "type": "address"
        }
      ],
      "name": "transferOwnership",
      "outputs": [],
      "stateMutability": "nonpayable",
      "type": "function"
    },
    {
      "inputs": [
        {
          "internalType": "address",
          "name": "newImplementation",
          "type": "address"
        }
      ],
      "name": "upgradeTo",
      "outputs": [],
      "stateMutability": "nonpayable",
      "type": "function"
    },
    {
      "inputs": [
        {
          "internalType": "address",
          "name": "newImplementation",
          "type": "address"
        },
        {
          "internalType": "bytes",
          "name": "data",
          "type": "bytes"
        }
      ],
      "name": "upgradeToAndCall",
      "outputs": [],
      "stateMutability": "payable",
      "type": "function"
    },
    {
      "inputs": [],
      "name": "version",
      "outputs": [
        {
          "internalType": "uint256",
          "name": "",
          "type": "uint256"
        }
      ],
      "stateMutability": "view",
      "type": "function"
    },
    {
      "inputs": [],
      "name": "zDAOChef",
      "outputs": [
        {
          "internalType": "address",
          "name": "",
          "type": "address"
        }
      ],
      "stateMutability": "view",
      "type": "function"
    },
    {
      "inputs": [],
      "name": "zDAOInfo",
      "outputs": [
        {
          "internalType": "uint256",
          "name": "zDAOId",
          "type": "uint256"
        },
        {
          "internalType": "string",
          "name": "title",
          "type": "string"
        },
        {
          "internalType": "address",
          "name": "createdBy",
          "type": "address"
        },
        {
          "internalType": "address",
          "name": "gnosisSafe",
          "type": "address"
        },
        {
          "internalType": "address",
          "name": "token",
          "type": "address"
        },
        {
          "internalType": "uint256",
          "name": "amount",
          "type": "uint256"
        },
        {
          "internalType": "uint256",
          "name": "duration",
          "type": "uint256"
        },
        {
          "internalType": "uint256",
          "name": "votingThreshold",
          "type": "uint256"
        },
        {
          "internalType": "uint256",
          "name": "minimumVotingParticipants",
          "type": "uint256"
        },
        {
          "internalType": "uint256",
          "name": "minimumTotalVotingTokens",
          "type": "uint256"
        },
        {
          "internalType": "uint256",
          "name": "snapshot",
          "type": "uint256"
        },
        {
          "internalType": "bool",
          "name": "isRelativeMajority",
          "type": "bool"
        },
        {
          "internalType": "bool",
          "name": "destroyed",
          "type": "bool"
        }
      ],
      "stateMutability": "view",
      "type": "function"
    },
    {
      "inputs": [],
      "name": "zDAOOwner",
      "outputs": [
        {
          "internalType": "address",
          "name": "",
          "type": "address"
        }
      ],
      "stateMutability": "view",
      "type": "function"
    }
  ],
  "bytecode": "0x60a06040523060805234801561001457600080fd5b50608051613ab461004560003960008181610cb601528181610d4c015281816112ab01526113410152613ab46000f3fe6080604052600436106101e35760003560e01c80635c975abb1161010257806393850b4411610095578063c3085a3e11610064578063c3085a3e146105c3578063d547741f146105e3578063d8191e6c14610603578063f2fde38b1461063157600080fd5b806393850b441461054e5780639b644a231461056e578063a217fddf1461058e578063bfc42645146105a357600080fd5b80638d7af473116100d15780638d7af473146104b35780638da5cb5b146104c957806390bfeab3146104e757806391d148541461050857600080fd5b80635c975abb14610442578063715018a61461045a57806374cb30411461046f5780637f6dda141461048657600080fd5b806336568abe1161017a578063472858b411610149578063472858b4146103d85780634f1ef286146103f8578063533507551461040b57806354fd4d501461042b57600080fd5b806336568abe1461034b5780633659cfe61461036b578063369c4d161461038b5780633e4f49e6146103ab57600080fd5b8063248a9ca3116101b6578063248a9ca3146102af5780632864cdbf146102ed5780632f2ff15d1461030d578063359cbbc91461032d57600080fd5b8063013cf08b146101e857806301ffc9a71461022a578063116b1a091461025a578063137f415b1461028d575b600080fd5b3480156101f457600080fd5b506102086102033660046130da565b610651565b6040516102219d9c9b9a9998979695949392919061314f565b60405180910390f35b34801561023657600080fd5b5061024a6102453660046131ec565b6107e6565b6040519015158152602001610221565b34801561026657600080fd5b50610194546001600160a01b03165b6040516001600160a01b039091168152602001610221565b34801561029957600080fd5b506102ad6102a836600461324a565b61087f565b005b3480156102bb57600080fd5b506102df6102ca3660046130da565b60009081526097602052604090206001015490565b604051908152602001610221565b3480156102f957600080fd5b506102ad610308366004613274565b610905565b34801561031957600080fd5b506102ad6103283660046132e2565b610bf4565b34801561033957600080fd5b5061019d54610100900460ff1661024a565b34801561035757600080fd5b506102ad6103663660046132e2565b610c1f565b34801561037757600080fd5b506102ad61038636600461330e565b610cab565b34801561039757600080fd5b506102df6103a6366004613372565b610e49565b3480156103b757600080fd5b506103cb6103c63660046130da565b611052565b6040516102219190613423565b3480156103e457600080fd5b506102ad6103f336600461344b565b611239565b6102ad610406366004613483565b6112a0565b34801561041757600080fd5b506102ad61042636600461324a565b61142b565b34801561043757600080fd5b506102df6101915481565b34801561044e57600080fd5b5060fb5460ff1661024a565b34801561046657600080fd5b506102ad61161c565b34801561047b57600080fd5b506102df61019e5481565b34801561049257600080fd5b506104a66104a1366004613545565b611682565b6040516102219190613567565b3480156104bf57600080fd5b5061019e546102df565b3480156104d557600080fd5b506033546001600160a01b0316610275565b3480156104f357600080fd5b506101a154610275906001600160a01b031681565b34801561051457600080fd5b5061024a6105233660046132e2565b60009182526097602090815260408084206001600160a01b0393909316845291905290205460ff1690565b34801561055a57600080fd5b506102ad6105693660046136b4565b6119b4565b34801561057a57600080fd5b506102df6105893660046130da565b611bc1565b34801561059a57600080fd5b506102df600081565b3480156105af57600080fd5b506102ad6105be36600461324a565b611be3565b3480156105cf57600080fd5b506102ad6105de36600461330e565b611ea0565b3480156105ef57600080fd5b506102ad6105fe3660046132e2565b611f1c565b34801561060f57600080fd5b50610618611f42565b6040516102219d9c9b9a999897969594939291906136e6565b34801561063d57600080fd5b506102ad61064c36600461330e565b612036565b61019f6020526000908152604090208054600182015460028301546003840154600485015460058601805495966001600160a01b03909516959394929391929161069a90613763565b80601f01602080910402602001604051908101604052809291908181526020018280546106c690613763565b80156107135780601f106106e857610100808354040283529160200191610713565b820191906000526020600020905b8154815290600101906020018083116106f657829003601f168201915b505050506006830154600784015460088501805494956001600160a01b03909316949193509061074290613763565b80601f016020809104026020016040519081016040528092919081815260200182805461076e90613763565b80156107bb5780601f10610790576101008083540402835291602001916107bb565b820191906000526020600020905b81548152906001019060200180831161079e57829003601f168201915b505050506009830154600a9093015491929160ff80821692506101008204811691620100009004168d565b60007fffffffff0000000000000000000000000000000000000000000000000000000082167f7965db0b00000000000000000000000000000000000000000000000000000000148061087957507f01ffc9a7000000000000000000000000000000000000000000000000000000007fffffffff000000000000000000000000000000000000000000000000000000008316145b92915050565b6101a1546001600160a01b031633146108d05760405162461bcd60e51b815260206004820152600e60248201526d2737ba1030902d2220a7a1b432b360911b60448201526064015b60405180910390fd5b610196805473ffffffffffffffffffffffffffffffffffffffff19166001600160a01b03939093169290921790915561019755565b600054610100900460ff166109205760005460ff1615610924565b303b155b6109965760405162461bcd60e51b815260206004820152602e60248201527f496e697469616c697a61626c653a20636f6e747261637420697320616c72656160448201527f647920696e697469616c697a656400000000000000000000000000000000000060648201526084016108c7565b600054610100900460ff161580156109b8576000805461ffff19166101011790555b6109c0612115565b6101a1805473ffffffffffffffffffffffffffffffffffffffff19166001600160a01b038716179055604080516101a0810190915284815260208101610a06848061379e565b8080601f0160208091040260200160405190810160405280939291908181526020018383808284376000920191909152505050908252506001600160a01b038516602080830191909152604091820191610a659190860190860161330e565b6001600160a01b03168152602001610a83606085016040860161330e565b6001600160a01b0316815260200183606001358152602001836080013581526020018360a0013581526020018360c0013581526020018360e00135815260200143815260200183610100016020810190610add919061344b565b15158152600060209182015281516101929081558282015180519192610b0a926101939290910190613041565b5060408201516002820180546001600160a01b0392831673ffffffffffffffffffffffffffffffffffffffff19918216179091556060840151600384018054918416918316919091179055608084015160048401805491909316911617905560a0820151600582015560c0820151600682015560e082015160078201556101008083015160088301556101208301516009830155610140830151600a830155610160830151600b909201805461018090940151151590910261ff00199215159290921661ffff19909316929092171790558015610bed576000805461ff00191690555b5050505050565b600082815260976020526040902060010154610c1081336121b0565b610c1a8383612230565b505050565b6001600160a01b0381163314610c9d5760405162461bcd60e51b815260206004820152602f60248201527f416363657373436f6e74726f6c3a2063616e206f6e6c792072656e6f756e636560448201527f20726f6c657320666f722073656c66000000000000000000000000000000000060648201526084016108c7565b610ca782826122d2565b5050565b306001600160a01b037f0000000000000000000000000000000000000000000000000000000000000000161415610d4a5760405162461bcd60e51b815260206004820152602c60248201527f46756e6374696f6e206d7573742062652063616c6c6564207468726f7567682060448201527f64656c656761746563616c6c000000000000000000000000000000000000000060648201526084016108c7565b7f00000000000000000000000000000000000000000000000000000000000000006001600160a01b0316610da57f360894a13ba1a3210667c828492db98dca3e2076cc3735a920a3ca505d382bbc546001600160a01b031690565b6001600160a01b031614610e215760405162461bcd60e51b815260206004820152602c60248201527f46756e6374696f6e206d7573742062652063616c6c6564207468726f7567682060448201527f6163746976652070726f7879000000000000000000000000000000000000000060648201526084016108c7565b610e2a81612355565b60408051600080825260208201909252610e46918391906123af565b50565b6101a1546000906001600160a01b03163314610e985760405162461bcd60e51b815260206004820152600e60248201526d2737ba1030902d2220a7a1b432b360911b60448201526064016108c7565b61019d54610100900460ff1615610ef15760405162461bcd60e51b815260206004820152601160248201527f416c72656164792064657374726f79656400000000000000000000000000000060448201526064016108c7565b61019754610196546040517f70a082310000000000000000000000000000000000000000000000000000000081526001600160a01b03808c1660048301528b939216906370a0823190602401602060405180830381865afa158015610f5a573d6000803e3d6000fd5b505050506040513d601f19601f82011682018060405250810190610f7e9190613803565b1015610fcc5760405162461bcd60e51b815260206004820152601860248201527f4e6f7420612076616c696420746f6b656e20686f6c646572000000000000000060448201526064016108c7565b60006110448a8a8a8a8a8080601f01602080910402602001604051908101604052809392919081815260200183838082843760009201919091525050604080516020601f8e018190048102820181019092528c815292508c91508b908190840183828082843760009201919091525061256c92505050565b9a9950505050505050505050565b600081815261019f60205260408120600a81015462010000900460ff161561107d5750600292915050565b600a810154610100900460ff16156110985750600392915050565b600a81015460ff166110ad5750600092915050565b61019a54600482015410806110d7575061019b54600382015460028301546110d59190613832565b105b156110e55750600492915050565b61019d5460ff16801561110b57506000816003015482600201546111099190613832565b115b80156111485750610199546003820154600283015461112a9190613832565b600283015461113b9061271061384a565b6111459190613869565b10155b156111565750600592915050565b61019654604080517f18160ddd00000000000000000000000000000000000000000000000000000000815290516000926001600160a01b0316916318160ddd9160048281019260209291908290030181865afa1580156111ba573d6000803e3d6000fd5b505050506040513d601f19601f820116820180604052508101906111de9190613803565b61019d5490915060ff161580156111f55750600081115b8015611220575061019954600283015482906112139061271061384a565b61121d9190613869565b10155b1561122f575060059392505050565b5060049392505050565b6101a1546001600160a01b031633146112855760405162461bcd60e51b815260206004820152600e60248201526d2737ba1030902d2220a7a1b432b360911b60448201526064016108c7565b61019d80549115156101000261ff0019909216919091179055565b306001600160a01b037f000000000000000000000000000000000000000000000000000000000000000016141561133f5760405162461bcd60e51b815260206004820152602c60248201527f46756e6374696f6e206d7573742062652063616c6c6564207468726f7567682060448201527f64656c656761746563616c6c000000000000000000000000000000000000000060648201526084016108c7565b7f00000000000000000000000000000000000000000000000000000000000000006001600160a01b031661139a7f360894a13ba1a3210667c828492db98dca3e2076cc3735a920a3ca505d382bbc546001600160a01b031690565b6001600160a01b0316146114165760405162461bcd60e51b815260206004820152602c60248201527f46756e6374696f6e206d7573742062652063616c6c6564207468726f7567682060448201527f6163746976652070726f7879000000000000000000000000000000000000000060648201526084016108c7565b61141f82612355565b610ca7828260016123af565b6101a1546001600160a01b031633146114775760405162461bcd60e51b815260206004820152600e60248201526d2737ba1030902d2220a7a1b432b360911b60448201526064016108c7565b61019d54610100900460ff16156114d05760405162461bcd60e51b815260206004820152601160248201527f416c72656164792064657374726f79656400000000000000000000000000000060448201526064016108c7565b806000811180156114e4575061019e548111155b6115305760405162461bcd60e51b815260206004820152600c60248201527f496e76616c6964207a44414f000000000000000000000000000000000000000060448201526064016108c7565b604051631f27a4f360e11b8152600481018390526000903090633e4f49e690602401602060405180830381865afa15801561156f573d6000803e3d6000fd5b505050506040513d601f19601f82011682018060405250810190611593919061388b565b905060008160058111156115a9576115a961340d565b146115f65760405162461bcd60e51b815260206004820152601660248201527f4e6f7420612070656e64696e672070726f706f73616c0000000000000000000060448201526064016108c7565b5050600090815261019f60205260409020600a01805462ff000019166201000017905550565b6033546001600160a01b031633146116765760405162461bcd60e51b815260206004820181905260248201527f4f776e61626c653a2063616c6c6572206973206e6f7420746865206f776e657260448201526064016108c7565b6116806000612756565b565b61019e5460609082906116969085906138ac565b8111156116af578361019e546116ac91906138ac565b90505b8067ffffffffffffffff8111156116c8576116c861346d565b60405190808252806020026020018201604052801561177c57816020015b611769604051806101a001604052806000815260200160006001600160a01b031681526020016000815260200160008152602001600081526020016060815260200160006001600160a01b031681526020016000815260200160608152602001600081526020016000151581526020016000151581526020016000151581525090565b8152602001906001900390816116e65790505b50915060005b818110156119ac5761019f60006117998388613832565b6117a4906001613832565b8152602080820192909252604090810160002081516101a0810183528154815260018201546001600160a01b031693810193909352600281015491830191909152600381015460608301526004810154608083015260058101805460a08401919061180e90613763565b80601f016020809104026020016040519081016040528092919081815260200182805461183a90613763565b80156118875780601f1061185c57610100808354040283529160200191611887565b820191906000526020600020905b81548152906001019060200180831161186a57829003601f168201915b505050918352505060068201546001600160a01b03166020820152600782015460408201526008820180546060909201916118c190613763565b80601f01602080910402602001604051908101604052809291908181526020018280546118ed90613763565b801561193a5780601f1061190f5761010080835404028352916020019161193a565b820191906000526020600020905b81548152906001019060200180831161191d57829003601f168201915b505050918352505060098201546020820152600a9091015460ff808216151560408401526101008204811615156060840152620100009091041615156080909101528351849083908110611990576119906138c3565b6020026020010181905250806119a5906138d9565b9050611782565b505092915050565b6101a1546001600160a01b03163314611a005760405162461bcd60e51b815260206004820152600e60248201526d2737ba1030902d2220a7a1b432b360911b60448201526064016108c7565b83600081118015611a14575061019e548111155b611a605760405162461bcd60e51b815260206004820152600c60248201527f496e76616c6964207a44414f000000000000000000000000000000000000000060448201526064016108c7565b600085815261019f60205260409020600a81015460ff1615611ac45760405162461bcd60e51b815260206004820152601a60248201527f416c726561647920636f6c6c65637465642070726f706f73616c00000000000060448201526064016108c7565b604051631f27a4f360e11b8152600481018790526000903090633e4f49e690602401602060405180830381865afa158015611b03573d6000803e3d6000fd5b505050506040513d601f19601f82011682018060405250810190611b27919061388b565b90506000816005811115611b3d57611b3d61340d565b14611b8a5760405162461bcd60e51b815260206004820152601660248201527f4e6f7420612070656e64696e672070726f706f73616c0000000000000000000060448201526064016108c7565b506004810194909455506002830191909155600390910155600090815261019f60205260409020600a01805460ff19166001179055565b6101a08181548110611bd257600080fd5b600091825260209091200154905081565b6101a1546001600160a01b03163314611c2f5760405162461bcd60e51b815260206004820152600e60248201526d2737ba1030902d2220a7a1b432b360911b60448201526064016108c7565b61019d54610100900460ff1615611c885760405162461bcd60e51b815260206004820152601160248201527f416c72656164792064657374726f79656400000000000000000000000000000060448201526064016108c7565b80600081118015611c9c575061019e548111155b611ce85760405162461bcd60e51b815260206004820152600c60248201527f496e76616c6964207a44414f000000000000000000000000000000000000000060448201526064016108c7565b604051631f27a4f360e11b8152600481018390526000903090633e4f49e690602401602060405180830381865afa158015611d27573d6000803e3d6000fd5b505050506040513d601f19601f82011682018060405250810190611d4b919061388b565b90506005816005811115611d6157611d6161340d565b14611dae5760405162461bcd60e51b815260206004820152601860248201527f4e6f742061207375636365656465642070726f706f73616c000000000000000060448201526064016108c7565b600083815261019f60205260408082206006810154600782015492519193926001600160a01b0390911691611de79060088601906138f4565b60006040518083038185875af1925050503d8060008114611e24576040519150601f19603f3d011682016040523d82523d6000602084013e611e29565b606091505b5050905080611e7a5760405162461bcd60e51b815260206004820152601e60248201527f457865637574696f6e207472616e73616374696f6e207265766572746564000060448201526064016108c7565b50505060009182525061019f60205260409020600a01805461ff00191661010017905550565b6101a1546001600160a01b03163314611eec5760405162461bcd60e51b815260206004820152600e60248201526d2737ba1030902d2220a7a1b432b360911b60448201526064016108c7565b610195805473ffffffffffffffffffffffffffffffffffffffff19166001600160a01b0392909216919091179055565b600082815260976020526040902060010154611f3881336121b0565b610c1a83836122d2565b61019280546101938054919291611f5890613763565b80601f0160208091040260200160405190810160405280929190818152602001828054611f8490613763565b8015611fd15780601f10611fa657610100808354040283529160200191611fd1565b820191906000526020600020905b815481529060010190602001808311611fb457829003601f168201915b50505060028401546003850154600486015460058701546006880154600789015460088a015460098b0154600a8c0154600b909c01549a9b6001600160a01b039889169b9789169a509590971697509295919490939060ff808216916101009004168d565b6033546001600160a01b031633146120905760405162461bcd60e51b815260206004820181905260248201527f4f776e61626c653a2063616c6c6572206973206e6f7420746865206f776e657260448201526064016108c7565b6001600160a01b03811661210c5760405162461bcd60e51b815260206004820152602660248201527f4f776e61626c653a206e6577206f776e657220697320746865207a65726f206160448201527f646472657373000000000000000000000000000000000000000000000000000060648201526084016108c7565b610e4681612756565b600054610100900460ff166121805760405162461bcd60e51b815260206004820152602b60248201527f496e697469616c697a61626c653a20636f6e7472616374206973206e6f74206960448201526a6e697469616c697a696e6760a81b60648201526084016108c7565b6121886127b5565b612190612830565b6121986128b3565b6121a0612926565b6121a86129a1565b600161019155565b60008281526097602090815260408083206001600160a01b038516845290915290205460ff16610ca7576121ee816001600160a01b03166014612a0c565b6121f9836020612a0c565b60405160200161220a929190613990565b60408051601f198184030181529082905262461bcd60e51b82526108c791600401613a11565b60008281526097602090815260408083206001600160a01b038516845290915290205460ff16610ca75760008281526097602090815260408083206001600160a01b03851684529091529020805460ff1916600117905561228e3390565b6001600160a01b0316816001600160a01b0316837f2f8788117e7eff1d82e926ec794901d17c78024a50270940304540a733656f0d60405160405180910390a45050565b60008281526097602090815260408083206001600160a01b038516845290915290205460ff1615610ca75760008281526097602090815260408083206001600160a01b0385168085529252808320805460ff1916905551339285917ff6391f5c32d9c69d2a47ea670b442974b53935d1edc7fd64eb21e047a839171b9190a45050565b6033546001600160a01b03163314610e465760405162461bcd60e51b815260206004820181905260248201527f4f776e61626c653a2063616c6c6572206973206e6f7420746865206f776e657260448201526064016108c7565b60006123e27f360894a13ba1a3210667c828492db98dca3e2076cc3735a920a3ca505d382bbc546001600160a01b031690565b90506123ed84612c3c565b6000835111806123fa5750815b1561240b576124098484612cfe565b505b7f4910fdfa16fed3260ed0e7147f7cc6da11a60208b5b9406d12a635614ffd9143805460ff16610bed57805460ff191660011781556040516001600160a01b03831660248201526124b890869060440160408051601f198184030181529190526020810180517bffffffffffffffffffffffffffffffffffffffffffffffffffffffff167f3659cfe600000000000000000000000000000000000000000000000000000000179052612cfe565b50805460ff191681557f360894a13ba1a3210667c828492db98dca3e2076cc3735a920a3ca505d382bbc546001600160a01b038381169116146125635760405162461bcd60e51b815260206004820152602f60248201527f45524331393637557067726164653a207570677261646520627265616b73206660448201527f757274686572207570677261646573000000000000000000000000000000000060648201526084016108c7565b610bed85612e00565b61019e80546000918261257e836138d9565b9091555050604080516101a08101825261019e548082526001600160a01b0389811660208085019182526000858701818152606087018281526080880183815260a089018c81528f881660c08b015260e08a018f90526101008a018e9052436101208b01526101408a018590526101608a018590526101808a0185905297845261019f85529890922087518155935160018501805473ffffffffffffffffffffffffffffffffffffffff191691909616179094559251600283015591516003820155935160048501559051805192939261265e9260058501920190613041565b5060c082015160068201805473ffffffffffffffffffffffffffffffffffffffff19166001600160a01b0390921691909117905560e0820151600782015561010082015180516126b8916008840191602090910190613041565b506101208201516009820155610140820151600a9091018054610160840151610180909401511515620100000262ff0000199415156101000261ff00199415159490941661ffff199092169190911792909217929092161790555061019e546101a080546001810182556000919091527f7980fe0f714a613298681d64b7b8ffa7b148338dd52429f307d72798d5c317c40181905595945050505050565b603380546001600160a01b0383811673ffffffffffffffffffffffffffffffffffffffff19831681179093556040519116919082907f8be0079c531659141344cd1fd0a4f28419497f9722a3daafe3b4186f6b6457e090600090a35050565b600054610100900460ff166128205760405162461bcd60e51b815260206004820152602b60248201527f496e697469616c697a61626c653a20636f6e7472616374206973206e6f74206960448201526a6e697469616c697a696e6760a81b60648201526084016108c7565b612828612e40565b611680612eab565b600054610100900460ff1661289b5760405162461bcd60e51b815260206004820152602b60248201527f496e697469616c697a61626c653a20636f6e7472616374206973206e6f74206960448201526a6e697469616c697a696e6760a81b60648201526084016108c7565b6128a3612e40565b6128ab612e40565b611680612e40565b600054610100900460ff1661291e5760405162461bcd60e51b815260206004820152602b60248201527f496e697469616c697a61626c653a20636f6e7472616374206973206e6f74206960448201526a6e697469616c697a696e6760a81b60648201526084016108c7565b611680612f1f565b600054610100900460ff166129915760405162461bcd60e51b815260206004820152602b60248201527f496e697469616c697a61626c653a20636f6e7472616374206973206e6f74206960448201526a6e697469616c697a696e6760a81b60648201526084016108c7565b612999612e40565b611680612f91565b600054610100900460ff166128a35760405162461bcd60e51b815260206004820152602b60248201527f496e697469616c697a61626c653a20636f6e7472616374206973206e6f74206960448201526a6e697469616c697a696e6760a81b60648201526084016108c7565b60606000612a1b83600261384a565b612a26906002613832565b67ffffffffffffffff811115612a3e57612a3e61346d565b6040519080825280601f01601f191660200182016040528015612a68576020820181803683370190505b5090507f300000000000000000000000000000000000000000000000000000000000000081600081518110612a9f57612a9f6138c3565b60200101907effffffffffffffffffffffffffffffffffffffffffffffffffffffffffffff1916908160001a9053507f780000000000000000000000000000000000000000000000000000000000000081600181518110612b0257612b026138c3565b60200101907effffffffffffffffffffffffffffffffffffffffffffffffffffffffffffff1916908160001a9053506000612b3e84600261384a565b612b49906001613832565b90505b6001811115612be6577f303132333435363738396162636465660000000000000000000000000000000085600f1660108110612b8a57612b8a6138c3565b1a60f81b828281518110612ba057612ba06138c3565b60200101907effffffffffffffffffffffffffffffffffffffffffffffffffffffffffffff1916908160001a90535060049490941c93612bdf81613a24565b9050612b4c565b508315612c355760405162461bcd60e51b815260206004820181905260248201527f537472696e67733a20686578206c656e67746820696e73756666696369656e7460448201526064016108c7565b9392505050565b803b612cb05760405162461bcd60e51b815260206004820152602d60248201527f455243313936373a206e657720696d706c656d656e746174696f6e206973206e60448201527f6f74206120636f6e74726163740000000000000000000000000000000000000060648201526084016108c7565b7f360894a13ba1a3210667c828492db98dca3e2076cc3735a920a3ca505d382bbc805473ffffffffffffffffffffffffffffffffffffffff19166001600160a01b0392909216919091179055565b6060823b612d745760405162461bcd60e51b815260206004820152602660248201527f416464726573733a2064656c65676174652063616c6c20746f206e6f6e2d636f60448201527f6e7472616374000000000000000000000000000000000000000000000000000060648201526084016108c7565b600080846001600160a01b031684604051612d8f9190613a3b565b600060405180830381855af49150503d8060008114612dca576040519150601f19603f3d011682016040523d82523d6000602084013e612dcf565b606091505b5091509150612df78282604051806060016040528060278152602001613a5860279139613008565b95945050505050565b612e0981612c3c565b6040516001600160a01b038216907fbc7cd75a20ee27fd9adebab32041f755214dbc6bffa90cc0225b39da2e5c2d3b90600090a250565b600054610100900460ff166116805760405162461bcd60e51b815260206004820152602b60248201527f496e697469616c697a61626c653a20636f6e7472616374206973206e6f74206960448201526a6e697469616c697a696e6760a81b60648201526084016108c7565b600054610100900460ff16612f165760405162461bcd60e51b815260206004820152602b60248201527f496e697469616c697a61626c653a20636f6e7472616374206973206e6f74206960448201526a6e697469616c697a696e6760a81b60648201526084016108c7565b61168033612756565b600054610100900460ff16612f8a5760405162461bcd60e51b815260206004820152602b60248201527f496e697469616c697a61626c653a20636f6e7472616374206973206e6f74206960448201526a6e697469616c697a696e6760a81b60648201526084016108c7565b600160c955565b600054610100900460ff16612ffc5760405162461bcd60e51b815260206004820152602b60248201527f496e697469616c697a61626c653a20636f6e7472616374206973206e6f74206960448201526a6e697469616c697a696e6760a81b60648201526084016108c7565b60fb805460ff19169055565b60608315613017575081612c35565b8251156130275782518084602001fd5b8160405162461bcd60e51b81526004016108c79190613a11565b82805461304d90613763565b90600052602060002090601f01602090048101928261306f57600085556130b5565b82601f1061308857805160ff19168380011785556130b5565b828001600101855582156130b5579182015b828111156130b557825182559160200191906001019061309a565b506130c19291506130c5565b5090565b5b808211156130c157600081556001016130c6565b6000602082840312156130ec57600080fd5b5035919050565b60005b8381101561310e5781810151838201526020016130f6565b8381111561311d576000848401525b50505050565b6000815180845261313b8160208601602086016130f3565b601f01601f19169290920160200192915050565b8d815260006001600160a01b03808f1660208401528d60408401528c60608401528b60808401526101a060a084015261318c6101a084018c613123565b818b1660c08501528960e08501528381036101008501526131ad818a613123565b92505050856101208301528415156101408301526131d061016083018515159052565b8215156101808301525b9e9d5050505050505050505050505050565b6000602082840312156131fe57600080fd5b81357fffffffff0000000000000000000000000000000000000000000000000000000081168114612c3557600080fd5b80356001600160a01b038116811461324557600080fd5b919050565b6000806040838503121561325d57600080fd5b6132668361322e565b946020939093013593505050565b6000806000806080858703121561328a57600080fd5b6132938561322e565b9350602085013592506132a86040860161322e565b9150606085013567ffffffffffffffff8111156132c457600080fd5b850161012081880312156132d757600080fd5b939692955090935050565b600080604083850312156132f557600080fd5b823591506133056020840161322e565b90509250929050565b60006020828403121561332057600080fd5b612c358261322e565b60008083601f84011261333b57600080fd5b50813567ffffffffffffffff81111561335357600080fd5b60208301915083602082850101111561336b57600080fd5b9250929050565b600080600080600080600060a0888a03121561338d57600080fd5b6133968861322e565b96506133a46020890161322e565b955060408801359450606088013567ffffffffffffffff808211156133c857600080fd5b6133d48b838c01613329565b909650945060808a01359150808211156133ed57600080fd5b506133fa8a828b01613329565b989b979a50959850939692959293505050565b634e487b7160e01b600052602160045260246000fd5b602081016006831061344557634e487b7160e01b600052602160045260246000fd5b91905290565b60006020828403121561345d57600080fd5b81358015158114612c3557600080fd5b634e487b7160e01b600052604160045260246000fd5b6000806040838503121561349657600080fd5b61349f8361322e565b9150602083013567ffffffffffffffff808211156134bc57600080fd5b818501915085601f8301126134d057600080fd5b8135818111156134e2576134e261346d565b604051601f8201601f19908116603f0116810190838211818310171561350a5761350a61346d565b8160405282815288602084870101111561352357600080fd5b8260208601602083013760006020848301015280955050505050509250929050565b6000806040838503121561355857600080fd5b50508035926020909101359150565b60006020808301818452808551808352604092508286019150828160051b87010184880160005b838110156136a6577fffffffffffffffffffffffffffffffffffffffffffffffffffffffffffffffc089840301855281516101a081518552888201516135de8a8701826001600160a01b03169052565b508188015185890152606080830151908601526080808301519086015260a08083015181870183905261361383880182613123565b9250505060c080830151613631828801826001600160a01b03169052565b505060e0828101519086015261010080830151868303828801526136558382613123565b92505050610120808301518187015250610140808301516136798288018215159052565b5050610160828101511515908601526101809182015115159190940152938601939086019060010161358e565b509098975050505050505050565b600080600080608085870312156136ca57600080fd5b5050823594602084013594506040840135936060013592509050565b8d81526101a0602082015260006137016101a083018f613123565b90506001600160a01b03808e166040840152808d166060840152808c166080840152508960a08301528860c08301528760e08301528661010083015285610120830152846101408301528315156101608301526131da61018083018415159052565b600181811c9082168061377757607f821691505b6020821081141561379857634e487b7160e01b600052602260045260246000fd5b50919050565b60008083357fffffffffffffffffffffffffffffffffffffffffffffffffffffffffffffffe18436030181126137d357600080fd5b83018035915067ffffffffffffffff8211156137ee57600080fd5b60200191503681900382131561336b57600080fd5b60006020828403121561381557600080fd5b5051919050565b634e487b7160e01b600052601160045260246000fd5b600082198211156138455761384561381c565b500190565b60008160001904831182151516156138645761386461381c565b500290565b60008261388657634e487b7160e01b600052601260045260246000fd5b500490565b60006020828403121561389d57600080fd5b815160068110612c3557600080fd5b6000828210156138be576138be61381c565b500390565b634e487b7160e01b600052603260045260246000fd5b60006000198214156138ed576138ed61381c565b5060010190565b600080835481600182811c91508083168061391057607f831692505b602080841082141561393057634e487b7160e01b86526022600452602486fd5b818015613944576001811461395557613982565b60ff19861689528489019650613982565b60008a81526020902060005b8681101561397a5781548b820152908501908301613961565b505084890196505b509498975050505050505050565b7f416363657373436f6e74726f6c3a206163636f756e74200000000000000000008152600083516139c88160178501602088016130f3565b7f206973206d697373696e6720726f6c65200000000000000000000000000000006017918401918201528351613a058160288401602088016130f3565b01602801949350505050565b602081526000612c356020830184613123565b600081613a3357613a3361381c565b506000190190565b60008251613a4d8184602087016130f3565b919091019291505056fe416464726573733a206c6f772d6c6576656c2064656c65676174652063616c6c206661696c6564a2646970667358221220938667f50a5d7340bf94301e9e98bdabe404926ef15bad3266ed46089210494664736f6c634300080b0033",
  "linkReferences": {},
  "deployedLinkReferences": {}
}