{
  "_format": "hh-sol-artifact-1",
  "contractName": "EtherZDAOChef",
  "sourceName": "contracts/ethereum/EtherZDAOChef.sol",
  "abi": [
    {
      "anonymous": false,
      "inputs": [
        {
          "indexed": false,
          "internalType": "address",
          "name": "previousAdmin",
          "type": "address"
        },
        {
          "indexed": false,
          "internalType": "address",
          "name": "newAdmin",
          "type": "address"
        }
      ],
      "name": "AdminChanged",
      "type": "event"
    },
    {
      "anonymous": false,
      "inputs": [
        {
          "indexed": true,
          "internalType": "address",
          "name": "beacon",
          "type": "address"
        }
      ],
      "name": "BeaconUpgraded",
      "type": "event"
    },
    {
      "anonymous": false,
      "inputs": [
        {
          "indexed": true,
          "internalType": "uint256",
          "name": "_daoId",
          "type": "uint256"
        },
        {
          "indexed": true,
          "internalType": "address",
          "name": "_creator",
          "type": "address"
        },
        {
          "indexed": true,
          "internalType": "address",
          "name": "_zDAO",
          "type": "address"
        }
      ],
      "name": "DAOCreated",
      "type": "event"
    },
    {
      "anonymous": false,
      "inputs": [
        {
          "indexed": true,
          "internalType": "uint256",
          "name": "_daoId",
          "type": "uint256"
        }
      ],
      "name": "DAODestroyed",
      "type": "event"
    },
    {
      "anonymous": false,
      "inputs": [
        {
          "indexed": true,
          "internalType": "uint256",
          "name": "_daoId",
          "type": "uint256"
        },
        {
          "indexed": true,
          "internalType": "address",
          "name": "_gnosisSafe",
          "type": "address"
        }
      ],
      "name": "DAOUpdateGnosisSafe",
      "type": "event"
    },
    {
      "anonymous": false,
      "inputs": [
        {
          "indexed": true,
          "internalType": "uint256",
          "name": "_daoId",
          "type": "uint256"
        },
        {
          "indexed": true,
          "internalType": "address",
          "name": "_token",
          "type": "address"
        },
        {
          "indexed": true,
          "internalType": "uint256",
          "name": "_amount",
          "type": "uint256"
        }
      ],
      "name": "DAOUpdateVotingtoken",
      "type": "event"
    },
    {
      "anonymous": false,
      "inputs": [
        {
          "indexed": true,
          "internalType": "uint256",
          "name": "_daoId",
          "type": "uint256"
        },
        {
          "indexed": true,
          "internalType": "uint256",
          "name": "_zNA",
          "type": "uint256"
        }
      ],
      "name": "LinkAdded",
      "type": "event"
    },
    {
      "anonymous": false,
      "inputs": [
        {
          "indexed": true,
          "internalType": "uint256",
          "name": "_daoId",
          "type": "uint256"
        },
        {
          "indexed": true,
          "internalType": "uint256",
          "name": "_zNA",
          "type": "uint256"
        }
      ],
      "name": "LinkRemoved",
      "type": "event"
    },
    {
      "anonymous": false,
      "inputs": [
        {
          "indexed": true,
          "internalType": "address",
          "name": "previousOwner",
          "type": "address"
        },
        {
          "indexed": true,
          "internalType": "address",
          "name": "newOwner",
          "type": "address"
        }
      ],
      "name": "OwnershipTransferred",
      "type": "event"
    },
    {
      "anonymous": false,
      "inputs": [
        {
          "indexed": false,
          "internalType": "address",
          "name": "account",
          "type": "address"
        }
      ],
      "name": "Paused",
      "type": "event"
    },
    {
      "anonymous": false,
      "inputs": [
        {
          "indexed": true,
          "internalType": "uint256",
          "name": "_zDAOId",
          "type": "uint256"
        },
        {
          "indexed": true,
          "internalType": "uint256",
          "name": "_proposalId",
          "type": "uint256"
        },
        {
          "indexed": true,
          "internalType": "address",
          "name": "_cancelBy",
          "type": "address"
        }
      ],
      "name": "ProposalCanceled",
      "type": "event"
    },
    {
      "anonymous": false,
      "inputs": [
        {
          "indexed": true,
          "internalType": "uint256",
          "name": "_zDAOId",
          "type": "uint256"
        },
        {
          "indexed": true,
          "internalType": "uint256",
          "name": "_propoalId",
          "type": "uint256"
        },
        {
          "indexed": false,
          "internalType": "uint256",
          "name": "_voters",
          "type": "uint256"
        },
        {
          "indexed": false,
          "internalType": "uint256",
          "name": "_yes",
          "type": "uint256"
        },
        {
          "indexed": false,
          "internalType": "uint256",
          "name": "_no",
          "type": "uint256"
        }
      ],
      "name": "ProposalCollected",
      "type": "event"
    },
    {
      "anonymous": false,
      "inputs": [
        {
          "indexed": true,
          "internalType": "uint256",
          "name": "_zDAOId",
          "type": "uint256"
        },
        {
          "indexed": true,
          "internalType": "uint256",
          "name": "_proposalId",
          "type": "uint256"
        },
        {
          "indexed": true,
          "internalType": "address",
          "name": "_createdBy",
          "type": "address"
        },
        {
          "indexed": false,
          "internalType": "uint256",
          "name": "_snapshot",
          "type": "uint256"
        }
      ],
      "name": "ProposalCreated",
      "type": "event"
    },
    {
      "anonymous": false,
      "inputs": [
        {
          "indexed": true,
          "internalType": "uint256",
          "name": "_zDAOId",
          "type": "uint256"
        },
        {
          "indexed": true,
          "internalType": "uint256",
          "name": "_proposalId",
          "type": "uint256"
        },
        {
          "indexed": true,
          "internalType": "address",
          "name": "_executeBy",
          "type": "address"
        }
      ],
      "name": "ProposalExecuted",
      "type": "event"
    },
    {
      "anonymous": false,
      "inputs": [
        {
          "indexed": true,
          "internalType": "bytes32",
          "name": "role",
          "type": "bytes32"
        },
        {
          "indexed": true,
          "internalType": "bytes32",
          "name": "previousAdminRole",
          "type": "bytes32"
        },
        {
          "indexed": true,
          "internalType": "bytes32",
          "name": "newAdminRole",
          "type": "bytes32"
        }
      ],
      "name": "RoleAdminChanged",
      "type": "event"
    },
    {
      "anonymous": false,
      "inputs": [
        {
          "indexed": true,
          "internalType": "bytes32",
          "name": "role",
          "type": "bytes32"
        },
        {
          "indexed": true,
          "internalType": "address",
          "name": "account",
          "type": "address"
        },
        {
          "indexed": true,
          "internalType": "address",
          "name": "sender",
          "type": "address"
        }
      ],
      "name": "RoleGranted",
      "type": "event"
    },
    {
      "anonymous": false,
      "inputs": [
        {
          "indexed": true,
          "internalType": "bytes32",
          "name": "role",
          "type": "bytes32"
        },
        {
          "indexed": true,
          "internalType": "address",
          "name": "account",
          "type": "address"
        },
        {
          "indexed": true,
          "internalType": "address",
          "name": "sender",
          "type": "address"
        }
      ],
      "name": "RoleRevoked",
      "type": "event"
    },
    {
      "anonymous": false,
      "inputs": [
        {
          "indexed": false,
          "internalType": "address",
          "name": "account",
          "type": "address"
        }
      ],
      "name": "Unpaused",
      "type": "event"
    },
    {
      "anonymous": false,
      "inputs": [
        {
          "indexed": true,
          "internalType": "address",
          "name": "implementation",
          "type": "address"
        }
      ],
      "name": "Upgraded",
      "type": "event"
    },
    {
      "inputs": [],
      "name": "DEFAULT_ADMIN_ROLE",
      "outputs": [
        {
          "internalType": "bytes32",
          "name": "",
          "type": "bytes32"
        }
      ],
      "stateMutability": "view",
      "type": "function"
    },
    {
      "inputs": [
        {
          "internalType": "contract IZNSHub",
          "name": "_znsHub",
          "type": "address"
        },
        {
          "internalType": "contract IRootStateSender",
          "name": "_rootStateSender",
          "type": "address"
        },
        {
          "internalType": "address",
          "name": "_zDAOBase",
          "type": "address"
        }
      ],
      "name": "__ZDAOChef_init",
      "outputs": [],
      "stateMutability": "nonpayable",
      "type": "function"
    },
    {
      "inputs": [
        {
          "internalType": "uint256",
          "name": "_zNA",
          "type": "uint256"
        },
        {
          "components": [
            {
              "internalType": "string",
              "name": "title",
              "type": "string"
            },
            {
              "internalType": "address",
              "name": "gnosisSafe",
              "type": "address"
            },
            {
              "internalType": "address",
              "name": "token",
              "type": "address"
            },
            {
              "internalType": "uint256",
              "name": "amount",
              "type": "uint256"
            },
            {
              "internalType": "uint256",
              "name": "duration",
              "type": "uint256"
            },
            {
              "internalType": "uint256",
              "name": "votingThreshold",
              "type": "uint256"
            },
            {
              "internalType": "uint256",
              "name": "minimumVotingParticipants",
              "type": "uint256"
            },
            {
              "internalType": "uint256",
              "name": "minimumTotalVotingTokens",
              "type": "uint256"
            },
            {
              "internalType": "bool",
              "name": "isRelativeMajority",
              "type": "bool"
            }
          ],
          "internalType": "struct IEtherZDAOChef.ZDAOConfig",
          "name": "_zDAOConfig",
          "type": "tuple"
        }
      ],
      "name": "addNewDAO",
      "outputs": [],
      "stateMutability": "nonpayable",
      "type": "function"
    },
    {
      "inputs": [
        {
          "internalType": "uint256",
          "name": "_daoId",
          "type": "uint256"
        },
        {
          "internalType": "uint256",
          "name": "_zNA",
          "type": "uint256"
        }
      ],
      "name": "addZNAAssociation",
      "outputs": [],
      "stateMutability": "nonpayable",
      "type": "function"
    },
    {
      "inputs": [
        {
          "internalType": "uint256",
          "name": "_daoId",
          "type": "uint256"
        },
        {
          "internalType": "uint256",
          "name": "_proposalId",
          "type": "uint256"
        }
      ],
      "name": "cancelProposal",
      "outputs": [],
      "stateMutability": "nonpayable",
      "type": "function"
    },
    {
      "inputs": [
        {
          "internalType": "uint256",
          "name": "_daoId",
          "type": "uint256"
        },
        {
          "internalType": "address",
          "name": "_target",
          "type": "address"
        },
        {
          "internalType": "uint256",
          "name": "_value",
          "type": "uint256"
        },
        {
          "internalType": "bytes",
          "name": "_data",
          "type": "bytes"
        },
        {
          "internalType": "string",
          "name": "_ipfs",
          "type": "string"
        }
      ],
      "name": "createProposal",
      "outputs": [],
      "stateMutability": "nonpayable",
      "type": "function"
    },
    {
      "inputs": [
        {
          "internalType": "uint256",
          "name": "_zNA",
          "type": "uint256"
        }
      ],
      "name": "doeszDAOExistForzNA",
      "outputs": [
        {
          "internalType": "bool",
          "name": "",
          "type": "bool"
        }
      ],
      "stateMutability": "view",
      "type": "function"
    },
    {
      "inputs": [
        {
          "internalType": "uint256",
          "name": "_daoId",
          "type": "uint256"
        },
        {
          "internalType": "uint256",
          "name": "_proposalId",
          "type": "uint256"
        }
      ],
      "name": "executeProposal",
      "outputs": [],
      "stateMutability": "nonpayable",
      "type": "function"
    },
    {
      "inputs": [
        {
          "internalType": "bytes32",
          "name": "role",
          "type": "bytes32"
        }
      ],
      "name": "getRoleAdmin",
      "outputs": [
        {
          "internalType": "bytes32",
          "name": "",
          "type": "bytes32"
        }
      ],
      "stateMutability": "view",
      "type": "function"
    },
    {
      "inputs": [
        {
          "internalType": "uint256",
          "name": "_daoId",
          "type": "uint256"
        }
      ],
      "name": "getzDAOById",
      "outputs": [
        {
          "components": [
            {
              "internalType": "uint256",
              "name": "id",
              "type": "uint256"
            },
            {
              "internalType": "contract IEtherZDAO",
              "name": "zDAO",
              "type": "address"
            },
            {
              "internalType": "uint256[]",
              "name": "associatedzNAs",
              "type": "uint256[]"
            }
          ],
          "internalType": "struct IEtherZDAOChef.ZDAORecord",
          "name": "",
          "type": "tuple"
        }
      ],
      "stateMutability": "view",
      "type": "function"
    },
    {
      "inputs": [
        {
          "internalType": "uint256",
          "name": "_zNA",
          "type": "uint256"
        }
      ],
      "name": "getzDaoByZNA",
      "outputs": [
        {
          "components": [
            {
              "internalType": "uint256",
              "name": "id",
              "type": "uint256"
            },
            {
              "internalType": "contract IEtherZDAO",
              "name": "zDAO",
              "type": "address"
            },
            {
              "internalType": "uint256[]",
              "name": "associatedzNAs",
              "type": "uint256[]"
            }
          ],
          "internalType": "struct IEtherZDAOChef.ZDAORecord",
          "name": "",
          "type": "tuple"
        }
      ],
      "stateMutability": "view",
      "type": "function"
    },
    {
      "inputs": [
        {
          "internalType": "bytes32",
          "name": "role",
          "type": "bytes32"
        },
        {
          "internalType": "address",
          "name": "account",
          "type": "address"
        }
      ],
      "name": "grantRole",
      "outputs": [],
      "stateMutability": "nonpayable",
      "type": "function"
    },
    {
      "inputs": [
        {
          "internalType": "bytes32",
          "name": "role",
          "type": "bytes32"
        },
        {
          "internalType": "address",
          "name": "account",
          "type": "address"
        }
      ],
      "name": "hasRole",
      "outputs": [
        {
          "internalType": "bool",
          "name": "",
          "type": "bool"
        }
      ],
      "stateMutability": "view",
      "type": "function"
    },
    {
      "inputs": [],
      "name": "lastZDAOId",
      "outputs": [
        {
          "internalType": "uint256",
          "name": "",
          "type": "uint256"
        }
      ],
      "stateMutability": "view",
      "type": "function"
    },
    {
      "inputs": [
        {
          "internalType": "uint256",
          "name": "_startIndex",
          "type": "uint256"
        },
        {
          "internalType": "uint256",
          "name": "_count",
          "type": "uint256"
        }
      ],
      "name": "listzDAOs",
      "outputs": [
        {
          "components": [
            {
              "internalType": "uint256",
              "name": "id",
              "type": "uint256"
            },
            {
              "internalType": "contract IEtherZDAO",
              "name": "zDAO",
              "type": "address"
            },
            {
              "internalType": "uint256[]",
              "name": "associatedzNAs",
              "type": "uint256[]"
            }
          ],
          "internalType": "struct IEtherZDAOChef.ZDAORecord[]",
          "name": "records",
          "type": "tuple[]"
        }
      ],
      "stateMutability": "view",
      "type": "function"
    },
    {
      "inputs": [],
      "name": "numberOfzDAOs",
      "outputs": [
        {
          "internalType": "uint256",
          "name": "",
          "type": "uint256"
        }
      ],
      "stateMutability": "view",
      "type": "function"
    },
    {
      "inputs": [],
      "name": "owner",
      "outputs": [
        {
          "internalType": "address",
          "name": "",
          "type": "address"
        }
      ],
      "stateMutability": "view",
      "type": "function"
    },
    {
      "inputs": [],
      "name": "paused",
      "outputs": [
        {
          "internalType": "bool",
          "name": "",
          "type": "bool"
        }
      ],
      "stateMutability": "view",
      "type": "function"
    },
    {
      "inputs": [
        {
          "internalType": "bytes",
          "name": "_message",
          "type": "bytes"
        }
      ],
      "name": "processMessageFromChild",
      "outputs": [],
      "stateMutability": "nonpayable",
      "type": "function"
    },
    {
      "inputs": [
        {
          "internalType": "uint256",
          "name": "_daoId",
          "type": "uint256"
        }
      ],
      "name": "removeDAO",
      "outputs": [],
      "stateMutability": "nonpayable",
      "type": "function"
    },
    {
      "inputs": [
        {
          "internalType": "uint256",
          "name": "_daoId",
          "type": "uint256"
        },
        {
          "internalType": "uint256",
          "name": "_zNA",
          "type": "uint256"
        }
      ],
      "name": "removeZNAAssociation",
      "outputs": [],
      "stateMutability": "nonpayable",
      "type": "function"
    },
    {
      "inputs": [],
      "name": "renounceOwnership",
      "outputs": [],
      "stateMutability": "nonpayable",
      "type": "function"
    },
    {
      "inputs": [
        {
          "internalType": "bytes32",
          "name": "role",
          "type": "bytes32"
        },
        {
          "internalType": "address",
          "name": "account",
          "type": "address"
        }
      ],
      "name": "renounceRole",
      "outputs": [],
      "stateMutability": "nonpayable",
      "type": "function"
    },
    {
      "inputs": [
        {
          "internalType": "bytes32",
          "name": "role",
          "type": "bytes32"
        },
        {
          "internalType": "address",
          "name": "account",
          "type": "address"
        }
      ],
      "name": "revokeRole",
      "outputs": [],
      "stateMutability": "nonpayable",
      "type": "function"
    },
    {
      "inputs": [],
      "name": "rootStateSender",
      "outputs": [
        {
          "internalType": "contract IRootStateSender",
          "name": "",
          "type": "address"
        }
      ],
      "stateMutability": "view",
      "type": "function"
    },
    {
      "inputs": [
        {
          "internalType": "uint256",
          "name": "_daoId",
          "type": "uint256"
        },
        {
          "internalType": "address",
          "name": "_gnosisSafe",
          "type": "address"
        }
      ],
      "name": "setDAOGnosisSafe",
      "outputs": [],
      "stateMutability": "nonpayable",
      "type": "function"
    },
    {
      "inputs": [
        {
          "internalType": "uint256",
          "name": "_daoId",
          "type": "uint256"
        },
        {
          "internalType": "address",
          "name": "_token",
          "type": "address"
        },
        {
          "internalType": "uint256",
          "name": "_amount",
          "type": "uint256"
        }
      ],
      "name": "setDAOVotingToken",
      "outputs": [],
      "stateMutability": "nonpayable",
      "type": "function"
    },
    {
      "inputs": [
        {
          "internalType": "address",
          "name": "_zDAOBase",
          "type": "address"
        }
      ],
      "name": "setZDAOBase",
      "outputs": [],
      "stateMutability": "nonpayable",
      "type": "function"
    },
    {
      "inputs": [
        {
          "internalType": "address",
          "name": "_znsHub",
          "type": "address"
        }
      ],
      "name": "setZNSHub",
      "outputs": [],
      "stateMutability": "nonpayable",
      "type": "function"
    },
    {
      "inputs": [
        {
          "internalType": "bytes4",
          "name": "interfaceId",
          "type": "bytes4"
        }
      ],
      "name": "supportsInterface",
      "outputs": [
        {
          "internalType": "bool",
          "name": "",
          "type": "bool"
        }
      ],
      "stateMutability": "view",
      "type": "function"
    },
    {
      "inputs": [
        {
          "internalType": "address",
          "name": "newOwner",
          "type": "address"
        }
      ],
      "name": "transferOwnership",
      "outputs": [],
      "stateMutability": "nonpayable",
      "type": "function"
    },
    {
      "inputs": [
        {
          "internalType": "address",
          "name": "newImplementation",
          "type": "address"
        }
      ],
      "name": "upgradeTo",
      "outputs": [],
      "stateMutability": "nonpayable",
      "type": "function"
    },
    {
      "inputs": [
        {
          "internalType": "address",
          "name": "newImplementation",
          "type": "address"
        },
        {
          "internalType": "bytes",
          "name": "data",
          "type": "bytes"
        }
      ],
      "name": "upgradeToAndCall",
      "outputs": [],
      "stateMutability": "payable",
      "type": "function"
    },
    {
      "inputs": [],
      "name": "version",
      "outputs": [
        {
          "internalType": "uint256",
          "name": "",
          "type": "uint256"
        }
      ],
      "stateMutability": "view",
      "type": "function"
    },
    {
      "inputs": [],
      "name": "zDAOBase",
      "outputs": [
        {
          "internalType": "address",
          "name": "",
          "type": "address"
        }
      ],
      "stateMutability": "view",
      "type": "function"
    },
    {
      "inputs": [
        {
          "internalType": "uint256",
          "name": "",
          "type": "uint256"
        }
      ],
      "name": "zDAORecords",
      "outputs": [
        {
          "internalType": "uint256",
          "name": "id",
          "type": "uint256"
        },
        {
          "internalType": "contract IEtherZDAO",
          "name": "zDAO",
          "type": "address"
        }
      ],
      "stateMutability": "view",
      "type": "function"
    },
    {
      "inputs": [],
      "name": "znsHub",
      "outputs": [
        {
          "internalType": "contract IZNSHub",
          "name": "",
          "type": "address"
        }
      ],
      "stateMutability": "view",
      "type": "function"
    }
  ],
  "bytecode": "0x60a06040523060805234801561001457600080fd5b50608051614c0b61004560003960008181610c3401528181610ccc0152818161100a01526110a20152614c0b6000f3fe6080604052600436106200029c5760003560e01c80638da5cb5b116200016e578063bf48022b11620000db578063ea0458041162000089578063f2fde38b116200006c578063f2fde38b146200080e578063fa771c641462000833578063fe0ed211146200084c57600080fd5b8063ea04580414620007b5578063ebc31f2614620007da57600080fd5b8063c67cdd0111620000be578063c67cdd011462000746578063d547741f146200076b578063e187a7cf146200079057600080fd5b8063bf48022b14620006fc578063bff75d00146200072157600080fd5b80639fbabe5b1162000139578063a98bab8a116200011c578063a98bab8a146200069c578063b74a2c8914620006c1578063ba636eef14620006e457600080fd5b80639fbabe5b1462000660578063a217fddf146200068557600080fd5b80638da5cb5b146200058e57806391d1485414620005ae578063946b22e214620005f8578063974a5817146200062c57600080fd5b80634859ef46116200020d5780635ded8b0611620001d8578063715018a611620001bb578063715018a6146200052c5780637200aff91462000544578063759e6a07146200056957600080fd5b80635ded8b0614620004e457806362acf0f5146200050957600080fd5b80634859ef4614620004755780634f1ef286146200049a57806354fd4d5014620004b15780635c975abb14620004ca57600080fd5b8063248a9ca3116200026b5780632f2ff15d116200024e5780632f2ff15d146200040657806336568abe146200042b5780633659cfe6146200045057600080fd5b8063248a9ca3146200038757806329503f7d14620003ca57600080fd5b806301ffc9a714620002a157806310123b2e14620002db5780631ab767121462000302578063246c88dc1462000327575b600080fd5b348015620002ae57600080fd5b50620002c6620002c0366004620039ed565b62000871565b60405190151581526020015b60405180910390f35b348015620002e857600080fd5b5062000300620002fa36600462003a7d565b6200090b565b005b3480156200030f57600080fd5b50620003006200032136600462003ac3565b620009b1565b3480156200033457600080fd5b50620003696200034636600462003ae6565b61019560205260009081526040902080546001909101546001600160a01b031682565b604080519283526001600160a01b03909116602083015201620002d2565b3480156200039457600080fd5b50620003bb620003a636600462003ae6565b60009081526097602052604090206001015490565b604051908152602001620002d2565b348015620003d757600080fd5b5061019354620003ed906001600160a01b031681565b6040516001600160a01b039091168152602001620002d2565b3480156200041357600080fd5b50620003006200042536600462003b28565b62000b6e565b3480156200043857600080fd5b50620003006200044a36600462003b28565b62000b9d565b3480156200045d57600080fd5b50620003006200046f36600462003b5b565b62000c29565b3480156200048257600080fd5b50620003006200049436600462003ae6565b62000dd0565b62000300620004ab36600462003b91565b62000fff565b348015620004be57600080fd5b50620003bb6101915481565b348015620004d757600080fd5b5060fb5460ff16620002c6565b348015620004f157600080fd5b50620003006200050336600462003ac3565b62001193565b3480156200051657600080fd5b5061019254620003ed906001600160a01b031681565b3480156200053957600080fd5b5062000300620012d3565b3480156200055157600080fd5b50620003006200056336600462003ac3565b6200133d565b3480156200057657600080fd5b50620003006200058836600462003ac3565b62001483565b3480156200059b57600080fd5b506033546001600160a01b0316620003ed565b348015620005bb57600080fd5b50620002c6620005cd36600462003b28565b60009182526097602090815260408084206001600160a01b0393909316845291905290205460ff1690565b3480156200060557600080fd5b506200061d6200061736600462003ac3565b6200162b565b604051620002d2919062003ccd565b3480156200063957600080fd5b50620006516200064b36600462003ae6565b620017b7565b604051620002d2919062003d51565b3480156200066d57600080fd5b50620003006200067f36600462003d66565b620018e8565b3480156200069257600080fd5b50620003bb600081565b348015620006a957600080fd5b5062000300620006bb36600462003dad565b62001be8565b348015620006ce57600080fd5b5061019454620003ed906001600160a01b031681565b348015620006f157600080fd5b5061019754620003bb565b3480156200070957600080fd5b50620003006200071b36600462003b28565b62001d49565b3480156200072e57600080fd5b50620003006200074036600462003dff565b62001f59565b3480156200075357600080fd5b50620006516200076536600462003ae6565b62002150565b3480156200077857600080fd5b50620003006200078a36600462003b28565b620021f5565b3480156200079d57600080fd5b5062000300620007af36600462003e9e565b6200221f565b348015620007c257600080fd5b5062000300620007d436600462003b5b565b62002439565b348015620007e757600080fd5b50620002c6620007f936600462003ae6565b60009081526101966020526040902054151590565b3480156200081b57600080fd5b50620003006200082d36600462003b5b565b620024c5565b3480156200084057600080fd5b50620003bb6101975481565b3480156200085957600080fd5b50620003006200086b36600462003b5b565b620025aa565b60007fffffffff0000000000000000000000000000000000000000000000000000000082167f7965db0b0000000000000000000000000000000000000000000000000000000014806200090557507f01ffc9a7000000000000000000000000000000000000000000000000000000007fffffffff000000000000000000000000000000000000000000000000000000008316145b92915050565b610193546001600160a01b031633146200096c5760405162461bcd60e51b815260206004820152601260248201527f4e6f7420612073746174652073656e646572000000000000000000000000000060448201526064015b60405180910390fd5b620009ad82828080601f0160208091040260200160405190810160405280939291908181526020018383808284376000920191909152506200263692505050565b5050565b81600081118015620009c65750610197548111155b8015620009db5750620009d98162002665565b155b62000a185760405162461bcd60e51b815260206004820152600c60248201526b496e76616c6964207a44414f60a01b604482015260640162000963565b60008381526101956020526040908190206001015490517fbfc42645000000000000000000000000000000000000000000000000000000008152336004820152602481018490526001600160a01b039091169063bfc4264590604401600060405180830381600087803b15801562000a8f57600080fd5b505af115801562000aa4573d6000803e3d6000fd5b505060405133925084915085907fe285e47f4804f679760aa4e907da874045af16436d55df64b64ffd9ca2539dfa90600090a4610193546001600160a01b0316634c09e6e860055b6040805160208101929092528101869052606081018590526080015b6040516020818303038152906040526040518263ffffffff1660e01b815260040162000b35919062003f36565b600060405180830381600087803b15801562000b5057600080fd5b505af115801562000b65573d6000803e3d6000fd5b50505050505050565b60008281526097602052604090206001015462000b8c8133620026fb565b62000b98838362002784565b505050565b6001600160a01b038116331462000c1d5760405162461bcd60e51b815260206004820152602f60248201527f416363657373436f6e74726f6c3a2063616e206f6e6c792072656e6f756e636560448201527f20726f6c657320666f722073656c660000000000000000000000000000000000606482015260840162000963565b620009ad828262002828565b306001600160a01b037f000000000000000000000000000000000000000000000000000000000000000016141562000cca5760405162461bcd60e51b815260206004820152602c60248201527f46756e6374696f6e206d7573742062652063616c6c6564207468726f7567682060448201527f64656c656761746563616c6c0000000000000000000000000000000000000000606482015260840162000963565b7f00000000000000000000000000000000000000000000000000000000000000006001600160a01b031662000d267f360894a13ba1a3210667c828492db98dca3e2076cc3735a920a3ca505d382bbc546001600160a01b031690565b6001600160a01b03161462000da45760405162461bcd60e51b815260206004820152602c60248201527f46756e6374696f6e206d7573742062652063616c6c6564207468726f7567682060448201527f6163746976652070726f78790000000000000000000000000000000000000000606482015260840162000963565b62000daf81620028ac565b6040805160008082526020820190925262000dcd9183919062002908565b50565b6000818152610195602090815260409182902060010154825163116b1a0960e01b8152925184936001600160a01b039092169263116b1a0992600480820193918290030181865afa15801562000e2a573d6000803e3d6000fd5b505050506040513d601f19601f8201168201806040525081019062000e50919062003f4b565b6001600160a01b0316336001600160a01b03161462000eb25760405162461bcd60e51b815260206004820152601260248201527f496e76616c6964207a44414f204f776e65720000000000000000000000000000604482015260640162000963565b8160008111801562000ec75750610197548111155b801562000edc575062000eda8162002665565b155b62000f195760405162461bcd60e51b815260206004820152600c60248201526b496e76616c6964207a44414f60a01b604482015260640162000963565b600083815261019560205260409081902060019081015491517f472858b400000000000000000000000000000000000000000000000000000000815260048101919091526001600160a01b039091169063472858b490602401600060405180830381600087803b15801562000f8d57600080fd5b505af115801562000fa2573d6000803e3d6000fd5b50506040518592507f62d16daa2b15fec62c2624e8279f21d75a1e6d3f8dd790378d3129985765cb4a9150600090a2610193546001600160a01b0316634c09e6e86002604080516020810192909252810186905260600162000b08565b306001600160a01b037f0000000000000000000000000000000000000000000000000000000000000000161415620010a05760405162461bcd60e51b815260206004820152602c60248201527f46756e6374696f6e206d7573742062652063616c6c6564207468726f7567682060448201527f64656c656761746563616c6c0000000000000000000000000000000000000000606482015260840162000963565b7f00000000000000000000000000000000000000000000000000000000000000006001600160a01b0316620010fc7f360894a13ba1a3210667c828492db98dca3e2076cc3735a920a3ca505d382bbc546001600160a01b031690565b6001600160a01b0316146200117a5760405162461bcd60e51b815260206004820152602c60248201527f46756e6374696f6e206d7573742062652063616c6c6564207468726f7567682060448201527f6163746976652070726f78790000000000000000000000000000000000000000606482015260840162000963565b6200118582620028ac565b620009ad8282600162002908565b81600081118015620011a85750610197548111155b8015620011bd5750620011bb8162002665565b155b620011fa5760405162461bcd60e51b815260206004820152600c60248201526b496e76616c6964207a44414f60a01b604482015260640162000963565b60008381526101956020526040908190206001015490517f53350755000000000000000000000000000000000000000000000000000000008152336004820152602481018490526001600160a01b0390911690635335075590604401600060405180830381600087803b1580156200127157600080fd5b505af115801562001286573d6000803e3d6000fd5b505060405133925084915085907f9ebbce99b668db9a753ddb04f826e8eb33904201a74ad92b015aaa3fa039370e90600090a4610193546001600160a01b0316634c09e6e8600462000aec565b6033546001600160a01b031633146200132f5760405162461bcd60e51b815260206004820181905260248201527f4f776e61626c653a2063616c6c6572206973206e6f7420746865206f776e6572604482015260640162000963565b6200133b600062002ad3565b565b81600081118015620013525750610197548111155b8015620013675750620013658162002665565b155b620013a45760405162461bcd60e51b815260206004820152600c60248201526b496e76616c6964207a44414f60a01b604482015260640162000963565b610192546040516331a9108f60e11b815260048101849052839133916001600160a01b0390911690636352211e90602401602060405180830381865afa158015620013f3573d6000803e3d6000fd5b505050506040513d601f19601f8201168201806040525081019062001419919062003f4b565b6001600160a01b031614620014715760405162461bcd60e51b815260206004820152600f60248201527f4e6f742061207a4e41206f776e65720000000000000000000000000000000000604482015260640162000963565b6200147d848462002b32565b50505050565b81600081118015620014985750610197548111155b8015620014ad5750620014ab8162002665565b155b620014ea5760405162461bcd60e51b815260206004820152600c60248201526b496e76616c6964207a44414f60a01b604482015260640162000963565b610192546040516331a9108f60e11b815260048101849052839133916001600160a01b0390911690636352211e90602401602060405180830381865afa15801562001539573d6000803e3d6000fd5b505050506040513d601f19601f820116820180604052508101906200155f919062003f4b565b6001600160a01b031614620015b75760405162461bcd60e51b815260206004820152600f60248201527f4e6f742061207a4e41206f776e65720000000000000000000000000000000000604482015260640162000963565b60008381526101966020526040902054848114620016185760405162461bcd60e51b815260206004820152601260248201527f7a4e41206e6f74206173736f6369617465640000000000000000000000000000604482015260640162000963565b62001624858562002c0c565b5050505050565b6101975460609082906200164190859062003f81565b8111156200165d5783610197546200165a919062003f81565b90505b8067ffffffffffffffff81111562001679576200167962003b7b565b604051908082528060200260200182016040528015620016c857816020015b60408051606080820183526000808352602083015291810191909152815260200190600190039081620016985790505b50915060005b81811015620017af576101956000620016e8838862003f9b565b620016f590600162003f9b565b8152602080820192909252604090810160002081516060810183528154815260018201546001600160a01b0316818501526002820180548451818702810187018652818152929593948601938301828280156200177257602002820191906000526020600020905b8154815260200190600101908083116200175d575b50505050508152505083828151811062001790576200179062003fb6565b602002602001018190525080620017a79062003fcc565b9050620016ce565b505092915050565b60408051606080820183526000808352602083015291810191909152600082815261019660205260409020548015801590620017f65750610197548111155b80156200180b5750620018098162002665565b155b620018595760405162461bcd60e51b815260206004820152601b60248201527f4e6f207a44414f206173736f6369617465642077697468207a4e410000000000604482015260640162000963565b6000818152610195602090815260409182902082516060810184528154815260018201546001600160a01b03168184015260028201805485518186028101860187528181529295939493860193830182828015620018d757602002820191906000526020600020905b815481526020019060010190808311620018c2575b505050505081525050915050919050565b610192546040516331a9108f60e11b815260048101849052839133916001600160a01b0390911690636352211e90602401602060405180830381865afa15801562001937573d6000803e3d6000fd5b505050506040513d601f19601f820116820180604052508101906200195d919062003f4b565b6001600160a01b031614620019b55760405162461bcd60e51b815260206004820152600f60248201527f4e6f742061207a4e41206f776e65720000000000000000000000000000000000604482015260640162000963565b60008381526101966020526040902054801562001a3b5760405162461bcd60e51b815260206004820152602960248201527f446f206e6f7420616c6c6f7720746f20616464206e65772044414f207769746860448201527f2073616d65207a4e410000000000000000000000000000000000000000000000606482015260840162000963565b600062001a488462002d2f565b604080516060810182526101975481526001600160a01b03831660208201529192508101600060405190808252806020026020018201604052801562001a98578160200160208202803683370190505b5090526101975460009081526101956020908152604091829020835181558382015160018201805473ffffffffffffffffffffffffffffffffffffffff19166001600160a01b0390921691909117905591830151805162001b00926002850192019062003978565b5050610197546040516001600160a01b03841692503391907fbac692442c8f05b9b2d2f2c97dc28685a5ea91646da4c845fd03a3f73bcc283a90600090a462001b4d610197548662002b32565b610193546001600160a01b0316634c09e6e86001610197546040805160208101939093528201526080808801356060830152016040516020818303038152906040526040518263ffffffff1660e01b815260040162001bad919062003f36565b600060405180830381600087803b15801562001bc857600080fd5b505af115801562001bdd573d6000803e3d6000fd5b505050505050505050565b600054610100900460ff1662001c055760005460ff161562001c09565b303b155b62001c7d5760405162461bcd60e51b815260206004820152602e60248201527f496e697469616c697a61626c653a20636f6e747261637420697320616c72656160448201527f647920696e697469616c697a6564000000000000000000000000000000000000606482015260840162000963565b600054610100900460ff1615801562001cbd57600080547fffffffffffffffffffffffffffffffffffffffffffffffffffffffffffff0000166101011790555b62001cc762002dfd565b61019280546001600160a01b0380871673ffffffffffffffffffffffffffffffffffffffff1992831617909255610193805486841690831617905561019480549285169290911691909117905580156200147d57600080547fffffffffffffffffffffffffffffffffffffffffffffffffffffffffffff00ff16905550505050565b6000828152610195602090815260409182902060010154825163116b1a0960e01b8152925185936001600160a01b039092169263116b1a0992600480820193918290030181865afa15801562001da3573d6000803e3d6000fd5b505050506040513d601f19601f8201168201806040525081019062001dc9919062003f4b565b6001600160a01b0316336001600160a01b03161462001e2b5760405162461bcd60e51b815260206004820152601260248201527f496e76616c6964207a44414f204f776e65720000000000000000000000000000604482015260640162000963565b8260008111801562001e405750610197548111155b801562001e55575062001e538162002665565b155b62001e925760405162461bcd60e51b815260206004820152600c60248201526b496e76616c6964207a44414f60a01b604482015260640162000963565b60008481526101956020526040908190206001015490517fc3085a3e0000000000000000000000000000000000000000000000000000000081526001600160a01b0385811660048301529091169063c3085a3e90602401600060405180830381600087803b15801562001f0457600080fd5b505af115801562001f19573d6000803e3d6000fd5b50506040516001600160a01b03861692508691507fd13c04b9ca2e0b8d9b68dec914067c36f1a5b8ecf729b26fc901ac7bd449fadd90600090a350505050565b8660008111801562001f6e5750610197548111155b801562001f83575062001f818162002665565b155b62001fc05760405162461bcd60e51b815260206004820152600c60248201526b496e76616c6964207a44414f60a01b604482015260640162000963565b600088815261019560205260408082206001015490517f369c4d160000000000000000000000000000000000000000000000000000000081526001600160a01b039091169063369c4d1690620020279033908c908c908c908c908c908c9060040162004015565b6020604051808303816000875af115801562002047573d6000803e3d6000fd5b505050506040513d601f19601f820116820180604052508101906200206d91906200406d565b9050336001600160a01b0316818a7f3adb4b5b85d780e775af66d5efff3183afc4c951384c4fe9763eb5e0406b15c643604051620020ad91815260200190565b60405180910390a4610193546001600160a01b0316634c09e6e8600360408051602081019290925281018c9052606081018490526080016040516020818303038152906040526040518263ffffffff1660e01b815260040162002111919062003f36565b600060405180830381600087803b1580156200212c57600080fd5b505af115801562002141573d6000803e3d6000fd5b50505050505050505050505050565b604080516060808201835260008083526020808401829052838501839052858252610195815290849020845192830185528054835260018101546001600160a01b0316838301526002810180548651818502810185018852818152959694959294860193830182828015620021e557602002820191906000526020600020905b815481526020019060010190808311620021d0575b5050505050815250509050919050565b600082815260976020526040902060010154620022138133620026fb565b62000b98838362002828565b6000838152610195602090815260409182902060010154825163116b1a0960e01b8152925186936001600160a01b039092169263116b1a0992600480820193918290030181865afa15801562002279573d6000803e3d6000fd5b505050506040513d601f19601f820116820180604052508101906200229f919062003f4b565b6001600160a01b0316336001600160a01b031614620023015760405162461bcd60e51b815260206004820152601260248201527f496e76616c6964207a44414f204f776e65720000000000000000000000000000604482015260640162000963565b83600081118015620023165750610197548111155b80156200232b5750620023298162002665565b155b620023685760405162461bcd60e51b815260206004820152600c60248201526b496e76616c6964207a44414f60a01b604482015260640162000963565b60008581526101956020526040908190206001015490517f137f415b0000000000000000000000000000000000000000000000000000000081526001600160a01b038681166004830152602482018690529091169063137f415b90604401600060405180830381600087803b158015620023e157600080fd5b505af1158015620023f6573d6000803e3d6000fd5b5050505082846001600160a01b0316867fb5d5414a361b43f2683d9995f54f8b72cffd37276d05a1001b91eb0cefbcb98260405160405180910390a45050505050565b6033546001600160a01b03163314620024955760405162461bcd60e51b815260206004820181905260248201527f4f776e61626c653a2063616c6c6572206973206e6f7420746865206f776e6572604482015260640162000963565b610192805473ffffffffffffffffffffffffffffffffffffffff19166001600160a01b0392909216919091179055565b6033546001600160a01b03163314620025215760405162461bcd60e51b815260206004820181905260248201527f4f776e61626c653a2063616c6c6572206973206e6f7420746865206f776e6572604482015260640162000963565b6001600160a01b0381166200259f5760405162461bcd60e51b815260206004820152602660248201527f4f776e61626c653a206e6577206f776e657220697320746865207a65726f206160448201527f6464726573730000000000000000000000000000000000000000000000000000606482015260840162000963565b62000dcd8162002ad3565b6033546001600160a01b03163314620026065760405162461bcd60e51b815260206004820181905260248201527f4f776e61626c653a2063616c6c6572206973206e6f7420746865206f776e6572604482015260640162000963565b610194805473ffffffffffffffffffffffffffffffffffffffff19166001600160a01b0392909216919091179055565b6000818060200190518101906200264e91906200406d565b90506006811415620009ad57620009ad8262002ea4565b6000818152610195602090815260408083206001015481517f359cbbc900000000000000000000000000000000000000000000000000000000815291516001600160a01b039091169263359cbbc992600480820193918290030181865afa158015620026d5573d6000803e3d6000fd5b505050506040513d601f19601f8201168201806040525081019062000905919062004096565b60008281526097602090815260408083206001600160a01b038516845290915290205460ff16620009ad576200273c816001600160a01b0316601462003025565b6200274983602062003025565b6040516020016200275c929190620040b6565b60408051601f198184030181529082905262461bcd60e51b8252620009639160040162003f36565b60008281526097602090815260408083206001600160a01b038516845290915290205460ff16620009ad5760008281526097602090815260408083206001600160a01b03851684529091529020805460ff19166001179055620027e43390565b6001600160a01b0316816001600160a01b0316837f2f8788117e7eff1d82e926ec794901d17c78024a50270940304540a733656f0d60405160405180910390a45050565b60008281526097602090815260408083206001600160a01b038516845290915290205460ff1615620009ad5760008281526097602090815260408083206001600160a01b0385168085529252808320805460ff1916905551339285917ff6391f5c32d9c69d2a47ea670b442974b53935d1edc7fd64eb21e047a839171b9190a45050565b6033546001600160a01b0316331462000dcd5760405162461bcd60e51b815260206004820181905260248201527f4f776e61626c653a2063616c6c6572206973206e6f7420746865206f776e6572604482015260640162000963565b60006200293c7f360894a13ba1a3210667c828492db98dca3e2076cc3735a920a3ca505d382bbc546001600160a01b031690565b9050620029498462003273565b600083511180620029575750815b156200296b5762002969848462003337565b505b7f4910fdfa16fed3260ed0e7147f7cc6da11a60208b5b9406d12a635614ffd9143805460ff166200162457805460ff191660011781556040516001600160a01b038316602482015262002a1b90869060440160408051601f198184030181529190526020810180517bffffffffffffffffffffffffffffffffffffffffffffffffffffffff167f3659cfe60000000000000000000000000000000000000000000000000000000017905262003337565b50805460ff191681557f360894a13ba1a3210667c828492db98dca3e2076cc3735a920a3ca505d382bbc546001600160a01b0383811691161462002ac85760405162461bcd60e51b815260206004820152602f60248201527f45524331393637557067726164653a207570677261646520627265616b73206660448201527f7572746865722075706772616465730000000000000000000000000000000000606482015260840162000963565b620016248562003442565b603380546001600160a01b0383811673ffffffffffffffffffffffffffffffffffffffff19831681179093556040519116919082907f8be0079c531659141344cd1fd0a4f28419497f9722a3daafe3b4186f6b6457e090600090a35050565b600081815261019660205260409020548281141562002b945760405162461bcd60e51b815260206004820152601960248201527f7a4e4120616c7265616479206c696e6b656420746f2044414f00000000000000604482015260640162000963565b801562002ba75762002ba7818362002c0c565b6000828152610196602090815260408083208690558583526101958252808320600201805460018101825590845291832090910184905551839185917fffdc17a33b6ff8f8f10d88a733ea9fb0db3faa0b4ec1cf8612f81ba96656cd919190a3505050565b600082815261019560205260408120600281015490915b8181101562001624578383600201828154811062002c455762002c4562003fb6565b9060005260206000200154141562002d1a576002830162002c6860018462003f81565b8154811062002c7b5762002c7b62003fb6565b906000526020600020015483600201828154811062002c9e5762002c9e62003fb6565b6000918252602090912001556002830180548062002cc05762002cc06200413b565b6000828152602080822083016000199081018390559092019092558582526101969052604080822082905551859187917ffa997975b6b7327afbe399fcdbc2861d51d0d52e5828cf7e1c8a98cd0cadb7ae9190a362001624565b8062002d268162003fcc565b91505062002c23565b61019780546000918262002d438362003fcc565b9091555050610194546101975460405162000905926001600160a01b0316917f2864cdbf000000000000000000000000000000000000000000000000000000009162002d9891309133908990602401620041c5565b60408051601f198184030181529190526020810180517bffffffffffffffffffffffffffffffffffffffffffffffffffffffff167fffffffff000000000000000000000000000000000000000000000000000000009093169290921790915262003484565b600054610100900460ff1662002e6a5760405162461bcd60e51b815260206004820152602b60248201527f496e697469616c697a61626c653a20636f6e7472616374206973206e6f74206960448201526a6e697469616c697a696e6760a81b606482015260840162000963565b62002e74620034f7565b62002e7e62003578565b62002e8862003603565b62002e926200367a565b62002e9c620036fb565b600161019155565b6000806000806000808680602001905181019062002ec39190620042a5565b95509550955095509550955060008511801562002ee35750610197548511155b801562002efb575062002ef96101975462002665565b155b62002f385760405162461bcd60e51b815260206004820152600c60248201526b496e76616c6964207a44414f60a01b604482015260640162000963565b60008581526101956020526040908190206001015490517f93850b44000000000000000000000000000000000000000000000000000000008152600481018690526024810185905260448101849052606481018390526001600160a01b03909116906393850b4490608401600060405180830381600087803b15801562002fbe57600080fd5b505af115801562002fd3573d6000803e3d6000fd5b505060408051868152602081018690529081018490528692508791507f453fcfa6f72f89b17a857f2b4bb96ba21f2a6d6c7c8a175b6df638e8fa92763d9060600160405180910390a350505050505050565b6060600062003036836002620042f0565b6200304390600262003f9b565b67ffffffffffffffff8111156200305e576200305e62003b7b565b6040519080825280601f01601f19166020018201604052801562003089576020820181803683370190505b5090507f300000000000000000000000000000000000000000000000000000000000000081600081518110620030c357620030c362003fb6565b60200101907effffffffffffffffffffffffffffffffffffffffffffffffffffffffffffff1916908160001a9053507f78000000000000000000000000000000000000000000000000000000000000008160018151811062003129576200312962003fb6565b60200101907effffffffffffffffffffffffffffffffffffffffffffffffffffffffffffff1916908160001a905350600062003167846002620042f0565b6200317490600162003f9b565b90505b60018111156200321b577f303132333435363738396162636465660000000000000000000000000000000085600f1660108110620031b957620031b962003fb6565b1a60f81b828281518110620031d257620031d262003fb6565b60200101907effffffffffffffffffffffffffffffffffffffffffffffffffffffffffffff1916908160001a90535060049490941c93620032138162004312565b905062003177565b5083156200326c5760405162461bcd60e51b815260206004820181905260248201527f537472696e67733a20686578206c656e67746820696e73756666696369656e74604482015260640162000963565b9392505050565b803b620032e95760405162461bcd60e51b815260206004820152602d60248201527f455243313936373a206e657720696d706c656d656e746174696f6e206973206e60448201527f6f74206120636f6e747261637400000000000000000000000000000000000000606482015260840162000963565b7f360894a13ba1a3210667c828492db98dca3e2076cc3735a920a3ca505d382bbc805473ffffffffffffffffffffffffffffffffffffffff19166001600160a01b0392909216919091179055565b6060823b620033af5760405162461bcd60e51b815260206004820152602660248201527f416464726573733a2064656c65676174652063616c6c20746f206e6f6e2d636f60448201527f6e74726163740000000000000000000000000000000000000000000000000000606482015260840162000963565b600080846001600160a01b031684604051620033cc91906200432c565b600060405180830381855af49150503d806000811462003409576040519150601f19603f3d011682016040523d82523d6000602084013e6200340e565b606091505b509150915062003439828260405180606001604052806027815260200162004baf6027913962003768565b95945050505050565b6200344d8162003273565b6040516001600160a01b038216907fbc7cd75a20ee27fd9adebab32041f755214dbc6bffa90cc0225b39da2e5c2d3b90600090a250565b600043826040516020016200349b9291906200434a565b604051602081830303815290604052805190602001208383604051620034c190620039c8565b620034ce92919062004372565b8190604051809103906000f5905080158015620034ef573d6000803e3d6000fd5b509392505050565b600054610100900460ff16620035645760405162461bcd60e51b815260206004820152602b60248201527f496e697469616c697a61626c653a20636f6e7472616374206973206e6f74206960448201526a6e697469616c697a696e6760a81b606482015260840162000963565b6200356e620037a6565b6200133b62003813565b600054610100900460ff16620035e55760405162461bcd60e51b815260206004820152602b60248201527f496e697469616c697a61626c653a20636f6e7472616374206973206e6f74206960448201526a6e697469616c697a696e6760a81b606482015260840162000963565b620035ef620037a6565b620035f9620037a6565b6200133b620037a6565b600054610100900460ff16620036705760405162461bcd60e51b815260206004820152602b60248201527f496e697469616c697a61626c653a20636f6e7472616374206973206e6f74206960448201526a6e697469616c697a696e6760a81b606482015260840162000963565b6200133b6200388b565b600054610100900460ff16620036e75760405162461bcd60e51b815260206004820152602b60248201527f496e697469616c697a61626c653a20636f6e7472616374206973206e6f74206960448201526a6e697469616c697a696e6760a81b606482015260840162000963565b620036f1620037a6565b6200133b620038ff565b600054610100900460ff16620035ef5760405162461bcd60e51b815260206004820152602b60248201527f496e697469616c697a61626c653a20636f6e7472616374206973206e6f74206960448201526a6e697469616c697a696e6760a81b606482015260840162000963565b60608315620037795750816200326c565b8251156200378a5782518084602001fd5b8160405162461bcd60e51b815260040162000963919062003f36565b600054610100900460ff166200133b5760405162461bcd60e51b815260206004820152602b60248201527f496e697469616c697a61626c653a20636f6e7472616374206973206e6f74206960448201526a6e697469616c697a696e6760a81b606482015260840162000963565b600054610100900460ff16620038805760405162461bcd60e51b815260206004820152602b60248201527f496e697469616c697a61626c653a20636f6e7472616374206973206e6f74206960448201526a6e697469616c697a696e6760a81b606482015260840162000963565b6200133b3362002ad3565b600054610100900460ff16620038f85760405162461bcd60e51b815260206004820152602b60248201527f496e697469616c697a61626c653a20636f6e7472616374206973206e6f74206960448201526a6e697469616c697a696e6760a81b606482015260840162000963565b600160c955565b600054610100900460ff166200396c5760405162461bcd60e51b815260206004820152602b60248201527f496e697469616c697a61626c653a20636f6e7472616374206973206e6f74206960448201526a6e697469616c697a696e6760a81b606482015260840162000963565b60fb805460ff19169055565b828054828255906000526020600020908101928215620039b6579160200282015b82811115620039b657825182559160200191906001019062003999565b50620039c4929150620039d6565b5090565b610810806200439f83390190565b5b80821115620039c45760008155600101620039d7565b60006020828403121562003a0057600080fd5b81357fffffffff00000000000000000000000000000000000000000000000000000000811681146200326c57600080fd5b60008083601f84011262003a4457600080fd5b50813567ffffffffffffffff81111562003a5d57600080fd5b60208301915083602082850101111562003a7657600080fd5b9250929050565b6000806020838503121562003a9157600080fd5b823567ffffffffffffffff81111562003aa957600080fd5b62003ab78582860162003a31565b90969095509350505050565b6000806040838503121562003ad757600080fd5b50508035926020909101359150565b60006020828403121562003af957600080fd5b5035919050565b6001600160a01b038116811462000dcd57600080fd5b803562003b238162003b00565b919050565b6000806040838503121562003b3c57600080fd5b82359150602083013562003b508162003b00565b809150509250929050565b60006020828403121562003b6e57600080fd5b81356200326c8162003b00565b634e487b7160e01b600052604160045260246000fd5b6000806040838503121562003ba557600080fd5b823562003bb28162003b00565b9150602083013567ffffffffffffffff8082111562003bd057600080fd5b818501915085601f83011262003be557600080fd5b81358181111562003bfa5762003bfa62003b7b565b604051601f8201601f19908116603f0116810190838211818310171562003c255762003c2562003b7b565b8160405282815288602084870101111562003c3f57600080fd5b8260208601602083013760006020848301015280955050505050509250929050565b6000606083018251845260206001600160a01b038185015116818601526040840151606060408701528281518085526080880191508383019450600092505b8083101562003cc2578451825293830193600192909201919083019062003ca0565b509695505050505050565b6000602080830181845280855180835260408601915060408160051b870101925083870160005b8281101562003d44577fffffffffffffffffffffffffffffffffffffffffffffffffffffffffffffffc088860301845262003d3185835162003c61565b9450928501929085019060010162003cf4565b5092979650505050505050565b6020815260006200326c602083018462003c61565b6000806040838503121562003d7a57600080fd5b82359150602083013567ffffffffffffffff81111562003d9957600080fd5b8301610120818603121562003b5057600080fd5b60008060006060848603121562003dc357600080fd5b833562003dd08162003b00565b9250602084013562003de28162003b00565b9150604084013562003df48162003b00565b809150509250925092565b600080600080600080600060a0888a03121562003e1b57600080fd5b87359650602088013562003e2f8162003b00565b955060408801359450606088013567ffffffffffffffff8082111562003e5457600080fd5b62003e628b838c0162003a31565b909650945060808a013591508082111562003e7c57600080fd5b5062003e8b8a828b0162003a31565b989b979a50959850939692959293505050565b60008060006060848603121562003eb457600080fd5b83359250602084013562003ec88162003b00565b929592945050506040919091013590565b60005b8381101562003ef657818101518382015260200162003edc565b838111156200147d5750506000910152565b6000815180845262003f2281602086016020860162003ed9565b601f01601f19169290920160200192915050565b6020815260006200326c602083018462003f08565b60006020828403121562003f5e57600080fd5b81516200326c8162003b00565b634e487b7160e01b600052601160045260246000fd5b60008282101562003f965762003f9662003f6b565b500390565b6000821982111562003fb15762003fb162003f6b565b500190565b634e487b7160e01b600052603260045260246000fd5b600060001982141562003fe35762003fe362003f6b565b5060010190565b818352818160208501375060006020828401015260006020601f19601f840116840101905092915050565b60006001600160a01b03808a16835280891660208401525086604083015260a060608301526200404a60a08301868862003fea565b82810360808401526200405f81858762003fea565b9a9950505050505050505050565b6000602082840312156200408057600080fd5b5051919050565b801515811462000dcd57600080fd5b600060208284031215620040a957600080fd5b81516200326c8162004087565b7f416363657373436f6e74726f6c3a206163636f756e7420000000000000000000815260008351620040f081601785016020880162003ed9565b7f206973206d697373696e6720726f6c652000000000000000000000000000000060179184019182015283516200412f81602884016020880162003ed9565b01602801949350505050565b634e487b7160e01b600052603160045260246000fd5b60008083357fffffffffffffffffffffffffffffffffffffffffffffffffffffffffffffffe18436030181126200418757600080fd5b830160208101925035905067ffffffffffffffff811115620041a857600080fd5b80360383131562003a7657600080fd5b803562003b238162004087565b6001600160a01b0385811682526020820185905283166040820152608060608201526000620041f5838062004151565b6101208060808601526200420f6101a08601838562003fea565b92506200421f6020870162003b16565b6001600160a01b03811660a087015291506200423e6040870162003b16565b6001600160a01b03811660c08701529150606086013560e0860152610100915060808601358286015260a0860135818601525060c085013561014085015260e085013561016085015262004294818601620041b8565b801515610180860152905062003cc2565b60008060008060008060c08789031215620042bf57600080fd5b865195506020870151945060408701519350606087015192506080870151915060a087015190509295509295509295565b60008160001904831182151516156200430d576200430d62003f6b565b500290565b60008162004324576200432462003f6b565b506000190190565b600082516200434081846020870162003ed9565b9190910192915050565b828152600082516200436481602085016020870162003ed9565b919091016020019392505050565b6001600160a01b038316815260406020820152600062004396604083018462003f08565b94935050505056fe608060405260405161081038038061081083398101604081905261002291610337565b61004d60017f360894a13ba1a3210667c828492db98dca3e2076cc3735a920a3ca505d382bbd610405565b6000805160206107c9833981519152146100695761006961042a565b6100758282600061007c565b505061048f565b610085836100b2565b6000825111806100925750805b156100ad576100ab83836100f260201b6100291760201c565b505b505050565b6100bb8161011e565b6040516001600160a01b038216907fbc7cd75a20ee27fd9adebab32041f755214dbc6bffa90cc0225b39da2e5c2d3b90600090a250565b606061011783836040518060600160405280602781526020016107e9602791396101de565b9392505050565b610131816102b360201b6100551760201c565b6101985760405162461bcd60e51b815260206004820152602d60248201527f455243313936373a206e657720696d706c656d656e746174696f6e206973206e60448201526c1bdd08184818dbdb9d1c9858dd609a1b60648201526084015b60405180910390fd5b806101bd6000805160206107c983398151915260001b6102b960201b61005b1760201c565b80546001600160a01b0319166001600160a01b039290921691909117905550565b6060833b61023d5760405162461bcd60e51b815260206004820152602660248201527f416464726573733a2064656c65676174652063616c6c20746f206e6f6e2d636f6044820152651b9d1c9858dd60d21b606482015260840161018f565b600080856001600160a01b0316856040516102589190610440565b600060405180830381855af49150503d8060008114610293576040519150601f19603f3d011682016040523d82523d6000602084013e610298565b606091505b5090925090506102a98282866102bc565b9695505050505050565b3b151590565b90565b606083156102cb575081610117565b8251156102db5782518084602001fd5b8160405162461bcd60e51b815260040161018f919061045c565b634e487b7160e01b600052604160045260246000fd5b60005b8381101561032657818101518382015260200161030e565b838111156100ab5750506000910152565b6000806040838503121561034a57600080fd5b82516001600160a01b038116811461036157600080fd5b60208401519092506001600160401b038082111561037e57600080fd5b818501915085601f83011261039257600080fd5b8151818111156103a4576103a46102f5565b604051601f8201601f19908116603f011681019083821181831017156103cc576103cc6102f5565b816040528281528860208487010111156103e557600080fd5b6103f683602083016020880161030b565b80955050505050509250929050565b60008282101561042557634e487b7160e01b600052601160045260246000fd5b500390565b634e487b7160e01b600052600160045260246000fd5b6000825161045281846020870161030b565b9190910192915050565b602081526000825180602084015261047b81604085016020870161030b565b601f01601f19169190910160400192915050565b61032b8061049e6000396000f3fe60806040523661001357610011610017565b005b6100115b61002761002261005e565b6100a3565b565b606061004e83836040518060600160405280602781526020016102cf602791396100c7565b9392505050565b3b151590565b90565b600061009e7f360894a13ba1a3210667c828492db98dca3e2076cc3735a920a3ca505d382bbc5473ffffffffffffffffffffffffffffffffffffffff1690565b905090565b3660008037600080366000845af43d6000803e8080156100c2573d6000f35b3d6000fd5b6060833b61015c576040517f08c379a000000000000000000000000000000000000000000000000000000000815260206004820152602660248201527f416464726573733a2064656c65676174652063616c6c20746f206e6f6e2d636f60448201527f6e7472616374000000000000000000000000000000000000000000000000000060648201526084015b60405180910390fd5b6000808573ffffffffffffffffffffffffffffffffffffffff16856040516101849190610261565b600060405180830381855af49150503d80600081146101bf576040519150601f19603f3d011682016040523d82523d6000602084013e6101c4565b606091505b50915091506101d48282866101de565b9695505050505050565b606083156101ed57508161004e565b8251156101fd5782518084602001fd5b816040517f08c379a0000000000000000000000000000000000000000000000000000000008152600401610153919061027d565b60005b8381101561024c578181015183820152602001610234565b8381111561025b576000848401525b50505050565b60008251610273818460208701610231565b9190910192915050565b602081526000825180602084015261029c816040850160208701610231565b601f017fffffffffffffffffffffffffffffffffffffffffffffffffffffffffffffffe016919091016040019291505056fe416464726573733a206c6f772d6c6576656c2064656c65676174652063616c6c206661696c6564a26469706673582212205d8cf11d25035ee7e8de4d55415591edecec71b825efdb63cab90b96322ff76364736f6c634300080b0033360894a13ba1a3210667c828492db98dca3e2076cc3735a920a3ca505d382bbc416464726573733a206c6f772d6c6576656c2064656c65676174652063616c6c206661696c6564416464726573733a206c6f772d6c6576656c2064656c65676174652063616c6c206661696c6564a26469706673582212207babcd320a88c8454c7994dee5608dabf877abc2b30ad17f695d2c55b827543e64736f6c634300080b0033",
  "linkReferences": {},
  "deployedLinkReferences": {}
}