{
  "_format": "hh-sol-artifact-1",
  "contractName": "EtherZDAO",
  "sourceName": "contracts/ethereum/EtherZDAO.sol",
  "abi": [
    {
      "anonymous": false,
      "inputs": [
        {
          "indexed": false,
          "internalType": "address",
          "name": "previousAdmin",
          "type": "address"
        },
        {
          "indexed": false,
          "internalType": "address",
          "name": "newAdmin",
          "type": "address"
        }
      ],
      "name": "AdminChanged",
      "type": "event"
    },
    {
      "anonymous": false,
      "inputs": [
        {
          "indexed": true,
          "internalType": "address",
          "name": "beacon",
          "type": "address"
        }
      ],
      "name": "BeaconUpgraded",
      "type": "event"
    },
    {
      "anonymous": false,
      "inputs": [
        {
          "indexed": true,
          "internalType": "address",
          "name": "previousOwner",
          "type": "address"
        },
        {
          "indexed": true,
          "internalType": "address",
          "name": "newOwner",
          "type": "address"
        }
      ],
      "name": "OwnershipTransferred",
      "type": "event"
    },
    {
      "anonymous": false,
      "inputs": [
        {
          "indexed": false,
          "internalType": "address",
          "name": "account",
          "type": "address"
        }
      ],
      "name": "Paused",
      "type": "event"
    },
    {
      "anonymous": false,
      "inputs": [
        {
          "indexed": true,
          "internalType": "bytes32",
          "name": "role",
          "type": "bytes32"
        },
        {
          "indexed": true,
          "internalType": "bytes32",
          "name": "previousAdminRole",
          "type": "bytes32"
        },
        {
          "indexed": true,
          "internalType": "bytes32",
          "name": "newAdminRole",
          "type": "bytes32"
        }
      ],
      "name": "RoleAdminChanged",
      "type": "event"
    },
    {
      "anonymous": false,
      "inputs": [
        {
          "indexed": true,
          "internalType": "bytes32",
          "name": "role",
          "type": "bytes32"
        },
        {
          "indexed": true,
          "internalType": "address",
          "name": "account",
          "type": "address"
        },
        {
          "indexed": true,
          "internalType": "address",
          "name": "sender",
          "type": "address"
        }
      ],
      "name": "RoleGranted",
      "type": "event"
    },
    {
      "anonymous": false,
      "inputs": [
        {
          "indexed": true,
          "internalType": "bytes32",
          "name": "role",
          "type": "bytes32"
        },
        {
          "indexed": true,
          "internalType": "address",
          "name": "account",
          "type": "address"
        },
        {
          "indexed": true,
          "internalType": "address",
          "name": "sender",
          "type": "address"
        }
      ],
      "name": "RoleRevoked",
      "type": "event"
    },
    {
      "anonymous": false,
      "inputs": [
        {
          "indexed": false,
          "internalType": "address",
          "name": "account",
          "type": "address"
        }
      ],
      "name": "Unpaused",
      "type": "event"
    },
    {
      "anonymous": false,
      "inputs": [
        {
          "indexed": true,
          "internalType": "address",
          "name": "implementation",
          "type": "address"
        }
      ],
      "name": "Upgraded",
      "type": "event"
    },
    {
      "inputs": [],
      "name": "DEFAULT_ADMIN_ROLE",
      "outputs": [
        {
          "internalType": "bytes32",
          "name": "",
          "type": "bytes32"
        }
      ],
      "stateMutability": "view",
      "type": "function"
    },
    {
      "inputs": [
        {
          "internalType": "address",
          "name": "_zDAOChef",
          "type": "address"
        },
        {
          "internalType": "uint256",
          "name": "_zDAOId",
          "type": "uint256"
        },
        {
          "internalType": "address",
          "name": "_createdBy",
          "type": "address"
        },
        {
          "components": [
            {
              "internalType": "string",
              "name": "title",
              "type": "string"
            },
            {
              "internalType": "address",
              "name": "gnosisSafe",
              "type": "address"
            },
            {
              "internalType": "address",
              "name": "token",
              "type": "address"
            },
            {
              "internalType": "uint256",
              "name": "amount",
              "type": "uint256"
            },
            {
              "internalType": "bool",
              "name": "isRelativeMajority",
              "type": "bool"
            },
            {
              "internalType": "uint256",
              "name": "quorumVotes",
              "type": "uint256"
            }
          ],
          "internalType": "struct IEtherZDAOChef.ZDAOConfig",
          "name": "_zDAOConfig",
          "type": "tuple"
        }
      ],
      "name": "__ZDAO_init",
      "outputs": [],
      "stateMutability": "nonpayable",
      "type": "function"
    },
    {
      "inputs": [
        {
          "internalType": "address",
          "name": "",
          "type": "address"
        },
        {
          "internalType": "uint256",
          "name": "_proposalId",
          "type": "uint256"
        }
      ],
      "name": "cancelProposal",
      "outputs": [],
      "stateMutability": "nonpayable",
      "type": "function"
    },
    {
      "inputs": [
        {
          "internalType": "address",
          "name": "_createdBy",
          "type": "address"
        },
        {
          "internalType": "uint256",
          "name": "_duration",
          "type": "uint256"
        },
        {
          "internalType": "address",
          "name": "_target",
          "type": "address"
        },
        {
          "internalType": "uint256",
          "name": "_value",
          "type": "uint256"
        },
        {
          "internalType": "bytes",
          "name": "_data",
          "type": "bytes"
        },
        {
          "internalType": "string",
          "name": "_ipfs",
          "type": "string"
        }
      ],
      "name": "createProposal",
      "outputs": [
        {
          "internalType": "uint256",
          "name": "",
          "type": "uint256"
        }
      ],
      "stateMutability": "nonpayable",
      "type": "function"
    },
    {
      "inputs": [],
      "name": "destroyed",
      "outputs": [
        {
          "internalType": "bool",
          "name": "",
          "type": "bool"
        }
      ],
      "stateMutability": "view",
      "type": "function"
    },
    {
      "inputs": [
        {
          "internalType": "address",
          "name": "_executeBy",
          "type": "address"
        },
        {
          "internalType": "uint256",
          "name": "_proposalId",
          "type": "uint256"
        }
      ],
      "name": "executeProposal",
      "outputs": [],
      "stateMutability": "nonpayable",
      "type": "function"
    },
    {
      "inputs": [
        {
          "internalType": "bytes32",
          "name": "role",
          "type": "bytes32"
        }
      ],
      "name": "getRoleAdmin",
      "outputs": [
        {
          "internalType": "bytes32",
          "name": "",
          "type": "bytes32"
        }
      ],
      "stateMutability": "view",
      "type": "function"
    },
    {
      "inputs": [
        {
          "internalType": "bytes32",
          "name": "role",
          "type": "bytes32"
        },
        {
          "internalType": "address",
          "name": "account",
          "type": "address"
        }
      ],
      "name": "grantRole",
      "outputs": [],
      "stateMutability": "nonpayable",
      "type": "function"
    },
    {
      "inputs": [
        {
          "internalType": "bytes32",
          "name": "role",
          "type": "bytes32"
        },
        {
          "internalType": "address",
          "name": "account",
          "type": "address"
        }
      ],
      "name": "hasRole",
      "outputs": [
        {
          "internalType": "bool",
          "name": "",
          "type": "bool"
        }
      ],
      "stateMutability": "view",
      "type": "function"
    },
    {
      "inputs": [],
      "name": "lastProposalId",
      "outputs": [
        {
          "internalType": "uint256",
          "name": "",
          "type": "uint256"
        }
      ],
      "stateMutability": "view",
      "type": "function"
    },
    {
      "inputs": [
        {
          "internalType": "uint256",
          "name": "_startIndex",
          "type": "uint256"
        },
        {
          "internalType": "uint256",
          "name": "_endIndex",
          "type": "uint256"
        }
      ],
      "name": "listProposals",
      "outputs": [
        {
          "components": [
            {
              "internalType": "uint256",
              "name": "proposalId",
              "type": "uint256"
            },
            {
              "internalType": "address",
              "name": "createdBy",
              "type": "address"
            },
            {
              "internalType": "uint256",
              "name": "duration",
              "type": "uint256"
            },
            {
              "internalType": "uint256",
              "name": "yes",
              "type": "uint256"
            },
            {
              "internalType": "uint256",
              "name": "no",
              "type": "uint256"
            },
            {
              "internalType": "uint256",
              "name": "reserved",
              "type": "uint256"
            },
            {
              "internalType": "string",
              "name": "ipfs",
              "type": "string"
            },
            {
              "internalType": "address",
              "name": "target",
              "type": "address"
            },
            {
              "internalType": "uint256",
              "name": "value",
              "type": "uint256"
            },
            {
              "internalType": "bytes",
              "name": "data",
              "type": "bytes"
            },
            {
              "internalType": "uint256",
              "name": "snapshot",
              "type": "uint256"
            },
            {
              "internalType": "bool",
              "name": "executed",
              "type": "bool"
            },
            {
              "internalType": "bool",
              "name": "canceled",
              "type": "bool"
            }
          ],
          "internalType": "struct IEtherZDAO.Proposal[]",
          "name": "",
          "type": "tuple[]"
        }
      ],
      "stateMutability": "view",
      "type": "function"
    },
    {
      "inputs": [],
      "name": "numberOfProposals",
      "outputs": [
        {
          "internalType": "uint256",
          "name": "",
          "type": "uint256"
        }
      ],
      "stateMutability": "view",
      "type": "function"
    },
    {
      "inputs": [],
      "name": "owner",
      "outputs": [
        {
          "internalType": "address",
          "name": "",
          "type": "address"
        }
      ],
      "stateMutability": "view",
      "type": "function"
    },
    {
      "inputs": [],
      "name": "paused",
      "outputs": [
        {
          "internalType": "bool",
          "name": "",
          "type": "bool"
        }
      ],
      "stateMutability": "view",
      "type": "function"
    },
    {
      "inputs": [
        {
          "internalType": "uint256",
          "name": "",
          "type": "uint256"
        }
      ],
      "name": "proposalIds",
      "outputs": [
        {
          "internalType": "uint256",
          "name": "",
          "type": "uint256"
        }
      ],
      "stateMutability": "view",
      "type": "function"
    },
    {
      "inputs": [
        {
          "internalType": "uint256",
          "name": "",
          "type": "uint256"
        }
      ],
      "name": "proposals",
      "outputs": [
        {
          "internalType": "uint256",
          "name": "proposalId",
          "type": "uint256"
        },
        {
          "internalType": "address",
          "name": "createdBy",
          "type": "address"
        },
        {
          "internalType": "uint256",
          "name": "duration",
          "type": "uint256"
        },
        {
          "internalType": "uint256",
          "name": "yes",
          "type": "uint256"
        },
        {
          "internalType": "uint256",
          "name": "no",
          "type": "uint256"
        },
        {
          "internalType": "uint256",
          "name": "reserved",
          "type": "uint256"
        },
        {
          "internalType": "string",
          "name": "ipfs",
          "type": "string"
        },
        {
          "internalType": "address",
          "name": "target",
          "type": "address"
        },
        {
          "internalType": "uint256",
          "name": "value",
          "type": "uint256"
        },
        {
          "internalType": "bytes",
          "name": "data",
          "type": "bytes"
        },
        {
          "internalType": "uint256",
          "name": "snapshot",
          "type": "uint256"
        },
        {
          "internalType": "bool",
          "name": "executed",
          "type": "bool"
        },
        {
          "internalType": "bool",
          "name": "canceled",
          "type": "bool"
        }
      ],
      "stateMutability": "view",
      "type": "function"
    },
    {
      "inputs": [],
      "name": "renounceOwnership",
      "outputs": [],
      "stateMutability": "nonpayable",
      "type": "function"
    },
    {
      "inputs": [
        {
          "internalType": "bytes32",
          "name": "role",
          "type": "bytes32"
        },
        {
          "internalType": "address",
          "name": "account",
          "type": "address"
        }
      ],
      "name": "renounceRole",
      "outputs": [],
      "stateMutability": "nonpayable",
      "type": "function"
    },
    {
      "inputs": [
        {
          "internalType": "bytes32",
          "name": "role",
          "type": "bytes32"
        },
        {
          "internalType": "address",
          "name": "account",
          "type": "address"
        }
      ],
      "name": "revokeRole",
      "outputs": [],
      "stateMutability": "nonpayable",
      "type": "function"
    },
    {
      "inputs": [
        {
          "internalType": "bool",
          "name": "_destroyed",
          "type": "bool"
        }
      ],
      "name": "setDestroyed",
      "outputs": [],
      "stateMutability": "nonpayable",
      "type": "function"
    },
    {
      "inputs": [
        {
          "internalType": "address",
          "name": "_gnosisSafe",
          "type": "address"
        }
      ],
      "name": "setGnosisSafe",
      "outputs": [],
      "stateMutability": "nonpayable",
      "type": "function"
    },
    {
      "inputs": [
        {
          "internalType": "uint256",
          "name": "_proposalId",
          "type": "uint256"
        },
        {
          "internalType": "uint256",
          "name": "_yes",
          "type": "uint256"
        },
        {
          "internalType": "uint256",
          "name": "_no",
          "type": "uint256"
        }
      ],
      "name": "setVoteResult",
      "outputs": [],
      "stateMutability": "nonpayable",
      "type": "function"
    },
    {
      "inputs": [
        {
          "internalType": "address",
          "name": "_token",
          "type": "address"
        },
        {
          "internalType": "uint256",
          "name": "_amount",
          "type": "uint256"
        }
      ],
      "name": "setVotingToken",
      "outputs": [],
      "stateMutability": "nonpayable",
      "type": "function"
    },
    {
      "inputs": [
        {
          "internalType": "uint256",
          "name": "_proposalId",
          "type": "uint256"
        }
      ],
      "name": "state",
      "outputs": [
        {
          "internalType": "enum IEtherZDAO.ProposalState",
          "name": "",
          "type": "uint8"
        }
      ],
      "stateMutability": "view",
      "type": "function"
    },
    {
      "inputs": [
        {
          "internalType": "bytes4",
          "name": "interfaceId",
          "type": "bytes4"
        }
      ],
      "name": "supportsInterface",
      "outputs": [
        {
          "internalType": "bool",
          "name": "",
          "type": "bool"
        }
      ],
      "stateMutability": "view",
      "type": "function"
    },
    {
      "inputs": [
        {
          "internalType": "address",
          "name": "newOwner",
          "type": "address"
        }
      ],
      "name": "transferOwnership",
      "outputs": [],
      "stateMutability": "nonpayable",
      "type": "function"
    },
    {
      "inputs": [
        {
          "internalType": "address",
          "name": "newImplementation",
          "type": "address"
        }
      ],
      "name": "upgradeTo",
      "outputs": [],
      "stateMutability": "nonpayable",
      "type": "function"
    },
    {
      "inputs": [
        {
          "internalType": "address",
          "name": "newImplementation",
          "type": "address"
        },
        {
          "internalType": "bytes",
          "name": "data",
          "type": "bytes"
        }
      ],
      "name": "upgradeToAndCall",
      "outputs": [],
      "stateMutability": "payable",
      "type": "function"
    },
    {
      "inputs": [],
      "name": "version",
      "outputs": [
        {
          "internalType": "uint256",
          "name": "",
          "type": "uint256"
        }
      ],
      "stateMutability": "view",
      "type": "function"
    },
    {
      "inputs": [],
      "name": "zDAOChef",
      "outputs": [
        {
          "internalType": "address",
          "name": "",
          "type": "address"
        }
      ],
      "stateMutability": "view",
      "type": "function"
    },
    {
      "inputs": [],
      "name": "zDAOInfo",
      "outputs": [
        {
          "internalType": "uint256",
          "name": "zDAOId",
          "type": "uint256"
        },
        {
          "internalType": "string",
          "name": "title",
          "type": "string"
        },
        {
          "internalType": "address",
          "name": "createdBy",
          "type": "address"
        },
        {
          "internalType": "address",
          "name": "gnosisSafe",
          "type": "address"
        },
        {
          "internalType": "address",
          "name": "token",
          "type": "address"
        },
        {
          "internalType": "uint256",
          "name": "amount",
          "type": "uint256"
        },
        {
          "internalType": "bool",
          "name": "isRelativeMajority",
          "type": "bool"
        },
        {
          "internalType": "uint256",
          "name": "quorumVotes",
          "type": "uint256"
        },
        {
          "internalType": "uint256",
          "name": "snapshot",
          "type": "uint256"
        },
        {
          "internalType": "bool",
          "name": "destroyed",
          "type": "bool"
        }
      ],
      "stateMutability": "view",
      "type": "function"
    },
    {
      "inputs": [],
      "name": "zDAOOwner",
      "outputs": [
        {
          "internalType": "address",
          "name": "",
          "type": "address"
        }
      ],
      "stateMutability": "view",
      "type": "function"
    }
  ],
  "bytecode": "0x60a06040523060805234801561001457600080fd5b50608051613abc61004560003960008181610c0d01528181610ca301528181610f040152610f9a0152613abc6000f3fe6080604052600436106101e35760003560e01c8063715018a6116101025780639b644a2311610095578063c3085a3e11610064578063c3085a3e146105be578063d547741f146105de578063d8191e6c146105fe578063f2fde38b1461062957600080fd5b80639b644a2314610549578063a217fddf14610569578063b43ddd871461057e578063bfc426451461059e57600080fd5b80638da5cb5b116100d15780638da5cb5b146104a457806390bfeab3146104c257806391d14854146104e35780639b30678e1461052957600080fd5b8063715018a61461043557806374cb30411461044a5780637f6dda14146104615780638d7af4731461048e57600080fd5b806336568abe1161017a5780634f1ef286116101495780634f1ef286146103d357806353350755146103e657806354fd4d50146104065780635c975abb1461041d57600080fd5b806336568abe146103465780633659cfe6146103665780633e4f49e614610386578063472858b4146103b357600080fd5b806320598ae4116101b657806320598ae4146102af578063248a9ca3146102cf5780632f2ff15d1461030d578063359cbbc91461032d57600080fd5b8063013cf08b146101e857806301ffc9a71461022a578063116b1a091461025a578063137f415b1461028d575b600080fd5b3480156101f457600080fd5b5061020861020336600461311c565b610649565b6040516102219d9c9b9a99989796959493929190613191565b60405180910390f35b34801561023657600080fd5b5061024a61024536600461322b565b6107dc565b6040519015158152602001610221565b34801561026657600080fd5b50610194546001600160a01b03165b6040516001600160a01b039091168152602001610221565b34801561029957600080fd5b506102ad6102a8366004613289565b610875565b005b3480156102bb57600080fd5b506102ad6102ca3660046132b3565b6108fb565b3480156102db57600080fd5b506102ff6102ea36600461311c565b60009081526097602052604090206001015490565b604051908152602001610221565b34801561031957600080fd5b506102ad6103283660046132df565b610b4b565b34801561033957600080fd5b5061019b5460ff1661024a565b34801561035257600080fd5b506102ad6103613660046132df565b610b76565b34801561037257600080fd5b506102ad61038136600461330b565b610c02565b34801561039257600080fd5b506103a66103a136600461311c565b610da0565b604051610221919061333c565b3480156103bf57600080fd5b506102ad6103ce366004613364565b610e99565b6102ad6103e136600461339c565b610ef9565b3480156103f257600080fd5b506102ad610401366004613289565b611084565b34801561041257600080fd5b506102ff6101915481565b34801561042957600080fd5b5060fb5460ff1661024a565b34801561044157600080fd5b506102ad6112bf565b34801561045657600080fd5b506102ff61019c5481565b34801561046d57600080fd5b5061048161047c36600461345e565b611325565b6040516102219190613480565b34801561049a57600080fd5b5061019c546102ff565b3480156104b057600080fd5b506033546001600160a01b0316610275565b3480156104ce57600080fd5b5061019f54610275906001600160a01b031681565b3480156104ef57600080fd5b5061024a6104fe3660046132df565b60009182526097602090815260408084206001600160a01b0393909316845291905290205460ff1690565b34801561053557600080fd5b506102ad6105443660046135ce565b61177c565b34801561055557600080fd5b506102ff61056436600461311c565b611a2f565b34801561057557600080fd5b506102ff600081565b34801561058a57600080fd5b506102ff610599366004613684565b611a51565b3480156105aa57600080fd5b506102ad6105b9366004613289565b611c57565b3480156105ca57600080fd5b506102ad6105d936600461330b565b611ee0565b3480156105ea57600080fd5b506102ad6105f93660046132df565b611f5c565b34801561060a57600080fd5b50610613611f82565b6040516102219a99989796959493929190613728565b34801561063557600080fd5b506102ad61064436600461330b565b612064565b61019d60205260009081526040902080546001820154600283015460038401546004850154600586015460068701805496976001600160a01b0390961696949593949293919261069890613793565b80601f01602080910402602001604051908101604052809291908181526020018280546106c490613793565b80156107115780601f106106e657610100808354040283529160200191610711565b820191906000526020600020905b8154815290600101906020018083116106f457829003601f168201915b505050506007830154600884015460098501805494956001600160a01b03909316949193509061074090613793565b80601f016020809104026020016040519081016040528092919081815260200182805461076c90613793565b80156107b95780601f1061078e576101008083540402835291602001916107b9565b820191906000526020600020905b81548152906001019060200180831161079c57829003601f168201915b50505050600a830154600b9093015491929160ff8082169250610100909104168d565b60007fffffffff0000000000000000000000000000000000000000000000000000000082167f7965db0b00000000000000000000000000000000000000000000000000000000148061086f57507f01ffc9a7000000000000000000000000000000000000000000000000000000007fffffffff000000000000000000000000000000000000000000000000000000008316145b92915050565b61019f546001600160a01b031633146108c65760405162461bcd60e51b815260206004820152600e60248201526d2737ba1030902d2220a7a1b432b360911b60448201526064015b60405180910390fd5b610196805473ffffffffffffffffffffffffffffffffffffffff19166001600160a01b03939093169290921790915561019755565b61019f546001600160a01b031633146109475760405162461bcd60e51b815260206004820152600e60248201526d2737ba1030902d2220a7a1b432b360911b60448201526064016108bd565b8260008111801561095b575061019c548111155b6109965760405162461bcd60e51b815260206004820152600c60248201526b496e76616c6964207a44414f60a01b60448201526064016108bd565b600084815261019d60205260409020805485146109f55760405162461bcd60e51b815260206004820152601060248201527f496e76616c69642070726f706f73616c0000000000000000000000000000000060448201526064016108bd565b604051631f27a4f360e11b8152600481018690526000903090633e4f49e690602401602060405180830381865afa158015610a34573d6000803e3d6000fd5b505050506040513d601f19601f82011682018060405250810190610a5891906137c8565b90506003816005811115610a6e57610a6e613326565b1480610a8b57506004816005811115610a8957610a89613326565b145b610ad75760405162461bcd60e51b815260206004820152601b60248201527f4e6f742074696d6520746f2073657420766f746520726573756c74000000000060448201526064016108bd565b81600401548260030154610aeb91906137ff565b15610b385760405162461bcd60e51b815260206004820152601760248201527f416c72656164792073657420766f746520726573756c7400000000000000000060448201526064016108bd565b5060038101939093555060049091015550565b600082815260976020526040902060010154610b678133612143565b610b7183836121c3565b505050565b6001600160a01b0381163314610bf45760405162461bcd60e51b815260206004820152602f60248201527f416363657373436f6e74726f6c3a2063616e206f6e6c792072656e6f756e636560448201527f20726f6c657320666f722073656c66000000000000000000000000000000000060648201526084016108bd565b610bfe8282612265565b5050565b306001600160a01b037f0000000000000000000000000000000000000000000000000000000000000000161415610ca15760405162461bcd60e51b815260206004820152602c60248201527f46756e6374696f6e206d7573742062652063616c6c6564207468726f7567682060448201527f64656c656761746563616c6c000000000000000000000000000000000000000060648201526084016108bd565b7f00000000000000000000000000000000000000000000000000000000000000006001600160a01b0316610cfc7f360894a13ba1a3210667c828492db98dca3e2076cc3735a920a3ca505d382bbc546001600160a01b031690565b6001600160a01b031614610d785760405162461bcd60e51b815260206004820152602c60248201527f46756e6374696f6e206d7573742062652063616c6c6564207468726f7567682060448201527f6163746976652070726f7879000000000000000000000000000000000000000060648201526084016108bd565b610d81816122e8565b60408051600080825260208201909252610d9d91839190612342565b50565b600081600081118015610db6575061019c548111155b610df15760405162461bcd60e51b815260206004820152600c60248201526b496e76616c6964207a44414f60a01b60448201526064016108bd565b600083815261019d60205260409020600b810154610100900460ff1615610e1c576002925050610e93565b80600401548160030154111580610e395750610199546003820154105b15610e48576003925050610e93565b8060040154816003015410158015610e67575061019954600382015410155b15610e76576004925050610e93565b600b81015460ff1615610e8d576005925050610e93565b60009250505b50919050565b61019f546001600160a01b03163314610ee55760405162461bcd60e51b815260206004820152600e60248201526d2737ba1030902d2220a7a1b432b360911b60448201526064016108bd565b61019b805460ff1916911515919091179055565b306001600160a01b037f0000000000000000000000000000000000000000000000000000000000000000161415610f985760405162461bcd60e51b815260206004820152602c60248201527f46756e6374696f6e206d7573742062652063616c6c6564207468726f7567682060448201527f64656c656761746563616c6c000000000000000000000000000000000000000060648201526084016108bd565b7f00000000000000000000000000000000000000000000000000000000000000006001600160a01b0316610ff37f360894a13ba1a3210667c828492db98dca3e2076cc3735a920a3ca505d382bbc546001600160a01b031690565b6001600160a01b03161461106f5760405162461bcd60e51b815260206004820152602c60248201527f46756e6374696f6e206d7573742062652063616c6c6564207468726f7567682060448201527f6163746976652070726f7879000000000000000000000000000000000000000060648201526084016108bd565b611078826122e8565b610bfe82826001612342565b61019f546001600160a01b031633146110d05760405162461bcd60e51b815260206004820152600e60248201526d2737ba1030902d2220a7a1b432b360911b60448201526064016108bd565b61019b5460ff16156111245760405162461bcd60e51b815260206004820152601160248201527f416c72656164792064657374726f79656400000000000000000000000000000060448201526064016108bd565b80600081118015611138575061019c548111155b6111735760405162461bcd60e51b815260206004820152600c60248201526b496e76616c6964207a44414f60a01b60448201526064016108bd565b604051631f27a4f360e11b8152600481018390526000903090633e4f49e690602401602060405180830381865afa1580156111b2573d6000803e3d6000fd5b505050506040513d601f19601f820116820180604052508101906111d691906137c8565b905060058160058111156111ec576111ec613326565b141561123a5760405162461bcd60e51b815260206004820181905260248201527f43616e206e6f742063616e63656c2065786563757465642070726f706f73616c60448201526064016108bd565b600081600581111561124e5761124e613326565b1461129b5760405162461bcd60e51b815260206004820152601660248201527f4e6f7420612070656e64696e672070726f706f73616c0000000000000000000060448201526064016108bd565b5050600090815261019d60205260409020600b01805461ff00191661010017905550565b6033546001600160a01b031633146113195760405162461bcd60e51b815260206004820181905260248201527f4f776e61626c653a2063616c6c6572206973206e6f7420746865206f776e657260448201526064016108bd565b61132360006124ff565b565b6060600083116113775760405162461bcd60e51b815260206004820152601660248201527f73686f756c6420737461727420696e646578203e20300000000000000000000060448201526064016108bd565b818311156113c75760405162461bcd60e51b815260206004820152601960248201527f73686f756c6420737461727420696e646578203c3d20656e640000000000000060448201526064016108bd565b61019c5483111561141a5760405162461bcd60e51b815260206004820152601c60248201527f73686f756c6420737461727420696e646578203c3d206c656e6774680000000060448201526064016108bd565b61019c5482111561146d5760405162461bcd60e51b815260206004820152601a60248201527f73686f756c6420656e6420696e646578203c3d206c656e67746800000000000060448201526064016108bd565b60006114798484613817565b6114849060016137ff565b905060008167ffffffffffffffff8111156114a1576114a1613386565b60405190808252806020026020018201604052801561155357816020015b611540604051806101a001604052806000815260200160006001600160a01b03168152602001600081526020016000815260200160008152602001600081526020016060815260200160006001600160a01b031681526020016000815260200160608152602001600081526020016000151581526020016000151581525090565b8152602001906001900390816114bf5790505b50905060005b828110156117735761019d600061157083896137ff565b8152602080820192909252604090810160002081516101a0810183528154815260018201546001600160a01b0316938101939093526002810154918301919091526003810154606083015260048101546080830152600581015460a083015260068101805460c0840191906115e490613793565b80601f016020809104026020016040519081016040528092919081815260200182805461161090613793565b801561165d5780601f106116325761010080835404028352916020019161165d565b820191906000526020600020905b81548152906001019060200180831161164057829003601f168201915b505050918352505060078201546001600160a01b031660208201526008820154604082015260098201805460609092019161169790613793565b80601f01602080910402602001604051908101604052809291908181526020018280546116c390613793565b80156117105780601f106116e557610100808354040283529160200191611710565b820191906000526020600020905b8154815290600101906020018083116116f357829003601f168201915b5050509183525050600a8201546020820152600b9091015460ff8082161515604084015261010090910416151560609091015282518390839081106117575761175761382e565b60200260200101819052508061176c90613844565b9050611559565b50949350505050565b600054610100900460ff166117975760005460ff161561179b565b303b155b61180d5760405162461bcd60e51b815260206004820152602e60248201527f496e697469616c697a61626c653a20636f6e747261637420697320616c72656160448201527f647920696e697469616c697a656400000000000000000000000000000000000060648201526084016108bd565b600054610100900460ff1615801561182f576000805461ffff19166101011790555b61183761255e565b61019f805473ffffffffffffffffffffffffffffffffffffffff19166001600160a01b0387161790556040805161014081019091528481526020810161187d848061385f565b8080601f0160208091040260200160405190810160405280939291908181526020018383808284376000920191909152505050908252506001600160a01b0385166020808301919091526040918201916118dc9190860190860161330b565b6001600160a01b031681526020016118fa606085016040860161330b565b6001600160a01b031681526060840135602082015260400161192260a0850160808601613364565b151581526020018360a00135815260200143815260200160001515815250610192600082015181600001556020820151816001019080519060200190611969929190613083565b5060408201516002820180546001600160a01b0392831673ffffffffffffffffffffffffffffffffffffffff19918216179091556060840151600384018054918416918316919091179055608084015160048401805491909316911617905560a0820151600582015560c082015160068201805491151560ff1992831617905560e0830151600783015561010083015160088301556101209092015160099091018054911515919092161790558015611a28576000805461ff00191690555b5050505050565b61019e8181548110611a4057600080fd5b600091825260209091200154905081565b61019f546000906001600160a01b03163314611aa05760405162461bcd60e51b815260206004820152600e60248201526d2737ba1030902d2220a7a1b432b360911b60448201526064016108bd565b61019b5460ff1615611af45760405162461bcd60e51b815260206004820152601160248201527f416c72656164792064657374726f79656400000000000000000000000000000060448201526064016108bd565b61019754610196546040517f70a082310000000000000000000000000000000000000000000000000000000081526001600160a01b03808d1660048301528c939216906370a0823190602401602060405180830381865afa158015611b5d573d6000803e3d6000fd5b505050506040513d601f19601f82011682018060405250810190611b8191906138c4565b1015611bcf5760405162461bcd60e51b815260206004820152601860248201527f4e6f7420612076616c696420746f6b656e20686f6c646572000000000000000060448201526064016108bd565b6000611c488b8b8b8b8b8b8080601f01602080910402602001604051908101604052809392919081815260200183838082843760009201919091525050604080516020601f8f018190048102820181019092528d815292508d91508c90819084018382808284376000920191909152506125f992505050565b9b9a5050505050505050505050565b61019f546001600160a01b03163314611ca35760405162461bcd60e51b815260206004820152600e60248201526d2737ba1030902d2220a7a1b432b360911b60448201526064016108bd565b61019b5460ff1615611cf75760405162461bcd60e51b815260206004820152601160248201527f416c72656164792064657374726f79656400000000000000000000000000000060448201526064016108bd565b80600081118015611d0b575061019c548111155b611d465760405162461bcd60e51b815260206004820152600c60248201526b496e76616c6964207a44414f60a01b60448201526064016108bd565b604051631f27a4f360e11b8152600481018390526000903090633e4f49e690602401602060405180830381865afa158015611d85573d6000803e3d6000fd5b505050506040513d601f19601f82011682018060405250810190611da991906137c8565b90506004816005811115611dbf57611dbf613326565b14611e0c5760405162461bcd60e51b815260206004820152601860248201527f4e6f742061207375636365656465642070726f706f73616c000000000000000060448201526064016108bd565b600083815261019d60205260408082206007810154600882015492519193926001600160a01b0390911691611e459060098601906138dd565b60006040518083038185875af1925050503d8060008114611e82576040519150601f19603f3d011682016040523d82523d6000602084013e611e87565b606091505b5050905080611ed85760405162461bcd60e51b815260206004820152601e60248201527f457865637574696f6e207472616e73616374696f6e207265766572746564000060448201526064016108bd565b505050505050565b61019f546001600160a01b03163314611f2c5760405162461bcd60e51b815260206004820152600e60248201526d2737ba1030902d2220a7a1b432b360911b60448201526064016108bd565b610195805473ffffffffffffffffffffffffffffffffffffffff19166001600160a01b0392909216919091179055565b600082815260976020526040902060010154611f788133612143565b610b718383612265565b61019280546101938054919291611f9890613793565b80601f0160208091040260200160405190810160405280929190818152602001828054611fc490613793565b80156120115780601f10611fe657610100808354040283529160200191612011565b820191906000526020600020905b815481529060010190602001808311611ff457829003601f168201915b50505050600283015460038401546004850154600586015460068701546007880154600889015460099099015497986001600160a01b039687169895871697509590931694919360ff918216939291168a565b6033546001600160a01b031633146120be5760405162461bcd60e51b815260206004820181905260248201527f4f776e61626c653a2063616c6c6572206973206e6f7420746865206f776e657260448201526064016108bd565b6001600160a01b03811661213a5760405162461bcd60e51b815260206004820152602660248201527f4f776e61626c653a206e6577206f776e657220697320746865207a65726f206160448201527f646472657373000000000000000000000000000000000000000000000000000060648201526084016108bd565b610d9d816124ff565b60008281526097602090815260408083206001600160a01b038516845290915290205460ff16610bfe57612181816001600160a01b031660146127f7565b61218c8360206127f7565b60405160200161219d929190613979565b60408051601f198184030181529082905262461bcd60e51b82526108bd916004016139fa565b60008281526097602090815260408083206001600160a01b038516845290915290205460ff16610bfe5760008281526097602090815260408083206001600160a01b03851684529091529020805460ff191660011790556122213390565b6001600160a01b0316816001600160a01b0316837f2f8788117e7eff1d82e926ec794901d17c78024a50270940304540a733656f0d60405160405180910390a45050565b60008281526097602090815260408083206001600160a01b038516845290915290205460ff1615610bfe5760008281526097602090815260408083206001600160a01b0385168085529252808320805460ff1916905551339285917ff6391f5c32d9c69d2a47ea670b442974b53935d1edc7fd64eb21e047a839171b9190a45050565b6033546001600160a01b03163314610d9d5760405162461bcd60e51b815260206004820181905260248201527f4f776e61626c653a2063616c6c6572206973206e6f7420746865206f776e657260448201526064016108bd565b60006123757f360894a13ba1a3210667c828492db98dca3e2076cc3735a920a3ca505d382bbc546001600160a01b031690565b905061238084612a27565b60008351118061238d5750815b1561239e5761239c8484612ae9565b505b7f4910fdfa16fed3260ed0e7147f7cc6da11a60208b5b9406d12a635614ffd9143805460ff16611a2857805460ff191660011781556040516001600160a01b038316602482015261244b90869060440160408051601f198184030181529190526020810180517bffffffffffffffffffffffffffffffffffffffffffffffffffffffff167f3659cfe600000000000000000000000000000000000000000000000000000000179052612ae9565b50805460ff191681557f360894a13ba1a3210667c828492db98dca3e2076cc3735a920a3ca505d382bbc546001600160a01b038381169116146124f65760405162461bcd60e51b815260206004820152602f60248201527f45524331393637557067726164653a207570677261646520627265616b73206660448201527f757274686572207570677261646573000000000000000000000000000000000060648201526084016108bd565b611a2885612beb565b603380546001600160a01b0383811673ffffffffffffffffffffffffffffffffffffffff19831681179093556040519116919082907f8be0079c531659141344cd1fd0a4f28419497f9722a3daafe3b4186f6b6457e090600090a35050565b600054610100900460ff166125c95760405162461bcd60e51b815260206004820152602b60248201527f496e697469616c697a61626c653a20636f6e7472616374206973206e6f74206960448201526a6e697469616c697a696e6760a81b60648201526084016108bd565b6125d1612c2b565b6125d9612ca6565b6125e1612d29565b6125e9612d9c565b6125f1612e17565b600161019155565b61019c80546000918261260b83613844565b9190505550604051806101a0016040528061019c548152602001886001600160a01b03168152602001878152602001600081526020016000815260200160008152602001838152602001866001600160a01b031681526020018581526020018481526020014381526020016000151581526020016000151581525061019d600061019c5481526020019081526020016000206000820151816000015560208201518160010160006101000a8154816001600160a01b0302191690836001600160a01b0316021790555060408201518160020155606082015181600301556080820151816004015560a0820151816005015560c0820151816006019080519060200190612718929190613083565b5060e082015160078201805473ffffffffffffffffffffffffffffffffffffffff19166001600160a01b0390921691909117905561010082015160088201556101208201518051612773916009840191602090910190613083565b50610140820151600a820155610160820151600b90910180546101809093015115156101000261ff00199215159290921661ffff19909316929092171790555061019c5461019e80546001810182556000919091527fe182ec4162b2bb087af6d462e45917a32b2b0170bcaf1db406b2ae4590b6953b018190559695505050505050565b60606000612806836002613a0d565b6128119060026137ff565b67ffffffffffffffff81111561282957612829613386565b6040519080825280601f01601f191660200182016040528015612853576020820181803683370190505b5090507f30000000000000000000000000000000000000000000000000000000000000008160008151811061288a5761288a61382e565b60200101907effffffffffffffffffffffffffffffffffffffffffffffffffffffffffffff1916908160001a9053507f7800000000000000000000000000000000000000000000000000000000000000816001815181106128ed576128ed61382e565b60200101907effffffffffffffffffffffffffffffffffffffffffffffffffffffffffffff1916908160001a9053506000612929846002613a0d565b6129349060016137ff565b90505b60018111156129d1577f303132333435363738396162636465660000000000000000000000000000000085600f16601081106129755761297561382e565b1a60f81b82828151811061298b5761298b61382e565b60200101907effffffffffffffffffffffffffffffffffffffffffffffffffffffffffffff1916908160001a90535060049490941c936129ca81613a2c565b9050612937565b508315612a205760405162461bcd60e51b815260206004820181905260248201527f537472696e67733a20686578206c656e67746820696e73756666696369656e7460448201526064016108bd565b9392505050565b803b612a9b5760405162461bcd60e51b815260206004820152602d60248201527f455243313936373a206e657720696d706c656d656e746174696f6e206973206e60448201527f6f74206120636f6e74726163740000000000000000000000000000000000000060648201526084016108bd565b7f360894a13ba1a3210667c828492db98dca3e2076cc3735a920a3ca505d382bbc805473ffffffffffffffffffffffffffffffffffffffff19166001600160a01b0392909216919091179055565b6060823b612b5f5760405162461bcd60e51b815260206004820152602660248201527f416464726573733a2064656c65676174652063616c6c20746f206e6f6e2d636f60448201527f6e7472616374000000000000000000000000000000000000000000000000000060648201526084016108bd565b600080846001600160a01b031684604051612b7a9190613a43565b600060405180830381855af49150503d8060008114612bb5576040519150601f19603f3d011682016040523d82523d6000602084013e612bba565b606091505b5091509150612be28282604051806060016040528060278152602001613a6060279139612e82565b95945050505050565b612bf481612a27565b6040516001600160a01b038216907fbc7cd75a20ee27fd9adebab32041f755214dbc6bffa90cc0225b39da2e5c2d3b90600090a250565b600054610100900460ff16612c965760405162461bcd60e51b815260206004820152602b60248201527f496e697469616c697a61626c653a20636f6e7472616374206973206e6f74206960448201526a6e697469616c697a696e6760a81b60648201526084016108bd565b612c9e612ebb565b611323612f26565b600054610100900460ff16612d115760405162461bcd60e51b815260206004820152602b60248201527f496e697469616c697a61626c653a20636f6e7472616374206973206e6f74206960448201526a6e697469616c697a696e6760a81b60648201526084016108bd565b612d19612ebb565b612d21612ebb565b611323612ebb565b600054610100900460ff16612d945760405162461bcd60e51b815260206004820152602b60248201527f496e697469616c697a61626c653a20636f6e7472616374206973206e6f74206960448201526a6e697469616c697a696e6760a81b60648201526084016108bd565b611323612f9a565b600054610100900460ff16612e075760405162461bcd60e51b815260206004820152602b60248201527f496e697469616c697a61626c653a20636f6e7472616374206973206e6f74206960448201526a6e697469616c697a696e6760a81b60648201526084016108bd565b612e0f612ebb565b61132361300c565b600054610100900460ff16612d195760405162461bcd60e51b815260206004820152602b60248201527f496e697469616c697a61626c653a20636f6e7472616374206973206e6f74206960448201526a6e697469616c697a696e6760a81b60648201526084016108bd565b60608315612e91575081612a20565b825115612ea15782518084602001fd5b8160405162461bcd60e51b81526004016108bd91906139fa565b600054610100900460ff166113235760405162461bcd60e51b815260206004820152602b60248201527f496e697469616c697a61626c653a20636f6e7472616374206973206e6f74206960448201526a6e697469616c697a696e6760a81b60648201526084016108bd565b600054610100900460ff16612f915760405162461bcd60e51b815260206004820152602b60248201527f496e697469616c697a61626c653a20636f6e7472616374206973206e6f74206960448201526a6e697469616c697a696e6760a81b60648201526084016108bd565b611323336124ff565b600054610100900460ff166130055760405162461bcd60e51b815260206004820152602b60248201527f496e697469616c697a61626c653a20636f6e7472616374206973206e6f74206960448201526a6e697469616c697a696e6760a81b60648201526084016108bd565b600160c955565b600054610100900460ff166130775760405162461bcd60e51b815260206004820152602b60248201527f496e697469616c697a61626c653a20636f6e7472616374206973206e6f74206960448201526a6e697469616c697a696e6760a81b60648201526084016108bd565b60fb805460ff19169055565b82805461308f90613793565b90600052602060002090601f0160209004810192826130b157600085556130f7565b82601f106130ca57805160ff19168380011785556130f7565b828001600101855582156130f7579182015b828111156130f75782518255916020019190600101906130dc565b50613103929150613107565b5090565b5b808211156131035760008155600101613108565b60006020828403121561312e57600080fd5b5035919050565b60005b83811015613150578181015183820152602001613138565b8381111561315f576000848401525b50505050565b6000815180845261317d816020860160208601613135565b601f01601f19169290920160200192915050565b8d815260006001600160a01b03808f1660208401528d60408401528c60608401528b60808401528a60a08401526101a060c08401526131d46101a084018b613165565b818a1660e0850152886101008501528381036101208501526131f68189613165565b925050508461014083015283151561016083015261321961018083018415159052565b9e9d5050505050505050505050505050565b60006020828403121561323d57600080fd5b81357fffffffff0000000000000000000000000000000000000000000000000000000081168114612a2057600080fd5b80356001600160a01b038116811461328457600080fd5b919050565b6000806040838503121561329c57600080fd5b6132a58361326d565b946020939093013593505050565b6000806000606084860312156132c857600080fd5b505081359360208301359350604090920135919050565b600080604083850312156132f257600080fd5b823591506133026020840161326d565b90509250929050565b60006020828403121561331d57600080fd5b612a208261326d565b634e487b7160e01b600052602160045260246000fd5b602081016006831061335e57634e487b7160e01b600052602160045260246000fd5b91905290565b60006020828403121561337657600080fd5b81358015158114612a2057600080fd5b634e487b7160e01b600052604160045260246000fd5b600080604083850312156133af57600080fd5b6133b88361326d565b9150602083013567ffffffffffffffff808211156133d557600080fd5b818501915085601f8301126133e957600080fd5b8135818111156133fb576133fb613386565b604051601f8201601f19908116603f0116810190838211818310171561342357613423613386565b8160405282815288602084870101111561343c57600080fd5b8260208601602083013760006020848301015280955050505050509250929050565b6000806040838503121561347157600080fd5b50508035926020909101359150565b60006020808301818452808551808352604092508286019150828160051b87010184880160005b838110156135c0577fffffffffffffffffffffffffffffffffffffffffffffffffffffffffffffffc089840301855281516101a081518552888201516134f78a8701826001600160a01b03169052565b508188015185890152606080830151908601526080808301519086015260a0808301519086015260c08083015181870183905261353683880182613165565b9250505060e080830151613554828801826001600160a01b03169052565b5050610100828101519086015261012080830151868303828801526135798382613165565b925050506101408083015181870152506101608083015161359d8288018215159052565b5050610180918201511515949091019390935293860193908601906001016134a7565b509098975050505050505050565b600080600080608085870312156135e457600080fd5b6135ed8561326d565b9350602085013592506136026040860161326d565b9150606085013567ffffffffffffffff81111561361e57600080fd5b850160c0818803121561363057600080fd5b939692955090935050565b60008083601f84011261364d57600080fd5b50813567ffffffffffffffff81111561366557600080fd5b60208301915083602082850101111561367d57600080fd5b9250929050565b60008060008060008060008060c0898b0312156136a057600080fd5b6136a98961326d565b9750602089013596506136be60408a0161326d565b955060608901359450608089013567ffffffffffffffff808211156136e257600080fd5b6136ee8c838d0161363b565b909650945060a08b013591508082111561370757600080fd5b506137148b828c0161363b565b999c989b5096995094979396929594505050565b60006101408c83528060208401526137428184018d613165565b6001600160a01b039b8c166040850152998b166060840152505095909716608086015260a085019390935290151560c084015260e08301526101008201529115156101209092019190915292915050565b600181811c908216806137a757607f821691505b60208210811415610e9357634e487b7160e01b600052602260045260246000fd5b6000602082840312156137da57600080fd5b815160068110612a2057600080fd5b634e487b7160e01b600052601160045260246000fd5b60008219821115613812576138126137e9565b500190565b600082821015613829576138296137e9565b500390565b634e487b7160e01b600052603260045260246000fd5b6000600019821415613858576138586137e9565b5060010190565b60008083357fffffffffffffffffffffffffffffffffffffffffffffffffffffffffffffffe184360301811261389457600080fd5b83018035915067ffffffffffffffff8211156138af57600080fd5b60200191503681900382131561367d57600080fd5b6000602082840312156138d657600080fd5b5051919050565b600080835481600182811c9150808316806138f957607f831692505b602080841082141561391957634e487b7160e01b86526022600452602486fd5b81801561392d576001811461393e5761396b565b60ff1986168952848901965061396b565b60008a81526020902060005b868110156139635781548b82015290850190830161394a565b505084890196505b509498975050505050505050565b7f416363657373436f6e74726f6c3a206163636f756e74200000000000000000008152600083516139b1816017850160208801613135565b7f206973206d697373696e6720726f6c652000000000000000000000000000000060179184019182015283516139ee816028840160208801613135565b01602801949350505050565b602081526000612a206020830184613165565b6000816000190483118215151615613a2757613a276137e9565b500290565b600081613a3b57613a3b6137e9565b506000190190565b60008251613a55818460208701613135565b919091019291505056fe416464726573733a206c6f772d6c6576656c2064656c65676174652063616c6c206661696c6564a2646970667358221220bc34314b5d53bf5a2e341d37858e5313930239609589a6236446702f9bd0ac9564736f6c634300080b0033",
  "linkReferences": {},
  "deployedLinkReferences": {}
}