{
  "_format": "hh-sol-artifact-1",
  "contractName": "EtherZDAO",
  "sourceName": "contracts/ethereum/EtherZDAO.sol",
  "abi": [
    {
      "anonymous": false,
      "inputs": [
        {
          "indexed": false,
          "internalType": "address",
          "name": "previousAdmin",
          "type": "address"
        },
        {
          "indexed": false,
          "internalType": "address",
          "name": "newAdmin",
          "type": "address"
        }
      ],
      "name": "AdminChanged",
      "type": "event"
    },
    {
      "anonymous": false,
      "inputs": [
        {
          "indexed": true,
          "internalType": "address",
          "name": "beacon",
          "type": "address"
        }
      ],
      "name": "BeaconUpgraded",
      "type": "event"
    },
    {
      "anonymous": false,
      "inputs": [
        {
          "indexed": true,
          "internalType": "address",
          "name": "previousOwner",
          "type": "address"
        },
        {
          "indexed": true,
          "internalType": "address",
          "name": "newOwner",
          "type": "address"
        }
      ],
      "name": "OwnershipTransferred",
      "type": "event"
    },
    {
      "anonymous": false,
      "inputs": [
        {
          "indexed": false,
          "internalType": "address",
          "name": "account",
          "type": "address"
        }
      ],
      "name": "Paused",
      "type": "event"
    },
    {
      "anonymous": false,
      "inputs": [
        {
          "indexed": true,
          "internalType": "bytes32",
          "name": "role",
          "type": "bytes32"
        },
        {
          "indexed": true,
          "internalType": "bytes32",
          "name": "previousAdminRole",
          "type": "bytes32"
        },
        {
          "indexed": true,
          "internalType": "bytes32",
          "name": "newAdminRole",
          "type": "bytes32"
        }
      ],
      "name": "RoleAdminChanged",
      "type": "event"
    },
    {
      "anonymous": false,
      "inputs": [
        {
          "indexed": true,
          "internalType": "bytes32",
          "name": "role",
          "type": "bytes32"
        },
        {
          "indexed": true,
          "internalType": "address",
          "name": "account",
          "type": "address"
        },
        {
          "indexed": true,
          "internalType": "address",
          "name": "sender",
          "type": "address"
        }
      ],
      "name": "RoleGranted",
      "type": "event"
    },
    {
      "anonymous": false,
      "inputs": [
        {
          "indexed": true,
          "internalType": "bytes32",
          "name": "role",
          "type": "bytes32"
        },
        {
          "indexed": true,
          "internalType": "address",
          "name": "account",
          "type": "address"
        },
        {
          "indexed": true,
          "internalType": "address",
          "name": "sender",
          "type": "address"
        }
      ],
      "name": "RoleRevoked",
      "type": "event"
    },
    {
      "anonymous": false,
      "inputs": [
        {
          "indexed": false,
          "internalType": "address",
          "name": "account",
          "type": "address"
        }
      ],
      "name": "Unpaused",
      "type": "event"
    },
    {
      "anonymous": false,
      "inputs": [
        {
          "indexed": true,
          "internalType": "address",
          "name": "implementation",
          "type": "address"
        }
      ],
      "name": "Upgraded",
      "type": "event"
    },
    {
      "inputs": [],
      "name": "DEFAULT_ADMIN_ROLE",
      "outputs": [
        {
          "internalType": "bytes32",
          "name": "",
          "type": "bytes32"
        }
      ],
      "stateMutability": "view",
      "type": "function"
    },
    {
      "inputs": [
        {
          "internalType": "address",
          "name": "_zDAOChef",
          "type": "address"
        },
        {
          "internalType": "uint256",
          "name": "_zDAOId",
          "type": "uint256"
        },
        {
          "internalType": "address",
          "name": "_createdBy",
          "type": "address"
        },
        {
          "components": [
            {
              "internalType": "string",
              "name": "title",
              "type": "string"
            },
            {
              "internalType": "address",
              "name": "gnosisSafe",
              "type": "address"
            },
            {
              "internalType": "address",
              "name": "token",
              "type": "address"
            },
            {
              "internalType": "uint256",
              "name": "amount",
              "type": "uint256"
            },
            {
              "internalType": "uint256",
              "name": "threshold",
              "type": "uint256"
            },
            {
              "internalType": "uint256",
              "name": "quorumParticipants",
              "type": "uint256"
            },
            {
              "internalType": "uint256",
              "name": "quorumVotes",
              "type": "uint256"
            },
            {
              "internalType": "bool",
              "name": "isRelativeMajority",
              "type": "bool"
            }
          ],
          "internalType": "struct IEtherZDAOChef.ZDAOConfig",
          "name": "_zDAOConfig",
          "type": "tuple"
        }
      ],
      "name": "__ZDAO_init",
      "outputs": [],
      "stateMutability": "nonpayable",
      "type": "function"
    },
    {
      "inputs": [
        {
          "internalType": "address",
          "name": "",
          "type": "address"
        },
        {
          "internalType": "uint256",
          "name": "_proposalId",
          "type": "uint256"
        }
      ],
      "name": "cancelProposal",
      "outputs": [],
      "stateMutability": "nonpayable",
      "type": "function"
    },
    {
      "inputs": [
        {
          "internalType": "uint256",
          "name": "_proposalId",
          "type": "uint256"
        },
        {
          "internalType": "uint256",
          "name": "_voters",
          "type": "uint256"
        },
        {
          "internalType": "uint256",
          "name": "_yes",
          "type": "uint256"
        },
        {
          "internalType": "uint256",
          "name": "_no",
          "type": "uint256"
        }
      ],
      "name": "collectProposal",
      "outputs": [],
      "stateMutability": "nonpayable",
      "type": "function"
    },
    {
      "inputs": [
        {
          "internalType": "address",
          "name": "_createdBy",
          "type": "address"
        },
        {
          "internalType": "uint256",
          "name": "_duration",
          "type": "uint256"
        },
        {
          "internalType": "address",
          "name": "_target",
          "type": "address"
        },
        {
          "internalType": "uint256",
          "name": "_value",
          "type": "uint256"
        },
        {
          "internalType": "bytes",
          "name": "_data",
          "type": "bytes"
        },
        {
          "internalType": "string",
          "name": "_ipfs",
          "type": "string"
        }
      ],
      "name": "createProposal",
      "outputs": [
        {
          "internalType": "uint256",
          "name": "",
          "type": "uint256"
        }
      ],
      "stateMutability": "nonpayable",
      "type": "function"
    },
    {
      "inputs": [],
      "name": "destroyed",
      "outputs": [
        {
          "internalType": "bool",
          "name": "",
          "type": "bool"
        }
      ],
      "stateMutability": "view",
      "type": "function"
    },
    {
      "inputs": [
        {
          "internalType": "address",
          "name": "_executeBy",
          "type": "address"
        },
        {
          "internalType": "uint256",
          "name": "_proposalId",
          "type": "uint256"
        }
      ],
      "name": "executeProposal",
      "outputs": [],
      "stateMutability": "nonpayable",
      "type": "function"
    },
    {
      "inputs": [
        {
          "internalType": "bytes32",
          "name": "role",
          "type": "bytes32"
        }
      ],
      "name": "getRoleAdmin",
      "outputs": [
        {
          "internalType": "bytes32",
          "name": "",
          "type": "bytes32"
        }
      ],
      "stateMutability": "view",
      "type": "function"
    },
    {
      "inputs": [
        {
          "internalType": "bytes32",
          "name": "role",
          "type": "bytes32"
        },
        {
          "internalType": "address",
          "name": "account",
          "type": "address"
        }
      ],
      "name": "grantRole",
      "outputs": [],
      "stateMutability": "nonpayable",
      "type": "function"
    },
    {
      "inputs": [
        {
          "internalType": "bytes32",
          "name": "role",
          "type": "bytes32"
        },
        {
          "internalType": "address",
          "name": "account",
          "type": "address"
        }
      ],
      "name": "hasRole",
      "outputs": [
        {
          "internalType": "bool",
          "name": "",
          "type": "bool"
        }
      ],
      "stateMutability": "view",
      "type": "function"
    },
    {
      "inputs": [],
      "name": "lastProposalId",
      "outputs": [
        {
          "internalType": "uint256",
          "name": "",
          "type": "uint256"
        }
      ],
      "stateMutability": "view",
      "type": "function"
    },
    {
      "inputs": [
        {
          "internalType": "uint256",
          "name": "_startIndex",
          "type": "uint256"
        },
        {
          "internalType": "uint256",
          "name": "_count",
          "type": "uint256"
        }
      ],
      "name": "listProposals",
      "outputs": [
        {
          "components": [
            {
              "internalType": "uint256",
              "name": "proposalId",
              "type": "uint256"
            },
            {
              "internalType": "address",
              "name": "createdBy",
              "type": "address"
            },
            {
              "internalType": "uint256",
              "name": "duration",
              "type": "uint256"
            },
            {
              "internalType": "uint256",
              "name": "yes",
              "type": "uint256"
            },
            {
              "internalType": "uint256",
              "name": "no",
              "type": "uint256"
            },
            {
              "internalType": "uint256",
              "name": "voters",
              "type": "uint256"
            },
            {
              "internalType": "string",
              "name": "ipfs",
              "type": "string"
            },
            {
              "internalType": "address",
              "name": "target",
              "type": "address"
            },
            {
              "internalType": "uint256",
              "name": "value",
              "type": "uint256"
            },
            {
              "internalType": "bytes",
              "name": "data",
              "type": "bytes"
            },
            {
              "internalType": "uint256",
              "name": "snapshot",
              "type": "uint256"
            },
            {
              "internalType": "bool",
              "name": "collected",
              "type": "bool"
            },
            {
              "internalType": "bool",
              "name": "executed",
              "type": "bool"
            },
            {
              "internalType": "bool",
              "name": "canceled",
              "type": "bool"
            }
          ],
          "internalType": "struct IEtherZDAO.Proposal[]",
          "name": "records",
          "type": "tuple[]"
        }
      ],
      "stateMutability": "view",
      "type": "function"
    },
    {
      "inputs": [],
      "name": "numberOfProposals",
      "outputs": [
        {
          "internalType": "uint256",
          "name": "",
          "type": "uint256"
        }
      ],
      "stateMutability": "view",
      "type": "function"
    },
    {
      "inputs": [],
      "name": "owner",
      "outputs": [
        {
          "internalType": "address",
          "name": "",
          "type": "address"
        }
      ],
      "stateMutability": "view",
      "type": "function"
    },
    {
      "inputs": [],
      "name": "paused",
      "outputs": [
        {
          "internalType": "bool",
          "name": "",
          "type": "bool"
        }
      ],
      "stateMutability": "view",
      "type": "function"
    },
    {
      "inputs": [
        {
          "internalType": "uint256",
          "name": "",
          "type": "uint256"
        }
      ],
      "name": "proposalIds",
      "outputs": [
        {
          "internalType": "uint256",
          "name": "",
          "type": "uint256"
        }
      ],
      "stateMutability": "view",
      "type": "function"
    },
    {
      "inputs": [
        {
          "internalType": "uint256",
          "name": "",
          "type": "uint256"
        }
      ],
      "name": "proposals",
      "outputs": [
        {
          "internalType": "uint256",
          "name": "proposalId",
          "type": "uint256"
        },
        {
          "internalType": "address",
          "name": "createdBy",
          "type": "address"
        },
        {
          "internalType": "uint256",
          "name": "duration",
          "type": "uint256"
        },
        {
          "internalType": "uint256",
          "name": "yes",
          "type": "uint256"
        },
        {
          "internalType": "uint256",
          "name": "no",
          "type": "uint256"
        },
        {
          "internalType": "uint256",
          "name": "voters",
          "type": "uint256"
        },
        {
          "internalType": "string",
          "name": "ipfs",
          "type": "string"
        },
        {
          "internalType": "address",
          "name": "target",
          "type": "address"
        },
        {
          "internalType": "uint256",
          "name": "value",
          "type": "uint256"
        },
        {
          "internalType": "bytes",
          "name": "data",
          "type": "bytes"
        },
        {
          "internalType": "uint256",
          "name": "snapshot",
          "type": "uint256"
        },
        {
          "internalType": "bool",
          "name": "collected",
          "type": "bool"
        },
        {
          "internalType": "bool",
          "name": "executed",
          "type": "bool"
        },
        {
          "internalType": "bool",
          "name": "canceled",
          "type": "bool"
        }
      ],
      "stateMutability": "view",
      "type": "function"
    },
    {
      "inputs": [],
      "name": "renounceOwnership",
      "outputs": [],
      "stateMutability": "nonpayable",
      "type": "function"
    },
    {
      "inputs": [
        {
          "internalType": "bytes32",
          "name": "role",
          "type": "bytes32"
        },
        {
          "internalType": "address",
          "name": "account",
          "type": "address"
        }
      ],
      "name": "renounceRole",
      "outputs": [],
      "stateMutability": "nonpayable",
      "type": "function"
    },
    {
      "inputs": [
        {
          "internalType": "bytes32",
          "name": "role",
          "type": "bytes32"
        },
        {
          "internalType": "address",
          "name": "account",
          "type": "address"
        }
      ],
      "name": "revokeRole",
      "outputs": [],
      "stateMutability": "nonpayable",
      "type": "function"
    },
    {
      "inputs": [
        {
          "internalType": "bool",
          "name": "_destroyed",
          "type": "bool"
        }
      ],
      "name": "setDestroyed",
      "outputs": [],
      "stateMutability": "nonpayable",
      "type": "function"
    },
    {
      "inputs": [
        {
          "internalType": "address",
          "name": "_gnosisSafe",
          "type": "address"
        }
      ],
      "name": "setGnosisSafe",
      "outputs": [],
      "stateMutability": "nonpayable",
      "type": "function"
    },
    {
      "inputs": [
        {
          "internalType": "address",
          "name": "_token",
          "type": "address"
        },
        {
          "internalType": "uint256",
          "name": "_amount",
          "type": "uint256"
        }
      ],
      "name": "setVotingToken",
      "outputs": [],
      "stateMutability": "nonpayable",
      "type": "function"
    },
    {
      "inputs": [
        {
          "internalType": "uint256",
          "name": "_proposalId",
          "type": "uint256"
        }
      ],
      "name": "state",
      "outputs": [
        {
          "internalType": "enum IEtherZDAO.ProposalState",
          "name": "",
          "type": "uint8"
        }
      ],
      "stateMutability": "view",
      "type": "function"
    },
    {
      "inputs": [
        {
          "internalType": "bytes4",
          "name": "interfaceId",
          "type": "bytes4"
        }
      ],
      "name": "supportsInterface",
      "outputs": [
        {
          "internalType": "bool",
          "name": "",
          "type": "bool"
        }
      ],
      "stateMutability": "view",
      "type": "function"
    },
    {
      "inputs": [
        {
          "internalType": "address",
          "name": "newOwner",
          "type": "address"
        }
      ],
      "name": "transferOwnership",
      "outputs": [],
      "stateMutability": "nonpayable",
      "type": "function"
    },
    {
      "inputs": [
        {
          "internalType": "address",
          "name": "newImplementation",
          "type": "address"
        }
      ],
      "name": "upgradeTo",
      "outputs": [],
      "stateMutability": "nonpayable",
      "type": "function"
    },
    {
      "inputs": [
        {
          "internalType": "address",
          "name": "newImplementation",
          "type": "address"
        },
        {
          "internalType": "bytes",
          "name": "data",
          "type": "bytes"
        }
      ],
      "name": "upgradeToAndCall",
      "outputs": [],
      "stateMutability": "payable",
      "type": "function"
    },
    {
      "inputs": [],
      "name": "version",
      "outputs": [
        {
          "internalType": "uint256",
          "name": "",
          "type": "uint256"
        }
      ],
      "stateMutability": "view",
      "type": "function"
    },
    {
      "inputs": [],
      "name": "zDAOChef",
      "outputs": [
        {
          "internalType": "address",
          "name": "",
          "type": "address"
        }
      ],
      "stateMutability": "view",
      "type": "function"
    },
    {
      "inputs": [],
      "name": "zDAOInfo",
      "outputs": [
        {
          "internalType": "uint256",
          "name": "zDAOId",
          "type": "uint256"
        },
        {
          "internalType": "string",
          "name": "title",
          "type": "string"
        },
        {
          "internalType": "address",
          "name": "createdBy",
          "type": "address"
        },
        {
          "internalType": "address",
          "name": "gnosisSafe",
          "type": "address"
        },
        {
          "internalType": "address",
          "name": "token",
          "type": "address"
        },
        {
          "internalType": "uint256",
          "name": "amount",
          "type": "uint256"
        },
        {
          "internalType": "uint256",
          "name": "threshold",
          "type": "uint256"
        },
        {
          "internalType": "uint256",
          "name": "quorumParticipants",
          "type": "uint256"
        },
        {
          "internalType": "uint256",
          "name": "quorumVotes",
          "type": "uint256"
        },
        {
          "internalType": "uint256",
          "name": "snapshot",
          "type": "uint256"
        },
        {
          "internalType": "bool",
          "name": "isRelativeMajority",
          "type": "bool"
        },
        {
          "internalType": "bool",
          "name": "destroyed",
          "type": "bool"
        }
      ],
      "stateMutability": "view",
      "type": "function"
    },
    {
      "inputs": [],
      "name": "zDAOOwner",
      "outputs": [
        {
          "internalType": "address",
          "name": "",
          "type": "address"
        }
      ],
      "stateMutability": "view",
      "type": "function"
    }
  ],
  "bytecode": "0x60a06040523060805234801561001457600080fd5b50608051613bfa610045600039600081816109cd01528181610a630152818161109201526111280152613bfa6000f3fe6080604052600436106101e35760003560e01c8063715018a6116101025780639b644a2311610095578063c3085a3e11610064578063c3085a3e146105c4578063d547741f146105e4578063d8191e6c14610604578063f2fde38b1461063157600080fd5b80639b644a231461054f578063a217fddf1461056f578063b43ddd8714610584578063bfc42645146105a457600080fd5b80638da5cb5b116100d15780638da5cb5b146104aa57806390bfeab3146104c857806391d14854146104e957806393850b441461052f57600080fd5b8063715018a61461043b57806374cb3041146104505780637f6dda14146104675780638d7af4731461049457600080fd5b80633659cfe61161017a5780634f1ef286116101495780634f1ef286146103d957806353350755146103ec57806354fd4d501461040c5780635c975abb1461042357600080fd5b80633659cfe61461034c57806339cf4e891461036c5780633e4f49e61461038c578063472858b4146103b957600080fd5b8063248a9ca3116101b6578063248a9ca3146102b05780632f2ff15d146102ee578063359cbbc91461030e57806336568abe1461032c57600080fd5b8063013cf08b146101e857806301ffc9a71461022b578063116b1a091461025b578063137f415b1461028e575b600080fd5b3480156101f457600080fd5b506102086102033660046131e1565b610651565b6040516102229e9d9c9b9a99989796959493929190613256565b60405180910390f35b34801561023757600080fd5b5061024b6102463660046132fd565b6107ec565b6040519015158152602001610222565b34801561026757600080fd5b50610194546001600160a01b03165b6040516001600160a01b039091168152602001610222565b34801561029a57600080fd5b506102ae6102a936600461335b565b610885565b005b3480156102bc57600080fd5b506102e06102cb3660046131e1565b60009081526097602052604090206001015490565b604051908152602001610222565b3480156102fa57600080fd5b506102ae610309366004613385565b61090b565b34801561031a57600080fd5b5061019c54610100900460ff1661024b565b34801561033857600080fd5b506102ae610347366004613385565b610936565b34801561035857600080fd5b506102ae6103673660046133b1565b6109c2565b34801561037857600080fd5b506102ae6103873660046133cc565b610b60565b34801561039857600080fd5b506103ac6103a73660046131e1565b610e39565b6040516102229190613450565b3480156103c557600080fd5b506102ae6103d4366004613478565b611020565b6102ae6103e73660046134b0565b611087565b3480156103f857600080fd5b506102ae61040736600461335b565b611212565b34801561041857600080fd5b506102e06101915481565b34801561042f57600080fd5b5060fb5460ff1661024b565b34801561044757600080fd5b506102ae611403565b34801561045c57600080fd5b506102e061019d5481565b34801561047357600080fd5b50610487610482366004613572565b611469565b6040516102229190613594565b3480156104a057600080fd5b5061019d546102e0565b3480156104b657600080fd5b506033546001600160a01b0316610276565b3480156104d457600080fd5b506101a054610276906001600160a01b031681565b3480156104f557600080fd5b5061024b610504366004613385565b60009182526097602090815260408084206001600160a01b0393909316845291905290205460ff1690565b34801561053b57600080fd5b506102ae61054a3660046136ec565b6117ac565b34801561055b57600080fd5b506102e061056a3660046131e1565b6119b9565b34801561057b57600080fd5b506102e0600081565b34801561059057600080fd5b506102e061059f366004613767565b6119db565b3480156105b057600080fd5b506102ae6105bf36600461335b565b611be6565b3480156105d057600080fd5b506102ae6105df3660046133b1565b611ea3565b3480156105f057600080fd5b506102ae6105ff366004613385565b611f1f565b34801561061057600080fd5b50610619611f45565b6040516102229c9b9a9998979695949392919061380b565b34801561063d57600080fd5b506102ae61064c3660046133b1565b612035565b61019e60205260009081526040902080546001820154600283015460038401546004850154600586015460068701805496976001600160a01b039096169694959394929391926106a090613887565b80601f01602080910402602001604051908101604052809291908181526020018280546106cc90613887565b80156107195780601f106106ee57610100808354040283529160200191610719565b820191906000526020600020905b8154815290600101906020018083116106fc57829003601f168201915b505050506007830154600884015460098501805494956001600160a01b03909316949193509061074890613887565b80601f016020809104026020016040519081016040528092919081815260200182805461077490613887565b80156107c15780601f10610796576101008083540402835291602001916107c1565b820191906000526020600020905b8154815290600101906020018083116107a457829003601f168201915b50505050600a830154600b9093015491929160ff80821692506101008204811691620100009004168e565b60007fffffffff0000000000000000000000000000000000000000000000000000000082167f7965db0b00000000000000000000000000000000000000000000000000000000148061087f57507f01ffc9a7000000000000000000000000000000000000000000000000000000007fffffffff000000000000000000000000000000000000000000000000000000008316145b92915050565b6101a0546001600160a01b031633146108d65760405162461bcd60e51b815260206004820152600e60248201526d2737ba1030902d2220a7a1b432b360911b60448201526064015b60405180910390fd5b610196805473ffffffffffffffffffffffffffffffffffffffff19166001600160a01b03939093169290921790915561019755565b6000828152609760205260409020600101546109278133612114565b6109318383612194565b505050565b6001600160a01b03811633146109b45760405162461bcd60e51b815260206004820152602f60248201527f416363657373436f6e74726f6c3a2063616e206f6e6c792072656e6f756e636560448201527f20726f6c657320666f722073656c66000000000000000000000000000000000060648201526084016108cd565b6109be8282612236565b5050565b306001600160a01b037f0000000000000000000000000000000000000000000000000000000000000000161415610a615760405162461bcd60e51b815260206004820152602c60248201527f46756e6374696f6e206d7573742062652063616c6c6564207468726f7567682060448201527f64656c656761746563616c6c000000000000000000000000000000000000000060648201526084016108cd565b7f00000000000000000000000000000000000000000000000000000000000000006001600160a01b0316610abc7f360894a13ba1a3210667c828492db98dca3e2076cc3735a920a3ca505d382bbc546001600160a01b031690565b6001600160a01b031614610b385760405162461bcd60e51b815260206004820152602c60248201527f46756e6374696f6e206d7573742062652063616c6c6564207468726f7567682060448201527f6163746976652070726f7879000000000000000000000000000000000000000060648201526084016108cd565b610b41816122b9565b60408051600080825260208201909252610b5d91839190612313565b50565b600054610100900460ff16610b7b5760005460ff1615610b7f565b303b155b610bf15760405162461bcd60e51b815260206004820152602e60248201527f496e697469616c697a61626c653a20636f6e747261637420697320616c72656160448201527f647920696e697469616c697a656400000000000000000000000000000000000060648201526084016108cd565b600054610100900460ff16158015610c13576000805461ffff19166101011790555b610c1b6124d0565b6101a0805473ffffffffffffffffffffffffffffffffffffffff19166001600160a01b03871617905560408051610180810190915284815260208101610c6184806138c2565b8080601f0160208091040260200160405190810160405280939291908181526020018383808284376000920191909152505050908252506001600160a01b038516602080830191909152604091820191610cc0919086019086016133b1565b6001600160a01b03168152602001610cde60608501604086016133b1565b6001600160a01b0316815260200183606001358152602001836080013581526020018360a0013581526020018360c0013581526020014381526020018360e0016020810190610d2d9190613478565b15158152600060209182015281516101929081558282015180519192610d5a926101939290910190613148565b5060408201516002820180546001600160a01b0392831673ffffffffffffffffffffffffffffffffffffffff19918216179091556060840151600384018054918416918316919091179055608084015160048401805491909316911617905560a0820151600582015560c0820151600682015560e082015160078201556101008083015160088301556101208301516009830155610140830151600a909201805461016090940151151590910261ff00199215159290921661ffff19909316929092171790558015610e32576000805461ff00191690555b5050505050565b600081815261019e60205260408120600b81015462010000900460ff1615610e645750600292915050565b600b810154610100900460ff1615610e7f5750600392915050565b600b81015460ff16610e945750600092915050565b6101995460058201541080610ebe575061019a5460048201546003830154610ebc919061393d565b105b15610ecc5750600492915050565b61019c5460ff168015610ef25750600081600401548260030154610ef0919061393d565b115b8015610f2f57506101985460048201546003830154610f11919061393d565b6003830154610f2290612710613955565b610f2c9190613974565b10155b15610f3d5750600592915050565b61019654604080517f18160ddd00000000000000000000000000000000000000000000000000000000815290516000926001600160a01b0316916318160ddd9160048281019260209291908290030181865afa158015610fa1573d6000803e3d6000fd5b505050506040513d601f19601f82011682018060405250810190610fc59190613996565b61019c5490915060ff16158015610fdc5750600081115b801561100757506101985460038301548290610ffa90612710613955565b6110049190613974565b10155b15611016575060059392505050565b5060049392505050565b6101a0546001600160a01b0316331461106c5760405162461bcd60e51b815260206004820152600e60248201526d2737ba1030902d2220a7a1b432b360911b60448201526064016108cd565b61019c80549115156101000261ff0019909216919091179055565b306001600160a01b037f00000000000000000000000000000000000000000000000000000000000000001614156111265760405162461bcd60e51b815260206004820152602c60248201527f46756e6374696f6e206d7573742062652063616c6c6564207468726f7567682060448201527f64656c656761746563616c6c000000000000000000000000000000000000000060648201526084016108cd565b7f00000000000000000000000000000000000000000000000000000000000000006001600160a01b03166111817f360894a13ba1a3210667c828492db98dca3e2076cc3735a920a3ca505d382bbc546001600160a01b031690565b6001600160a01b0316146111fd5760405162461bcd60e51b815260206004820152602c60248201527f46756e6374696f6e206d7573742062652063616c6c6564207468726f7567682060448201527f6163746976652070726f7879000000000000000000000000000000000000000060648201526084016108cd565b611206826122b9565b6109be82826001612313565b6101a0546001600160a01b0316331461125e5760405162461bcd60e51b815260206004820152600e60248201526d2737ba1030902d2220a7a1b432b360911b60448201526064016108cd565b61019c54610100900460ff16156112b75760405162461bcd60e51b815260206004820152601160248201527f416c72656164792064657374726f79656400000000000000000000000000000060448201526064016108cd565b806000811180156112cb575061019d548111155b6113175760405162461bcd60e51b815260206004820152600c60248201527f496e76616c6964207a44414f000000000000000000000000000000000000000060448201526064016108cd565b604051631f27a4f360e11b8152600481018390526000903090633e4f49e690602401602060405180830381865afa158015611356573d6000803e3d6000fd5b505050506040513d601f19601f8201168201806040525081019061137a91906139af565b905060008160058111156113905761139061343a565b146113dd5760405162461bcd60e51b815260206004820152601660248201527f4e6f7420612070656e64696e672070726f706f73616c0000000000000000000060448201526064016108cd565b5050600090815261019e60205260409020600b01805462ff000019166201000017905550565b6033546001600160a01b0316331461145d5760405162461bcd60e51b815260206004820181905260248201527f4f776e61626c653a2063616c6c6572206973206e6f7420746865206f776e657260448201526064016108cd565b61146760006125a7565b565b61019d54606090829061147d9085906139d0565b811115611496578361019d5461149391906139d0565b90505b8067ffffffffffffffff8111156114af576114af61349a565b60405190808252806020026020018201604052801561156a57816020015b611557604051806101c001604052806000815260200160006001600160a01b03168152602001600081526020016000815260200160008152602001600081526020016060815260200160006001600160a01b031681526020016000815260200160608152602001600081526020016000151581526020016000151581526020016000151581525090565b8152602001906001900390816114cd5790505b50915060005b818110156117a45761019e6000611587838861393d565b61159290600161393d565b8152602080820192909252604090810160002081516101c0810183528154815260018201546001600160a01b0316938101939093526002810154918301919091526003810154606083015260048101546080830152600581015460a083015260068101805460c08401919061160690613887565b80601f016020809104026020016040519081016040528092919081815260200182805461163290613887565b801561167f5780601f106116545761010080835404028352916020019161167f565b820191906000526020600020905b81548152906001019060200180831161166257829003601f168201915b505050918352505060078201546001600160a01b03166020820152600882015460408201526009820180546060909201916116b990613887565b80601f01602080910402602001604051908101604052809291908181526020018280546116e590613887565b80156117325780601f1061170757610100808354040283529160200191611732565b820191906000526020600020905b81548152906001019060200180831161171557829003601f168201915b5050509183525050600a8201546020820152600b9091015460ff808216151560408401526101008204811615156060840152620100009091041615156080909101528351849083908110611788576117886139e7565b60200260200101819052508061179d906139fd565b9050611570565b505092915050565b6101a0546001600160a01b031633146117f85760405162461bcd60e51b815260206004820152600e60248201526d2737ba1030902d2220a7a1b432b360911b60448201526064016108cd565b8360008111801561180c575061019d548111155b6118585760405162461bcd60e51b815260206004820152600c60248201527f496e76616c6964207a44414f000000000000000000000000000000000000000060448201526064016108cd565b600085815261019e60205260409020600b81015460ff16156118bc5760405162461bcd60e51b815260206004820152601a60248201527f416c726561647920636f6c6c65637465642070726f706f73616c00000000000060448201526064016108cd565b604051631f27a4f360e11b8152600481018790526000903090633e4f49e690602401602060405180830381865afa1580156118fb573d6000803e3d6000fd5b505050506040513d601f19601f8201168201806040525081019061191f91906139af565b905060008160058111156119355761193561343a565b146119825760405162461bcd60e51b815260206004820152601660248201527f4e6f7420612070656e64696e672070726f706f73616c0000000000000000000060448201526064016108cd565b506005810194909455506003830191909155600490910155600090815261019e60205260409020600b01805460ff19166001179055565b61019f81815481106119ca57600080fd5b600091825260209091200154905081565b6101a0546000906001600160a01b03163314611a2a5760405162461bcd60e51b815260206004820152600e60248201526d2737ba1030902d2220a7a1b432b360911b60448201526064016108cd565b61019c54610100900460ff1615611a835760405162461bcd60e51b815260206004820152601160248201527f416c72656164792064657374726f79656400000000000000000000000000000060448201526064016108cd565b61019754610196546040517f70a082310000000000000000000000000000000000000000000000000000000081526001600160a01b03808d1660048301528c939216906370a0823190602401602060405180830381865afa158015611aec573d6000803e3d6000fd5b505050506040513d601f19601f82011682018060405250810190611b109190613996565b1015611b5e5760405162461bcd60e51b815260206004820152601860248201527f4e6f7420612076616c696420746f6b656e20686f6c646572000000000000000060448201526064016108cd565b6000611bd78b8b8b8b8b8b8080601f01602080910402602001604051908101604052809392919081815260200183838082843760009201919091525050604080516020601f8f018190048102820181019092528d815292508d91508c908190840183828082843760009201919091525061260692505050565b9b9a5050505050505050505050565b6101a0546001600160a01b03163314611c325760405162461bcd60e51b815260206004820152600e60248201526d2737ba1030902d2220a7a1b432b360911b60448201526064016108cd565b61019c54610100900460ff1615611c8b5760405162461bcd60e51b815260206004820152601160248201527f416c72656164792064657374726f79656400000000000000000000000000000060448201526064016108cd565b80600081118015611c9f575061019d548111155b611ceb5760405162461bcd60e51b815260206004820152600c60248201527f496e76616c6964207a44414f000000000000000000000000000000000000000060448201526064016108cd565b604051631f27a4f360e11b8152600481018390526000903090633e4f49e690602401602060405180830381865afa158015611d2a573d6000803e3d6000fd5b505050506040513d601f19601f82011682018060405250810190611d4e91906139af565b90506005816005811115611d6457611d6461343a565b14611db15760405162461bcd60e51b815260206004820152601860248201527f4e6f742061207375636365656465642070726f706f73616c000000000000000060448201526064016108cd565b600083815261019e60205260408082206007810154600882015492519193926001600160a01b0390911691611dea906009860190613a18565b60006040518083038185875af1925050503d8060008114611e27576040519150601f19603f3d011682016040523d82523d6000602084013e611e2c565b606091505b5050905080611e7d5760405162461bcd60e51b815260206004820152601e60248201527f457865637574696f6e207472616e73616374696f6e207265766572746564000060448201526064016108cd565b50505060009182525061019e60205260409020600b01805461ff00191661010017905550565b6101a0546001600160a01b03163314611eef5760405162461bcd60e51b815260206004820152600e60248201526d2737ba1030902d2220a7a1b432b360911b60448201526064016108cd565b610195805473ffffffffffffffffffffffffffffffffffffffff19166001600160a01b0392909216919091179055565b600082815260976020526040902060010154611f3b8133612114565b6109318383612236565b61019280546101938054919291611f5b90613887565b80601f0160208091040260200160405190810160405280929190818152602001828054611f8790613887565b8015611fd45780601f10611fa957610100808354040283529160200191611fd4565b820191906000526020600020905b815481529060010190602001808311611fb757829003601f168201915b50505060028401546003850154600486015460058701546006880154600789015460088a015460098b0154600a909b0154999a6001600160a01b039788169a9688169950949096169650919490939192909160ff808216916101009004168c565b6033546001600160a01b0316331461208f5760405162461bcd60e51b815260206004820181905260248201527f4f776e61626c653a2063616c6c6572206973206e6f7420746865206f776e657260448201526064016108cd565b6001600160a01b03811661210b5760405162461bcd60e51b815260206004820152602660248201527f4f776e61626c653a206e6577206f776e657220697320746865207a65726f206160448201527f646472657373000000000000000000000000000000000000000000000000000060648201526084016108cd565b610b5d816125a7565b60008281526097602090815260408083206001600160a01b038516845290915290205460ff166109be57612152816001600160a01b03166014612828565b61215d836020612828565b60405160200161216e929190613ab4565b60408051601f198184030181529082905262461bcd60e51b82526108cd91600401613b35565b60008281526097602090815260408083206001600160a01b038516845290915290205460ff166109be5760008281526097602090815260408083206001600160a01b03851684529091529020805460ff191660011790556121f23390565b6001600160a01b0316816001600160a01b0316837f2f8788117e7eff1d82e926ec794901d17c78024a50270940304540a733656f0d60405160405180910390a45050565b60008281526097602090815260408083206001600160a01b038516845290915290205460ff16156109be5760008281526097602090815260408083206001600160a01b0385168085529252808320805460ff1916905551339285917ff6391f5c32d9c69d2a47ea670b442974b53935d1edc7fd64eb21e047a839171b9190a45050565b6033546001600160a01b03163314610b5d5760405162461bcd60e51b815260206004820181905260248201527f4f776e61626c653a2063616c6c6572206973206e6f7420746865206f776e657260448201526064016108cd565b60006123467f360894a13ba1a3210667c828492db98dca3e2076cc3735a920a3ca505d382bbc546001600160a01b031690565b905061235184612a58565b60008351118061235e5750815b1561236f5761236d8484612b1a565b505b7f4910fdfa16fed3260ed0e7147f7cc6da11a60208b5b9406d12a635614ffd9143805460ff16610e3257805460ff191660011781556040516001600160a01b038316602482015261241c90869060440160408051601f198184030181529190526020810180517bffffffffffffffffffffffffffffffffffffffffffffffffffffffff167f3659cfe600000000000000000000000000000000000000000000000000000000179052612b1a565b50805460ff191681557f360894a13ba1a3210667c828492db98dca3e2076cc3735a920a3ca505d382bbc546001600160a01b038381169116146124c75760405162461bcd60e51b815260206004820152602f60248201527f45524331393637557067726164653a207570677261646520627265616b73206660448201527f757274686572207570677261646573000000000000000000000000000000000060648201526084016108cd565b610e3285612c1c565b600054610100900460ff1661253b5760405162461bcd60e51b815260206004820152602b60248201527f496e697469616c697a61626c653a20636f6e7472616374206973206e6f74206960448201526a6e697469616c697a696e6760a81b60648201526084016108cd565b612543612c5c565b61254b612cd7565b612553612d5a565b61255b612dcd565b612563612e48565b6001610191819055604080518082019091528181527f7600000000000000000000000000000000000000000000000000000000000000602082015261146791612eb3565b603380546001600160a01b0383811673ffffffffffffffffffffffffffffffffffffffff19831681179093556040519116919082907f8be0079c531659141344cd1fd0a4f28419497f9722a3daafe3b4186f6b6457e090600090a35050565b61019d805460009182612618836139fd565b9190505550604051806101c0016040528061019d548152602001886001600160a01b03168152602001878152602001600081526020016000815260200160008152602001838152602001866001600160a01b031681526020018581526020018481526020014381526020016000151581526020016000151581526020016000151581525061019e600061019d5481526020019081526020016000206000820151816000015560208201518160010160006101000a8154816001600160a01b0302191690836001600160a01b0316021790555060408201518160020155606082015181600301556080820151816004015560a0820151816005015560c082015181600601908051906020019061272e929190613148565b5060e082015160078201805473ffffffffffffffffffffffffffffffffffffffff19166001600160a01b0390921691909117905561010082015160088201556101208201518051612789916009840191602090910190613148565b50610140820151600a820155610160820151600b90910180546101808401516101a0909401511515620100000262ff0000199415156101000261ff00199415159490941661ffff199092169190911792909217929092161790555061019d5461019f80546001810182556000919091527f393a60fc9175593e1a78e765b331de118c5f3515197c300f7c46d515f7ce93cf018190559695505050505050565b60606000612837836002613955565b61284290600261393d565b67ffffffffffffffff81111561285a5761285a61349a565b6040519080825280601f01601f191660200182016040528015612884576020820181803683370190505b5090507f3000000000000000000000000000000000000000000000000000000000000000816000815181106128bb576128bb6139e7565b60200101907effffffffffffffffffffffffffffffffffffffffffffffffffffffffffffff1916908160001a9053507f78000000000000000000000000000000000000000000000000000000000000008160018151811061291e5761291e6139e7565b60200101907effffffffffffffffffffffffffffffffffffffffffffffffffffffffffffff1916908160001a905350600061295a846002613955565b61296590600161393d565b90505b6001811115612a02577f303132333435363738396162636465660000000000000000000000000000000085600f16601081106129a6576129a66139e7565b1a60f81b8282815181106129bc576129bc6139e7565b60200101907effffffffffffffffffffffffffffffffffffffffffffffffffffffffffffff1916908160001a90535060049490941c936129fb81613b48565b9050612968565b508315612a515760405162461bcd60e51b815260206004820181905260248201527f537472696e67733a20686578206c656e67746820696e73756666696369656e7460448201526064016108cd565b9392505050565b803b612acc5760405162461bcd60e51b815260206004820152602d60248201527f455243313936373a206e657720696d706c656d656e746174696f6e206973206e60448201527f6f74206120636f6e74726163740000000000000000000000000000000000000060648201526084016108cd565b7f360894a13ba1a3210667c828492db98dca3e2076cc3735a920a3ca505d382bbc805473ffffffffffffffffffffffffffffffffffffffff19166001600160a01b0392909216919091179055565b6060823b612b905760405162461bcd60e51b815260206004820152602660248201527f416464726573733a2064656c65676174652063616c6c20746f206e6f6e2d636f60448201527f6e7472616374000000000000000000000000000000000000000000000000000060648201526084016108cd565b600080846001600160a01b031684604051612bab9190613b5f565b600060405180830381855af49150503d8060008114612be6576040519150601f19603f3d011682016040523d82523d6000602084013e612beb565b606091505b5091509150612c138282604051806060016040528060278152602001613b9e60279139612f26565b95945050505050565b612c2581612a58565b6040516001600160a01b038216907fbc7cd75a20ee27fd9adebab32041f755214dbc6bffa90cc0225b39da2e5c2d3b90600090a250565b600054610100900460ff16612cc75760405162461bcd60e51b815260206004820152602b60248201527f496e697469616c697a61626c653a20636f6e7472616374206973206e6f74206960448201526a6e697469616c697a696e6760a81b60648201526084016108cd565b612ccf612f5f565b611467612fca565b600054610100900460ff16612d425760405162461bcd60e51b815260206004820152602b60248201527f496e697469616c697a61626c653a20636f6e7472616374206973206e6f74206960448201526a6e697469616c697a696e6760a81b60648201526084016108cd565b612d4a612f5f565b612d52612f5f565b611467612f5f565b600054610100900460ff16612dc55760405162461bcd60e51b815260206004820152602b60248201527f496e697469616c697a61626c653a20636f6e7472616374206973206e6f74206960448201526a6e697469616c697a696e6760a81b60648201526084016108cd565b61146761303e565b600054610100900460ff16612e385760405162461bcd60e51b815260206004820152602b60248201527f496e697469616c697a61626c653a20636f6e7472616374206973206e6f74206960448201526a6e697469616c697a696e6760a81b60648201526084016108cd565b612e40612f5f565b6114676130b0565b600054610100900460ff16612d4a5760405162461bcd60e51b815260206004820152602b60248201527f496e697469616c697a61626c653a20636f6e7472616374206973206e6f74206960448201526a6e697469616c697a696e6760a81b60648201526084016108cd565b6109be8282604051602401612ec9929190613b7b565b60408051601f198184030181529190526020810180517bffffffffffffffffffffffffffffffffffffffffffffffffffffffff167f9710a9d000000000000000000000000000000000000000000000000000000000179052613127565b60608315612f35575081612a51565b825115612f455782518084602001fd5b8160405162461bcd60e51b81526004016108cd9190613b35565b600054610100900460ff166114675760405162461bcd60e51b815260206004820152602b60248201527f496e697469616c697a61626c653a20636f6e7472616374206973206e6f74206960448201526a6e697469616c697a696e6760a81b60648201526084016108cd565b600054610100900460ff166130355760405162461bcd60e51b815260206004820152602b60248201527f496e697469616c697a61626c653a20636f6e7472616374206973206e6f74206960448201526a6e697469616c697a696e6760a81b60648201526084016108cd565b611467336125a7565b600054610100900460ff166130a95760405162461bcd60e51b815260206004820152602b60248201527f496e697469616c697a61626c653a20636f6e7472616374206973206e6f74206960448201526a6e697469616c697a696e6760a81b60648201526084016108cd565b600160c955565b600054610100900460ff1661311b5760405162461bcd60e51b815260206004820152602b60248201527f496e697469616c697a61626c653a20636f6e7472616374206973206e6f74206960448201526a6e697469616c697a696e6760a81b60648201526084016108cd565b60fb805460ff19169055565b80516a636f6e736f6c652e6c6f67602083016000808483855afa5050505050565b82805461315490613887565b90600052602060002090601f01602090048101928261317657600085556131bc565b82601f1061318f57805160ff19168380011785556131bc565b828001600101855582156131bc579182015b828111156131bc5782518255916020019190600101906131a1565b506131c89291506131cc565b5090565b5b808211156131c857600081556001016131cd565b6000602082840312156131f357600080fd5b5035919050565b60005b838110156132155781810151838201526020016131fd565b83811115613224576000848401525b50505050565b600081518084526132428160208601602086016131fa565b601f01601f19169290920160200192915050565b8e81526001600160a01b038e1660208201528c60408201528b60608201528a60808201528960a08201526101c060c082015260006132986101c083018b61322a565b6001600160a01b038a1660e0840152886101008401528281036101208401526132c1818961322a565b915050856101408301526132da61016083018615159052565b9215156101808201529015156101a0909101529c9b505050505050505050505050565b60006020828403121561330f57600080fd5b81357fffffffff0000000000000000000000000000000000000000000000000000000081168114612a5157600080fd5b80356001600160a01b038116811461335657600080fd5b919050565b6000806040838503121561336e57600080fd5b6133778361333f565b946020939093013593505050565b6000806040838503121561339857600080fd5b823591506133a86020840161333f565b90509250929050565b6000602082840312156133c357600080fd5b612a518261333f565b600080600080608085870312156133e257600080fd5b6133eb8561333f565b9350602085013592506134006040860161333f565b9150606085013567ffffffffffffffff81111561341c57600080fd5b8501610100818803121561342f57600080fd5b939692955090935050565b634e487b7160e01b600052602160045260246000fd5b602081016006831061347257634e487b7160e01b600052602160045260246000fd5b91905290565b60006020828403121561348a57600080fd5b81358015158114612a5157600080fd5b634e487b7160e01b600052604160045260246000fd5b600080604083850312156134c357600080fd5b6134cc8361333f565b9150602083013567ffffffffffffffff808211156134e957600080fd5b818501915085601f8301126134fd57600080fd5b81358181111561350f5761350f61349a565b604051601f8201601f19908116603f011681019083821181831017156135375761353761349a565b8160405282815288602084870101111561355057600080fd5b8260208601602083013760006020848301015280955050505050509250929050565b6000806040838503121561358557600080fd5b50508035926020909101359150565b60006020808301818452808551808352604092508286019150828160051b87010184880160005b838110156136de577fffffffffffffffffffffffffffffffffffffffffffffffffffffffffffffffc089840301855281516101c0815185528882015161360b8a8701826001600160a01b03169052565b508188015185890152606080830151908601526080808301519086015260a0808301519086015260c08083015181870183905261364a8388018261322a565b9250505060e080830151613668828801826001600160a01b03169052565b50506101008281015190860152610120808301518683038288015261368d838261322a565b92505050610140808301518187015250610160808301516136b18288018215159052565b5050610180828101511515908601526101a0918201511515919094015293860193908601906001016135bb565b509098975050505050505050565b6000806000806080858703121561370257600080fd5b5050823594602084013594506040840135936060013592509050565b60008083601f84011261373057600080fd5b50813567ffffffffffffffff81111561374857600080fd5b60208301915083602082850101111561376057600080fd5b9250929050565b60008060008060008060008060c0898b03121561378357600080fd5b61378c8961333f565b9750602089013596506137a160408a0161333f565b955060608901359450608089013567ffffffffffffffff808211156137c557600080fd5b6137d18c838d0161371e565b909650945060a08b01359150808211156137ea57600080fd5b506137f78b828c0161371e565b999c989b5096995094979396929594505050565b60006101808e83528060208401526138258184018f61322a565b6001600160a01b039d8e1660408501529b8d166060840152505097909916608088015260a087019590955260c086019390935260e085019190915261010084015261012083015215156101408201529115156101609092019190915292915050565b600181811c9082168061389b57607f821691505b602082108114156138bc57634e487b7160e01b600052602260045260246000fd5b50919050565b60008083357fffffffffffffffffffffffffffffffffffffffffffffffffffffffffffffffe18436030181126138f757600080fd5b83018035915067ffffffffffffffff82111561391257600080fd5b60200191503681900382131561376057600080fd5b634e487b7160e01b600052601160045260246000fd5b6000821982111561395057613950613927565b500190565b600081600019048311821515161561396f5761396f613927565b500290565b60008261399157634e487b7160e01b600052601260045260246000fd5b500490565b6000602082840312156139a857600080fd5b5051919050565b6000602082840312156139c157600080fd5b815160068110612a5157600080fd5b6000828210156139e2576139e2613927565b500390565b634e487b7160e01b600052603260045260246000fd5b6000600019821415613a1157613a11613927565b5060010190565b600080835481600182811c915080831680613a3457607f831692505b6020808410821415613a5457634e487b7160e01b86526022600452602486fd5b818015613a685760018114613a7957613aa6565b60ff19861689528489019650613aa6565b60008a81526020902060005b86811015613a9e5781548b820152908501908301613a85565b505084890196505b509498975050505050505050565b7f416363657373436f6e74726f6c3a206163636f756e7420000000000000000000815260008351613aec8160178501602088016131fa565b7f206973206d697373696e6720726f6c65200000000000000000000000000000006017918401918201528351613b298160288401602088016131fa565b01602801949350505050565b602081526000612a51602083018461322a565b600081613b5757613b57613927565b506000190190565b60008251613b718184602087016131fa565b9190910192915050565b604081526000613b8e604083018561322a565b9050826020830152939250505056fe416464726573733a206c6f772d6c6576656c2064656c65676174652063616c6c206661696c6564a2646970667358221220b72a859ef568382dab0ebd5823af67f51d243a6bf980db5b5f59a08db1347c0864736f6c634300080b0033",
  "linkReferences": {},
  "deployedLinkReferences": {}
}