{
  "_format": "hh-sol-artifact-1",
  "contractName": "EtherZDAO",
  "sourceName": "contracts/ethereum/EtherZDAO.sol",
  "abi": [
    {
      "anonymous": false,
      "inputs": [
        {
          "indexed": false,
          "internalType": "address",
          "name": "previousAdmin",
          "type": "address"
        },
        {
          "indexed": false,
          "internalType": "address",
          "name": "newAdmin",
          "type": "address"
        }
      ],
      "name": "AdminChanged",
      "type": "event"
    },
    {
      "anonymous": false,
      "inputs": [
        {
          "indexed": true,
          "internalType": "address",
          "name": "beacon",
          "type": "address"
        }
      ],
      "name": "BeaconUpgraded",
      "type": "event"
    },
    {
      "anonymous": false,
      "inputs": [
        {
          "indexed": true,
          "internalType": "address",
          "name": "previousOwner",
          "type": "address"
        },
        {
          "indexed": true,
          "internalType": "address",
          "name": "newOwner",
          "type": "address"
        }
      ],
      "name": "OwnershipTransferred",
      "type": "event"
    },
    {
      "anonymous": false,
      "inputs": [
        {
          "indexed": false,
          "internalType": "address",
          "name": "account",
          "type": "address"
        }
      ],
      "name": "Paused",
      "type": "event"
    },
    {
      "anonymous": false,
      "inputs": [
        {
          "indexed": true,
          "internalType": "bytes32",
          "name": "role",
          "type": "bytes32"
        },
        {
          "indexed": true,
          "internalType": "bytes32",
          "name": "previousAdminRole",
          "type": "bytes32"
        },
        {
          "indexed": true,
          "internalType": "bytes32",
          "name": "newAdminRole",
          "type": "bytes32"
        }
      ],
      "name": "RoleAdminChanged",
      "type": "event"
    },
    {
      "anonymous": false,
      "inputs": [
        {
          "indexed": true,
          "internalType": "bytes32",
          "name": "role",
          "type": "bytes32"
        },
        {
          "indexed": true,
          "internalType": "address",
          "name": "account",
          "type": "address"
        },
        {
          "indexed": true,
          "internalType": "address",
          "name": "sender",
          "type": "address"
        }
      ],
      "name": "RoleGranted",
      "type": "event"
    },
    {
      "anonymous": false,
      "inputs": [
        {
          "indexed": true,
          "internalType": "bytes32",
          "name": "role",
          "type": "bytes32"
        },
        {
          "indexed": true,
          "internalType": "address",
          "name": "account",
          "type": "address"
        },
        {
          "indexed": true,
          "internalType": "address",
          "name": "sender",
          "type": "address"
        }
      ],
      "name": "RoleRevoked",
      "type": "event"
    },
    {
      "anonymous": false,
      "inputs": [
        {
          "indexed": false,
          "internalType": "address",
          "name": "account",
          "type": "address"
        }
      ],
      "name": "Unpaused",
      "type": "event"
    },
    {
      "anonymous": false,
      "inputs": [
        {
          "indexed": true,
          "internalType": "address",
          "name": "implementation",
          "type": "address"
        }
      ],
      "name": "Upgraded",
      "type": "event"
    },
    {
      "inputs": [],
      "name": "DEFAULT_ADMIN_ROLE",
      "outputs": [
        {
          "internalType": "bytes32",
          "name": "",
          "type": "bytes32"
        }
      ],
      "stateMutability": "view",
      "type": "function"
    },
    {
      "inputs": [
        {
          "internalType": "address",
          "name": "_zDAOChef",
          "type": "address"
        },
        {
          "internalType": "uint256",
          "name": "_zDAOId",
          "type": "uint256"
        },
        {
          "internalType": "address",
          "name": "_createdBy",
          "type": "address"
        },
        {
          "components": [
            {
              "internalType": "string",
              "name": "title",
              "type": "string"
            },
            {
              "internalType": "address",
              "name": "gnosisSafe",
              "type": "address"
            },
            {
              "internalType": "address",
              "name": "token",
              "type": "address"
            },
            {
              "internalType": "uint256",
              "name": "amount",
              "type": "uint256"
            },
            {
              "internalType": "bool",
              "name": "isRelativeMajority",
              "type": "bool"
            },
            {
              "internalType": "uint256",
              "name": "quorumVotes",
              "type": "uint256"
            }
          ],
          "internalType": "struct IEtherZDAOChef.ZDAOConfig",
          "name": "_zDAOConfig",
          "type": "tuple"
        }
      ],
      "name": "__ZDAO_init",
      "outputs": [],
      "stateMutability": "nonpayable",
      "type": "function"
    },
    {
      "inputs": [
        {
          "internalType": "address",
          "name": "",
          "type": "address"
        },
        {
          "internalType": "uint256",
          "name": "_proposalId",
          "type": "uint256"
        }
      ],
      "name": "cancelProposal",
      "outputs": [],
      "stateMutability": "nonpayable",
      "type": "function"
    },
    {
      "inputs": [
        {
          "internalType": "address",
          "name": "_createdBy",
          "type": "address"
        },
        {
          "internalType": "uint256",
          "name": "_startTimestamp",
          "type": "uint256"
        },
        {
          "internalType": "uint256",
          "name": "_endTimestamp",
          "type": "uint256"
        },
        {
          "internalType": "address",
          "name": "_target",
          "type": "address"
        },
        {
          "internalType": "uint256",
          "name": "_value",
          "type": "uint256"
        },
        {
          "internalType": "bytes",
          "name": "_data",
          "type": "bytes"
        },
        {
          "internalType": "bytes32",
          "name": "_ipfs",
          "type": "bytes32"
        }
      ],
      "name": "createProposal",
      "outputs": [
        {
          "internalType": "uint256",
          "name": "",
          "type": "uint256"
        }
      ],
      "stateMutability": "nonpayable",
      "type": "function"
    },
    {
      "inputs": [],
      "name": "destroyed",
      "outputs": [
        {
          "internalType": "bool",
          "name": "",
          "type": "bool"
        }
      ],
      "stateMutability": "view",
      "type": "function"
    },
    {
      "inputs": [
        {
          "internalType": "address",
          "name": "_executeBy",
          "type": "address"
        },
        {
          "internalType": "uint256",
          "name": "_proposalId",
          "type": "uint256"
        }
      ],
      "name": "executeProposal",
      "outputs": [],
      "stateMutability": "nonpayable",
      "type": "function"
    },
    {
      "inputs": [
        {
          "internalType": "bytes32",
          "name": "role",
          "type": "bytes32"
        }
      ],
      "name": "getRoleAdmin",
      "outputs": [
        {
          "internalType": "bytes32",
          "name": "",
          "type": "bytes32"
        }
      ],
      "stateMutability": "view",
      "type": "function"
    },
    {
      "inputs": [
        {
          "internalType": "bytes32",
          "name": "role",
          "type": "bytes32"
        },
        {
          "internalType": "address",
          "name": "account",
          "type": "address"
        }
      ],
      "name": "grantRole",
      "outputs": [],
      "stateMutability": "nonpayable",
      "type": "function"
    },
    {
      "inputs": [
        {
          "internalType": "bytes32",
          "name": "role",
          "type": "bytes32"
        },
        {
          "internalType": "address",
          "name": "account",
          "type": "address"
        }
      ],
      "name": "hasRole",
      "outputs": [
        {
          "internalType": "bool",
          "name": "",
          "type": "bool"
        }
      ],
      "stateMutability": "view",
      "type": "function"
    },
    {
      "inputs": [],
      "name": "lastProposalId",
      "outputs": [
        {
          "internalType": "uint256",
          "name": "",
          "type": "uint256"
        }
      ],
      "stateMutability": "view",
      "type": "function"
    },
    {
      "inputs": [
        {
          "internalType": "uint256",
          "name": "_startIndex",
          "type": "uint256"
        },
        {
          "internalType": "uint256",
          "name": "_endIndex",
          "type": "uint256"
        }
      ],
      "name": "listProposals",
      "outputs": [
        {
          "components": [
            {
              "internalType": "uint256",
              "name": "proposalId",
              "type": "uint256"
            },
            {
              "internalType": "address",
              "name": "createdBy",
              "type": "address"
            },
            {
              "internalType": "uint256",
              "name": "startTimestamp",
              "type": "uint256"
            },
            {
              "internalType": "uint256",
              "name": "endTimestamp",
              "type": "uint256"
            },
            {
              "internalType": "uint256",
              "name": "yes",
              "type": "uint256"
            },
            {
              "internalType": "uint256",
              "name": "no",
              "type": "uint256"
            },
            {
              "internalType": "uint256",
              "name": "reserved",
              "type": "uint256"
            },
            {
              "internalType": "bytes32",
              "name": "ipfs",
              "type": "bytes32"
            },
            {
              "internalType": "address",
              "name": "target",
              "type": "address"
            },
            {
              "internalType": "uint256",
              "name": "value",
              "type": "uint256"
            },
            {
              "internalType": "bytes",
              "name": "data",
              "type": "bytes"
            },
            {
              "internalType": "uint256",
              "name": "snapshot",
              "type": "uint256"
            },
            {
              "internalType": "bool",
              "name": "executed",
              "type": "bool"
            },
            {
              "internalType": "bool",
              "name": "canceled",
              "type": "bool"
            }
          ],
          "internalType": "struct IEtherZDAO.Proposal[]",
          "name": "",
          "type": "tuple[]"
        }
      ],
      "stateMutability": "view",
      "type": "function"
    },
    {
      "inputs": [],
      "name": "numberOfProposals",
      "outputs": [
        {
          "internalType": "uint256",
          "name": "",
          "type": "uint256"
        }
      ],
      "stateMutability": "view",
      "type": "function"
    },
    {
      "inputs": [],
      "name": "owner",
      "outputs": [
        {
          "internalType": "address",
          "name": "",
          "type": "address"
        }
      ],
      "stateMutability": "view",
      "type": "function"
    },
    {
      "inputs": [],
      "name": "paused",
      "outputs": [
        {
          "internalType": "bool",
          "name": "",
          "type": "bool"
        }
      ],
      "stateMutability": "view",
      "type": "function"
    },
    {
      "inputs": [
        {
          "internalType": "uint256",
          "name": "",
          "type": "uint256"
        }
      ],
      "name": "proposalIds",
      "outputs": [
        {
          "internalType": "uint256",
          "name": "",
          "type": "uint256"
        }
      ],
      "stateMutability": "view",
      "type": "function"
    },
    {
      "inputs": [
        {
          "internalType": "uint256",
          "name": "",
          "type": "uint256"
        }
      ],
      "name": "proposals",
      "outputs": [
        {
          "internalType": "uint256",
          "name": "proposalId",
          "type": "uint256"
        },
        {
          "internalType": "address",
          "name": "createdBy",
          "type": "address"
        },
        {
          "internalType": "uint256",
          "name": "startTimestamp",
          "type": "uint256"
        },
        {
          "internalType": "uint256",
          "name": "endTimestamp",
          "type": "uint256"
        },
        {
          "internalType": "uint256",
          "name": "yes",
          "type": "uint256"
        },
        {
          "internalType": "uint256",
          "name": "no",
          "type": "uint256"
        },
        {
          "internalType": "uint256",
          "name": "reserved",
          "type": "uint256"
        },
        {
          "internalType": "bytes32",
          "name": "ipfs",
          "type": "bytes32"
        },
        {
          "internalType": "address",
          "name": "target",
          "type": "address"
        },
        {
          "internalType": "uint256",
          "name": "value",
          "type": "uint256"
        },
        {
          "internalType": "bytes",
          "name": "data",
          "type": "bytes"
        },
        {
          "internalType": "uint256",
          "name": "snapshot",
          "type": "uint256"
        },
        {
          "internalType": "bool",
          "name": "executed",
          "type": "bool"
        },
        {
          "internalType": "bool",
          "name": "canceled",
          "type": "bool"
        }
      ],
      "stateMutability": "view",
      "type": "function"
    },
    {
      "inputs": [],
      "name": "renounceOwnership",
      "outputs": [],
      "stateMutability": "nonpayable",
      "type": "function"
    },
    {
      "inputs": [
        {
          "internalType": "bytes32",
          "name": "role",
          "type": "bytes32"
        },
        {
          "internalType": "address",
          "name": "account",
          "type": "address"
        }
      ],
      "name": "renounceRole",
      "outputs": [],
      "stateMutability": "nonpayable",
      "type": "function"
    },
    {
      "inputs": [
        {
          "internalType": "bytes32",
          "name": "role",
          "type": "bytes32"
        },
        {
          "internalType": "address",
          "name": "account",
          "type": "address"
        }
      ],
      "name": "revokeRole",
      "outputs": [],
      "stateMutability": "nonpayable",
      "type": "function"
    },
    {
      "inputs": [
        {
          "internalType": "bool",
          "name": "_destroyed",
          "type": "bool"
        }
      ],
      "name": "setDestroyed",
      "outputs": [],
      "stateMutability": "nonpayable",
      "type": "function"
    },
    {
      "inputs": [
        {
          "internalType": "address",
          "name": "_gnosisSafe",
          "type": "address"
        }
      ],
      "name": "setGnosisSafe",
      "outputs": [],
      "stateMutability": "nonpayable",
      "type": "function"
    },
    {
      "inputs": [
        {
          "internalType": "uint256",
          "name": "_proposalId",
          "type": "uint256"
        },
        {
          "internalType": "uint256",
          "name": "_yes",
          "type": "uint256"
        },
        {
          "internalType": "uint256",
          "name": "_no",
          "type": "uint256"
        }
      ],
      "name": "setVoteResult",
      "outputs": [],
      "stateMutability": "nonpayable",
      "type": "function"
    },
    {
      "inputs": [
        {
          "internalType": "address",
          "name": "_token",
          "type": "address"
        },
        {
          "internalType": "uint256",
          "name": "_amount",
          "type": "uint256"
        }
      ],
      "name": "setVotingToken",
      "outputs": [],
      "stateMutability": "nonpayable",
      "type": "function"
    },
    {
      "inputs": [
        {
          "internalType": "uint256",
          "name": "_proposalId",
          "type": "uint256"
        }
      ],
      "name": "state",
      "outputs": [
        {
          "internalType": "enum IEtherZDAO.ProposalState",
          "name": "",
          "type": "uint8"
        }
      ],
      "stateMutability": "view",
      "type": "function"
    },
    {
      "inputs": [
        {
          "internalType": "bytes4",
          "name": "interfaceId",
          "type": "bytes4"
        }
      ],
      "name": "supportsInterface",
      "outputs": [
        {
          "internalType": "bool",
          "name": "",
          "type": "bool"
        }
      ],
      "stateMutability": "view",
      "type": "function"
    },
    {
      "inputs": [
        {
          "internalType": "address",
          "name": "newOwner",
          "type": "address"
        }
      ],
      "name": "transferOwnership",
      "outputs": [],
      "stateMutability": "nonpayable",
      "type": "function"
    },
    {
      "inputs": [
        {
          "internalType": "address",
          "name": "newImplementation",
          "type": "address"
        }
      ],
      "name": "upgradeTo",
      "outputs": [],
      "stateMutability": "nonpayable",
      "type": "function"
    },
    {
      "inputs": [
        {
          "internalType": "address",
          "name": "newImplementation",
          "type": "address"
        },
        {
          "internalType": "bytes",
          "name": "data",
          "type": "bytes"
        }
      ],
      "name": "upgradeToAndCall",
      "outputs": [],
      "stateMutability": "payable",
      "type": "function"
    },
    {
      "inputs": [],
      "name": "version",
      "outputs": [
        {
          "internalType": "uint256",
          "name": "",
          "type": "uint256"
        }
      ],
      "stateMutability": "view",
      "type": "function"
    },
    {
      "inputs": [],
      "name": "zDAOChef",
      "outputs": [
        {
          "internalType": "address",
          "name": "",
          "type": "address"
        }
      ],
      "stateMutability": "view",
      "type": "function"
    },
    {
      "inputs": [],
      "name": "zDAOInfo",
      "outputs": [
        {
          "internalType": "uint256",
          "name": "zDAOId",
          "type": "uint256"
        },
        {
          "internalType": "string",
          "name": "title",
          "type": "string"
        },
        {
          "internalType": "address",
          "name": "createdBy",
          "type": "address"
        },
        {
          "internalType": "address",
          "name": "gnosisSafe",
          "type": "address"
        },
        {
          "internalType": "address",
          "name": "token",
          "type": "address"
        },
        {
          "internalType": "uint256",
          "name": "amount",
          "type": "uint256"
        },
        {
          "internalType": "bool",
          "name": "isRelativeMajority",
          "type": "bool"
        },
        {
          "internalType": "uint256",
          "name": "quorumVotes",
          "type": "uint256"
        },
        {
          "internalType": "uint256",
          "name": "snapshot",
          "type": "uint256"
        },
        {
          "internalType": "bool",
          "name": "destroyed",
          "type": "bool"
        }
      ],
      "stateMutability": "view",
      "type": "function"
    },
    {
      "inputs": [],
      "name": "zDAOOwner",
      "outputs": [
        {
          "internalType": "address",
          "name": "",
          "type": "address"
        }
      ],
      "stateMutability": "view",
      "type": "function"
    }
  ],
  "bytecode": "0x60a06040523060805234801561001457600080fd5b5060805161383661004560003960008181610a4101528181610ad701528181610d340152610dca01526138366000f3fe6080604052600436106101e35760003560e01c8063715018a6116101025780639b30678e11610095578063c3085a3e11610064578063c3085a3e146105bf578063d547741f146105df578063d8191e6c146105ff578063f2fde38b1461062a57600080fd5b80639b30678e1461054a5780639b644a231461056a578063a217fddf1461058a578063bfc426451461059f57600080fd5b80638d7af473116100d15780638d7af473146104af5780638da5cb5b146104c557806390bfeab3146104e357806391d148541461050457600080fd5b8063715018a61461043657806374cb30411461044b57806376a5a3c3146104625780637f6dda141461048257600080fd5b806336568abe1161017a5780634f1ef286116101495780634f1ef286146103d457806353350755146103e757806354fd4d50146104075780635c975abb1461041e57600080fd5b806336568abe146103475780633659cfe6146103675780633e4f49e614610387578063472858b4146103b457600080fd5b806320598ae4116101b657806320598ae4146102b0578063248a9ca3146102d05780632f2ff15d1461030e578063359cbbc91461032e57600080fd5b8063013cf08b146101e857806301ffc9a71461022b578063116b1a091461025b578063137f415b1461028e575b600080fd5b3480156101f457600080fd5b50610208610203366004612ed1565b61064a565b6040516102229e9d9c9b9a99989796959493929190612f46565b60405180910390f35b34801561023757600080fd5b5061024b610246366004612fe0565b610754565b6040519015158152602001610222565b34801561026757600080fd5b50610194546001600160a01b03165b6040516001600160a01b039091168152602001610222565b34801561029a57600080fd5b506102ae6102a936600461303e565b6107ed565b005b3480156102bc57600080fd5b506102ae6102cb366004613068565b610873565b3480156102dc57600080fd5b506103006102eb366004612ed1565b60009081526097602052604090206001015490565b604051908152602001610222565b34801561031a57600080fd5b506102ae610329366004613094565b61097f565b34801561033a57600080fd5b5061019b5460ff1661024b565b34801561035357600080fd5b506102ae610362366004613094565b6109aa565b34801561037357600080fd5b506102ae6103823660046130c0565b610a36565b34801561039357600080fd5b506103a76103a2366004612ed1565b610bd4565b60405161022291906130f1565b3480156103c057600080fd5b506102ae6103cf366004613119565b610cc9565b6102ae6103e2366004613151565b610d29565b3480156103f357600080fd5b506102ae61040236600461303e565b610eb4565b34801561041357600080fd5b506103006101915481565b34801561042a57600080fd5b5060fb5460ff1661024b565b34801561044257600080fd5b506102ae611108565b34801561045757600080fd5b5061030061019c5481565b34801561046e57600080fd5b5061030061047d366004613213565b61116e565b34801561048e57600080fd5b506104a261049d3660046132cd565b611343565b60405161022291906132ef565b3480156104bb57600080fd5b5061019c54610300565b3480156104d157600080fd5b506033546001600160a01b0316610276565b3480156104ef57600080fd5b5061019f54610276906001600160a01b031681565b34801561051057600080fd5b5061024b61051f366004613094565b60009182526097602090815260408084206001600160a01b0393909316845291905290205460ff1690565b34801561055657600080fd5b506102ae61056536600461342e565b611724565b34801561057657600080fd5b50610300610585366004612ed1565b6119d7565b34801561059657600080fd5b50610300600081565b3480156105ab57600080fd5b506102ae6105ba36600461303e565b6119f9565b3480156105cb57600080fd5b506102ae6105da3660046130c0565b611c9b565b3480156105eb57600080fd5b506102ae6105fa366004613094565b611d17565b34801561060b57600080fd5b50610614611d3d565b6040516102229a9998979695949392919061349b565b34801561063657600080fd5b506102ae6106453660046130c0565b611e1f565b61019d60205260009081526040902080546001820154600283015460038401546004850154600586015460068701546007880154600889015460098a0154600a8b0180549a9b6001600160a01b039a8b169b999a98999798969795969495939094169391926106b890613506565b80601f01602080910402602001604051908101604052809291908181526020018280546106e490613506565b80156107315780601f1061070657610100808354040283529160200191610731565b820191906000526020600020905b81548152906001019060200180831161071457829003601f168201915b50505050600b830154600c9093015491929160ff8082169250610100909104168e565b60007fffffffff0000000000000000000000000000000000000000000000000000000082167f7965db0b0000000000000000000000000000000000000000000000000000000014806107e757507f01ffc9a7000000000000000000000000000000000000000000000000000000007fffffffff000000000000000000000000000000000000000000000000000000008316145b92915050565b61019f546001600160a01b0316331461083e5760405162461bcd60e51b815260206004820152600e60248201526d2737ba1030902d2220a7a1b432b360911b60448201526064015b60405180910390fd5b610196805473ffffffffffffffffffffffffffffffffffffffff19166001600160a01b03939093169290921790915561019755565b61019f546001600160a01b031633146108bf5760405162461bcd60e51b815260206004820152600e60248201526d2737ba1030902d2220a7a1b432b360911b6044820152606401610835565b826000811180156108d3575061019c548111155b61090e5760405162461bcd60e51b815260206004820152600c60248201526b496e76616c6964207a44414f60a01b6044820152606401610835565b600084815261019d602052604090208054851461096d5760405162461bcd60e51b815260206004820152601060248201527f496e76616c69642070726f706f73616c000000000000000000000000000000006044820152606401610835565b60048101939093555060059091015550565b60008281526097602052604090206001015461099b8133611efe565b6109a58383611f7e565b505050565b6001600160a01b0381163314610a285760405162461bcd60e51b815260206004820152602f60248201527f416363657373436f6e74726f6c3a2063616e206f6e6c792072656e6f756e636560448201527f20726f6c657320666f722073656c6600000000000000000000000000000000006064820152608401610835565b610a328282612020565b5050565b306001600160a01b037f0000000000000000000000000000000000000000000000000000000000000000161415610ad55760405162461bcd60e51b815260206004820152602c60248201527f46756e6374696f6e206d7573742062652063616c6c6564207468726f7567682060448201527f64656c656761746563616c6c00000000000000000000000000000000000000006064820152608401610835565b7f00000000000000000000000000000000000000000000000000000000000000006001600160a01b0316610b307f360894a13ba1a3210667c828492db98dca3e2076cc3735a920a3ca505d382bbc546001600160a01b031690565b6001600160a01b031614610bac5760405162461bcd60e51b815260206004820152602c60248201527f46756e6374696f6e206d7573742062652063616c6c6564207468726f7567682060448201527f6163746976652070726f787900000000000000000000000000000000000000006064820152608401610835565b610bb5816120a3565b60408051600080825260208201909252610bd1918391906120fd565b50565b600081600081118015610bea575061019c548111155b610c255760405162461bcd60e51b815260206004820152600c60248201526b496e76616c6964207a44414f60a01b6044820152606401610835565b600083815261019d60205260409020600c810154610100900460ff1615610c50576002925050610cc3565b80600201544211610c65576000925050610cc3565b80600301544211610c7a576001925050610cc3565b80600501548160040154111580610c975750610199546004820154105b15610ca6576003925050610cc3565b600c81015460ff1615610cbd576005925050610cc3565b60049250505b50919050565b61019f546001600160a01b03163314610d155760405162461bcd60e51b815260206004820152600e60248201526d2737ba1030902d2220a7a1b432b360911b6044820152606401610835565b61019b805460ff1916911515919091179055565b306001600160a01b037f0000000000000000000000000000000000000000000000000000000000000000161415610dc85760405162461bcd60e51b815260206004820152602c60248201527f46756e6374696f6e206d7573742062652063616c6c6564207468726f7567682060448201527f64656c656761746563616c6c00000000000000000000000000000000000000006064820152608401610835565b7f00000000000000000000000000000000000000000000000000000000000000006001600160a01b0316610e237f360894a13ba1a3210667c828492db98dca3e2076cc3735a920a3ca505d382bbc546001600160a01b031690565b6001600160a01b031614610e9f5760405162461bcd60e51b815260206004820152602c60248201527f46756e6374696f6e206d7573742062652063616c6c6564207468726f7567682060448201527f6163746976652070726f787900000000000000000000000000000000000000006064820152608401610835565b610ea8826120a3565b610a32828260016120fd565b61019f546001600160a01b03163314610f005760405162461bcd60e51b815260206004820152600e60248201526d2737ba1030902d2220a7a1b432b360911b6044820152606401610835565b61019b5460ff1615610f545760405162461bcd60e51b815260206004820152601160248201527f416c72656164792064657374726f7965640000000000000000000000000000006044820152606401610835565b80600081118015610f68575061019c548111155b610fa35760405162461bcd60e51b815260206004820152600c60248201526b496e76616c6964207a44414f60a01b6044820152606401610835565b6040517f3e4f49e6000000000000000000000000000000000000000000000000000000008152600481018390526000903090633e4f49e690602401602060405180830381865afa158015610ffb573d6000803e3d6000fd5b505050506040513d601f19601f8201168201806040525081019061101f919061353b565b90506005816005811115611035576110356130db565b14156110835760405162461bcd60e51b815260206004820181905260248201527f43616e206e6f742063616e63656c2065786563757465642070726f706f73616c6044820152606401610835565b6000816005811115611097576110976130db565b146110e45760405162461bcd60e51b815260206004820152601660248201527f4e6f7420612070656e64696e672070726f706f73616c000000000000000000006044820152606401610835565b5050600090815261019d60205260409020600c01805461ff00191661010017905550565b6033546001600160a01b031633146111625760405162461bcd60e51b815260206004820181905260248201527f4f776e61626c653a2063616c6c6572206973206e6f7420746865206f776e65726044820152606401610835565b61116c60006122ba565b565b61019f546000906001600160a01b031633146111bd5760405162461bcd60e51b815260206004820152600e60248201526d2737ba1030902d2220a7a1b432b360911b6044820152606401610835565b61019b5460ff16156112115760405162461bcd60e51b815260206004820152601160248201527f416c72656164792064657374726f7965640000000000000000000000000000006044820152606401610835565b61019754610196546040517f70a082310000000000000000000000000000000000000000000000000000000081526001600160a01b03808d1660048301528c939216906370a0823190602401602060405180830381865afa15801561127a573d6000803e3d6000fd5b505050506040513d601f19601f8201168201806040525081019061129e919061355c565b10156112ec5760405162461bcd60e51b815260206004820152601860248201527f4e6f7420612076616c696420746f6b656e20686f6c64657200000000000000006044820152606401610835565b60006113348b8b8b8b8b8b8b8080601f0160208091040260200160405190810160405280939291908181526020018383808284376000920191909152508d9250612319915050565b9b9a5050505050505050505050565b6060600083116113955760405162461bcd60e51b815260206004820152601660248201527f73686f756c6420737461727420696e646578203e2030000000000000000000006044820152606401610835565b818311156113e55760405162461bcd60e51b815260206004820152601960248201527f73686f756c6420737461727420696e646578203c3d20656e64000000000000006044820152606401610835565b61019c548311156114385760405162461bcd60e51b815260206004820152601c60248201527f73686f756c6420737461727420696e646578203c3d206c656e677468000000006044820152606401610835565b61019c5482111561148b5760405162461bcd60e51b815260206004820152601a60248201527f73686f756c6420656e6420696e646578203c3d206c656e6774680000000000006044820152606401610835565b6000611497848461358b565b6114a29060016135a2565b905060008167ffffffffffffffff8111156114bf576114bf61313b565b60405190808252806020026020018201604052801561157b57816020015b611568604051806101c001604052806000815260200160006001600160a01b0316815260200160008152602001600081526020016000815260200160008152602001600081526020016000801916815260200160006001600160a01b031681526020016000815260200160608152602001600081526020016000151581526020016000151581525090565b8152602001906001900390816114dd5790505b50905060005b8281101561171b5761019d600061159883896135a2565b8152602080820192909252604090810160002081516101c0810183528154815260018201546001600160a01b03908116948201949094526002820154928101929092526003810154606083015260048101546080830152600581015460a0830152600681015460c0830152600781015460e083015260088101549092166101008201526009820154610120820152600a820180549192916101408401919061163f90613506565b80601f016020809104026020016040519081016040528092919081815260200182805461166b90613506565b80156116b85780601f1061168d576101008083540402835291602001916116b8565b820191906000526020600020905b81548152906001019060200180831161169b57829003601f168201915b5050509183525050600b8201546020820152600c9091015460ff8082161515604084015261010090910416151560609091015282518390839081106116ff576116ff6135ba565b602002602001018190525080611714906135d0565b9050611581565b50949350505050565b600054610100900460ff1661173f5760005460ff1615611743565b303b155b6117b55760405162461bcd60e51b815260206004820152602e60248201527f496e697469616c697a61626c653a20636f6e747261637420697320616c72656160448201527f647920696e697469616c697a65640000000000000000000000000000000000006064820152608401610835565b600054610100900460ff161580156117d7576000805461ffff19166101011790555b6117df612511565b61019f805473ffffffffffffffffffffffffffffffffffffffff19166001600160a01b0387161790556040805161014081019091528481526020810161182584806135eb565b8080601f0160208091040260200160405190810160405280939291908181526020018383808284376000920191909152505050908252506001600160a01b038516602080830191909152604091820191611884919086019086016130c0565b6001600160a01b031681526020016118a260608501604086016130c0565b6001600160a01b03168152606084013560208201526040016118ca60a0850160808601613119565b151581526020018360a00135815260200143815260200160001515815250610192600082015181600001556020820151816001019080519060200190611911929190612e38565b5060408201516002820180546001600160a01b0392831673ffffffffffffffffffffffffffffffffffffffff19918216179091556060840151600384018054918416918316919091179055608084015160048401805491909316911617905560a0820151600582015560c082015160068201805491151560ff1992831617905560e08301516007830155610100830151600883015561012090920151600990910180549115159190921617905580156119d0576000805461ff00191690555b5050505050565b61019e81815481106119e857600080fd5b600091825260209091200154905081565b61019f546001600160a01b03163314611a455760405162461bcd60e51b815260206004820152600e60248201526d2737ba1030902d2220a7a1b432b360911b6044820152606401610835565b61019b5460ff1615611a995760405162461bcd60e51b815260206004820152601160248201527f416c72656164792064657374726f7965640000000000000000000000000000006044820152606401610835565b80600081118015611aad575061019c548111155b611ae85760405162461bcd60e51b815260206004820152600c60248201526b496e76616c6964207a44414f60a01b6044820152606401610835565b6040517f3e4f49e6000000000000000000000000000000000000000000000000000000008152600481018390526000903090633e4f49e690602401602060405180830381865afa158015611b40573d6000803e3d6000fd5b505050506040513d601f19601f82011682018060405250810190611b64919061353b565b90506004816005811115611b7a57611b7a6130db565b14611bc75760405162461bcd60e51b815260206004820152601860248201527f4e6f742061207375636365656465642070726f706f73616c00000000000000006044820152606401610835565b600083815261019d60205260408082206008810154600982015492519193926001600160a01b0390911691611c0090600a860190613657565b60006040518083038185875af1925050503d8060008114611c3d576040519150601f19603f3d011682016040523d82523d6000602084013e611c42565b606091505b5050905080611c935760405162461bcd60e51b815260206004820152601e60248201527f457865637574696f6e207472616e73616374696f6e20726576657274656400006044820152606401610835565b505050505050565b61019f546001600160a01b03163314611ce75760405162461bcd60e51b815260206004820152600e60248201526d2737ba1030902d2220a7a1b432b360911b6044820152606401610835565b610195805473ffffffffffffffffffffffffffffffffffffffff19166001600160a01b0392909216919091179055565b600082815260976020526040902060010154611d338133611efe565b6109a58383612020565b61019280546101938054919291611d5390613506565b80601f0160208091040260200160405190810160405280929190818152602001828054611d7f90613506565b8015611dcc5780601f10611da157610100808354040283529160200191611dcc565b820191906000526020600020905b815481529060010190602001808311611daf57829003601f168201915b50505050600283015460038401546004850154600586015460068701546007880154600889015460099099015497986001600160a01b039687169895871697509590931694919360ff918216939291168a565b6033546001600160a01b03163314611e795760405162461bcd60e51b815260206004820181905260248201527f4f776e61626c653a2063616c6c6572206973206e6f7420746865206f776e65726044820152606401610835565b6001600160a01b038116611ef55760405162461bcd60e51b815260206004820152602660248201527f4f776e61626c653a206e6577206f776e657220697320746865207a65726f206160448201527f64647265737300000000000000000000000000000000000000000000000000006064820152608401610835565b610bd1816122ba565b60008281526097602090815260408083206001600160a01b038516845290915290205460ff16610a3257611f3c816001600160a01b031660146125ac565b611f478360206125ac565b604051602001611f589291906136f3565b60408051601f198184030181529082905262461bcd60e51b825261083591600401613774565b60008281526097602090815260408083206001600160a01b038516845290915290205460ff16610a325760008281526097602090815260408083206001600160a01b03851684529091529020805460ff19166001179055611fdc3390565b6001600160a01b0316816001600160a01b0316837f2f8788117e7eff1d82e926ec794901d17c78024a50270940304540a733656f0d60405160405180910390a45050565b60008281526097602090815260408083206001600160a01b038516845290915290205460ff1615610a325760008281526097602090815260408083206001600160a01b0385168085529252808320805460ff1916905551339285917ff6391f5c32d9c69d2a47ea670b442974b53935d1edc7fd64eb21e047a839171b9190a45050565b6033546001600160a01b03163314610bd15760405162461bcd60e51b815260206004820181905260248201527f4f776e61626c653a2063616c6c6572206973206e6f7420746865206f776e65726044820152606401610835565b60006121307f360894a13ba1a3210667c828492db98dca3e2076cc3735a920a3ca505d382bbc546001600160a01b031690565b905061213b846127dc565b6000835111806121485750815b1561215957612157848461289e565b505b7f4910fdfa16fed3260ed0e7147f7cc6da11a60208b5b9406d12a635614ffd9143805460ff166119d057805460ff191660011781556040516001600160a01b038316602482015261220690869060440160408051601f198184030181529190526020810180517bffffffffffffffffffffffffffffffffffffffffffffffffffffffff167f3659cfe60000000000000000000000000000000000000000000000000000000017905261289e565b50805460ff191681557f360894a13ba1a3210667c828492db98dca3e2076cc3735a920a3ca505d382bbc546001600160a01b038381169116146122b15760405162461bcd60e51b815260206004820152602f60248201527f45524331393637557067726164653a207570677261646520627265616b73206660448201527f75727468657220757067726164657300000000000000000000000000000000006064820152608401610835565b6119d0856129a0565b603380546001600160a01b0383811673ffffffffffffffffffffffffffffffffffffffff19831681179093556040519116919082907f8be0079c531659141344cd1fd0a4f28419497f9722a3daafe3b4186f6b6457e090600090a35050565b61019c80546000918261232b836135d0565b9190505550604051806101c0016040528061019c548152602001896001600160a01b03168152602001888152602001878152602001600081526020016000815260200160008152602001838152602001866001600160a01b031681526020018581526020018481526020014381526020016000151581526020016000151581525061019d600061019c5481526020019081526020016000206000820151816000015560208201518160010160006101000a8154816001600160a01b0302191690836001600160a01b0316021790555060408201518160020155606082015181600301556080820151816004015560a0820151816005015560c0820151816006015560e082015181600701556101008201518160080160006101000a8154816001600160a01b0302191690836001600160a01b03160217905550610120820151816009015561014082015181600a01908051906020019061248c929190612e38565b50610160820151600b820155610180820151600c90910180546101a09093015115156101000261ff00199215159290921661ffff19909316929092171790555061019c5461019e80546001810182556000919091527fe182ec4162b2bb087af6d462e45917a32b2b0170bcaf1db406b2ae4590b6953b01819055979650505050505050565b600054610100900460ff1661257c5760405162461bcd60e51b815260206004820152602b60248201527f496e697469616c697a61626c653a20636f6e7472616374206973206e6f74206960448201526a6e697469616c697a696e6760a81b6064820152608401610835565b6125846129e0565b61258c612a5b565b612594612ade565b61259c612b51565b6125a4612bcc565b600161019155565b606060006125bb836002613787565b6125c69060026135a2565b67ffffffffffffffff8111156125de576125de61313b565b6040519080825280601f01601f191660200182016040528015612608576020820181803683370190505b5090507f30000000000000000000000000000000000000000000000000000000000000008160008151811061263f5761263f6135ba565b60200101907effffffffffffffffffffffffffffffffffffffffffffffffffffffffffffff1916908160001a9053507f7800000000000000000000000000000000000000000000000000000000000000816001815181106126a2576126a26135ba565b60200101907effffffffffffffffffffffffffffffffffffffffffffffffffffffffffffff1916908160001a90535060006126de846002613787565b6126e99060016135a2565b90505b6001811115612786577f303132333435363738396162636465660000000000000000000000000000000085600f166010811061272a5761272a6135ba565b1a60f81b828281518110612740576127406135ba565b60200101907effffffffffffffffffffffffffffffffffffffffffffffffffffffffffffff1916908160001a90535060049490941c9361277f816137a6565b90506126ec565b5083156127d55760405162461bcd60e51b815260206004820181905260248201527f537472696e67733a20686578206c656e67746820696e73756666696369656e746044820152606401610835565b9392505050565b803b6128505760405162461bcd60e51b815260206004820152602d60248201527f455243313936373a206e657720696d706c656d656e746174696f6e206973206e60448201527f6f74206120636f6e7472616374000000000000000000000000000000000000006064820152608401610835565b7f360894a13ba1a3210667c828492db98dca3e2076cc3735a920a3ca505d382bbc805473ffffffffffffffffffffffffffffffffffffffff19166001600160a01b0392909216919091179055565b6060823b6129145760405162461bcd60e51b815260206004820152602660248201527f416464726573733a2064656c65676174652063616c6c20746f206e6f6e2d636f60448201527f6e747261637400000000000000000000000000000000000000000000000000006064820152608401610835565b600080846001600160a01b03168460405161292f91906137bd565b600060405180830381855af49150503d806000811461296a576040519150601f19603f3d011682016040523d82523d6000602084013e61296f565b606091505b509150915061299782826040518060600160405280602781526020016137da60279139612c37565b95945050505050565b6129a9816127dc565b6040516001600160a01b038216907fbc7cd75a20ee27fd9adebab32041f755214dbc6bffa90cc0225b39da2e5c2d3b90600090a250565b600054610100900460ff16612a4b5760405162461bcd60e51b815260206004820152602b60248201527f496e697469616c697a61626c653a20636f6e7472616374206973206e6f74206960448201526a6e697469616c697a696e6760a81b6064820152608401610835565b612a53612c70565b61116c612cdb565b600054610100900460ff16612ac65760405162461bcd60e51b815260206004820152602b60248201527f496e697469616c697a61626c653a20636f6e7472616374206973206e6f74206960448201526a6e697469616c697a696e6760a81b6064820152608401610835565b612ace612c70565b612ad6612c70565b61116c612c70565b600054610100900460ff16612b495760405162461bcd60e51b815260206004820152602b60248201527f496e697469616c697a61626c653a20636f6e7472616374206973206e6f74206960448201526a6e697469616c697a696e6760a81b6064820152608401610835565b61116c612d4f565b600054610100900460ff16612bbc5760405162461bcd60e51b815260206004820152602b60248201527f496e697469616c697a61626c653a20636f6e7472616374206973206e6f74206960448201526a6e697469616c697a696e6760a81b6064820152608401610835565b612bc4612c70565b61116c612dc1565b600054610100900460ff16612ace5760405162461bcd60e51b815260206004820152602b60248201527f496e697469616c697a61626c653a20636f6e7472616374206973206e6f74206960448201526a6e697469616c697a696e6760a81b6064820152608401610835565b60608315612c465750816127d5565b825115612c565782518084602001fd5b8160405162461bcd60e51b81526004016108359190613774565b600054610100900460ff1661116c5760405162461bcd60e51b815260206004820152602b60248201527f496e697469616c697a61626c653a20636f6e7472616374206973206e6f74206960448201526a6e697469616c697a696e6760a81b6064820152608401610835565b600054610100900460ff16612d465760405162461bcd60e51b815260206004820152602b60248201527f496e697469616c697a61626c653a20636f6e7472616374206973206e6f74206960448201526a6e697469616c697a696e6760a81b6064820152608401610835565b61116c336122ba565b600054610100900460ff16612dba5760405162461bcd60e51b815260206004820152602b60248201527f496e697469616c697a61626c653a20636f6e7472616374206973206e6f74206960448201526a6e697469616c697a696e6760a81b6064820152608401610835565b600160c955565b600054610100900460ff16612e2c5760405162461bcd60e51b815260206004820152602b60248201527f496e697469616c697a61626c653a20636f6e7472616374206973206e6f74206960448201526a6e697469616c697a696e6760a81b6064820152608401610835565b60fb805460ff19169055565b828054612e4490613506565b90600052602060002090601f016020900481019282612e665760008555612eac565b82601f10612e7f57805160ff1916838001178555612eac565b82800160010185558215612eac579182015b82811115612eac578251825591602001919060010190612e91565b50612eb8929150612ebc565b5090565b5b80821115612eb85760008155600101612ebd565b600060208284031215612ee357600080fd5b5035919050565b60005b83811015612f05578181015183820152602001612eed565b83811115612f14576000848401525b50505050565b60008151808452612f32816020860160208601612eea565b601f01601f19169290920160200192915050565b8e81526001600160a01b038e1660208201528c60408201528b60608201528a60808201528960a08201528860c08201528760e08201526001600160a01b038716610100820152856101208201526101c06101408201526000612fac6101c0830187612f1a565b905084610160830152612fc461018083018515159052565b8215156101a08301529f9e505050505050505050505050505050565b600060208284031215612ff257600080fd5b81357fffffffff00000000000000000000000000000000000000000000000000000000811681146127d557600080fd5b80356001600160a01b038116811461303957600080fd5b919050565b6000806040838503121561305157600080fd5b61305a83613022565b946020939093013593505050565b60008060006060848603121561307d57600080fd5b505081359360208301359350604090920135919050565b600080604083850312156130a757600080fd5b823591506130b760208401613022565b90509250929050565b6000602082840312156130d257600080fd5b6127d582613022565b634e487b7160e01b600052602160045260246000fd5b602081016006831061311357634e487b7160e01b600052602160045260246000fd5b91905290565b60006020828403121561312b57600080fd5b813580151581146127d557600080fd5b634e487b7160e01b600052604160045260246000fd5b6000806040838503121561316457600080fd5b61316d83613022565b9150602083013567ffffffffffffffff8082111561318a57600080fd5b818501915085601f83011261319e57600080fd5b8135818111156131b0576131b061313b565b604051601f8201601f19908116603f011681019083821181831017156131d8576131d861313b565b816040528281528860208487010111156131f157600080fd5b8260208601602083013760006020848301015280955050505050509250929050565b60008060008060008060008060e0898b03121561322f57600080fd5b61323889613022565b9750602089013596506040890135955061325460608a01613022565b94506080890135935060a089013567ffffffffffffffff8082111561327857600080fd5b818b0191508b601f83011261328c57600080fd5b81358181111561329b57600080fd5b8c60208285010111156132ad57600080fd5b60208301955080945050505060c089013590509295985092959890939650565b600080604083850312156132e057600080fd5b50508035926020909101359150565b60006020808301818452808551808352604092508286019150828160051b87010184880160005b83811015613420577fffffffffffffffffffffffffffffffffffffffffffffffffffffffffffffffc089840301855281516101c081518552888201516133668a8701826001600160a01b03169052565b508188015185890152606080830151908601526080808301519086015260a0808301519086015260c0808301519086015260e08083015190860152610100808301516001600160a01b0316908601526101208083015190860152610140808301518187018390526133d983880182612f1a565b92505050610160808301518187015250610180808301516133fd8288018215159052565b50506101a091820151151594909101939093529386019390860190600101613316565b509098975050505050505050565b6000806000806080858703121561344457600080fd5b61344d85613022565b93506020850135925061346260408601613022565b9150606085013567ffffffffffffffff81111561347e57600080fd5b850160c0818803121561349057600080fd5b939692955090935050565b60006101408c83528060208401526134b58184018d612f1a565b6001600160a01b039b8c166040850152998b166060840152505095909716608086015260a085019390935290151560c084015260e08301526101008201529115156101209092019190915292915050565b600181811c9082168061351a57607f821691505b60208210811415610cc357634e487b7160e01b600052602260045260246000fd5b60006020828403121561354d57600080fd5b8151600681106127d557600080fd5b60006020828403121561356e57600080fd5b5051919050565b634e487b7160e01b600052601160045260246000fd5b60008282101561359d5761359d613575565b500390565b600082198211156135b5576135b5613575565b500190565b634e487b7160e01b600052603260045260246000fd5b60006000198214156135e4576135e4613575565b5060010190565b60008083357fffffffffffffffffffffffffffffffffffffffffffffffffffffffffffffffe184360301811261362057600080fd5b83018035915067ffffffffffffffff82111561363b57600080fd5b60200191503681900382131561365057600080fd5b9250929050565b600080835481600182811c91508083168061367357607f831692505b602080841082141561369357634e487b7160e01b86526022600452602486fd5b8180156136a757600181146136b8576136e5565b60ff198616895284890196506136e5565b60008a81526020902060005b868110156136dd5781548b8201529085019083016136c4565b505084890196505b509498975050505050505050565b7f416363657373436f6e74726f6c3a206163636f756e742000000000000000000081526000835161372b816017850160208801612eea565b7f206973206d697373696e6720726f6c65200000000000000000000000000000006017918401918201528351613768816028840160208801612eea565b01602801949350505050565b6020815260006127d56020830184612f1a565b60008160001904831182151516156137a1576137a1613575565b500290565b6000816137b5576137b5613575565b506000190190565b600082516137cf818460208701612eea565b919091019291505056fe416464726573733a206c6f772d6c6576656c2064656c65676174652063616c6c206661696c6564a26469706673582212204256a879b859c939338df2b400295117b18a982dbe9e8baf114c8ceea2ffead564736f6c634300080b0033",
  "linkReferences": {},
  "deployedLinkReferences": {}
}