{
  "_format": "hh-sol-artifact-1",
  "contractName": "PolyZDAO",
  "sourceName": "contracts/polygon/PolyZDAO.sol",
  "abi": [
    {
      "anonymous": false,
      "inputs": [
        {
          "indexed": false,
          "internalType": "address",
          "name": "previousAdmin",
          "type": "address"
        },
        {
          "indexed": false,
          "internalType": "address",
          "name": "newAdmin",
          "type": "address"
        }
      ],
      "name": "AdminChanged",
      "type": "event"
    },
    {
      "anonymous": false,
      "inputs": [
        {
          "indexed": true,
          "internalType": "address",
          "name": "beacon",
          "type": "address"
        }
      ],
      "name": "BeaconUpgraded",
      "type": "event"
    },
    {
      "anonymous": false,
      "inputs": [
        {
          "indexed": true,
          "internalType": "address",
          "name": "previousOwner",
          "type": "address"
        },
        {
          "indexed": true,
          "internalType": "address",
          "name": "newOwner",
          "type": "address"
        }
      ],
      "name": "OwnershipTransferred",
      "type": "event"
    },
    {
      "anonymous": false,
      "inputs": [
        {
          "indexed": false,
          "internalType": "address",
          "name": "account",
          "type": "address"
        }
      ],
      "name": "Paused",
      "type": "event"
    },
    {
      "anonymous": false,
      "inputs": [
        {
          "indexed": true,
          "internalType": "bytes32",
          "name": "role",
          "type": "bytes32"
        },
        {
          "indexed": true,
          "internalType": "bytes32",
          "name": "previousAdminRole",
          "type": "bytes32"
        },
        {
          "indexed": true,
          "internalType": "bytes32",
          "name": "newAdminRole",
          "type": "bytes32"
        }
      ],
      "name": "RoleAdminChanged",
      "type": "event"
    },
    {
      "anonymous": false,
      "inputs": [
        {
          "indexed": true,
          "internalType": "bytes32",
          "name": "role",
          "type": "bytes32"
        },
        {
          "indexed": true,
          "internalType": "address",
          "name": "account",
          "type": "address"
        },
        {
          "indexed": true,
          "internalType": "address",
          "name": "sender",
          "type": "address"
        }
      ],
      "name": "RoleGranted",
      "type": "event"
    },
    {
      "anonymous": false,
      "inputs": [
        {
          "indexed": true,
          "internalType": "bytes32",
          "name": "role",
          "type": "bytes32"
        },
        {
          "indexed": true,
          "internalType": "address",
          "name": "account",
          "type": "address"
        },
        {
          "indexed": true,
          "internalType": "address",
          "name": "sender",
          "type": "address"
        }
      ],
      "name": "RoleRevoked",
      "type": "event"
    },
    {
      "anonymous": false,
      "inputs": [
        {
          "indexed": false,
          "internalType": "address",
          "name": "account",
          "type": "address"
        }
      ],
      "name": "Unpaused",
      "type": "event"
    },
    {
      "anonymous": false,
      "inputs": [
        {
          "indexed": true,
          "internalType": "address",
          "name": "implementation",
          "type": "address"
        }
      ],
      "name": "Upgraded",
      "type": "event"
    },
    {
      "inputs": [],
      "name": "DEFAULT_ADMIN_ROLE",
      "outputs": [
        {
          "internalType": "bytes32",
          "name": "",
          "type": "bytes32"
        }
      ],
      "stateMutability": "view",
      "type": "function"
    },
    {
      "inputs": [
        {
          "internalType": "address",
          "name": "_zDAOChef",
          "type": "address"
        },
        {
          "internalType": "address",
          "name": "_staking",
          "type": "address"
        },
        {
          "internalType": "uint256",
          "name": "_zDAOId",
          "type": "uint256"
        },
        {
          "internalType": "uint256",
          "name": "_duration",
          "type": "uint256"
        }
      ],
      "name": "__ZDAO_init",
      "outputs": [],
      "stateMutability": "nonpayable",
      "type": "function"
    },
    {
      "inputs": [
        {
          "internalType": "uint256",
          "name": "_proposalId",
          "type": "uint256"
        }
      ],
      "name": "canCollectProposal",
      "outputs": [
        {
          "internalType": "bool",
          "name": "",
          "type": "bool"
        }
      ],
      "stateMutability": "view",
      "type": "function"
    },
    {
      "inputs": [
        {
          "internalType": "uint256",
          "name": "_proposalId",
          "type": "uint256"
        },
        {
          "internalType": "address",
          "name": "_voter",
          "type": "address"
        }
      ],
      "name": "canVote",
      "outputs": [
        {
          "internalType": "bool",
          "name": "",
          "type": "bool"
        }
      ],
      "stateMutability": "view",
      "type": "function"
    },
    {
      "inputs": [
        {
          "internalType": "uint256",
          "name": "_proposalId",
          "type": "uint256"
        }
      ],
      "name": "cancelProposal",
      "outputs": [],
      "stateMutability": "nonpayable",
      "type": "function"
    },
    {
      "inputs": [
        {
          "internalType": "uint256",
          "name": "_proposalId",
          "type": "uint256"
        },
        {
          "internalType": "address",
          "name": "_voter",
          "type": "address"
        }
      ],
      "name": "choiceOfVoter",
      "outputs": [
        {
          "internalType": "enum IPolyZDAO.VoterChoice",
          "name": "",
          "type": "uint8"
        }
      ],
      "stateMutability": "view",
      "type": "function"
    },
    {
      "inputs": [
        {
          "internalType": "uint256",
          "name": "_proposalId",
          "type": "uint256"
        }
      ],
      "name": "collectProposal",
      "outputs": [
        {
          "internalType": "uint256",
          "name": "voters",
          "type": "uint256"
        },
        {
          "internalType": "uint256",
          "name": "yes",
          "type": "uint256"
        },
        {
          "internalType": "uint256",
          "name": "no",
          "type": "uint256"
        }
      ],
      "stateMutability": "nonpayable",
      "type": "function"
    },
    {
      "inputs": [
        {
          "internalType": "uint256",
          "name": "_proposalId",
          "type": "uint256"
        },
        {
          "internalType": "uint256",
          "name": "_startTimestamp",
          "type": "uint256"
        }
      ],
      "name": "createProposal",
      "outputs": [],
      "stateMutability": "nonpayable",
      "type": "function"
    },
    {
      "inputs": [],
      "name": "destroyed",
      "outputs": [
        {
          "internalType": "bool",
          "name": "",
          "type": "bool"
        }
      ],
      "stateMutability": "view",
      "type": "function"
    },
    {
      "inputs": [
        {
          "internalType": "uint256",
          "name": "_proposalId",
          "type": "uint256"
        }
      ],
      "name": "executeProposal",
      "outputs": [],
      "stateMutability": "nonpayable",
      "type": "function"
    },
    {
      "inputs": [
        {
          "internalType": "bytes32",
          "name": "role",
          "type": "bytes32"
        }
      ],
      "name": "getRoleAdmin",
      "outputs": [
        {
          "internalType": "bytes32",
          "name": "",
          "type": "bytes32"
        }
      ],
      "stateMutability": "view",
      "type": "function"
    },
    {
      "inputs": [
        {
          "internalType": "bytes32",
          "name": "role",
          "type": "bytes32"
        },
        {
          "internalType": "address",
          "name": "account",
          "type": "address"
        }
      ],
      "name": "grantRole",
      "outputs": [],
      "stateMutability": "nonpayable",
      "type": "function"
    },
    {
      "inputs": [
        {
          "internalType": "bytes32",
          "name": "role",
          "type": "bytes32"
        },
        {
          "internalType": "address",
          "name": "account",
          "type": "address"
        }
      ],
      "name": "hasRole",
      "outputs": [
        {
          "internalType": "bool",
          "name": "",
          "type": "bool"
        }
      ],
      "stateMutability": "view",
      "type": "function"
    },
    {
      "inputs": [
        {
          "internalType": "uint256",
          "name": "_startIndex",
          "type": "uint256"
        },
        {
          "internalType": "uint256",
          "name": "_count",
          "type": "uint256"
        }
      ],
      "name": "listProposals",
      "outputs": [
        {
          "components": [
            {
              "internalType": "uint256",
              "name": "proposalId",
              "type": "uint256"
            },
            {
              "internalType": "uint256",
              "name": "startTimestamp",
              "type": "uint256"
            },
            {
              "internalType": "uint256",
              "name": "endTimestamp",
              "type": "uint256"
            },
            {
              "internalType": "uint256",
              "name": "yes",
              "type": "uint256"
            },
            {
              "internalType": "uint256",
              "name": "no",
              "type": "uint256"
            },
            {
              "internalType": "uint256",
              "name": "voters",
              "type": "uint256"
            },
            {
              "internalType": "uint256",
              "name": "snapshot",
              "type": "uint256"
            },
            {
              "internalType": "bool",
              "name": "collected",
              "type": "bool"
            },
            {
              "internalType": "bool",
              "name": "executed",
              "type": "bool"
            },
            {
              "internalType": "bool",
              "name": "canceled",
              "type": "bool"
            }
          ],
          "internalType": "struct IPolyZDAO.Proposal[]",
          "name": "records",
          "type": "tuple[]"
        }
      ],
      "stateMutability": "view",
      "type": "function"
    },
    {
      "inputs": [
        {
          "internalType": "uint256",
          "name": "_proposalId",
          "type": "uint256"
        },
        {
          "internalType": "uint256",
          "name": "_startIndex",
          "type": "uint256"
        },
        {
          "internalType": "uint256",
          "name": "_count",
          "type": "uint256"
        }
      ],
      "name": "listVoters",
      "outputs": [
        {
          "internalType": "address[]",
          "name": "voters",
          "type": "address[]"
        },
        {
          "internalType": "uint256[]",
          "name": "choices",
          "type": "uint256[]"
        },
        {
          "internalType": "uint256[]",
          "name": "votes",
          "type": "uint256[]"
        }
      ],
      "stateMutability": "view",
      "type": "function"
    },
    {
      "inputs": [],
      "name": "numberOfProposals",
      "outputs": [
        {
          "internalType": "uint256",
          "name": "",
          "type": "uint256"
        }
      ],
      "stateMutability": "view",
      "type": "function"
    },
    {
      "inputs": [],
      "name": "owner",
      "outputs": [
        {
          "internalType": "address",
          "name": "",
          "type": "address"
        }
      ],
      "stateMutability": "view",
      "type": "function"
    },
    {
      "inputs": [],
      "name": "paused",
      "outputs": [
        {
          "internalType": "bool",
          "name": "",
          "type": "bool"
        }
      ],
      "stateMutability": "view",
      "type": "function"
    },
    {
      "inputs": [
        {
          "internalType": "uint256",
          "name": "",
          "type": "uint256"
        }
      ],
      "name": "proposalIds",
      "outputs": [
        {
          "internalType": "uint256",
          "name": "",
          "type": "uint256"
        }
      ],
      "stateMutability": "view",
      "type": "function"
    },
    {
      "inputs": [
        {
          "internalType": "uint256",
          "name": "",
          "type": "uint256"
        }
      ],
      "name": "proposals",
      "outputs": [
        {
          "internalType": "uint256",
          "name": "proposalId",
          "type": "uint256"
        },
        {
          "internalType": "uint256",
          "name": "startTimestamp",
          "type": "uint256"
        },
        {
          "internalType": "uint256",
          "name": "endTimestamp",
          "type": "uint256"
        },
        {
          "internalType": "uint256",
          "name": "yes",
          "type": "uint256"
        },
        {
          "internalType": "uint256",
          "name": "no",
          "type": "uint256"
        },
        {
          "internalType": "uint256",
          "name": "voters",
          "type": "uint256"
        },
        {
          "internalType": "uint256",
          "name": "snapshot",
          "type": "uint256"
        },
        {
          "internalType": "bool",
          "name": "collected",
          "type": "bool"
        },
        {
          "internalType": "bool",
          "name": "executed",
          "type": "bool"
        },
        {
          "internalType": "bool",
          "name": "canceled",
          "type": "bool"
        }
      ],
      "stateMutability": "view",
      "type": "function"
    },
    {
      "inputs": [],
      "name": "renounceOwnership",
      "outputs": [],
      "stateMutability": "nonpayable",
      "type": "function"
    },
    {
      "inputs": [
        {
          "internalType": "bytes32",
          "name": "role",
          "type": "bytes32"
        },
        {
          "internalType": "address",
          "name": "account",
          "type": "address"
        }
      ],
      "name": "renounceRole",
      "outputs": [],
      "stateMutability": "nonpayable",
      "type": "function"
    },
    {
      "inputs": [
        {
          "internalType": "bytes32",
          "name": "role",
          "type": "bytes32"
        },
        {
          "internalType": "address",
          "name": "account",
          "type": "address"
        }
      ],
      "name": "revokeRole",
      "outputs": [],
      "stateMutability": "nonpayable",
      "type": "function"
    },
    {
      "inputs": [
        {
          "internalType": "bool",
          "name": "_destroyed",
          "type": "bool"
        }
      ],
      "name": "setDestroyed",
      "outputs": [],
      "stateMutability": "nonpayable",
      "type": "function"
    },
    {
      "inputs": [],
      "name": "staking",
      "outputs": [
        {
          "internalType": "contract Staking",
          "name": "",
          "type": "address"
        }
      ],
      "stateMutability": "view",
      "type": "function"
    },
    {
      "inputs": [
        {
          "internalType": "uint256",
          "name": "_proposalId",
          "type": "uint256"
        }
      ],
      "name": "state",
      "outputs": [
        {
          "internalType": "enum IPolyZDAO.ProposalState",
          "name": "",
          "type": "uint8"
        }
      ],
      "stateMutability": "view",
      "type": "function"
    },
    {
      "inputs": [
        {
          "internalType": "bytes4",
          "name": "interfaceId",
          "type": "bytes4"
        }
      ],
      "name": "supportsInterface",
      "outputs": [
        {
          "internalType": "bool",
          "name": "",
          "type": "bool"
        }
      ],
      "stateMutability": "view",
      "type": "function"
    },
    {
      "inputs": [
        {
          "internalType": "address",
          "name": "newOwner",
          "type": "address"
        }
      ],
      "name": "transferOwnership",
      "outputs": [],
      "stateMutability": "nonpayable",
      "type": "function"
    },
    {
      "inputs": [
        {
          "internalType": "address",
          "name": "newImplementation",
          "type": "address"
        }
      ],
      "name": "upgradeTo",
      "outputs": [],
      "stateMutability": "nonpayable",
      "type": "function"
    },
    {
      "inputs": [
        {
          "internalType": "address",
          "name": "newImplementation",
          "type": "address"
        },
        {
          "internalType": "bytes",
          "name": "data",
          "type": "bytes"
        }
      ],
      "name": "upgradeToAndCall",
      "outputs": [],
      "stateMutability": "payable",
      "type": "function"
    },
    {
      "inputs": [],
      "name": "version",
      "outputs": [
        {
          "internalType": "uint256",
          "name": "",
          "type": "uint256"
        }
      ],
      "stateMutability": "view",
      "type": "function"
    },
    {
      "inputs": [
        {
          "internalType": "uint256",
          "name": "_proposalId",
          "type": "uint256"
        },
        {
          "internalType": "address",
          "name": "_voter",
          "type": "address"
        },
        {
          "internalType": "uint256",
          "name": "_choice",
          "type": "uint256"
        }
      ],
      "name": "vote",
      "outputs": [],
      "stateMutability": "nonpayable",
      "type": "function"
    },
    {
      "inputs": [
        {
          "internalType": "uint256",
          "name": "_proposalId",
          "type": "uint256"
        }
      ],
      "name": "votesResultOfProposal",
      "outputs": [
        {
          "internalType": "uint256",
          "name": "voters",
          "type": "uint256"
        },
        {
          "internalType": "uint256",
          "name": "yes",
          "type": "uint256"
        },
        {
          "internalType": "uint256",
          "name": "no",
          "type": "uint256"
        }
      ],
      "stateMutability": "view",
      "type": "function"
    },
    {
      "inputs": [
        {
          "internalType": "uint256",
          "name": "_proposalId",
          "type": "uint256"
        },
        {
          "internalType": "address",
          "name": "_voter",
          "type": "address"
        }
      ],
      "name": "votingPowerOfVoter",
      "outputs": [
        {
          "internalType": "uint256",
          "name": "",
          "type": "uint256"
        }
      ],
      "stateMutability": "view",
      "type": "function"
    },
    {
      "inputs": [],
      "name": "zDAOChef",
      "outputs": [
        {
          "internalType": "address",
          "name": "",
          "type": "address"
        }
      ],
      "stateMutability": "view",
      "type": "function"
    },
    {
      "inputs": [],
      "name": "zDAOId",
      "outputs": [
        {
          "internalType": "uint256",
          "name": "",
          "type": "uint256"
        }
      ],
      "stateMutability": "view",
      "type": "function"
    },
    {
      "inputs": [],
      "name": "zDAOInfo",
      "outputs": [
        {
          "internalType": "uint256",
          "name": "zDAOId",
          "type": "uint256"
        },
        {
          "internalType": "uint256",
          "name": "duration",
          "type": "uint256"
        },
        {
          "internalType": "uint256",
          "name": "snapshot",
          "type": "uint256"
        },
        {
          "internalType": "bool",
          "name": "destroyed",
          "type": "bool"
        }
      ],
      "stateMutability": "view",
      "type": "function"
    }
  ],
  "bytecode": "0x60a06040523060805234801561001457600080fd5b506080516135fc61004560003960008181610bad01528181610c430152818161100b01526110a101526135fc6000f3fe60806040526004361061026a5760003560e01c80636935bda6116101535780639b644a23116100cb578063cdb2867b1161007f578063d8191e6c11610064578063d8191e6c14610815578063e0a8f6f514610861578063f2fde38b1461088157600080fd5b8063cdb2867b146107d5578063d547741f146107f557600080fd5b8063a62eb632116100b0578063a62eb63214610727578063affc179314610747578063b5c23fdd146107a657600080fd5b80639b644a23146106f2578063a217fddf1461071257600080fd5b8063890cb1f3116101225780638da5cb5b116101075780638da5cb5b1461066d57806390bfeab31461068b57806391d14854146106ac57600080fd5b8063890cb1f3146106375780638d7af4731461065757600080fd5b80636935bda6146105b5578063715018a6146105d5578063730b7b17146105ea5780637f6dda141461060a57600080fd5b80633659cfe6116101e65780634de8737c116101b557806354fd4d501161019a57806354fd4d50146105665780635c975abb1461057d57806362a8dab91461059557600080fd5b80634de8737c146105335780634f1ef2861461055357600080fd5b80633659cfe61461048d5780633e4f49e6146104ad578063472858b4146104da5780634cf088d9146104fa57600080fd5b8063151936131161023d5780632f2ff15d116102225780632f2ff15d14610434578063359cbbc91461045457806336568abe1461046d57600080fd5b806315193613146103e4578063248a9ca31461040457600080fd5b8063013cf08b1461026f57806301ffc9a7146103395780630d61b51914610369578063120e33da1461038b575b600080fd5b34801561027b57600080fd5b506102e461028a366004612fc4565b610198602052600090815260409020805460018201546002830154600384015460048501546005860154600687015460079097015495969495939492939192909160ff80821691610100810482169162010000909104168a565b604080519a8b5260208b0199909952978901969096526060880194909452608087019290925260a086015260c0850152151560e084015215156101008301521515610120820152610140015b60405180910390f35b34801561034557600080fd5b50610359610354366004612fdd565b6108a1565b6040519015158152602001610330565b34801561037557600080fd5b50610389610384366004612fc4565b61093a565b005b34801561039757600080fd5b506103c96103a6366004612fc4565b600090815261019860205260409020600581015460038201546004909201549092565b60408051938452602084019290925290820152606001610330565b3480156103f057600080fd5b50610194545b604051908152602001610330565b34801561041057600080fd5b506103f661041f366004612fc4565b60009081526097602052604090206001015490565b34801561044057600080fd5b5061038961044f36600461303b565b610aef565b34801561046057600080fd5b506101975460ff16610359565b34801561047957600080fd5b5061038961048836600461303b565b610b1a565b34801561049957600080fd5b506103896104a8366004613067565b610ba2565b3480156104b957600080fd5b506104cd6104c8366004612fc4565b610d40565b6040516103309190613098565b3480156104e657600080fd5b506103896104f53660046130b2565b610dcd565b34801561050657600080fd5b506101935461051b906001600160a01b031681565b6040516001600160a01b039091168152602001610330565b34801561053f57600080fd5b5061038961054e3660046130d4565b610e2d565b61038961056136600461311f565b611000565b34801561057257600080fd5b506103f66101915481565b34801561058957600080fd5b5060fb5460ff16610359565b3480156105a157600080fd5b506103f66105b036600461303b565b61118b565b3480156105c157600080fd5b506103896105d03660046131e1565b61119e565b3480156105e157600080fd5b506103896112c3565b3480156105f657600080fd5b50610389610605366004613203565b611329565b34801561061657600080fd5b5061062a6106253660046131e1565b61147a565b6040516103309190613245565b34801561064357600080fd5b506103c9610652366004612fc4565b61164e565b34801561066357600080fd5b5061019a546103f6565b34801561067957600080fd5b506033546001600160a01b031661051b565b34801561069757600080fd5b506101925461051b906001600160a01b031681565b3480156106b857600080fd5b506103596106c736600461303b565b60009182526097602090815260408084206001600160a01b0393909316845291905290205460ff1690565b3480156106fe57600080fd5b506103f661070d366004612fc4565b61180c565b34801561071e57600080fd5b506103f6600081565b34801561073357600080fd5b50610359610742366004612fc4565b61182e565b34801561075357600080fd5b5061079961076236600461303b565b6000918252610199602090815260408084206001600160a01b0393909316845260019092019052902054600160a01b900460ff1690565b60405161033091906132ee565b3480156107b257600080fd5b506107c66107c1366004613302565b611839565b60405161033093929190613369565b3480156107e157600080fd5b506103596107f036600461303b565b611a6b565b34801561080157600080fd5b5061038961081036600461303b565b611a77565b34801561082157600080fd5b506101945461019554610196546101975461083f9392919060ff1684565b6040805194855260208501939093529183015215156060820152608001610330565b34801561086d57600080fd5b5061038961087c366004612fc4565b611a9d565b34801561088d57600080fd5b5061038961089c366004613067565b611c72565b60007fffffffff0000000000000000000000000000000000000000000000000000000082167f7965db0b00000000000000000000000000000000000000000000000000000000148061093457507f01ffc9a7000000000000000000000000000000000000000000000000000000007fffffffff000000000000000000000000000000000000000000000000000000008316145b92915050565b610192546001600160a01b0316331461098b5760405162461bcd60e51b815260206004820152600e60248201526d2737ba1030902d2220a7a1b432b360911b60448201526064015b60405180910390fd5b6101975460ff16156109df5760405162461bcd60e51b815260206004820152601160248201527f416c72656164792064657374726f7965640000000000000000000000000000006044820152606401610982565b6000818152610198602052604090205481908114610a3f5760405162461bcd60e51b815260206004820152601060248201527f496e76616c69642070726f706f73616c000000000000000000000000000000006044820152606401610982565b6000828152610198602052604090206007015462010000900460ff16158015610a7a57506000828152610198602052604090206007015460ff165b610ac65760405162461bcd60e51b815260206004820152601460248201527f4e6f7420612076616c69642070726f706f73616c0000000000000000000000006044820152606401610982565b610aeb82600090815261019860205260409020600701805461ff001916610100179055565b5050565b600082815260976020526040902060010154610b0b8133611d51565b610b158383611dd1565b505050565b6001600160a01b0381163314610b985760405162461bcd60e51b815260206004820152602f60248201527f416363657373436f6e74726f6c3a2063616e206f6e6c792072656e6f756e636560448201527f20726f6c657320666f722073656c6600000000000000000000000000000000006064820152608401610982565b610aeb8282611e73565b306001600160a01b037f0000000000000000000000000000000000000000000000000000000000000000161415610c415760405162461bcd60e51b815260206004820152602c60248201527f46756e6374696f6e206d7573742062652063616c6c6564207468726f7567682060448201527f64656c656761746563616c6c00000000000000000000000000000000000000006064820152608401610982565b7f00000000000000000000000000000000000000000000000000000000000000006001600160a01b0316610c9c7f360894a13ba1a3210667c828492db98dca3e2076cc3735a920a3ca505d382bbc546001600160a01b031690565b6001600160a01b031614610d185760405162461bcd60e51b815260206004820152602c60248201527f46756e6374696f6e206d7573742062652063616c6c6564207468726f7567682060448201527f6163746976652070726f787900000000000000000000000000000000000000006064820152608401610982565b610d2181611ef6565b60408051600080825260208201909252610d3d91839190611f50565b50565b600081815261019860205260408120600781015462010000900460ff1615610d6b5750600292915050565b80600101544211610d7f5750600092915050565b80600201544211610d935750600192915050565b6007810154610100900460ff1615610dae5750600392915050565b600781015460ff1615610dc45750600592915050565b50600492915050565b610192546001600160a01b03163314610e195760405162461bcd60e51b815260206004820152600e60248201526d2737ba1030902d2220a7a1b432b360911b6044820152606401610982565b610197805460ff1916911515919091179055565b610192546001600160a01b03163314610e795760405162461bcd60e51b815260206004820152600e60248201526d2737ba1030902d2220a7a1b432b360911b6044820152606401610982565b6101975460ff1615610ecd5760405162461bcd60e51b815260206004820152601160248201527f416c72656164792064657374726f7965640000000000000000000000000000006044820152606401610982565b6000838152610198602052604090205483908114610f2d5760405162461bcd60e51b815260206004820152601060248201527f496e76616c69642070726f706f73616c000000000000000000000000000000006044820152606401610982565b6001821480610f3c5750600282145b610f885760405162461bcd60e51b815260206004820152600e60248201527f496e76616c69642063686f6963650000000000000000000000000000000000006044820152606401610982565b610f92848461210d565b610fde5760405162461bcd60e51b815260206004820152601460248201527f4e6f742076616c696420666f7220766f74696e670000000000000000000000006044820152606401610982565b610ffa8484846002811115610ff557610ff5613082565b6121ef565b50505050565b306001600160a01b037f000000000000000000000000000000000000000000000000000000000000000016141561109f5760405162461bcd60e51b815260206004820152602c60248201527f46756e6374696f6e206d7573742062652063616c6c6564207468726f7567682060448201527f64656c656761746563616c6c00000000000000000000000000000000000000006064820152608401610982565b7f00000000000000000000000000000000000000000000000000000000000000006001600160a01b03166110fa7f360894a13ba1a3210667c828492db98dca3e2076cc3735a920a3ca505d382bbc546001600160a01b031690565b6001600160a01b0316146111765760405162461bcd60e51b815260206004820152602c60248201527f46756e6374696f6e206d7573742062652063616c6c6564207468726f7567682060448201527f6163746976652070726f787900000000000000000000000000000000000000006064820152608401610982565b61117f82611ef6565b610aeb82826001611f50565b600061119783836123ef565b9392505050565b610192546001600160a01b031633146111ea5760405162461bcd60e51b815260206004820152600e60248201526d2737ba1030902d2220a7a1b432b360911b6044820152606401610982565b6101975460ff161561123e5760405162461bcd60e51b815260206004820152601160248201527f416c72656164792064657374726f7965640000000000000000000000000000006044820152606401610982565b60008211801561125b575060008281526101986020526040902054155b6112a75760405162461bcd60e51b815260206004820152601c60248201527f50726f706f73616c2077617320616c72656164792063726561746564000000006044820152606401610982565b610aeb828261019460010154846112be91906133f4565b612492565b6033546001600160a01b0316331461131d5760405162461bcd60e51b815260206004820181905260248201527f4f776e61626c653a2063616c6c6572206973206e6f7420746865206f776e65726044820152606401610982565b61132760006125ed565b565b600054610100900460ff166113445760005460ff1615611348565b303b155b6113ba5760405162461bcd60e51b815260206004820152602e60248201527f496e697469616c697a61626c653a20636f6e747261637420697320616c72656160448201527f647920696e697469616c697a65640000000000000000000000000000000000006064820152608401610982565b600054610100900460ff161580156113dc576000805461ffff19166101011790555b6113e461264c565b61019280546001600160a01b0380881673ffffffffffffffffffffffffffffffffffffffff1992831617909255610193805492871692909116919091179055604080516080810182528481526020810184905243918101829052600060609091015261019484905561019583905561019655610197805460ff191690558015611473576000805461ff00191690555b5050505050565b61019a54606090829061148e90859061340c565b8111156114a75761019a546114a490859061340c565b90505b8067ffffffffffffffff8111156114c0576114c0613109565b60405190808252806020026020018201604052801561154d57816020015b61153a604051806101400160405280600081526020016000815260200160008152602001600081526020016000815260200160008152602001600081526020016000151581526020016000151581526020016000151581525090565b8152602001906001900390816114de5790505b50915060005b8181101561164657610198600061019a61156d84896133f4565b8154811061157d5761157d613423565b600091825260208083209091015483528281019390935260409182019020815161014081018352815481526001820154938101939093526002810154918301919091526003810154606083015260048101546080830152600581015460a0830152600681015460c08301526007015460ff808216151560e0840152610100808304821615159084015262010000909104161515610120820152835184908390811061162a5761162a613423565b60200260200101819052508061163f90613439565b9050611553565b505092915050565b61019254600090819081906001600160a01b031633146116a15760405162461bcd60e51b815260206004820152600e60248201526d2737ba1030902d2220a7a1b432b360911b6044820152606401610982565b6101975460ff16156116f55760405162461bcd60e51b815260206004820152601160248201527f416c72656164792064657374726f7965640000000000000000000000000000006044820152606401610982565b60008481526101986020526040902054849081146117555760405162461bcd60e51b815260206004820152601060248201527f496e76616c69642070726f706f73616c000000000000000000000000000000006044820152606401610982565b600085815261019860205260409020600781015462010000900460ff161580156117845750600781015460ff16155b80156117935750806002015442115b6117df5760405162461bcd60e51b815260206004820152601460248201527f4e6f7420612076616c69642070726f706f73616c0000000000000000000000006044820152606401610982565b6005810154600382015460048301546007909301805460ff19166001179055909790965090945092505050565b61019a818154811061181d57600080fd5b600091825260209091200154905081565b6000610934826126e7565b60008381526101996020526040902080546060918291829190859061185f90889061340c565b81111561187657815461187390889061340c565b90505b8067ffffffffffffffff81111561188f5761188f613109565b6040519080825280602002602001820160405280156118b8578160200160208202803683370190505b5094508067ffffffffffffffff8111156118d4576118d4613109565b6040519080825280602002602001820160405280156118fd578160200160208202803683370190505b5093508067ffffffffffffffff81111561191957611919613109565b604051908082528060200260200182016040528015611942578160200160208202803683370190505b5092506000805b82811015611a5e578361195c828b6133f4565b8154811061196c5761196c613423565b9060005260206000200160009054906101000a90046001600160a01b031691508187828151811061199f5761199f613423565b6001600160a01b039283166020918202929092018101919091529083166000908152600186019091526040902054600160a01b900460ff1660028111156119e8576119e8613082565b8682815181106119fa576119fa613423565b602002602001018181525050836001016000836001600160a01b03166001600160a01b0316815260200190815260200160002060010154858281518110611a4357611a43613423565b6020908102919091010152611a5781613439565b9050611949565b5050505093509350939050565b6000611197838361210d565b600082815260976020526040902060010154611a938133611d51565b610b158383611e73565b610192546001600160a01b03163314611ae95760405162461bcd60e51b815260206004820152600e60248201526d2737ba1030902d2220a7a1b432b360911b6044820152606401610982565b6101975460ff1615611b3d5760405162461bcd60e51b815260206004820152601160248201527f416c72656164792064657374726f7965640000000000000000000000000000006044820152606401610982565b6000818152610198602052604090205481908114611b9d5760405162461bcd60e51b815260206004820152601060248201527f496e76616c69642070726f706f73616c000000000000000000000000000000006044820152606401610982565b6000828152610198602052604090206007015462010000900460ff16158015611bd957506000828152610198602052604090206007015460ff16155b611c4b5760405162461bcd60e51b815260206004820152602660248201527f416c72656164792063616e63656c6564206f7220636f6c6c656374656420707260448201527f6f706f73616c00000000000000000000000000000000000000000000000000006064820152608401610982565b610aeb82600090815261019860205260409020600701805462ff0000191662010000179055565b6033546001600160a01b03163314611ccc5760405162461bcd60e51b815260206004820181905260248201527f4f776e61626c653a2063616c6c6572206973206e6f7420746865206f776e65726044820152606401610982565b6001600160a01b038116611d485760405162461bcd60e51b815260206004820152602660248201527f4f776e61626c653a206e6577206f776e657220697320746865207a65726f206160448201527f64647265737300000000000000000000000000000000000000000000000000006064820152608401610982565b610d3d816125ed565b60008281526097602090815260408083206001600160a01b038516845290915290205460ff16610aeb57611d8f816001600160a01b0316601461270d565b611d9a83602061270d565b604051602001611dab929190613480565b60408051601f198184030181529082905262461bcd60e51b825261098291600401613501565b60008281526097602090815260408083206001600160a01b038516845290915290205460ff16610aeb5760008281526097602090815260408083206001600160a01b03851684529091529020805460ff19166001179055611e2f3390565b6001600160a01b0316816001600160a01b0316837f2f8788117e7eff1d82e926ec794901d17c78024a50270940304540a733656f0d60405160405180910390a45050565b60008281526097602090815260408083206001600160a01b038516845290915290205460ff1615610aeb5760008281526097602090815260408083206001600160a01b0385168085529252808320805460ff1916905551339285917ff6391f5c32d9c69d2a47ea670b442974b53935d1edc7fd64eb21e047a839171b9190a45050565b6033546001600160a01b03163314610d3d5760405162461bcd60e51b815260206004820181905260248201527f4f776e61626c653a2063616c6c6572206973206e6f7420746865206f776e65726044820152606401610982565b6000611f837f360894a13ba1a3210667c828492db98dca3e2076cc3735a920a3ca505d382bbc546001600160a01b031690565b9050611f8e84612936565b600083511180611f9b5750815b15611fac57611faa84846129f8565b505b7f4910fdfa16fed3260ed0e7147f7cc6da11a60208b5b9406d12a635614ffd9143805460ff1661147357805460ff191660011781556040516001600160a01b038316602482015261205990869060440160408051601f198184030181529190526020810180517bffffffffffffffffffffffffffffffffffffffffffffffffffffffff167f3659cfe6000000000000000000000000000000000000000000000000000000001790526129f8565b50805460ff191681557f360894a13ba1a3210667c828492db98dca3e2076cc3735a920a3ca505d382bbc546001600160a01b038381169116146121045760405162461bcd60e51b815260206004820152602f60248201527f45524331393637557067726164653a207570677261646520627265616b73206660448201527f75727468657220757067726164657300000000000000000000000000000000006064820152608401610982565b61147385612afa565b600082815261019860205260408120805484141580612132575061213081612b3a565b155b15612141576000915050610934565b6101935460068201546040517f564e90e40000000000000000000000000000000000000000000000000000000081526000926001600160a01b03169163564e90e4916121a59188916004016001600160a01b03929092168252602082015260400190565b602060405180830381865afa1580156121c2573d6000803e3d6000fd5b505050506040513d601f19601f820116820180604052508101906121e69190613534565b11949350505050565b60008381526101986020908152604080832061019983528184206001600160a01b038716855260018101909352908320549092600160a01b90910460ff169061223887876123ef565b9050600182600281111561224e5761224e613082565b14156122735780846003016000828254612268919061340c565b909155506122da9050565b600282600281111561228757612287613082565b14156122a15780846004016000828254612268919061340c565b825460018101845560008481526020902001805473ffffffffffffffffffffffffffffffffffffffff19166001600160a01b0388161790555b6001600160a01b03861660008181526001850160205260409020805473ffffffffffffffffffffffffffffffffffffffff1981168317825587927fffffffffffffffffffffff00000000000000000000000000000000000000000090911617600160a01b83600281111561235057612350613082565b02179055506001600160a01b038616600090815260018085016020526040909120810182905585600281111561238857612388613082565b14156123ad57808460030160008282546123a291906133f4565b909155506123e19050565b60028560028111156123c1576123c1613082565b14156123e157808460040160008282546123db91906133f4565b90915550505b505054600590910155505050565b61019354600083815261019860205260408082206006015490517f564e90e40000000000000000000000000000000000000000000000000000000081526001600160a01b03858116600483015260248201929092529192169063564e90e490604401602060405180830381865afa15801561246e573d6000803e3d6000fd5b505050506040513d601f19601f820116820180604052508101906111979190613534565b60008381526101986020526040902054156124ef5760405162461bcd60e51b815260206004820152601860248201527f416c72656164792070726f706f73616c206372656174656400000000000000006044820152606401610982565b604080516101408101825284815260208082019485528183019384526000606083018181526080840182815260a085018381524360c0870190815260e087018581526101008089018781526101208a018881528e8952610198909952998720985189559a516001808a019190915599516002890155935160038801559151600487015551600586015551600685015551600790930180549451925161ffff1990951693151561ff001916939093179115159095021762ff00001916620100009215159290920291909117905561019a805491820181559091527fd994f4dad00f9ff89caab117647e768aa59b274f965a222ec6a1586aa6e26bcb0155565b603380546001600160a01b0383811673ffffffffffffffffffffffffffffffffffffffff19831681179093556040519116919082907f8be0079c531659141344cd1fd0a4f28419497f9722a3daafe3b4186f6b6457e090600090a35050565b600054610100900460ff166126b75760405162461bcd60e51b815260206004820152602b60248201527f496e697469616c697a61626c653a20636f6e7472616374206973206e6f74206960448201526a6e697469616c697a696e6760a81b6064820152608401610982565b6126bf612b6c565b6126c7612be7565b6126cf612c6a565b6126d7612cdd565b6126df612d58565b600161019155565b600081815261019860205260408120805483148015611197575060020154421192915050565b6060600061271c83600261354d565b6127279060026133f4565b67ffffffffffffffff81111561273f5761273f613109565b6040519080825280601f01601f191660200182016040528015612769576020820181803683370190505b5090507f3000000000000000000000000000000000000000000000000000000000000000816000815181106127a0576127a0613423565b60200101907effffffffffffffffffffffffffffffffffffffffffffffffffffffffffffff1916908160001a9053507f78000000000000000000000000000000000000000000000000000000000000008160018151811061280357612803613423565b60200101907effffffffffffffffffffffffffffffffffffffffffffffffffffffffffffff1916908160001a905350600061283f84600261354d565b61284a9060016133f4565b90505b60018111156128e7577f303132333435363738396162636465660000000000000000000000000000000085600f166010811061288b5761288b613423565b1a60f81b8282815181106128a1576128a1613423565b60200101907effffffffffffffffffffffffffffffffffffffffffffffffffffffffffffff1916908160001a90535060049490941c936128e08161356c565b905061284d565b5083156111975760405162461bcd60e51b815260206004820181905260248201527f537472696e67733a20686578206c656e67746820696e73756666696369656e746044820152606401610982565b803b6129aa5760405162461bcd60e51b815260206004820152602d60248201527f455243313936373a206e657720696d706c656d656e746174696f6e206973206e60448201527f6f74206120636f6e7472616374000000000000000000000000000000000000006064820152608401610982565b7f360894a13ba1a3210667c828492db98dca3e2076cc3735a920a3ca505d382bbc805473ffffffffffffffffffffffffffffffffffffffff19166001600160a01b0392909216919091179055565b6060823b612a6e5760405162461bcd60e51b815260206004820152602660248201527f416464726573733a2064656c65676174652063616c6c20746f206e6f6e2d636f60448201527f6e747261637400000000000000000000000000000000000000000000000000006064820152608401610982565b600080846001600160a01b031684604051612a899190613583565b600060405180830381855af49150503d8060008114612ac4576040519150601f19603f3d011682016040523d82523d6000602084013e612ac9565b606091505b5091509150612af182826040518060600160405280602781526020016135a060279139612dc3565b95945050505050565b612b0381612936565b6040516001600160a01b038216907fbc7cd75a20ee27fd9adebab32041f755214dbc6bffa90cc0225b39da2e5c2d3b90600090a250565b600081600101544210158015612b535750816002015442105b80156109345750506007015462010000900460ff161590565b600054610100900460ff16612bd75760405162461bcd60e51b815260206004820152602b60248201527f496e697469616c697a61626c653a20636f6e7472616374206973206e6f74206960448201526a6e697469616c697a696e6760a81b6064820152608401610982565b612bdf612dfc565b611327612e67565b600054610100900460ff16612c525760405162461bcd60e51b815260206004820152602b60248201527f496e697469616c697a61626c653a20636f6e7472616374206973206e6f74206960448201526a6e697469616c697a696e6760a81b6064820152608401610982565b612c5a612dfc565b612c62612dfc565b611327612dfc565b600054610100900460ff16612cd55760405162461bcd60e51b815260206004820152602b60248201527f496e697469616c697a61626c653a20636f6e7472616374206973206e6f74206960448201526a6e697469616c697a696e6760a81b6064820152608401610982565b611327612edb565b600054610100900460ff16612d485760405162461bcd60e51b815260206004820152602b60248201527f496e697469616c697a61626c653a20636f6e7472616374206973206e6f74206960448201526a6e697469616c697a696e6760a81b6064820152608401610982565b612d50612dfc565b611327612f4d565b600054610100900460ff16612c5a5760405162461bcd60e51b815260206004820152602b60248201527f496e697469616c697a61626c653a20636f6e7472616374206973206e6f74206960448201526a6e697469616c697a696e6760a81b6064820152608401610982565b60608315612dd2575081611197565b825115612de25782518084602001fd5b8160405162461bcd60e51b81526004016109829190613501565b600054610100900460ff166113275760405162461bcd60e51b815260206004820152602b60248201527f496e697469616c697a61626c653a20636f6e7472616374206973206e6f74206960448201526a6e697469616c697a696e6760a81b6064820152608401610982565b600054610100900460ff16612ed25760405162461bcd60e51b815260206004820152602b60248201527f496e697469616c697a61626c653a20636f6e7472616374206973206e6f74206960448201526a6e697469616c697a696e6760a81b6064820152608401610982565b611327336125ed565b600054610100900460ff16612f465760405162461bcd60e51b815260206004820152602b60248201527f496e697469616c697a61626c653a20636f6e7472616374206973206e6f74206960448201526a6e697469616c697a696e6760a81b6064820152608401610982565b600160c955565b600054610100900460ff16612fb85760405162461bcd60e51b815260206004820152602b60248201527f496e697469616c697a61626c653a20636f6e7472616374206973206e6f74206960448201526a6e697469616c697a696e6760a81b6064820152608401610982565b60fb805460ff19169055565b600060208284031215612fd657600080fd5b5035919050565b600060208284031215612fef57600080fd5b81357fffffffff000000000000000000000000000000000000000000000000000000008116811461119757600080fd5b80356001600160a01b038116811461303657600080fd5b919050565b6000806040838503121561304e57600080fd5b8235915061305e6020840161301f565b90509250929050565b60006020828403121561307957600080fd5b6111978261301f565b634e487b7160e01b600052602160045260246000fd5b60208101600683106130ac576130ac613082565b91905290565b6000602082840312156130c457600080fd5b8135801515811461119757600080fd5b6000806000606084860312156130e957600080fd5b833592506130f96020850161301f565b9150604084013590509250925092565b634e487b7160e01b600052604160045260246000fd5b6000806040838503121561313257600080fd5b61313b8361301f565b9150602083013567ffffffffffffffff8082111561315857600080fd5b818501915085601f83011261316c57600080fd5b81358181111561317e5761317e613109565b604051601f8201601f19908116603f011681019083821181831017156131a6576131a6613109565b816040528281528860208487010111156131bf57600080fd5b8260208601602083013760006020848301015280955050505050509250929050565b600080604083850312156131f457600080fd5b50508035926020909101359150565b6000806000806080858703121561321957600080fd5b6132228561301f565b93506132306020860161301f565b93969395505050506040820135916060013590565b602080825282518282018190526000919060409081850190868401855b828110156132e15781518051855286810151878601528581015186860152606080820151908601526080808201519086015260a0808201519086015260c0808201519086015260e08082015115159086015261010080820151151590860152610120908101511515908501526101409093019290850190600101613262565b5091979650505050505050565b60208101600383106130ac576130ac613082565b60008060006060848603121561331757600080fd5b505081359360208301359350604090920135919050565b600081518084526020808501945080840160005b8381101561335e57815187529582019590820190600101613342565b509495945050505050565b606080825284519082018190526000906020906080840190828801845b828110156133ab5781516001600160a01b031684529284019290840190600101613386565b505050838103828501526133bf818761332e565b91505082810360408401526133d4818561332e565b9695505050505050565b634e487b7160e01b600052601160045260246000fd5b60008219821115613407576134076133de565b500190565b60008282101561341e5761341e6133de565b500390565b634e487b7160e01b600052603260045260246000fd5b600060001982141561344d5761344d6133de565b5060010190565b60005b8381101561346f578181015183820152602001613457565b83811115610ffa5750506000910152565b7f416363657373436f6e74726f6c3a206163636f756e74200000000000000000008152600083516134b8816017850160208801613454565b7f206973206d697373696e6720726f6c652000000000000000000000000000000060179184019182015283516134f5816028840160208801613454565b01602801949350505050565b6020815260008251806020840152613520816040850160208701613454565b601f01601f19169190910160400192915050565b60006020828403121561354657600080fd5b5051919050565b6000816000190483118215151615613567576135676133de565b500290565b60008161357b5761357b6133de565b506000190190565b60008251613595818460208701613454565b919091019291505056fe416464726573733a206c6f772d6c6576656c2064656c65676174652063616c6c206661696c6564a2646970667358221220ae748f10ffd699e43ae82cbd8a26309732dd358d0201b0c65d437f9f86416fff64736f6c634300080b0033",
  "linkReferences": {},
  "deployedLinkReferences": {}
}