{
  "_format": "hh-sol-artifact-1",
  "contractName": "PolyZDAO",
  "sourceName": "contracts/polygon/PolyZDAO.sol",
  "abi": [
    {
      "anonymous": false,
      "inputs": [
        {
          "indexed": false,
          "internalType": "address",
          "name": "previousAdmin",
          "type": "address"
        },
        {
          "indexed": false,
          "internalType": "address",
          "name": "newAdmin",
          "type": "address"
        }
      ],
      "name": "AdminChanged",
      "type": "event"
    },
    {
      "anonymous": false,
      "inputs": [
        {
          "indexed": true,
          "internalType": "address",
          "name": "beacon",
          "type": "address"
        }
      ],
      "name": "BeaconUpgraded",
      "type": "event"
    },
    {
      "anonymous": false,
      "inputs": [
        {
          "indexed": true,
          "internalType": "address",
          "name": "previousOwner",
          "type": "address"
        },
        {
          "indexed": true,
          "internalType": "address",
          "name": "newOwner",
          "type": "address"
        }
      ],
      "name": "OwnershipTransferred",
      "type": "event"
    },
    {
      "anonymous": false,
      "inputs": [
        {
          "indexed": false,
          "internalType": "address",
          "name": "account",
          "type": "address"
        }
      ],
      "name": "Paused",
      "type": "event"
    },
    {
      "anonymous": false,
      "inputs": [
        {
          "indexed": true,
          "internalType": "bytes32",
          "name": "role",
          "type": "bytes32"
        },
        {
          "indexed": true,
          "internalType": "bytes32",
          "name": "previousAdminRole",
          "type": "bytes32"
        },
        {
          "indexed": true,
          "internalType": "bytes32",
          "name": "newAdminRole",
          "type": "bytes32"
        }
      ],
      "name": "RoleAdminChanged",
      "type": "event"
    },
    {
      "anonymous": false,
      "inputs": [
        {
          "indexed": true,
          "internalType": "bytes32",
          "name": "role",
          "type": "bytes32"
        },
        {
          "indexed": true,
          "internalType": "address",
          "name": "account",
          "type": "address"
        },
        {
          "indexed": true,
          "internalType": "address",
          "name": "sender",
          "type": "address"
        }
      ],
      "name": "RoleGranted",
      "type": "event"
    },
    {
      "anonymous": false,
      "inputs": [
        {
          "indexed": true,
          "internalType": "bytes32",
          "name": "role",
          "type": "bytes32"
        },
        {
          "indexed": true,
          "internalType": "address",
          "name": "account",
          "type": "address"
        },
        {
          "indexed": true,
          "internalType": "address",
          "name": "sender",
          "type": "address"
        }
      ],
      "name": "RoleRevoked",
      "type": "event"
    },
    {
      "anonymous": false,
      "inputs": [
        {
          "indexed": false,
          "internalType": "address",
          "name": "account",
          "type": "address"
        }
      ],
      "name": "Unpaused",
      "type": "event"
    },
    {
      "anonymous": false,
      "inputs": [
        {
          "indexed": true,
          "internalType": "address",
          "name": "implementation",
          "type": "address"
        }
      ],
      "name": "Upgraded",
      "type": "event"
    },
    {
      "inputs": [],
      "name": "DEFAULT_ADMIN_ROLE",
      "outputs": [
        {
          "internalType": "bytes32",
          "name": "",
          "type": "bytes32"
        }
      ],
      "stateMutability": "view",
      "type": "function"
    },
    {
      "inputs": [
        {
          "internalType": "address",
          "name": "_zDAOChef",
          "type": "address"
        },
        {
          "internalType": "address",
          "name": "_staking",
          "type": "address"
        },
        {
          "internalType": "uint256",
          "name": "_zDAOId",
          "type": "uint256"
        }
      ],
      "name": "__ZDAO_init",
      "outputs": [],
      "stateMutability": "nonpayable",
      "type": "function"
    },
    {
      "inputs": [
        {
          "internalType": "uint256",
          "name": "_proposalId",
          "type": "uint256"
        }
      ],
      "name": "canCollectProposal",
      "outputs": [
        {
          "internalType": "bool",
          "name": "",
          "type": "bool"
        }
      ],
      "stateMutability": "view",
      "type": "function"
    },
    {
      "inputs": [
        {
          "internalType": "uint256",
          "name": "_proposalId",
          "type": "uint256"
        },
        {
          "internalType": "address",
          "name": "_voter",
          "type": "address"
        }
      ],
      "name": "canVote",
      "outputs": [
        {
          "internalType": "bool",
          "name": "",
          "type": "bool"
        }
      ],
      "stateMutability": "view",
      "type": "function"
    },
    {
      "inputs": [
        {
          "internalType": "uint256",
          "name": "_proposalId",
          "type": "uint256"
        }
      ],
      "name": "cancelProposal",
      "outputs": [],
      "stateMutability": "nonpayable",
      "type": "function"
    },
    {
      "inputs": [
        {
          "internalType": "uint256",
          "name": "_proposalId",
          "type": "uint256"
        },
        {
          "internalType": "address",
          "name": "_voter",
          "type": "address"
        }
      ],
      "name": "choiceOfVoter",
      "outputs": [
        {
          "internalType": "enum IPolyZDAO.VoterChoice",
          "name": "",
          "type": "uint8"
        }
      ],
      "stateMutability": "view",
      "type": "function"
    },
    {
      "inputs": [
        {
          "internalType": "uint256",
          "name": "_proposalId",
          "type": "uint256"
        }
      ],
      "name": "collectProposal",
      "outputs": [
        {
          "internalType": "uint256",
          "name": "voters",
          "type": "uint256"
        },
        {
          "internalType": "uint256",
          "name": "yes",
          "type": "uint256"
        },
        {
          "internalType": "uint256",
          "name": "no",
          "type": "uint256"
        }
      ],
      "stateMutability": "nonpayable",
      "type": "function"
    },
    {
      "inputs": [
        {
          "internalType": "uint256",
          "name": "_proposalId",
          "type": "uint256"
        },
        {
          "internalType": "uint256",
          "name": "_startTimestamp",
          "type": "uint256"
        },
        {
          "internalType": "uint256",
          "name": "_endTimestamp",
          "type": "uint256"
        }
      ],
      "name": "createProposal",
      "outputs": [],
      "stateMutability": "nonpayable",
      "type": "function"
    },
    {
      "inputs": [],
      "name": "destroyed",
      "outputs": [
        {
          "internalType": "bool",
          "name": "",
          "type": "bool"
        }
      ],
      "stateMutability": "view",
      "type": "function"
    },
    {
      "inputs": [
        {
          "internalType": "uint256",
          "name": "_proposalId",
          "type": "uint256"
        }
      ],
      "name": "executeProposal",
      "outputs": [],
      "stateMutability": "nonpayable",
      "type": "function"
    },
    {
      "inputs": [
        {
          "internalType": "bytes32",
          "name": "role",
          "type": "bytes32"
        }
      ],
      "name": "getRoleAdmin",
      "outputs": [
        {
          "internalType": "bytes32",
          "name": "",
          "type": "bytes32"
        }
      ],
      "stateMutability": "view",
      "type": "function"
    },
    {
      "inputs": [
        {
          "internalType": "bytes32",
          "name": "role",
          "type": "bytes32"
        },
        {
          "internalType": "address",
          "name": "account",
          "type": "address"
        }
      ],
      "name": "grantRole",
      "outputs": [],
      "stateMutability": "nonpayable",
      "type": "function"
    },
    {
      "inputs": [
        {
          "internalType": "bytes32",
          "name": "role",
          "type": "bytes32"
        },
        {
          "internalType": "address",
          "name": "account",
          "type": "address"
        }
      ],
      "name": "hasRole",
      "outputs": [
        {
          "internalType": "bool",
          "name": "",
          "type": "bool"
        }
      ],
      "stateMutability": "view",
      "type": "function"
    },
    {
      "inputs": [
        {
          "internalType": "uint256",
          "name": "_startIndex",
          "type": "uint256"
        },
        {
          "internalType": "uint256",
          "name": "_endIndex",
          "type": "uint256"
        }
      ],
      "name": "listProposals",
      "outputs": [
        {
          "components": [
            {
              "internalType": "uint256",
              "name": "proposalId",
              "type": "uint256"
            },
            {
              "internalType": "uint256",
              "name": "startTimestamp",
              "type": "uint256"
            },
            {
              "internalType": "uint256",
              "name": "endTimestamp",
              "type": "uint256"
            },
            {
              "internalType": "uint256",
              "name": "yes",
              "type": "uint256"
            },
            {
              "internalType": "uint256",
              "name": "no",
              "type": "uint256"
            },
            {
              "internalType": "uint256",
              "name": "voters",
              "type": "uint256"
            },
            {
              "internalType": "uint256",
              "name": "snapshot",
              "type": "uint256"
            },
            {
              "internalType": "bool",
              "name": "collected",
              "type": "bool"
            },
            {
              "internalType": "bool",
              "name": "executed",
              "type": "bool"
            },
            {
              "internalType": "bool",
              "name": "canceled",
              "type": "bool"
            }
          ],
          "internalType": "struct IPolyZDAO.Proposal[]",
          "name": "",
          "type": "tuple[]"
        }
      ],
      "stateMutability": "view",
      "type": "function"
    },
    {
      "inputs": [
        {
          "internalType": "uint256",
          "name": "_proposalId",
          "type": "uint256"
        },
        {
          "internalType": "uint256",
          "name": "_startIndex",
          "type": "uint256"
        },
        {
          "internalType": "uint256",
          "name": "_endIndex",
          "type": "uint256"
        }
      ],
      "name": "listVoters",
      "outputs": [
        {
          "internalType": "address[]",
          "name": "voters",
          "type": "address[]"
        },
        {
          "internalType": "uint256[]",
          "name": "choices",
          "type": "uint256[]"
        },
        {
          "internalType": "uint256[]",
          "name": "votes",
          "type": "uint256[]"
        }
      ],
      "stateMutability": "view",
      "type": "function"
    },
    {
      "inputs": [],
      "name": "numberOfProposals",
      "outputs": [
        {
          "internalType": "uint256",
          "name": "",
          "type": "uint256"
        }
      ],
      "stateMutability": "view",
      "type": "function"
    },
    {
      "inputs": [],
      "name": "owner",
      "outputs": [
        {
          "internalType": "address",
          "name": "",
          "type": "address"
        }
      ],
      "stateMutability": "view",
      "type": "function"
    },
    {
      "inputs": [],
      "name": "paused",
      "outputs": [
        {
          "internalType": "bool",
          "name": "",
          "type": "bool"
        }
      ],
      "stateMutability": "view",
      "type": "function"
    },
    {
      "inputs": [
        {
          "internalType": "uint256",
          "name": "",
          "type": "uint256"
        }
      ],
      "name": "proposalIds",
      "outputs": [
        {
          "internalType": "uint256",
          "name": "",
          "type": "uint256"
        }
      ],
      "stateMutability": "view",
      "type": "function"
    },
    {
      "inputs": [
        {
          "internalType": "uint256",
          "name": "",
          "type": "uint256"
        }
      ],
      "name": "proposals",
      "outputs": [
        {
          "internalType": "uint256",
          "name": "proposalId",
          "type": "uint256"
        },
        {
          "internalType": "uint256",
          "name": "startTimestamp",
          "type": "uint256"
        },
        {
          "internalType": "uint256",
          "name": "endTimestamp",
          "type": "uint256"
        },
        {
          "internalType": "uint256",
          "name": "yes",
          "type": "uint256"
        },
        {
          "internalType": "uint256",
          "name": "no",
          "type": "uint256"
        },
        {
          "internalType": "uint256",
          "name": "voters",
          "type": "uint256"
        },
        {
          "internalType": "uint256",
          "name": "snapshot",
          "type": "uint256"
        },
        {
          "internalType": "bool",
          "name": "collected",
          "type": "bool"
        },
        {
          "internalType": "bool",
          "name": "executed",
          "type": "bool"
        },
        {
          "internalType": "bool",
          "name": "canceled",
          "type": "bool"
        }
      ],
      "stateMutability": "view",
      "type": "function"
    },
    {
      "inputs": [],
      "name": "renounceOwnership",
      "outputs": [],
      "stateMutability": "nonpayable",
      "type": "function"
    },
    {
      "inputs": [
        {
          "internalType": "bytes32",
          "name": "role",
          "type": "bytes32"
        },
        {
          "internalType": "address",
          "name": "account",
          "type": "address"
        }
      ],
      "name": "renounceRole",
      "outputs": [],
      "stateMutability": "nonpayable",
      "type": "function"
    },
    {
      "inputs": [
        {
          "internalType": "bytes32",
          "name": "role",
          "type": "bytes32"
        },
        {
          "internalType": "address",
          "name": "account",
          "type": "address"
        }
      ],
      "name": "revokeRole",
      "outputs": [],
      "stateMutability": "nonpayable",
      "type": "function"
    },
    {
      "inputs": [
        {
          "internalType": "bool",
          "name": "_destroyed",
          "type": "bool"
        }
      ],
      "name": "setDestroyed",
      "outputs": [],
      "stateMutability": "nonpayable",
      "type": "function"
    },
    {
      "inputs": [],
      "name": "staking",
      "outputs": [
        {
          "internalType": "contract Staking",
          "name": "",
          "type": "address"
        }
      ],
      "stateMutability": "view",
      "type": "function"
    },
    {
      "inputs": [
        {
          "internalType": "uint256",
          "name": "_proposalId",
          "type": "uint256"
        }
      ],
      "name": "state",
      "outputs": [
        {
          "internalType": "enum IPolyZDAO.ProposalState",
          "name": "",
          "type": "uint8"
        }
      ],
      "stateMutability": "view",
      "type": "function"
    },
    {
      "inputs": [
        {
          "internalType": "bytes4",
          "name": "interfaceId",
          "type": "bytes4"
        }
      ],
      "name": "supportsInterface",
      "outputs": [
        {
          "internalType": "bool",
          "name": "",
          "type": "bool"
        }
      ],
      "stateMutability": "view",
      "type": "function"
    },
    {
      "inputs": [
        {
          "internalType": "address",
          "name": "newOwner",
          "type": "address"
        }
      ],
      "name": "transferOwnership",
      "outputs": [],
      "stateMutability": "nonpayable",
      "type": "function"
    },
    {
      "inputs": [
        {
          "internalType": "address",
          "name": "newImplementation",
          "type": "address"
        }
      ],
      "name": "upgradeTo",
      "outputs": [],
      "stateMutability": "nonpayable",
      "type": "function"
    },
    {
      "inputs": [
        {
          "internalType": "address",
          "name": "newImplementation",
          "type": "address"
        },
        {
          "internalType": "bytes",
          "name": "data",
          "type": "bytes"
        }
      ],
      "name": "upgradeToAndCall",
      "outputs": [],
      "stateMutability": "payable",
      "type": "function"
    },
    {
      "inputs": [],
      "name": "version",
      "outputs": [
        {
          "internalType": "uint256",
          "name": "",
          "type": "uint256"
        }
      ],
      "stateMutability": "view",
      "type": "function"
    },
    {
      "inputs": [
        {
          "internalType": "uint256",
          "name": "_proposalId",
          "type": "uint256"
        },
        {
          "internalType": "address",
          "name": "_voter",
          "type": "address"
        },
        {
          "internalType": "uint256",
          "name": "_choice",
          "type": "uint256"
        }
      ],
      "name": "vote",
      "outputs": [],
      "stateMutability": "nonpayable",
      "type": "function"
    },
    {
      "inputs": [
        {
          "internalType": "uint256",
          "name": "_proposalId",
          "type": "uint256"
        }
      ],
      "name": "votesResultOfProposal",
      "outputs": [
        {
          "internalType": "uint256",
          "name": "voters",
          "type": "uint256"
        },
        {
          "internalType": "uint256",
          "name": "yes",
          "type": "uint256"
        },
        {
          "internalType": "uint256",
          "name": "no",
          "type": "uint256"
        }
      ],
      "stateMutability": "view",
      "type": "function"
    },
    {
      "inputs": [
        {
          "internalType": "uint256",
          "name": "_proposalId",
          "type": "uint256"
        },
        {
          "internalType": "address",
          "name": "_voter",
          "type": "address"
        }
      ],
      "name": "votingPowerOfVoter",
      "outputs": [
        {
          "internalType": "uint256",
          "name": "",
          "type": "uint256"
        }
      ],
      "stateMutability": "view",
      "type": "function"
    },
    {
      "inputs": [],
      "name": "zDAOChef",
      "outputs": [
        {
          "internalType": "address",
          "name": "",
          "type": "address"
        }
      ],
      "stateMutability": "view",
      "type": "function"
    },
    {
      "inputs": [],
      "name": "zDAOId",
      "outputs": [
        {
          "internalType": "uint256",
          "name": "",
          "type": "uint256"
        }
      ],
      "stateMutability": "view",
      "type": "function"
    },
    {
      "inputs": [],
      "name": "zDAOInfo",
      "outputs": [
        {
          "internalType": "uint256",
          "name": "zDAOId",
          "type": "uint256"
        },
        {
          "internalType": "uint256",
          "name": "snapshot",
          "type": "uint256"
        },
        {
          "internalType": "bool",
          "name": "destroyed",
          "type": "bool"
        }
      ],
      "stateMutability": "view",
      "type": "function"
    }
  ],
  "bytecode": "0x60a06040523060805234801561001457600080fd5b5060805161393a61004560003960008181610bf901528181610c8f015281816111cc0152611262015261393a6000f3fe60806040526004361061026a5760003560e01c806362a8dab9116101535780639b644a23116100cb578063cdb2867b1161007f578063d8191e6c11610064578063d8191e6c146107f7578063e0a8f6f514610839578063f2fde38b1461085957600080fd5b8063cdb2867b146107b7578063d547741f146107d757600080fd5b8063a62eb632116100b0578063a62eb63214610709578063affc179314610729578063b5c23fdd1461078857600080fd5b80639b644a23146106d4578063a217fddf146106f457600080fd5b8063890cb1f3116101225780638da5cb5b116101075780638da5cb5b1461064f57806390bfeab31461066d57806391d148541461068e57600080fd5b8063890cb1f3146106195780638d7af4731461063957600080fd5b806362a8dab914610597578063715018a6146105b7578063722c5176146105cc5780637f6dda14146105ec57600080fd5b80633659cfe6116101e65780634cf088d9116101b55780634f1ef2861161019a5780634f1ef2861461055557806354fd4d50146105685780635c975abb1461057f57600080fd5b80634cf088d9146104fc5780634de8737c1461053557600080fd5b80633659cfe61461046f5780633e4f49e61461048f578063472858b4146104bc5780634b948456146104dc57600080fd5b8063151936131161023d5780632f2ff15d116102225780632f2ff15d14610416578063359cbbc91461043657806336568abe1461044f57600080fd5b806315193613146103c6578063248a9ca3146103e657600080fd5b8063013cf08b1461026f57806301ffc9a7146103395780630d61b51914610369578063120e33da1461038b575b600080fd5b34801561027b57600080fd5b506102e461028a366004613318565b610197602052600090815260409020805460018201546002830154600384015460048501546005860154600687015460079097015495969495939492939192909160ff80821691610100810482169162010000909104168a565b604080519a8b5260208b0199909952978901969096526060880194909452608087019290925260a086015260c0850152151560e084015215156101008301521515610120820152610140015b60405180910390f35b34801561034557600080fd5b50610359610354366004613331565b610879565b6040519015158152602001610330565b34801561037557600080fd5b50610389610384366004613318565b610912565b005b34801561039757600080fd5b506103ab6103a6366004613318565b610a78565b60408051938452602084019290925290820152606001610330565b3480156103d257600080fd5b50610194545b604051908152602001610330565b3480156103f257600080fd5b506103d8610401366004613318565b60009081526097602052604090206001015490565b34801561042257600080fd5b5061038961043136600461338f565b610b3b565b34801561044257600080fd5b506101965460ff16610359565b34801561045b57600080fd5b5061038961046a36600461338f565b610b66565b34801561047b57600080fd5b5061038961048a3660046133bb565b610bee565b34801561049b57600080fd5b506104af6104aa366004613318565b610d8c565b60405161033091906133ec565b3480156104c857600080fd5b506103896104d7366004613406565b610e19565b3480156104e857600080fd5b506103896104f7366004613428565b610e79565b34801561050857600080fd5b506101935461051d906001600160a01b031681565b6040516001600160a01b039091168152602001610330565b34801561054157600080fd5b50610389610550366004613464565b610fbc565b61038961056336600461349f565b6111c1565b34801561057457600080fd5b506103d86101915481565b34801561058b57600080fd5b5060fb5460ff16610359565b3480156105a357600080fd5b506103d86105b236600461338f565b61134c565b3480156105c357600080fd5b5061038961135f565b3480156105d857600080fd5b506103896105e7366004613561565b6113c5565b3480156105f857600080fd5b5061060c61060736600461358d565b6114d9565b60405161033091906135af565b34801561062557600080fd5b506103ab610634366004613318565b6117f0565b34801561064557600080fd5b50610199546103d8565b34801561065b57600080fd5b506033546001600160a01b031661051d565b34801561067957600080fd5b506101925461051d906001600160a01b031681565b34801561069a57600080fd5b506103596106a936600461338f565b60009182526097602090815260408084206001600160a01b0393909316845291905290205460ff1690565b3480156106e057600080fd5b506103d86106ef366004613318565b6119e3565b34801561070057600080fd5b506103d8600081565b34801561071557600080fd5b50610359610724366004613318565b611a05565b34801561073557600080fd5b5061077b61074436600461338f565b6000918252610198602090815260408084206001600160a01b0393909316845260019092019052902054600160a01b900460ff1690565b6040516103309190613658565b34801561079457600080fd5b506107a86107a3366004613561565b611a10565b604051610330939291906136a7565b3480156107c357600080fd5b506103596107d236600461338f565b611e18565b3480156107e357600080fd5b506103896107f236600461338f565b611e24565b34801561080357600080fd5b5061019454610195546101965461081c92919060ff1683565b604080519384526020840192909252151590820152606001610330565b34801561084557600080fd5b50610389610854366004613318565b611e4a565b34801561086557600080fd5b506103896108743660046133bb565b611fa9565b60007fffffffff0000000000000000000000000000000000000000000000000000000082167f7965db0b00000000000000000000000000000000000000000000000000000000148061090c57507f01ffc9a7000000000000000000000000000000000000000000000000000000007fffffffff000000000000000000000000000000000000000000000000000000008316145b92915050565b610192546001600160a01b031633146109635760405162461bcd60e51b815260206004820152600e60248201526d2737ba1030902d2220a7a1b432b360911b60448201526064015b60405180910390fd5b6101965460ff16156109b75760405162461bcd60e51b815260206004820152601160248201527f416c72656164792064657374726f796564000000000000000000000000000000604482015260640161095a565b600081815261019760205260409020548190811480156109ef575060008181526101976020526040902060070154610100900460ff16155b8015610a1457506000818152610197602052604090206007015462010000900460ff16155b610a4f5760405162461bcd60e51b815260206004820152600c60248201526b496e76616c6964207a44414f60a01b604482015260640161095a565b610a7482600090815261019760205260409020600701805461ff001916610100179055565b5050565b6000818152610197602052604081205481908190849081148015610ab4575060008181526101976020526040902060070154610100900460ff16155b8015610ad957506000818152610197602052604090206007015462010000900460ff16155b610b145760405162461bcd60e51b815260206004820152600c60248201526b496e76616c6964207a44414f60a01b604482015260640161095a565b50505060009182525061019760205260409020600581015460038201546004909201549092565b600082815260976020526040902060010154610b578133612088565b610b618383612108565b505050565b6001600160a01b0381163314610be45760405162461bcd60e51b815260206004820152602f60248201527f416363657373436f6e74726f6c3a2063616e206f6e6c792072656e6f756e636560448201527f20726f6c657320666f722073656c660000000000000000000000000000000000606482015260840161095a565b610a7482826121aa565b306001600160a01b037f0000000000000000000000000000000000000000000000000000000000000000161415610c8d5760405162461bcd60e51b815260206004820152602c60248201527f46756e6374696f6e206d7573742062652063616c6c6564207468726f7567682060448201527f64656c656761746563616c6c0000000000000000000000000000000000000000606482015260840161095a565b7f00000000000000000000000000000000000000000000000000000000000000006001600160a01b0316610ce87f360894a13ba1a3210667c828492db98dca3e2076cc3735a920a3ca505d382bbc546001600160a01b031690565b6001600160a01b031614610d645760405162461bcd60e51b815260206004820152602c60248201527f46756e6374696f6e206d7573742062652063616c6c6564207468726f7567682060448201527f6163746976652070726f78790000000000000000000000000000000000000000606482015260840161095a565b610d6d8161222d565b60408051600080825260208201909252610d8991839190612287565b50565b600081815261019760205260408120600781015462010000900460ff1615610db75750600292915050565b80600101544211610dcb5750600092915050565b80600201544211610ddf5750600192915050565b6007810154610100900460ff1615610dfa5750600392915050565b600781015460ff1615610e105750600592915050565b50600492915050565b610192546001600160a01b03163314610e655760405162461bcd60e51b815260206004820152600e60248201526d2737ba1030902d2220a7a1b432b360911b604482015260640161095a565b610196805460ff1916911515919091179055565b600054610100900460ff16610e945760005460ff1615610e98565b303b155b610f0a5760405162461bcd60e51b815260206004820152602e60248201527f496e697469616c697a61626c653a20636f6e747261637420697320616c72656160448201527f647920696e697469616c697a6564000000000000000000000000000000000000606482015260840161095a565b600054610100900460ff16158015610f2c576000805461ffff19166101011790555b610f3461244b565b61019280546001600160a01b0380871673ffffffffffffffffffffffffffffffffffffffff19928316179092556101938054928616929091169190911790556040805160608101825283815243602082018190526000919092015261019483905561019555610196805460ff191690558015610fb6576000805461ff00191690555b50505050565b610192546001600160a01b031633146110085760405162461bcd60e51b815260206004820152600e60248201526d2737ba1030902d2220a7a1b432b360911b604482015260640161095a565b6101965460ff161561105c5760405162461bcd60e51b815260206004820152601160248201527f416c72656164792064657374726f796564000000000000000000000000000000604482015260640161095a565b60008381526101976020526040902054839081148015611094575060008181526101976020526040902060070154610100900460ff16155b80156110b957506000818152610197602052604090206007015462010000900460ff16155b6110f45760405162461bcd60e51b815260206004820152600c60248201526b496e76616c6964207a44414f60a01b604482015260640161095a565b60018214806111035750600282145b61114f5760405162461bcd60e51b815260206004820152600e60248201527f496e76616c69642063686f696365000000000000000000000000000000000000604482015260640161095a565b61115984846124e6565b6111a55760405162461bcd60e51b815260206004820152601460248201527f4e6f742076616c696420666f7220766f74696e67000000000000000000000000604482015260640161095a565b610fb684848460028111156111bc576111bc6133d6565b6125c8565b306001600160a01b037f00000000000000000000000000000000000000000000000000000000000000001614156112605760405162461bcd60e51b815260206004820152602c60248201527f46756e6374696f6e206d7573742062652063616c6c6564207468726f7567682060448201527f64656c656761746563616c6c0000000000000000000000000000000000000000606482015260840161095a565b7f00000000000000000000000000000000000000000000000000000000000000006001600160a01b03166112bb7f360894a13ba1a3210667c828492db98dca3e2076cc3735a920a3ca505d382bbc546001600160a01b031690565b6001600160a01b0316146113375760405162461bcd60e51b815260206004820152602c60248201527f46756e6374696f6e206d7573742062652063616c6c6564207468726f7567682060448201527f6163746976652070726f78790000000000000000000000000000000000000000606482015260840161095a565b6113408261222d565b610a7482826001612287565b600061135883836127c8565b9392505050565b6033546001600160a01b031633146113b95760405162461bcd60e51b815260206004820181905260248201527f4f776e61626c653a2063616c6c6572206973206e6f7420746865206f776e6572604482015260640161095a565b6113c3600061286b565b565b610192546001600160a01b031633146114115760405162461bcd60e51b815260206004820152600e60248201526d2737ba1030902d2220a7a1b432b360911b604482015260640161095a565b6101965460ff16156114655760405162461bcd60e51b815260206004820152601160248201527f416c72656164792064657374726f796564000000000000000000000000000000604482015260640161095a565b600083118015611482575060008381526101976020526040902054155b6114ce5760405162461bcd60e51b815260206004820152601c60248201527f50726f706f73616c2077617320616c7265616479206372656174656400000000604482015260640161095a565b610b618383836128ca565b60606000831161152b5760405162461bcd60e51b815260206004820152601660248201527f73686f756c6420737461727420696e646578203e203000000000000000000000604482015260640161095a565b8183111561157b5760405162461bcd60e51b815260206004820152601960248201527f73686f756c6420737461727420696e646578203c3d20656e6400000000000000604482015260640161095a565b610199548311156115ce5760405162461bcd60e51b815260206004820152601c60248201527f73686f756c6420737461727420696e646578203c3d206c656e67746800000000604482015260640161095a565b610199548211156116215760405162461bcd60e51b815260206004820152601a60248201527f73686f756c6420656e6420696e646578203c3d206c656e677468000000000000604482015260640161095a565b600061162d8484613732565b611638906001613749565b905060008167ffffffffffffffff81111561165557611655613489565b6040519080825280602002602001820160405280156116e257816020015b6116cf604051806101400160405280600081526020016000815260200160008152602001600081526020016000815260200160008152602001600081526020016000151581526020016000151581526020016000151581525090565b8152602001906001900390816116735790505b50905060005b828110156117e75761019760006101996001611704858b613749565b61170e9190613732565b8154811061171e5761171e613761565b600091825260208083209091015483528281019390935260409182019020815161014081018352815481526001820154938101939093526002810154918301919091526003810154606083015260048101546080830152600581015460a0830152600681015460c08301526007015460ff808216151560e084015261010080830482161515908401526201000090910416151561012082015282518390839081106117cb576117cb613761565b6020026020010181905250806117e090613777565b90506116e8565b50949350505050565b61019254600090819081906001600160a01b031633146118435760405162461bcd60e51b815260206004820152600e60248201526d2737ba1030902d2220a7a1b432b360911b604482015260640161095a565b6101965460ff16156118975760405162461bcd60e51b815260206004820152601160248201527f416c72656164792064657374726f796564000000000000000000000000000000604482015260640161095a565b600084815261019760205260409020548490811480156118cf575060008181526101976020526040902060070154610100900460ff16155b80156118f457506000818152610197602052604090206007015462010000900460ff16155b61192f5760405162461bcd60e51b815260206004820152600c60248201526b496e76616c6964207a44414f60a01b604482015260640161095a565b61193885612a25565b6119aa5760405162461bcd60e51b815260206004820152602160248201527f4e6f742076616c696420666f7220636f6c6c656374696e672070726f706f736160448201527f6c00000000000000000000000000000000000000000000000000000000000000606482015260840161095a565b505050600091825250610197602052604090206005810154600382015460048301546007909301805460ff191660011790559092909190565b61019981815481106119f457600080fd5b600091825260209091200154905081565b600061090c82612a25565b6000838152610197602052604090205460609081908190869081148015611a4f575060008181526101976020526040902060070154610100900460ff16155b8015611a7457506000818152610197602052604090206007015462010000900460ff16155b611aaf5760405162461bcd60e51b815260206004820152600c60248201526b496e76616c6964207a44414f60a01b604482015260640161095a565b60008781526101986020526040902086611b0b5760405162461bcd60e51b815260206004820152601660248201527f73686f756c6420737461727420696e646578203e203000000000000000000000604482015260640161095a565b85871115611b5b5760405162461bcd60e51b815260206004820152601960248201527f73686f756c6420737461727420696e646578203c3d20656e6400000000000000604482015260640161095a565b8054871115611bac5760405162461bcd60e51b815260206004820152601c60248201527f73686f756c6420737461727420696e646578203c3d206c656e67746800000000604482015260640161095a565b8054861115611bfd5760405162461bcd60e51b815260206004820152601a60248201527f73686f756c6420656e6420696e646578203c3d206c656e677468000000000000604482015260640161095a565b6000611c098888613732565b611c14906001613749565b90508067ffffffffffffffff811115611c2f57611c2f613489565b604051908082528060200260200182016040528015611c58578160200160208202803683370190505b5095508067ffffffffffffffff811115611c7457611c74613489565b604051908082528060200260200182016040528015611c9d578160200160208202803683370190505b5094508067ffffffffffffffff811115611cb957611cb9613489565b604051908082528060200260200182016040528015611ce2578160200160208202803683370190505b5093506000805b82811015611e0a57836001611cfe838d613749565b611d089190613732565b81548110611d1857611d18613761565b9060005260206000200160009054906101000a90046001600160a01b0316915081888281518110611d4b57611d4b613761565b6001600160a01b039283166020918202929092018101919091529083166000908152600186019091526040902054600160a01b900460ff166002811115611d9457611d946133d6565b878281518110611da657611da6613761565b602002602001018181525050836001016000836001600160a01b03166001600160a01b0316815260200190815260200160002060010154868281518110611def57611def613761565b6020908102919091010152611e0381613777565b9050611ce9565b505050505093509350939050565b600061135883836124e6565b600082815260976020526040902060010154611e408133612088565b610b6183836121aa565b610192546001600160a01b03163314611e965760405162461bcd60e51b815260206004820152600e60248201526d2737ba1030902d2220a7a1b432b360911b604482015260640161095a565b6101965460ff1615611eea5760405162461bcd60e51b815260206004820152601160248201527f416c72656164792064657374726f796564000000000000000000000000000000604482015260640161095a565b60008181526101976020526040902054819081148015611f22575060008181526101976020526040902060070154610100900460ff16155b8015611f4757506000818152610197602052604090206007015462010000900460ff16155b611f825760405162461bcd60e51b815260206004820152600c60248201526b496e76616c6964207a44414f60a01b604482015260640161095a565b610a7482600090815261019760205260409020600701805462ff0000191662010000179055565b6033546001600160a01b031633146120035760405162461bcd60e51b815260206004820181905260248201527f4f776e61626c653a2063616c6c6572206973206e6f7420746865206f776e6572604482015260640161095a565b6001600160a01b03811661207f5760405162461bcd60e51b815260206004820152602660248201527f4f776e61626c653a206e6577206f776e657220697320746865207a65726f206160448201527f6464726573730000000000000000000000000000000000000000000000000000606482015260840161095a565b610d898161286b565b60008281526097602090815260408083206001600160a01b038516845290915290205460ff16610a74576120c6816001600160a01b03166014612a4b565b6120d1836020612a4b565b6040516020016120e29291906137be565b60408051601f198184030181529082905262461bcd60e51b825261095a9160040161383f565b60008281526097602090815260408083206001600160a01b038516845290915290205460ff16610a745760008281526097602090815260408083206001600160a01b03851684529091529020805460ff191660011790556121663390565b6001600160a01b0316816001600160a01b0316837f2f8788117e7eff1d82e926ec794901d17c78024a50270940304540a733656f0d60405160405180910390a45050565b60008281526097602090815260408083206001600160a01b038516845290915290205460ff1615610a745760008281526097602090815260408083206001600160a01b0385168085529252808320805460ff1916905551339285917ff6391f5c32d9c69d2a47ea670b442974b53935d1edc7fd64eb21e047a839171b9190a45050565b6033546001600160a01b03163314610d895760405162461bcd60e51b815260206004820181905260248201527f4f776e61626c653a2063616c6c6572206973206e6f7420746865206f776e6572604482015260640161095a565b60006122ba7f360894a13ba1a3210667c828492db98dca3e2076cc3735a920a3ca505d382bbc546001600160a01b031690565b90506122c584612c74565b6000835111806122d25750815b156122e3576122e18484612d36565b505b7f4910fdfa16fed3260ed0e7147f7cc6da11a60208b5b9406d12a635614ffd9143805460ff1661244457805460ff191660011781556040516001600160a01b038316602482015261239090869060440160408051601f198184030181529190526020810180517bffffffffffffffffffffffffffffffffffffffffffffffffffffffff167f3659cfe600000000000000000000000000000000000000000000000000000000179052612d36565b50805460ff191681557f360894a13ba1a3210667c828492db98dca3e2076cc3735a920a3ca505d382bbc546001600160a01b0383811691161461243b5760405162461bcd60e51b815260206004820152602f60248201527f45524331393637557067726164653a207570677261646520627265616b73206660448201527f7572746865722075706772616465730000000000000000000000000000000000606482015260840161095a565b61244485612e38565b5050505050565b600054610100900460ff166124b65760405162461bcd60e51b815260206004820152602b60248201527f496e697469616c697a61626c653a20636f6e7472616374206973206e6f74206960448201526a6e697469616c697a696e6760a81b606482015260840161095a565b6124be612e78565b6124c6612ef3565b6124ce612f76565b6124d6612fe9565b6124de613064565b600161019155565b60008281526101976020526040812080548414158061250b5750612509816130cf565b155b1561251a57600091505061090c565b6101935460068201546040517f564e90e40000000000000000000000000000000000000000000000000000000081526000926001600160a01b03169163564e90e49161257e9188916004016001600160a01b03929092168252602082015260400190565b602060405180830381865afa15801561259b573d6000803e3d6000fd5b505050506040513d601f19601f820116820180604052508101906125bf9190613872565b11949350505050565b60008381526101976020908152604080832061019883528184206001600160a01b038716855260018101909352908320549092600160a01b90910460ff169061261187876127c8565b90506001826002811115612627576126276133d6565b141561264c57808460030160008282546126419190613732565b909155506126b39050565b6002826002811115612660576126606133d6565b141561267a57808460040160008282546126419190613732565b825460018101845560008481526020902001805473ffffffffffffffffffffffffffffffffffffffff19166001600160a01b0388161790555b6001600160a01b03861660008181526001850160205260409020805473ffffffffffffffffffffffffffffffffffffffff1981168317825587927fffffffffffffffffffffff00000000000000000000000000000000000000000090911617600160a01b836002811115612729576127296133d6565b02179055506001600160a01b0386166000908152600180850160205260409091208101829055856002811115612761576127616133d6565b1415612786578084600301600082825461277b9190613749565b909155506127ba9050565b600285600281111561279a5761279a6133d6565b14156127ba57808460040160008282546127b49190613749565b90915550505b505054600590910155505050565b61019354600083815261019760205260408082206006015490517f564e90e40000000000000000000000000000000000000000000000000000000081526001600160a01b03858116600483015260248201929092529192169063564e90e490604401602060405180830381865afa158015612847573d6000803e3d6000fd5b505050506040513d601f19601f820116820180604052508101906113589190613872565b603380546001600160a01b0383811673ffffffffffffffffffffffffffffffffffffffff19831681179093556040519116919082907f8be0079c531659141344cd1fd0a4f28419497f9722a3daafe3b4186f6b6457e090600090a35050565b60008381526101976020526040902054156129275760405162461bcd60e51b815260206004820152601860248201527f416c72656164792070726f706f73616c20637265617465640000000000000000604482015260640161095a565b604080516101408101825284815260208082019485528183019384526000606083018181526080840182815260a085018381524360c0870190815260e087018581526101008089018781526101208a018881528e8952610197909952998720985189559a516001808a019190915599516002890155935160038801559151600487015551600586015551600685015551600790930180549451925161ffff1990951693151561ff001916939093179115159095021762ff000019166201000092151592909202919091179055610199805491820181559091527f960942b7bcefc06c4573016a89cb45882597f73bb18f9afb0df2c0e01c496e1b0155565b600081815261019760205260408120805483148015611358575060020154421192915050565b60606000612a5a83600261388b565b612a65906002613749565b67ffffffffffffffff811115612a7d57612a7d613489565b6040519080825280601f01601f191660200182016040528015612aa7576020820181803683370190505b5090507f300000000000000000000000000000000000000000000000000000000000000081600081518110612ade57612ade613761565b60200101907effffffffffffffffffffffffffffffffffffffffffffffffffffffffffffff1916908160001a9053507f780000000000000000000000000000000000000000000000000000000000000081600181518110612b4157612b41613761565b60200101907effffffffffffffffffffffffffffffffffffffffffffffffffffffffffffff1916908160001a9053506000612b7d84600261388b565b612b88906001613749565b90505b6001811115612c25577f303132333435363738396162636465660000000000000000000000000000000085600f1660108110612bc957612bc9613761565b1a60f81b828281518110612bdf57612bdf613761565b60200101907effffffffffffffffffffffffffffffffffffffffffffffffffffffffffffff1916908160001a90535060049490941c93612c1e816138aa565b9050612b8b565b5083156113585760405162461bcd60e51b815260206004820181905260248201527f537472696e67733a20686578206c656e67746820696e73756666696369656e74604482015260640161095a565b803b612ce85760405162461bcd60e51b815260206004820152602d60248201527f455243313936373a206e657720696d706c656d656e746174696f6e206973206e60448201527f6f74206120636f6e747261637400000000000000000000000000000000000000606482015260840161095a565b7f360894a13ba1a3210667c828492db98dca3e2076cc3735a920a3ca505d382bbc805473ffffffffffffffffffffffffffffffffffffffff19166001600160a01b0392909216919091179055565b6060823b612dac5760405162461bcd60e51b815260206004820152602660248201527f416464726573733a2064656c65676174652063616c6c20746f206e6f6e2d636f60448201527f6e74726163740000000000000000000000000000000000000000000000000000606482015260840161095a565b600080846001600160a01b031684604051612dc791906138c1565b600060405180830381855af49150503d8060008114612e02576040519150601f19603f3d011682016040523d82523d6000602084013e612e07565b606091505b5091509150612e2f82826040518060600160405280602781526020016138de60279139613117565b95945050505050565b612e4181612c74565b6040516001600160a01b038216907fbc7cd75a20ee27fd9adebab32041f755214dbc6bffa90cc0225b39da2e5c2d3b90600090a250565b600054610100900460ff16612ee35760405162461bcd60e51b815260206004820152602b60248201527f496e697469616c697a61626c653a20636f6e7472616374206973206e6f74206960448201526a6e697469616c697a696e6760a81b606482015260840161095a565b612eeb613150565b6113c36131bb565b600054610100900460ff16612f5e5760405162461bcd60e51b815260206004820152602b60248201527f496e697469616c697a61626c653a20636f6e7472616374206973206e6f74206960448201526a6e697469616c697a696e6760a81b606482015260840161095a565b612f66613150565b612f6e613150565b6113c3613150565b600054610100900460ff16612fe15760405162461bcd60e51b815260206004820152602b60248201527f496e697469616c697a61626c653a20636f6e7472616374206973206e6f74206960448201526a6e697469616c697a696e6760a81b606482015260840161095a565b6113c361322f565b600054610100900460ff166130545760405162461bcd60e51b815260206004820152602b60248201527f496e697469616c697a61626c653a20636f6e7472616374206973206e6f74206960448201526a6e697469616c697a696e6760a81b606482015260840161095a565b61305c613150565b6113c36132a1565b600054610100900460ff16612f665760405162461bcd60e51b815260206004820152602b60248201527f496e697469616c697a61626c653a20636f6e7472616374206973206e6f74206960448201526a6e697469616c697a696e6760a81b606482015260840161095a565b6000816001015442101580156130e85750816002015442105b80156130ff5750600782015462010000900460ff16155b801561090c57505060070154610100900460ff161590565b60608315613126575081611358565b8251156131365782518084602001fd5b8160405162461bcd60e51b815260040161095a919061383f565b600054610100900460ff166113c35760405162461bcd60e51b815260206004820152602b60248201527f496e697469616c697a61626c653a20636f6e7472616374206973206e6f74206960448201526a6e697469616c697a696e6760a81b606482015260840161095a565b600054610100900460ff166132265760405162461bcd60e51b815260206004820152602b60248201527f496e697469616c697a61626c653a20636f6e7472616374206973206e6f74206960448201526a6e697469616c697a696e6760a81b606482015260840161095a565b6113c33361286b565b600054610100900460ff1661329a5760405162461bcd60e51b815260206004820152602b60248201527f496e697469616c697a61626c653a20636f6e7472616374206973206e6f74206960448201526a6e697469616c697a696e6760a81b606482015260840161095a565b600160c955565b600054610100900460ff1661330c5760405162461bcd60e51b815260206004820152602b60248201527f496e697469616c697a61626c653a20636f6e7472616374206973206e6f74206960448201526a6e697469616c697a696e6760a81b606482015260840161095a565b60fb805460ff19169055565b60006020828403121561332a57600080fd5b5035919050565b60006020828403121561334357600080fd5b81357fffffffff000000000000000000000000000000000000000000000000000000008116811461135857600080fd5b80356001600160a01b038116811461338a57600080fd5b919050565b600080604083850312156133a257600080fd5b823591506133b260208401613373565b90509250929050565b6000602082840312156133cd57600080fd5b61135882613373565b634e487b7160e01b600052602160045260246000fd5b6020810160068310613400576134006133d6565b91905290565b60006020828403121561341857600080fd5b8135801515811461135857600080fd5b60008060006060848603121561343d57600080fd5b61344684613373565b925061345460208501613373565b9150604084013590509250925092565b60008060006060848603121561347957600080fd5b8335925061345460208501613373565b634e487b7160e01b600052604160045260246000fd5b600080604083850312156134b257600080fd5b6134bb83613373565b9150602083013567ffffffffffffffff808211156134d857600080fd5b818501915085601f8301126134ec57600080fd5b8135818111156134fe576134fe613489565b604051601f8201601f19908116603f0116810190838211818310171561352657613526613489565b8160405282815288602084870101111561353f57600080fd5b8260208601602083013760006020848301015280955050505050509250929050565b60008060006060848603121561357657600080fd5b505081359360208301359350604090920135919050565b600080604083850312156135a057600080fd5b50508035926020909101359150565b602080825282518282018190526000919060409081850190868401855b8281101561364b5781518051855286810151878601528581015186860152606080820151908601526080808201519086015260a0808201519086015260c0808201519086015260e080820151151590860152610100808201511515908601526101209081015115159085015261014090930192908501906001016135cc565b5091979650505050505050565b6020810160038310613400576134006133d6565b600081518084526020808501945080840160005b8381101561369c57815187529582019590820190600101613680565b509495945050505050565b606080825284519082018190526000906020906080840190828801845b828110156136e95781516001600160a01b0316845292840192908401906001016136c4565b505050838103828501526136fd818761366c565b9150508281036040840152613712818561366c565b9695505050505050565b634e487b7160e01b600052601160045260246000fd5b6000828210156137445761374461371c565b500390565b6000821982111561375c5761375c61371c565b500190565b634e487b7160e01b600052603260045260246000fd5b600060001982141561378b5761378b61371c565b5060010190565b60005b838110156137ad578181015183820152602001613795565b83811115610fb65750506000910152565b7f416363657373436f6e74726f6c3a206163636f756e74200000000000000000008152600083516137f6816017850160208801613792565b7f206973206d697373696e6720726f6c65200000000000000000000000000000006017918401918201528351613833816028840160208801613792565b01602801949350505050565b602081526000825180602084015261385e816040850160208701613792565b601f01601f19169190910160400192915050565b60006020828403121561388457600080fd5b5051919050565b60008160001904831182151516156138a5576138a561371c565b500290565b6000816138b9576138b961371c565b506000190190565b600082516138d3818460208701613792565b919091019291505056fe416464726573733a206c6f772d6c6576656c2064656c65676174652063616c6c206661696c6564a2646970667358221220d2fbc10c48e76cf392c2117ac8c2b74acaa8ae232f82a30393d49e674dea45c164736f6c634300080b0033",
  "linkReferences": {},
  "deployedLinkReferences": {}
}