{
  "_format": "hh-sol-artifact-1",
  "contractName": "PolyZDAOChef",
  "sourceName": "contracts/polygon/PolyZDAOChef.sol",
  "abi": [
    {
      "anonymous": false,
      "inputs": [
        {
          "indexed": false,
          "internalType": "address",
          "name": "previousAdmin",
          "type": "address"
        },
        {
          "indexed": false,
          "internalType": "address",
          "name": "newAdmin",
          "type": "address"
        }
      ],
      "name": "AdminChanged",
      "type": "event"
    },
    {
      "anonymous": false,
      "inputs": [
        {
          "indexed": true,
          "internalType": "address",
          "name": "beacon",
          "type": "address"
        }
      ],
      "name": "BeaconUpgraded",
      "type": "event"
    },
    {
      "anonymous": false,
      "inputs": [
        {
          "indexed": true,
          "internalType": "uint256",
          "name": "_zDAOId",
          "type": "uint256"
        },
        {
          "indexed": true,
          "internalType": "uint256",
          "name": "_proposalId",
          "type": "uint256"
        },
        {
          "indexed": true,
          "internalType": "address",
          "name": "_voter",
          "type": "address"
        },
        {
          "indexed": false,
          "internalType": "uint256",
          "name": "_choice",
          "type": "uint256"
        }
      ],
      "name": "CastVote",
      "type": "event"
    },
    {
      "anonymous": false,
      "inputs": [
        {
          "indexed": true,
          "internalType": "address",
          "name": "_zDAO",
          "type": "address"
        },
        {
          "indexed": true,
          "internalType": "uint256",
          "name": "_daoId",
          "type": "uint256"
        }
      ],
      "name": "DAOCreated",
      "type": "event"
    },
    {
      "anonymous": false,
      "inputs": [
        {
          "indexed": true,
          "internalType": "uint256",
          "name": "_daoId",
          "type": "uint256"
        }
      ],
      "name": "DAODestroyed",
      "type": "event"
    },
    {
      "anonymous": false,
      "inputs": [
        {
          "indexed": true,
          "internalType": "address",
          "name": "previousOwner",
          "type": "address"
        },
        {
          "indexed": true,
          "internalType": "address",
          "name": "newOwner",
          "type": "address"
        }
      ],
      "name": "OwnershipTransferred",
      "type": "event"
    },
    {
      "anonymous": false,
      "inputs": [
        {
          "indexed": false,
          "internalType": "address",
          "name": "account",
          "type": "address"
        }
      ],
      "name": "Paused",
      "type": "event"
    },
    {
      "anonymous": false,
      "inputs": [
        {
          "indexed": true,
          "internalType": "uint256",
          "name": "_zDAOId",
          "type": "uint256"
        },
        {
          "indexed": true,
          "internalType": "uint256",
          "name": "_proposalId",
          "type": "uint256"
        }
      ],
      "name": "ProposalCanceled",
      "type": "event"
    },
    {
      "anonymous": false,
      "inputs": [
        {
          "indexed": true,
          "internalType": "uint256",
          "name": "_zDAOId",
          "type": "uint256"
        },
        {
          "indexed": true,
          "internalType": "uint256",
          "name": "_proposalId",
          "type": "uint256"
        },
        {
          "indexed": false,
          "internalType": "uint256",
          "name": "_voters",
          "type": "uint256"
        },
        {
          "indexed": false,
          "internalType": "uint256",
          "name": "_yes",
          "type": "uint256"
        },
        {
          "indexed": false,
          "internalType": "uint256",
          "name": "_no",
          "type": "uint256"
        }
      ],
      "name": "ProposalCollected",
      "type": "event"
    },
    {
      "anonymous": false,
      "inputs": [
        {
          "indexed": true,
          "internalType": "uint256",
          "name": "_zDAOId",
          "type": "uint256"
        },
        {
          "indexed": true,
          "internalType": "uint256",
          "name": "_proposalId",
          "type": "uint256"
        },
        {
          "indexed": false,
          "internalType": "uint256",
          "name": "_startTimestamp",
          "type": "uint256"
        },
        {
          "indexed": false,
          "internalType": "uint256",
          "name": "_endTimestamp",
          "type": "uint256"
        }
      ],
      "name": "ProposalCreated",
      "type": "event"
    },
    {
      "anonymous": false,
      "inputs": [
        {
          "indexed": true,
          "internalType": "uint256",
          "name": "_zDAOId",
          "type": "uint256"
        },
        {
          "indexed": true,
          "internalType": "uint256",
          "name": "_proposalId",
          "type": "uint256"
        }
      ],
      "name": "ProposalExecuted",
      "type": "event"
    },
    {
      "anonymous": false,
      "inputs": [
        {
          "indexed": true,
          "internalType": "bytes32",
          "name": "role",
          "type": "bytes32"
        },
        {
          "indexed": true,
          "internalType": "bytes32",
          "name": "previousAdminRole",
          "type": "bytes32"
        },
        {
          "indexed": true,
          "internalType": "bytes32",
          "name": "newAdminRole",
          "type": "bytes32"
        }
      ],
      "name": "RoleAdminChanged",
      "type": "event"
    },
    {
      "anonymous": false,
      "inputs": [
        {
          "indexed": true,
          "internalType": "bytes32",
          "name": "role",
          "type": "bytes32"
        },
        {
          "indexed": true,
          "internalType": "address",
          "name": "account",
          "type": "address"
        },
        {
          "indexed": true,
          "internalType": "address",
          "name": "sender",
          "type": "address"
        }
      ],
      "name": "RoleGranted",
      "type": "event"
    },
    {
      "anonymous": false,
      "inputs": [
        {
          "indexed": true,
          "internalType": "bytes32",
          "name": "role",
          "type": "bytes32"
        },
        {
          "indexed": true,
          "internalType": "address",
          "name": "account",
          "type": "address"
        },
        {
          "indexed": true,
          "internalType": "address",
          "name": "sender",
          "type": "address"
        }
      ],
      "name": "RoleRevoked",
      "type": "event"
    },
    {
      "anonymous": false,
      "inputs": [
        {
          "indexed": false,
          "internalType": "address",
          "name": "account",
          "type": "address"
        }
      ],
      "name": "Unpaused",
      "type": "event"
    },
    {
      "anonymous": false,
      "inputs": [
        {
          "indexed": true,
          "internalType": "address",
          "name": "implementation",
          "type": "address"
        }
      ],
      "name": "Upgraded",
      "type": "event"
    },
    {
      "inputs": [],
      "name": "DEFAULT_ADMIN_ROLE",
      "outputs": [
        {
          "internalType": "bytes32",
          "name": "",
          "type": "bytes32"
        }
      ],
      "stateMutability": "view",
      "type": "function"
    },
    {
      "inputs": [
        {
          "internalType": "contract Staking",
          "name": "_stakingBase",
          "type": "address"
        },
        {
          "internalType": "contract IChildStateSender",
          "name": "_childStateSender",
          "type": "address"
        },
        {
          "internalType": "address",
          "name": "_zDAOBase",
          "type": "address"
        }
      ],
      "name": "__ZDAOChef_init",
      "outputs": [],
      "stateMutability": "nonpayable",
      "type": "function"
    },
    {
      "inputs": [],
      "name": "childStateSender",
      "outputs": [
        {
          "internalType": "contract IChildStateSender",
          "name": "",
          "type": "address"
        }
      ],
      "stateMutability": "view",
      "type": "function"
    },
    {
      "inputs": [
        {
          "internalType": "uint256",
          "name": "_daoId",
          "type": "uint256"
        },
        {
          "internalType": "uint256",
          "name": "_proposalId",
          "type": "uint256"
        }
      ],
      "name": "collectProposal",
      "outputs": [],
      "stateMutability": "nonpayable",
      "type": "function"
    },
    {
      "inputs": [
        {
          "internalType": "bytes32",
          "name": "role",
          "type": "bytes32"
        }
      ],
      "name": "getRoleAdmin",
      "outputs": [
        {
          "internalType": "bytes32",
          "name": "",
          "type": "bytes32"
        }
      ],
      "stateMutability": "view",
      "type": "function"
    },
    {
      "inputs": [
        {
          "internalType": "uint256",
          "name": "_daoId",
          "type": "uint256"
        }
      ],
      "name": "getzDAOById",
      "outputs": [
        {
          "internalType": "contract IPolyZDAO",
          "name": "",
          "type": "address"
        }
      ],
      "stateMutability": "view",
      "type": "function"
    },
    {
      "inputs": [
        {
          "internalType": "bytes32",
          "name": "role",
          "type": "bytes32"
        },
        {
          "internalType": "address",
          "name": "account",
          "type": "address"
        }
      ],
      "name": "grantRole",
      "outputs": [],
      "stateMutability": "nonpayable",
      "type": "function"
    },
    {
      "inputs": [
        {
          "internalType": "bytes32",
          "name": "role",
          "type": "bytes32"
        },
        {
          "internalType": "address",
          "name": "account",
          "type": "address"
        }
      ],
      "name": "hasRole",
      "outputs": [
        {
          "internalType": "bool",
          "name": "",
          "type": "bool"
        }
      ],
      "stateMutability": "view",
      "type": "function"
    },
    {
      "inputs": [
        {
          "internalType": "uint256",
          "name": "_startIndex",
          "type": "uint256"
        },
        {
          "internalType": "uint256",
          "name": "_count",
          "type": "uint256"
        }
      ],
      "name": "listzDAOs",
      "outputs": [
        {
          "internalType": "contract IPolyZDAO[]",
          "name": "records",
          "type": "address[]"
        }
      ],
      "stateMutability": "view",
      "type": "function"
    },
    {
      "inputs": [],
      "name": "numberOfzDAOs",
      "outputs": [
        {
          "internalType": "uint256",
          "name": "",
          "type": "uint256"
        }
      ],
      "stateMutability": "view",
      "type": "function"
    },
    {
      "inputs": [],
      "name": "owner",
      "outputs": [
        {
          "internalType": "address",
          "name": "",
          "type": "address"
        }
      ],
      "stateMutability": "view",
      "type": "function"
    },
    {
      "inputs": [],
      "name": "paused",
      "outputs": [
        {
          "internalType": "bool",
          "name": "",
          "type": "bool"
        }
      ],
      "stateMutability": "view",
      "type": "function"
    },
    {
      "inputs": [
        {
          "internalType": "bytes",
          "name": "_message",
          "type": "bytes"
        }
      ],
      "name": "processMessageFromRoot",
      "outputs": [],
      "stateMutability": "nonpayable",
      "type": "function"
    },
    {
      "inputs": [],
      "name": "renounceOwnership",
      "outputs": [],
      "stateMutability": "nonpayable",
      "type": "function"
    },
    {
      "inputs": [
        {
          "internalType": "bytes32",
          "name": "role",
          "type": "bytes32"
        },
        {
          "internalType": "address",
          "name": "account",
          "type": "address"
        }
      ],
      "name": "renounceRole",
      "outputs": [],
      "stateMutability": "nonpayable",
      "type": "function"
    },
    {
      "inputs": [
        {
          "internalType": "bytes32",
          "name": "role",
          "type": "bytes32"
        },
        {
          "internalType": "address",
          "name": "account",
          "type": "address"
        }
      ],
      "name": "revokeRole",
      "outputs": [],
      "stateMutability": "nonpayable",
      "type": "function"
    },
    {
      "inputs": [
        {
          "internalType": "contract Staking",
          "name": "_staking",
          "type": "address"
        }
      ],
      "name": "setStaking",
      "outputs": [],
      "stateMutability": "nonpayable",
      "type": "function"
    },
    {
      "inputs": [
        {
          "internalType": "address",
          "name": "_zDAOBase",
          "type": "address"
        }
      ],
      "name": "setZDAOBase",
      "outputs": [],
      "stateMutability": "nonpayable",
      "type": "function"
    },
    {
      "inputs": [],
      "name": "staking",
      "outputs": [
        {
          "internalType": "contract Staking",
          "name": "",
          "type": "address"
        }
      ],
      "stateMutability": "view",
      "type": "function"
    },
    {
      "inputs": [
        {
          "internalType": "bytes4",
          "name": "interfaceId",
          "type": "bytes4"
        }
      ],
      "name": "supportsInterface",
      "outputs": [
        {
          "internalType": "bool",
          "name": "",
          "type": "bool"
        }
      ],
      "stateMutability": "view",
      "type": "function"
    },
    {
      "inputs": [
        {
          "internalType": "address",
          "name": "newOwner",
          "type": "address"
        }
      ],
      "name": "transferOwnership",
      "outputs": [],
      "stateMutability": "nonpayable",
      "type": "function"
    },
    {
      "inputs": [
        {
          "internalType": "address",
          "name": "newImplementation",
          "type": "address"
        }
      ],
      "name": "upgradeTo",
      "outputs": [],
      "stateMutability": "nonpayable",
      "type": "function"
    },
    {
      "inputs": [
        {
          "internalType": "address",
          "name": "newImplementation",
          "type": "address"
        },
        {
          "internalType": "bytes",
          "name": "data",
          "type": "bytes"
        }
      ],
      "name": "upgradeToAndCall",
      "outputs": [],
      "stateMutability": "payable",
      "type": "function"
    },
    {
      "inputs": [],
      "name": "version",
      "outputs": [
        {
          "internalType": "uint256",
          "name": "",
          "type": "uint256"
        }
      ],
      "stateMutability": "view",
      "type": "function"
    },
    {
      "inputs": [
        {
          "internalType": "uint256",
          "name": "_daoId",
          "type": "uint256"
        },
        {
          "internalType": "uint256",
          "name": "_proposalId",
          "type": "uint256"
        },
        {
          "internalType": "uint256",
          "name": "_choice",
          "type": "uint256"
        }
      ],
      "name": "vote",
      "outputs": [],
      "stateMutability": "nonpayable",
      "type": "function"
    },
    {
      "inputs": [],
      "name": "zDAOBase",
      "outputs": [
        {
          "internalType": "address",
          "name": "",
          "type": "address"
        }
      ],
      "stateMutability": "view",
      "type": "function"
    },
    {
      "inputs": [
        {
          "internalType": "uint256",
          "name": "",
          "type": "uint256"
        }
      ],
      "name": "zDAOIds",
      "outputs": [
        {
          "internalType": "uint256",
          "name": "",
          "type": "uint256"
        }
      ],
      "stateMutability": "view",
      "type": "function"
    },
    {
      "inputs": [
        {
          "internalType": "uint256",
          "name": "",
          "type": "uint256"
        }
      ],
      "name": "zDAOs",
      "outputs": [
        {
          "internalType": "contract IPolyZDAO",
          "name": "",
          "type": "address"
        }
      ],
      "stateMutability": "view",
      "type": "function"
    }
  ],
  "bytecode": "0x60a06040523060805234801561001457600080fd5b50608051613d2d610045600039600081816107aa01528181610842015281816109740152610a0c0152613d2d6000f3fe608060405260043610620001db5760003560e01c80638da5cb5b11620000ff578063ba636eef1162000095578063d547741f116200006c578063d547741f14620005b0578063f2fde38b14620005d5578063f81880df14620005fa578063fe0ed211146200061d57600080fd5b8063ba636eef1462000538578063c67cdd011462000550578063cc10889b146200058b57600080fd5b8063946b22e211620000d6578063946b22e214620004a5578063a217fddf14620004d9578063a98bab8a14620004f0578063b74a2c89146200051557600080fd5b80638da5cb5b14620004165780638ff39099146200043657806391d14854146200045b57600080fd5b80634cf088d911620001755780635c975abb116200014c5780635c975abb146200039a578063715018a614620003b457806383b35d5814620003cc5780638a6655d614620003f157600080fd5b80634cf088d914620003475780634f1ef286146200036a57806354fd4d50146200038157600080fd5b80633628e9f711620001b65780633628e9f7146200028457806336568abe14620002d85780633659cfe614620002fd5780633fc0d115146200032257600080fd5b806301ffc9a714620001e0578063248a9ca3146200021a5780632f2ff15d146200025d575b600080fd5b348015620001ed57600080fd5b5062000205620001ff36600462002e9a565b62000642565b60405190151581526020015b60405180910390f35b3480156200022757600080fd5b506200024e6200023936600462002ede565b60009081526097602052604090206001015490565b60405190815260200162000211565b3480156200026a57600080fd5b50620002826200027c36600462002f0e565b620006dc565b005b3480156200029157600080fd5b50620002bf620002a336600462002ede565b610195602052600090815260409020546001600160a01b031681565b6040516001600160a01b03909116815260200162000211565b348015620002e557600080fd5b5062000282620002f736600462002f0e565b6200070b565b3480156200030a57600080fd5b50620002826200031c36600462002f41565b6200079f565b3480156200032f57600080fd5b506200024e6200034136600462002ede565b62000946565b3480156200035457600080fd5b5061019254620002bf906001600160a01b031681565b620002826200037b36600462002f77565b62000969565b3480156200038e57600080fd5b506200024e6101915481565b348015620003a757600080fd5b5060fb5460ff1662000205565b348015620003c157600080fd5b506200028262000afd565b348015620003d957600080fd5b5062000282620003eb36600462003047565b62000b67565b348015620003fe57600080fd5b506200028262000410366004620030be565b62000c05565b3480156200042357600080fd5b506033546001600160a01b0316620002bf565b3480156200044357600080fd5b50620002826200045536600462002f41565b62000def565b3480156200046857600080fd5b50620002056200047a36600462002f0e565b60009182526097602090815260408084206001600160a01b0393909316845291905290205460ff1690565b348015620004b257600080fd5b50620004ca620004c4366004620030eb565b62000e7b565b6040516200021191906200310e565b348015620004e657600080fd5b506200024e600081565b348015620004fd57600080fd5b50620002826200050f3660046200315d565b62000f9e565b3480156200052257600080fd5b5061019454620002bf906001600160a01b031681565b3480156200054557600080fd5b50610196546200024e565b3480156200055d57600080fd5b50620002bf6200056f36600462002ede565b600090815261019560205260409020546001600160a01b031690565b3480156200059857600080fd5b5062000282620005aa366004620030eb565b62001100565b348015620005bd57600080fd5b5062000282620005cf36600462002f0e565b620013a0565b348015620005e257600080fd5b5062000282620005f436600462002f41565b620013ca565b3480156200060757600080fd5b5061019354620002bf906001600160a01b031681565b3480156200062a57600080fd5b50620002826200063c36600462002f41565b620014af565b60007fffffffff0000000000000000000000000000000000000000000000000000000082167f7965db0b000000000000000000000000000000000000000000000000000000001480620006d657507f01ffc9a7000000000000000000000000000000000000000000000000000000007fffffffff000000000000000000000000000000000000000000000000000000008316145b92915050565b600082815260976020526040902060010154620006fa81336200153b565b620007068383620015c4565b505050565b6001600160a01b03811633146200078f5760405162461bcd60e51b815260206004820152602f60248201527f416363657373436f6e74726f6c3a2063616e206f6e6c792072656e6f756e636560448201527f20726f6c657320666f722073656c66000000000000000000000000000000000060648201526084015b60405180910390fd5b6200079b828262001668565b5050565b306001600160a01b037f0000000000000000000000000000000000000000000000000000000000000000161415620008405760405162461bcd60e51b815260206004820152602c60248201527f46756e6374696f6e206d7573742062652063616c6c6564207468726f7567682060448201527f64656c656761746563616c6c0000000000000000000000000000000000000000606482015260840162000786565b7f00000000000000000000000000000000000000000000000000000000000000006001600160a01b03166200089c7f360894a13ba1a3210667c828492db98dca3e2076cc3735a920a3ca505d382bbc546001600160a01b031690565b6001600160a01b0316146200091a5760405162461bcd60e51b815260206004820152602c60248201527f46756e6374696f6e206d7573742062652063616c6c6564207468726f7567682060448201527f6163746976652070726f78790000000000000000000000000000000000000000606482015260840162000786565b6200092581620016ec565b60408051600080825260208201909252620009439183919062001748565b50565b61019681815481106200095857600080fd5b600091825260209091200154905081565b306001600160a01b037f000000000000000000000000000000000000000000000000000000000000000016141562000a0a5760405162461bcd60e51b815260206004820152602c60248201527f46756e6374696f6e206d7573742062652063616c6c6564207468726f7567682060448201527f64656c656761746563616c6c0000000000000000000000000000000000000000606482015260840162000786565b7f00000000000000000000000000000000000000000000000000000000000000006001600160a01b031662000a667f360894a13ba1a3210667c828492db98dca3e2076cc3735a920a3ca505d382bbc546001600160a01b031690565b6001600160a01b03161462000ae45760405162461bcd60e51b815260206004820152602c60248201527f46756e6374696f6e206d7573742062652063616c6c6564207468726f7567682060448201527f6163746976652070726f78790000000000000000000000000000000000000000606482015260840162000786565b62000aef82620016ec565b6200079b8282600162001748565b6033546001600160a01b0316331462000b595760405162461bcd60e51b815260206004820181905260248201527f4f776e61626c653a2063616c6c6572206973206e6f7420746865206f776e6572604482015260640162000786565b62000b6560006200191a565b565b610193546001600160a01b0316331462000bc45760405162461bcd60e51b815260206004820152601260248201527f4e6f7420612073746174652073656e6465720000000000000000000000000000604482015260640162000786565b6200079b82828080601f0160208091040260200160405190810160405280939291908181526020018383808284376000920191909152506200197992505050565b6000838152610195602052604090205483906001600160a01b03161580159062000cc15750600081815261019560209081526040918290205482517f359cbbc900000000000000000000000000000000000000000000000000000000815292516001600160a01b039091169263359cbbc99260048083019391928290030181865afa15801562000c99573d6000803e3d6000fd5b505050506040513d601f19601f8201168201806040525081019062000cbf9190620031af565b155b62000d0f5760405162461bcd60e51b815260206004820152600c60248201527f496e76616c6964207a44414f0000000000000000000000000000000000000000604482015260640162000786565b60008481526101956020526040908190205490517f4de8737c00000000000000000000000000000000000000000000000000000000815260048101859052336024820152604481018490526001600160a01b0390911690634de8737c90606401600060405180830381600087803b15801562000d8a57600080fd5b505af115801562000d9f573d6000803e3d6000fd5b50505050336001600160a01b031683857f94ecd3a313f078703294eda94e7e660df70e5926334b9b92da34ab5e21f24fe18560405162000de191815260200190565b60405180910390a450505050565b6033546001600160a01b0316331462000e4b5760405162461bcd60e51b815260206004820181905260248201527f4f776e61626c653a2063616c6c6572206973206e6f7420746865206f776e6572604482015260640162000786565b610192805473ffffffffffffffffffffffffffffffffffffffff19166001600160a01b0392909216919091179055565b61019654606090829062000e91908590620031e9565b81111562000ead576101965462000eaa908590620031e9565b90505b8067ffffffffffffffff81111562000ec95762000ec962002f61565b60405190808252806020026020018201604052801562000ef3578160200160208202803683370190505b50915060005b8181101562000f9657610195600061019662000f16848962003203565b8154811062000f295762000f296200321e565b9060005260206000200154815260200190815260200160002060009054906101000a90046001600160a01b031683828151811062000f6b5762000f6b6200321e565b6001600160a01b039092166020928302919091019091015262000f8e8162003234565b905062000ef9565b505092915050565b600054610100900460ff1662000fbb5760005460ff161562000fbf565b303b155b620010335760405162461bcd60e51b815260206004820152602e60248201527f496e697469616c697a61626c653a20636f6e747261637420697320616c72656160448201527f647920696e697469616c697a6564000000000000000000000000000000000000606482015260840162000786565b600054610100900460ff161580156200107357600080547fffffffffffffffffffffffffffffffffffffffffffffffffffffffffffff0000166101011790555b6200107d620019fc565b61019280546001600160a01b0380871673ffffffffffffffffffffffffffffffffffffffff199283161790925561019380548684169083161790556101948054928516929091169190911790558015620010fa57600080547fffffffffffffffffffffffffffffffffffffffffffffffffffffffffffff00ff1690555b50505050565b6000828152610195602052604090205482906001600160a01b031615801590620011bc5750600081815261019560209081526040918290205482517f359cbbc900000000000000000000000000000000000000000000000000000000815292516001600160a01b039091169263359cbbc99260048083019391928290030181865afa15801562001194573d6000803e3d6000fd5b505050506040513d601f19601f82011682018060405250810190620011ba9190620031af565b155b6200120a5760405162461bcd60e51b815260206004820152600c60248201527f496e76616c6964207a44414f0000000000000000000000000000000000000000604482015260640162000786565b600083815261019560205260408082205490517f890cb1f300000000000000000000000000000000000000000000000000000000815260048101859052829182916001600160a01b039091169063890cb1f3906024016060604051808303816000875af115801562001280573d6000803e3d6000fd5b505050506040513d601f19601f82011682018060405250810190620012a6919062003252565b60408051848152602081018490529081018290529295509093509150859087907f453fcfa6f72f89b17a857f2b4bb96ba21f2a6d6c7c8a175b6df638e8fa92763d9060600160405180910390a3610193546001600160a01b0316639a113ee260066040805160208101929092528101899052606081018890526080810186905260a0810185905260c0810184905260e0016040516020818303038152906040526040518263ffffffff1660e01b8152600401620013649190620032de565b600060405180830381600087803b1580156200137f57600080fd5b505af115801562001394573d6000803e3d6000fd5b50505050505050505050565b600082815260976020526040902060010154620013be81336200153b565b62000706838362001668565b6033546001600160a01b03163314620014265760405162461bcd60e51b815260206004820181905260248201527f4f776e61626c653a2063616c6c6572206973206e6f7420746865206f776e6572604482015260640162000786565b6001600160a01b038116620014a45760405162461bcd60e51b815260206004820152602660248201527f4f776e61626c653a206e6577206f776e657220697320746865207a65726f206160448201527f6464726573730000000000000000000000000000000000000000000000000000606482015260840162000786565b62000943816200191a565b6033546001600160a01b031633146200150b5760405162461bcd60e51b815260206004820181905260248201527f4f776e61626c653a2063616c6c6572206973206e6f7420746865206f776e6572604482015260640162000786565b610194805473ffffffffffffffffffffffffffffffffffffffff19166001600160a01b0392909216919091179055565b60008281526097602090815260408083206001600160a01b038516845290915290205460ff166200079b576200157c816001600160a01b0316601462001ae1565b6200158983602062001ae1565b6040516020016200159c929190620032f3565b60408051601f198184030181529082905262461bcd60e51b82526200078691600401620032de565b60008281526097602090815260408083206001600160a01b038516845290915290205460ff166200079b5760008281526097602090815260408083206001600160a01b03851684529091529020805460ff19166001179055620016243390565b6001600160a01b0316816001600160a01b0316837f2f8788117e7eff1d82e926ec794901d17c78024a50270940304540a733656f0d60405160405180910390a45050565b60008281526097602090815260408083206001600160a01b038516845290915290205460ff16156200079b5760008281526097602090815260408083206001600160a01b0385168085529252808320805460ff1916905551339285917ff6391f5c32d9c69d2a47ea670b442974b53935d1edc7fd64eb21e047a839171b9190a45050565b6033546001600160a01b03163314620009435760405162461bcd60e51b815260206004820181905260248201527f4f776e61626c653a2063616c6c6572206973206e6f7420746865206f776e6572604482015260640162000786565b60006200177c7f360894a13ba1a3210667c828492db98dca3e2076cc3735a920a3ca505d382bbc546001600160a01b031690565b9050620017898462001d2f565b600083511180620017975750815b15620017ab57620017a9848462001df3565b505b7f4910fdfa16fed3260ed0e7147f7cc6da11a60208b5b9406d12a635614ffd9143805460ff166200191357805460ff191660011781556040516001600160a01b03831660248201526200185b90869060440160408051601f198184030181529190526020810180517bffffffffffffffffffffffffffffffffffffffffffffffffffffffff167f3659cfe60000000000000000000000000000000000000000000000000000000017905262001df3565b50805460ff191681557f360894a13ba1a3210667c828492db98dca3e2076cc3735a920a3ca505d382bbc546001600160a01b03838116911614620019085760405162461bcd60e51b815260206004820152602f60248201527f45524331393637557067726164653a207570677261646520627265616b73206660448201527f7572746865722075706772616465730000000000000000000000000000000000606482015260840162000786565b620019138562001efe565b5050505050565b603380546001600160a01b0383811673ffffffffffffffffffffffffffffffffffffffff19831681179093556040519116919082907f8be0079c531659141344cd1fd0a4f28419497f9722a3daafe3b4186f6b6457e090600090a35050565b60008180602001905181019062001991919062003378565b90506001811415620019a857620007068262001f40565b6002811415620019bd576200079b82620020fc565b6003811415620019d2576200079b826200229f565b6004811415620019e7576200079b82620024e0565b60058114156200079b576200079b82620026f0565b600054610100900460ff1662001a695760405162461bcd60e51b815260206004820152602b60248201527f496e697469616c697a61626c653a20636f6e7472616374206973206e6f74206960448201526a6e697469616c697a696e6760a81b606482015260840162000786565b62001a7362002900565b62001a7d62002981565b62001a8762002a0c565b62001a9162002a83565b62001a9b62002b04565b6001610191819055604080518082019091528181527f7600000000000000000000000000000000000000000000000000000000000000602082015262000b659162002b71565b6060600062001af283600262003392565b62001aff90600262003203565b67ffffffffffffffff81111562001b1a5762001b1a62002f61565b6040519080825280601f01601f19166020018201604052801562001b45576020820181803683370190505b5090507f30000000000000000000000000000000000000000000000000000000000000008160008151811062001b7f5762001b7f6200321e565b60200101907effffffffffffffffffffffffffffffffffffffffffffffffffffffffffffff1916908160001a9053507f78000000000000000000000000000000000000000000000000000000000000008160018151811062001be55762001be56200321e565b60200101907effffffffffffffffffffffffffffffffffffffffffffffffffffffffffffff1916908160001a905350600062001c2384600262003392565b62001c3090600162003203565b90505b600181111562001cd7577f303132333435363738396162636465660000000000000000000000000000000085600f166010811062001c755762001c756200321e565b1a60f81b82828151811062001c8e5762001c8e6200321e565b60200101907effffffffffffffffffffffffffffffffffffffffffffffffffffffffffffff1916908160001a90535060049490941c9362001ccf81620033b4565b905062001c33565b50831562001d285760405162461bcd60e51b815260206004820181905260248201527f537472696e67733a20686578206c656e67746820696e73756666696369656e74604482015260640162000786565b9392505050565b803b62001da55760405162461bcd60e51b815260206004820152602d60248201527f455243313936373a206e657720696d706c656d656e746174696f6e206973206e60448201527f6f74206120636f6e747261637400000000000000000000000000000000000000606482015260840162000786565b7f360894a13ba1a3210667c828492db98dca3e2076cc3735a920a3ca505d382bbc805473ffffffffffffffffffffffffffffffffffffffff19166001600160a01b0392909216919091179055565b6060823b62001e6b5760405162461bcd60e51b815260206004820152602660248201527f416464726573733a2064656c65676174652063616c6c20746f206e6f6e2d636f60448201527f6e74726163740000000000000000000000000000000000000000000000000000606482015260840162000786565b600080846001600160a01b03168460405162001e889190620033ce565b600060405180830381855af49150503d806000811462001ec5576040519150601f19603f3d011682016040523d82523d6000602084013e62001eca565b606091505b509150915062001ef5828260405180606001604052806027815260200162003cd16027913962002be8565b95945050505050565b62001f098162001d2f565b6040516001600160a01b038216907fbc7cd75a20ee27fd9adebab32041f755214dbc6bffa90cc0225b39da2e5c2d3b90600090a250565b60008060008380602001905181019062001f5b9190620033ec565b6000818152610195602052604090205491935091506001600160a01b03161562001fc85760405162461bcd60e51b815260206004820152601860248201527f7a44414f2077617320616c726561647920637265617465640000000000000000604482015260640162000786565b6101945461019254604080513060248201526001600160a01b03928316604482015260648082018690528251808303909101815260849091019091526020810180517bffffffffffffffffffffffffffffffffffffffffffffffffffffffff167f4b948456000000000000000000000000000000000000000000000000000000001790526000926200205c92169062002c26565b60008381526101956020526040808220805473ffffffffffffffffffffffffffffffffffffffff19166001600160a01b03851690811790915561019680546001810182559084527f828feda00a4b64eb35101b6df8f6c29717b1ea6bae5dd03d3ddada8de0a9e7cb018690559051929350849290917f7de61ac82af3e9750b28bc920b71f86d6c7cd195f2642863433cdce95566fe9c91a3949350505050565b60008082806020019051810190620021159190620033ec565b60008181526101956020908152604091829020548251631519361360e01b8152925194965092945084936001600160a01b039093169263151936139260048082019392918290030181865afa15801562002173573d6000803e3d6000fd5b505050506040513d601f19601f8201168201806040525081019062002199919062003378565b14620021e85760405162461bcd60e51b815260206004820152600c60248201527f496e76616c6964207a44414f0000000000000000000000000000000000000000604482015260640162000786565b60008181526101956020526040908190205490517f472858b4000000000000000000000000000000000000000000000000000000008152600160048201526001600160a01b039091169063472858b490602401600060405180830381600087803b1580156200225657600080fd5b505af11580156200226b573d6000803e3d6000fd5b50506040518392507f62d16daa2b15fec62c2624e8279f21d75a1e6d3f8dd790378d3129985765cb4a9150600090a2505050565b60008060008084806020019051810190620022bb919062003411565b60008381526101956020526040902054939750919550935091506001600160a01b03166200232c5760405162461bcd60e51b815260206004820152601460248201527f4e6f742063726561746564207a44414f20796574000000000000000000000000604482015260640162000786565b60008381526101956020908152604091829020548251631519361360e01b8152925186936001600160a01b0390921692631519361392600480820193918290030181865afa15801562002383573d6000803e3d6000fd5b505050506040513d601f19601f82011682018060405250810190620023a9919062003378565b14620023f85760405162461bcd60e51b815260206004820152601460248201527f53796e63207a44414f20696e666f206572726f72000000000000000000000000604482015260640162000786565b600062002406824262003203565b60008581526101956020526040908190205490517f722c517600000000000000000000000000000000000000000000000000000000815260048101869052426024820152604481018390529192506001600160a01b03169063722c517690606401600060405180830381600087803b1580156200248257600080fd5b505af115801562002497573d6000803e3d6000fd5b505060408051428152602081018590528693508792507fafbd5d299242bf861d198949ad835672e2e35b2e1838cee606a0b5aec2b4fa42910160405180910390a3505050505050565b600080600083806020019051810190620024fb919062003252565b6000828152610195602052604090205492955090935091506001600160a01b03166200256a5760405162461bcd60e51b815260206004820152601460248201527f4e6f742063726561746564207a44414f20796574000000000000000000000000604482015260640162000786565b60008281526101956020908152604091829020548251631519361360e01b8152925185936001600160a01b0390921692631519361392600480820193918290030181865afa158015620025c1573d6000803e3d6000fd5b505050506040513d601f19601f82011682018060405250810190620025e7919062003378565b14620026365760405162461bcd60e51b815260206004820152601460248201527f53796e63207a44414f20696e666f206572726f72000000000000000000000000604482015260640162000786565b60008281526101956020526040908190205490517fe0a8f6f5000000000000000000000000000000000000000000000000000000008152600481018390526001600160a01b039091169063e0a8f6f590602401600060405180830381600087803b158015620026a457600080fd5b505af1158015620026b9573d6000803e3d6000fd5b50506040518392508491507f740823f5b237fe3c86a5ff1cd7a2345263cab48eaddc595c9bbb35d86c6cc42190600090a350505050565b6000806000838060200190518101906200270b919062003252565b6000828152610195602052604090205492955090935091506001600160a01b03166200277a5760405162461bcd60e51b815260206004820152601460248201527f4e6f742063726561746564207a44414f20796574000000000000000000000000604482015260640162000786565b60008281526101956020908152604091829020548251631519361360e01b8152925185936001600160a01b0390921692631519361392600480820193918290030181865afa158015620027d1573d6000803e3d6000fd5b505050506040513d601f19601f82011682018060405250810190620027f7919062003378565b14620028465760405162461bcd60e51b815260206004820152601460248201527f53796e63207a44414f20696e666f206572726f72000000000000000000000000604482015260640162000786565b60008281526101956020526040908190205490517f0d61b519000000000000000000000000000000000000000000000000000000008152600481018390526001600160a01b0390911690630d61b51990602401600060405180830381600087803b158015620028b457600080fd5b505af1158015620028c9573d6000803e3d6000fd5b50506040518392508491507ff758fc91e01b00ea6b4a6138756f7f28e021f9bf21db6dbf8c36c88eb737257a90600090a350505050565b600054610100900460ff166200296d5760405162461bcd60e51b815260206004820152602b60248201527f496e697469616c697a61626c653a20636f6e7472616374206973206e6f74206960448201526a6e697469616c697a696e6760a81b606482015260840162000786565b6200297762002c99565b62000b6562002d06565b600054610100900460ff16620029ee5760405162461bcd60e51b815260206004820152602b60248201527f496e697469616c697a61626c653a20636f6e7472616374206973206e6f74206960448201526a6e697469616c697a696e6760a81b606482015260840162000786565b620029f862002c99565b62002a0262002c99565b62000b6562002c99565b600054610100900460ff1662002a795760405162461bcd60e51b815260206004820152602b60248201527f496e697469616c697a61626c653a20636f6e7472616374206973206e6f74206960448201526a6e697469616c697a696e6760a81b606482015260840162000786565b62000b6562002d7e565b600054610100900460ff1662002af05760405162461bcd60e51b815260206004820152602b60248201527f496e697469616c697a61626c653a20636f6e7472616374206973206e6f74206960448201526a6e697469616c697a696e6760a81b606482015260840162000786565b62002afa62002c99565b62000b6562002df2565b600054610100900460ff16620029f85760405162461bcd60e51b815260206004820152602b60248201527f496e697469616c697a61626c653a20636f6e7472616374206973206e6f74206960448201526a6e697469616c697a696e6760a81b606482015260840162000786565b6200079b828260405160240162002b8a92919062003448565b60408051601f198184030181529190526020810180517bffffffffffffffffffffffffffffffffffffffffffffffffffffffff167f9710a9d00000000000000000000000000000000000000000000000000000000017905262002e6b565b6060831562002bf957508162001d28565b82511562002c0a5782518084602001fd5b8160405162461bcd60e51b8152600401620007869190620032de565b6000438260405160200162002c3d9291906200346c565b60405160208183030381529060405280519060200120838360405162002c639062002e8c565b62002c7092919062003494565b8190604051809103906000f590508015801562002c91573d6000803e3d6000fd5b509392505050565b600054610100900460ff1662000b655760405162461bcd60e51b815260206004820152602b60248201527f496e697469616c697a61626c653a20636f6e7472616374206973206e6f74206960448201526a6e697469616c697a696e6760a81b606482015260840162000786565b600054610100900460ff1662002d735760405162461bcd60e51b815260206004820152602b60248201527f496e697469616c697a61626c653a20636f6e7472616374206973206e6f74206960448201526a6e697469616c697a696e6760a81b606482015260840162000786565b62000b65336200191a565b600054610100900460ff1662002deb5760405162461bcd60e51b815260206004820152602b60248201527f496e697469616c697a61626c653a20636f6e7472616374206973206e6f74206960448201526a6e697469616c697a696e6760a81b606482015260840162000786565b600160c955565b600054610100900460ff1662002e5f5760405162461bcd60e51b815260206004820152602b60248201527f496e697469616c697a61626c653a20636f6e7472616374206973206e6f74206960448201526a6e697469616c697a696e6760a81b606482015260840162000786565b60fb805460ff19169055565b80516a636f6e736f6c652e6c6f67602083016000808483855afa5050505050565b61081080620034c183390190565b60006020828403121562002ead57600080fd5b81357fffffffff000000000000000000000000000000000000000000000000000000008116811462001d2857600080fd5b60006020828403121562002ef157600080fd5b5035919050565b6001600160a01b03811681146200094357600080fd5b6000806040838503121562002f2257600080fd5b82359150602083013562002f368162002ef8565b809150509250929050565b60006020828403121562002f5457600080fd5b813562001d288162002ef8565b634e487b7160e01b600052604160045260246000fd5b6000806040838503121562002f8b57600080fd5b823562002f988162002ef8565b9150602083013567ffffffffffffffff8082111562002fb657600080fd5b818501915085601f83011262002fcb57600080fd5b81358181111562002fe05762002fe062002f61565b604051601f8201601f19908116603f011681019083821181831017156200300b576200300b62002f61565b816040528281528860208487010111156200302557600080fd5b8260208601602083013760006020848301015280955050505050509250929050565b600080602083850312156200305b57600080fd5b823567ffffffffffffffff808211156200307457600080fd5b818501915085601f8301126200308957600080fd5b8135818111156200309957600080fd5b866020828501011115620030ac57600080fd5b60209290920196919550909350505050565b600080600060608486031215620030d457600080fd5b505081359360208301359350604090920135919050565b60008060408385031215620030ff57600080fd5b50508035926020909101359150565b6020808252825182820181905260009190848201906040850190845b81811015620031515783516001600160a01b0316835292840192918401916001016200312a565b50909695505050505050565b6000806000606084860312156200317357600080fd5b8335620031808162002ef8565b92506020840135620031928162002ef8565b91506040840135620031a48162002ef8565b809150509250925092565b600060208284031215620031c257600080fd5b8151801515811462001d2857600080fd5b634e487b7160e01b600052601160045260246000fd5b600082821015620031fe57620031fe620031d3565b500390565b60008219821115620032195762003219620031d3565b500190565b634e487b7160e01b600052603260045260246000fd5b60006000198214156200324b576200324b620031d3565b5060010190565b6000806000606084860312156200326857600080fd5b8351925060208401519150604084015190509250925092565b60005b838110156200329e57818101518382015260200162003284565b83811115620010fa5750506000910152565b60008151808452620032ca81602086016020860162003281565b601f01601f19169290920160200192915050565b60208152600062001d286020830184620032b0565b7f416363657373436f6e74726f6c3a206163636f756e74200000000000000000008152600083516200332d81601785016020880162003281565b7f206973206d697373696e6720726f6c652000000000000000000000000000000060179184019182015283516200336c81602884016020880162003281565b01602801949350505050565b6000602082840312156200338b57600080fd5b5051919050565b6000816000190483118215151615620033af57620033af620031d3565b500290565b600081620033c657620033c6620031d3565b506000190190565b60008251620033e281846020870162003281565b9190910192915050565b600080604083850312156200340057600080fd5b505080516020909101519092909150565b600080600080608085870312156200342857600080fd5b505082516020840151604085015160609095015191969095509092509050565b6040815260006200345d6040830185620032b0565b90508260208301529392505050565b828152600082516200348681602085016020870162003281565b919091016020019392505050565b6001600160a01b0383168152604060208201526000620034b86040830184620032b0565b94935050505056fe608060405260405161081038038061081083398101604081905261002291610337565b61004d60017f360894a13ba1a3210667c828492db98dca3e2076cc3735a920a3ca505d382bbd610405565b6000805160206107c9833981519152146100695761006961042a565b6100758282600061007c565b505061048f565b610085836100b2565b6000825111806100925750805b156100ad576100ab83836100f260201b6100291760201c565b505b505050565b6100bb8161011e565b6040516001600160a01b038216907fbc7cd75a20ee27fd9adebab32041f755214dbc6bffa90cc0225b39da2e5c2d3b90600090a250565b606061011783836040518060600160405280602781526020016107e9602791396101de565b9392505050565b610131816102b360201b6100551760201c565b6101985760405162461bcd60e51b815260206004820152602d60248201527f455243313936373a206e657720696d706c656d656e746174696f6e206973206e60448201526c1bdd08184818dbdb9d1c9858dd609a1b60648201526084015b60405180910390fd5b806101bd6000805160206107c983398151915260001b6102b960201b61005b1760201c565b80546001600160a01b0319166001600160a01b039290921691909117905550565b6060833b61023d5760405162461bcd60e51b815260206004820152602660248201527f416464726573733a2064656c65676174652063616c6c20746f206e6f6e2d636f6044820152651b9d1c9858dd60d21b606482015260840161018f565b600080856001600160a01b0316856040516102589190610440565b600060405180830381855af49150503d8060008114610293576040519150601f19603f3d011682016040523d82523d6000602084013e610298565b606091505b5090925090506102a98282866102bc565b9695505050505050565b3b151590565b90565b606083156102cb575081610117565b8251156102db5782518084602001fd5b8160405162461bcd60e51b815260040161018f919061045c565b634e487b7160e01b600052604160045260246000fd5b60005b8381101561032657818101518382015260200161030e565b838111156100ab5750506000910152565b6000806040838503121561034a57600080fd5b82516001600160a01b038116811461036157600080fd5b60208401519092506001600160401b038082111561037e57600080fd5b818501915085601f83011261039257600080fd5b8151818111156103a4576103a46102f5565b604051601f8201601f19908116603f011681019083821181831017156103cc576103cc6102f5565b816040528281528860208487010111156103e557600080fd5b6103f683602083016020880161030b565b80955050505050509250929050565b60008282101561042557634e487b7160e01b600052601160045260246000fd5b500390565b634e487b7160e01b600052600160045260246000fd5b6000825161045281846020870161030b565b9190910192915050565b602081526000825180602084015261047b81604085016020870161030b565b601f01601f19169190910160400192915050565b61032b8061049e6000396000f3fe60806040523661001357610011610017565b005b6100115b61002761002261005e565b6100a3565b565b606061004e83836040518060600160405280602781526020016102cf602791396100c7565b9392505050565b3b151590565b90565b600061009e7f360894a13ba1a3210667c828492db98dca3e2076cc3735a920a3ca505d382bbc5473ffffffffffffffffffffffffffffffffffffffff1690565b905090565b3660008037600080366000845af43d6000803e8080156100c2573d6000f35b3d6000fd5b6060833b61015c576040517f08c379a000000000000000000000000000000000000000000000000000000000815260206004820152602660248201527f416464726573733a2064656c65676174652063616c6c20746f206e6f6e2d636f60448201527f6e7472616374000000000000000000000000000000000000000000000000000060648201526084015b60405180910390fd5b6000808573ffffffffffffffffffffffffffffffffffffffff16856040516101849190610261565b600060405180830381855af49150503d80600081146101bf576040519150601f19603f3d011682016040523d82523d6000602084013e6101c4565b606091505b50915091506101d48282866101de565b9695505050505050565b606083156101ed57508161004e565b8251156101fd5782518084602001fd5b816040517f08c379a0000000000000000000000000000000000000000000000000000000008152600401610153919061027d565b60005b8381101561024c578181015183820152602001610234565b8381111561025b576000848401525b50505050565b60008251610273818460208701610231565b9190910192915050565b602081526000825180602084015261029c816040850160208701610231565b601f017fffffffffffffffffffffffffffffffffffffffffffffffffffffffffffffffe016919091016040019291505056fe416464726573733a206c6f772d6c6576656c2064656c65676174652063616c6c206661696c6564a2646970667358221220622d8852ce84c52c9c688b923393379a20b2b81b950c780b39a7458efb7431b964736f6c634300080b0033360894a13ba1a3210667c828492db98dca3e2076cc3735a920a3ca505d382bbc416464726573733a206c6f772d6c6576656c2064656c65676174652063616c6c206661696c6564416464726573733a206c6f772d6c6576656c2064656c65676174652063616c6c206661696c6564a26469706673582212202713902b1f201433c44afcf740227d1474748b2b6153181e76d463e38ee662ab64736f6c634300080b0033",
  "linkReferences": {},
  "deployedLinkReferences": {}
}