{
  "_format": "hh-sol-artifact-1",
  "contractName": "PolyZDAO",
  "sourceName": "contracts/polygon/PolyZDAO.sol",
  "abi": [
    {
      "anonymous": false,
      "inputs": [
        {
          "indexed": false,
          "internalType": "address",
          "name": "previousAdmin",
          "type": "address"
        },
        {
          "indexed": false,
          "internalType": "address",
          "name": "newAdmin",
          "type": "address"
        }
      ],
      "name": "AdminChanged",
      "type": "event"
    },
    {
      "anonymous": false,
      "inputs": [
        {
          "indexed": true,
          "internalType": "address",
          "name": "beacon",
          "type": "address"
        }
      ],
      "name": "BeaconUpgraded",
      "type": "event"
    },
    {
      "anonymous": false,
      "inputs": [
        {
          "indexed": true,
          "internalType": "address",
          "name": "previousOwner",
          "type": "address"
        },
        {
          "indexed": true,
          "internalType": "address",
          "name": "newOwner",
          "type": "address"
        }
      ],
      "name": "OwnershipTransferred",
      "type": "event"
    },
    {
      "anonymous": false,
      "inputs": [
        {
          "indexed": false,
          "internalType": "address",
          "name": "account",
          "type": "address"
        }
      ],
      "name": "Paused",
      "type": "event"
    },
    {
      "anonymous": false,
      "inputs": [
        {
          "indexed": true,
          "internalType": "bytes32",
          "name": "role",
          "type": "bytes32"
        },
        {
          "indexed": true,
          "internalType": "bytes32",
          "name": "previousAdminRole",
          "type": "bytes32"
        },
        {
          "indexed": true,
          "internalType": "bytes32",
          "name": "newAdminRole",
          "type": "bytes32"
        }
      ],
      "name": "RoleAdminChanged",
      "type": "event"
    },
    {
      "anonymous": false,
      "inputs": [
        {
          "indexed": true,
          "internalType": "bytes32",
          "name": "role",
          "type": "bytes32"
        },
        {
          "indexed": true,
          "internalType": "address",
          "name": "account",
          "type": "address"
        },
        {
          "indexed": true,
          "internalType": "address",
          "name": "sender",
          "type": "address"
        }
      ],
      "name": "RoleGranted",
      "type": "event"
    },
    {
      "anonymous": false,
      "inputs": [
        {
          "indexed": true,
          "internalType": "bytes32",
          "name": "role",
          "type": "bytes32"
        },
        {
          "indexed": true,
          "internalType": "address",
          "name": "account",
          "type": "address"
        },
        {
          "indexed": true,
          "internalType": "address",
          "name": "sender",
          "type": "address"
        }
      ],
      "name": "RoleRevoked",
      "type": "event"
    },
    {
      "anonymous": false,
      "inputs": [
        {
          "indexed": false,
          "internalType": "address",
          "name": "account",
          "type": "address"
        }
      ],
      "name": "Unpaused",
      "type": "event"
    },
    {
      "anonymous": false,
      "inputs": [
        {
          "indexed": true,
          "internalType": "address",
          "name": "implementation",
          "type": "address"
        }
      ],
      "name": "Upgraded",
      "type": "event"
    },
    {
      "inputs": [],
      "name": "DEFAULT_ADMIN_ROLE",
      "outputs": [
        {
          "internalType": "bytes32",
          "name": "",
          "type": "bytes32"
        }
      ],
      "stateMutability": "view",
      "type": "function"
    },
    {
      "inputs": [
        {
          "internalType": "address",
          "name": "_zDAOChef",
          "type": "address"
        },
        {
          "internalType": "address",
          "name": "_staking",
          "type": "address"
        },
        {
          "internalType": "uint256",
          "name": "_zDAOId",
          "type": "uint256"
        },
        {
          "internalType": "bool",
          "name": "_isRelativeMajority",
          "type": "bool"
        },
        {
          "internalType": "uint256",
          "name": "_quorumVotes",
          "type": "uint256"
        }
      ],
      "name": "__ZDAO_init",
      "outputs": [],
      "stateMutability": "nonpayable",
      "type": "function"
    },
    {
      "inputs": [
        {
          "internalType": "uint256",
          "name": "_proposalId",
          "type": "uint256"
        }
      ],
      "name": "canCollectResult",
      "outputs": [
        {
          "internalType": "bool",
          "name": "",
          "type": "bool"
        }
      ],
      "stateMutability": "view",
      "type": "function"
    },
    {
      "inputs": [
        {
          "internalType": "uint256",
          "name": "_proposalId",
          "type": "uint256"
        },
        {
          "internalType": "address",
          "name": "_voter",
          "type": "address"
        }
      ],
      "name": "canVote",
      "outputs": [
        {
          "internalType": "bool",
          "name": "",
          "type": "bool"
        }
      ],
      "stateMutability": "view",
      "type": "function"
    },
    {
      "inputs": [
        {
          "internalType": "uint256",
          "name": "_proposalId",
          "type": "uint256"
        }
      ],
      "name": "cancelProposal",
      "outputs": [],
      "stateMutability": "nonpayable",
      "type": "function"
    },
    {
      "inputs": [
        {
          "internalType": "uint256",
          "name": "_proposalId",
          "type": "uint256"
        },
        {
          "internalType": "address",
          "name": "_voter",
          "type": "address"
        }
      ],
      "name": "choiceOfVoter",
      "outputs": [
        {
          "internalType": "enum IPolyZDAO.VoterChoice",
          "name": "",
          "type": "uint8"
        }
      ],
      "stateMutability": "view",
      "type": "function"
    },
    {
      "inputs": [
        {
          "internalType": "uint256",
          "name": "_proposalId",
          "type": "uint256"
        }
      ],
      "name": "collectResult",
      "outputs": [
        {
          "internalType": "bool",
          "name": "isRelativeMajority",
          "type": "bool"
        },
        {
          "internalType": "uint256",
          "name": "yes",
          "type": "uint256"
        },
        {
          "internalType": "uint256",
          "name": "no",
          "type": "uint256"
        }
      ],
      "stateMutability": "nonpayable",
      "type": "function"
    },
    {
      "inputs": [
        {
          "internalType": "uint256",
          "name": "_proposalId",
          "type": "uint256"
        },
        {
          "internalType": "uint256",
          "name": "_startTimestamp",
          "type": "uint256"
        },
        {
          "internalType": "uint256",
          "name": "_endTimestamp",
          "type": "uint256"
        }
      ],
      "name": "createProposal",
      "outputs": [],
      "stateMutability": "nonpayable",
      "type": "function"
    },
    {
      "inputs": [],
      "name": "destroyed",
      "outputs": [
        {
          "internalType": "bool",
          "name": "",
          "type": "bool"
        }
      ],
      "stateMutability": "view",
      "type": "function"
    },
    {
      "inputs": [
        {
          "internalType": "uint256",
          "name": "_proposalId",
          "type": "uint256"
        }
      ],
      "name": "executeProposal",
      "outputs": [],
      "stateMutability": "nonpayable",
      "type": "function"
    },
    {
      "inputs": [
        {
          "internalType": "bytes32",
          "name": "role",
          "type": "bytes32"
        }
      ],
      "name": "getRoleAdmin",
      "outputs": [
        {
          "internalType": "bytes32",
          "name": "",
          "type": "bytes32"
        }
      ],
      "stateMutability": "view",
      "type": "function"
    },
    {
      "inputs": [
        {
          "internalType": "bytes32",
          "name": "role",
          "type": "bytes32"
        },
        {
          "internalType": "address",
          "name": "account",
          "type": "address"
        }
      ],
      "name": "grantRole",
      "outputs": [],
      "stateMutability": "nonpayable",
      "type": "function"
    },
    {
      "inputs": [
        {
          "internalType": "bytes32",
          "name": "role",
          "type": "bytes32"
        },
        {
          "internalType": "address",
          "name": "account",
          "type": "address"
        }
      ],
      "name": "hasRole",
      "outputs": [
        {
          "internalType": "bool",
          "name": "",
          "type": "bool"
        }
      ],
      "stateMutability": "view",
      "type": "function"
    },
    {
      "inputs": [
        {
          "internalType": "uint256",
          "name": "_startIndex",
          "type": "uint256"
        },
        {
          "internalType": "uint256",
          "name": "_endIndex",
          "type": "uint256"
        }
      ],
      "name": "listProposals",
      "outputs": [
        {
          "components": [
            {
              "internalType": "uint256",
              "name": "proposalId",
              "type": "uint256"
            },
            {
              "internalType": "uint256",
              "name": "startTimestamp",
              "type": "uint256"
            },
            {
              "internalType": "uint256",
              "name": "endTimestamp",
              "type": "uint256"
            },
            {
              "internalType": "uint256",
              "name": "yes",
              "type": "uint256"
            },
            {
              "internalType": "uint256",
              "name": "no",
              "type": "uint256"
            },
            {
              "internalType": "uint256",
              "name": "reserved",
              "type": "uint256"
            },
            {
              "internalType": "uint256",
              "name": "snapshot",
              "type": "uint256"
            },
            {
              "internalType": "bool",
              "name": "executed",
              "type": "bool"
            },
            {
              "internalType": "bool",
              "name": "canceled",
              "type": "bool"
            }
          ],
          "internalType": "struct IPolyZDAO.Proposal[]",
          "name": "",
          "type": "tuple[]"
        }
      ],
      "stateMutability": "view",
      "type": "function"
    },
    {
      "inputs": [
        {
          "internalType": "uint256",
          "name": "_proposalId",
          "type": "uint256"
        },
        {
          "internalType": "uint256",
          "name": "_startIndex",
          "type": "uint256"
        },
        {
          "internalType": "uint256",
          "name": "_endIndex",
          "type": "uint256"
        }
      ],
      "name": "listVoters",
      "outputs": [
        {
          "internalType": "address[]",
          "name": "voters",
          "type": "address[]"
        },
        {
          "internalType": "uint256[]",
          "name": "choices",
          "type": "uint256[]"
        },
        {
          "internalType": "uint256[]",
          "name": "votes",
          "type": "uint256[]"
        }
      ],
      "stateMutability": "view",
      "type": "function"
    },
    {
      "inputs": [],
      "name": "numberOfProposals",
      "outputs": [
        {
          "internalType": "uint256",
          "name": "",
          "type": "uint256"
        }
      ],
      "stateMutability": "view",
      "type": "function"
    },
    {
      "inputs": [],
      "name": "owner",
      "outputs": [
        {
          "internalType": "address",
          "name": "",
          "type": "address"
        }
      ],
      "stateMutability": "view",
      "type": "function"
    },
    {
      "inputs": [],
      "name": "paused",
      "outputs": [
        {
          "internalType": "bool",
          "name": "",
          "type": "bool"
        }
      ],
      "stateMutability": "view",
      "type": "function"
    },
    {
      "inputs": [
        {
          "internalType": "uint256",
          "name": "",
          "type": "uint256"
        }
      ],
      "name": "proposalIds",
      "outputs": [
        {
          "internalType": "uint256",
          "name": "",
          "type": "uint256"
        }
      ],
      "stateMutability": "view",
      "type": "function"
    },
    {
      "inputs": [
        {
          "internalType": "uint256",
          "name": "",
          "type": "uint256"
        }
      ],
      "name": "proposals",
      "outputs": [
        {
          "internalType": "uint256",
          "name": "proposalId",
          "type": "uint256"
        },
        {
          "internalType": "uint256",
          "name": "startTimestamp",
          "type": "uint256"
        },
        {
          "internalType": "uint256",
          "name": "endTimestamp",
          "type": "uint256"
        },
        {
          "internalType": "uint256",
          "name": "yes",
          "type": "uint256"
        },
        {
          "internalType": "uint256",
          "name": "no",
          "type": "uint256"
        },
        {
          "internalType": "uint256",
          "name": "reserved",
          "type": "uint256"
        },
        {
          "internalType": "uint256",
          "name": "snapshot",
          "type": "uint256"
        },
        {
          "internalType": "bool",
          "name": "executed",
          "type": "bool"
        },
        {
          "internalType": "bool",
          "name": "canceled",
          "type": "bool"
        }
      ],
      "stateMutability": "view",
      "type": "function"
    },
    {
      "inputs": [],
      "name": "renounceOwnership",
      "outputs": [],
      "stateMutability": "nonpayable",
      "type": "function"
    },
    {
      "inputs": [
        {
          "internalType": "bytes32",
          "name": "role",
          "type": "bytes32"
        },
        {
          "internalType": "address",
          "name": "account",
          "type": "address"
        }
      ],
      "name": "renounceRole",
      "outputs": [],
      "stateMutability": "nonpayable",
      "type": "function"
    },
    {
      "inputs": [
        {
          "internalType": "bytes32",
          "name": "role",
          "type": "bytes32"
        },
        {
          "internalType": "address",
          "name": "account",
          "type": "address"
        }
      ],
      "name": "revokeRole",
      "outputs": [],
      "stateMutability": "nonpayable",
      "type": "function"
    },
    {
      "inputs": [
        {
          "internalType": "bool",
          "name": "_destroyed",
          "type": "bool"
        }
      ],
      "name": "setDestroyed",
      "outputs": [],
      "stateMutability": "nonpayable",
      "type": "function"
    },
    {
      "inputs": [],
      "name": "staking",
      "outputs": [
        {
          "internalType": "contract Staking",
          "name": "",
          "type": "address"
        }
      ],
      "stateMutability": "view",
      "type": "function"
    },
    {
      "inputs": [
        {
          "internalType": "uint256",
          "name": "_proposalId",
          "type": "uint256"
        }
      ],
      "name": "state",
      "outputs": [
        {
          "internalType": "enum IPolyZDAO.ProposalState",
          "name": "",
          "type": "uint8"
        }
      ],
      "stateMutability": "view",
      "type": "function"
    },
    {
      "inputs": [
        {
          "internalType": "bytes4",
          "name": "interfaceId",
          "type": "bytes4"
        }
      ],
      "name": "supportsInterface",
      "outputs": [
        {
          "internalType": "bool",
          "name": "",
          "type": "bool"
        }
      ],
      "stateMutability": "view",
      "type": "function"
    },
    {
      "inputs": [
        {
          "internalType": "address",
          "name": "newOwner",
          "type": "address"
        }
      ],
      "name": "transferOwnership",
      "outputs": [],
      "stateMutability": "nonpayable",
      "type": "function"
    },
    {
      "inputs": [
        {
          "internalType": "address",
          "name": "newImplementation",
          "type": "address"
        }
      ],
      "name": "upgradeTo",
      "outputs": [],
      "stateMutability": "nonpayable",
      "type": "function"
    },
    {
      "inputs": [
        {
          "internalType": "address",
          "name": "newImplementation",
          "type": "address"
        },
        {
          "internalType": "bytes",
          "name": "data",
          "type": "bytes"
        }
      ],
      "name": "upgradeToAndCall",
      "outputs": [],
      "stateMutability": "payable",
      "type": "function"
    },
    {
      "inputs": [],
      "name": "version",
      "outputs": [
        {
          "internalType": "uint256",
          "name": "",
          "type": "uint256"
        }
      ],
      "stateMutability": "view",
      "type": "function"
    },
    {
      "inputs": [
        {
          "internalType": "uint256",
          "name": "_proposalId",
          "type": "uint256"
        },
        {
          "internalType": "address",
          "name": "_voter",
          "type": "address"
        },
        {
          "internalType": "uint256",
          "name": "_choice",
          "type": "uint256"
        }
      ],
      "name": "vote",
      "outputs": [],
      "stateMutability": "nonpayable",
      "type": "function"
    },
    {
      "inputs": [
        {
          "internalType": "uint256",
          "name": "_proposalId",
          "type": "uint256"
        }
      ],
      "name": "votesResultOfProposal",
      "outputs": [
        {
          "internalType": "uint256",
          "name": "yes",
          "type": "uint256"
        },
        {
          "internalType": "uint256",
          "name": "no",
          "type": "uint256"
        }
      ],
      "stateMutability": "view",
      "type": "function"
    },
    {
      "inputs": [
        {
          "internalType": "address",
          "name": "_voter",
          "type": "address"
        }
      ],
      "name": "votingPowerOfVoter",
      "outputs": [
        {
          "internalType": "uint256",
          "name": "",
          "type": "uint256"
        }
      ],
      "stateMutability": "view",
      "type": "function"
    },
    {
      "inputs": [],
      "name": "zDAOChef",
      "outputs": [
        {
          "internalType": "address",
          "name": "",
          "type": "address"
        }
      ],
      "stateMutability": "view",
      "type": "function"
    },
    {
      "inputs": [],
      "name": "zDAOId",
      "outputs": [
        {
          "internalType": "uint256",
          "name": "",
          "type": "uint256"
        }
      ],
      "stateMutability": "view",
      "type": "function"
    },
    {
      "inputs": [],
      "name": "zDAOInfo",
      "outputs": [
        {
          "internalType": "uint256",
          "name": "zDAOId",
          "type": "uint256"
        },
        {
          "internalType": "bool",
          "name": "isRelativeMajority",
          "type": "bool"
        },
        {
          "internalType": "uint256",
          "name": "quorumVotes",
          "type": "uint256"
        },
        {
          "internalType": "uint256",
          "name": "snapshot",
          "type": "uint256"
        },
        {
          "internalType": "bool",
          "name": "destroyed",
          "type": "bool"
        }
      ],
      "stateMutability": "view",
      "type": "function"
    }
  ],
  "bytecode": "0x60a06040523060805234801561001457600080fd5b5060805161390861004560003960008181610c0201528181610c98015281816110a1015261113701526139086000f3fe60806040526004361061026a5760003560e01c8063722c517611610153578063a217fddf116100cb578063d8191e6c1161007f578063f2fde38b11610064578063f2fde38b14610838578063f37ea28a14610858578063f9f553991461087857600080fd5b8063d8191e6c146107bc578063e0a8f6f51461081857600080fd5b8063b5c23fdd116100b0578063b5c23fdd1461074d578063cdb2867b1461077c578063d547741f1461079c57600080fd5b8063a217fddf146106d9578063affc1793146106ee57600080fd5b80638d7af4731161012257806390bfeab31161010757806390bfeab31461065257806391d14854146106735780639b644a23146106b957600080fd5b80638d7af4731461061e5780638da5cb5b1461063457600080fd5b8063722c5176146105745780637405b7e614610594578063758167f7146105b45780637f6dda14146105f157600080fd5b80633659cfe6116101e65780634de8737c116101b557806354fd4d501161019a57806354fd4d50146105305780635c975abb14610547578063715018a61461055f57600080fd5b80634de8737c146104fd5780634f1ef2861461051d57600080fd5b80633659cfe6146104575780633e4f49e614610477578063472858b4146104a45780634cf088d9146104c457600080fd5b8063151936131161023d5780632f2ff15d116102225780632f2ff15d146103fe578063359cbbc91461041e57806336568abe1461043757600080fd5b806315193613146103ae578063248a9ca3146103ce57600080fd5b8063013cf08b1461026f57806301ffc9a7146103275780630d61b51914610357578063120e33da14610379575b600080fd5b34801561027b57600080fd5b506102da61028a3660046132c1565b610199602052600090815260409020805460018201546002830154600384015460048501546005860154600687015460079097015495969495939492939192909160ff8082169161010090041689565b60408051998a5260208a0198909852968801959095526060870193909352608086019190915260a085015260c0840152151560e08301521515610100820152610120015b60405180910390f35b34801561033357600080fd5b506103476103423660046132da565b610898565b604051901515815260200161031e565b34801561036357600080fd5b506103776103723660046132c1565b610931565b005b34801561038557600080fd5b506103996103943660046132c1565b610a8f565b6040805192835260208301919091520161031e565b3480156103ba57600080fd5b50610194545b60405190815260200161031e565b3480156103da57600080fd5b506103c06103e93660046132c1565b60009081526097602052604090206001015490565b34801561040a57600080fd5b50610377610419366004613338565b610b44565b34801561042a57600080fd5b506101985460ff16610347565b34801561044357600080fd5b50610377610452366004613338565b610b6f565b34801561046357600080fd5b50610377610472366004613364565b610bf7565b34801561048357600080fd5b506104976104923660046132c1565b610d95565b60405161031e9190613395565b3480156104b057600080fd5b506103776104bf3660046133bf565b610e31565b3480156104d057600080fd5b50610193546104e5906001600160a01b031681565b6040516001600160a01b03909116815260200161031e565b34801561050957600080fd5b506103776105183660046133da565b610e91565b61037761052b366004613425565b611096565b34801561053c57600080fd5b506103c06101915481565b34801561055357600080fd5b5060fb5460ff16610347565b34801561056b57600080fd5b50610377611221565b34801561058057600080fd5b5061037761058f3660046134e7565b611287565b3480156105a057600080fd5b506103c06105af366004613364565b61139b565b3480156105c057600080fd5b506105d46105cf3660046132c1565b6113a6565b60408051931515845260208401929092529082015260600161031e565b3480156105fd57600080fd5b5061061161060c366004613513565b61155e565b60405161031e9190613535565b34801561062a57600080fd5b5061019b546103c0565b34801561064057600080fd5b506033546001600160a01b03166104e5565b34801561065e57600080fd5b50610192546104e5906001600160a01b031681565b34801561067f57600080fd5b5061034761068e366004613338565b60009182526097602090815260408084206001600160a01b0393909316845291905290205460ff1690565b3480156106c557600080fd5b506103c06106d43660046132c1565b61185c565b3480156106e557600080fd5b506103c0600081565b3480156106fa57600080fd5b50610740610709366004613338565b600091825261019a602090815260408084206001600160a01b0393909316845260019092019052902054600160a01b900460ff1690565b60405161031e91906135d1565b34801561075957600080fd5b5061076d6107683660046134e7565b61187e565b60405161031e93929190613620565b34801561078857600080fd5b50610347610797366004613338565b611c91565b3480156107a857600080fd5b506103776107b7366004613338565b611ca4565b3480156107c857600080fd5b5061019454610195546101965461019754610198546107ee949360ff9081169392911685565b6040805195865293151560208601529284019190915260608301521515608082015260a00161031e565b34801561082457600080fd5b506103776108333660046132c1565b611cca565b34801561084457600080fd5b50610377610853366004613364565b611e21565b34801561086457600080fd5b50610377610873366004613695565b611f00565b34801561088457600080fd5b506103476108933660046132c1565b61206e565b60007fffffffff0000000000000000000000000000000000000000000000000000000082167f7965db0b00000000000000000000000000000000000000000000000000000000148061092b57507f01ffc9a7000000000000000000000000000000000000000000000000000000007fffffffff000000000000000000000000000000000000000000000000000000008316145b92915050565b610192546001600160a01b031633146109825760405162461bcd60e51b815260206004820152600e60248201526d2737ba1030902d2220a7a1b432b360911b60448201526064015b60405180910390fd5b6101985460ff16156109d65760405162461bcd60e51b815260206004820152601160248201527f416c72656164792064657374726f7965640000000000000000000000000000006044820152606401610979565b60008181526101996020526040902054819081148015610a0957506000818152610199602052604090206007015460ff16155b8015610a2d575060008181526101996020526040902060070154610100900460ff16155b610a685760405162461bcd60e51b815260206004820152600c60248201526b496e76616c6964207a44414f60a01b6044820152606401610979565b610a8b82600090815261019960205260409020600701805460ff19166001179055565b5050565b600081815261019960205260408120548190839081148015610ac457506000818152610199602052604090206007015460ff16155b8015610ae8575060008181526101996020526040902060070154610100900460ff16155b610b235760405162461bcd60e51b815260206004820152600c60248201526b496e76616c6964207a44414f60a01b6044820152606401610979565b50505060009081526101996020526040902060038101546004909101549091565b600082815260976020526040902060010154610b608133612079565b610b6a83836120f9565b505050565b6001600160a01b0381163314610bed5760405162461bcd60e51b815260206004820152602f60248201527f416363657373436f6e74726f6c3a2063616e206f6e6c792072656e6f756e636560448201527f20726f6c657320666f722073656c6600000000000000000000000000000000006064820152608401610979565b610a8b828261219b565b306001600160a01b037f0000000000000000000000000000000000000000000000000000000000000000161415610c965760405162461bcd60e51b815260206004820152602c60248201527f46756e6374696f6e206d7573742062652063616c6c6564207468726f7567682060448201527f64656c656761746563616c6c00000000000000000000000000000000000000006064820152608401610979565b7f00000000000000000000000000000000000000000000000000000000000000006001600160a01b0316610cf17f360894a13ba1a3210667c828492db98dca3e2076cc3735a920a3ca505d382bbc546001600160a01b031690565b6001600160a01b031614610d6d5760405162461bcd60e51b815260206004820152602c60248201527f46756e6374696f6e206d7573742062652063616c6c6564207468726f7567682060448201527f6163746976652070726f787900000000000000000000000000000000000000006064820152608401610979565b610d768161221e565b60408051600080825260208201909252610d9291839190612278565b50565b6000818152610199602052604081206007810154610100900460ff1615610dbf5750600292915050565b80600101544211610dd35750600092915050565b80600201544211610de75750600192915050565b80600401548160030154111580610e045750610196546003820154105b15610e125750600392915050565b600781015460ff1615610e285750600592915050565b50600492915050565b610192546001600160a01b03163314610e7d5760405162461bcd60e51b815260206004820152600e60248201526d2737ba1030902d2220a7a1b432b360911b6044820152606401610979565b610198805460ff1916911515919091179055565b610192546001600160a01b03163314610edd5760405162461bcd60e51b815260206004820152600e60248201526d2737ba1030902d2220a7a1b432b360911b6044820152606401610979565b6101985460ff1615610f315760405162461bcd60e51b815260206004820152601160248201527f416c72656164792064657374726f7965640000000000000000000000000000006044820152606401610979565b60008381526101996020526040902054839081148015610f6457506000818152610199602052604090206007015460ff16155b8015610f88575060008181526101996020526040902060070154610100900460ff16155b610fc35760405162461bcd60e51b815260206004820152600c60248201526b496e76616c6964207a44414f60a01b6044820152606401610979565b6001821480610fd25750600282145b61101e5760405162461bcd60e51b815260206004820152600e60248201527f496e76616c69642063686f6963650000000000000000000000000000000000006044820152606401610979565b611028848461243c565b6110745760405162461bcd60e51b815260206004820152601460248201527f4e6f742076616c696420666f7220766f74696e670000000000000000000000006044820152606401610979565b611090848484600281111561108b5761108b61337f565b61251e565b50505050565b306001600160a01b037f00000000000000000000000000000000000000000000000000000000000000001614156111355760405162461bcd60e51b815260206004820152602c60248201527f46756e6374696f6e206d7573742062652063616c6c6564207468726f7567682060448201527f64656c656761746563616c6c00000000000000000000000000000000000000006064820152608401610979565b7f00000000000000000000000000000000000000000000000000000000000000006001600160a01b03166111907f360894a13ba1a3210667c828492db98dca3e2076cc3735a920a3ca505d382bbc546001600160a01b031690565b6001600160a01b03161461120c5760405162461bcd60e51b815260206004820152602c60248201527f46756e6374696f6e206d7573742062652063616c6c6564207468726f7567682060448201527f6163746976652070726f787900000000000000000000000000000000000000006064820152608401610979565b6112158261221e565b610a8b82826001612278565b6033546001600160a01b0316331461127b5760405162461bcd60e51b815260206004820181905260248201527f4f776e61626c653a2063616c6c6572206973206e6f7420746865206f776e65726044820152606401610979565b61128560006126fa565b565b610192546001600160a01b031633146112d35760405162461bcd60e51b815260206004820152600e60248201526d2737ba1030902d2220a7a1b432b360911b6044820152606401610979565b6101985460ff16156113275760405162461bcd60e51b815260206004820152601160248201527f416c72656164792064657374726f7965640000000000000000000000000000006044820152606401610979565b600083118015611344575060008381526101996020526040902054155b6113905760405162461bcd60e51b815260206004820152601c60248201527f50726f706f73616c2077617320616c72656164792063726561746564000000006044820152606401610979565b610b6a838383612759565b600061092b82612895565b61019254600090819081906001600160a01b031633146113f95760405162461bcd60e51b815260206004820152600e60248201526d2737ba1030902d2220a7a1b432b360911b6044820152606401610979565b6101985460ff161561144d5760405162461bcd60e51b815260206004820152601160248201527f416c72656164792064657374726f7965640000000000000000000000000000006044820152606401610979565b6000848152610199602052604090205484908114801561148057506000818152610199602052604090206007015460ff16155b80156114a4575060008181526101996020526040902060070154610100900460ff16155b6114df5760405162461bcd60e51b815260206004820152600c60248201526b496e76616c6964207a44414f60a01b6044820152606401610979565b6114e885612939565b6115345760405162461bcd60e51b815260206004820152601f60248201527f4e6f742076616c696420666f7220636f6c6c656374696e6720726573756c74006044820152606401610979565b5050506000918252506101996020526040902061019554600382015460049092015460ff90911692565b6060600083116115b05760405162461bcd60e51b815260206004820152601660248201527f73686f756c6420737461727420696e646578203e2030000000000000000000006044820152606401610979565b818311156116005760405162461bcd60e51b815260206004820152601960248201527f73686f756c6420737461727420696e646578203c3d20656e64000000000000006044820152606401610979565b61019b548311156116535760405162461bcd60e51b815260206004820152601c60248201527f73686f756c6420737461727420696e646578203c3d206c656e677468000000006044820152606401610979565b61019b548211156116a65760405162461bcd60e51b815260206004820152601a60248201527f73686f756c6420656e6420696e646578203c3d206c656e6774680000000000006044820152606401610979565b60006116b28484613700565b6116bd906001613717565b905060008167ffffffffffffffff8111156116da576116da61340f565b60405190808252806020026020018201604052801561175e57816020015b61174b604051806101200160405280600081526020016000815260200160008152602001600081526020016000815260200160008152602001600081526020016000151581526020016000151581525090565b8152602001906001900390816116f85790505b50905060005b8281101561185357610199600061019b6001611780858b613717565b61178a9190613700565b8154811061179a5761179a61372f565b600091825260208083209091015483528281019390935260409182019020815161012081018352815481526001820154938101939093526002810154918301919091526003810154606083015260048101546080830152600581015460a0830152600681015460c08301526007015460ff808216151560e0840152610100918290041615159082015282518390839081106118375761183761372f565b60200260200101819052508061184c90613745565b9050611764565b50949350505050565b61019b818154811061186d57600080fd5b600091825260209091200154905081565b60008381526101996020526040902054606090819081908690811480156118b857506000818152610199602052604090206007015460ff16155b80156118dc575060008181526101996020526040902060070154610100900460ff16155b6119175760405162461bcd60e51b815260206004820152600c60248201526b496e76616c6964207a44414f60a01b6044820152606401610979565b600087815261019a60205260409020866119735760405162461bcd60e51b815260206004820152601660248201527f73686f756c6420737461727420696e646578203e2030000000000000000000006044820152606401610979565b858711156119c35760405162461bcd60e51b815260206004820152601960248201527f73686f756c6420737461727420696e646578203c3d20656e64000000000000006044820152606401610979565b8054871115611a145760405162461bcd60e51b815260206004820152601c60248201527f73686f756c6420737461727420696e646578203c3d206c656e677468000000006044820152606401610979565b8054861115611a655760405162461bcd60e51b815260206004820152601a60248201527f73686f756c6420656e6420696e646578203c3d206c656e6774680000000000006044820152606401610979565b6000611a718888613700565b611a7c906001613717565b90508067ffffffffffffffff811115611a9757611a9761340f565b604051908082528060200260200182016040528015611ac0578160200160208202803683370190505b5095508067ffffffffffffffff811115611adc57611adc61340f565b604051908082528060200260200182016040528015611b05578160200160208202803683370190505b5094508067ffffffffffffffff811115611b2157611b2161340f565b604051908082528060200260200182016040528015611b4a578160200160208202803683370190505b5093506000805b82811015611c8357836001611b66838d613717565b611b709190613700565b81548110611b8057611b8061372f565b60009182526020808320909101546001600160a01b03908116808452600188019092526040909220548a5191945090911690899083908110611bc457611bc461372f565b6001600160a01b039283166020918202929092018101919091529083166000908152600186019091526040902054600160a01b900460ff166002811115611c0d57611c0d61337f565b878281518110611c1f57611c1f61372f565b602002602001018181525050836001016000836001600160a01b03166001600160a01b0316815260200190815260200160002060010154868281518110611c6857611c6861372f565b6020908102919091010152611c7c81613745565b9050611b51565b505050505093509350939050565b6000611c9d838361243c565b9392505050565b600082815260976020526040902060010154611cc08133612079565b610b6a838361219b565b610192546001600160a01b03163314611d165760405162461bcd60e51b815260206004820152600e60248201526d2737ba1030902d2220a7a1b432b360911b6044820152606401610979565b6101985460ff1615611d6a5760405162461bcd60e51b815260206004820152601160248201527f416c72656164792064657374726f7965640000000000000000000000000000006044820152606401610979565b60008181526101996020526040902054819081148015611d9d57506000818152610199602052604090206007015460ff16155b8015611dc1575060008181526101996020526040902060070154610100900460ff16155b611dfc5760405162461bcd60e51b815260206004820152600c60248201526b496e76616c6964207a44414f60a01b6044820152606401610979565b610a8b82600090815261019960205260409020600701805461ff001916610100179055565b6033546001600160a01b03163314611e7b5760405162461bcd60e51b815260206004820181905260248201527f4f776e61626c653a2063616c6c6572206973206e6f7420746865206f776e65726044820152606401610979565b6001600160a01b038116611ef75760405162461bcd60e51b815260206004820152602660248201527f4f776e61626c653a206e6577206f776e657220697320746865207a65726f206160448201527f64647265737300000000000000000000000000000000000000000000000000006064820152608401610979565b610d92816126fa565b600054610100900460ff16611f1b5760005460ff1615611f1f565b303b155b611f915760405162461bcd60e51b815260206004820152602e60248201527f496e697469616c697a61626c653a20636f6e747261637420697320616c72656160448201527f647920696e697469616c697a65640000000000000000000000000000000000006064820152608401610979565b600054610100900460ff16158015611fb3576000805461ffff19166101011790555b611fbb61295f565b61019280546001600160a01b0380891673ffffffffffffffffffffffffffffffffffffffff19928316179092556101938054928816929091169190911790556040805160a0810182528581528415156020820181905291810184905243606082018190526000608090920191909152610194869055610195805460ff19908116909317905561019684905561019755610198805490911690558015612066576000805461ff00191690555b505050505050565b600061092b82612939565b60008281526097602090815260408083206001600160a01b038516845290915290205460ff16610a8b576120b7816001600160a01b031660146129fa565b6120c28360206129fa565b6040516020016120d392919061378c565b60408051601f198184030181529082905262461bcd60e51b82526109799160040161380d565b60008281526097602090815260408083206001600160a01b038516845290915290205460ff16610a8b5760008281526097602090815260408083206001600160a01b03851684529091529020805460ff191660011790556121573390565b6001600160a01b0316816001600160a01b0316837f2f8788117e7eff1d82e926ec794901d17c78024a50270940304540a733656f0d60405160405180910390a45050565b60008281526097602090815260408083206001600160a01b038516845290915290205460ff1615610a8b5760008281526097602090815260408083206001600160a01b0385168085529252808320805460ff1916905551339285917ff6391f5c32d9c69d2a47ea670b442974b53935d1edc7fd64eb21e047a839171b9190a45050565b6033546001600160a01b03163314610d925760405162461bcd60e51b815260206004820181905260248201527f4f776e61626c653a2063616c6c6572206973206e6f7420746865206f776e65726044820152606401610979565b60006122ab7f360894a13ba1a3210667c828492db98dca3e2076cc3735a920a3ca505d382bbc546001600160a01b031690565b90506122b684612c23565b6000835111806122c35750815b156122d4576122d28484612ce5565b505b7f4910fdfa16fed3260ed0e7147f7cc6da11a60208b5b9406d12a635614ffd9143805460ff1661243557805460ff191660011781556040516001600160a01b038316602482015261238190869060440160408051601f198184030181529190526020810180517bffffffffffffffffffffffffffffffffffffffffffffffffffffffff167f3659cfe600000000000000000000000000000000000000000000000000000000179052612ce5565b50805460ff191681557f360894a13ba1a3210667c828492db98dca3e2076cc3735a920a3ca505d382bbc546001600160a01b0383811691161461242c5760405162461bcd60e51b815260206004820152602f60248201527f45524331393637557067726164653a207570677261646520627265616b73206660448201527f75727468657220757067726164657300000000000000000000000000000000006064820152608401610979565b61243585612de7565b5050505050565b600082815261019960205260408120805484141580612461575061245f81612e27565b155b1561247057600091505061092b565b6101935460068201546040517f564e90e40000000000000000000000000000000000000000000000000000000081526000926001600160a01b03169163564e90e4916124d49188916004016001600160a01b03929092168252602082015260400190565b602060405180830381865afa1580156124f1573d6000803e3d6000fd5b505050506040513d601f19601f820116820180604052508101906125159190613840565b11949350505050565b60008381526101996020908152604080832061019a83528184206001600160a01b038716855260018101909352908320549092600160a01b90910460ff169061256686612895565b9050600182600281111561257c5761257c61337f565b14156125a157808460030160008282546125969190613700565b909155506126089050565b60028260028111156125b5576125b561337f565b14156125cf57808460040160008282546125969190613700565b825460018101845560008481526020902001805473ffffffffffffffffffffffffffffffffffffffff19166001600160a01b0388161790555b6001600160a01b0386166000908152600184016020526040902080548691907fffffffffffffffffffffff00ffffffffffffffffffffffffffffffffffffffff16600160a01b8360028111156126605761266061337f565b02179055506001600160a01b03861660009081526001808501602052604090912081018290558560028111156126985761269861337f565b14156126bd57808460030160008282546126b29190613717565b909155506126f19050565b60028560028111156126d1576126d161337f565b14156126f157808460040160008282546126eb9190613717565b90915550505b50505050505050565b603380546001600160a01b0383811673ffffffffffffffffffffffffffffffffffffffff19831681179093556040519116919082907f8be0079c531659141344cd1fd0a4f28419497f9722a3daafe3b4186f6b6457e090600090a35050565b60008381526101996020526040902054156127b65760405162461bcd60e51b815260206004820152601860248201527f416c72656164792070726f706f73616c206372656174656400000000000000006044820152606401610979565b604080516101208101825284815260208082019485528183019384526000606083018181526080840182815260a085018381524360c0870190815260e087018581526101008089018781528d88526101999098529886209751885599516001888101919091559851600288015592516003870155905160048601555160058501555160068401559451600790920180549151151590930261ff00199215159290921661ffff199091161717905561019b805491820181559091527f24aeb2cd7b2cf328da485c24efd7197e86108b05bbc525c1db80c96ffdf7e1290155565b6101955460009060ff161561293157610193546040517fffe489020000000000000000000000000000000000000000000000000000000081526001600160a01b0384811660048301529091169063ffe4890290602401602060405180830381865afa158015612908573d6000803e3d6000fd5b505050506040513d601f19601f8201168201806040525081019061292c9190613840565b61092b565b600192915050565b600081815261019960205260408120805483148015611c9d575060020154421192915050565b600054610100900460ff166129ca5760405162461bcd60e51b815260206004820152602b60248201527f496e697469616c697a61626c653a20636f6e7472616374206973206e6f74206960448201526a6e697469616c697a696e6760a81b6064820152608401610979565b6129d2612e69565b6129da612ee4565b6129e2612f67565b6129ea612fda565b6129f2613055565b600161019155565b60606000612a09836002613859565b612a14906002613717565b67ffffffffffffffff811115612a2c57612a2c61340f565b6040519080825280601f01601f191660200182016040528015612a56576020820181803683370190505b5090507f300000000000000000000000000000000000000000000000000000000000000081600081518110612a8d57612a8d61372f565b60200101907effffffffffffffffffffffffffffffffffffffffffffffffffffffffffffff1916908160001a9053507f780000000000000000000000000000000000000000000000000000000000000081600181518110612af057612af061372f565b60200101907effffffffffffffffffffffffffffffffffffffffffffffffffffffffffffff1916908160001a9053506000612b2c846002613859565b612b37906001613717565b90505b6001811115612bd4577f303132333435363738396162636465660000000000000000000000000000000085600f1660108110612b7857612b7861372f565b1a60f81b828281518110612b8e57612b8e61372f565b60200101907effffffffffffffffffffffffffffffffffffffffffffffffffffffffffffff1916908160001a90535060049490941c93612bcd81613878565b9050612b3a565b508315611c9d5760405162461bcd60e51b815260206004820181905260248201527f537472696e67733a20686578206c656e67746820696e73756666696369656e746044820152606401610979565b803b612c975760405162461bcd60e51b815260206004820152602d60248201527f455243313936373a206e657720696d706c656d656e746174696f6e206973206e60448201527f6f74206120636f6e7472616374000000000000000000000000000000000000006064820152608401610979565b7f360894a13ba1a3210667c828492db98dca3e2076cc3735a920a3ca505d382bbc805473ffffffffffffffffffffffffffffffffffffffff19166001600160a01b0392909216919091179055565b6060823b612d5b5760405162461bcd60e51b815260206004820152602660248201527f416464726573733a2064656c65676174652063616c6c20746f206e6f6e2d636f60448201527f6e747261637400000000000000000000000000000000000000000000000000006064820152608401610979565b600080846001600160a01b031684604051612d76919061388f565b600060405180830381855af49150503d8060008114612db1576040519150601f19603f3d011682016040523d82523d6000602084013e612db6565b606091505b5091509150612dde82826040518060600160405280602781526020016138ac602791396130c0565b95945050505050565b612df081612c23565b6040516001600160a01b038216907fbc7cd75a20ee27fd9adebab32041f755214dbc6bffa90cc0225b39da2e5c2d3b90600090a250565b600081600101544210158015612e405750816002015442105b8015612e5657506007820154610100900460ff16155b801561092b5750506007015460ff161590565b600054610100900460ff16612ed45760405162461bcd60e51b815260206004820152602b60248201527f496e697469616c697a61626c653a20636f6e7472616374206973206e6f74206960448201526a6e697469616c697a696e6760a81b6064820152608401610979565b612edc6130f9565b611285613164565b600054610100900460ff16612f4f5760405162461bcd60e51b815260206004820152602b60248201527f496e697469616c697a61626c653a20636f6e7472616374206973206e6f74206960448201526a6e697469616c697a696e6760a81b6064820152608401610979565b612f576130f9565b612f5f6130f9565b6112856130f9565b600054610100900460ff16612fd25760405162461bcd60e51b815260206004820152602b60248201527f496e697469616c697a61626c653a20636f6e7472616374206973206e6f74206960448201526a6e697469616c697a696e6760a81b6064820152608401610979565b6112856131d8565b600054610100900460ff166130455760405162461bcd60e51b815260206004820152602b60248201527f496e697469616c697a61626c653a20636f6e7472616374206973206e6f74206960448201526a6e697469616c697a696e6760a81b6064820152608401610979565b61304d6130f9565b61128561324a565b600054610100900460ff16612f575760405162461bcd60e51b815260206004820152602b60248201527f496e697469616c697a61626c653a20636f6e7472616374206973206e6f74206960448201526a6e697469616c697a696e6760a81b6064820152608401610979565b606083156130cf575081611c9d565b8251156130df5782518084602001fd5b8160405162461bcd60e51b8152600401610979919061380d565b600054610100900460ff166112855760405162461bcd60e51b815260206004820152602b60248201527f496e697469616c697a61626c653a20636f6e7472616374206973206e6f74206960448201526a6e697469616c697a696e6760a81b6064820152608401610979565b600054610100900460ff166131cf5760405162461bcd60e51b815260206004820152602b60248201527f496e697469616c697a61626c653a20636f6e7472616374206973206e6f74206960448201526a6e697469616c697a696e6760a81b6064820152608401610979565b611285336126fa565b600054610100900460ff166132435760405162461bcd60e51b815260206004820152602b60248201527f496e697469616c697a61626c653a20636f6e7472616374206973206e6f74206960448201526a6e697469616c697a696e6760a81b6064820152608401610979565b600160c955565b600054610100900460ff166132b55760405162461bcd60e51b815260206004820152602b60248201527f496e697469616c697a61626c653a20636f6e7472616374206973206e6f74206960448201526a6e697469616c697a696e6760a81b6064820152608401610979565b60fb805460ff19169055565b6000602082840312156132d357600080fd5b5035919050565b6000602082840312156132ec57600080fd5b81357fffffffff0000000000000000000000000000000000000000000000000000000081168114611c9d57600080fd5b80356001600160a01b038116811461333357600080fd5b919050565b6000806040838503121561334b57600080fd5b8235915061335b6020840161331c565b90509250929050565b60006020828403121561337657600080fd5b611c9d8261331c565b634e487b7160e01b600052602160045260246000fd5b60208101600683106133a9576133a961337f565b91905290565b8035801515811461333357600080fd5b6000602082840312156133d157600080fd5b611c9d826133af565b6000806000606084860312156133ef57600080fd5b833592506133ff6020850161331c565b9150604084013590509250925092565b634e487b7160e01b600052604160045260246000fd5b6000806040838503121561343857600080fd5b6134418361331c565b9150602083013567ffffffffffffffff8082111561345e57600080fd5b818501915085601f83011261347257600080fd5b8135818111156134845761348461340f565b604051601f8201601f19908116603f011681019083821181831017156134ac576134ac61340f565b816040528281528860208487010111156134c557600080fd5b8260208601602083013760006020848301015280955050505050509250929050565b6000806000606084860312156134fc57600080fd5b505081359360208301359350604090920135919050565b6000806040838503121561352657600080fd5b50508035926020909101359150565b602080825282518282018190526000919060409081850190868401855b828110156135c45781518051855286810151878601528581015186860152606080820151908601526080808201519086015260a0808201519086015260c0808201519086015260e080820151151590860152610100908101511515908501526101209093019290850190600101613552565b5091979650505050505050565b60208101600383106133a9576133a961337f565b600081518084526020808501945080840160005b83811015613615578151875295820195908201906001016135f9565b509495945050505050565b606080825284519082018190526000906020906080840190828801845b828110156136625781516001600160a01b03168452928401929084019060010161363d565b5050508381038285015261367681876135e5565b915050828103604084015261368b81856135e5565b9695505050505050565b600080600080600060a086880312156136ad57600080fd5b6136b68661331c565b94506136c46020870161331c565b9350604086013592506136d9606087016133af565b949793965091946080013592915050565b634e487b7160e01b600052601160045260246000fd5b600082821015613712576137126136ea565b500390565b6000821982111561372a5761372a6136ea565b500190565b634e487b7160e01b600052603260045260246000fd5b6000600019821415613759576137596136ea565b5060010190565b60005b8381101561377b578181015183820152602001613763565b838111156110905750506000910152565b7f416363657373436f6e74726f6c3a206163636f756e74200000000000000000008152600083516137c4816017850160208801613760565b7f206973206d697373696e6720726f6c65200000000000000000000000000000006017918401918201528351613801816028840160208801613760565b01602801949350505050565b602081526000825180602084015261382c816040850160208701613760565b601f01601f19169190910160400192915050565b60006020828403121561385257600080fd5b5051919050565b6000816000190483118215151615613873576138736136ea565b500290565b600081613887576138876136ea565b506000190190565b600082516138a1818460208701613760565b919091019291505056fe416464726573733a206c6f772d6c6576656c2064656c65676174652063616c6c206661696c6564a2646970667358221220f8b55aa27742102bf68edd3eb365394ca83e06e5d0bdde9fc516a19aff888d7b64736f6c634300080b0033",
  "linkReferences": {},
  "deployedLinkReferences": {}
}