{
  "_format": "hh-sol-artifact-1",
  "contractName": "PolyZDAO",
  "sourceName": "contracts/polygon/PolyZDAO.sol",
  "abi": [
    {
      "anonymous": false,
      "inputs": [
        {
          "indexed": false,
          "internalType": "address",
          "name": "previousAdmin",
          "type": "address"
        },
        {
          "indexed": false,
          "internalType": "address",
          "name": "newAdmin",
          "type": "address"
        }
      ],
      "name": "AdminChanged",
      "type": "event"
    },
    {
      "anonymous": false,
      "inputs": [
        {
          "indexed": true,
          "internalType": "address",
          "name": "beacon",
          "type": "address"
        }
      ],
      "name": "BeaconUpgraded",
      "type": "event"
    },
    {
      "anonymous": false,
      "inputs": [
        {
          "indexed": true,
          "internalType": "address",
          "name": "previousOwner",
          "type": "address"
        },
        {
          "indexed": true,
          "internalType": "address",
          "name": "newOwner",
          "type": "address"
        }
      ],
      "name": "OwnershipTransferred",
      "type": "event"
    },
    {
      "anonymous": false,
      "inputs": [
        {
          "indexed": false,
          "internalType": "address",
          "name": "account",
          "type": "address"
        }
      ],
      "name": "Paused",
      "type": "event"
    },
    {
      "anonymous": false,
      "inputs": [
        {
          "indexed": true,
          "internalType": "bytes32",
          "name": "role",
          "type": "bytes32"
        },
        {
          "indexed": true,
          "internalType": "bytes32",
          "name": "previousAdminRole",
          "type": "bytes32"
        },
        {
          "indexed": true,
          "internalType": "bytes32",
          "name": "newAdminRole",
          "type": "bytes32"
        }
      ],
      "name": "RoleAdminChanged",
      "type": "event"
    },
    {
      "anonymous": false,
      "inputs": [
        {
          "indexed": true,
          "internalType": "bytes32",
          "name": "role",
          "type": "bytes32"
        },
        {
          "indexed": true,
          "internalType": "address",
          "name": "account",
          "type": "address"
        },
        {
          "indexed": true,
          "internalType": "address",
          "name": "sender",
          "type": "address"
        }
      ],
      "name": "RoleGranted",
      "type": "event"
    },
    {
      "anonymous": false,
      "inputs": [
        {
          "indexed": true,
          "internalType": "bytes32",
          "name": "role",
          "type": "bytes32"
        },
        {
          "indexed": true,
          "internalType": "address",
          "name": "account",
          "type": "address"
        },
        {
          "indexed": true,
          "internalType": "address",
          "name": "sender",
          "type": "address"
        }
      ],
      "name": "RoleRevoked",
      "type": "event"
    },
    {
      "anonymous": false,
      "inputs": [
        {
          "indexed": false,
          "internalType": "address",
          "name": "account",
          "type": "address"
        }
      ],
      "name": "Unpaused",
      "type": "event"
    },
    {
      "anonymous": false,
      "inputs": [
        {
          "indexed": true,
          "internalType": "address",
          "name": "implementation",
          "type": "address"
        }
      ],
      "name": "Upgraded",
      "type": "event"
    },
    {
      "inputs": [],
      "name": "DEFAULT_ADMIN_ROLE",
      "outputs": [
        {
          "internalType": "bytes32",
          "name": "",
          "type": "bytes32"
        }
      ],
      "stateMutability": "view",
      "type": "function"
    },
    {
      "inputs": [
        {
          "internalType": "address",
          "name": "_zDAOChef",
          "type": "address"
        },
        {
          "internalType": "address",
          "name": "_staking",
          "type": "address"
        },
        {
          "internalType": "uint256",
          "name": "_zDAOId",
          "type": "uint256"
        },
        {
          "internalType": "bool",
          "name": "_isRelativeMajority",
          "type": "bool"
        },
        {
          "internalType": "uint256",
          "name": "_quorumVotes",
          "type": "uint256"
        }
      ],
      "name": "__ZDAO_init",
      "outputs": [],
      "stateMutability": "nonpayable",
      "type": "function"
    },
    {
      "inputs": [
        {
          "internalType": "uint256",
          "name": "_proposalId",
          "type": "uint256"
        }
      ],
      "name": "canCollectResult",
      "outputs": [
        {
          "internalType": "bool",
          "name": "",
          "type": "bool"
        }
      ],
      "stateMutability": "view",
      "type": "function"
    },
    {
      "inputs": [
        {
          "internalType": "uint256",
          "name": "_proposalId",
          "type": "uint256"
        },
        {
          "internalType": "address",
          "name": "_voter",
          "type": "address"
        }
      ],
      "name": "canVote",
      "outputs": [
        {
          "internalType": "bool",
          "name": "",
          "type": "bool"
        }
      ],
      "stateMutability": "view",
      "type": "function"
    },
    {
      "inputs": [
        {
          "internalType": "uint256",
          "name": "_proposalId",
          "type": "uint256"
        }
      ],
      "name": "cancelProposal",
      "outputs": [],
      "stateMutability": "nonpayable",
      "type": "function"
    },
    {
      "inputs": [
        {
          "internalType": "uint256",
          "name": "_proposalId",
          "type": "uint256"
        },
        {
          "internalType": "address",
          "name": "_voter",
          "type": "address"
        }
      ],
      "name": "choiceOfVoter",
      "outputs": [
        {
          "internalType": "enum IPolyZDAO.VoterChoice",
          "name": "",
          "type": "uint8"
        }
      ],
      "stateMutability": "view",
      "type": "function"
    },
    {
      "inputs": [
        {
          "internalType": "uint256",
          "name": "_proposalId",
          "type": "uint256"
        }
      ],
      "name": "collectResult",
      "outputs": [
        {
          "internalType": "bool",
          "name": "isRelativeMajority",
          "type": "bool"
        },
        {
          "internalType": "uint256",
          "name": "yes",
          "type": "uint256"
        },
        {
          "internalType": "uint256",
          "name": "no",
          "type": "uint256"
        }
      ],
      "stateMutability": "nonpayable",
      "type": "function"
    },
    {
      "inputs": [
        {
          "internalType": "uint256",
          "name": "_proposalId",
          "type": "uint256"
        },
        {
          "internalType": "uint256",
          "name": "_startTimestamp",
          "type": "uint256"
        },
        {
          "internalType": "uint256",
          "name": "_endTimestamp",
          "type": "uint256"
        }
      ],
      "name": "createProposal",
      "outputs": [],
      "stateMutability": "nonpayable",
      "type": "function"
    },
    {
      "inputs": [],
      "name": "destroyed",
      "outputs": [
        {
          "internalType": "bool",
          "name": "",
          "type": "bool"
        }
      ],
      "stateMutability": "view",
      "type": "function"
    },
    {
      "inputs": [
        {
          "internalType": "uint256",
          "name": "_proposalId",
          "type": "uint256"
        }
      ],
      "name": "executeProposal",
      "outputs": [],
      "stateMutability": "nonpayable",
      "type": "function"
    },
    {
      "inputs": [
        {
          "internalType": "bytes32",
          "name": "role",
          "type": "bytes32"
        }
      ],
      "name": "getRoleAdmin",
      "outputs": [
        {
          "internalType": "bytes32",
          "name": "",
          "type": "bytes32"
        }
      ],
      "stateMutability": "view",
      "type": "function"
    },
    {
      "inputs": [
        {
          "internalType": "bytes32",
          "name": "role",
          "type": "bytes32"
        },
        {
          "internalType": "address",
          "name": "account",
          "type": "address"
        }
      ],
      "name": "grantRole",
      "outputs": [],
      "stateMutability": "nonpayable",
      "type": "function"
    },
    {
      "inputs": [
        {
          "internalType": "bytes32",
          "name": "role",
          "type": "bytes32"
        },
        {
          "internalType": "address",
          "name": "account",
          "type": "address"
        }
      ],
      "name": "hasRole",
      "outputs": [
        {
          "internalType": "bool",
          "name": "",
          "type": "bool"
        }
      ],
      "stateMutability": "view",
      "type": "function"
    },
    {
      "inputs": [
        {
          "internalType": "uint256",
          "name": "_startIndex",
          "type": "uint256"
        },
        {
          "internalType": "uint256",
          "name": "_endIndex",
          "type": "uint256"
        }
      ],
      "name": "listProposals",
      "outputs": [
        {
          "components": [
            {
              "internalType": "uint256",
              "name": "proposalId",
              "type": "uint256"
            },
            {
              "internalType": "uint256",
              "name": "startTimestamp",
              "type": "uint256"
            },
            {
              "internalType": "uint256",
              "name": "endTimestamp",
              "type": "uint256"
            },
            {
              "internalType": "uint256",
              "name": "yes",
              "type": "uint256"
            },
            {
              "internalType": "uint256",
              "name": "no",
              "type": "uint256"
            },
            {
              "internalType": "uint256",
              "name": "reserved",
              "type": "uint256"
            },
            {
              "internalType": "uint256",
              "name": "voters",
              "type": "uint256"
            },
            {
              "internalType": "uint256",
              "name": "snapshot",
              "type": "uint256"
            },
            {
              "internalType": "bool",
              "name": "executed",
              "type": "bool"
            },
            {
              "internalType": "bool",
              "name": "canceled",
              "type": "bool"
            }
          ],
          "internalType": "struct IPolyZDAO.Proposal[]",
          "name": "",
          "type": "tuple[]"
        }
      ],
      "stateMutability": "view",
      "type": "function"
    },
    {
      "inputs": [
        {
          "internalType": "uint256",
          "name": "_proposalId",
          "type": "uint256"
        },
        {
          "internalType": "uint256",
          "name": "_startIndex",
          "type": "uint256"
        },
        {
          "internalType": "uint256",
          "name": "_endIndex",
          "type": "uint256"
        }
      ],
      "name": "listVoters",
      "outputs": [
        {
          "internalType": "address[]",
          "name": "voters",
          "type": "address[]"
        },
        {
          "internalType": "uint256[]",
          "name": "choices",
          "type": "uint256[]"
        },
        {
          "internalType": "uint256[]",
          "name": "votes",
          "type": "uint256[]"
        }
      ],
      "stateMutability": "view",
      "type": "function"
    },
    {
      "inputs": [],
      "name": "numberOfProposals",
      "outputs": [
        {
          "internalType": "uint256",
          "name": "",
          "type": "uint256"
        }
      ],
      "stateMutability": "view",
      "type": "function"
    },
    {
      "inputs": [],
      "name": "owner",
      "outputs": [
        {
          "internalType": "address",
          "name": "",
          "type": "address"
        }
      ],
      "stateMutability": "view",
      "type": "function"
    },
    {
      "inputs": [],
      "name": "paused",
      "outputs": [
        {
          "internalType": "bool",
          "name": "",
          "type": "bool"
        }
      ],
      "stateMutability": "view",
      "type": "function"
    },
    {
      "inputs": [
        {
          "internalType": "uint256",
          "name": "",
          "type": "uint256"
        }
      ],
      "name": "proposalIds",
      "outputs": [
        {
          "internalType": "uint256",
          "name": "",
          "type": "uint256"
        }
      ],
      "stateMutability": "view",
      "type": "function"
    },
    {
      "inputs": [
        {
          "internalType": "uint256",
          "name": "",
          "type": "uint256"
        }
      ],
      "name": "proposals",
      "outputs": [
        {
          "internalType": "uint256",
          "name": "proposalId",
          "type": "uint256"
        },
        {
          "internalType": "uint256",
          "name": "startTimestamp",
          "type": "uint256"
        },
        {
          "internalType": "uint256",
          "name": "endTimestamp",
          "type": "uint256"
        },
        {
          "internalType": "uint256",
          "name": "yes",
          "type": "uint256"
        },
        {
          "internalType": "uint256",
          "name": "no",
          "type": "uint256"
        },
        {
          "internalType": "uint256",
          "name": "reserved",
          "type": "uint256"
        },
        {
          "internalType": "uint256",
          "name": "voters",
          "type": "uint256"
        },
        {
          "internalType": "uint256",
          "name": "snapshot",
          "type": "uint256"
        },
        {
          "internalType": "bool",
          "name": "executed",
          "type": "bool"
        },
        {
          "internalType": "bool",
          "name": "canceled",
          "type": "bool"
        }
      ],
      "stateMutability": "view",
      "type": "function"
    },
    {
      "inputs": [],
      "name": "renounceOwnership",
      "outputs": [],
      "stateMutability": "nonpayable",
      "type": "function"
    },
    {
      "inputs": [
        {
          "internalType": "bytes32",
          "name": "role",
          "type": "bytes32"
        },
        {
          "internalType": "address",
          "name": "account",
          "type": "address"
        }
      ],
      "name": "renounceRole",
      "outputs": [],
      "stateMutability": "nonpayable",
      "type": "function"
    },
    {
      "inputs": [
        {
          "internalType": "bytes32",
          "name": "role",
          "type": "bytes32"
        },
        {
          "internalType": "address",
          "name": "account",
          "type": "address"
        }
      ],
      "name": "revokeRole",
      "outputs": [],
      "stateMutability": "nonpayable",
      "type": "function"
    },
    {
      "inputs": [
        {
          "internalType": "bool",
          "name": "_destroyed",
          "type": "bool"
        }
      ],
      "name": "setDestroyed",
      "outputs": [],
      "stateMutability": "nonpayable",
      "type": "function"
    },
    {
      "inputs": [],
      "name": "staking",
      "outputs": [
        {
          "internalType": "contract Staking",
          "name": "",
          "type": "address"
        }
      ],
      "stateMutability": "view",
      "type": "function"
    },
    {
      "inputs": [
        {
          "internalType": "uint256",
          "name": "_proposalId",
          "type": "uint256"
        }
      ],
      "name": "state",
      "outputs": [
        {
          "internalType": "enum IPolyZDAO.ProposalState",
          "name": "",
          "type": "uint8"
        }
      ],
      "stateMutability": "view",
      "type": "function"
    },
    {
      "inputs": [
        {
          "internalType": "bytes4",
          "name": "interfaceId",
          "type": "bytes4"
        }
      ],
      "name": "supportsInterface",
      "outputs": [
        {
          "internalType": "bool",
          "name": "",
          "type": "bool"
        }
      ],
      "stateMutability": "view",
      "type": "function"
    },
    {
      "inputs": [
        {
          "internalType": "address",
          "name": "newOwner",
          "type": "address"
        }
      ],
      "name": "transferOwnership",
      "outputs": [],
      "stateMutability": "nonpayable",
      "type": "function"
    },
    {
      "inputs": [
        {
          "internalType": "address",
          "name": "newImplementation",
          "type": "address"
        }
      ],
      "name": "upgradeTo",
      "outputs": [],
      "stateMutability": "nonpayable",
      "type": "function"
    },
    {
      "inputs": [
        {
          "internalType": "address",
          "name": "newImplementation",
          "type": "address"
        },
        {
          "internalType": "bytes",
          "name": "data",
          "type": "bytes"
        }
      ],
      "name": "upgradeToAndCall",
      "outputs": [],
      "stateMutability": "payable",
      "type": "function"
    },
    {
      "inputs": [],
      "name": "version",
      "outputs": [
        {
          "internalType": "uint256",
          "name": "",
          "type": "uint256"
        }
      ],
      "stateMutability": "view",
      "type": "function"
    },
    {
      "inputs": [
        {
          "internalType": "uint256",
          "name": "_proposalId",
          "type": "uint256"
        },
        {
          "internalType": "address",
          "name": "_voter",
          "type": "address"
        },
        {
          "internalType": "uint256",
          "name": "_choice",
          "type": "uint256"
        }
      ],
      "name": "vote",
      "outputs": [],
      "stateMutability": "nonpayable",
      "type": "function"
    },
    {
      "inputs": [
        {
          "internalType": "uint256",
          "name": "_proposalId",
          "type": "uint256"
        }
      ],
      "name": "votesResultOfProposal",
      "outputs": [
        {
          "internalType": "uint256",
          "name": "voters",
          "type": "uint256"
        },
        {
          "internalType": "uint256",
          "name": "yes",
          "type": "uint256"
        },
        {
          "internalType": "uint256",
          "name": "no",
          "type": "uint256"
        }
      ],
      "stateMutability": "view",
      "type": "function"
    },
    {
      "inputs": [
        {
          "internalType": "uint256",
          "name": "_proposalId",
          "type": "uint256"
        },
        {
          "internalType": "address",
          "name": "_voter",
          "type": "address"
        }
      ],
      "name": "votingPowerOfVoter",
      "outputs": [
        {
          "internalType": "uint256",
          "name": "",
          "type": "uint256"
        }
      ],
      "stateMutability": "view",
      "type": "function"
    },
    {
      "inputs": [],
      "name": "zDAOChef",
      "outputs": [
        {
          "internalType": "address",
          "name": "",
          "type": "address"
        }
      ],
      "stateMutability": "view",
      "type": "function"
    },
    {
      "inputs": [],
      "name": "zDAOId",
      "outputs": [
        {
          "internalType": "uint256",
          "name": "",
          "type": "uint256"
        }
      ],
      "stateMutability": "view",
      "type": "function"
    },
    {
      "inputs": [],
      "name": "zDAOInfo",
      "outputs": [
        {
          "internalType": "uint256",
          "name": "zDAOId",
          "type": "uint256"
        },
        {
          "internalType": "bool",
          "name": "isRelativeMajority",
          "type": "bool"
        },
        {
          "internalType": "uint256",
          "name": "quorumVotes",
          "type": "uint256"
        },
        {
          "internalType": "uint256",
          "name": "snapshot",
          "type": "uint256"
        },
        {
          "internalType": "bool",
          "name": "destroyed",
          "type": "bool"
        }
      ],
      "stateMutability": "view",
      "type": "function"
    }
  ],
  "bytecode": "0x60a06040523060805234801561001457600080fd5b5060805161397461004560003960008181610c1e01528181610cb4015281816110bd015261115301526139746000f3fe60806040526004361061026a5760003560e01c8063715018a611610153578063a217fddf116100cb578063d8191e6c1161007f578063f2fde38b11610064578063f2fde38b1461084c578063f37ea28a1461086c578063f9f553991461088c57600080fd5b8063d8191e6c146107d0578063e0a8f6f51461082c57600080fd5b8063b5c23fdd116100b0578063b5c23fdd14610761578063cdb2867b14610790578063d547741f146107b057600080fd5b8063a217fddf146106ed578063affc17931461070257600080fd5b80638d7af4731161012257806390bfeab31161010757806390bfeab31461066657806391d14854146106875780639b644a23146106cd57600080fd5b80638d7af473146106325780638da5cb5b1461064857600080fd5b8063715018a614610593578063722c5176146105a8578063758167f7146105c85780637f6dda141461060557600080fd5b80633659cfe6116101e65780634de8737c116101b557806354fd4d501161019a57806354fd4d50146105445780635c975abb1461055b57806362a8dab91461057357600080fd5b80634de8737c146105115780634f1ef2861461053157600080fd5b80633659cfe61461046b5780633e4f49e61461048b578063472858b4146104b85780634cf088d9146104d857600080fd5b8063151936131161023d5780632f2ff15d116102225780632f2ff15d14610412578063359cbbc91461043257806336568abe1461044b57600080fd5b806315193613146103c2578063248a9ca3146103e257600080fd5b8063013cf08b1461026f57806301ffc9a7146103355780630d61b51914610365578063120e33da14610387575b600080fd5b34801561027b57600080fd5b506102e261028a366004613322565b6101996020526000908152604090208054600182015460028301546003840154600485015460058601546006870154600788015460089098015496979596949593949293919290919060ff808216916101009004168a565b604080519a8b5260208b0199909952978901969096526060880194909452608087019290925260a086015260c085015260e084015215156101008301521515610120820152610140015b60405180910390f35b34801561034157600080fd5b5061035561035036600461333b565b6108ac565b604051901515815260200161032c565b34801561037157600080fd5b50610385610380366004613322565b610945565b005b34801561039357600080fd5b506103a76103a2366004613322565b610aa3565b6040805193845260208401929092529082015260600161032c565b3480156103ce57600080fd5b50610194545b60405190815260200161032c565b3480156103ee57600080fd5b506103d46103fd366004613322565b60009081526097602052604090206001015490565b34801561041e57600080fd5b5061038561042d366004613399565b610b60565b34801561043e57600080fd5b506101985460ff16610355565b34801561045757600080fd5b50610385610466366004613399565b610b8b565b34801561047757600080fd5b506103856104863660046133c5565b610c13565b34801561049757600080fd5b506104ab6104a6366004613322565b610db1565b60405161032c91906133f6565b3480156104c457600080fd5b506103856104d3366004613420565b610e4d565b3480156104e457600080fd5b50610193546104f9906001600160a01b031681565b6040516001600160a01b03909116815260200161032c565b34801561051d57600080fd5b5061038561052c36600461343b565b610ead565b61038561053f366004613486565b6110b2565b34801561055057600080fd5b506103d46101915481565b34801561056757600080fd5b5060fb5460ff16610355565b34801561057f57600080fd5b506103d461058e366004613399565b61123d565b34801561059f57600080fd5b50610385611250565b3480156105b457600080fd5b506103856105c3366004613548565b6112b6565b3480156105d457600080fd5b506105e86105e3366004613322565b6113ca565b60408051931515845260208401929092529082015260600161032c565b34801561061157600080fd5b50610625610620366004613574565b611582565b60405161032c9190613596565b34801561063e57600080fd5b5061019b546103d4565b34801561065457600080fd5b506033546001600160a01b03166104f9565b34801561067257600080fd5b50610192546104f9906001600160a01b031681565b34801561069357600080fd5b506103556106a2366004613399565b60009182526097602090815260408084206001600160a01b0393909316845291905290205460ff1690565b3480156106d957600080fd5b506103d46106e8366004613322565b611894565b3480156106f957600080fd5b506103d4600081565b34801561070e57600080fd5b5061075461071d366004613399565b600091825261019a602090815260408084206001600160a01b0393909316845260019092019052902054600160a01b900460ff1690565b60405161032c919061363d565b34801561076d57600080fd5b5061078161077c366004613548565b6118b6565b60405161032c9392919061368c565b34801561079c57600080fd5b506103556107ab366004613399565b611cc9565b3480156107bc57600080fd5b506103856107cb366004613399565b611cd5565b3480156107dc57600080fd5b506101945461019554610196546101975461019854610802949360ff9081169392911685565b6040805195865293151560208601529284019190915260608301521515608082015260a00161032c565b34801561083857600080fd5b50610385610847366004613322565b611cfb565b34801561085857600080fd5b506103856108673660046133c5565b611e52565b34801561087857600080fd5b50610385610887366004613701565b611f31565b34801561089857600080fd5b506103556108a7366004613322565b61209f565b60007fffffffff0000000000000000000000000000000000000000000000000000000082167f7965db0b00000000000000000000000000000000000000000000000000000000148061093f57507f01ffc9a7000000000000000000000000000000000000000000000000000000007fffffffff000000000000000000000000000000000000000000000000000000008316145b92915050565b610192546001600160a01b031633146109965760405162461bcd60e51b815260206004820152600e60248201526d2737ba1030902d2220a7a1b432b360911b60448201526064015b60405180910390fd5b6101985460ff16156109ea5760405162461bcd60e51b815260206004820152601160248201527f416c72656164792064657374726f796564000000000000000000000000000000604482015260640161098d565b60008181526101996020526040902054819081148015610a1d57506000818152610199602052604090206008015460ff16155b8015610a41575060008181526101996020526040902060080154610100900460ff16155b610a7c5760405162461bcd60e51b815260206004820152600c60248201526b496e76616c6964207a44414f60a01b604482015260640161098d565b610a9f82600090815261019960205260409020600801805460ff19166001179055565b5050565b6000818152610199602052604081205481908190849081148015610ada57506000818152610199602052604090206008015460ff16155b8015610afe575060008181526101996020526040902060080154610100900460ff16155b610b395760405162461bcd60e51b815260206004820152600c60248201526b496e76616c6964207a44414f60a01b604482015260640161098d565b50505060009182525061019960205260409020600681015460038201546004909201549092565b600082815260976020526040902060010154610b7c81336120aa565b610b86838361212a565b505050565b6001600160a01b0381163314610c095760405162461bcd60e51b815260206004820152602f60248201527f416363657373436f6e74726f6c3a2063616e206f6e6c792072656e6f756e636560448201527f20726f6c657320666f722073656c660000000000000000000000000000000000606482015260840161098d565b610a9f82826121cc565b306001600160a01b037f0000000000000000000000000000000000000000000000000000000000000000161415610cb25760405162461bcd60e51b815260206004820152602c60248201527f46756e6374696f6e206d7573742062652063616c6c6564207468726f7567682060448201527f64656c656761746563616c6c0000000000000000000000000000000000000000606482015260840161098d565b7f00000000000000000000000000000000000000000000000000000000000000006001600160a01b0316610d0d7f360894a13ba1a3210667c828492db98dca3e2076cc3735a920a3ca505d382bbc546001600160a01b031690565b6001600160a01b031614610d895760405162461bcd60e51b815260206004820152602c60248201527f46756e6374696f6e206d7573742062652063616c6c6564207468726f7567682060448201527f6163746976652070726f78790000000000000000000000000000000000000000606482015260840161098d565b610d928161224f565b60408051600080825260208201909252610dae918391906122a9565b50565b6000818152610199602052604081206008810154610100900460ff1615610ddb5750600292915050565b80600101544211610def5750600092915050565b80600201544211610e035750600192915050565b80600401548160030154111580610e205750610196546003820154105b15610e2e5750600392915050565b600881015460ff1615610e445750600592915050565b50600492915050565b610192546001600160a01b03163314610e995760405162461bcd60e51b815260206004820152600e60248201526d2737ba1030902d2220a7a1b432b360911b604482015260640161098d565b610198805460ff1916911515919091179055565b610192546001600160a01b03163314610ef95760405162461bcd60e51b815260206004820152600e60248201526d2737ba1030902d2220a7a1b432b360911b604482015260640161098d565b6101985460ff1615610f4d5760405162461bcd60e51b815260206004820152601160248201527f416c72656164792064657374726f796564000000000000000000000000000000604482015260640161098d565b60008381526101996020526040902054839081148015610f8057506000818152610199602052604090206008015460ff16155b8015610fa4575060008181526101996020526040902060080154610100900460ff16155b610fdf5760405162461bcd60e51b815260206004820152600c60248201526b496e76616c6964207a44414f60a01b604482015260640161098d565b6001821480610fee5750600282145b61103a5760405162461bcd60e51b815260206004820152600e60248201527f496e76616c69642063686f696365000000000000000000000000000000000000604482015260640161098d565b611044848461246d565b6110905760405162461bcd60e51b815260206004820152601460248201527f4e6f742076616c696420666f7220766f74696e67000000000000000000000000604482015260640161098d565b6110ac84848460028111156110a7576110a76133e0565b61254f565b50505050565b306001600160a01b037f00000000000000000000000000000000000000000000000000000000000000001614156111515760405162461bcd60e51b815260206004820152602c60248201527f46756e6374696f6e206d7573742062652063616c6c6564207468726f7567682060448201527f64656c656761746563616c6c0000000000000000000000000000000000000000606482015260840161098d565b7f00000000000000000000000000000000000000000000000000000000000000006001600160a01b03166111ac7f360894a13ba1a3210667c828492db98dca3e2076cc3735a920a3ca505d382bbc546001600160a01b031690565b6001600160a01b0316146112285760405162461bcd60e51b815260206004820152602c60248201527f46756e6374696f6e206d7573742062652063616c6c6564207468726f7567682060448201527f6163746976652070726f78790000000000000000000000000000000000000000606482015260840161098d565b6112318261224f565b610a9f828260016122a9565b60006112498383612731565b9392505050565b6033546001600160a01b031633146112aa5760405162461bcd60e51b815260206004820181905260248201527f4f776e61626c653a2063616c6c6572206973206e6f7420746865206f776e6572604482015260640161098d565b6112b460006127f0565b565b610192546001600160a01b031633146113025760405162461bcd60e51b815260206004820152600e60248201526d2737ba1030902d2220a7a1b432b360911b604482015260640161098d565b6101985460ff16156113565760405162461bcd60e51b815260206004820152601160248201527f416c72656164792064657374726f796564000000000000000000000000000000604482015260640161098d565b600083118015611373575060008381526101996020526040902054155b6113bf5760405162461bcd60e51b815260206004820152601c60248201527f50726f706f73616c2077617320616c7265616479206372656174656400000000604482015260640161098d565b610b8683838361284f565b61019254600090819081906001600160a01b0316331461141d5760405162461bcd60e51b815260206004820152600e60248201526d2737ba1030902d2220a7a1b432b360911b604482015260640161098d565b6101985460ff16156114715760405162461bcd60e51b815260206004820152601160248201527f416c72656164792064657374726f796564000000000000000000000000000000604482015260640161098d565b600084815261019960205260409020548490811480156114a457506000818152610199602052604090206008015460ff16155b80156114c8575060008181526101996020526040902060080154610100900460ff16155b6115035760405162461bcd60e51b815260206004820152600c60248201526b496e76616c6964207a44414f60a01b604482015260640161098d565b61150c8561299a565b6115585760405162461bcd60e51b815260206004820152601f60248201527f4e6f742076616c696420666f7220636f6c6c656374696e6720726573756c7400604482015260640161098d565b5050506000918252506101996020526040902061019554600382015460049092015460ff90911692565b6060600083116115d45760405162461bcd60e51b815260206004820152601660248201527f73686f756c6420737461727420696e646578203e203000000000000000000000604482015260640161098d565b818311156116245760405162461bcd60e51b815260206004820152601960248201527f73686f756c6420737461727420696e646578203c3d20656e6400000000000000604482015260640161098d565b61019b548311156116775760405162461bcd60e51b815260206004820152601c60248201527f73686f756c6420737461727420696e646578203c3d206c656e67746800000000604482015260640161098d565b61019b548211156116ca5760405162461bcd60e51b815260206004820152601a60248201527f73686f756c6420656e6420696e646578203c3d206c656e677468000000000000604482015260640161098d565b60006116d6848461376c565b6116e1906001613783565b905060008167ffffffffffffffff8111156116fe576116fe613470565b60405190808252806020026020018201604052801561178957816020015b61177660405180610140016040528060008152602001600081526020016000815260200160008152602001600081526020016000815260200160008152602001600081526020016000151581526020016000151581525090565b81526020019060019003908161171c5790505b50905060005b8281101561188b57610199600061019b60016117ab858b613783565b6117b5919061376c565b815481106117c5576117c561379b565b600091825260208083209091015483528281019390935260409182019020815161014081018352815481526001820154938101939093526002810154918301919091526003810154606083015260048101546080830152600581015460a0830152600681015460c0830152600781015460e08301526008015460ff808216151561010080850191909152909104161515610120820152825183908390811061186f5761186f61379b565b602002602001018190525080611884906137b1565b905061178f565b50949350505050565b61019b81815481106118a557600080fd5b600091825260209091200154905081565b60008381526101996020526040902054606090819081908690811480156118f057506000818152610199602052604090206008015460ff16155b8015611914575060008181526101996020526040902060080154610100900460ff16155b61194f5760405162461bcd60e51b815260206004820152600c60248201526b496e76616c6964207a44414f60a01b604482015260640161098d565b600087815261019a60205260409020866119ab5760405162461bcd60e51b815260206004820152601660248201527f73686f756c6420737461727420696e646578203e203000000000000000000000604482015260640161098d565b858711156119fb5760405162461bcd60e51b815260206004820152601960248201527f73686f756c6420737461727420696e646578203c3d20656e6400000000000000604482015260640161098d565b8054871115611a4c5760405162461bcd60e51b815260206004820152601c60248201527f73686f756c6420737461727420696e646578203c3d206c656e67746800000000604482015260640161098d565b8054861115611a9d5760405162461bcd60e51b815260206004820152601a60248201527f73686f756c6420656e6420696e646578203c3d206c656e677468000000000000604482015260640161098d565b6000611aa9888861376c565b611ab4906001613783565b90508067ffffffffffffffff811115611acf57611acf613470565b604051908082528060200260200182016040528015611af8578160200160208202803683370190505b5095508067ffffffffffffffff811115611b1457611b14613470565b604051908082528060200260200182016040528015611b3d578160200160208202803683370190505b5094508067ffffffffffffffff811115611b5957611b59613470565b604051908082528060200260200182016040528015611b82578160200160208202803683370190505b5093506000805b82811015611cbb57836001611b9e838d613783565b611ba8919061376c565b81548110611bb857611bb861379b565b60009182526020808320909101546001600160a01b03908116808452600188019092526040909220548a5191945090911690899083908110611bfc57611bfc61379b565b6001600160a01b039283166020918202929092018101919091529083166000908152600186019091526040902054600160a01b900460ff166002811115611c4557611c456133e0565b878281518110611c5757611c5761379b565b602002602001018181525050836001016000836001600160a01b03166001600160a01b0316815260200190815260200160002060010154868281518110611ca057611ca061379b565b6020908102919091010152611cb4816137b1565b9050611b89565b505050505093509350939050565b6000611249838361246d565b600082815260976020526040902060010154611cf181336120aa565b610b8683836121cc565b610192546001600160a01b03163314611d475760405162461bcd60e51b815260206004820152600e60248201526d2737ba1030902d2220a7a1b432b360911b604482015260640161098d565b6101985460ff1615611d9b5760405162461bcd60e51b815260206004820152601160248201527f416c72656164792064657374726f796564000000000000000000000000000000604482015260640161098d565b60008181526101996020526040902054819081148015611dce57506000818152610199602052604090206008015460ff16155b8015611df2575060008181526101996020526040902060080154610100900460ff16155b611e2d5760405162461bcd60e51b815260206004820152600c60248201526b496e76616c6964207a44414f60a01b604482015260640161098d565b610a9f82600090815261019960205260409020600801805461ff001916610100179055565b6033546001600160a01b03163314611eac5760405162461bcd60e51b815260206004820181905260248201527f4f776e61626c653a2063616c6c6572206973206e6f7420746865206f776e6572604482015260640161098d565b6001600160a01b038116611f285760405162461bcd60e51b815260206004820152602660248201527f4f776e61626c653a206e6577206f776e657220697320746865207a65726f206160448201527f6464726573730000000000000000000000000000000000000000000000000000606482015260840161098d565b610dae816127f0565b600054610100900460ff16611f4c5760005460ff1615611f50565b303b155b611fc25760405162461bcd60e51b815260206004820152602e60248201527f496e697469616c697a61626c653a20636f6e747261637420697320616c72656160448201527f647920696e697469616c697a6564000000000000000000000000000000000000606482015260840161098d565b600054610100900460ff16158015611fe4576000805461ffff19166101011790555b611fec6129c0565b61019280546001600160a01b0380891673ffffffffffffffffffffffffffffffffffffffff19928316179092556101938054928816929091169190911790556040805160a0810182528581528415156020820181905291810184905243606082018190526000608090920191909152610194869055610195805460ff19908116909317905561019684905561019755610198805490911690558015612097576000805461ff00191690555b505050505050565b600061093f8261299a565b60008281526097602090815260408083206001600160a01b038516845290915290205460ff16610a9f576120e8816001600160a01b03166014612a5b565b6120f3836020612a5b565b6040516020016121049291906137f8565b60408051601f198184030181529082905262461bcd60e51b825261098d91600401613879565b60008281526097602090815260408083206001600160a01b038516845290915290205460ff16610a9f5760008281526097602090815260408083206001600160a01b03851684529091529020805460ff191660011790556121883390565b6001600160a01b0316816001600160a01b0316837f2f8788117e7eff1d82e926ec794901d17c78024a50270940304540a733656f0d60405160405180910390a45050565b60008281526097602090815260408083206001600160a01b038516845290915290205460ff1615610a9f5760008281526097602090815260408083206001600160a01b0385168085529252808320805460ff1916905551339285917ff6391f5c32d9c69d2a47ea670b442974b53935d1edc7fd64eb21e047a839171b9190a45050565b6033546001600160a01b03163314610dae5760405162461bcd60e51b815260206004820181905260248201527f4f776e61626c653a2063616c6c6572206973206e6f7420746865206f776e6572604482015260640161098d565b60006122dc7f360894a13ba1a3210667c828492db98dca3e2076cc3735a920a3ca505d382bbc546001600160a01b031690565b90506122e784612c84565b6000835111806122f45750815b15612305576123038484612d46565b505b7f4910fdfa16fed3260ed0e7147f7cc6da11a60208b5b9406d12a635614ffd9143805460ff1661246657805460ff191660011781556040516001600160a01b03831660248201526123b290869060440160408051601f198184030181529190526020810180517bffffffffffffffffffffffffffffffffffffffffffffffffffffffff167f3659cfe600000000000000000000000000000000000000000000000000000000179052612d46565b50805460ff191681557f360894a13ba1a3210667c828492db98dca3e2076cc3735a920a3ca505d382bbc546001600160a01b0383811691161461245d5760405162461bcd60e51b815260206004820152602f60248201527f45524331393637557067726164653a207570677261646520627265616b73206660448201527f7572746865722075706772616465730000000000000000000000000000000000606482015260840161098d565b61246685612e48565b5050505050565b600082815261019960205260408120805484141580612492575061249081612e88565b155b156124a157600091505061093f565b6101935460078201546040517f564e90e40000000000000000000000000000000000000000000000000000000081526000926001600160a01b03169163564e90e4916125059188916004016001600160a01b03929092168252602082015260400190565b602060405180830381865afa158015612522573d6000803e3d6000fd5b505050506040513d601f19601f8201168201806040525081019061254691906138ac565b11949350505050565b60008381526101996020908152604080832061019a83528184206001600160a01b038716855260018101909352908320549092600160a01b90910460ff16906125988787612731565b905060018260028111156125ae576125ae6133e0565b14156125d357808460030160008282546125c8919061376c565b9091555061263a9050565b60028260028111156125e7576125e76133e0565b141561260157808460040160008282546125c8919061376c565b825460018101845560008481526020902001805473ffffffffffffffffffffffffffffffffffffffff19166001600160a01b0388161790555b6001600160a01b0386166000908152600184016020526040902080548691907fffffffffffffffffffffff00ffffffffffffffffffffffffffffffffffffffff16600160a01b836002811115612692576126926133e0565b02179055506001600160a01b03861660009081526001808501602052604090912081018290558560028111156126ca576126ca6133e0565b14156126ef57808460030160008282546126e49190613783565b909155506127239050565b6002856002811115612703576127036133e0565b1415612723578084600401600082825461271d9190613783565b90915550505b505054600690910155505050565b6000828152610199602052604081206101955460ff16156127e5576101935460078201546040517f564e90e40000000000000000000000000000000000000000000000000000000081526001600160a01b038681166004830152602482019290925291169063564e90e490604401602060405180830381865afa1580156127bc573d6000803e3d6000fd5b505050506040513d601f19601f820116820180604052508101906127e091906138ac565b6127e8565b60015b949350505050565b603380546001600160a01b0383811673ffffffffffffffffffffffffffffffffffffffff19831681179093556040519116919082907f8be0079c531659141344cd1fd0a4f28419497f9722a3daafe3b4186f6b6457e090600090a35050565b60008381526101996020526040902054156128ac5760405162461bcd60e51b815260206004820152601860248201527f416c72656164792070726f706f73616c20637265617465640000000000000000604482015260640161098d565b604080516101408101825284815260208082019485528183019384526000606083018181526080840182815260a0850183815260c086018481524360e088019081526101008089018781526101208a018881528e8952610199909952998720985189559a516001898101919091559951600289015593516003880155915160048701555160058601555160068501555160078401559251600890920180549151151590950261ff00199215159290921661ffff19909116171790925561019b805491820181559091527f24aeb2cd7b2cf328da485c24efd7197e86108b05bbc525c1db80c96ffdf7e1290155565b600081815261019960205260408120805483148015611249575060020154421192915050565b600054610100900460ff16612a2b5760405162461bcd60e51b815260206004820152602b60248201527f496e697469616c697a61626c653a20636f6e7472616374206973206e6f74206960448201526a6e697469616c697a696e6760a81b606482015260840161098d565b612a33612eca565b612a3b612f45565b612a43612fc8565b612a4b61303b565b612a536130b6565b600161019155565b60606000612a6a8360026138c5565b612a75906002613783565b67ffffffffffffffff811115612a8d57612a8d613470565b6040519080825280601f01601f191660200182016040528015612ab7576020820181803683370190505b5090507f300000000000000000000000000000000000000000000000000000000000000081600081518110612aee57612aee61379b565b60200101907effffffffffffffffffffffffffffffffffffffffffffffffffffffffffffff1916908160001a9053507f780000000000000000000000000000000000000000000000000000000000000081600181518110612b5157612b5161379b565b60200101907effffffffffffffffffffffffffffffffffffffffffffffffffffffffffffff1916908160001a9053506000612b8d8460026138c5565b612b98906001613783565b90505b6001811115612c35577f303132333435363738396162636465660000000000000000000000000000000085600f1660108110612bd957612bd961379b565b1a60f81b828281518110612bef57612bef61379b565b60200101907effffffffffffffffffffffffffffffffffffffffffffffffffffffffffffff1916908160001a90535060049490941c93612c2e816138e4565b9050612b9b565b5083156112495760405162461bcd60e51b815260206004820181905260248201527f537472696e67733a20686578206c656e67746820696e73756666696369656e74604482015260640161098d565b803b612cf85760405162461bcd60e51b815260206004820152602d60248201527f455243313936373a206e657720696d706c656d656e746174696f6e206973206e60448201527f6f74206120636f6e747261637400000000000000000000000000000000000000606482015260840161098d565b7f360894a13ba1a3210667c828492db98dca3e2076cc3735a920a3ca505d382bbc805473ffffffffffffffffffffffffffffffffffffffff19166001600160a01b0392909216919091179055565b6060823b612dbc5760405162461bcd60e51b815260206004820152602660248201527f416464726573733a2064656c65676174652063616c6c20746f206e6f6e2d636f60448201527f6e74726163740000000000000000000000000000000000000000000000000000606482015260840161098d565b600080846001600160a01b031684604051612dd791906138fb565b600060405180830381855af49150503d8060008114612e12576040519150601f19603f3d011682016040523d82523d6000602084013e612e17565b606091505b5091509150612e3f828260405180606001604052806027815260200161391860279139613121565b95945050505050565b612e5181612c84565b6040516001600160a01b038216907fbc7cd75a20ee27fd9adebab32041f755214dbc6bffa90cc0225b39da2e5c2d3b90600090a250565b600081600101544210158015612ea15750816002015442105b8015612eb757506008820154610100900460ff16155b801561093f5750506008015460ff161590565b600054610100900460ff16612f355760405162461bcd60e51b815260206004820152602b60248201527f496e697469616c697a61626c653a20636f6e7472616374206973206e6f74206960448201526a6e697469616c697a696e6760a81b606482015260840161098d565b612f3d61315a565b6112b46131c5565b600054610100900460ff16612fb05760405162461bcd60e51b815260206004820152602b60248201527f496e697469616c697a61626c653a20636f6e7472616374206973206e6f74206960448201526a6e697469616c697a696e6760a81b606482015260840161098d565b612fb861315a565b612fc061315a565b6112b461315a565b600054610100900460ff166130335760405162461bcd60e51b815260206004820152602b60248201527f496e697469616c697a61626c653a20636f6e7472616374206973206e6f74206960448201526a6e697469616c697a696e6760a81b606482015260840161098d565b6112b4613239565b600054610100900460ff166130a65760405162461bcd60e51b815260206004820152602b60248201527f496e697469616c697a61626c653a20636f6e7472616374206973206e6f74206960448201526a6e697469616c697a696e6760a81b606482015260840161098d565b6130ae61315a565b6112b46132ab565b600054610100900460ff16612fb85760405162461bcd60e51b815260206004820152602b60248201527f496e697469616c697a61626c653a20636f6e7472616374206973206e6f74206960448201526a6e697469616c697a696e6760a81b606482015260840161098d565b60608315613130575081611249565b8251156131405782518084602001fd5b8160405162461bcd60e51b815260040161098d9190613879565b600054610100900460ff166112b45760405162461bcd60e51b815260206004820152602b60248201527f496e697469616c697a61626c653a20636f6e7472616374206973206e6f74206960448201526a6e697469616c697a696e6760a81b606482015260840161098d565b600054610100900460ff166132305760405162461bcd60e51b815260206004820152602b60248201527f496e697469616c697a61626c653a20636f6e7472616374206973206e6f74206960448201526a6e697469616c697a696e6760a81b606482015260840161098d565b6112b4336127f0565b600054610100900460ff166132a45760405162461bcd60e51b815260206004820152602b60248201527f496e697469616c697a61626c653a20636f6e7472616374206973206e6f74206960448201526a6e697469616c697a696e6760a81b606482015260840161098d565b600160c955565b600054610100900460ff166133165760405162461bcd60e51b815260206004820152602b60248201527f496e697469616c697a61626c653a20636f6e7472616374206973206e6f74206960448201526a6e697469616c697a696e6760a81b606482015260840161098d565b60fb805460ff19169055565b60006020828403121561333457600080fd5b5035919050565b60006020828403121561334d57600080fd5b81357fffffffff000000000000000000000000000000000000000000000000000000008116811461124957600080fd5b80356001600160a01b038116811461339457600080fd5b919050565b600080604083850312156133ac57600080fd5b823591506133bc6020840161337d565b90509250929050565b6000602082840312156133d757600080fd5b6112498261337d565b634e487b7160e01b600052602160045260246000fd5b602081016006831061340a5761340a6133e0565b91905290565b8035801515811461339457600080fd5b60006020828403121561343257600080fd5b61124982613410565b60008060006060848603121561345057600080fd5b833592506134606020850161337d565b9150604084013590509250925092565b634e487b7160e01b600052604160045260246000fd5b6000806040838503121561349957600080fd5b6134a28361337d565b9150602083013567ffffffffffffffff808211156134bf57600080fd5b818501915085601f8301126134d357600080fd5b8135818111156134e5576134e5613470565b604051601f8201601f19908116603f0116810190838211818310171561350d5761350d613470565b8160405282815288602084870101111561352657600080fd5b8260208601602083013760006020848301015280955050505050509250929050565b60008060006060848603121561355d57600080fd5b505081359360208301359350604090920135919050565b6000806040838503121561358757600080fd5b50508035926020909101359150565b602080825282518282018190526000919060409081850190868401855b828110156136305781518051855286810151878601528581015186860152606080820151908601526080808201519086015260a0808201519086015260c0808201519086015260e08082015190860152610100808201511515908601526101209081015115159085015261014090930192908501906001016135b3565b5091979650505050505050565b602081016003831061340a5761340a6133e0565b600081518084526020808501945080840160005b8381101561368157815187529582019590820190600101613665565b509495945050505050565b606080825284519082018190526000906020906080840190828801845b828110156136ce5781516001600160a01b0316845292840192908401906001016136a9565b505050838103828501526136e28187613651565b91505082810360408401526136f78185613651565b9695505050505050565b600080600080600060a0868803121561371957600080fd5b6137228661337d565b94506137306020870161337d565b93506040860135925061374560608701613410565b949793965091946080013592915050565b634e487b7160e01b600052601160045260246000fd5b60008282101561377e5761377e613756565b500390565b6000821982111561379657613796613756565b500190565b634e487b7160e01b600052603260045260246000fd5b60006000198214156137c5576137c5613756565b5060010190565b60005b838110156137e75781810151838201526020016137cf565b838111156110ac5750506000910152565b7f416363657373436f6e74726f6c3a206163636f756e74200000000000000000008152600083516138308160178501602088016137cc565b7f206973206d697373696e6720726f6c6520000000000000000000000000000000601791840191820152835161386d8160288401602088016137cc565b01602801949350505050565b60208152600082518060208401526138988160408501602087016137cc565b601f01601f19169190910160400192915050565b6000602082840312156138be57600080fd5b5051919050565b60008160001904831182151516156138df576138df613756565b500290565b6000816138f3576138f3613756565b506000190190565b6000825161390d8184602087016137cc565b919091019291505056fe416464726573733a206c6f772d6c6576656c2064656c65676174652063616c6c206661696c6564a264697066735822122056495823c0ce7efb859f426ba99b9c4b481fb1ee61c6b761c4181b06b75aeb9364736f6c634300080b0033",
  "linkReferences": {},
  "deployedLinkReferences": {}
}