{
  "_format": "hh-sol-artifact-1",
  "contractName": "PolyZDAOChef",
  "sourceName": "contracts/polygon/PolyZDAOChef.sol",
  "abi": [
    {
      "anonymous": false,
      "inputs": [
        {
          "indexed": false,
          "internalType": "address",
          "name": "previousAdmin",
          "type": "address"
        },
        {
          "indexed": false,
          "internalType": "address",
          "name": "newAdmin",
          "type": "address"
        }
      ],
      "name": "AdminChanged",
      "type": "event"
    },
    {
      "anonymous": false,
      "inputs": [
        {
          "indexed": true,
          "internalType": "address",
          "name": "beacon",
          "type": "address"
        }
      ],
      "name": "BeaconUpgraded",
      "type": "event"
    },
    {
      "anonymous": false,
      "inputs": [
        {
          "indexed": true,
          "internalType": "uint256",
          "name": "_zDAOId",
          "type": "uint256"
        },
        {
          "indexed": true,
          "internalType": "uint256",
          "name": "_proposalId",
          "type": "uint256"
        },
        {
          "indexed": true,
          "internalType": "address",
          "name": "_voter",
          "type": "address"
        },
        {
          "indexed": false,
          "internalType": "uint256",
          "name": "_choice",
          "type": "uint256"
        }
      ],
      "name": "CastVote",
      "type": "event"
    },
    {
      "anonymous": false,
      "inputs": [
        {
          "indexed": true,
          "internalType": "address",
          "name": "_zDAO",
          "type": "address"
        },
        {
          "indexed": true,
          "internalType": "uint256",
          "name": "_daoId",
          "type": "uint256"
        },
        {
          "indexed": false,
          "internalType": "uint256",
          "name": "_duration",
          "type": "uint256"
        }
      ],
      "name": "DAOCreated",
      "type": "event"
    },
    {
      "anonymous": false,
      "inputs": [
        {
          "indexed": true,
          "internalType": "uint256",
          "name": "_daoId",
          "type": "uint256"
        }
      ],
      "name": "DAODestroyed",
      "type": "event"
    },
    {
      "anonymous": false,
      "inputs": [
        {
          "indexed": true,
          "internalType": "address",
          "name": "previousOwner",
          "type": "address"
        },
        {
          "indexed": true,
          "internalType": "address",
          "name": "newOwner",
          "type": "address"
        }
      ],
      "name": "OwnershipTransferred",
      "type": "event"
    },
    {
      "anonymous": false,
      "inputs": [
        {
          "indexed": false,
          "internalType": "address",
          "name": "account",
          "type": "address"
        }
      ],
      "name": "Paused",
      "type": "event"
    },
    {
      "anonymous": false,
      "inputs": [
        {
          "indexed": true,
          "internalType": "uint256",
          "name": "_zDAOId",
          "type": "uint256"
        },
        {
          "indexed": true,
          "internalType": "uint256",
          "name": "_proposalId",
          "type": "uint256"
        }
      ],
      "name": "ProposalCanceled",
      "type": "event"
    },
    {
      "anonymous": false,
      "inputs": [
        {
          "indexed": true,
          "internalType": "uint256",
          "name": "_zDAOId",
          "type": "uint256"
        },
        {
          "indexed": true,
          "internalType": "uint256",
          "name": "_proposalId",
          "type": "uint256"
        },
        {
          "indexed": false,
          "internalType": "uint256",
          "name": "_voters",
          "type": "uint256"
        },
        {
          "indexed": false,
          "internalType": "uint256",
          "name": "_yes",
          "type": "uint256"
        },
        {
          "indexed": false,
          "internalType": "uint256",
          "name": "_no",
          "type": "uint256"
        }
      ],
      "name": "ProposalCollected",
      "type": "event"
    },
    {
      "anonymous": false,
      "inputs": [
        {
          "indexed": true,
          "internalType": "uint256",
          "name": "_zDAOId",
          "type": "uint256"
        },
        {
          "indexed": true,
          "internalType": "uint256",
          "name": "_proposalId",
          "type": "uint256"
        },
        {
          "indexed": false,
          "internalType": "uint256",
          "name": "_startTimestamp",
          "type": "uint256"
        }
      ],
      "name": "ProposalCreated",
      "type": "event"
    },
    {
      "anonymous": false,
      "inputs": [
        {
          "indexed": true,
          "internalType": "uint256",
          "name": "_zDAOId",
          "type": "uint256"
        },
        {
          "indexed": true,
          "internalType": "uint256",
          "name": "_proposalId",
          "type": "uint256"
        }
      ],
      "name": "ProposalExecuted",
      "type": "event"
    },
    {
      "anonymous": false,
      "inputs": [
        {
          "indexed": true,
          "internalType": "bytes32",
          "name": "role",
          "type": "bytes32"
        },
        {
          "indexed": true,
          "internalType": "bytes32",
          "name": "previousAdminRole",
          "type": "bytes32"
        },
        {
          "indexed": true,
          "internalType": "bytes32",
          "name": "newAdminRole",
          "type": "bytes32"
        }
      ],
      "name": "RoleAdminChanged",
      "type": "event"
    },
    {
      "anonymous": false,
      "inputs": [
        {
          "indexed": true,
          "internalType": "bytes32",
          "name": "role",
          "type": "bytes32"
        },
        {
          "indexed": true,
          "internalType": "address",
          "name": "account",
          "type": "address"
        },
        {
          "indexed": true,
          "internalType": "address",
          "name": "sender",
          "type": "address"
        }
      ],
      "name": "RoleGranted",
      "type": "event"
    },
    {
      "anonymous": false,
      "inputs": [
        {
          "indexed": true,
          "internalType": "bytes32",
          "name": "role",
          "type": "bytes32"
        },
        {
          "indexed": true,
          "internalType": "address",
          "name": "account",
          "type": "address"
        },
        {
          "indexed": true,
          "internalType": "address",
          "name": "sender",
          "type": "address"
        }
      ],
      "name": "RoleRevoked",
      "type": "event"
    },
    {
      "anonymous": false,
      "inputs": [
        {
          "indexed": false,
          "internalType": "address",
          "name": "account",
          "type": "address"
        }
      ],
      "name": "Unpaused",
      "type": "event"
    },
    {
      "anonymous": false,
      "inputs": [
        {
          "indexed": true,
          "internalType": "address",
          "name": "implementation",
          "type": "address"
        }
      ],
      "name": "Upgraded",
      "type": "event"
    },
    {
      "inputs": [],
      "name": "DEFAULT_ADMIN_ROLE",
      "outputs": [
        {
          "internalType": "bytes32",
          "name": "",
          "type": "bytes32"
        }
      ],
      "stateMutability": "view",
      "type": "function"
    },
    {
      "inputs": [
        {
          "internalType": "contract Staking",
          "name": "_stakingBase",
          "type": "address"
        },
        {
          "internalType": "contract IChildStateSender",
          "name": "_childStateSender",
          "type": "address"
        },
        {
          "internalType": "address",
          "name": "_zDAOBase",
          "type": "address"
        }
      ],
      "name": "__ZDAOChef_init",
      "outputs": [],
      "stateMutability": "nonpayable",
      "type": "function"
    },
    {
      "inputs": [],
      "name": "childStateSender",
      "outputs": [
        {
          "internalType": "contract IChildStateSender",
          "name": "",
          "type": "address"
        }
      ],
      "stateMutability": "view",
      "type": "function"
    },
    {
      "inputs": [
        {
          "internalType": "uint256",
          "name": "_daoId",
          "type": "uint256"
        },
        {
          "internalType": "uint256",
          "name": "_proposalId",
          "type": "uint256"
        }
      ],
      "name": "collectProposal",
      "outputs": [],
      "stateMutability": "nonpayable",
      "type": "function"
    },
    {
      "inputs": [
        {
          "internalType": "bytes32",
          "name": "role",
          "type": "bytes32"
        }
      ],
      "name": "getRoleAdmin",
      "outputs": [
        {
          "internalType": "bytes32",
          "name": "",
          "type": "bytes32"
        }
      ],
      "stateMutability": "view",
      "type": "function"
    },
    {
      "inputs": [
        {
          "internalType": "uint256",
          "name": "_daoId",
          "type": "uint256"
        }
      ],
      "name": "getzDAOById",
      "outputs": [
        {
          "internalType": "contract IPolyZDAO",
          "name": "",
          "type": "address"
        }
      ],
      "stateMutability": "view",
      "type": "function"
    },
    {
      "inputs": [
        {
          "internalType": "bytes32",
          "name": "role",
          "type": "bytes32"
        },
        {
          "internalType": "address",
          "name": "account",
          "type": "address"
        }
      ],
      "name": "grantRole",
      "outputs": [],
      "stateMutability": "nonpayable",
      "type": "function"
    },
    {
      "inputs": [
        {
          "internalType": "bytes32",
          "name": "role",
          "type": "bytes32"
        },
        {
          "internalType": "address",
          "name": "account",
          "type": "address"
        }
      ],
      "name": "hasRole",
      "outputs": [
        {
          "internalType": "bool",
          "name": "",
          "type": "bool"
        }
      ],
      "stateMutability": "view",
      "type": "function"
    },
    {
      "inputs": [
        {
          "internalType": "uint256",
          "name": "_startIndex",
          "type": "uint256"
        },
        {
          "internalType": "uint256",
          "name": "_count",
          "type": "uint256"
        }
      ],
      "name": "listzDAOs",
      "outputs": [
        {
          "internalType": "contract IPolyZDAO[]",
          "name": "records",
          "type": "address[]"
        }
      ],
      "stateMutability": "view",
      "type": "function"
    },
    {
      "inputs": [],
      "name": "numberOfzDAOs",
      "outputs": [
        {
          "internalType": "uint256",
          "name": "",
          "type": "uint256"
        }
      ],
      "stateMutability": "view",
      "type": "function"
    },
    {
      "inputs": [],
      "name": "owner",
      "outputs": [
        {
          "internalType": "address",
          "name": "",
          "type": "address"
        }
      ],
      "stateMutability": "view",
      "type": "function"
    },
    {
      "inputs": [],
      "name": "paused",
      "outputs": [
        {
          "internalType": "bool",
          "name": "",
          "type": "bool"
        }
      ],
      "stateMutability": "view",
      "type": "function"
    },
    {
      "inputs": [
        {
          "internalType": "bytes",
          "name": "_message",
          "type": "bytes"
        }
      ],
      "name": "processMessageFromRoot",
      "outputs": [],
      "stateMutability": "nonpayable",
      "type": "function"
    },
    {
      "inputs": [],
      "name": "renounceOwnership",
      "outputs": [],
      "stateMutability": "nonpayable",
      "type": "function"
    },
    {
      "inputs": [
        {
          "internalType": "bytes32",
          "name": "role",
          "type": "bytes32"
        },
        {
          "internalType": "address",
          "name": "account",
          "type": "address"
        }
      ],
      "name": "renounceRole",
      "outputs": [],
      "stateMutability": "nonpayable",
      "type": "function"
    },
    {
      "inputs": [
        {
          "internalType": "bytes32",
          "name": "role",
          "type": "bytes32"
        },
        {
          "internalType": "address",
          "name": "account",
          "type": "address"
        }
      ],
      "name": "revokeRole",
      "outputs": [],
      "stateMutability": "nonpayable",
      "type": "function"
    },
    {
      "inputs": [
        {
          "internalType": "contract Staking",
          "name": "_staking",
          "type": "address"
        }
      ],
      "name": "setStaking",
      "outputs": [],
      "stateMutability": "nonpayable",
      "type": "function"
    },
    {
      "inputs": [
        {
          "internalType": "address",
          "name": "_zDAOBase",
          "type": "address"
        }
      ],
      "name": "setZDAOBase",
      "outputs": [],
      "stateMutability": "nonpayable",
      "type": "function"
    },
    {
      "inputs": [],
      "name": "staking",
      "outputs": [
        {
          "internalType": "contract Staking",
          "name": "",
          "type": "address"
        }
      ],
      "stateMutability": "view",
      "type": "function"
    },
    {
      "inputs": [
        {
          "internalType": "bytes4",
          "name": "interfaceId",
          "type": "bytes4"
        }
      ],
      "name": "supportsInterface",
      "outputs": [
        {
          "internalType": "bool",
          "name": "",
          "type": "bool"
        }
      ],
      "stateMutability": "view",
      "type": "function"
    },
    {
      "inputs": [
        {
          "internalType": "address",
          "name": "newOwner",
          "type": "address"
        }
      ],
      "name": "transferOwnership",
      "outputs": [],
      "stateMutability": "nonpayable",
      "type": "function"
    },
    {
      "inputs": [
        {
          "internalType": "address",
          "name": "newImplementation",
          "type": "address"
        }
      ],
      "name": "upgradeTo",
      "outputs": [],
      "stateMutability": "nonpayable",
      "type": "function"
    },
    {
      "inputs": [
        {
          "internalType": "address",
          "name": "newImplementation",
          "type": "address"
        },
        {
          "internalType": "bytes",
          "name": "data",
          "type": "bytes"
        }
      ],
      "name": "upgradeToAndCall",
      "outputs": [],
      "stateMutability": "payable",
      "type": "function"
    },
    {
      "inputs": [],
      "name": "version",
      "outputs": [
        {
          "internalType": "uint256",
          "name": "",
          "type": "uint256"
        }
      ],
      "stateMutability": "view",
      "type": "function"
    },
    {
      "inputs": [
        {
          "internalType": "uint256",
          "name": "_daoId",
          "type": "uint256"
        },
        {
          "internalType": "uint256",
          "name": "_proposalId",
          "type": "uint256"
        },
        {
          "internalType": "uint256",
          "name": "_choice",
          "type": "uint256"
        }
      ],
      "name": "vote",
      "outputs": [],
      "stateMutability": "nonpayable",
      "type": "function"
    },
    {
      "inputs": [],
      "name": "zDAOBase",
      "outputs": [
        {
          "internalType": "address",
          "name": "",
          "type": "address"
        }
      ],
      "stateMutability": "view",
      "type": "function"
    },
    {
      "inputs": [
        {
          "internalType": "uint256",
          "name": "",
          "type": "uint256"
        }
      ],
      "name": "zDAOIds",
      "outputs": [
        {
          "internalType": "uint256",
          "name": "",
          "type": "uint256"
        }
      ],
      "stateMutability": "view",
      "type": "function"
    },
    {
      "inputs": [
        {
          "internalType": "uint256",
          "name": "",
          "type": "uint256"
        }
      ],
      "name": "zDAOs",
      "outputs": [
        {
          "internalType": "contract IPolyZDAO",
          "name": "",
          "type": "address"
        }
      ],
      "stateMutability": "view",
      "type": "function"
    }
  ],
  "bytecode": "0x60a06040523060805234801561001457600080fd5b50608051613bf7610045600039600081816107aa01528181610842015281816109740152610a0c0152613bf76000f3fe608060405260043610620001db5760003560e01c80638da5cb5b11620000ff578063ba636eef1162000095578063d547741f116200006c578063d547741f14620005b0578063f2fde38b14620005d5578063f81880df14620005fa578063fe0ed211146200061d57600080fd5b8063ba636eef1462000538578063c67cdd011462000550578063cc10889b146200058b57600080fd5b8063946b22e211620000d6578063946b22e214620004a5578063a217fddf14620004d9578063a98bab8a14620004f0578063b74a2c89146200051557600080fd5b80638da5cb5b14620004165780638ff39099146200043657806391d14854146200045b57600080fd5b80634cf088d911620001755780635c975abb116200014c5780635c975abb146200039a578063715018a614620003b457806383b35d5814620003cc5780638a6655d614620003f157600080fd5b80634cf088d914620003475780634f1ef286146200036a57806354fd4d50146200038157600080fd5b80633628e9f711620001b65780633628e9f7146200028457806336568abe14620002d85780633659cfe614620002fd5780633fc0d115146200032257600080fd5b806301ffc9a714620001e0578063248a9ca3146200021a5780632f2ff15d146200025d575b600080fd5b348015620001ed57600080fd5b5062000205620001ff36600462002dbf565b62000642565b60405190151581526020015b60405180910390f35b3480156200022757600080fd5b506200024e6200023936600462002e03565b60009081526097602052604090206001015490565b60405190815260200162000211565b3480156200026a57600080fd5b50620002826200027c36600462002e33565b620006dc565b005b3480156200029157600080fd5b50620002bf620002a336600462002e03565b610195602052600090815260409020546001600160a01b031681565b6040516001600160a01b03909116815260200162000211565b348015620002e557600080fd5b5062000282620002f736600462002e33565b6200070b565b3480156200030a57600080fd5b50620002826200031c36600462002e66565b6200079f565b3480156200032f57600080fd5b506200024e6200034136600462002e03565b62000946565b3480156200035457600080fd5b5061019254620002bf906001600160a01b031681565b620002826200037b36600462002e9c565b62000969565b3480156200038e57600080fd5b506200024e6101915481565b348015620003a757600080fd5b5060fb5460ff1662000205565b348015620003c157600080fd5b506200028262000afd565b348015620003d957600080fd5b5062000282620003eb36600462002f6c565b62000b67565b348015620003fe57600080fd5b50620002826200041036600462002fe3565b62000c05565b3480156200042357600080fd5b506033546001600160a01b0316620002bf565b3480156200044357600080fd5b50620002826200045536600462002e66565b62000def565b3480156200046857600080fd5b50620002056200047a36600462002e33565b60009182526097602090815260408084206001600160a01b0393909316845291905290205460ff1690565b348015620004b257600080fd5b50620004ca620004c436600462003010565b62000e7b565b60405162000211919062003033565b348015620004e657600080fd5b506200024e600081565b348015620004fd57600080fd5b50620002826200050f36600462003082565b62000f9e565b3480156200052257600080fd5b5061019454620002bf906001600160a01b031681565b3480156200054557600080fd5b50610196546200024e565b3480156200055d57600080fd5b50620002bf6200056f36600462002e03565b600090815261019560205260409020546001600160a01b031690565b3480156200059857600080fd5b5062000282620005aa36600462003010565b62001100565b348015620005bd57600080fd5b5062000282620005cf36600462002e33565b620013a0565b348015620005e257600080fd5b5062000282620005f436600462002e66565b620013ca565b3480156200060757600080fd5b5061019354620002bf906001600160a01b031681565b3480156200062a57600080fd5b50620002826200063c36600462002e66565b620014af565b60007fffffffff0000000000000000000000000000000000000000000000000000000082167f7965db0b000000000000000000000000000000000000000000000000000000001480620006d657507f01ffc9a7000000000000000000000000000000000000000000000000000000007fffffffff000000000000000000000000000000000000000000000000000000008316145b92915050565b600082815260976020526040902060010154620006fa81336200153b565b620007068383620015c4565b505050565b6001600160a01b03811633146200078f5760405162461bcd60e51b815260206004820152602f60248201527f416363657373436f6e74726f6c3a2063616e206f6e6c792072656e6f756e636560448201527f20726f6c657320666f722073656c66000000000000000000000000000000000060648201526084015b60405180910390fd5b6200079b828262001668565b5050565b306001600160a01b037f0000000000000000000000000000000000000000000000000000000000000000161415620008405760405162461bcd60e51b815260206004820152602c60248201527f46756e6374696f6e206d7573742062652063616c6c6564207468726f7567682060448201527f64656c656761746563616c6c0000000000000000000000000000000000000000606482015260840162000786565b7f00000000000000000000000000000000000000000000000000000000000000006001600160a01b03166200089c7f360894a13ba1a3210667c828492db98dca3e2076cc3735a920a3ca505d382bbc546001600160a01b031690565b6001600160a01b0316146200091a5760405162461bcd60e51b815260206004820152602c60248201527f46756e6374696f6e206d7573742062652063616c6c6564207468726f7567682060448201527f6163746976652070726f78790000000000000000000000000000000000000000606482015260840162000786565b6200092581620016ec565b60408051600080825260208201909252620009439183919062001748565b50565b61019681815481106200095857600080fd5b600091825260209091200154905081565b306001600160a01b037f000000000000000000000000000000000000000000000000000000000000000016141562000a0a5760405162461bcd60e51b815260206004820152602c60248201527f46756e6374696f6e206d7573742062652063616c6c6564207468726f7567682060448201527f64656c656761746563616c6c0000000000000000000000000000000000000000606482015260840162000786565b7f00000000000000000000000000000000000000000000000000000000000000006001600160a01b031662000a667f360894a13ba1a3210667c828492db98dca3e2076cc3735a920a3ca505d382bbc546001600160a01b031690565b6001600160a01b03161462000ae45760405162461bcd60e51b815260206004820152602c60248201527f46756e6374696f6e206d7573742062652063616c6c6564207468726f7567682060448201527f6163746976652070726f78790000000000000000000000000000000000000000606482015260840162000786565b62000aef82620016ec565b6200079b8282600162001748565b6033546001600160a01b0316331462000b595760405162461bcd60e51b815260206004820181905260248201527f4f776e61626c653a2063616c6c6572206973206e6f7420746865206f776e6572604482015260640162000786565b62000b6560006200191a565b565b610193546001600160a01b0316331462000bc45760405162461bcd60e51b815260206004820152601260248201527f4e6f7420612073746174652073656e6465720000000000000000000000000000604482015260640162000786565b6200079b82828080601f0160208091040260200160405190810160405280939291908181526020018383808284376000920191909152506200197992505050565b6000838152610195602052604090205483906001600160a01b03161580159062000cc15750600081815261019560209081526040918290205482517f359cbbc900000000000000000000000000000000000000000000000000000000815292516001600160a01b039091169263359cbbc99260048083019391928290030181865afa15801562000c99573d6000803e3d6000fd5b505050506040513d601f19601f8201168201806040525081019062000cbf9190620030d4565b155b62000d0f5760405162461bcd60e51b815260206004820152600c60248201527f496e76616c6964207a44414f0000000000000000000000000000000000000000604482015260640162000786565b60008481526101956020526040908190205490517f4de8737c00000000000000000000000000000000000000000000000000000000815260048101859052336024820152604481018490526001600160a01b0390911690634de8737c90606401600060405180830381600087803b15801562000d8a57600080fd5b505af115801562000d9f573d6000803e3d6000fd5b50505050336001600160a01b031683857f94ecd3a313f078703294eda94e7e660df70e5926334b9b92da34ab5e21f24fe18560405162000de191815260200190565b60405180910390a450505050565b6033546001600160a01b0316331462000e4b5760405162461bcd60e51b815260206004820181905260248201527f4f776e61626c653a2063616c6c6572206973206e6f7420746865206f776e6572604482015260640162000786565b610192805473ffffffffffffffffffffffffffffffffffffffff19166001600160a01b0392909216919091179055565b61019654606090829062000e919085906200310e565b81111562000ead576101965462000eaa9085906200310e565b90505b8067ffffffffffffffff81111562000ec95762000ec962002e86565b60405190808252806020026020018201604052801562000ef3578160200160208202803683370190505b50915060005b8181101562000f9657610195600061019662000f16848962003128565b8154811062000f295762000f2962003143565b9060005260206000200154815260200190815260200160002060009054906101000a90046001600160a01b031683828151811062000f6b5762000f6b62003143565b6001600160a01b039092166020928302919091019091015262000f8e8162003159565b905062000ef9565b505092915050565b600054610100900460ff1662000fbb5760005460ff161562000fbf565b303b155b620010335760405162461bcd60e51b815260206004820152602e60248201527f496e697469616c697a61626c653a20636f6e747261637420697320616c72656160448201527f647920696e697469616c697a6564000000000000000000000000000000000000606482015260840162000786565b600054610100900460ff161580156200107357600080547fffffffffffffffffffffffffffffffffffffffffffffffffffffffffffff0000166101011790555b6200107d620019fc565b61019280546001600160a01b0380871673ffffffffffffffffffffffffffffffffffffffff199283161790925561019380548684169083161790556101948054928516929091169190911790558015620010fa57600080547fffffffffffffffffffffffffffffffffffffffffffffffffffffffffffff00ff1690555b50505050565b6000828152610195602052604090205482906001600160a01b031615801590620011bc5750600081815261019560209081526040918290205482517f359cbbc900000000000000000000000000000000000000000000000000000000815292516001600160a01b039091169263359cbbc99260048083019391928290030181865afa15801562001194573d6000803e3d6000fd5b505050506040513d601f19601f82011682018060405250810190620011ba9190620030d4565b155b6200120a5760405162461bcd60e51b815260206004820152600c60248201527f496e76616c6964207a44414f0000000000000000000000000000000000000000604482015260640162000786565b600083815261019560205260408082205490517f890cb1f300000000000000000000000000000000000000000000000000000000815260048101859052829182916001600160a01b039091169063890cb1f3906024016060604051808303816000875af115801562001280573d6000803e3d6000fd5b505050506040513d601f19601f82011682018060405250810190620012a6919062003177565b60408051848152602081018490529081018290529295509093509150859087907f453fcfa6f72f89b17a857f2b4bb96ba21f2a6d6c7c8a175b6df638e8fa92763d9060600160405180910390a3610193546001600160a01b0316639a113ee260066040805160208101929092528101899052606081018890526080810186905260a0810185905260c0810184905260e0016040516020818303038152906040526040518263ffffffff1660e01b815260040162001364919062003203565b600060405180830381600087803b1580156200137f57600080fd5b505af115801562001394573d6000803e3d6000fd5b50505050505050505050565b600082815260976020526040902060010154620013be81336200153b565b62000706838362001668565b6033546001600160a01b03163314620014265760405162461bcd60e51b815260206004820181905260248201527f4f776e61626c653a2063616c6c6572206973206e6f7420746865206f776e6572604482015260640162000786565b6001600160a01b038116620014a45760405162461bcd60e51b815260206004820152602660248201527f4f776e61626c653a206e6577206f776e657220697320746865207a65726f206160448201527f6464726573730000000000000000000000000000000000000000000000000000606482015260840162000786565b62000943816200191a565b6033546001600160a01b031633146200150b5760405162461bcd60e51b815260206004820181905260248201527f4f776e61626c653a2063616c6c6572206973206e6f7420746865206f776e6572604482015260640162000786565b610194805473ffffffffffffffffffffffffffffffffffffffff19166001600160a01b0392909216919091179055565b60008281526097602090815260408083206001600160a01b038516845290915290205460ff166200079b576200157c816001600160a01b0316601462001aa3565b6200158983602062001aa3565b6040516020016200159c92919062003218565b60408051601f198184030181529082905262461bcd60e51b8252620007869160040162003203565b60008281526097602090815260408083206001600160a01b038516845290915290205460ff166200079b5760008281526097602090815260408083206001600160a01b03851684529091529020805460ff19166001179055620016243390565b6001600160a01b0316816001600160a01b0316837f2f8788117e7eff1d82e926ec794901d17c78024a50270940304540a733656f0d60405160405180910390a45050565b60008281526097602090815260408083206001600160a01b038516845290915290205460ff16156200079b5760008281526097602090815260408083206001600160a01b0385168085529252808320805460ff1916905551339285917ff6391f5c32d9c69d2a47ea670b442974b53935d1edc7fd64eb21e047a839171b9190a45050565b6033546001600160a01b03163314620009435760405162461bcd60e51b815260206004820181905260248201527f4f776e61626c653a2063616c6c6572206973206e6f7420746865206f776e6572604482015260640162000786565b60006200177c7f360894a13ba1a3210667c828492db98dca3e2076cc3735a920a3ca505d382bbc546001600160a01b031690565b9050620017898462001cf1565b600083511180620017975750815b15620017ab57620017a9848462001db5565b505b7f4910fdfa16fed3260ed0e7147f7cc6da11a60208b5b9406d12a635614ffd9143805460ff166200191357805460ff191660011781556040516001600160a01b03831660248201526200185b90869060440160408051601f198184030181529190526020810180517bffffffffffffffffffffffffffffffffffffffffffffffffffffffff167f3659cfe60000000000000000000000000000000000000000000000000000000017905262001db5565b50805460ff191681557f360894a13ba1a3210667c828492db98dca3e2076cc3735a920a3ca505d382bbc546001600160a01b03838116911614620019085760405162461bcd60e51b815260206004820152602f60248201527f45524331393637557067726164653a207570677261646520627265616b73206660448201527f7572746865722075706772616465730000000000000000000000000000000000606482015260840162000786565b620019138562001ec0565b5050505050565b603380546001600160a01b0383811673ffffffffffffffffffffffffffffffffffffffff19831681179093556040519116919082907f8be0079c531659141344cd1fd0a4f28419497f9722a3daafe3b4186f6b6457e090600090a35050565b6000818060200190518101906200199191906200329d565b90506001811415620019a857620007068262001f02565b6002811415620019bd576200079b82620020d5565b6003811415620019d2576200079b8262002278565b6004811415620019e7576200079b826200249d565b60058114156200079b576200079b82620026ad565b600054610100900460ff1662001a695760405162461bcd60e51b815260206004820152602b60248201527f496e697469616c697a61626c653a20636f6e7472616374206973206e6f74206960448201526a6e697469616c697a696e6760a81b606482015260840162000786565b62001a73620028bd565b62001a7d6200293e565b62001a87620029c9565b62001a9162002a40565b62001a9b62002ac1565b600161019155565b6060600062001ab4836002620032b7565b62001ac190600262003128565b67ffffffffffffffff81111562001adc5762001adc62002e86565b6040519080825280601f01601f19166020018201604052801562001b07576020820181803683370190505b5090507f30000000000000000000000000000000000000000000000000000000000000008160008151811062001b415762001b4162003143565b60200101907effffffffffffffffffffffffffffffffffffffffffffffffffffffffffffff1916908160001a9053507f78000000000000000000000000000000000000000000000000000000000000008160018151811062001ba75762001ba762003143565b60200101907effffffffffffffffffffffffffffffffffffffffffffffffffffffffffffff1916908160001a905350600062001be5846002620032b7565b62001bf290600162003128565b90505b600181111562001c99577f303132333435363738396162636465660000000000000000000000000000000085600f166010811062001c375762001c3762003143565b1a60f81b82828151811062001c505762001c5062003143565b60200101907effffffffffffffffffffffffffffffffffffffffffffffffffffffffffffff1916908160001a90535060049490941c9362001c9181620032d9565b905062001bf5565b50831562001cea5760405162461bcd60e51b815260206004820181905260248201527f537472696e67733a20686578206c656e67746820696e73756666696369656e74604482015260640162000786565b9392505050565b803b62001d675760405162461bcd60e51b815260206004820152602d60248201527f455243313936373a206e657720696d706c656d656e746174696f6e206973206e60448201527f6f74206120636f6e747261637400000000000000000000000000000000000000606482015260840162000786565b7f360894a13ba1a3210667c828492db98dca3e2076cc3735a920a3ca505d382bbc805473ffffffffffffffffffffffffffffffffffffffff19166001600160a01b0392909216919091179055565b6060823b62001e2d5760405162461bcd60e51b815260206004820152602660248201527f416464726573733a2064656c65676174652063616c6c20746f206e6f6e2d636f60448201527f6e74726163740000000000000000000000000000000000000000000000000000606482015260840162000786565b600080846001600160a01b03168460405162001e4a9190620032f3565b600060405180830381855af49150503d806000811462001e87576040519150601f19603f3d011682016040523d82523d6000602084013e62001e8c565b606091505b509150915062001eb7828260405180606001604052806027815260200162003b9b6027913962002b2e565b95945050505050565b62001ecb8162001cf1565b6040516001600160a01b038216907fbc7cd75a20ee27fd9adebab32041f755214dbc6bffa90cc0225b39da2e5c2d3b90600090a250565b6000806000808480602001905181019062001f1e919062003177565b6000828152610195602052604090205492955090935091506001600160a01b03161562001f8e5760405162461bcd60e51b815260206004820152601860248201527f7a44414f2077617320616c726561647920637265617465640000000000000000604482015260640162000786565b6101945461019254604080513060248201526001600160a01b0392831660448201526064810186905260848082018690528251808303909101815260a49091019091526020810180517bffffffffffffffffffffffffffffffffffffffffffffffffffffffff167f730b7b17000000000000000000000000000000000000000000000000000000001790526000926200202992169062002b6c565b600084815261019560209081526040808320805473ffffffffffffffffffffffffffffffffffffffff19166001600160a01b038616908117909155610196805460018101825594527f828feda00a4b64eb35101b6df8f6c29717b1ea6bae5dd03d3ddada8de0a9e7cb9093018790555185815292935085927f55ae7d977c54f7ef6855e5c3eeb3ba02e0ea9733775176712ab87eae15b477b3910160405180910390a395945050505050565b60008082806020019051810190620020ee919062003311565b60008181526101956020908152604091829020548251631519361360e01b8152925194965092945084936001600160a01b039093169263151936139260048082019392918290030181865afa1580156200214c573d6000803e3d6000fd5b505050506040513d601f19601f820116820180604052508101906200217291906200329d565b14620021c15760405162461bcd60e51b815260206004820152600c60248201527f496e76616c6964207a44414f0000000000000000000000000000000000000000604482015260640162000786565b60008181526101956020526040908190205490517f472858b4000000000000000000000000000000000000000000000000000000008152600160048201526001600160a01b039091169063472858b490602401600060405180830381600087803b1580156200222f57600080fd5b505af115801562002244573d6000803e3d6000fd5b50506040518392507f62d16daa2b15fec62c2624e8279f21d75a1e6d3f8dd790378d3129985765cb4a9150600090a2505050565b60008060008380602001905181019062002293919062003177565b6000828152610195602052604090205492955090935091506001600160a01b0316620023025760405162461bcd60e51b815260206004820152601460248201527f4e6f742063726561746564207a44414f20796574000000000000000000000000604482015260640162000786565b60008281526101956020908152604091829020548251631519361360e01b8152925185936001600160a01b0390921692631519361392600480820193918290030181865afa15801562002359573d6000803e3d6000fd5b505050506040513d601f19601f820116820180604052508101906200237f91906200329d565b14620023ce5760405162461bcd60e51b815260206004820152601460248201527f53796e63207a44414f20696e666f206572726f72000000000000000000000000604482015260640162000786565b60008281526101956020526040908190205490517f6935bda6000000000000000000000000000000000000000000000000000000008152600481018390524260248201526001600160a01b0390911690636935bda690604401600060405180830381600087803b1580156200244257600080fd5b505af115801562002457573d6000803e3d6000fd5b5050505080827fa6a21b90631faacde52b977eb6e15e5707522fbbba8eddef55ed173ffde48efa426040516200248f91815260200190565b60405180910390a350505050565b600080600083806020019051810190620024b8919062003177565b6000828152610195602052604090205492955090935091506001600160a01b0316620025275760405162461bcd60e51b815260206004820152601460248201527f4e6f742063726561746564207a44414f20796574000000000000000000000000604482015260640162000786565b60008281526101956020908152604091829020548251631519361360e01b8152925185936001600160a01b0390921692631519361392600480820193918290030181865afa1580156200257e573d6000803e3d6000fd5b505050506040513d601f19601f82011682018060405250810190620025a491906200329d565b14620025f35760405162461bcd60e51b815260206004820152601460248201527f53796e63207a44414f20696e666f206572726f72000000000000000000000000604482015260640162000786565b60008281526101956020526040908190205490517fe0a8f6f5000000000000000000000000000000000000000000000000000000008152600481018390526001600160a01b039091169063e0a8f6f590602401600060405180830381600087803b1580156200266157600080fd5b505af115801562002676573d6000803e3d6000fd5b50506040518392508491507f740823f5b237fe3c86a5ff1cd7a2345263cab48eaddc595c9bbb35d86c6cc42190600090a350505050565b600080600083806020019051810190620026c8919062003177565b6000828152610195602052604090205492955090935091506001600160a01b0316620027375760405162461bcd60e51b815260206004820152601460248201527f4e6f742063726561746564207a44414f20796574000000000000000000000000604482015260640162000786565b60008281526101956020908152604091829020548251631519361360e01b8152925185936001600160a01b0390921692631519361392600480820193918290030181865afa1580156200278e573d6000803e3d6000fd5b505050506040513d601f19601f82011682018060405250810190620027b491906200329d565b14620028035760405162461bcd60e51b815260206004820152601460248201527f53796e63207a44414f20696e666f206572726f72000000000000000000000000604482015260640162000786565b60008281526101956020526040908190205490517f0d61b519000000000000000000000000000000000000000000000000000000008152600481018390526001600160a01b0390911690630d61b51990602401600060405180830381600087803b1580156200287157600080fd5b505af115801562002886573d6000803e3d6000fd5b50506040518392508491507ff758fc91e01b00ea6b4a6138756f7f28e021f9bf21db6dbf8c36c88eb737257a90600090a350505050565b600054610100900460ff166200292a5760405162461bcd60e51b815260206004820152602b60248201527f496e697469616c697a61626c653a20636f6e7472616374206973206e6f74206960448201526a6e697469616c697a696e6760a81b606482015260840162000786565b6200293462002bdf565b62000b6562002c4c565b600054610100900460ff16620029ab5760405162461bcd60e51b815260206004820152602b60248201527f496e697469616c697a61626c653a20636f6e7472616374206973206e6f74206960448201526a6e697469616c697a696e6760a81b606482015260840162000786565b620029b562002bdf565b620029bf62002bdf565b62000b6562002bdf565b600054610100900460ff1662002a365760405162461bcd60e51b815260206004820152602b60248201527f496e697469616c697a61626c653a20636f6e7472616374206973206e6f74206960448201526a6e697469616c697a696e6760a81b606482015260840162000786565b62000b6562002cc4565b600054610100900460ff1662002aad5760405162461bcd60e51b815260206004820152602b60248201527f496e697469616c697a61626c653a20636f6e7472616374206973206e6f74206960448201526a6e697469616c697a696e6760a81b606482015260840162000786565b62002ab762002bdf565b62000b6562002d38565b600054610100900460ff16620029b55760405162461bcd60e51b815260206004820152602b60248201527f496e697469616c697a61626c653a20636f6e7472616374206973206e6f74206960448201526a6e697469616c697a696e6760a81b606482015260840162000786565b6060831562002b3f57508162001cea565b82511562002b505782518084602001fd5b8160405162461bcd60e51b815260040162000786919062003203565b6000438260405160200162002b8392919062003336565b60405160208183030381529060405280519060200120838360405162002ba99062002db1565b62002bb69291906200335e565b8190604051809103906000f590508015801562002bd7573d6000803e3d6000fd5b509392505050565b600054610100900460ff1662000b655760405162461bcd60e51b815260206004820152602b60248201527f496e697469616c697a61626c653a20636f6e7472616374206973206e6f74206960448201526a6e697469616c697a696e6760a81b606482015260840162000786565b600054610100900460ff1662002cb95760405162461bcd60e51b815260206004820152602b60248201527f496e697469616c697a61626c653a20636f6e7472616374206973206e6f74206960448201526a6e697469616c697a696e6760a81b606482015260840162000786565b62000b65336200191a565b600054610100900460ff1662002d315760405162461bcd60e51b815260206004820152602b60248201527f496e697469616c697a61626c653a20636f6e7472616374206973206e6f74206960448201526a6e697469616c697a696e6760a81b606482015260840162000786565b600160c955565b600054610100900460ff1662002da55760405162461bcd60e51b815260206004820152602b60248201527f496e697469616c697a61626c653a20636f6e7472616374206973206e6f74206960448201526a6e697469616c697a696e6760a81b606482015260840162000786565b60fb805460ff19169055565b610810806200338b83390190565b60006020828403121562002dd257600080fd5b81357fffffffff000000000000000000000000000000000000000000000000000000008116811462001cea57600080fd5b60006020828403121562002e1657600080fd5b5035919050565b6001600160a01b03811681146200094357600080fd5b6000806040838503121562002e4757600080fd5b82359150602083013562002e5b8162002e1d565b809150509250929050565b60006020828403121562002e7957600080fd5b813562001cea8162002e1d565b634e487b7160e01b600052604160045260246000fd5b6000806040838503121562002eb057600080fd5b823562002ebd8162002e1d565b9150602083013567ffffffffffffffff8082111562002edb57600080fd5b818501915085601f83011262002ef057600080fd5b81358181111562002f055762002f0562002e86565b604051601f8201601f19908116603f0116810190838211818310171562002f305762002f3062002e86565b8160405282815288602084870101111562002f4a57600080fd5b8260208601602083013760006020848301015280955050505050509250929050565b6000806020838503121562002f8057600080fd5b823567ffffffffffffffff8082111562002f9957600080fd5b818501915085601f83011262002fae57600080fd5b81358181111562002fbe57600080fd5b86602082850101111562002fd157600080fd5b60209290920196919550909350505050565b60008060006060848603121562002ff957600080fd5b505081359360208301359350604090920135919050565b600080604083850312156200302457600080fd5b50508035926020909101359150565b6020808252825182820181905260009190848201906040850190845b81811015620030765783516001600160a01b0316835292840192918401916001016200304f565b50909695505050505050565b6000806000606084860312156200309857600080fd5b8335620030a58162002e1d565b92506020840135620030b78162002e1d565b91506040840135620030c98162002e1d565b809150509250925092565b600060208284031215620030e757600080fd5b8151801515811462001cea57600080fd5b634e487b7160e01b600052601160045260246000fd5b600082821015620031235762003123620030f8565b500390565b600082198211156200313e576200313e620030f8565b500190565b634e487b7160e01b600052603260045260246000fd5b6000600019821415620031705762003170620030f8565b5060010190565b6000806000606084860312156200318d57600080fd5b8351925060208401519150604084015190509250925092565b60005b83811015620031c3578181015183820152602001620031a9565b83811115620010fa5750506000910152565b60008151808452620031ef816020860160208601620031a6565b601f01601f19169290920160200192915050565b60208152600062001cea6020830184620031d5565b7f416363657373436f6e74726f6c3a206163636f756e742000000000000000000081526000835162003252816017850160208801620031a6565b7f206973206d697373696e6720726f6c6520000000000000000000000000000000601791840191820152835162003291816028840160208801620031a6565b01602801949350505050565b600060208284031215620032b057600080fd5b5051919050565b6000816000190483118215151615620032d457620032d4620030f8565b500290565b600081620032eb57620032eb620030f8565b506000190190565b6000825162003307818460208701620031a6565b9190910192915050565b600080604083850312156200332557600080fd5b505080516020909101519092909150565b8281526000825162003350816020850160208701620031a6565b919091016020019392505050565b6001600160a01b0383168152604060208201526000620033826040830184620031d5565b94935050505056fe608060405260405161081038038061081083398101604081905261002291610337565b61004d60017f360894a13ba1a3210667c828492db98dca3e2076cc3735a920a3ca505d382bbd610405565b6000805160206107c9833981519152146100695761006961042a565b6100758282600061007c565b505061048f565b610085836100b2565b6000825111806100925750805b156100ad576100ab83836100f260201b6100291760201c565b505b505050565b6100bb8161011e565b6040516001600160a01b038216907fbc7cd75a20ee27fd9adebab32041f755214dbc6bffa90cc0225b39da2e5c2d3b90600090a250565b606061011783836040518060600160405280602781526020016107e9602791396101de565b9392505050565b610131816102b360201b6100551760201c565b6101985760405162461bcd60e51b815260206004820152602d60248201527f455243313936373a206e657720696d706c656d656e746174696f6e206973206e60448201526c1bdd08184818dbdb9d1c9858dd609a1b60648201526084015b60405180910390fd5b806101bd6000805160206107c983398151915260001b6102b960201b61005b1760201c565b80546001600160a01b0319166001600160a01b039290921691909117905550565b6060833b61023d5760405162461bcd60e51b815260206004820152602660248201527f416464726573733a2064656c65676174652063616c6c20746f206e6f6e2d636f6044820152651b9d1c9858dd60d21b606482015260840161018f565b600080856001600160a01b0316856040516102589190610440565b600060405180830381855af49150503d8060008114610293576040519150601f19603f3d011682016040523d82523d6000602084013e610298565b606091505b5090925090506102a98282866102bc565b9695505050505050565b3b151590565b90565b606083156102cb575081610117565b8251156102db5782518084602001fd5b8160405162461bcd60e51b815260040161018f919061045c565b634e487b7160e01b600052604160045260246000fd5b60005b8381101561032657818101518382015260200161030e565b838111156100ab5750506000910152565b6000806040838503121561034a57600080fd5b82516001600160a01b038116811461036157600080fd5b60208401519092506001600160401b038082111561037e57600080fd5b818501915085601f83011261039257600080fd5b8151818111156103a4576103a46102f5565b604051601f8201601f19908116603f011681019083821181831017156103cc576103cc6102f5565b816040528281528860208487010111156103e557600080fd5b6103f683602083016020880161030b565b80955050505050509250929050565b60008282101561042557634e487b7160e01b600052601160045260246000fd5b500390565b634e487b7160e01b600052600160045260246000fd5b6000825161045281846020870161030b565b9190910192915050565b602081526000825180602084015261047b81604085016020870161030b565b601f01601f19169190910160400192915050565b61032b8061049e6000396000f3fe60806040523661001357610011610017565b005b6100115b61002761002261005e565b6100a3565b565b606061004e83836040518060600160405280602781526020016102cf602791396100c7565b9392505050565b3b151590565b90565b600061009e7f360894a13ba1a3210667c828492db98dca3e2076cc3735a920a3ca505d382bbc5473ffffffffffffffffffffffffffffffffffffffff1690565b905090565b3660008037600080366000845af43d6000803e8080156100c2573d6000f35b3d6000fd5b6060833b61015c576040517f08c379a000000000000000000000000000000000000000000000000000000000815260206004820152602660248201527f416464726573733a2064656c65676174652063616c6c20746f206e6f6e2d636f60448201527f6e7472616374000000000000000000000000000000000000000000000000000060648201526084015b60405180910390fd5b6000808573ffffffffffffffffffffffffffffffffffffffff16856040516101849190610261565b600060405180830381855af49150503d80600081146101bf576040519150601f19603f3d011682016040523d82523d6000602084013e6101c4565b606091505b50915091506101d48282866101de565b9695505050505050565b606083156101ed57508161004e565b8251156101fd5782518084602001fd5b816040517f08c379a0000000000000000000000000000000000000000000000000000000008152600401610153919061027d565b60005b8381101561024c578181015183820152602001610234565b8381111561025b576000848401525b50505050565b60008251610273818460208701610231565b9190910192915050565b602081526000825180602084015261029c816040850160208701610231565b601f017fffffffffffffffffffffffffffffffffffffffffffffffffffffffffffffffe016919091016040019291505056fe416464726573733a206c6f772d6c6576656c2064656c65676174652063616c6c206661696c6564a26469706673582212205d8cf11d25035ee7e8de4d55415591edecec71b825efdb63cab90b96322ff76364736f6c634300080b0033360894a13ba1a3210667c828492db98dca3e2076cc3735a920a3ca505d382bbc416464726573733a206c6f772d6c6576656c2064656c65676174652063616c6c206661696c6564416464726573733a206c6f772d6c6576656c2064656c65676174652063616c6c206661696c6564a2646970667358221220946acfb9fd58d3f4e5c63eecc4ca0827039d48f3806ec10af4122edb67b82ddb64736f6c634300080b0033",
  "linkReferences": {},
  "deployedLinkReferences": {}
}