{
  "_format": "hh-sol-artifact-1",
  "contractName": "PolyZDAOChef",
  "sourceName": "contracts/polygon/PolyZDAOChef.sol",
  "abi": [
    {
      "anonymous": false,
      "inputs": [
        {
          "indexed": false,
          "internalType": "address",
          "name": "previousAdmin",
          "type": "address"
        },
        {
          "indexed": false,
          "internalType": "address",
          "name": "newAdmin",
          "type": "address"
        }
      ],
      "name": "AdminChanged",
      "type": "event"
    },
    {
      "anonymous": false,
      "inputs": [
        {
          "indexed": true,
          "internalType": "address",
          "name": "beacon",
          "type": "address"
        }
      ],
      "name": "BeaconUpgraded",
      "type": "event"
    },
    {
      "anonymous": false,
      "inputs": [
        {
          "indexed": true,
          "internalType": "uint256",
          "name": "_zDAOId",
          "type": "uint256"
        },
        {
          "indexed": true,
          "internalType": "uint256",
          "name": "_proposalId",
          "type": "uint256"
        },
        {
          "indexed": true,
          "internalType": "address",
          "name": "_voter",
          "type": "address"
        },
        {
          "indexed": false,
          "internalType": "uint256",
          "name": "_choice",
          "type": "uint256"
        }
      ],
      "name": "CastVote",
      "type": "event"
    },
    {
      "anonymous": false,
      "inputs": [
        {
          "indexed": true,
          "internalType": "uint256",
          "name": "_zDAOId",
          "type": "uint256"
        },
        {
          "indexed": true,
          "internalType": "uint256",
          "name": "_proposalId",
          "type": "uint256"
        },
        {
          "indexed": true,
          "internalType": "bool",
          "name": "_isRelativeMajority",
          "type": "bool"
        },
        {
          "indexed": false,
          "internalType": "uint256",
          "name": "_yes",
          "type": "uint256"
        },
        {
          "indexed": false,
          "internalType": "uint256",
          "name": "_no",
          "type": "uint256"
        }
      ],
      "name": "CollectResult",
      "type": "event"
    },
    {
      "anonymous": false,
      "inputs": [
        {
          "indexed": true,
          "internalType": "address",
          "name": "_zDAO",
          "type": "address"
        },
        {
          "indexed": true,
          "internalType": "uint256",
          "name": "_daoId",
          "type": "uint256"
        },
        {
          "indexed": false,
          "internalType": "bool",
          "name": "_isRelativeMajority",
          "type": "bool"
        },
        {
          "indexed": false,
          "internalType": "uint256",
          "name": "_quorumVotes",
          "type": "uint256"
        }
      ],
      "name": "DAOCreated",
      "type": "event"
    },
    {
      "anonymous": false,
      "inputs": [
        {
          "indexed": true,
          "internalType": "uint256",
          "name": "_daoId",
          "type": "uint256"
        }
      ],
      "name": "DAODestroyed",
      "type": "event"
    },
    {
      "anonymous": false,
      "inputs": [
        {
          "indexed": true,
          "internalType": "address",
          "name": "previousOwner",
          "type": "address"
        },
        {
          "indexed": true,
          "internalType": "address",
          "name": "newOwner",
          "type": "address"
        }
      ],
      "name": "OwnershipTransferred",
      "type": "event"
    },
    {
      "anonymous": false,
      "inputs": [
        {
          "indexed": false,
          "internalType": "address",
          "name": "account",
          "type": "address"
        }
      ],
      "name": "Paused",
      "type": "event"
    },
    {
      "anonymous": false,
      "inputs": [
        {
          "indexed": true,
          "internalType": "uint256",
          "name": "_zDAOId",
          "type": "uint256"
        },
        {
          "indexed": true,
          "internalType": "uint256",
          "name": "_proposalId",
          "type": "uint256"
        }
      ],
      "name": "ProposalCanceled",
      "type": "event"
    },
    {
      "anonymous": false,
      "inputs": [
        {
          "indexed": true,
          "internalType": "uint256",
          "name": "_zDAOId",
          "type": "uint256"
        },
        {
          "indexed": true,
          "internalType": "uint256",
          "name": "_proposalId",
          "type": "uint256"
        },
        {
          "indexed": false,
          "internalType": "uint256",
          "name": "_startTimestamp",
          "type": "uint256"
        },
        {
          "indexed": false,
          "internalType": "uint256",
          "name": "_endTimestamp",
          "type": "uint256"
        }
      ],
      "name": "ProposalCreated",
      "type": "event"
    },
    {
      "anonymous": false,
      "inputs": [
        {
          "indexed": true,
          "internalType": "uint256",
          "name": "_zDAOId",
          "type": "uint256"
        },
        {
          "indexed": true,
          "internalType": "uint256",
          "name": "_proposalId",
          "type": "uint256"
        }
      ],
      "name": "ProposalExecuted",
      "type": "event"
    },
    {
      "anonymous": false,
      "inputs": [
        {
          "indexed": true,
          "internalType": "bytes32",
          "name": "role",
          "type": "bytes32"
        },
        {
          "indexed": true,
          "internalType": "bytes32",
          "name": "previousAdminRole",
          "type": "bytes32"
        },
        {
          "indexed": true,
          "internalType": "bytes32",
          "name": "newAdminRole",
          "type": "bytes32"
        }
      ],
      "name": "RoleAdminChanged",
      "type": "event"
    },
    {
      "anonymous": false,
      "inputs": [
        {
          "indexed": true,
          "internalType": "bytes32",
          "name": "role",
          "type": "bytes32"
        },
        {
          "indexed": true,
          "internalType": "address",
          "name": "account",
          "type": "address"
        },
        {
          "indexed": true,
          "internalType": "address",
          "name": "sender",
          "type": "address"
        }
      ],
      "name": "RoleGranted",
      "type": "event"
    },
    {
      "anonymous": false,
      "inputs": [
        {
          "indexed": true,
          "internalType": "bytes32",
          "name": "role",
          "type": "bytes32"
        },
        {
          "indexed": true,
          "internalType": "address",
          "name": "account",
          "type": "address"
        },
        {
          "indexed": true,
          "internalType": "address",
          "name": "sender",
          "type": "address"
        }
      ],
      "name": "RoleRevoked",
      "type": "event"
    },
    {
      "anonymous": false,
      "inputs": [
        {
          "indexed": false,
          "internalType": "address",
          "name": "account",
          "type": "address"
        }
      ],
      "name": "Unpaused",
      "type": "event"
    },
    {
      "anonymous": false,
      "inputs": [
        {
          "indexed": true,
          "internalType": "address",
          "name": "implementation",
          "type": "address"
        }
      ],
      "name": "Upgraded",
      "type": "event"
    },
    {
      "inputs": [],
      "name": "DEFAULT_ADMIN_ROLE",
      "outputs": [
        {
          "internalType": "bytes32",
          "name": "",
          "type": "bytes32"
        }
      ],
      "stateMutability": "view",
      "type": "function"
    },
    {
      "inputs": [
        {
          "internalType": "contract Staking",
          "name": "_stakingBase",
          "type": "address"
        },
        {
          "internalType": "contract IChildStateSender",
          "name": "_childStateSender",
          "type": "address"
        },
        {
          "internalType": "address",
          "name": "_zDAOBase",
          "type": "address"
        }
      ],
      "name": "__ZDAOChef_init",
      "outputs": [],
      "stateMutability": "nonpayable",
      "type": "function"
    },
    {
      "inputs": [],
      "name": "childStateSender",
      "outputs": [
        {
          "internalType": "contract IChildStateSender",
          "name": "",
          "type": "address"
        }
      ],
      "stateMutability": "view",
      "type": "function"
    },
    {
      "inputs": [
        {
          "internalType": "uint256",
          "name": "_daoId",
          "type": "uint256"
        },
        {
          "internalType": "uint256",
          "name": "_proposalId",
          "type": "uint256"
        }
      ],
      "name": "collectResult",
      "outputs": [],
      "stateMutability": "nonpayable",
      "type": "function"
    },
    {
      "inputs": [
        {
          "internalType": "bytes32",
          "name": "role",
          "type": "bytes32"
        }
      ],
      "name": "getRoleAdmin",
      "outputs": [
        {
          "internalType": "bytes32",
          "name": "",
          "type": "bytes32"
        }
      ],
      "stateMutability": "view",
      "type": "function"
    },
    {
      "inputs": [
        {
          "internalType": "uint256",
          "name": "_daoId",
          "type": "uint256"
        }
      ],
      "name": "getzDAOById",
      "outputs": [
        {
          "internalType": "contract IPolyZDAO",
          "name": "",
          "type": "address"
        }
      ],
      "stateMutability": "view",
      "type": "function"
    },
    {
      "inputs": [
        {
          "internalType": "bytes32",
          "name": "role",
          "type": "bytes32"
        },
        {
          "internalType": "address",
          "name": "account",
          "type": "address"
        }
      ],
      "name": "grantRole",
      "outputs": [],
      "stateMutability": "nonpayable",
      "type": "function"
    },
    {
      "inputs": [
        {
          "internalType": "bytes32",
          "name": "role",
          "type": "bytes32"
        },
        {
          "internalType": "address",
          "name": "account",
          "type": "address"
        }
      ],
      "name": "hasRole",
      "outputs": [
        {
          "internalType": "bool",
          "name": "",
          "type": "bool"
        }
      ],
      "stateMutability": "view",
      "type": "function"
    },
    {
      "inputs": [
        {
          "internalType": "uint256",
          "name": "_startIndex",
          "type": "uint256"
        },
        {
          "internalType": "uint256",
          "name": "_endIndex",
          "type": "uint256"
        }
      ],
      "name": "listzDAOs",
      "outputs": [
        {
          "internalType": "contract IPolyZDAO[]",
          "name": "",
          "type": "address[]"
        }
      ],
      "stateMutability": "view",
      "type": "function"
    },
    {
      "inputs": [],
      "name": "numberOfzDAOs",
      "outputs": [
        {
          "internalType": "uint256",
          "name": "",
          "type": "uint256"
        }
      ],
      "stateMutability": "view",
      "type": "function"
    },
    {
      "inputs": [],
      "name": "owner",
      "outputs": [
        {
          "internalType": "address",
          "name": "",
          "type": "address"
        }
      ],
      "stateMutability": "view",
      "type": "function"
    },
    {
      "inputs": [],
      "name": "paused",
      "outputs": [
        {
          "internalType": "bool",
          "name": "",
          "type": "bool"
        }
      ],
      "stateMutability": "view",
      "type": "function"
    },
    {
      "inputs": [
        {
          "internalType": "bytes",
          "name": "_message",
          "type": "bytes"
        }
      ],
      "name": "processMessageFromRoot",
      "outputs": [],
      "stateMutability": "nonpayable",
      "type": "function"
    },
    {
      "inputs": [],
      "name": "renounceOwnership",
      "outputs": [],
      "stateMutability": "nonpayable",
      "type": "function"
    },
    {
      "inputs": [
        {
          "internalType": "bytes32",
          "name": "role",
          "type": "bytes32"
        },
        {
          "internalType": "address",
          "name": "account",
          "type": "address"
        }
      ],
      "name": "renounceRole",
      "outputs": [],
      "stateMutability": "nonpayable",
      "type": "function"
    },
    {
      "inputs": [
        {
          "internalType": "bytes32",
          "name": "role",
          "type": "bytes32"
        },
        {
          "internalType": "address",
          "name": "account",
          "type": "address"
        }
      ],
      "name": "revokeRole",
      "outputs": [],
      "stateMutability": "nonpayable",
      "type": "function"
    },
    {
      "inputs": [
        {
          "internalType": "contract Staking",
          "name": "_staking",
          "type": "address"
        }
      ],
      "name": "setStaking",
      "outputs": [],
      "stateMutability": "nonpayable",
      "type": "function"
    },
    {
      "inputs": [
        {
          "internalType": "address",
          "name": "_zDAOBase",
          "type": "address"
        }
      ],
      "name": "setZDAOBase",
      "outputs": [],
      "stateMutability": "nonpayable",
      "type": "function"
    },
    {
      "inputs": [],
      "name": "staking",
      "outputs": [
        {
          "internalType": "contract Staking",
          "name": "",
          "type": "address"
        }
      ],
      "stateMutability": "view",
      "type": "function"
    },
    {
      "inputs": [
        {
          "internalType": "bytes4",
          "name": "interfaceId",
          "type": "bytes4"
        }
      ],
      "name": "supportsInterface",
      "outputs": [
        {
          "internalType": "bool",
          "name": "",
          "type": "bool"
        }
      ],
      "stateMutability": "view",
      "type": "function"
    },
    {
      "inputs": [
        {
          "internalType": "address",
          "name": "newOwner",
          "type": "address"
        }
      ],
      "name": "transferOwnership",
      "outputs": [],
      "stateMutability": "nonpayable",
      "type": "function"
    },
    {
      "inputs": [
        {
          "internalType": "address",
          "name": "newImplementation",
          "type": "address"
        }
      ],
      "name": "upgradeTo",
      "outputs": [],
      "stateMutability": "nonpayable",
      "type": "function"
    },
    {
      "inputs": [
        {
          "internalType": "address",
          "name": "newImplementation",
          "type": "address"
        },
        {
          "internalType": "bytes",
          "name": "data",
          "type": "bytes"
        }
      ],
      "name": "upgradeToAndCall",
      "outputs": [],
      "stateMutability": "payable",
      "type": "function"
    },
    {
      "inputs": [],
      "name": "version",
      "outputs": [
        {
          "internalType": "uint256",
          "name": "",
          "type": "uint256"
        }
      ],
      "stateMutability": "view",
      "type": "function"
    },
    {
      "inputs": [
        {
          "internalType": "uint256",
          "name": "_daoId",
          "type": "uint256"
        },
        {
          "internalType": "uint256",
          "name": "_proposalId",
          "type": "uint256"
        },
        {
          "internalType": "uint256",
          "name": "_choice",
          "type": "uint256"
        }
      ],
      "name": "vote",
      "outputs": [],
      "stateMutability": "nonpayable",
      "type": "function"
    },
    {
      "inputs": [],
      "name": "zDAOBase",
      "outputs": [
        {
          "internalType": "address",
          "name": "",
          "type": "address"
        }
      ],
      "stateMutability": "view",
      "type": "function"
    },
    {
      "inputs": [
        {
          "internalType": "uint256",
          "name": "",
          "type": "uint256"
        }
      ],
      "name": "zDAOIds",
      "outputs": [
        {
          "internalType": "uint256",
          "name": "",
          "type": "uint256"
        }
      ],
      "stateMutability": "view",
      "type": "function"
    },
    {
      "inputs": [
        {
          "internalType": "uint256",
          "name": "",
          "type": "uint256"
        }
      ],
      "name": "zDAOs",
      "outputs": [
        {
          "internalType": "contract IPolyZDAO",
          "name": "",
          "type": "address"
        }
      ],
      "stateMutability": "view",
      "type": "function"
    }
  ],
  "bytecode": "0x60a06040523060805234801561001457600080fd5b50608051613e4b610045600039600081816107aa01528181610842015281816109740152610a0c0152613e4b6000f3fe608060405260043610620001db5760003560e01c80638a6655d611620000ff578063b74a2c891162000095578063d547741f116200006c578063d547741f14620005b0578063f2fde38b14620005d5578063f81880df14620005fa578063fe0ed211146200061d57600080fd5b8063b74a2c89146200053a578063ba636eef146200055d578063c67cdd01146200057557600080fd5b806391d1485411620000d657806391d148541462000480578063946b22e214620004ca578063a217fddf14620004fe578063a98bab8a146200051557600080fd5b80638a6655d614620004165780638da5cb5b146200043b5780638ff39099146200045b57600080fd5b80634cf088d911620001755780635c975abb116200014c5780635c975abb146200039a5780636ab2d0d514620003b4578063715018a614620003d957806383b35d5814620003f157600080fd5b80634cf088d914620003475780634f1ef286146200036a57806354fd4d50146200038157600080fd5b80633628e9f711620001b65780633628e9f7146200028457806336568abe14620002d85780633659cfe614620002fd5780633fc0d115146200032257600080fd5b806301ffc9a714620001e0578063248a9ca3146200021a5780632f2ff15d146200025d575b600080fd5b348015620001ed57600080fd5b5062000205620001ff36600462002f33565b62000642565b60405190151581526020015b60405180910390f35b3480156200022757600080fd5b506200024e6200023936600462002f77565b60009081526097602052604090206001015490565b60405190815260200162000211565b3480156200026a57600080fd5b50620002826200027c36600462002fa7565b620006dc565b005b3480156200029157600080fd5b50620002bf620002a336600462002f77565b610195602052600090815260409020546001600160a01b031681565b6040516001600160a01b03909116815260200162000211565b348015620002e557600080fd5b5062000282620002f736600462002fa7565b6200070b565b3480156200030a57600080fd5b50620002826200031c36600462002fda565b6200079f565b3480156200032f57600080fd5b506200024e6200034136600462002f77565b62000946565b3480156200035457600080fd5b5061019254620002bf906001600160a01b031681565b620002826200037b36600462003010565b62000969565b3480156200038e57600080fd5b506200024e6101915481565b348015620003a757600080fd5b5060fb5460ff1662000205565b348015620003c157600080fd5b5062000282620003d3366004620030e0565b62000afd565b348015620003e657600080fd5b506200028262000d97565b348015620003fe57600080fd5b50620002826200041036600462003103565b62000e01565b3480156200042357600080fd5b5062000282620004353660046200317a565b62000e9f565b3480156200044857600080fd5b506033546001600160a01b0316620002bf565b3480156200046857600080fd5b50620002826200047a36600462002fda565b62001089565b3480156200048d57600080fd5b50620002056200049f36600462002fa7565b60009182526097602090815260408084206001600160a01b0393909316845291905290205460ff1690565b348015620004d757600080fd5b50620004ef620004e9366004620030e0565b62001115565b604051620002119190620031a7565b3480156200050b57600080fd5b506200024e600081565b3480156200052257600080fd5b506200028262000534366004620031f6565b62001384565b3480156200054757600080fd5b5061019454620002bf906001600160a01b031681565b3480156200056a57600080fd5b50610196546200024e565b3480156200058257600080fd5b50620002bf6200059436600462002f77565b600090815261019560205260409020546001600160a01b031690565b348015620005bd57600080fd5b5062000282620005cf36600462002fa7565b620014e6565b348015620005e257600080fd5b5062000282620005f436600462002fda565b62001510565b3480156200060757600080fd5b5061019354620002bf906001600160a01b031681565b3480156200062a57600080fd5b50620002826200063c36600462002fda565b620015f5565b60007fffffffff0000000000000000000000000000000000000000000000000000000082167f7965db0b000000000000000000000000000000000000000000000000000000001480620006d657507f01ffc9a7000000000000000000000000000000000000000000000000000000007fffffffff000000000000000000000000000000000000000000000000000000008316145b92915050565b600082815260976020526040902060010154620006fa813362001681565b6200070683836200170a565b505050565b6001600160a01b03811633146200078f5760405162461bcd60e51b815260206004820152602f60248201527f416363657373436f6e74726f6c3a2063616e206f6e6c792072656e6f756e636560448201527f20726f6c657320666f722073656c66000000000000000000000000000000000060648201526084015b60405180910390fd5b6200079b8282620017ae565b5050565b306001600160a01b037f0000000000000000000000000000000000000000000000000000000000000000161415620008405760405162461bcd60e51b815260206004820152602c60248201527f46756e6374696f6e206d7573742062652063616c6c6564207468726f7567682060448201527f64656c656761746563616c6c0000000000000000000000000000000000000000606482015260840162000786565b7f00000000000000000000000000000000000000000000000000000000000000006001600160a01b03166200089c7f360894a13ba1a3210667c828492db98dca3e2076cc3735a920a3ca505d382bbc546001600160a01b031690565b6001600160a01b0316146200091a5760405162461bcd60e51b815260206004820152602c60248201527f46756e6374696f6e206d7573742062652063616c6c6564207468726f7567682060448201527f6163746976652070726f78790000000000000000000000000000000000000000606482015260840162000786565b620009258162001832565b6040805160008082526020820190925262000943918391906200188e565b50565b61019681815481106200095857600080fd5b600091825260209091200154905081565b306001600160a01b037f000000000000000000000000000000000000000000000000000000000000000016141562000a0a5760405162461bcd60e51b815260206004820152602c60248201527f46756e6374696f6e206d7573742062652063616c6c6564207468726f7567682060448201527f64656c656761746563616c6c0000000000000000000000000000000000000000606482015260840162000786565b7f00000000000000000000000000000000000000000000000000000000000000006001600160a01b031662000a667f360894a13ba1a3210667c828492db98dca3e2076cc3735a920a3ca505d382bbc546001600160a01b031690565b6001600160a01b03161462000ae45760405162461bcd60e51b815260206004820152602c60248201527f46756e6374696f6e206d7573742062652063616c6c6564207468726f7567682060448201527f6163746976652070726f78790000000000000000000000000000000000000000606482015260840162000786565b62000aef8262001832565b6200079b828260016200188e565b6000828152610195602052604090205482906001600160a01b03161580159062000bb95750600081815261019560209081526040918290205482517f359cbbc900000000000000000000000000000000000000000000000000000000815292516001600160a01b039091169263359cbbc99260048083019391928290030181865afa15801562000b91573d6000803e3d6000fd5b505050506040513d601f19601f8201168201806040525081019062000bb791906200325e565b155b62000c075760405162461bcd60e51b815260206004820152600c60248201527f496e76616c6964207a44414f0000000000000000000000000000000000000000604482015260640162000786565b600083815261019560205260408082205490517f758167f700000000000000000000000000000000000000000000000000000000815260048101859052829182916001600160a01b039091169063758167f7906024016060604051808303816000875af115801562000c7d573d6000803e3d6000fd5b505050506040513d601f19601f8201168201806040525081019062000ca391906200327c565b92509250925082151585877f2d938ca66bba4aa922c4ba576690b5016c58651017f4f462508f54849d84042c858560405162000ce9929190918252602082015260400190565b60405180910390a4610193546001600160a01b0316639a113ee260066040805160208101929092528101899052606081018890526080810185905260a0810184905260c0016040516020818303038152906040526040518263ffffffff1660e01b815260040162000d5b919062003311565b600060405180830381600087803b15801562000d7657600080fd5b505af115801562000d8b573d6000803e3d6000fd5b50505050505050505050565b6033546001600160a01b0316331462000df35760405162461bcd60e51b815260206004820181905260248201527f4f776e61626c653a2063616c6c6572206973206e6f7420746865206f776e6572604482015260640162000786565b62000dff600062001a60565b565b610193546001600160a01b0316331462000e5e5760405162461bcd60e51b815260206004820152601260248201527f4e6f7420612073746174652073656e6465720000000000000000000000000000604482015260640162000786565b6200079b82828080601f01602080910402602001604051908101604052809392919081815260200183838082843760009201919091525062001abf92505050565b6000838152610195602052604090205483906001600160a01b03161580159062000f5b5750600081815261019560209081526040918290205482517f359cbbc900000000000000000000000000000000000000000000000000000000815292516001600160a01b039091169263359cbbc99260048083019391928290030181865afa15801562000f33573d6000803e3d6000fd5b505050506040513d601f19601f8201168201806040525081019062000f5991906200325e565b155b62000fa95760405162461bcd60e51b815260206004820152600c60248201527f496e76616c6964207a44414f0000000000000000000000000000000000000000604482015260640162000786565b60008481526101956020526040908190205490517f4de8737c00000000000000000000000000000000000000000000000000000000815260048101859052336024820152604481018490526001600160a01b0390911690634de8737c90606401600060405180830381600087803b1580156200102457600080fd5b505af115801562001039573d6000803e3d6000fd5b50505050336001600160a01b031683857f94ecd3a313f078703294eda94e7e660df70e5926334b9b92da34ab5e21f24fe1856040516200107b91815260200190565b60405180910390a450505050565b6033546001600160a01b03163314620010e55760405162461bcd60e51b815260206004820181905260248201527f4f776e61626c653a2063616c6c6572206973206e6f7420746865206f776e6572604482015260640162000786565b610192805473ffffffffffffffffffffffffffffffffffffffff19166001600160a01b0392909216919091179055565b606060008311620011695760405162461bcd60e51b815260206004820152601660248201527f73686f756c6420737461727420696e646578203e203000000000000000000000604482015260640162000786565b81831115620011bb5760405162461bcd60e51b815260206004820152601960248201527f73686f756c6420737461727420696e646578203c3d20656e6400000000000000604482015260640162000786565b61019654831115620012105760405162461bcd60e51b815260206004820152601c60248201527f73686f756c6420737461727420696e646578203c3d206c656e67746800000000604482015260640162000786565b61019654821115620012655760405162461bcd60e51b815260206004820152601a60248201527f73686f756c6420656e6420696e646578203c3d206c656e677468000000000000604482015260640162000786565b60006200127384846200333c565b6200128090600162003356565b905060008167ffffffffffffffff811115620012a057620012a062002ffa565b604051908082528060200260200182016040528015620012ca578160200160208202803683370190505b50905060005b828110156200137b5761019560006101966001620012ef858b62003356565b620012fb91906200333c565b815481106200130e576200130e62003371565b9060005260206000200154815260200190815260200160002060009054906101000a90046001600160a01b031682828151811062001350576200135062003371565b6001600160a01b0390921660209283029190910190910152620013738162003387565b9050620012d0565b50949350505050565b600054610100900460ff16620013a15760005460ff1615620013a5565b303b155b620014195760405162461bcd60e51b815260206004820152602e60248201527f496e697469616c697a61626c653a20636f6e747261637420697320616c72656160448201527f647920696e697469616c697a6564000000000000000000000000000000000000606482015260840162000786565b600054610100900460ff161580156200145957600080547fffffffffffffffffffffffffffffffffffffffffffffffffffffffffffff0000166101011790555b6200146362001b42565b61019280546001600160a01b0380871673ffffffffffffffffffffffffffffffffffffffff199283161790925561019380548684169083161790556101948054928516929091169190911790558015620014e057600080547fffffffffffffffffffffffffffffffffffffffffffffffffffffffffffff00ff1690555b50505050565b60008281526097602052604090206001015462001504813362001681565b620007068383620017ae565b6033546001600160a01b031633146200156c5760405162461bcd60e51b815260206004820181905260248201527f4f776e61626c653a2063616c6c6572206973206e6f7420746865206f776e6572604482015260640162000786565b6001600160a01b038116620015ea5760405162461bcd60e51b815260206004820152602660248201527f4f776e61626c653a206e6577206f776e657220697320746865207a65726f206160448201527f6464726573730000000000000000000000000000000000000000000000000000606482015260840162000786565b620009438162001a60565b6033546001600160a01b03163314620016515760405162461bcd60e51b815260206004820181905260248201527f4f776e61626c653a2063616c6c6572206973206e6f7420746865206f776e6572604482015260640162000786565b610194805473ffffffffffffffffffffffffffffffffffffffff19166001600160a01b0392909216919091179055565b60008281526097602090815260408083206001600160a01b038516845290915290205460ff166200079b57620016c2816001600160a01b0316601462001be9565b620016cf83602062001be9565b604051602001620016e2929190620033a5565b60408051601f198184030181529082905262461bcd60e51b8252620007869160040162003311565b60008281526097602090815260408083206001600160a01b038516845290915290205460ff166200079b5760008281526097602090815260408083206001600160a01b03851684529091529020805460ff191660011790556200176a3390565b6001600160a01b0316816001600160a01b0316837f2f8788117e7eff1d82e926ec794901d17c78024a50270940304540a733656f0d60405160405180910390a45050565b60008281526097602090815260408083206001600160a01b038516845290915290205460ff16156200079b5760008281526097602090815260408083206001600160a01b0385168085529252808320805460ff1916905551339285917ff6391f5c32d9c69d2a47ea670b442974b53935d1edc7fd64eb21e047a839171b9190a45050565b6033546001600160a01b03163314620009435760405162461bcd60e51b815260206004820181905260248201527f4f776e61626c653a2063616c6c6572206973206e6f7420746865206f776e6572604482015260640162000786565b6000620018c27f360894a13ba1a3210667c828492db98dca3e2076cc3735a920a3ca505d382bbc546001600160a01b031690565b9050620018cf8462001e37565b600083511180620018dd5750815b15620018f157620018ef848462001efb565b505b7f4910fdfa16fed3260ed0e7147f7cc6da11a60208b5b9406d12a635614ffd9143805460ff1662001a5957805460ff191660011781556040516001600160a01b0383166024820152620019a190869060440160408051601f198184030181529190526020810180517bffffffffffffffffffffffffffffffffffffffffffffffffffffffff167f3659cfe60000000000000000000000000000000000000000000000000000000017905262001efb565b50805460ff191681557f360894a13ba1a3210667c828492db98dca3e2076cc3735a920a3ca505d382bbc546001600160a01b0383811691161462001a4e5760405162461bcd60e51b815260206004820152602f60248201527f45524331393637557067726164653a207570677261646520627265616b73206660448201527f7572746865722075706772616465730000000000000000000000000000000000606482015260840162000786565b62001a598562002006565b5050505050565b603380546001600160a01b0383811673ffffffffffffffffffffffffffffffffffffffff19831681179093556040519116919082907f8be0079c531659141344cd1fd0a4f28419497f9722a3daafe3b4186f6b6457e090600090a35050565b60008180602001905181019062001ad791906200342a565b9050600181141562001aee57620007068262002048565b600281141562001b03576200079b8262002236565b600381141562001b18576200079b82620023d9565b600481141562001b2d576200079b8262002611565b60058114156200079b576200079b8262002821565b600054610100900460ff1662001baf5760405162461bcd60e51b815260206004820152602b60248201527f496e697469616c697a61626c653a20636f6e7472616374206973206e6f74206960448201526a6e697469616c697a696e6760a81b606482015260840162000786565b62001bb962002a31565b62001bc362002ab2565b62001bcd62002b3d565b62001bd762002bb4565b62001be162002c35565b600161019155565b6060600062001bfa83600262003444565b62001c0790600262003356565b67ffffffffffffffff81111562001c225762001c2262002ffa565b6040519080825280601f01601f19166020018201604052801562001c4d576020820181803683370190505b5090507f30000000000000000000000000000000000000000000000000000000000000008160008151811062001c875762001c8762003371565b60200101907effffffffffffffffffffffffffffffffffffffffffffffffffffffffffffff1916908160001a9053507f78000000000000000000000000000000000000000000000000000000000000008160018151811062001ced5762001ced62003371565b60200101907effffffffffffffffffffffffffffffffffffffffffffffffffffffffffffff1916908160001a905350600062001d2b84600262003444565b62001d3890600162003356565b90505b600181111562001ddf577f303132333435363738396162636465660000000000000000000000000000000085600f166010811062001d7d5762001d7d62003371565b1a60f81b82828151811062001d965762001d9662003371565b60200101907effffffffffffffffffffffffffffffffffffffffffffffffffffffffffffff1916908160001a90535060049490941c9362001dd78162003466565b905062001d3b565b50831562001e305760405162461bcd60e51b815260206004820181905260248201527f537472696e67733a20686578206c656e67746820696e73756666696369656e74604482015260640162000786565b9392505050565b803b62001ead5760405162461bcd60e51b815260206004820152602d60248201527f455243313936373a206e657720696d706c656d656e746174696f6e206973206e60448201527f6f74206120636f6e747261637400000000000000000000000000000000000000606482015260840162000786565b7f360894a13ba1a3210667c828492db98dca3e2076cc3735a920a3ca505d382bbc805473ffffffffffffffffffffffffffffffffffffffff19166001600160a01b0392909216919091179055565b6060823b62001f735760405162461bcd60e51b815260206004820152602660248201527f416464726573733a2064656c65676174652063616c6c20746f206e6f6e2d636f60448201527f6e74726163740000000000000000000000000000000000000000000000000000606482015260840162000786565b600080846001600160a01b03168460405162001f90919062003480565b600060405180830381855af49150503d806000811462001fcd576040519150601f19603f3d011682016040523d82523d6000602084013e62001fd2565b606091505b509150915062001ffd828260405180606001604052806027815260200162003def6027913962002ca2565b95945050505050565b620020118162001e37565b6040516001600160a01b038216907fbc7cd75a20ee27fd9adebab32041f755214dbc6bffa90cc0225b39da2e5c2d3b90600090a250565b600080600080600080868060200190518101906200206791906200349e565b60008481526101956020526040902054949950929750909550935091506001600160a01b031615620020dc5760405162461bcd60e51b815260206004820152601860248201527f7a44414f2077617320616c726561647920637265617465640000000000000000604482015260640162000786565b6101945461019254604080513060248201526001600160a01b03928316604482015260648101889052851515608482015260a48082018690528251808303909101815260c49091019091526020810180517bffffffffffffffffffffffffffffffffffffffffffffffffffffffff167ff37ea28a000000000000000000000000000000000000000000000000000000001790526000926200217f92169062002ce0565b600086815261019560209081526040808320805473ffffffffffffffffffffffffffffffffffffffff19166001600160a01b038616908117909155610196805460018101825594527f828feda00a4b64eb35101b6df8f6c29717b1ea6bae5dd03d3ddada8de0a9e7cb9093018990558051871515815291820186905292935087927f58b61fd4459f706d6dd9c30a4c6fca6984c4d1ca1587352ed860bfc655e073e2910160405180910390a3979650505050505050565b600080828060200190518101906200224f9190620034f5565b60008181526101956020908152604091829020548251631519361360e01b8152925194965092945084936001600160a01b039093169263151936139260048082019392918290030181865afa158015620022ad573d6000803e3d6000fd5b505050506040513d601f19601f82011682018060405250810190620022d391906200342a565b14620023225760405162461bcd60e51b815260206004820152600c60248201527f496e76616c6964207a44414f0000000000000000000000000000000000000000604482015260640162000786565b60008181526101956020526040908190205490517f472858b4000000000000000000000000000000000000000000000000000000008152600160048201526001600160a01b039091169063472858b490602401600060405180830381600087803b1580156200239057600080fd5b505af1158015620023a5573d6000803e3d6000fd5b50506040518392507f62d16daa2b15fec62c2624e8279f21d75a1e6d3f8dd790378d3129985765cb4a9150600090a2505050565b600080600080600085806020019051810190620023f791906200351a565b60008481526101956020526040902054949950929750909550935091506001600160a01b03166200246b5760405162461bcd60e51b815260206004820152601460248201527f4e6f742063726561746564207a44414f20796574000000000000000000000000604482015260640162000786565b60008481526101956020908152604091829020548251631519361360e01b8152925187936001600160a01b0390921692631519361392600480820193918290030181865afa158015620024c2573d6000803e3d6000fd5b505050506040513d601f19601f82011682018060405250810190620024e891906200342a565b14620025375760405162461bcd60e51b815260206004820152601460248201527f53796e63207a44414f20696e666f206572726f72000000000000000000000000604482015260640162000786565b60008481526101956020526040908190205490517f722c51760000000000000000000000000000000000000000000000000000000081526004810185905260248101849052604481018390526001600160a01b039091169063722c517690606401600060405180830381600087803b158015620025b357600080fd5b505af1158015620025c8573d6000803e3d6000fd5b505060408051858152602081018590528693508792507fafbd5d299242bf861d198949ad835672e2e35b2e1838cee606a0b5aec2b4fa42910160405180910390a3505050505050565b6000806000838060200190518101906200262c91906200355b565b6000828152610195602052604090205492955090935091506001600160a01b03166200269b5760405162461bcd60e51b815260206004820152601460248201527f4e6f742063726561746564207a44414f20796574000000000000000000000000604482015260640162000786565b60008281526101956020908152604091829020548251631519361360e01b8152925185936001600160a01b0390921692631519361392600480820193918290030181865afa158015620026f2573d6000803e3d6000fd5b505050506040513d601f19601f820116820180604052508101906200271891906200342a565b14620027675760405162461bcd60e51b815260206004820152601460248201527f53796e63207a44414f20696e666f206572726f72000000000000000000000000604482015260640162000786565b60008281526101956020526040908190205490517fe0a8f6f5000000000000000000000000000000000000000000000000000000008152600481018390526001600160a01b039091169063e0a8f6f590602401600060405180830381600087803b158015620027d557600080fd5b505af1158015620027ea573d6000803e3d6000fd5b50506040518392508491507f740823f5b237fe3c86a5ff1cd7a2345263cab48eaddc595c9bbb35d86c6cc42190600090a350505050565b6000806000838060200190518101906200283c91906200355b565b6000828152610195602052604090205492955090935091506001600160a01b0316620028ab5760405162461bcd60e51b815260206004820152601460248201527f4e6f742063726561746564207a44414f20796574000000000000000000000000604482015260640162000786565b60008281526101956020908152604091829020548251631519361360e01b8152925185936001600160a01b0390921692631519361392600480820193918290030181865afa15801562002902573d6000803e3d6000fd5b505050506040513d601f19601f820116820180604052508101906200292891906200342a565b14620029775760405162461bcd60e51b815260206004820152601460248201527f53796e63207a44414f20696e666f206572726f72000000000000000000000000604482015260640162000786565b60008281526101956020526040908190205490517f0d61b519000000000000000000000000000000000000000000000000000000008152600481018390526001600160a01b0390911690630d61b51990602401600060405180830381600087803b158015620029e557600080fd5b505af1158015620029fa573d6000803e3d6000fd5b50506040518392508491507ff758fc91e01b00ea6b4a6138756f7f28e021f9bf21db6dbf8c36c88eb737257a90600090a350505050565b600054610100900460ff1662002a9e5760405162461bcd60e51b815260206004820152602b60248201527f496e697469616c697a61626c653a20636f6e7472616374206973206e6f74206960448201526a6e697469616c697a696e6760a81b606482015260840162000786565b62002aa862002d53565b62000dff62002dc0565b600054610100900460ff1662002b1f5760405162461bcd60e51b815260206004820152602b60248201527f496e697469616c697a61626c653a20636f6e7472616374206973206e6f74206960448201526a6e697469616c697a696e6760a81b606482015260840162000786565b62002b2962002d53565b62002b3362002d53565b62000dff62002d53565b600054610100900460ff1662002baa5760405162461bcd60e51b815260206004820152602b60248201527f496e697469616c697a61626c653a20636f6e7472616374206973206e6f74206960448201526a6e697469616c697a696e6760a81b606482015260840162000786565b62000dff62002e38565b600054610100900460ff1662002c215760405162461bcd60e51b815260206004820152602b60248201527f496e697469616c697a61626c653a20636f6e7472616374206973206e6f74206960448201526a6e697469616c697a696e6760a81b606482015260840162000786565b62002c2b62002d53565b62000dff62002eac565b600054610100900460ff1662002b295760405162461bcd60e51b815260206004820152602b60248201527f496e697469616c697a61626c653a20636f6e7472616374206973206e6f74206960448201526a6e697469616c697a696e6760a81b606482015260840162000786565b6060831562002cb357508162001e30565b82511562002cc45782518084602001fd5b8160405162461bcd60e51b815260040162000786919062003311565b6000438260405160200162002cf79291906200358a565b60405160208183030381529060405280519060200120838360405162002d1d9062002f25565b62002d2a929190620035b2565b8190604051809103906000f590508015801562002d4b573d6000803e3d6000fd5b509392505050565b600054610100900460ff1662000dff5760405162461bcd60e51b815260206004820152602b60248201527f496e697469616c697a61626c653a20636f6e7472616374206973206e6f74206960448201526a6e697469616c697a696e6760a81b606482015260840162000786565b600054610100900460ff1662002e2d5760405162461bcd60e51b815260206004820152602b60248201527f496e697469616c697a61626c653a20636f6e7472616374206973206e6f74206960448201526a6e697469616c697a696e6760a81b606482015260840162000786565b62000dff3362001a60565b600054610100900460ff1662002ea55760405162461bcd60e51b815260206004820152602b60248201527f496e697469616c697a61626c653a20636f6e7472616374206973206e6f74206960448201526a6e697469616c697a696e6760a81b606482015260840162000786565b600160c955565b600054610100900460ff1662002f195760405162461bcd60e51b815260206004820152602b60248201527f496e697469616c697a61626c653a20636f6e7472616374206973206e6f74206960448201526a6e697469616c697a696e6760a81b606482015260840162000786565b60fb805460ff19169055565b61081080620035df83390190565b60006020828403121562002f4657600080fd5b81357fffffffff000000000000000000000000000000000000000000000000000000008116811462001e3057600080fd5b60006020828403121562002f8a57600080fd5b5035919050565b6001600160a01b03811681146200094357600080fd5b6000806040838503121562002fbb57600080fd5b82359150602083013562002fcf8162002f91565b809150509250929050565b60006020828403121562002fed57600080fd5b813562001e308162002f91565b634e487b7160e01b600052604160045260246000fd5b600080604083850312156200302457600080fd5b8235620030318162002f91565b9150602083013567ffffffffffffffff808211156200304f57600080fd5b818501915085601f8301126200306457600080fd5b81358181111562003079576200307962002ffa565b604051601f8201601f19908116603f01168101908382118183101715620030a457620030a462002ffa565b81604052828152886020848701011115620030be57600080fd5b8260208601602083013760006020848301015280955050505050509250929050565b60008060408385031215620030f457600080fd5b50508035926020909101359150565b600080602083850312156200311757600080fd5b823567ffffffffffffffff808211156200313057600080fd5b818501915085601f8301126200314557600080fd5b8135818111156200315557600080fd5b8660208285010111156200316857600080fd5b60209290920196919550909350505050565b6000806000606084860312156200319057600080fd5b505081359360208301359350604090920135919050565b6020808252825182820181905260009190848201906040850190845b81811015620031ea5783516001600160a01b031683529284019291840191600101620031c3565b50909695505050505050565b6000806000606084860312156200320c57600080fd5b8335620032198162002f91565b925060208401356200322b8162002f91565b915060408401356200323d8162002f91565b809150509250925092565b805180151581146200325957600080fd5b919050565b6000602082840312156200327157600080fd5b62001e308262003248565b6000806000606084860312156200329257600080fd5b6200329d8462003248565b925060208401519150604084015190509250925092565b60005b83811015620032d1578181015183820152602001620032b7565b83811115620014e05750506000910152565b60008151808452620032fd816020860160208601620032b4565b601f01601f19169290920160200192915050565b60208152600062001e306020830184620032e3565b634e487b7160e01b600052601160045260246000fd5b60008282101562003351576200335162003326565b500390565b600082198211156200336c576200336c62003326565b500190565b634e487b7160e01b600052603260045260246000fd5b60006000198214156200339e576200339e62003326565b5060010190565b7f416363657373436f6e74726f6c3a206163636f756e7420000000000000000000815260008351620033df816017850160208801620032b4565b7f206973206d697373696e6720726f6c652000000000000000000000000000000060179184019182015283516200341e816028840160208801620032b4565b01602801949350505050565b6000602082840312156200343d57600080fd5b5051919050565b600081600019048311821515161562003461576200346162003326565b500290565b60008162003478576200347862003326565b506000190190565b6000825162003494818460208701620032b4565b9190910192915050565b600080600080600060a08688031215620034b757600080fd5b85519450602086015193506040860151620034d28162002f91565b9250620034e26060870162003248565b9150608086015190509295509295909350565b600080604083850312156200350957600080fd5b505080516020909101519092909150565b600080600080600060a086880312156200353357600080fd5b5050835160208501516040860151606087015160809097015192989197509594509092509050565b6000806000606084860312156200357157600080fd5b8351925060208401519150604084015190509250925092565b82815260008251620035a4816020850160208701620032b4565b919091016020019392505050565b6001600160a01b0383168152604060208201526000620035d66040830184620032e3565b94935050505056fe608060405260405161081038038061081083398101604081905261002291610337565b61004d60017f360894a13ba1a3210667c828492db98dca3e2076cc3735a920a3ca505d382bbd610405565b6000805160206107c9833981519152146100695761006961042a565b6100758282600061007c565b505061048f565b610085836100b2565b6000825111806100925750805b156100ad576100ab83836100f260201b6100291760201c565b505b505050565b6100bb8161011e565b6040516001600160a01b038216907fbc7cd75a20ee27fd9adebab32041f755214dbc6bffa90cc0225b39da2e5c2d3b90600090a250565b606061011783836040518060600160405280602781526020016107e9602791396101de565b9392505050565b610131816102b360201b6100551760201c565b6101985760405162461bcd60e51b815260206004820152602d60248201527f455243313936373a206e657720696d706c656d656e746174696f6e206973206e60448201526c1bdd08184818dbdb9d1c9858dd609a1b60648201526084015b60405180910390fd5b806101bd6000805160206107c983398151915260001b6102b960201b61005b1760201c565b80546001600160a01b0319166001600160a01b039290921691909117905550565b6060833b61023d5760405162461bcd60e51b815260206004820152602660248201527f416464726573733a2064656c65676174652063616c6c20746f206e6f6e2d636f6044820152651b9d1c9858dd60d21b606482015260840161018f565b600080856001600160a01b0316856040516102589190610440565b600060405180830381855af49150503d8060008114610293576040519150601f19603f3d011682016040523d82523d6000602084013e610298565b606091505b5090925090506102a98282866102bc565b9695505050505050565b3b151590565b90565b606083156102cb575081610117565b8251156102db5782518084602001fd5b8160405162461bcd60e51b815260040161018f919061045c565b634e487b7160e01b600052604160045260246000fd5b60005b8381101561032657818101518382015260200161030e565b838111156100ab5750506000910152565b6000806040838503121561034a57600080fd5b82516001600160a01b038116811461036157600080fd5b60208401519092506001600160401b038082111561037e57600080fd5b818501915085601f83011261039257600080fd5b8151818111156103a4576103a46102f5565b604051601f8201601f19908116603f011681019083821181831017156103cc576103cc6102f5565b816040528281528860208487010111156103e557600080fd5b6103f683602083016020880161030b565b80955050505050509250929050565b60008282101561042557634e487b7160e01b600052601160045260246000fd5b500390565b634e487b7160e01b600052600160045260246000fd5b6000825161045281846020870161030b565b9190910192915050565b602081526000825180602084015261047b81604085016020870161030b565b601f01601f19169190910160400192915050565b61032b8061049e6000396000f3fe60806040523661001357610011610017565b005b6100115b61002761002261005e565b6100a3565b565b606061004e83836040518060600160405280602781526020016102cf602791396100c7565b9392505050565b3b151590565b90565b600061009e7f360894a13ba1a3210667c828492db98dca3e2076cc3735a920a3ca505d382bbc5473ffffffffffffffffffffffffffffffffffffffff1690565b905090565b3660008037600080366000845af43d6000803e8080156100c2573d6000f35b3d6000fd5b6060833b61015c576040517f08c379a000000000000000000000000000000000000000000000000000000000815260206004820152602660248201527f416464726573733a2064656c65676174652063616c6c20746f206e6f6e2d636f60448201527f6e7472616374000000000000000000000000000000000000000000000000000060648201526084015b60405180910390fd5b6000808573ffffffffffffffffffffffffffffffffffffffff16856040516101849190610261565b600060405180830381855af49150503d80600081146101bf576040519150601f19603f3d011682016040523d82523d6000602084013e6101c4565b606091505b50915091506101d48282866101de565b9695505050505050565b606083156101ed57508161004e565b8251156101fd5782518084602001fd5b816040517f08c379a0000000000000000000000000000000000000000000000000000000008152600401610153919061027d565b60005b8381101561024c578181015183820152602001610234565b8381111561025b576000848401525b50505050565b60008251610273818460208701610231565b9190910192915050565b602081526000825180602084015261029c816040850160208701610231565b601f017fffffffffffffffffffffffffffffffffffffffffffffffffffffffffffffffe016919091016040019291505056fe416464726573733a206c6f772d6c6576656c2064656c65676174652063616c6c206661696c6564a26469706673582212205d8cf11d25035ee7e8de4d55415591edecec71b825efdb63cab90b96322ff76364736f6c634300080b0033360894a13ba1a3210667c828492db98dca3e2076cc3735a920a3ca505d382bbc416464726573733a206c6f772d6c6576656c2064656c65676174652063616c6c206661696c6564416464726573733a206c6f772d6c6576656c2064656c65676174652063616c6c206661696c6564a2646970667358221220a905f6cfc610a351d1e8a8c8460403e415d5709abd1cc907ed77ba8f910d2c1c64736f6c634300080b0033",
  "linkReferences": {},
  "deployedLinkReferences": {}
}