{
  "_format": "hh-sol-artifact-1",
  "contractName": "PolyZDAO",
  "sourceName": "contracts/polygon/PolyZDAO.sol",
  "abi": [
    {
      "anonymous": false,
      "inputs": [
        {
          "indexed": false,
          "internalType": "address",
          "name": "previousAdmin",
          "type": "address"
        },
        {
          "indexed": false,
          "internalType": "address",
          "name": "newAdmin",
          "type": "address"
        }
      ],
      "name": "AdminChanged",
      "type": "event"
    },
    {
      "anonymous": false,
      "inputs": [
        {
          "indexed": true,
          "internalType": "address",
          "name": "beacon",
          "type": "address"
        }
      ],
      "name": "BeaconUpgraded",
      "type": "event"
    },
    {
      "anonymous": false,
      "inputs": [
        {
          "indexed": true,
          "internalType": "address",
          "name": "previousOwner",
          "type": "address"
        },
        {
          "indexed": true,
          "internalType": "address",
          "name": "newOwner",
          "type": "address"
        }
      ],
      "name": "OwnershipTransferred",
      "type": "event"
    },
    {
      "anonymous": false,
      "inputs": [
        {
          "indexed": false,
          "internalType": "address",
          "name": "account",
          "type": "address"
        }
      ],
      "name": "Paused",
      "type": "event"
    },
    {
      "anonymous": false,
      "inputs": [
        {
          "indexed": true,
          "internalType": "bytes32",
          "name": "role",
          "type": "bytes32"
        },
        {
          "indexed": true,
          "internalType": "bytes32",
          "name": "previousAdminRole",
          "type": "bytes32"
        },
        {
          "indexed": true,
          "internalType": "bytes32",
          "name": "newAdminRole",
          "type": "bytes32"
        }
      ],
      "name": "RoleAdminChanged",
      "type": "event"
    },
    {
      "anonymous": false,
      "inputs": [
        {
          "indexed": true,
          "internalType": "bytes32",
          "name": "role",
          "type": "bytes32"
        },
        {
          "indexed": true,
          "internalType": "address",
          "name": "account",
          "type": "address"
        },
        {
          "indexed": true,
          "internalType": "address",
          "name": "sender",
          "type": "address"
        }
      ],
      "name": "RoleGranted",
      "type": "event"
    },
    {
      "anonymous": false,
      "inputs": [
        {
          "indexed": true,
          "internalType": "bytes32",
          "name": "role",
          "type": "bytes32"
        },
        {
          "indexed": true,
          "internalType": "address",
          "name": "account",
          "type": "address"
        },
        {
          "indexed": true,
          "internalType": "address",
          "name": "sender",
          "type": "address"
        }
      ],
      "name": "RoleRevoked",
      "type": "event"
    },
    {
      "anonymous": false,
      "inputs": [
        {
          "indexed": false,
          "internalType": "address",
          "name": "account",
          "type": "address"
        }
      ],
      "name": "Unpaused",
      "type": "event"
    },
    {
      "anonymous": false,
      "inputs": [
        {
          "indexed": true,
          "internalType": "address",
          "name": "implementation",
          "type": "address"
        }
      ],
      "name": "Upgraded",
      "type": "event"
    },
    {
      "inputs": [],
      "name": "DEFAULT_ADMIN_ROLE",
      "outputs": [
        {
          "internalType": "bytes32",
          "name": "",
          "type": "bytes32"
        }
      ],
      "stateMutability": "view",
      "type": "function"
    },
    {
      "inputs": [
        {
          "internalType": "address",
          "name": "_zDAOChef",
          "type": "address"
        },
        {
          "internalType": "address",
          "name": "_staking",
          "type": "address"
        },
        {
          "internalType": "uint256",
          "name": "_zDAOId",
          "type": "uint256"
        }
      ],
      "name": "__ZDAO_init",
      "outputs": [],
      "stateMutability": "nonpayable",
      "type": "function"
    },
    {
      "inputs": [
        {
          "internalType": "uint256",
          "name": "_proposalId",
          "type": "uint256"
        }
      ],
      "name": "canCollectProposal",
      "outputs": [
        {
          "internalType": "bool",
          "name": "",
          "type": "bool"
        }
      ],
      "stateMutability": "view",
      "type": "function"
    },
    {
      "inputs": [
        {
          "internalType": "uint256",
          "name": "_proposalId",
          "type": "uint256"
        },
        {
          "internalType": "address",
          "name": "_voter",
          "type": "address"
        }
      ],
      "name": "canVote",
      "outputs": [
        {
          "internalType": "bool",
          "name": "",
          "type": "bool"
        }
      ],
      "stateMutability": "view",
      "type": "function"
    },
    {
      "inputs": [
        {
          "internalType": "uint256",
          "name": "_proposalId",
          "type": "uint256"
        }
      ],
      "name": "cancelProposal",
      "outputs": [],
      "stateMutability": "nonpayable",
      "type": "function"
    },
    {
      "inputs": [
        {
          "internalType": "uint256",
          "name": "_proposalId",
          "type": "uint256"
        },
        {
          "internalType": "address",
          "name": "_voter",
          "type": "address"
        }
      ],
      "name": "choiceOfVoter",
      "outputs": [
        {
          "internalType": "enum IPolyZDAO.VoterChoice",
          "name": "",
          "type": "uint8"
        }
      ],
      "stateMutability": "view",
      "type": "function"
    },
    {
      "inputs": [
        {
          "internalType": "uint256",
          "name": "_proposalId",
          "type": "uint256"
        }
      ],
      "name": "collectProposal",
      "outputs": [
        {
          "internalType": "uint256",
          "name": "voters",
          "type": "uint256"
        },
        {
          "internalType": "uint256",
          "name": "yes",
          "type": "uint256"
        },
        {
          "internalType": "uint256",
          "name": "no",
          "type": "uint256"
        }
      ],
      "stateMutability": "nonpayable",
      "type": "function"
    },
    {
      "inputs": [
        {
          "internalType": "uint256",
          "name": "_proposalId",
          "type": "uint256"
        },
        {
          "internalType": "uint256",
          "name": "_startTimestamp",
          "type": "uint256"
        },
        {
          "internalType": "uint256",
          "name": "_endTimestamp",
          "type": "uint256"
        }
      ],
      "name": "createProposal",
      "outputs": [],
      "stateMutability": "nonpayable",
      "type": "function"
    },
    {
      "inputs": [],
      "name": "destroyed",
      "outputs": [
        {
          "internalType": "bool",
          "name": "",
          "type": "bool"
        }
      ],
      "stateMutability": "view",
      "type": "function"
    },
    {
      "inputs": [
        {
          "internalType": "uint256",
          "name": "_proposalId",
          "type": "uint256"
        }
      ],
      "name": "executeProposal",
      "outputs": [],
      "stateMutability": "nonpayable",
      "type": "function"
    },
    {
      "inputs": [
        {
          "internalType": "bytes32",
          "name": "role",
          "type": "bytes32"
        }
      ],
      "name": "getRoleAdmin",
      "outputs": [
        {
          "internalType": "bytes32",
          "name": "",
          "type": "bytes32"
        }
      ],
      "stateMutability": "view",
      "type": "function"
    },
    {
      "inputs": [
        {
          "internalType": "bytes32",
          "name": "role",
          "type": "bytes32"
        },
        {
          "internalType": "address",
          "name": "account",
          "type": "address"
        }
      ],
      "name": "grantRole",
      "outputs": [],
      "stateMutability": "nonpayable",
      "type": "function"
    },
    {
      "inputs": [
        {
          "internalType": "bytes32",
          "name": "role",
          "type": "bytes32"
        },
        {
          "internalType": "address",
          "name": "account",
          "type": "address"
        }
      ],
      "name": "hasRole",
      "outputs": [
        {
          "internalType": "bool",
          "name": "",
          "type": "bool"
        }
      ],
      "stateMutability": "view",
      "type": "function"
    },
    {
      "inputs": [
        {
          "internalType": "uint256",
          "name": "_startIndex",
          "type": "uint256"
        },
        {
          "internalType": "uint256",
          "name": "_count",
          "type": "uint256"
        }
      ],
      "name": "listProposals",
      "outputs": [
        {
          "components": [
            {
              "internalType": "uint256",
              "name": "proposalId",
              "type": "uint256"
            },
            {
              "internalType": "uint256",
              "name": "startTimestamp",
              "type": "uint256"
            },
            {
              "internalType": "uint256",
              "name": "endTimestamp",
              "type": "uint256"
            },
            {
              "internalType": "uint256",
              "name": "yes",
              "type": "uint256"
            },
            {
              "internalType": "uint256",
              "name": "no",
              "type": "uint256"
            },
            {
              "internalType": "uint256",
              "name": "voters",
              "type": "uint256"
            },
            {
              "internalType": "uint256",
              "name": "snapshot",
              "type": "uint256"
            },
            {
              "internalType": "bool",
              "name": "collected",
              "type": "bool"
            },
            {
              "internalType": "bool",
              "name": "executed",
              "type": "bool"
            },
            {
              "internalType": "bool",
              "name": "canceled",
              "type": "bool"
            }
          ],
          "internalType": "struct IPolyZDAO.Proposal[]",
          "name": "records",
          "type": "tuple[]"
        }
      ],
      "stateMutability": "view",
      "type": "function"
    },
    {
      "inputs": [
        {
          "internalType": "uint256",
          "name": "_proposalId",
          "type": "uint256"
        },
        {
          "internalType": "uint256",
          "name": "_startIndex",
          "type": "uint256"
        },
        {
          "internalType": "uint256",
          "name": "_count",
          "type": "uint256"
        }
      ],
      "name": "listVoters",
      "outputs": [
        {
          "internalType": "address[]",
          "name": "voters",
          "type": "address[]"
        },
        {
          "internalType": "uint256[]",
          "name": "choices",
          "type": "uint256[]"
        },
        {
          "internalType": "uint256[]",
          "name": "votes",
          "type": "uint256[]"
        }
      ],
      "stateMutability": "view",
      "type": "function"
    },
    {
      "inputs": [],
      "name": "numberOfProposals",
      "outputs": [
        {
          "internalType": "uint256",
          "name": "",
          "type": "uint256"
        }
      ],
      "stateMutability": "view",
      "type": "function"
    },
    {
      "inputs": [],
      "name": "owner",
      "outputs": [
        {
          "internalType": "address",
          "name": "",
          "type": "address"
        }
      ],
      "stateMutability": "view",
      "type": "function"
    },
    {
      "inputs": [],
      "name": "paused",
      "outputs": [
        {
          "internalType": "bool",
          "name": "",
          "type": "bool"
        }
      ],
      "stateMutability": "view",
      "type": "function"
    },
    {
      "inputs": [
        {
          "internalType": "uint256",
          "name": "",
          "type": "uint256"
        }
      ],
      "name": "proposalIds",
      "outputs": [
        {
          "internalType": "uint256",
          "name": "",
          "type": "uint256"
        }
      ],
      "stateMutability": "view",
      "type": "function"
    },
    {
      "inputs": [
        {
          "internalType": "uint256",
          "name": "",
          "type": "uint256"
        }
      ],
      "name": "proposals",
      "outputs": [
        {
          "internalType": "uint256",
          "name": "proposalId",
          "type": "uint256"
        },
        {
          "internalType": "uint256",
          "name": "startTimestamp",
          "type": "uint256"
        },
        {
          "internalType": "uint256",
          "name": "endTimestamp",
          "type": "uint256"
        },
        {
          "internalType": "uint256",
          "name": "yes",
          "type": "uint256"
        },
        {
          "internalType": "uint256",
          "name": "no",
          "type": "uint256"
        },
        {
          "internalType": "uint256",
          "name": "voters",
          "type": "uint256"
        },
        {
          "internalType": "uint256",
          "name": "snapshot",
          "type": "uint256"
        },
        {
          "internalType": "bool",
          "name": "collected",
          "type": "bool"
        },
        {
          "internalType": "bool",
          "name": "executed",
          "type": "bool"
        },
        {
          "internalType": "bool",
          "name": "canceled",
          "type": "bool"
        }
      ],
      "stateMutability": "view",
      "type": "function"
    },
    {
      "inputs": [],
      "name": "renounceOwnership",
      "outputs": [],
      "stateMutability": "nonpayable",
      "type": "function"
    },
    {
      "inputs": [
        {
          "internalType": "bytes32",
          "name": "role",
          "type": "bytes32"
        },
        {
          "internalType": "address",
          "name": "account",
          "type": "address"
        }
      ],
      "name": "renounceRole",
      "outputs": [],
      "stateMutability": "nonpayable",
      "type": "function"
    },
    {
      "inputs": [
        {
          "internalType": "bytes32",
          "name": "role",
          "type": "bytes32"
        },
        {
          "internalType": "address",
          "name": "account",
          "type": "address"
        }
      ],
      "name": "revokeRole",
      "outputs": [],
      "stateMutability": "nonpayable",
      "type": "function"
    },
    {
      "inputs": [
        {
          "internalType": "bool",
          "name": "_destroyed",
          "type": "bool"
        }
      ],
      "name": "setDestroyed",
      "outputs": [],
      "stateMutability": "nonpayable",
      "type": "function"
    },
    {
      "inputs": [],
      "name": "staking",
      "outputs": [
        {
          "internalType": "contract Staking",
          "name": "",
          "type": "address"
        }
      ],
      "stateMutability": "view",
      "type": "function"
    },
    {
      "inputs": [
        {
          "internalType": "uint256",
          "name": "_proposalId",
          "type": "uint256"
        }
      ],
      "name": "state",
      "outputs": [
        {
          "internalType": "enum IPolyZDAO.ProposalState",
          "name": "",
          "type": "uint8"
        }
      ],
      "stateMutability": "view",
      "type": "function"
    },
    {
      "inputs": [
        {
          "internalType": "bytes4",
          "name": "interfaceId",
          "type": "bytes4"
        }
      ],
      "name": "supportsInterface",
      "outputs": [
        {
          "internalType": "bool",
          "name": "",
          "type": "bool"
        }
      ],
      "stateMutability": "view",
      "type": "function"
    },
    {
      "inputs": [
        {
          "internalType": "address",
          "name": "newOwner",
          "type": "address"
        }
      ],
      "name": "transferOwnership",
      "outputs": [],
      "stateMutability": "nonpayable",
      "type": "function"
    },
    {
      "inputs": [
        {
          "internalType": "address",
          "name": "newImplementation",
          "type": "address"
        }
      ],
      "name": "upgradeTo",
      "outputs": [],
      "stateMutability": "nonpayable",
      "type": "function"
    },
    {
      "inputs": [
        {
          "internalType": "address",
          "name": "newImplementation",
          "type": "address"
        },
        {
          "internalType": "bytes",
          "name": "data",
          "type": "bytes"
        }
      ],
      "name": "upgradeToAndCall",
      "outputs": [],
      "stateMutability": "payable",
      "type": "function"
    },
    {
      "inputs": [],
      "name": "version",
      "outputs": [
        {
          "internalType": "uint256",
          "name": "",
          "type": "uint256"
        }
      ],
      "stateMutability": "view",
      "type": "function"
    },
    {
      "inputs": [
        {
          "internalType": "uint256",
          "name": "_proposalId",
          "type": "uint256"
        },
        {
          "internalType": "address",
          "name": "_voter",
          "type": "address"
        },
        {
          "internalType": "uint256",
          "name": "_choice",
          "type": "uint256"
        }
      ],
      "name": "vote",
      "outputs": [],
      "stateMutability": "nonpayable",
      "type": "function"
    },
    {
      "inputs": [
        {
          "internalType": "uint256",
          "name": "_proposalId",
          "type": "uint256"
        }
      ],
      "name": "votesResultOfProposal",
      "outputs": [
        {
          "internalType": "uint256",
          "name": "voters",
          "type": "uint256"
        },
        {
          "internalType": "uint256",
          "name": "yes",
          "type": "uint256"
        },
        {
          "internalType": "uint256",
          "name": "no",
          "type": "uint256"
        }
      ],
      "stateMutability": "view",
      "type": "function"
    },
    {
      "inputs": [
        {
          "internalType": "uint256",
          "name": "_proposalId",
          "type": "uint256"
        },
        {
          "internalType": "address",
          "name": "_voter",
          "type": "address"
        }
      ],
      "name": "votingPowerOfVoter",
      "outputs": [
        {
          "internalType": "uint256",
          "name": "",
          "type": "uint256"
        }
      ],
      "stateMutability": "view",
      "type": "function"
    },
    {
      "inputs": [],
      "name": "zDAOChef",
      "outputs": [
        {
          "internalType": "address",
          "name": "",
          "type": "address"
        }
      ],
      "stateMutability": "view",
      "type": "function"
    },
    {
      "inputs": [],
      "name": "zDAOId",
      "outputs": [
        {
          "internalType": "uint256",
          "name": "",
          "type": "uint256"
        }
      ],
      "stateMutability": "view",
      "type": "function"
    },
    {
      "inputs": [],
      "name": "zDAOInfo",
      "outputs": [
        {
          "internalType": "uint256",
          "name": "zDAOId",
          "type": "uint256"
        },
        {
          "internalType": "uint256",
          "name": "snapshot",
          "type": "uint256"
        },
        {
          "internalType": "bool",
          "name": "destroyed",
          "type": "bool"
        }
      ],
      "stateMutability": "view",
      "type": "function"
    }
  ],
  "bytecode": "0x60a06040523060805234801561001457600080fd5b5060805161370961004560003960008181610bca01528181610c600152818161116501526111fb01526137096000f3fe60806040526004361061026a5760003560e01c806362a8dab9116101535780639b644a23116100cb578063cdb2867b1161007f578063d8191e6c11610064578063d8191e6c14610815578063e0a8f6f514610857578063f2fde38b1461087757600080fd5b8063cdb2867b146107d5578063d547741f146107f557600080fd5b8063a62eb632116100b0578063a62eb63214610727578063affc179314610747578063b5c23fdd146107a657600080fd5b80639b644a23146106f2578063a217fddf1461071257600080fd5b8063890cb1f3116101225780638da5cb5b116101075780638da5cb5b1461066d57806390bfeab31461068b57806391d14854146106ac57600080fd5b8063890cb1f3146106375780638d7af4731461065757600080fd5b806362a8dab9146105b5578063715018a6146105d5578063722c5176146105ea5780637f6dda141461060a57600080fd5b80633659cfe6116101e65780634cf088d9116101b55780634f1ef2861161019a5780634f1ef2861461057357806354fd4d50146105865780635c975abb1461059d57600080fd5b80634cf088d91461051a5780634de8737c1461055357600080fd5b80633659cfe61461048d5780633e4f49e6146104ad578063472858b4146104da5780634b948456146104fa57600080fd5b8063151936131161023d5780632f2ff15d116102225780632f2ff15d14610434578063359cbbc91461045457806336568abe1461046d57600080fd5b806315193613146103e4578063248a9ca31461040457600080fd5b8063013cf08b1461026f57806301ffc9a7146103395780630d61b51914610369578063120e33da1461038b575b600080fd5b34801561027b57600080fd5b506102e461028a3660046130b9565b610197602052600090815260409020805460018201546002830154600384015460048501546005860154600687015460079097015495969495939492939192909160ff80821691610100810482169162010000909104168a565b604080519a8b5260208b0199909952978901969096526060880194909452608087019290925260a086015260c0850152151560e084015215156101008301521515610120820152610140015b60405180910390f35b34801561034557600080fd5b506103596103543660046130d2565b610897565b6040519015158152602001610330565b34801561037557600080fd5b506103896103843660046130b9565b610930565b005b34801561039757600080fd5b506103c96103a63660046130b9565b600090815261019760205260409020600581015460038201546004909201549092565b60408051938452602084019290925290820152606001610330565b3480156103f057600080fd5b50610194545b604051908152602001610330565b34801561041057600080fd5b506103f661041f3660046130b9565b60009081526097602052604090206001015490565b34801561044057600080fd5b5061038961044f366004613130565b610b0c565b34801561046057600080fd5b506101965460ff16610359565b34801561047957600080fd5b50610389610488366004613130565b610b37565b34801561049957600080fd5b506103896104a836600461315c565b610bbf565b3480156104b957600080fd5b506104cd6104c83660046130b9565b610d5d565b604051610330919061318d565b3480156104e657600080fd5b506103896104f53660046131a7565b610dea565b34801561050657600080fd5b506103896105153660046131c9565b610e4a565b34801561052657600080fd5b506101935461053b906001600160a01b031681565b6040516001600160a01b039091168152602001610330565b34801561055f57600080fd5b5061038961056e366004613205565b610f8d565b610389610581366004613240565b61115a565b34801561059257600080fd5b506103f66101915481565b3480156105a957600080fd5b5060fb5460ff16610359565b3480156105c157600080fd5b506103f66105d0366004613130565b6112e5565b3480156105e157600080fd5b506103896112f8565b3480156105f657600080fd5b50610389610605366004613302565b61135e565b34801561061657600080fd5b5061062a61062536600461332e565b611472565b6040516103309190613350565b34801561064357600080fd5b506103c96106523660046130b9565b611646565b34801561066357600080fd5b50610199546103f6565b34801561067957600080fd5b506033546001600160a01b031661053b565b34801561069757600080fd5b506101925461053b906001600160a01b031681565b3480156106b857600080fd5b506103596106c7366004613130565b60009182526097602090815260408084206001600160a01b0393909316845291905290205460ff1690565b3480156106fe57600080fd5b506103f661070d3660046130b9565b61182a565b34801561071e57600080fd5b506103f6600081565b34801561073357600080fd5b506103596107423660046130b9565b61184c565b34801561075357600080fd5b50610799610762366004613130565b6000918252610198602090815260408084206001600160a01b0393909316845260019092019052902054600160a01b900460ff1690565b60405161033091906133f9565b3480156107b257600080fd5b506107c66107c1366004613302565b611857565b60405161033093929190613448565b3480156107e157600080fd5b506103596107f0366004613130565b611a89565b34801561080157600080fd5b50610389610810366004613130565b611a95565b34801561082157600080fd5b5061019454610195546101965461083a92919060ff1683565b604080519384526020840192909252151590820152606001610330565b34801561086357600080fd5b506103896108723660046130b9565b611abb565b34801561088357600080fd5b5061038961089236600461315c565b611c90565b60007fffffffff0000000000000000000000000000000000000000000000000000000082167f7965db0b00000000000000000000000000000000000000000000000000000000148061092a57507f01ffc9a7000000000000000000000000000000000000000000000000000000007fffffffff000000000000000000000000000000000000000000000000000000008316145b92915050565b610192546001600160a01b031633146109815760405162461bcd60e51b815260206004820152600e60248201526d2737ba1030902d2220a7a1b432b360911b60448201526064015b60405180910390fd5b6101965460ff16156109d55760405162461bcd60e51b815260206004820152601160248201527f416c72656164792064657374726f7965640000000000000000000000000000006044820152606401610978565b6000818152610197602052604090205481908114610a355760405162461bcd60e51b815260206004820152601060248201527f496e76616c69642070726f706f73616c000000000000000000000000000000006044820152606401610978565b6000828152610197602052604090206007015462010000900460ff16158015610a7157506000828152610197602052604090206007015460ff16155b610ae35760405162461bcd60e51b815260206004820152602560248201527f416c72656164792063616e63656c6564206f722065786563757465642070726f60448201527f706f73616c0000000000000000000000000000000000000000000000000000006064820152608401610978565b610b0882600090815261019760205260409020600701805461ff001916610100179055565b5050565b600082815260976020526040902060010154610b288133611d6f565b610b328383611def565b505050565b6001600160a01b0381163314610bb55760405162461bcd60e51b815260206004820152602f60248201527f416363657373436f6e74726f6c3a2063616e206f6e6c792072656e6f756e636560448201527f20726f6c657320666f722073656c6600000000000000000000000000000000006064820152608401610978565b610b088282611e91565b306001600160a01b037f0000000000000000000000000000000000000000000000000000000000000000161415610c5e5760405162461bcd60e51b815260206004820152602c60248201527f46756e6374696f6e206d7573742062652063616c6c6564207468726f7567682060448201527f64656c656761746563616c6c00000000000000000000000000000000000000006064820152608401610978565b7f00000000000000000000000000000000000000000000000000000000000000006001600160a01b0316610cb97f360894a13ba1a3210667c828492db98dca3e2076cc3735a920a3ca505d382bbc546001600160a01b031690565b6001600160a01b031614610d355760405162461bcd60e51b815260206004820152602c60248201527f46756e6374696f6e206d7573742062652063616c6c6564207468726f7567682060448201527f6163746976652070726f787900000000000000000000000000000000000000006064820152608401610978565b610d3e81611f14565b60408051600080825260208201909252610d5a91839190611f6e565b50565b600081815261019760205260408120600781015462010000900460ff1615610d885750600292915050565b80600101544211610d9c5750600092915050565b80600201544211610db05750600192915050565b6007810154610100900460ff1615610dcb5750600392915050565b600781015460ff1615610de15750600592915050565b50600492915050565b610192546001600160a01b03163314610e365760405162461bcd60e51b815260206004820152600e60248201526d2737ba1030902d2220a7a1b432b360911b6044820152606401610978565b610196805460ff1916911515919091179055565b600054610100900460ff16610e655760005460ff1615610e69565b303b155b610edb5760405162461bcd60e51b815260206004820152602e60248201527f496e697469616c697a61626c653a20636f6e747261637420697320616c72656160448201527f647920696e697469616c697a65640000000000000000000000000000000000006064820152608401610978565b600054610100900460ff16158015610efd576000805461ffff19166101011790555b610f05612132565b61019280546001600160a01b0380871673ffffffffffffffffffffffffffffffffffffffff19928316179092556101938054928616929091169190911790556040805160608101825283815243602082018190526000919092015261019483905561019555610196805460ff191690558015610f87576000805461ff00191690555b50505050565b610192546001600160a01b03163314610fd95760405162461bcd60e51b815260206004820152600e60248201526d2737ba1030902d2220a7a1b432b360911b6044820152606401610978565b6101965460ff161561102d5760405162461bcd60e51b815260206004820152601160248201527f416c72656164792064657374726f7965640000000000000000000000000000006044820152606401610978565b600083815261019760205260409020548390811461108d5760405162461bcd60e51b815260206004820152601060248201527f496e76616c69642070726f706f73616c000000000000000000000000000000006044820152606401610978565b600182148061109c5750600282145b6110e85760405162461bcd60e51b815260206004820152600e60248201527f496e76616c69642063686f6963650000000000000000000000000000000000006044820152606401610978565b6110f28484612209565b61113e5760405162461bcd60e51b815260206004820152601460248201527f4e6f742076616c696420666f7220766f74696e670000000000000000000000006044820152606401610978565b610f87848484600281111561115557611155613177565b6122eb565b306001600160a01b037f00000000000000000000000000000000000000000000000000000000000000001614156111f95760405162461bcd60e51b815260206004820152602c60248201527f46756e6374696f6e206d7573742062652063616c6c6564207468726f7567682060448201527f64656c656761746563616c6c00000000000000000000000000000000000000006064820152608401610978565b7f00000000000000000000000000000000000000000000000000000000000000006001600160a01b03166112547f360894a13ba1a3210667c828492db98dca3e2076cc3735a920a3ca505d382bbc546001600160a01b031690565b6001600160a01b0316146112d05760405162461bcd60e51b815260206004820152602c60248201527f46756e6374696f6e206d7573742062652063616c6c6564207468726f7567682060448201527f6163746976652070726f787900000000000000000000000000000000000000006064820152608401610978565b6112d982611f14565b610b0882826001611f6e565b60006112f183836124eb565b9392505050565b6033546001600160a01b031633146113525760405162461bcd60e51b815260206004820181905260248201527f4f776e61626c653a2063616c6c6572206973206e6f7420746865206f776e65726044820152606401610978565b61135c600061258e565b565b610192546001600160a01b031633146113aa5760405162461bcd60e51b815260206004820152600e60248201526d2737ba1030902d2220a7a1b432b360911b6044820152606401610978565b6101965460ff16156113fe5760405162461bcd60e51b815260206004820152601160248201527f416c72656164792064657374726f7965640000000000000000000000000000006044820152606401610978565b60008311801561141b575060008381526101976020526040902054155b6114675760405162461bcd60e51b815260206004820152601c60248201527f50726f706f73616c2077617320616c72656164792063726561746564000000006044820152606401610978565b610b328383836125ed565b6101995460609082906114869085906134d3565b81111561149f576101995461149c9085906134d3565b90505b8067ffffffffffffffff8111156114b8576114b861322a565b60405190808252806020026020018201604052801561154557816020015b611532604051806101400160405280600081526020016000815260200160008152602001600081526020016000815260200160008152602001600081526020016000151581526020016000151581526020016000151581525090565b8152602001906001900390816114d65790505b50915060005b8181101561163e57610197600061019961156584896134ea565b8154811061157557611575613502565b600091825260208083209091015483528281019390935260409182019020815161014081018352815481526001820154938101939093526002810154918301919091526003810154606083015260048101546080830152600581015460a0830152600681015460c08301526007015460ff808216151560e0840152610100808304821615159084015262010000909104161515610120820152835184908390811061162257611622613502565b60200260200101819052508061163790613518565b905061154b565b505092915050565b61019254600090819081906001600160a01b031633146116995760405162461bcd60e51b815260206004820152600e60248201526d2737ba1030902d2220a7a1b432b360911b6044820152606401610978565b6101965460ff16156116ed5760405162461bcd60e51b815260206004820152601160248201527f416c72656164792064657374726f7965640000000000000000000000000000006044820152606401610978565b600084815261019760205260409020548490811461174d5760405162461bcd60e51b815260206004820152601060248201527f496e76616c69642070726f706f73616c000000000000000000000000000000006044820152606401610978565b600085815261019760205260409020600781015462010000900460ff1615801561177c5750600781015460ff16155b801561178b5750806002015442115b6117fd5760405162461bcd60e51b815260206004820152602160248201527f4e6f742076616c696420666f7220636f6c6c656374696e672070726f706f736160448201527f6c000000000000000000000000000000000000000000000000000000000000006064820152608401610978565b6005810154600382015460048301546007909301805460ff19166001179055909790965090945092505050565b610199818154811061183b57600080fd5b600091825260209091200154905081565b600061092a82612748565b60008381526101986020526040902080546060918291829190859061187d9088906134d3565b8111156118945781546118919088906134d3565b90505b8067ffffffffffffffff8111156118ad576118ad61322a565b6040519080825280602002602001820160405280156118d6578160200160208202803683370190505b5094508067ffffffffffffffff8111156118f2576118f261322a565b60405190808252806020026020018201604052801561191b578160200160208202803683370190505b5093508067ffffffffffffffff8111156119375761193761322a565b604051908082528060200260200182016040528015611960578160200160208202803683370190505b5092506000805b82811015611a7c578361197a828b6134ea565b8154811061198a5761198a613502565b9060005260206000200160009054906101000a90046001600160a01b03169150818782815181106119bd576119bd613502565b6001600160a01b039283166020918202929092018101919091529083166000908152600186019091526040902054600160a01b900460ff166002811115611a0657611a06613177565b868281518110611a1857611a18613502565b602002602001018181525050836001016000836001600160a01b03166001600160a01b0316815260200190815260200160002060010154858281518110611a6157611a61613502565b6020908102919091010152611a7581613518565b9050611967565b5050505093509350939050565b60006112f18383612209565b600082815260976020526040902060010154611ab18133611d6f565b610b328383611e91565b610192546001600160a01b03163314611b075760405162461bcd60e51b815260206004820152600e60248201526d2737ba1030902d2220a7a1b432b360911b6044820152606401610978565b6101965460ff1615611b5b5760405162461bcd60e51b815260206004820152601160248201527f416c72656164792064657374726f7965640000000000000000000000000000006044820152606401610978565b6000818152610197602052604090205481908114611bbb5760405162461bcd60e51b815260206004820152601060248201527f496e76616c69642070726f706f73616c000000000000000000000000000000006044820152606401610978565b6000828152610197602052604090206007015462010000900460ff16158015611bf757506000828152610197602052604090206007015460ff16155b611c695760405162461bcd60e51b815260206004820152602660248201527f416c72656164792063616e63656c6564206f7220636f6c6c656374656420707260448201527f6f706f73616c00000000000000000000000000000000000000000000000000006064820152608401610978565b610b0882600090815261019760205260409020600701805462ff0000191662010000179055565b6033546001600160a01b03163314611cea5760405162461bcd60e51b815260206004820181905260248201527f4f776e61626c653a2063616c6c6572206973206e6f7420746865206f776e65726044820152606401610978565b6001600160a01b038116611d665760405162461bcd60e51b815260206004820152602660248201527f4f776e61626c653a206e6577206f776e657220697320746865207a65726f206160448201527f64647265737300000000000000000000000000000000000000000000000000006064820152608401610978565b610d5a8161258e565b60008281526097602090815260408083206001600160a01b038516845290915290205460ff16610b0857611dad816001600160a01b0316601461276e565b611db883602061276e565b604051602001611dc992919061355f565b60408051601f198184030181529082905262461bcd60e51b82526109789160040161360c565b60008281526097602090815260408083206001600160a01b038516845290915290205460ff16610b085760008281526097602090815260408083206001600160a01b03851684529091529020805460ff19166001179055611e4d3390565b6001600160a01b0316816001600160a01b0316837f2f8788117e7eff1d82e926ec794901d17c78024a50270940304540a733656f0d60405160405180910390a45050565b60008281526097602090815260408083206001600160a01b038516845290915290205460ff1615610b085760008281526097602090815260408083206001600160a01b0385168085529252808320805460ff1916905551339285917ff6391f5c32d9c69d2a47ea670b442974b53935d1edc7fd64eb21e047a839171b9190a45050565b6033546001600160a01b03163314610d5a5760405162461bcd60e51b815260206004820181905260248201527f4f776e61626c653a2063616c6c6572206973206e6f7420746865206f776e65726044820152606401610978565b6000611fa17f360894a13ba1a3210667c828492db98dca3e2076cc3735a920a3ca505d382bbc546001600160a01b031690565b9050611fac84612997565b600083511180611fb95750815b15611fca57611fc88484612a59565b505b7f4910fdfa16fed3260ed0e7147f7cc6da11a60208b5b9406d12a635614ffd9143805460ff1661212b57805460ff191660011781556040516001600160a01b038316602482015261207790869060440160408051601f198184030181529190526020810180517bffffffffffffffffffffffffffffffffffffffffffffffffffffffff167f3659cfe600000000000000000000000000000000000000000000000000000000179052612a59565b50805460ff191681557f360894a13ba1a3210667c828492db98dca3e2076cc3735a920a3ca505d382bbc546001600160a01b038381169116146121225760405162461bcd60e51b815260206004820152602f60248201527f45524331393637557067726164653a207570677261646520627265616b73206660448201527f75727468657220757067726164657300000000000000000000000000000000006064820152608401610978565b61212b85612b5b565b5050505050565b600054610100900460ff1661219d5760405162461bcd60e51b815260206004820152602b60248201527f496e697469616c697a61626c653a20636f6e7472616374206973206e6f74206960448201526a6e697469616c697a696e6760a81b6064820152608401610978565b6121a5612b9b565b6121ad612c16565b6121b5612c99565b6121bd612d0c565b6121c5612d87565b6001610191819055604080518082019091528181527f7600000000000000000000000000000000000000000000000000000000000000602082015261135c91612df2565b60008281526101976020526040812080548414158061222e575061222c81612e65565b155b1561223d57600091505061092a565b6101935460068201546040517f564e90e40000000000000000000000000000000000000000000000000000000081526000926001600160a01b03169163564e90e4916122a19188916004016001600160a01b03929092168252602082015260400190565b602060405180830381865afa1580156122be573d6000803e3d6000fd5b505050506040513d601f19601f820116820180604052508101906122e2919061361f565b11949350505050565b60008381526101976020908152604080832061019883528184206001600160a01b038716855260018101909352908320549092600160a01b90910460ff169061233487876124eb565b9050600182600281111561234a5761234a613177565b141561236f578084600301600082825461236491906134d3565b909155506123d69050565b600282600281111561238357612383613177565b141561239d578084600401600082825461236491906134d3565b825460018101845560008481526020902001805473ffffffffffffffffffffffffffffffffffffffff19166001600160a01b0388161790555b6001600160a01b03861660008181526001850160205260409020805473ffffffffffffffffffffffffffffffffffffffff1981168317825587927fffffffffffffffffffffff00000000000000000000000000000000000000000090911617600160a01b83600281111561244c5761244c613177565b02179055506001600160a01b038616600090815260018085016020526040909120810182905585600281111561248457612484613177565b14156124a9578084600301600082825461249e91906134ea565b909155506124dd9050565b60028560028111156124bd576124bd613177565b14156124dd57808460040160008282546124d791906134ea565b90915550505b505054600590910155505050565b61019354600083815261019760205260408082206006015490517f564e90e40000000000000000000000000000000000000000000000000000000081526001600160a01b03858116600483015260248201929092529192169063564e90e490604401602060405180830381865afa15801561256a573d6000803e3d6000fd5b505050506040513d601f19601f820116820180604052508101906112f1919061361f565b603380546001600160a01b0383811673ffffffffffffffffffffffffffffffffffffffff19831681179093556040519116919082907f8be0079c531659141344cd1fd0a4f28419497f9722a3daafe3b4186f6b6457e090600090a35050565b600083815261019760205260409020541561264a5760405162461bcd60e51b815260206004820152601860248201527f416c72656164792070726f706f73616c206372656174656400000000000000006044820152606401610978565b604080516101408101825284815260208082019485528183019384526000606083018181526080840182815260a085018381524360c0870190815260e087018581526101008089018781526101208a018881528e8952610197909952998720985189559a516001808a019190915599516002890155935160038801559151600487015551600586015551600685015551600790930180549451925161ffff1990951693151561ff001916939093179115159095021762ff000019166201000092151592909202919091179055610199805491820181559091527f960942b7bcefc06c4573016a89cb45882597f73bb18f9afb0df2c0e01c496e1b0155565b6000818152610197602052604081208054831480156112f1575060020154421192915050565b6060600061277d836002613638565b6127889060026134ea565b67ffffffffffffffff8111156127a0576127a061322a565b6040519080825280601f01601f1916602001820160405280156127ca576020820181803683370190505b5090507f30000000000000000000000000000000000000000000000000000000000000008160008151811061280157612801613502565b60200101907effffffffffffffffffffffffffffffffffffffffffffffffffffffffffffff1916908160001a9053507f78000000000000000000000000000000000000000000000000000000000000008160018151811061286457612864613502565b60200101907effffffffffffffffffffffffffffffffffffffffffffffffffffffffffffff1916908160001a90535060006128a0846002613638565b6128ab9060016134ea565b90505b6001811115612948577f303132333435363738396162636465660000000000000000000000000000000085600f16601081106128ec576128ec613502565b1a60f81b82828151811061290257612902613502565b60200101907effffffffffffffffffffffffffffffffffffffffffffffffffffffffffffff1916908160001a90535060049490941c9361294181613657565b90506128ae565b5083156112f15760405162461bcd60e51b815260206004820181905260248201527f537472696e67733a20686578206c656e67746820696e73756666696369656e746044820152606401610978565b803b612a0b5760405162461bcd60e51b815260206004820152602d60248201527f455243313936373a206e657720696d706c656d656e746174696f6e206973206e60448201527f6f74206120636f6e7472616374000000000000000000000000000000000000006064820152608401610978565b7f360894a13ba1a3210667c828492db98dca3e2076cc3735a920a3ca505d382bbc805473ffffffffffffffffffffffffffffffffffffffff19166001600160a01b0392909216919091179055565b6060823b612acf5760405162461bcd60e51b815260206004820152602660248201527f416464726573733a2064656c65676174652063616c6c20746f206e6f6e2d636f60448201527f6e747261637400000000000000000000000000000000000000000000000000006064820152608401610978565b600080846001600160a01b031684604051612aea919061366e565b600060405180830381855af49150503d8060008114612b25576040519150601f19603f3d011682016040523d82523d6000602084013e612b2a565b606091505b5091509150612b5282826040518060600160405280602781526020016136ad60279139612e97565b95945050505050565b612b6481612997565b6040516001600160a01b038216907fbc7cd75a20ee27fd9adebab32041f755214dbc6bffa90cc0225b39da2e5c2d3b90600090a250565b600054610100900460ff16612c065760405162461bcd60e51b815260206004820152602b60248201527f496e697469616c697a61626c653a20636f6e7472616374206973206e6f74206960448201526a6e697469616c697a696e6760a81b6064820152608401610978565b612c0e612ed0565b61135c612f3b565b600054610100900460ff16612c815760405162461bcd60e51b815260206004820152602b60248201527f496e697469616c697a61626c653a20636f6e7472616374206973206e6f74206960448201526a6e697469616c697a696e6760a81b6064820152608401610978565b612c89612ed0565b612c91612ed0565b61135c612ed0565b600054610100900460ff16612d045760405162461bcd60e51b815260206004820152602b60248201527f496e697469616c697a61626c653a20636f6e7472616374206973206e6f74206960448201526a6e697469616c697a696e6760a81b6064820152608401610978565b61135c612faf565b600054610100900460ff16612d775760405162461bcd60e51b815260206004820152602b60248201527f496e697469616c697a61626c653a20636f6e7472616374206973206e6f74206960448201526a6e697469616c697a696e6760a81b6064820152608401610978565b612d7f612ed0565b61135c613021565b600054610100900460ff16612c895760405162461bcd60e51b815260206004820152602b60248201527f496e697469616c697a61626c653a20636f6e7472616374206973206e6f74206960448201526a6e697469616c697a696e6760a81b6064820152608401610978565b610b088282604051602401612e0892919061368a565b60408051601f198184030181529190526020810180517bffffffffffffffffffffffffffffffffffffffffffffffffffffffff167f9710a9d000000000000000000000000000000000000000000000000000000000179052613098565b600081600101544210158015612e7e5750816002015442105b801561092a5750506007015462010000900460ff161590565b60608315612ea65750816112f1565b825115612eb65782518084602001fd5b8160405162461bcd60e51b8152600401610978919061360c565b600054610100900460ff1661135c5760405162461bcd60e51b815260206004820152602b60248201527f496e697469616c697a61626c653a20636f6e7472616374206973206e6f74206960448201526a6e697469616c697a696e6760a81b6064820152608401610978565b600054610100900460ff16612fa65760405162461bcd60e51b815260206004820152602b60248201527f496e697469616c697a61626c653a20636f6e7472616374206973206e6f74206960448201526a6e697469616c697a696e6760a81b6064820152608401610978565b61135c3361258e565b600054610100900460ff1661301a5760405162461bcd60e51b815260206004820152602b60248201527f496e697469616c697a61626c653a20636f6e7472616374206973206e6f74206960448201526a6e697469616c697a696e6760a81b6064820152608401610978565b600160c955565b600054610100900460ff1661308c5760405162461bcd60e51b815260206004820152602b60248201527f496e697469616c697a61626c653a20636f6e7472616374206973206e6f74206960448201526a6e697469616c697a696e6760a81b6064820152608401610978565b60fb805460ff19169055565b80516a636f6e736f6c652e6c6f67602083016000808483855afa5050505050565b6000602082840312156130cb57600080fd5b5035919050565b6000602082840312156130e457600080fd5b81357fffffffff00000000000000000000000000000000000000000000000000000000811681146112f157600080fd5b80356001600160a01b038116811461312b57600080fd5b919050565b6000806040838503121561314357600080fd5b8235915061315360208401613114565b90509250929050565b60006020828403121561316e57600080fd5b6112f182613114565b634e487b7160e01b600052602160045260246000fd5b60208101600683106131a1576131a1613177565b91905290565b6000602082840312156131b957600080fd5b813580151581146112f157600080fd5b6000806000606084860312156131de57600080fd5b6131e784613114565b92506131f560208501613114565b9150604084013590509250925092565b60008060006060848603121561321a57600080fd5b833592506131f560208501613114565b634e487b7160e01b600052604160045260246000fd5b6000806040838503121561325357600080fd5b61325c83613114565b9150602083013567ffffffffffffffff8082111561327957600080fd5b818501915085601f83011261328d57600080fd5b81358181111561329f5761329f61322a565b604051601f8201601f19908116603f011681019083821181831017156132c7576132c761322a565b816040528281528860208487010111156132e057600080fd5b8260208601602083013760006020848301015280955050505050509250929050565b60008060006060848603121561331757600080fd5b505081359360208301359350604090920135919050565b6000806040838503121561334157600080fd5b50508035926020909101359150565b602080825282518282018190526000919060409081850190868401855b828110156133ec5781518051855286810151878601528581015186860152606080820151908601526080808201519086015260a0808201519086015260c0808201519086015260e0808201511515908601526101008082015115159086015261012090810151151590850152610140909301929085019060010161336d565b5091979650505050505050565b60208101600383106131a1576131a1613177565b600081518084526020808501945080840160005b8381101561343d57815187529582019590820190600101613421565b509495945050505050565b606080825284519082018190526000906020906080840190828801845b8281101561348a5781516001600160a01b031684529284019290840190600101613465565b5050508381038285015261349e818761340d565b91505082810360408401526134b3818561340d565b9695505050505050565b634e487b7160e01b600052601160045260246000fd5b6000828210156134e5576134e56134bd565b500390565b600082198211156134fd576134fd6134bd565b500190565b634e487b7160e01b600052603260045260246000fd5b600060001982141561352c5761352c6134bd565b5060010190565b60005b8381101561354e578181015183820152602001613536565b83811115610f875750506000910152565b7f416363657373436f6e74726f6c3a206163636f756e7420000000000000000000815260008351613597816017850160208801613533565b7f206973206d697373696e6720726f6c652000000000000000000000000000000060179184019182015283516135d4816028840160208801613533565b01602801949350505050565b600081518084526135f8816020860160208601613533565b601f01601f19169290920160200192915050565b6020815260006112f160208301846135e0565b60006020828403121561363157600080fd5b5051919050565b6000816000190483118215151615613652576136526134bd565b500290565b600081613666576136666134bd565b506000190190565b60008251613680818460208701613533565b9190910192915050565b60408152600061369d60408301856135e0565b9050826020830152939250505056fe416464726573733a206c6f772d6c6576656c2064656c65676174652063616c6c206661696c6564a2646970667358221220f41b0b5c8a77823abcb21179d7ecdfe795bce116f8e5f1ce71c44ec2dccfb4bc64736f6c634300080b0033",
  "linkReferences": {},
  "deployedLinkReferences": {}
}