{
  "_format": "hh-sol-artifact-1",
  "contractName": "PolyZDAO",
  "sourceName": "contracts/polygon/PolyZDAO.sol",
  "abi": [
    {
      "anonymous": false,
      "inputs": [
        {
          "indexed": false,
          "internalType": "address",
          "name": "previousAdmin",
          "type": "address"
        },
        {
          "indexed": false,
          "internalType": "address",
          "name": "newAdmin",
          "type": "address"
        }
      ],
      "name": "AdminChanged",
      "type": "event"
    },
    {
      "anonymous": false,
      "inputs": [
        {
          "indexed": true,
          "internalType": "address",
          "name": "beacon",
          "type": "address"
        }
      ],
      "name": "BeaconUpgraded",
      "type": "event"
    },
    {
      "anonymous": false,
      "inputs": [
        {
          "indexed": true,
          "internalType": "address",
          "name": "previousOwner",
          "type": "address"
        },
        {
          "indexed": true,
          "internalType": "address",
          "name": "newOwner",
          "type": "address"
        }
      ],
      "name": "OwnershipTransferred",
      "type": "event"
    },
    {
      "anonymous": false,
      "inputs": [
        {
          "indexed": false,
          "internalType": "address",
          "name": "account",
          "type": "address"
        }
      ],
      "name": "Paused",
      "type": "event"
    },
    {
      "anonymous": false,
      "inputs": [
        {
          "indexed": true,
          "internalType": "bytes32",
          "name": "role",
          "type": "bytes32"
        },
        {
          "indexed": true,
          "internalType": "bytes32",
          "name": "previousAdminRole",
          "type": "bytes32"
        },
        {
          "indexed": true,
          "internalType": "bytes32",
          "name": "newAdminRole",
          "type": "bytes32"
        }
      ],
      "name": "RoleAdminChanged",
      "type": "event"
    },
    {
      "anonymous": false,
      "inputs": [
        {
          "indexed": true,
          "internalType": "bytes32",
          "name": "role",
          "type": "bytes32"
        },
        {
          "indexed": true,
          "internalType": "address",
          "name": "account",
          "type": "address"
        },
        {
          "indexed": true,
          "internalType": "address",
          "name": "sender",
          "type": "address"
        }
      ],
      "name": "RoleGranted",
      "type": "event"
    },
    {
      "anonymous": false,
      "inputs": [
        {
          "indexed": true,
          "internalType": "bytes32",
          "name": "role",
          "type": "bytes32"
        },
        {
          "indexed": true,
          "internalType": "address",
          "name": "account",
          "type": "address"
        },
        {
          "indexed": true,
          "internalType": "address",
          "name": "sender",
          "type": "address"
        }
      ],
      "name": "RoleRevoked",
      "type": "event"
    },
    {
      "anonymous": false,
      "inputs": [
        {
          "indexed": false,
          "internalType": "address",
          "name": "account",
          "type": "address"
        }
      ],
      "name": "Unpaused",
      "type": "event"
    },
    {
      "anonymous": false,
      "inputs": [
        {
          "indexed": true,
          "internalType": "address",
          "name": "implementation",
          "type": "address"
        }
      ],
      "name": "Upgraded",
      "type": "event"
    },
    {
      "inputs": [],
      "name": "DEFAULT_ADMIN_ROLE",
      "outputs": [
        {
          "internalType": "bytes32",
          "name": "",
          "type": "bytes32"
        }
      ],
      "stateMutability": "view",
      "type": "function"
    },
    {
      "inputs": [
        {
          "internalType": "address",
          "name": "_zDAOChef",
          "type": "address"
        },
        {
          "internalType": "address",
          "name": "_staking",
          "type": "address"
        },
        {
          "internalType": "uint256",
          "name": "_zDAOId",
          "type": "uint256"
        },
        {
          "internalType": "uint256",
          "name": "_duration",
          "type": "uint256"
        },
        {
          "internalType": "address",
          "name": "_token",
          "type": "address"
        }
      ],
      "name": "__ZDAO_init",
      "outputs": [],
      "stateMutability": "nonpayable",
      "type": "function"
    },
    {
      "inputs": [
        {
          "internalType": "uint256",
          "name": "_proposalId",
          "type": "uint256"
        }
      ],
      "name": "canCollectProposal",
      "outputs": [
        {
          "internalType": "bool",
          "name": "",
          "type": "bool"
        }
      ],
      "stateMutability": "view",
      "type": "function"
    },
    {
      "inputs": [
        {
          "internalType": "uint256",
          "name": "_proposalId",
          "type": "uint256"
        },
        {
          "internalType": "address",
          "name": "_voter",
          "type": "address"
        }
      ],
      "name": "canVote",
      "outputs": [
        {
          "internalType": "bool",
          "name": "",
          "type": "bool"
        }
      ],
      "stateMutability": "view",
      "type": "function"
    },
    {
      "inputs": [
        {
          "internalType": "uint256",
          "name": "_proposalId",
          "type": "uint256"
        }
      ],
      "name": "cancelProposal",
      "outputs": [],
      "stateMutability": "nonpayable",
      "type": "function"
    },
    {
      "inputs": [
        {
          "internalType": "uint256",
          "name": "_proposalId",
          "type": "uint256"
        },
        {
          "internalType": "address",
          "name": "_voter",
          "type": "address"
        }
      ],
      "name": "choiceOfVoter",
      "outputs": [
        {
          "internalType": "enum IPolyZDAO.VoterChoice",
          "name": "",
          "type": "uint8"
        }
      ],
      "stateMutability": "view",
      "type": "function"
    },
    {
      "inputs": [
        {
          "internalType": "uint256",
          "name": "_proposalId",
          "type": "uint256"
        }
      ],
      "name": "collectProposal",
      "outputs": [
        {
          "internalType": "uint256",
          "name": "voters",
          "type": "uint256"
        },
        {
          "internalType": "uint256",
          "name": "yes",
          "type": "uint256"
        },
        {
          "internalType": "uint256",
          "name": "no",
          "type": "uint256"
        }
      ],
      "stateMutability": "nonpayable",
      "type": "function"
    },
    {
      "inputs": [
        {
          "internalType": "uint256",
          "name": "_proposalId",
          "type": "uint256"
        },
        {
          "internalType": "uint256",
          "name": "_startTimestamp",
          "type": "uint256"
        }
      ],
      "name": "createProposal",
      "outputs": [],
      "stateMutability": "nonpayable",
      "type": "function"
    },
    {
      "inputs": [],
      "name": "destroyed",
      "outputs": [
        {
          "internalType": "bool",
          "name": "",
          "type": "bool"
        }
      ],
      "stateMutability": "view",
      "type": "function"
    },
    {
      "inputs": [
        {
          "internalType": "uint256",
          "name": "_proposalId",
          "type": "uint256"
        }
      ],
      "name": "executeProposal",
      "outputs": [],
      "stateMutability": "nonpayable",
      "type": "function"
    },
    {
      "inputs": [
        {
          "internalType": "bytes32",
          "name": "role",
          "type": "bytes32"
        }
      ],
      "name": "getRoleAdmin",
      "outputs": [
        {
          "internalType": "bytes32",
          "name": "",
          "type": "bytes32"
        }
      ],
      "stateMutability": "view",
      "type": "function"
    },
    {
      "inputs": [
        {
          "internalType": "bytes32",
          "name": "role",
          "type": "bytes32"
        },
        {
          "internalType": "address",
          "name": "account",
          "type": "address"
        }
      ],
      "name": "grantRole",
      "outputs": [],
      "stateMutability": "nonpayable",
      "type": "function"
    },
    {
      "inputs": [
        {
          "internalType": "bytes32",
          "name": "role",
          "type": "bytes32"
        },
        {
          "internalType": "address",
          "name": "account",
          "type": "address"
        }
      ],
      "name": "hasRole",
      "outputs": [
        {
          "internalType": "bool",
          "name": "",
          "type": "bool"
        }
      ],
      "stateMutability": "view",
      "type": "function"
    },
    {
      "inputs": [
        {
          "internalType": "uint256",
          "name": "_startIndex",
          "type": "uint256"
        },
        {
          "internalType": "uint256",
          "name": "_count",
          "type": "uint256"
        }
      ],
      "name": "listProposals",
      "outputs": [
        {
          "components": [
            {
              "internalType": "uint256",
              "name": "proposalId",
              "type": "uint256"
            },
            {
              "internalType": "uint256",
              "name": "startTimestamp",
              "type": "uint256"
            },
            {
              "internalType": "uint256",
              "name": "endTimestamp",
              "type": "uint256"
            },
            {
              "internalType": "uint256",
              "name": "yes",
              "type": "uint256"
            },
            {
              "internalType": "uint256",
              "name": "no",
              "type": "uint256"
            },
            {
              "internalType": "uint256",
              "name": "voters",
              "type": "uint256"
            },
            {
              "internalType": "uint256",
              "name": "snapshot",
              "type": "uint256"
            },
            {
              "internalType": "bool",
              "name": "collected",
              "type": "bool"
            },
            {
              "internalType": "bool",
              "name": "executed",
              "type": "bool"
            },
            {
              "internalType": "bool",
              "name": "canceled",
              "type": "bool"
            }
          ],
          "internalType": "struct IPolyZDAO.Proposal[]",
          "name": "records",
          "type": "tuple[]"
        }
      ],
      "stateMutability": "view",
      "type": "function"
    },
    {
      "inputs": [
        {
          "internalType": "uint256",
          "name": "_proposalId",
          "type": "uint256"
        },
        {
          "internalType": "uint256",
          "name": "_startIndex",
          "type": "uint256"
        },
        {
          "internalType": "uint256",
          "name": "_count",
          "type": "uint256"
        }
      ],
      "name": "listVoters",
      "outputs": [
        {
          "internalType": "address[]",
          "name": "voters",
          "type": "address[]"
        },
        {
          "internalType": "uint256[]",
          "name": "choices",
          "type": "uint256[]"
        },
        {
          "internalType": "uint256[]",
          "name": "votes",
          "type": "uint256[]"
        }
      ],
      "stateMutability": "view",
      "type": "function"
    },
    {
      "inputs": [],
      "name": "numberOfProposals",
      "outputs": [
        {
          "internalType": "uint256",
          "name": "",
          "type": "uint256"
        }
      ],
      "stateMutability": "view",
      "type": "function"
    },
    {
      "inputs": [],
      "name": "owner",
      "outputs": [
        {
          "internalType": "address",
          "name": "",
          "type": "address"
        }
      ],
      "stateMutability": "view",
      "type": "function"
    },
    {
      "inputs": [],
      "name": "paused",
      "outputs": [
        {
          "internalType": "bool",
          "name": "",
          "type": "bool"
        }
      ],
      "stateMutability": "view",
      "type": "function"
    },
    {
      "inputs": [
        {
          "internalType": "uint256",
          "name": "",
          "type": "uint256"
        }
      ],
      "name": "proposalIds",
      "outputs": [
        {
          "internalType": "uint256",
          "name": "",
          "type": "uint256"
        }
      ],
      "stateMutability": "view",
      "type": "function"
    },
    {
      "inputs": [
        {
          "internalType": "uint256",
          "name": "",
          "type": "uint256"
        }
      ],
      "name": "proposals",
      "outputs": [
        {
          "internalType": "uint256",
          "name": "proposalId",
          "type": "uint256"
        },
        {
          "internalType": "uint256",
          "name": "startTimestamp",
          "type": "uint256"
        },
        {
          "internalType": "uint256",
          "name": "endTimestamp",
          "type": "uint256"
        },
        {
          "internalType": "uint256",
          "name": "yes",
          "type": "uint256"
        },
        {
          "internalType": "uint256",
          "name": "no",
          "type": "uint256"
        },
        {
          "internalType": "uint256",
          "name": "voters",
          "type": "uint256"
        },
        {
          "internalType": "uint256",
          "name": "snapshot",
          "type": "uint256"
        },
        {
          "internalType": "bool",
          "name": "collected",
          "type": "bool"
        },
        {
          "internalType": "bool",
          "name": "executed",
          "type": "bool"
        },
        {
          "internalType": "bool",
          "name": "canceled",
          "type": "bool"
        }
      ],
      "stateMutability": "view",
      "type": "function"
    },
    {
      "inputs": [],
      "name": "renounceOwnership",
      "outputs": [],
      "stateMutability": "nonpayable",
      "type": "function"
    },
    {
      "inputs": [
        {
          "internalType": "bytes32",
          "name": "role",
          "type": "bytes32"
        },
        {
          "internalType": "address",
          "name": "account",
          "type": "address"
        }
      ],
      "name": "renounceRole",
      "outputs": [],
      "stateMutability": "nonpayable",
      "type": "function"
    },
    {
      "inputs": [
        {
          "internalType": "bytes32",
          "name": "role",
          "type": "bytes32"
        },
        {
          "internalType": "address",
          "name": "account",
          "type": "address"
        }
      ],
      "name": "revokeRole",
      "outputs": [],
      "stateMutability": "nonpayable",
      "type": "function"
    },
    {
      "inputs": [
        {
          "internalType": "bool",
          "name": "_destroyed",
          "type": "bool"
        }
      ],
      "name": "setDestroyed",
      "outputs": [],
      "stateMutability": "nonpayable",
      "type": "function"
    },
    {
      "inputs": [],
      "name": "staking",
      "outputs": [
        {
          "internalType": "contract Staking",
          "name": "",
          "type": "address"
        }
      ],
      "stateMutability": "view",
      "type": "function"
    },
    {
      "inputs": [
        {
          "internalType": "uint256",
          "name": "_proposalId",
          "type": "uint256"
        }
      ],
      "name": "state",
      "outputs": [
        {
          "internalType": "enum IPolyZDAO.ProposalState",
          "name": "",
          "type": "uint8"
        }
      ],
      "stateMutability": "view",
      "type": "function"
    },
    {
      "inputs": [
        {
          "internalType": "bytes4",
          "name": "interfaceId",
          "type": "bytes4"
        }
      ],
      "name": "supportsInterface",
      "outputs": [
        {
          "internalType": "bool",
          "name": "",
          "type": "bool"
        }
      ],
      "stateMutability": "view",
      "type": "function"
    },
    {
      "inputs": [
        {
          "internalType": "address",
          "name": "newOwner",
          "type": "address"
        }
      ],
      "name": "transferOwnership",
      "outputs": [],
      "stateMutability": "nonpayable",
      "type": "function"
    },
    {
      "inputs": [
        {
          "internalType": "address",
          "name": "newImplementation",
          "type": "address"
        }
      ],
      "name": "upgradeTo",
      "outputs": [],
      "stateMutability": "nonpayable",
      "type": "function"
    },
    {
      "inputs": [
        {
          "internalType": "address",
          "name": "newImplementation",
          "type": "address"
        },
        {
          "internalType": "bytes",
          "name": "data",
          "type": "bytes"
        }
      ],
      "name": "upgradeToAndCall",
      "outputs": [],
      "stateMutability": "payable",
      "type": "function"
    },
    {
      "inputs": [],
      "name": "version",
      "outputs": [
        {
          "internalType": "uint256",
          "name": "",
          "type": "uint256"
        }
      ],
      "stateMutability": "view",
      "type": "function"
    },
    {
      "inputs": [
        {
          "internalType": "uint256",
          "name": "_proposalId",
          "type": "uint256"
        },
        {
          "internalType": "address",
          "name": "_voter",
          "type": "address"
        },
        {
          "internalType": "uint256",
          "name": "_choice",
          "type": "uint256"
        }
      ],
      "name": "vote",
      "outputs": [],
      "stateMutability": "nonpayable",
      "type": "function"
    },
    {
      "inputs": [
        {
          "internalType": "uint256",
          "name": "_proposalId",
          "type": "uint256"
        }
      ],
      "name": "votesResultOfProposal",
      "outputs": [
        {
          "internalType": "uint256",
          "name": "voters",
          "type": "uint256"
        },
        {
          "internalType": "uint256",
          "name": "yes",
          "type": "uint256"
        },
        {
          "internalType": "uint256",
          "name": "no",
          "type": "uint256"
        }
      ],
      "stateMutability": "view",
      "type": "function"
    },
    {
      "inputs": [
        {
          "internalType": "uint256",
          "name": "_proposalId",
          "type": "uint256"
        },
        {
          "internalType": "address",
          "name": "_voter",
          "type": "address"
        }
      ],
      "name": "votingPowerOfVoter",
      "outputs": [
        {
          "internalType": "uint256",
          "name": "",
          "type": "uint256"
        }
      ],
      "stateMutability": "view",
      "type": "function"
    },
    {
      "inputs": [],
      "name": "zDAOChef",
      "outputs": [
        {
          "internalType": "address",
          "name": "",
          "type": "address"
        }
      ],
      "stateMutability": "view",
      "type": "function"
    },
    {
      "inputs": [],
      "name": "zDAOId",
      "outputs": [
        {
          "internalType": "uint256",
          "name": "",
          "type": "uint256"
        }
      ],
      "stateMutability": "view",
      "type": "function"
    },
    {
      "inputs": [],
      "name": "zDAOInfo",
      "outputs": [
        {
          "internalType": "uint256",
          "name": "zDAOId",
          "type": "uint256"
        },
        {
          "internalType": "uint256",
          "name": "duration",
          "type": "uint256"
        },
        {
          "internalType": "address",
          "name": "token",
          "type": "address"
        },
        {
          "internalType": "uint256",
          "name": "snapshot",
          "type": "uint256"
        },
        {
          "internalType": "bool",
          "name": "destroyed",
          "type": "bool"
        }
      ],
      "stateMutability": "view",
      "type": "function"
    }
  ],
  "bytecode": "0x60a06040523060805234801561001457600080fd5b506080516137a061004560003960008181610d3701528181610dcd015281816111b5015261124b01526137a06000f3fe60806040526004361061026a5760003560e01c806362a8dab9116101535780639b644a23116100cb578063cdb2867b1161007f578063d8191e6c11610064578063d8191e6c14610815578063e0a8f6f514610885578063f2fde38b146108a557600080fd5b8063cdb2867b146107d5578063d547741f146107f557600080fd5b8063a62eb632116100b0578063a62eb63214610727578063affc179314610747578063b5c23fdd146107a657600080fd5b80639b644a23146106f2578063a217fddf1461071257600080fd5b8063890cb1f3116101225780638da5cb5b116101075780638da5cb5b1461066d57806390bfeab31461068b57806391d14854146106ac57600080fd5b8063890cb1f3146106375780638d7af4731461065757600080fd5b806362a8dab9146105b55780636935bda6146105d5578063715018a6146105f55780637f6dda141461060a57600080fd5b806336568abe116101e65780634cf088d9116101b55780634f1ef2861161019a5780634f1ef2861461057357806354fd4d50146105865780635c975abb1461059d57600080fd5b80634cf088d91461051a5780634de8737c1461055357600080fd5b806336568abe1461048d5780633659cfe6146104ad5780633e4f49e6146104cd578063472858b4146104fa57600080fd5b8063151936131161023d5780632f2ff15d116102225780632f2ff15d146104345780633327374f14610454578063359cbbc91461047457600080fd5b806315193613146103e4578063248a9ca31461040457600080fd5b8063013cf08b1461026f57806301ffc9a7146103395780630d61b51914610369578063120e33da1461038b575b600080fd5b34801561027b57600080fd5b506102e461028a366004613125565b610199602052600090815260409020805460018201546002830154600384015460048501546005860154600687015460079097015495969495939492939192909160ff80821691610100810482169162010000909104168a565b604080519a8b5260208b0199909952978901969096526060880194909452608087019290925260a086015260c0850152151560e084015215156101008301521515610120820152610140015b60405180910390f35b34801561034557600080fd5b5061035961035436600461313e565b6108c5565b6040519015158152602001610330565b34801561037557600080fd5b50610389610384366004613125565b61095e565b005b34801561039757600080fd5b506103c96103a6366004613125565b600090815261019960205260409020600581015460038201546004909201549092565b60408051938452602084019290925290820152606001610330565b3480156103f057600080fd5b50610194545b604051908152602001610330565b34801561041057600080fd5b506103f661041f366004613125565b60009081526097602052604090206001015490565b34801561044057600080fd5b5061038961044f36600461319c565b610b13565b34801561046057600080fd5b5061038961046f3660046131c8565b610b3e565b34801561048057600080fd5b506101985460ff16610359565b34801561049957600080fd5b506103896104a836600461319c565b610ca4565b3480156104b957600080fd5b506103896104c836600461321f565b610d2c565b3480156104d957600080fd5b506104ed6104e8366004613125565b610eca565b6040516103309190613250565b34801561050657600080fd5b5061038961051536600461326a565b610f57565b34801561052657600080fd5b506101935461053b906001600160a01b031681565b6040516001600160a01b039091168152602001610330565b34801561055f57600080fd5b5061038961056e36600461328c565b610fb7565b6103896105813660046132d7565b6111aa565b34801561059257600080fd5b506103f66101915481565b3480156105a957600080fd5b5060fb5460ff16610359565b3480156105c157600080fd5b506103f66105d036600461319c565b611335565b3480156105e157600080fd5b506103896105f0366004613399565b611359565b34801561060157600080fd5b5061038961147e565b34801561061657600080fd5b5061062a610625366004613399565b6114e4565b60405161033091906133bb565b34801561064357600080fd5b506103c9610652366004613125565b6116b8565b34801561066357600080fd5b5061019b546103f6565b34801561067957600080fd5b506033546001600160a01b031661053b565b34801561069757600080fd5b506101925461053b906001600160a01b031681565b3480156106b857600080fd5b506103596106c736600461319c565b60009182526097602090815260408084206001600160a01b0393909316845291905290205460ff1690565b3480156106fe57600080fd5b506103f661070d366004613125565b611876565b34801561071e57600080fd5b506103f6600081565b34801561073357600080fd5b50610359610742366004613125565b611898565b34801561075357600080fd5b5061079961076236600461319c565b600091825261019a602090815260408084206001600160a01b0393909316845260019092019052902054600160a01b900460ff1690565b6040516103309190613464565b3480156107b257600080fd5b506107c66107c1366004613478565b6118a3565b604051610330939291906134df565b3480156107e157600080fd5b506103596107f036600461319c565b611ad5565b34801561080157600080fd5b5061038961081036600461319c565b611af2565b34801561082157600080fd5b50610194546101955461019654610197546101985461084d9493926001600160a01b0316919060ff1685565b6040805195865260208601949094526001600160a01b039092169284019290925260608301919091521515608082015260a001610330565b34801561089157600080fd5b506103896108a0366004613125565b611b18565b3480156108b157600080fd5b506103896108c036600461321f565b611ced565b60007fffffffff0000000000000000000000000000000000000000000000000000000082167f7965db0b00000000000000000000000000000000000000000000000000000000148061095857507f01ffc9a7000000000000000000000000000000000000000000000000000000007fffffffff000000000000000000000000000000000000000000000000000000008316145b92915050565b610192546001600160a01b031633146109af5760405162461bcd60e51b815260206004820152600e60248201526d2737ba1030902d2220a7a1b432b360911b60448201526064015b60405180910390fd5b6101985460ff1615610a035760405162461bcd60e51b815260206004820152601160248201527f416c72656164792064657374726f79656400000000000000000000000000000060448201526064016109a6565b6000818152610199602052604090205481908114610a635760405162461bcd60e51b815260206004820152601060248201527f496e76616c69642070726f706f73616c0000000000000000000000000000000060448201526064016109a6565b6000828152610199602052604090206007015462010000900460ff16158015610a9e57506000828152610199602052604090206007015460ff165b610aea5760405162461bcd60e51b815260206004820152601460248201527f4e6f7420612076616c69642070726f706f73616c00000000000000000000000060448201526064016109a6565b610b0f82600090815261019960205260409020600701805461ff001916610100179055565b5050565b600082815260976020526040902060010154610b2f8133611dcc565b610b398383611e4c565b505050565b600054610100900460ff16610b595760005460ff1615610b5d565b303b155b610bcf5760405162461bcd60e51b815260206004820152602e60248201527f496e697469616c697a61626c653a20636f6e747261637420697320616c72656160448201527f647920696e697469616c697a656400000000000000000000000000000000000060648201526084016109a6565b600054610100900460ff16158015610bf1576000805461ffff19166101011790555b610bf9611eee565b61019280546001600160a01b0380891673ffffffffffffffffffffffffffffffffffffffff199283161790925561019380548884169083161790556040805160a0810182528781526020810187905292851690830181905243606084018190526000608090940193909352610194879055610195869055610196805490921617905561019755610198805460ff191690558015610c9c576000805461ff00191690555b505050505050565b6001600160a01b0381163314610d225760405162461bcd60e51b815260206004820152602f60248201527f416363657373436f6e74726f6c3a2063616e206f6e6c792072656e6f756e636560448201527f20726f6c657320666f722073656c66000000000000000000000000000000000060648201526084016109a6565b610b0f8282611fc5565b306001600160a01b037f0000000000000000000000000000000000000000000000000000000000000000161415610dcb5760405162461bcd60e51b815260206004820152602c60248201527f46756e6374696f6e206d7573742062652063616c6c6564207468726f7567682060448201527f64656c656761746563616c6c000000000000000000000000000000000000000060648201526084016109a6565b7f00000000000000000000000000000000000000000000000000000000000000006001600160a01b0316610e267f360894a13ba1a3210667c828492db98dca3e2076cc3735a920a3ca505d382bbc546001600160a01b031690565b6001600160a01b031614610ea25760405162461bcd60e51b815260206004820152602c60248201527f46756e6374696f6e206d7573742062652063616c6c6564207468726f7567682060448201527f6163746976652070726f7879000000000000000000000000000000000000000060648201526084016109a6565b610eab81612048565b60408051600080825260208201909252610ec7918391906120a2565b50565b600081815261019960205260408120600781015462010000900460ff1615610ef55750600292915050565b80600101544211610f095750600092915050565b80600201544211610f1d5750600192915050565b6007810154610100900460ff1615610f385750600392915050565b600781015460ff1615610f4e5750600592915050565b50600492915050565b610192546001600160a01b03163314610fa35760405162461bcd60e51b815260206004820152600e60248201526d2737ba1030902d2220a7a1b432b360911b60448201526064016109a6565b610198805460ff1916911515919091179055565b610192546001600160a01b031633146110035760405162461bcd60e51b815260206004820152600e60248201526d2737ba1030902d2220a7a1b432b360911b60448201526064016109a6565b6101985460ff16156110575760405162461bcd60e51b815260206004820152601160248201527f416c72656164792064657374726f79656400000000000000000000000000000060448201526064016109a6565b60008381526101996020526040902054839081146110b75760405162461bcd60e51b815260206004820152601060248201527f496e76616c69642070726f706f73616c0000000000000000000000000000000060448201526064016109a6565b60018214806110c65750600282145b6111125760405162461bcd60e51b815260206004820152600e60248201527f496e76616c69642063686f69636500000000000000000000000000000000000060448201526064016109a6565b6101965461112c90859085906001600160a01b0316612266565b6111785760405162461bcd60e51b815260206004820152601460248201527f4e6f742076616c696420666f7220766f74696e6700000000000000000000000060448201526064016109a6565b610196546111a490859085906001600160a01b031685600281111561119f5761119f61323a565b612345565b50505050565b306001600160a01b037f00000000000000000000000000000000000000000000000000000000000000001614156112495760405162461bcd60e51b815260206004820152602c60248201527f46756e6374696f6e206d7573742062652063616c6c6564207468726f7567682060448201527f64656c656761746563616c6c000000000000000000000000000000000000000060648201526084016109a6565b7f00000000000000000000000000000000000000000000000000000000000000006001600160a01b03166112a47f360894a13ba1a3210667c828492db98dca3e2076cc3735a920a3ca505d382bbc546001600160a01b031690565b6001600160a01b0316146113205760405162461bcd60e51b815260206004820152602c60248201527f46756e6374696f6e206d7573742062652063616c6c6564207468726f7567682060448201527f6163746976652070726f7879000000000000000000000000000000000000000060648201526084016109a6565b61132982612048565b610b0f828260016120a2565b6101965460009061135290849084906001600160a01b0316612547565b9392505050565b610192546001600160a01b031633146113a55760405162461bcd60e51b815260206004820152600e60248201526d2737ba1030902d2220a7a1b432b360911b60448201526064016109a6565b6101985460ff16156113f95760405162461bcd60e51b815260206004820152601160248201527f416c72656164792064657374726f79656400000000000000000000000000000060448201526064016109a6565b600082118015611416575060008281526101996020526040902054155b6114625760405162461bcd60e51b815260206004820152601c60248201527f50726f706f73616c2077617320616c726561647920637265617465640000000060448201526064016109a6565b610b0f82826101946001015484611479919061356a565b6125fa565b6033546001600160a01b031633146114d85760405162461bcd60e51b815260206004820181905260248201527f4f776e61626c653a2063616c6c6572206973206e6f7420746865206f776e657260448201526064016109a6565b6114e26000612755565b565b61019b5460609082906114f8908590613582565b8111156115115761019b5461150e908590613582565b90505b8067ffffffffffffffff81111561152a5761152a6132c1565b6040519080825280602002602001820160405280156115b757816020015b6115a4604051806101400160405280600081526020016000815260200160008152602001600081526020016000815260200160008152602001600081526020016000151581526020016000151581526020016000151581525090565b8152602001906001900390816115485790505b50915060005b818110156116b057610199600061019b6115d7848961356a565b815481106115e7576115e7613599565b600091825260208083209091015483528281019390935260409182019020815161014081018352815481526001820154938101939093526002810154918301919091526003810154606083015260048101546080830152600581015460a0830152600681015460c08301526007015460ff808216151560e0840152610100808304821615159084015262010000909104161515610120820152835184908390811061169457611694613599565b6020026020010181905250806116a9906135af565b90506115bd565b505092915050565b61019254600090819081906001600160a01b0316331461170b5760405162461bcd60e51b815260206004820152600e60248201526d2737ba1030902d2220a7a1b432b360911b60448201526064016109a6565b6101985460ff161561175f5760405162461bcd60e51b815260206004820152601160248201527f416c72656164792064657374726f79656400000000000000000000000000000060448201526064016109a6565b60008481526101996020526040902054849081146117bf5760405162461bcd60e51b815260206004820152601060248201527f496e76616c69642070726f706f73616c0000000000000000000000000000000060448201526064016109a6565b600085815261019960205260409020600781015462010000900460ff161580156117ee5750600781015460ff16155b80156117fd5750806002015442115b6118495760405162461bcd60e51b815260206004820152601460248201527f4e6f7420612076616c69642070726f706f73616c00000000000000000000000060448201526064016109a6565b6005810154600382015460048301546007909301805460ff19166001179055909790965090945092505050565b61019b818154811061188757600080fd5b600091825260209091200154905081565b6000610958826127b4565b600083815261019a602052604090208054606091829182919085906118c9908890613582565b8111156118e05781546118dd908890613582565b90505b8067ffffffffffffffff8111156118f9576118f96132c1565b604051908082528060200260200182016040528015611922578160200160208202803683370190505b5094508067ffffffffffffffff81111561193e5761193e6132c1565b604051908082528060200260200182016040528015611967578160200160208202803683370190505b5093508067ffffffffffffffff811115611983576119836132c1565b6040519080825280602002602001820160405280156119ac578160200160208202803683370190505b5092506000805b82811015611ac857836119c6828b61356a565b815481106119d6576119d6613599565b9060005260206000200160009054906101000a90046001600160a01b0316915081878281518110611a0957611a09613599565b6001600160a01b039283166020918202929092018101919091529083166000908152600186019091526040902054600160a01b900460ff166002811115611a5257611a5261323a565b868281518110611a6457611a64613599565b602002602001018181525050836001016000836001600160a01b03166001600160a01b0316815260200190815260200160002060010154858281518110611aad57611aad613599565b6020908102919091010152611ac1816135af565b90506119b3565b5050505093509350939050565b6101965460009061135290849084906001600160a01b0316612266565b600082815260976020526040902060010154611b0e8133611dcc565b610b398383611fc5565b610192546001600160a01b03163314611b645760405162461bcd60e51b815260206004820152600e60248201526d2737ba1030902d2220a7a1b432b360911b60448201526064016109a6565b6101985460ff1615611bb85760405162461bcd60e51b815260206004820152601160248201527f416c72656164792064657374726f79656400000000000000000000000000000060448201526064016109a6565b6000818152610199602052604090205481908114611c185760405162461bcd60e51b815260206004820152601060248201527f496e76616c69642070726f706f73616c0000000000000000000000000000000060448201526064016109a6565b6000828152610199602052604090206007015462010000900460ff16158015611c5457506000828152610199602052604090206007015460ff16155b611cc65760405162461bcd60e51b815260206004820152602660248201527f416c72656164792063616e63656c6564206f7220636f6c6c656374656420707260448201527f6f706f73616c000000000000000000000000000000000000000000000000000060648201526084016109a6565b610b0f82600090815261019960205260409020600701805462ff0000191662010000179055565b6033546001600160a01b03163314611d475760405162461bcd60e51b815260206004820181905260248201527f4f776e61626c653a2063616c6c6572206973206e6f7420746865206f776e657260448201526064016109a6565b6001600160a01b038116611dc35760405162461bcd60e51b815260206004820152602660248201527f4f776e61626c653a206e6577206f776e657220697320746865207a65726f206160448201527f646472657373000000000000000000000000000000000000000000000000000060648201526084016109a6565b610ec781612755565b60008281526097602090815260408083206001600160a01b038516845290915290205460ff16610b0f57611e0a816001600160a01b031660146127da565b611e158360206127da565b604051602001611e269291906135f6565b60408051601f198184030181529082905262461bcd60e51b82526109a6916004016136a3565b60008281526097602090815260408083206001600160a01b038516845290915290205460ff16610b0f5760008281526097602090815260408083206001600160a01b03851684529091529020805460ff19166001179055611eaa3390565b6001600160a01b0316816001600160a01b0316837f2f8788117e7eff1d82e926ec794901d17c78024a50270940304540a733656f0d60405160405180910390a45050565b600054610100900460ff16611f595760405162461bcd60e51b815260206004820152602b60248201527f496e697469616c697a61626c653a20636f6e7472616374206973206e6f74206960448201526a6e697469616c697a696e6760a81b60648201526084016109a6565b611f61612a03565b611f69612a7e565b611f71612b01565b611f79612b74565b611f81612bef565b6001610191819055604080518082019091528181527f760000000000000000000000000000000000000000000000000000000000000060208201526114e291612c5a565b60008281526097602090815260408083206001600160a01b038516845290915290205460ff1615610b0f5760008281526097602090815260408083206001600160a01b0385168085529252808320805460ff1916905551339285917ff6391f5c32d9c69d2a47ea670b442974b53935d1edc7fd64eb21e047a839171b9190a45050565b6033546001600160a01b03163314610ec75760405162461bcd60e51b815260206004820181905260248201527f4f776e61626c653a2063616c6c6572206973206e6f7420746865206f776e657260448201526064016109a6565b60006120d57f360894a13ba1a3210667c828492db98dca3e2076cc3735a920a3ca505d382bbc546001600160a01b031690565b90506120e084612ccd565b6000835111806120ed5750815b156120fe576120fc8484612d8f565b505b7f4910fdfa16fed3260ed0e7147f7cc6da11a60208b5b9406d12a635614ffd9143805460ff1661225f57805460ff191660011781556040516001600160a01b03831660248201526121ab90869060440160408051601f198184030181529190526020810180517bffffffffffffffffffffffffffffffffffffffffffffffffffffffff167f3659cfe600000000000000000000000000000000000000000000000000000000179052612d8f565b50805460ff191681557f360894a13ba1a3210667c828492db98dca3e2076cc3735a920a3ca505d382bbc546001600160a01b038381169116146122565760405162461bcd60e51b815260206004820152602f60248201527f45524331393637557067726164653a207570677261646520627265616b73206660448201527f757274686572207570677261646573000000000000000000000000000000000060648201526084016109a6565b61225f85612e91565b5050505050565b60008381526101996020526040812080548514158061228b575061228981612ed1565b155b1561229a576000915050611352565b6101935460068201546040517fbcf4d4160000000000000000000000000000000000000000000000000000000081526001600160a01b03878116600483015286811660248301526044820192909252600092919091169063bcf4d41690606401602060405180830381865afa158015612317573d6000803e3d6000fd5b505050506040513d601f19601f8201168201806040525081019061233b91906136b6565b1195945050505050565b60008481526101996020908152604080832061019a83528184206001600160a01b038816855260018101909352908320549092600160a01b90910460ff169061238f888888612547565b905060018260028111156123a5576123a561323a565b14156123ca57808460030160008282546123bf9190613582565b909155506124319050565b60028260028111156123de576123de61323a565b14156123f857808460040160008282546123bf9190613582565b825460018101845560008481526020902001805473ffffffffffffffffffffffffffffffffffffffff19166001600160a01b0389161790555b6001600160a01b03871660008181526001850160205260409020805473ffffffffffffffffffffffffffffffffffffffff1981168317825587927fffffffffffffffffffffff00000000000000000000000000000000000000000090911617600160a01b8360028111156124a7576124a761323a565b02179055506001600160a01b03871660009081526001808501602052604090912081018290558560028111156124df576124df61323a565b141561250457808460030160008282546124f9919061356a565b909155506125389050565b60028560028111156125185761251861323a565b14156125385780846004016000828254612532919061356a565b90915550505b50505460059091015550505050565b61019354600084815261019960205260408082206006015490517fbcf4d4160000000000000000000000000000000000000000000000000000000081526001600160a01b038681166004830152858116602483015260448201929092529192169063bcf4d41690606401602060405180830381865afa1580156125ce573d6000803e3d6000fd5b505050506040513d601f19601f820116820180604052508101906125f291906136b6565b949350505050565b60008381526101996020526040902054156126575760405162461bcd60e51b815260206004820152601860248201527f416c72656164792070726f706f73616c2063726561746564000000000000000060448201526064016109a6565b604080516101408101825284815260208082019485528183019384526000606083018181526080840182815260a085018381524360c0870190815260e087018581526101008089018781526101208a018881528e8952610199909952998720985189559a516001808a019190915599516002890155935160038801559151600487015551600586015551600685015551600790930180549451925161ffff1990951693151561ff001916939093179115159095021762ff00001916620100009215159290920291909117905561019b805491820181559091527f24aeb2cd7b2cf328da485c24efd7197e86108b05bbc525c1db80c96ffdf7e1290155565b603380546001600160a01b0383811673ffffffffffffffffffffffffffffffffffffffff19831681179093556040519116919082907f8be0079c531659141344cd1fd0a4f28419497f9722a3daafe3b4186f6b6457e090600090a35050565b600081815261019960205260408120805483148015611352575060028101544211611352565b606060006127e98360026136cf565b6127f490600261356a565b67ffffffffffffffff81111561280c5761280c6132c1565b6040519080825280601f01601f191660200182016040528015612836576020820181803683370190505b5090507f30000000000000000000000000000000000000000000000000000000000000008160008151811061286d5761286d613599565b60200101907effffffffffffffffffffffffffffffffffffffffffffffffffffffffffffff1916908160001a9053507f7800000000000000000000000000000000000000000000000000000000000000816001815181106128d0576128d0613599565b60200101907effffffffffffffffffffffffffffffffffffffffffffffffffffffffffffff1916908160001a905350600061290c8460026136cf565b61291790600161356a565b90505b60018111156129b4577f303132333435363738396162636465660000000000000000000000000000000085600f166010811061295857612958613599565b1a60f81b82828151811061296e5761296e613599565b60200101907effffffffffffffffffffffffffffffffffffffffffffffffffffffffffffff1916908160001a90535060049490941c936129ad816136ee565b905061291a565b5083156113525760405162461bcd60e51b815260206004820181905260248201527f537472696e67733a20686578206c656e67746820696e73756666696369656e7460448201526064016109a6565b600054610100900460ff16612a6e5760405162461bcd60e51b815260206004820152602b60248201527f496e697469616c697a61626c653a20636f6e7472616374206973206e6f74206960448201526a6e697469616c697a696e6760a81b60648201526084016109a6565b612a76612f03565b6114e2612f6e565b600054610100900460ff16612ae95760405162461bcd60e51b815260206004820152602b60248201527f496e697469616c697a61626c653a20636f6e7472616374206973206e6f74206960448201526a6e697469616c697a696e6760a81b60648201526084016109a6565b612af1612f03565b612af9612f03565b6114e2612f03565b600054610100900460ff16612b6c5760405162461bcd60e51b815260206004820152602b60248201527f496e697469616c697a61626c653a20636f6e7472616374206973206e6f74206960448201526a6e697469616c697a696e6760a81b60648201526084016109a6565b6114e2612fe2565b600054610100900460ff16612bdf5760405162461bcd60e51b815260206004820152602b60248201527f496e697469616c697a61626c653a20636f6e7472616374206973206e6f74206960448201526a6e697469616c697a696e6760a81b60648201526084016109a6565b612be7612f03565b6114e2613054565b600054610100900460ff16612af15760405162461bcd60e51b815260206004820152602b60248201527f496e697469616c697a61626c653a20636f6e7472616374206973206e6f74206960448201526a6e697469616c697a696e6760a81b60648201526084016109a6565b610b0f8282604051602401612c70929190613705565b60408051601f198184030181529190526020810180517bffffffffffffffffffffffffffffffffffffffffffffffffffffffff167f9710a9d0000000000000000000000000000000000000000000000000000000001790526130cb565b803b612d415760405162461bcd60e51b815260206004820152602d60248201527f455243313936373a206e657720696d706c656d656e746174696f6e206973206e60448201527f6f74206120636f6e74726163740000000000000000000000000000000000000060648201526084016109a6565b7f360894a13ba1a3210667c828492db98dca3e2076cc3735a920a3ca505d382bbc805473ffffffffffffffffffffffffffffffffffffffff19166001600160a01b0392909216919091179055565b6060823b612e055760405162461bcd60e51b815260206004820152602660248201527f416464726573733a2064656c65676174652063616c6c20746f206e6f6e2d636f60448201527f6e7472616374000000000000000000000000000000000000000000000000000060648201526084016109a6565b600080846001600160a01b031684604051612e209190613727565b600060405180830381855af49150503d8060008114612e5b576040519150601f19603f3d011682016040523d82523d6000602084013e612e60565b606091505b5091509150612e888282604051806060016040528060278152602001613744602791396130ec565b95945050505050565b612e9a81612ccd565b6040516001600160a01b038216907fbc7cd75a20ee27fd9adebab32041f755214dbc6bffa90cc0225b39da2e5c2d3b90600090a250565b600081600101544210158015612eea5750816002015442105b80156109585750506007015462010000900460ff161590565b600054610100900460ff166114e25760405162461bcd60e51b815260206004820152602b60248201527f496e697469616c697a61626c653a20636f6e7472616374206973206e6f74206960448201526a6e697469616c697a696e6760a81b60648201526084016109a6565b600054610100900460ff16612fd95760405162461bcd60e51b815260206004820152602b60248201527f496e697469616c697a61626c653a20636f6e7472616374206973206e6f74206960448201526a6e697469616c697a696e6760a81b60648201526084016109a6565b6114e233612755565b600054610100900460ff1661304d5760405162461bcd60e51b815260206004820152602b60248201527f496e697469616c697a61626c653a20636f6e7472616374206973206e6f74206960448201526a6e697469616c697a696e6760a81b60648201526084016109a6565b600160c955565b600054610100900460ff166130bf5760405162461bcd60e51b815260206004820152602b60248201527f496e697469616c697a61626c653a20636f6e7472616374206973206e6f74206960448201526a6e697469616c697a696e6760a81b60648201526084016109a6565b60fb805460ff19169055565b80516a636f6e736f6c652e6c6f67602083016000808483855afa5050505050565b606083156130fb575081611352565b82511561310b5782518084602001fd5b8160405162461bcd60e51b81526004016109a691906136a3565b60006020828403121561313757600080fd5b5035919050565b60006020828403121561315057600080fd5b81357fffffffff000000000000000000000000000000000000000000000000000000008116811461135257600080fd5b80356001600160a01b038116811461319757600080fd5b919050565b600080604083850312156131af57600080fd5b823591506131bf60208401613180565b90509250929050565b600080600080600060a086880312156131e057600080fd5b6131e986613180565b94506131f760208701613180565b9350604086013592506060860135915061321360808701613180565b90509295509295909350565b60006020828403121561323157600080fd5b61135282613180565b634e487b7160e01b600052602160045260246000fd5b60208101600683106132645761326461323a565b91905290565b60006020828403121561327c57600080fd5b8135801515811461135257600080fd5b6000806000606084860312156132a157600080fd5b833592506132b160208501613180565b9150604084013590509250925092565b634e487b7160e01b600052604160045260246000fd5b600080604083850312156132ea57600080fd5b6132f383613180565b9150602083013567ffffffffffffffff8082111561331057600080fd5b818501915085601f83011261332457600080fd5b813581811115613336576133366132c1565b604051601f8201601f19908116603f0116810190838211818310171561335e5761335e6132c1565b8160405282815288602084870101111561337757600080fd5b8260208601602083013760006020848301015280955050505050509250929050565b600080604083850312156133ac57600080fd5b50508035926020909101359150565b602080825282518282018190526000919060409081850190868401855b828110156134575781518051855286810151878601528581015186860152606080820151908601526080808201519086015260a0808201519086015260c0808201519086015260e080820151151590860152610100808201511515908601526101209081015115159085015261014090930192908501906001016133d8565b5091979650505050505050565b60208101600383106132645761326461323a565b60008060006060848603121561348d57600080fd5b505081359360208301359350604090920135919050565b600081518084526020808501945080840160005b838110156134d4578151875295820195908201906001016134b8565b509495945050505050565b606080825284519082018190526000906020906080840190828801845b828110156135215781516001600160a01b0316845292840192908401906001016134fc565b5050508381038285015261353581876134a4565b915050828103604084015261354a81856134a4565b9695505050505050565b634e487b7160e01b600052601160045260246000fd5b6000821982111561357d5761357d613554565b500190565b60008282101561359457613594613554565b500390565b634e487b7160e01b600052603260045260246000fd5b60006000198214156135c3576135c3613554565b5060010190565b60005b838110156135e55781810151838201526020016135cd565b838111156111a45750506000910152565b7f416363657373436f6e74726f6c3a206163636f756e742000000000000000000081526000835161362e8160178501602088016135ca565b7f206973206d697373696e6720726f6c6520000000000000000000000000000000601791840191820152835161366b8160288401602088016135ca565b01602801949350505050565b6000815180845261368f8160208601602086016135ca565b601f01601f19169290920160200192915050565b6020815260006113526020830184613677565b6000602082840312156136c857600080fd5b5051919050565b60008160001904831182151516156136e9576136e9613554565b500290565b6000816136fd576136fd613554565b506000190190565b6040815260006137186040830185613677565b90508260208301529392505050565b600082516137398184602087016135ca565b919091019291505056fe416464726573733a206c6f772d6c6576656c2064656c65676174652063616c6c206661696c6564a264697066735822122035338ea8b08c4f4caa2ee81ce99b5604436c1c6bb5018353eacadd4c0f9a7f4e64736f6c634300080b0033",
  "linkReferences": {},
  "deployedLinkReferences": {}
}