{
  "_format": "hh-sol-artifact-1",
  "contractName": "PolyZDAOChef",
  "sourceName": "contracts/polygon/PolyZDAOChef.sol",
  "abi": [
    {
      "anonymous": false,
      "inputs": [
        {
          "indexed": false,
          "internalType": "address",
          "name": "previousAdmin",
          "type": "address"
        },
        {
          "indexed": false,
          "internalType": "address",
          "name": "newAdmin",
          "type": "address"
        }
      ],
      "name": "AdminChanged",
      "type": "event"
    },
    {
      "anonymous": false,
      "inputs": [
        {
          "indexed": true,
          "internalType": "address",
          "name": "beacon",
          "type": "address"
        }
      ],
      "name": "BeaconUpgraded",
      "type": "event"
    },
    {
      "anonymous": false,
      "inputs": [
        {
          "indexed": true,
          "internalType": "uint256",
          "name": "_zDAOId",
          "type": "uint256"
        },
        {
          "indexed": true,
          "internalType": "uint256",
          "name": "_proposalId",
          "type": "uint256"
        },
        {
          "indexed": true,
          "internalType": "address",
          "name": "_voter",
          "type": "address"
        },
        {
          "indexed": false,
          "internalType": "uint256",
          "name": "_choice",
          "type": "uint256"
        }
      ],
      "name": "CastVote",
      "type": "event"
    },
    {
      "anonymous": false,
      "inputs": [
        {
          "indexed": true,
          "internalType": "address",
          "name": "_zDAO",
          "type": "address"
        },
        {
          "indexed": true,
          "internalType": "uint256",
          "name": "_daoId",
          "type": "uint256"
        },
        {
          "indexed": false,
          "internalType": "uint256",
          "name": "_duration",
          "type": "uint256"
        }
      ],
      "name": "DAOCreated",
      "type": "event"
    },
    {
      "anonymous": false,
      "inputs": [
        {
          "indexed": true,
          "internalType": "uint256",
          "name": "_daoId",
          "type": "uint256"
        }
      ],
      "name": "DAODestroyed",
      "type": "event"
    },
    {
      "anonymous": false,
      "inputs": [
        {
          "indexed": true,
          "internalType": "address",
          "name": "previousOwner",
          "type": "address"
        },
        {
          "indexed": true,
          "internalType": "address",
          "name": "newOwner",
          "type": "address"
        }
      ],
      "name": "OwnershipTransferred",
      "type": "event"
    },
    {
      "anonymous": false,
      "inputs": [
        {
          "indexed": false,
          "internalType": "address",
          "name": "account",
          "type": "address"
        }
      ],
      "name": "Paused",
      "type": "event"
    },
    {
      "anonymous": false,
      "inputs": [
        {
          "indexed": true,
          "internalType": "uint256",
          "name": "_zDAOId",
          "type": "uint256"
        },
        {
          "indexed": true,
          "internalType": "uint256",
          "name": "_proposalId",
          "type": "uint256"
        }
      ],
      "name": "ProposalCanceled",
      "type": "event"
    },
    {
      "anonymous": false,
      "inputs": [
        {
          "indexed": true,
          "internalType": "uint256",
          "name": "_zDAOId",
          "type": "uint256"
        },
        {
          "indexed": true,
          "internalType": "uint256",
          "name": "_proposalId",
          "type": "uint256"
        },
        {
          "indexed": false,
          "internalType": "uint256",
          "name": "_voters",
          "type": "uint256"
        },
        {
          "indexed": false,
          "internalType": "uint256",
          "name": "_yes",
          "type": "uint256"
        },
        {
          "indexed": false,
          "internalType": "uint256",
          "name": "_no",
          "type": "uint256"
        }
      ],
      "name": "ProposalCollected",
      "type": "event"
    },
    {
      "anonymous": false,
      "inputs": [
        {
          "indexed": true,
          "internalType": "uint256",
          "name": "_zDAOId",
          "type": "uint256"
        },
        {
          "indexed": true,
          "internalType": "uint256",
          "name": "_proposalId",
          "type": "uint256"
        },
        {
          "indexed": false,
          "internalType": "uint256",
          "name": "_startTimestamp",
          "type": "uint256"
        }
      ],
      "name": "ProposalCreated",
      "type": "event"
    },
    {
      "anonymous": false,
      "inputs": [
        {
          "indexed": true,
          "internalType": "uint256",
          "name": "_zDAOId",
          "type": "uint256"
        },
        {
          "indexed": true,
          "internalType": "uint256",
          "name": "_proposalId",
          "type": "uint256"
        }
      ],
      "name": "ProposalExecuted",
      "type": "event"
    },
    {
      "anonymous": false,
      "inputs": [
        {
          "indexed": true,
          "internalType": "bytes32",
          "name": "role",
          "type": "bytes32"
        },
        {
          "indexed": true,
          "internalType": "bytes32",
          "name": "previousAdminRole",
          "type": "bytes32"
        },
        {
          "indexed": true,
          "internalType": "bytes32",
          "name": "newAdminRole",
          "type": "bytes32"
        }
      ],
      "name": "RoleAdminChanged",
      "type": "event"
    },
    {
      "anonymous": false,
      "inputs": [
        {
          "indexed": true,
          "internalType": "bytes32",
          "name": "role",
          "type": "bytes32"
        },
        {
          "indexed": true,
          "internalType": "address",
          "name": "account",
          "type": "address"
        },
        {
          "indexed": true,
          "internalType": "address",
          "name": "sender",
          "type": "address"
        }
      ],
      "name": "RoleGranted",
      "type": "event"
    },
    {
      "anonymous": false,
      "inputs": [
        {
          "indexed": true,
          "internalType": "bytes32",
          "name": "role",
          "type": "bytes32"
        },
        {
          "indexed": true,
          "internalType": "address",
          "name": "account",
          "type": "address"
        },
        {
          "indexed": true,
          "internalType": "address",
          "name": "sender",
          "type": "address"
        }
      ],
      "name": "RoleRevoked",
      "type": "event"
    },
    {
      "anonymous": false,
      "inputs": [
        {
          "indexed": false,
          "internalType": "address",
          "name": "account",
          "type": "address"
        }
      ],
      "name": "Unpaused",
      "type": "event"
    },
    {
      "anonymous": false,
      "inputs": [
        {
          "indexed": true,
          "internalType": "address",
          "name": "implementation",
          "type": "address"
        }
      ],
      "name": "Upgraded",
      "type": "event"
    },
    {
      "inputs": [],
      "name": "DEFAULT_ADMIN_ROLE",
      "outputs": [
        {
          "internalType": "bytes32",
          "name": "",
          "type": "bytes32"
        }
      ],
      "stateMutability": "view",
      "type": "function"
    },
    {
      "inputs": [
        {
          "internalType": "contract Staking",
          "name": "_stakingBase",
          "type": "address"
        },
        {
          "internalType": "contract IChildStateSender",
          "name": "_childStateSender",
          "type": "address"
        },
        {
          "internalType": "address",
          "name": "_zDAOBase",
          "type": "address"
        },
        {
          "internalType": "contract IChildChainManager",
          "name": "_childChainManager",
          "type": "address"
        }
      ],
      "name": "__ZDAOChef_init",
      "outputs": [],
      "stateMutability": "nonpayable",
      "type": "function"
    },
    {
      "inputs": [],
      "name": "childChainManager",
      "outputs": [
        {
          "internalType": "contract IChildChainManager",
          "name": "",
          "type": "address"
        }
      ],
      "stateMutability": "view",
      "type": "function"
    },
    {
      "inputs": [],
      "name": "childStateSender",
      "outputs": [
        {
          "internalType": "contract IChildStateSender",
          "name": "",
          "type": "address"
        }
      ],
      "stateMutability": "view",
      "type": "function"
    },
    {
      "inputs": [
        {
          "internalType": "uint256",
          "name": "_daoId",
          "type": "uint256"
        },
        {
          "internalType": "uint256",
          "name": "_proposalId",
          "type": "uint256"
        }
      ],
      "name": "collectProposal",
      "outputs": [],
      "stateMutability": "nonpayable",
      "type": "function"
    },
    {
      "inputs": [
        {
          "internalType": "bytes32",
          "name": "role",
          "type": "bytes32"
        }
      ],
      "name": "getRoleAdmin",
      "outputs": [
        {
          "internalType": "bytes32",
          "name": "",
          "type": "bytes32"
        }
      ],
      "stateMutability": "view",
      "type": "function"
    },
    {
      "inputs": [
        {
          "internalType": "uint256",
          "name": "_daoId",
          "type": "uint256"
        }
      ],
      "name": "getzDAOById",
      "outputs": [
        {
          "internalType": "contract IPolyZDAO",
          "name": "",
          "type": "address"
        }
      ],
      "stateMutability": "view",
      "type": "function"
    },
    {
      "inputs": [
        {
          "internalType": "bytes32",
          "name": "role",
          "type": "bytes32"
        },
        {
          "internalType": "address",
          "name": "account",
          "type": "address"
        }
      ],
      "name": "grantRole",
      "outputs": [],
      "stateMutability": "nonpayable",
      "type": "function"
    },
    {
      "inputs": [
        {
          "internalType": "bytes32",
          "name": "role",
          "type": "bytes32"
        },
        {
          "internalType": "address",
          "name": "account",
          "type": "address"
        }
      ],
      "name": "hasRole",
      "outputs": [
        {
          "internalType": "bool",
          "name": "",
          "type": "bool"
        }
      ],
      "stateMutability": "view",
      "type": "function"
    },
    {
      "inputs": [
        {
          "internalType": "uint256",
          "name": "_startIndex",
          "type": "uint256"
        },
        {
          "internalType": "uint256",
          "name": "_count",
          "type": "uint256"
        }
      ],
      "name": "listzDAOs",
      "outputs": [
        {
          "internalType": "contract IPolyZDAO[]",
          "name": "records",
          "type": "address[]"
        }
      ],
      "stateMutability": "view",
      "type": "function"
    },
    {
      "inputs": [],
      "name": "numberOfzDAOs",
      "outputs": [
        {
          "internalType": "uint256",
          "name": "",
          "type": "uint256"
        }
      ],
      "stateMutability": "view",
      "type": "function"
    },
    {
      "inputs": [],
      "name": "owner",
      "outputs": [
        {
          "internalType": "address",
          "name": "",
          "type": "address"
        }
      ],
      "stateMutability": "view",
      "type": "function"
    },
    {
      "inputs": [],
      "name": "paused",
      "outputs": [
        {
          "internalType": "bool",
          "name": "",
          "type": "bool"
        }
      ],
      "stateMutability": "view",
      "type": "function"
    },
    {
      "inputs": [
        {
          "internalType": "bytes",
          "name": "_message",
          "type": "bytes"
        }
      ],
      "name": "processMessageFromRoot",
      "outputs": [],
      "stateMutability": "nonpayable",
      "type": "function"
    },
    {
      "inputs": [],
      "name": "renounceOwnership",
      "outputs": [],
      "stateMutability": "nonpayable",
      "type": "function"
    },
    {
      "inputs": [
        {
          "internalType": "bytes32",
          "name": "role",
          "type": "bytes32"
        },
        {
          "internalType": "address",
          "name": "account",
          "type": "address"
        }
      ],
      "name": "renounceRole",
      "outputs": [],
      "stateMutability": "nonpayable",
      "type": "function"
    },
    {
      "inputs": [
        {
          "internalType": "bytes32",
          "name": "role",
          "type": "bytes32"
        },
        {
          "internalType": "address",
          "name": "account",
          "type": "address"
        }
      ],
      "name": "revokeRole",
      "outputs": [],
      "stateMutability": "nonpayable",
      "type": "function"
    },
    {
      "inputs": [
        {
          "internalType": "contract Staking",
          "name": "_staking",
          "type": "address"
        }
      ],
      "name": "setStaking",
      "outputs": [],
      "stateMutability": "nonpayable",
      "type": "function"
    },
    {
      "inputs": [
        {
          "internalType": "address",
          "name": "_zDAOBase",
          "type": "address"
        }
      ],
      "name": "setZDAOBase",
      "outputs": [],
      "stateMutability": "nonpayable",
      "type": "function"
    },
    {
      "inputs": [],
      "name": "staking",
      "outputs": [
        {
          "internalType": "contract Staking",
          "name": "",
          "type": "address"
        }
      ],
      "stateMutability": "view",
      "type": "function"
    },
    {
      "inputs": [
        {
          "internalType": "bytes4",
          "name": "interfaceId",
          "type": "bytes4"
        }
      ],
      "name": "supportsInterface",
      "outputs": [
        {
          "internalType": "bool",
          "name": "",
          "type": "bool"
        }
      ],
      "stateMutability": "view",
      "type": "function"
    },
    {
      "inputs": [
        {
          "internalType": "address",
          "name": "newOwner",
          "type": "address"
        }
      ],
      "name": "transferOwnership",
      "outputs": [],
      "stateMutability": "nonpayable",
      "type": "function"
    },
    {
      "inputs": [
        {
          "internalType": "address",
          "name": "newImplementation",
          "type": "address"
        }
      ],
      "name": "upgradeTo",
      "outputs": [],
      "stateMutability": "nonpayable",
      "type": "function"
    },
    {
      "inputs": [
        {
          "internalType": "address",
          "name": "newImplementation",
          "type": "address"
        },
        {
          "internalType": "bytes",
          "name": "data",
          "type": "bytes"
        }
      ],
      "name": "upgradeToAndCall",
      "outputs": [],
      "stateMutability": "payable",
      "type": "function"
    },
    {
      "inputs": [],
      "name": "version",
      "outputs": [
        {
          "internalType": "uint256",
          "name": "",
          "type": "uint256"
        }
      ],
      "stateMutability": "view",
      "type": "function"
    },
    {
      "inputs": [
        {
          "internalType": "uint256",
          "name": "_daoId",
          "type": "uint256"
        },
        {
          "internalType": "uint256",
          "name": "_proposalId",
          "type": "uint256"
        },
        {
          "internalType": "uint256",
          "name": "_choice",
          "type": "uint256"
        }
      ],
      "name": "vote",
      "outputs": [],
      "stateMutability": "nonpayable",
      "type": "function"
    },
    {
      "inputs": [],
      "name": "zDAOBase",
      "outputs": [
        {
          "internalType": "address",
          "name": "",
          "type": "address"
        }
      ],
      "stateMutability": "view",
      "type": "function"
    },
    {
      "inputs": [
        {
          "internalType": "uint256",
          "name": "",
          "type": "uint256"
        }
      ],
      "name": "zDAOIds",
      "outputs": [
        {
          "internalType": "uint256",
          "name": "",
          "type": "uint256"
        }
      ],
      "stateMutability": "view",
      "type": "function"
    },
    {
      "inputs": [
        {
          "internalType": "uint256",
          "name": "",
          "type": "uint256"
        }
      ],
      "name": "zDAOs",
      "outputs": [
        {
          "internalType": "contract IPolyZDAO",
          "name": "",
          "type": "address"
        }
      ],
      "stateMutability": "view",
      "type": "function"
    }
  ],
  "bytecode": "0x60a06040523060805234801561001457600080fd5b50608051613e3b610045600039600081816107d901528181610871015281816109a30152610a3b0152613e3b6000f3fe608060405260043610620001e75760003560e01c80638a6655d6116200010b578063ba636eef11620000a1578063d547741f116200006c578063d547741f14620005df578063f2fde38b1462000604578063f81880df1462000629578063fe0ed211146200064c57600080fd5b8063ba636eef1462000544578063c67cdd01146200055c578063c8291d841462000597578063cc10889b14620005ba57600080fd5b806391d1485411620000e257806391d14854146200048c578063946b22e214620004d6578063a217fddf146200050a578063b74a2c89146200052157600080fd5b80638a6655d614620004225780638da5cb5b14620004475780638ff39099146200046757600080fd5b80634cf088d911620001815780635c975abb11620001585780635c975abb14620003a6578063715018a614620003c057806375b9317e14620003d857806383b35d5814620003fd57600080fd5b80634cf088d914620003535780634f1ef286146200037657806354fd4d50146200038d57600080fd5b80633628e9f711620001c25780633628e9f7146200029057806336568abe14620002e45780633659cfe614620003095780633fc0d115146200032e57600080fd5b806301ffc9a714620001ec578063248a9ca314620002265780632f2ff15d1462000269575b600080fd5b348015620001f957600080fd5b50620002116200020b36600462002f6f565b62000671565b60405190151581526020015b60405180910390f35b3480156200023357600080fd5b506200025a6200024536600462002fb3565b60009081526097602052604090206001015490565b6040519081526020016200021d565b3480156200027657600080fd5b506200028e6200028836600462002fe3565b6200070b565b005b3480156200029d57600080fd5b50620002cb620002af36600462002fb3565b610195602052600090815260409020546001600160a01b031681565b6040516001600160a01b0390911681526020016200021d565b348015620002f157600080fd5b506200028e6200030336600462002fe3565b6200073a565b3480156200031657600080fd5b506200028e6200032836600462003016565b620007ce565b3480156200033b57600080fd5b506200025a6200034d36600462002fb3565b62000975565b3480156200036057600080fd5b5061019254620002cb906001600160a01b031681565b6200028e620003873660046200304c565b62000998565b3480156200039a57600080fd5b506200025a6101915481565b348015620003b357600080fd5b5060fb5460ff1662000211565b348015620003cd57600080fd5b506200028e62000b2c565b348015620003e557600080fd5b506200028e620003f73660046200311c565b62000b96565b3480156200040a57600080fd5b506200028e6200041c36600462003181565b62000d07565b3480156200042f57600080fd5b506200028e62000441366004620031f8565b62000da5565b3480156200045457600080fd5b506033546001600160a01b0316620002cb565b3480156200047457600080fd5b506200028e6200048636600462003016565b62000f8f565b3480156200049957600080fd5b5062000211620004ab36600462002fe3565b60009182526097602090815260408084206001600160a01b0393909316845291905290205460ff1690565b348015620004e357600080fd5b50620004fb620004f536600462003225565b6200101b565b6040516200021d919062003248565b3480156200051757600080fd5b506200025a600081565b3480156200052e57600080fd5b5061019454620002cb906001600160a01b031681565b3480156200055157600080fd5b50610196546200025a565b3480156200056957600080fd5b50620002cb6200057b36600462002fb3565b600090815261019560205260409020546001600160a01b031690565b348015620005a457600080fd5b5061019754620002cb906001600160a01b031681565b348015620005c757600080fd5b506200028e620005d936600462003225565b6200113e565b348015620005ec57600080fd5b506200028e620005fe36600462002fe3565b620013de565b3480156200061157600080fd5b506200028e6200062336600462003016565b62001408565b3480156200063657600080fd5b5061019354620002cb906001600160a01b031681565b3480156200065957600080fd5b506200028e6200066b36600462003016565b620014ed565b60007fffffffff0000000000000000000000000000000000000000000000000000000082167f7965db0b0000000000000000000000000000000000000000000000000000000014806200070557507f01ffc9a7000000000000000000000000000000000000000000000000000000007fffffffff000000000000000000000000000000000000000000000000000000008316145b92915050565b60008281526097602052604090206001015462000729813362001579565b62000735838362001602565b505050565b6001600160a01b0381163314620007be5760405162461bcd60e51b815260206004820152602f60248201527f416363657373436f6e74726f6c3a2063616e206f6e6c792072656e6f756e636560448201527f20726f6c657320666f722073656c66000000000000000000000000000000000060648201526084015b60405180910390fd5b620007ca8282620016a6565b5050565b306001600160a01b037f00000000000000000000000000000000000000000000000000000000000000001614156200086f5760405162461bcd60e51b815260206004820152602c60248201527f46756e6374696f6e206d7573742062652063616c6c6564207468726f7567682060448201527f64656c656761746563616c6c00000000000000000000000000000000000000006064820152608401620007b5565b7f00000000000000000000000000000000000000000000000000000000000000006001600160a01b0316620008cb7f360894a13ba1a3210667c828492db98dca3e2076cc3735a920a3ca505d382bbc546001600160a01b031690565b6001600160a01b031614620009495760405162461bcd60e51b815260206004820152602c60248201527f46756e6374696f6e206d7573742062652063616c6c6564207468726f7567682060448201527f6163746976652070726f787900000000000000000000000000000000000000006064820152608401620007b5565b62000954816200172a565b60408051600080825260208201909252620009729183919062001786565b50565b61019681815481106200098757600080fd5b600091825260209091200154905081565b306001600160a01b037f000000000000000000000000000000000000000000000000000000000000000016141562000a395760405162461bcd60e51b815260206004820152602c60248201527f46756e6374696f6e206d7573742062652063616c6c6564207468726f7567682060448201527f64656c656761746563616c6c00000000000000000000000000000000000000006064820152608401620007b5565b7f00000000000000000000000000000000000000000000000000000000000000006001600160a01b031662000a957f360894a13ba1a3210667c828492db98dca3e2076cc3735a920a3ca505d382bbc546001600160a01b031690565b6001600160a01b03161462000b135760405162461bcd60e51b815260206004820152602c60248201527f46756e6374696f6e206d7573742062652063616c6c6564207468726f7567682060448201527f6163746976652070726f787900000000000000000000000000000000000000006064820152608401620007b5565b62000b1e826200172a565b620007ca8282600162001786565b6033546001600160a01b0316331462000b885760405162461bcd60e51b815260206004820181905260248201527f4f776e61626c653a2063616c6c6572206973206e6f7420746865206f776e65726044820152606401620007b5565b62000b94600062001951565b565b600054610100900460ff1662000bb35760005460ff161562000bb7565b303b155b62000c2b5760405162461bcd60e51b815260206004820152602e60248201527f496e697469616c697a61626c653a20636f6e747261637420697320616c72656160448201527f647920696e697469616c697a65640000000000000000000000000000000000006064820152608401620007b5565b600054610100900460ff1615801562000c6b57600080547fffffffffffffffffffffffffffffffffffffffffffffffffffffffffffff0000166101011790555b62000c75620019b0565b61019280546001600160a01b0380881673ffffffffffffffffffffffffffffffffffffffff199283161790925561019380548784169083161790556101948054868416908316179055610197805492851692909116919091179055801562000d0057600080547fffffffffffffffffffffffffffffffffffffffffffffffffffffffffffff00ff1690555b5050505050565b610193546001600160a01b0316331462000d645760405162461bcd60e51b815260206004820152601260248201527f4e6f7420612073746174652073656e64657200000000000000000000000000006044820152606401620007b5565b620007ca82828080601f01602080910402602001604051908101604052809392919081815260200183838082843760009201919091525062001a9592505050565b6000838152610195602052604090205483906001600160a01b03161580159062000e615750600081815261019560209081526040918290205482517f359cbbc900000000000000000000000000000000000000000000000000000000815292516001600160a01b039091169263359cbbc99260048083019391928290030181865afa15801562000e39573d6000803e3d6000fd5b505050506040513d601f19601f8201168201806040525081019062000e5f919062003297565b155b62000eaf5760405162461bcd60e51b815260206004820152600c60248201527f496e76616c6964207a44414f00000000000000000000000000000000000000006044820152606401620007b5565b60008481526101956020526040908190205490517f4de8737c00000000000000000000000000000000000000000000000000000000815260048101859052336024820152604481018490526001600160a01b0390911690634de8737c90606401600060405180830381600087803b15801562000f2a57600080fd5b505af115801562000f3f573d6000803e3d6000fd5b50505050336001600160a01b031683857f94ecd3a313f078703294eda94e7e660df70e5926334b9b92da34ab5e21f24fe18560405162000f8191815260200190565b60405180910390a450505050565b6033546001600160a01b0316331462000feb5760405162461bcd60e51b815260206004820181905260248201527f4f776e61626c653a2063616c6c6572206973206e6f7420746865206f776e65726044820152606401620007b5565b610192805473ffffffffffffffffffffffffffffffffffffffff19166001600160a01b0392909216919091179055565b61019654606090829062001031908590620032d1565b8111156200104d57610196546200104a908590620032d1565b90505b8067ffffffffffffffff81111562001069576200106962003036565b60405190808252806020026020018201604052801562001093578160200160208202803683370190505b50915060005b8181101562001136576101956000610196620010b68489620032eb565b81548110620010c957620010c962003306565b9060005260206000200154815260200190815260200160002060009054906101000a90046001600160a01b03168382815181106200110b576200110b62003306565b6001600160a01b03909216602092830291909101909101526200112e816200331c565b905062001099565b505092915050565b6000828152610195602052604090205482906001600160a01b031615801590620011fa5750600081815261019560209081526040918290205482517f359cbbc900000000000000000000000000000000000000000000000000000000815292516001600160a01b039091169263359cbbc99260048083019391928290030181865afa158015620011d2573d6000803e3d6000fd5b505050506040513d601f19601f82011682018060405250810190620011f8919062003297565b155b620012485760405162461bcd60e51b815260206004820152600c60248201527f496e76616c6964207a44414f00000000000000000000000000000000000000006044820152606401620007b5565b600083815261019560205260408082205490517f890cb1f300000000000000000000000000000000000000000000000000000000815260048101859052829182916001600160a01b039091169063890cb1f3906024016060604051808303816000875af1158015620012be573d6000803e3d6000fd5b505050506040513d601f19601f82011682018060405250810190620012e491906200333a565b60408051848152602081018490529081018290529295509093509150859087907f453fcfa6f72f89b17a857f2b4bb96ba21f2a6d6c7c8a175b6df638e8fa92763d9060600160405180910390a3610193546001600160a01b0316639a113ee260066040805160208101929092528101899052606081018890526080810186905260a0810185905260c0810184905260e0016040516020818303038152906040526040518263ffffffff1660e01b8152600401620013a29190620033ca565b600060405180830381600087803b158015620013bd57600080fd5b505af1158015620013d2573d6000803e3d6000fd5b50505050505050505050565b600082815260976020526040902060010154620013fc813362001579565b620007358383620016a6565b6033546001600160a01b03163314620014645760405162461bcd60e51b815260206004820181905260248201527f4f776e61626c653a2063616c6c6572206973206e6f7420746865206f776e65726044820152606401620007b5565b6001600160a01b038116620014e25760405162461bcd60e51b815260206004820152602660248201527f4f776e61626c653a206e6577206f776e657220697320746865207a65726f206160448201527f64647265737300000000000000000000000000000000000000000000000000006064820152608401620007b5565b620009728162001951565b6033546001600160a01b03163314620015495760405162461bcd60e51b815260206004820181905260248201527f4f776e61626c653a2063616c6c6572206973206e6f7420746865206f776e65726044820152606401620007b5565b610194805473ffffffffffffffffffffffffffffffffffffffff19166001600160a01b0392909216919091179055565b60008281526097602090815260408083206001600160a01b038516845290915290205460ff16620007ca57620015ba816001600160a01b0316601462001b18565b620015c783602062001b18565b604051602001620015da929190620033df565b60408051601f198184030181529082905262461bcd60e51b8252620007b591600401620033ca565b60008281526097602090815260408083206001600160a01b038516845290915290205460ff16620007ca5760008281526097602090815260408083206001600160a01b03851684529091529020805460ff19166001179055620016623390565b6001600160a01b0316816001600160a01b0316837f2f8788117e7eff1d82e926ec794901d17c78024a50270940304540a733656f0d60405160405180910390a45050565b60008281526097602090815260408083206001600160a01b038516845290915290205460ff1615620007ca5760008281526097602090815260408083206001600160a01b0385168085529252808320805460ff1916905551339285917ff6391f5c32d9c69d2a47ea670b442974b53935d1edc7fd64eb21e047a839171b9190a45050565b6033546001600160a01b03163314620009725760405162461bcd60e51b815260206004820181905260248201527f4f776e61626c653a2063616c6c6572206973206e6f7420746865206f776e65726044820152606401620007b5565b6000620017ba7f360894a13ba1a3210667c828492db98dca3e2076cc3735a920a3ca505d382bbc546001600160a01b031690565b9050620017c78462001d66565b600083511180620017d55750815b15620017e957620017e7848462001e2a565b505b7f4910fdfa16fed3260ed0e7147f7cc6da11a60208b5b9406d12a635614ffd9143805460ff1662000d0057805460ff191660011781556040516001600160a01b03831660248201526200189990869060440160408051601f198184030181529190526020810180517bffffffffffffffffffffffffffffffffffffffffffffffffffffffff167f3659cfe60000000000000000000000000000000000000000000000000000000017905262001e2a565b50805460ff191681557f360894a13ba1a3210667c828492db98dca3e2076cc3735a920a3ca505d382bbc546001600160a01b03838116911614620019465760405162461bcd60e51b815260206004820152602f60248201527f45524331393637557067726164653a207570677261646520627265616b73206660448201527f75727468657220757067726164657300000000000000000000000000000000006064820152608401620007b5565b62000d008562001f35565b603380546001600160a01b0383811673ffffffffffffffffffffffffffffffffffffffff19831681179093556040519116919082907f8be0079c531659141344cd1fd0a4f28419497f9722a3daafe3b4186f6b6457e090600090a35050565b600054610100900460ff1662001a1d5760405162461bcd60e51b815260206004820152602b60248201527f496e697469616c697a61626c653a20636f6e7472616374206973206e6f74206960448201526a6e697469616c697a696e6760a81b6064820152608401620007b5565b62001a2762001f77565b62001a3162001ff8565b62001a3b62002083565b62001a45620020fa565b62001a4f6200217b565b6001610191819055604080518082019091528181527f7600000000000000000000000000000000000000000000000000000000000000602082015262000b9491620021e8565b60008180602001905181019062001aad919062003464565b9050600181141562001ac45762000735826200225f565b600281141562001ad957620007ca82620024d5565b600381141562001aee57620007ca8262002678565b600481141562001b0357620007ca826200289d565b6005811415620007ca57620007ca8262002aad565b6060600062001b298360026200347e565b62001b36906002620032eb565b67ffffffffffffffff81111562001b515762001b5162003036565b6040519080825280601f01601f19166020018201604052801562001b7c576020820181803683370190505b5090507f30000000000000000000000000000000000000000000000000000000000000008160008151811062001bb65762001bb662003306565b60200101907effffffffffffffffffffffffffffffffffffffffffffffffffffffffffffff1916908160001a9053507f78000000000000000000000000000000000000000000000000000000000000008160018151811062001c1c5762001c1c62003306565b60200101907effffffffffffffffffffffffffffffffffffffffffffffffffffffffffffff1916908160001a905350600062001c5a8460026200347e565b62001c67906001620032eb565b90505b600181111562001d0e577f303132333435363738396162636465660000000000000000000000000000000085600f166010811062001cac5762001cac62003306565b1a60f81b82828151811062001cc55762001cc562003306565b60200101907effffffffffffffffffffffffffffffffffffffffffffffffffffffffffffff1916908160001a90535060049490941c9362001d0681620034a0565b905062001c6a565b50831562001d5f5760405162461bcd60e51b815260206004820181905260248201527f537472696e67733a20686578206c656e67746820696e73756666696369656e746044820152606401620007b5565b9392505050565b803b62001ddc5760405162461bcd60e51b815260206004820152602d60248201527f455243313936373a206e657720696d706c656d656e746174696f6e206973206e60448201527f6f74206120636f6e7472616374000000000000000000000000000000000000006064820152608401620007b5565b7f360894a13ba1a3210667c828492db98dca3e2076cc3735a920a3ca505d382bbc805473ffffffffffffffffffffffffffffffffffffffff19166001600160a01b0392909216919091179055565b6060823b62001ea25760405162461bcd60e51b815260206004820152602660248201527f416464726573733a2064656c65676174652063616c6c20746f206e6f6e2d636f60448201527f6e747261637400000000000000000000000000000000000000000000000000006064820152608401620007b5565b600080846001600160a01b03168460405162001ebf9190620034ba565b600060405180830381855af49150503d806000811462001efc576040519150601f19603f3d011682016040523d82523d6000602084013e62001f01565b606091505b509150915062001f2c828260405180606001604052806027815260200162003ddf6027913962002cbd565b95945050505050565b62001f408162001d66565b6040516001600160a01b038216907fbc7cd75a20ee27fd9adebab32041f755214dbc6bffa90cc0225b39da2e5c2d3b90600090a250565b600054610100900460ff1662001fe45760405162461bcd60e51b815260206004820152602b60248201527f496e697469616c697a61626c653a20636f6e7472616374206973206e6f74206960448201526a6e697469616c697a696e6760a81b6064820152608401620007b5565b62001fee62002cfb565b62000b9462002d68565b600054610100900460ff16620020655760405162461bcd60e51b815260206004820152602b60248201527f496e697469616c697a61626c653a20636f6e7472616374206973206e6f74206960448201526a6e697469616c697a696e6760a81b6064820152608401620007b5565b6200206f62002cfb565b6200207962002cfb565b62000b9462002cfb565b600054610100900460ff16620020f05760405162461bcd60e51b815260206004820152602b60248201527f496e697469616c697a61626c653a20636f6e7472616374206973206e6f74206960448201526a6e697469616c697a696e6760a81b6064820152608401620007b5565b62000b9462002de0565b600054610100900460ff16620021675760405162461bcd60e51b815260206004820152602b60248201527f496e697469616c697a61626c653a20636f6e7472616374206973206e6f74206960448201526a6e697469616c697a696e6760a81b6064820152608401620007b5565b6200217162002cfb565b62000b9462002e54565b600054610100900460ff166200206f5760405162461bcd60e51b815260206004820152602b60248201527f496e697469616c697a61626c653a20636f6e7472616374206973206e6f74206960448201526a6e697469616c697a696e6760a81b6064820152608401620007b5565b620007ca828260405160240162002201929190620034d8565b60408051601f198184030181529190526020810180517bffffffffffffffffffffffffffffffffffffffffffffffffffffffff167f9710a9d00000000000000000000000000000000000000000000000000000000017905262002ecd565b6000806000806000858060200190518101906200227d9190620034fc565b60008381526101956020526040902054939750919550935091506001600160a01b031615620022ef5760405162461bcd60e51b815260206004820152601860248201527f7a44414f2077617320616c7265616479206372656174656400000000000000006044820152606401620007b5565b610197546040517fea60c7c40000000000000000000000000000000000000000000000000000000081526001600160a01b038381166004830152600092169063ea60c7c490602401602060405180830381865afa15801562002355573d6000803e3d6000fd5b505050506040513d601f19601f820116820180604052508101906200237b919062003535565b6101945461019254604080513060248201526001600160a01b039283166044820152606481018990526084810188905284831660a4808301919091528251808303909101815260c49091019091526020810180517bffffffffffffffffffffffffffffffffffffffffffffffffffffffff167f3327374f000000000000000000000000000000000000000000000000000000001790529293506000926200242792919091169062002eee565b600086815261019560209081526040808320805473ffffffffffffffffffffffffffffffffffffffff19166001600160a01b038616908117909155610196805460018101825594527f828feda00a4b64eb35101b6df8f6c29717b1ea6bae5dd03d3ddada8de0a9e7cb9093018990555187815292935087927f55ae7d977c54f7ef6855e5c3eeb3ba02e0ea9733775176712ab87eae15b477b3910160405180910390a3979650505050505050565b60008082806020019051810190620024ee919062003555565b60008181526101956020908152604091829020548251631519361360e01b8152925194965092945084936001600160a01b039093169263151936139260048082019392918290030181865afa1580156200254c573d6000803e3d6000fd5b505050506040513d601f19601f8201168201806040525081019062002572919062003464565b14620025c15760405162461bcd60e51b815260206004820152600c60248201527f496e76616c6964207a44414f00000000000000000000000000000000000000006044820152606401620007b5565b60008181526101956020526040908190205490517f472858b4000000000000000000000000000000000000000000000000000000008152600160048201526001600160a01b039091169063472858b490602401600060405180830381600087803b1580156200262f57600080fd5b505af115801562002644573d6000803e3d6000fd5b50506040518392507f62d16daa2b15fec62c2624e8279f21d75a1e6d3f8dd790378d3129985765cb4a9150600090a2505050565b6000806000838060200190518101906200269391906200333a565b6000828152610195602052604090205492955090935091506001600160a01b0316620027025760405162461bcd60e51b815260206004820152601460248201527f4e6f742063726561746564207a44414f207965740000000000000000000000006044820152606401620007b5565b60008281526101956020908152604091829020548251631519361360e01b8152925185936001600160a01b0390921692631519361392600480820193918290030181865afa15801562002759573d6000803e3d6000fd5b505050506040513d601f19601f820116820180604052508101906200277f919062003464565b14620027ce5760405162461bcd60e51b815260206004820152601460248201527f53796e63207a44414f20696e666f206572726f720000000000000000000000006044820152606401620007b5565b60008281526101956020526040908190205490517f6935bda6000000000000000000000000000000000000000000000000000000008152600481018390524260248201526001600160a01b0390911690636935bda690604401600060405180830381600087803b1580156200284257600080fd5b505af115801562002857573d6000803e3d6000fd5b5050505080827fa6a21b90631faacde52b977eb6e15e5707522fbbba8eddef55ed173ffde48efa426040516200288f91815260200190565b60405180910390a350505050565b600080600083806020019051810190620028b891906200333a565b6000828152610195602052604090205492955090935091506001600160a01b0316620029275760405162461bcd60e51b815260206004820152601460248201527f4e6f742063726561746564207a44414f207965740000000000000000000000006044820152606401620007b5565b60008281526101956020908152604091829020548251631519361360e01b8152925185936001600160a01b0390921692631519361392600480820193918290030181865afa1580156200297e573d6000803e3d6000fd5b505050506040513d601f19601f82011682018060405250810190620029a4919062003464565b14620029f35760405162461bcd60e51b815260206004820152601460248201527f53796e63207a44414f20696e666f206572726f720000000000000000000000006044820152606401620007b5565b60008281526101956020526040908190205490517fe0a8f6f5000000000000000000000000000000000000000000000000000000008152600481018390526001600160a01b039091169063e0a8f6f590602401600060405180830381600087803b15801562002a6157600080fd5b505af115801562002a76573d6000803e3d6000fd5b50506040518392508491507f740823f5b237fe3c86a5ff1cd7a2345263cab48eaddc595c9bbb35d86c6cc42190600090a350505050565b60008060008380602001905181019062002ac891906200333a565b6000828152610195602052604090205492955090935091506001600160a01b031662002b375760405162461bcd60e51b815260206004820152601460248201527f4e6f742063726561746564207a44414f207965740000000000000000000000006044820152606401620007b5565b60008281526101956020908152604091829020548251631519361360e01b8152925185936001600160a01b0390921692631519361392600480820193918290030181865afa15801562002b8e573d6000803e3d6000fd5b505050506040513d601f19601f8201168201806040525081019062002bb4919062003464565b1462002c035760405162461bcd60e51b815260206004820152601460248201527f53796e63207a44414f20696e666f206572726f720000000000000000000000006044820152606401620007b5565b60008281526101956020526040908190205490517f0d61b519000000000000000000000000000000000000000000000000000000008152600481018390526001600160a01b0390911690630d61b51990602401600060405180830381600087803b15801562002c7157600080fd5b505af115801562002c86573d6000803e3d6000fd5b50506040518392508491507ff758fc91e01b00ea6b4a6138756f7f28e021f9bf21db6dbf8c36c88eb737257a90600090a350505050565b6060831562002cce57508162001d5f565b82511562002cdf5782518084602001fd5b8160405162461bcd60e51b8152600401620007b59190620033ca565b600054610100900460ff1662000b945760405162461bcd60e51b815260206004820152602b60248201527f496e697469616c697a61626c653a20636f6e7472616374206973206e6f74206960448201526a6e697469616c697a696e6760a81b6064820152608401620007b5565b600054610100900460ff1662002dd55760405162461bcd60e51b815260206004820152602b60248201527f496e697469616c697a61626c653a20636f6e7472616374206973206e6f74206960448201526a6e697469616c697a696e6760a81b6064820152608401620007b5565b62000b943362001951565b600054610100900460ff1662002e4d5760405162461bcd60e51b815260206004820152602b60248201527f496e697469616c697a61626c653a20636f6e7472616374206973206e6f74206960448201526a6e697469616c697a696e6760a81b6064820152608401620007b5565b600160c955565b600054610100900460ff1662002ec15760405162461bcd60e51b815260206004820152602b60248201527f496e697469616c697a61626c653a20636f6e7472616374206973206e6f74206960448201526a6e697469616c697a696e6760a81b6064820152608401620007b5565b60fb805460ff19169055565b80516a636f6e736f6c652e6c6f67602083016000808483855afa5050505050565b6000438260405160200162002f059291906200357a565b60405160208183030381529060405280519060200120838360405162002f2b9062002f61565b62002f38929190620035a2565b8190604051809103906000f590508015801562002f59573d6000803e3d6000fd5b509392505050565b61081080620035cf83390190565b60006020828403121562002f8257600080fd5b81357fffffffff000000000000000000000000000000000000000000000000000000008116811462001d5f57600080fd5b60006020828403121562002fc657600080fd5b5035919050565b6001600160a01b03811681146200097257600080fd5b6000806040838503121562002ff757600080fd5b8235915060208301356200300b8162002fcd565b809150509250929050565b6000602082840312156200302957600080fd5b813562001d5f8162002fcd565b634e487b7160e01b600052604160045260246000fd5b600080604083850312156200306057600080fd5b82356200306d8162002fcd565b9150602083013567ffffffffffffffff808211156200308b57600080fd5b818501915085601f830112620030a057600080fd5b813581811115620030b557620030b562003036565b604051601f8201601f19908116603f01168101908382118183101715620030e057620030e062003036565b81604052828152886020848701011115620030fa57600080fd5b8260208601602083013760006020848301015280955050505050509250929050565b600080600080608085870312156200313357600080fd5b8435620031408162002fcd565b93506020850135620031528162002fcd565b92506040850135620031648162002fcd565b91506060850135620031768162002fcd565b939692955090935050565b600080602083850312156200319557600080fd5b823567ffffffffffffffff80821115620031ae57600080fd5b818501915085601f830112620031c357600080fd5b813581811115620031d357600080fd5b866020828501011115620031e657600080fd5b60209290920196919550909350505050565b6000806000606084860312156200320e57600080fd5b505081359360208301359350604090920135919050565b600080604083850312156200323957600080fd5b50508035926020909101359150565b6020808252825182820181905260009190848201906040850190845b818110156200328b5783516001600160a01b03168352928401929184019160010162003264565b50909695505050505050565b600060208284031215620032aa57600080fd5b8151801515811462001d5f57600080fd5b634e487b7160e01b600052601160045260246000fd5b600082821015620032e657620032e6620032bb565b500390565b60008219821115620033015762003301620032bb565b500190565b634e487b7160e01b600052603260045260246000fd5b6000600019821415620033335762003333620032bb565b5060010190565b6000806000606084860312156200335057600080fd5b8351925060208401519150604084015190509250925092565b60005b83811015620033865781810151838201526020016200336c565b8381111562003396576000848401525b50505050565b60008151808452620033b681602086016020860162003369565b601f01601f19169290920160200192915050565b60208152600062001d5f60208301846200339c565b7f416363657373436f6e74726f6c3a206163636f756e74200000000000000000008152600083516200341981601785016020880162003369565b7f206973206d697373696e6720726f6c652000000000000000000000000000000060179184019182015283516200345881602884016020880162003369565b01602801949350505050565b6000602082840312156200347757600080fd5b5051919050565b60008160001904831182151516156200349b576200349b620032bb565b500290565b600081620034b257620034b2620032bb565b506000190190565b60008251620034ce81846020870162003369565b9190910192915050565b604081526000620034ed60408301856200339c565b90508260208301529392505050565b600080600080608085870312156200351357600080fd5b8451935060208501519250604085015191506060850151620031768162002fcd565b6000602082840312156200354857600080fd5b815162001d5f8162002fcd565b600080604083850312156200356957600080fd5b505080516020909101519092909150565b828152600082516200359481602085016020870162003369565b919091016020019392505050565b6001600160a01b0383168152604060208201526000620035c660408301846200339c565b94935050505056fe608060405260405161081038038061081083398101604081905261002291610337565b61004d60017f360894a13ba1a3210667c828492db98dca3e2076cc3735a920a3ca505d382bbd610405565b6000805160206107c9833981519152146100695761006961042a565b6100758282600061007c565b505061048f565b610085836100b2565b6000825111806100925750805b156100ad576100ab83836100f260201b6100291760201c565b505b505050565b6100bb8161011e565b6040516001600160a01b038216907fbc7cd75a20ee27fd9adebab32041f755214dbc6bffa90cc0225b39da2e5c2d3b90600090a250565b606061011783836040518060600160405280602781526020016107e9602791396101de565b9392505050565b610131816102b360201b6100551760201c565b6101985760405162461bcd60e51b815260206004820152602d60248201527f455243313936373a206e657720696d706c656d656e746174696f6e206973206e60448201526c1bdd08184818dbdb9d1c9858dd609a1b60648201526084015b60405180910390fd5b806101bd6000805160206107c983398151915260001b6102b960201b61005b1760201c565b80546001600160a01b0319166001600160a01b039290921691909117905550565b6060833b61023d5760405162461bcd60e51b815260206004820152602660248201527f416464726573733a2064656c65676174652063616c6c20746f206e6f6e2d636f6044820152651b9d1c9858dd60d21b606482015260840161018f565b600080856001600160a01b0316856040516102589190610440565b600060405180830381855af49150503d8060008114610293576040519150601f19603f3d011682016040523d82523d6000602084013e610298565b606091505b5090925090506102a98282866102bc565b9695505050505050565b3b151590565b90565b606083156102cb575081610117565b8251156102db5782518084602001fd5b8160405162461bcd60e51b815260040161018f919061045c565b634e487b7160e01b600052604160045260246000fd5b60005b8381101561032657818101518382015260200161030e565b838111156100ab5750506000910152565b6000806040838503121561034a57600080fd5b82516001600160a01b038116811461036157600080fd5b60208401519092506001600160401b038082111561037e57600080fd5b818501915085601f83011261039257600080fd5b8151818111156103a4576103a46102f5565b604051601f8201601f19908116603f011681019083821181831017156103cc576103cc6102f5565b816040528281528860208487010111156103e557600080fd5b6103f683602083016020880161030b565b80955050505050509250929050565b60008282101561042557634e487b7160e01b600052601160045260246000fd5b500390565b634e487b7160e01b600052600160045260246000fd5b6000825161045281846020870161030b565b9190910192915050565b602081526000825180602084015261047b81604085016020870161030b565b601f01601f19169190910160400192915050565b61032b8061049e6000396000f3fe60806040523661001357610011610017565b005b6100115b61002761002261005e565b6100a3565b565b606061004e83836040518060600160405280602781526020016102cf602791396100c7565b9392505050565b3b151590565b90565b600061009e7f360894a13ba1a3210667c828492db98dca3e2076cc3735a920a3ca505d382bbc5473ffffffffffffffffffffffffffffffffffffffff1690565b905090565b3660008037600080366000845af43d6000803e8080156100c2573d6000f35b3d6000fd5b6060833b61015c576040517f08c379a000000000000000000000000000000000000000000000000000000000815260206004820152602660248201527f416464726573733a2064656c65676174652063616c6c20746f206e6f6e2d636f60448201527f6e7472616374000000000000000000000000000000000000000000000000000060648201526084015b60405180910390fd5b6000808573ffffffffffffffffffffffffffffffffffffffff16856040516101849190610261565b600060405180830381855af49150503d80600081146101bf576040519150601f19603f3d011682016040523d82523d6000602084013e6101c4565b606091505b50915091506101d48282866101de565b9695505050505050565b606083156101ed57508161004e565b8251156101fd5782518084602001fd5b816040517f08c379a0000000000000000000000000000000000000000000000000000000008152600401610153919061027d565b60005b8381101561024c578181015183820152602001610234565b8381111561025b576000848401525b50505050565b60008251610273818460208701610231565b9190910192915050565b602081526000825180602084015261029c816040850160208701610231565b601f017fffffffffffffffffffffffffffffffffffffffffffffffffffffffffffffffe016919091016040019291505056fe416464726573733a206c6f772d6c6576656c2064656c65676174652063616c6c206661696c6564a2646970667358221220622d8852ce84c52c9c688b923393379a20b2b81b950c780b39a7458efb7431b964736f6c634300080b0033360894a13ba1a3210667c828492db98dca3e2076cc3735a920a3ca505d382bbc416464726573733a206c6f772d6c6576656c2064656c65676174652063616c6c206661696c6564416464726573733a206c6f772d6c6576656c2064656c65676174652063616c6c206661696c6564a264697066735822122031713ba125b57ead069c3839de9e75764e93a3ad2041addcf8290de5818b9c7e64736f6c634300080b0033",
  "linkReferences": {},
  "deployedLinkReferences": {}
}