{
  "_format": "hh-sol-artifact-1",
  "contractName": "Staking",
  "sourceName": "contracts/polygon/Staking.sol",
  "abi": [
    {
      "anonymous": false,
      "inputs": [
        {
          "indexed": false,
          "internalType": "address",
          "name": "previousAdmin",
          "type": "address"
        },
        {
          "indexed": false,
          "internalType": "address",
          "name": "newAdmin",
          "type": "address"
        }
      ],
      "name": "AdminChanged",
      "type": "event"
    },
    {
      "anonymous": false,
      "inputs": [
        {
          "indexed": true,
          "internalType": "address",
          "name": "beacon",
          "type": "address"
        }
      ],
      "name": "BeaconUpgraded",
      "type": "event"
    },
    {
      "anonymous": false,
      "inputs": [
        {
          "indexed": true,
          "internalType": "address",
          "name": "previousOwner",
          "type": "address"
        },
        {
          "indexed": true,
          "internalType": "address",
          "name": "newOwner",
          "type": "address"
        }
      ],
      "name": "OwnershipTransferred",
      "type": "event"
    },
    {
      "anonymous": false,
      "inputs": [
        {
          "indexed": false,
          "internalType": "address",
          "name": "account",
          "type": "address"
        }
      ],
      "name": "Paused",
      "type": "event"
    },
    {
      "anonymous": false,
      "inputs": [
        {
          "indexed": true,
          "internalType": "bytes32",
          "name": "role",
          "type": "bytes32"
        },
        {
          "indexed": true,
          "internalType": "bytes32",
          "name": "previousAdminRole",
          "type": "bytes32"
        },
        {
          "indexed": true,
          "internalType": "bytes32",
          "name": "newAdminRole",
          "type": "bytes32"
        }
      ],
      "name": "RoleAdminChanged",
      "type": "event"
    },
    {
      "anonymous": false,
      "inputs": [
        {
          "indexed": true,
          "internalType": "bytes32",
          "name": "role",
          "type": "bytes32"
        },
        {
          "indexed": true,
          "internalType": "address",
          "name": "account",
          "type": "address"
        },
        {
          "indexed": true,
          "internalType": "address",
          "name": "sender",
          "type": "address"
        }
      ],
      "name": "RoleGranted",
      "type": "event"
    },
    {
      "anonymous": false,
      "inputs": [
        {
          "indexed": true,
          "internalType": "bytes32",
          "name": "role",
          "type": "bytes32"
        },
        {
          "indexed": true,
          "internalType": "address",
          "name": "account",
          "type": "address"
        },
        {
          "indexed": true,
          "internalType": "address",
          "name": "sender",
          "type": "address"
        }
      ],
      "name": "RoleRevoked",
      "type": "event"
    },
    {
      "anonymous": false,
      "inputs": [
        {
          "indexed": true,
          "internalType": "address",
          "name": "_user",
          "type": "address"
        },
        {
          "indexed": true,
          "internalType": "address",
          "name": "_token",
          "type": "address"
        },
        {
          "indexed": true,
          "internalType": "uint256",
          "name": "_amount",
          "type": "uint256"
        },
        {
          "indexed": false,
          "internalType": "uint256",
          "name": "_totalPerUser",
          "type": "uint256"
        }
      ],
      "name": "StakedERC20",
      "type": "event"
    },
    {
      "anonymous": false,
      "inputs": [
        {
          "indexed": true,
          "internalType": "address",
          "name": "_user",
          "type": "address"
        },
        {
          "indexed": true,
          "internalType": "address",
          "name": "_token",
          "type": "address"
        },
        {
          "indexed": true,
          "internalType": "uint256",
          "name": "_tokenId",
          "type": "uint256"
        },
        {
          "indexed": false,
          "internalType": "uint256",
          "name": "_totalPerUser",
          "type": "uint256"
        }
      ],
      "name": "StakedERC721",
      "type": "event"
    },
    {
      "anonymous": false,
      "inputs": [
        {
          "indexed": true,
          "internalType": "address",
          "name": "delegate",
          "type": "address"
        },
        {
          "indexed": false,
          "internalType": "uint256",
          "name": "oldValue",
          "type": "uint256"
        },
        {
          "indexed": false,
          "internalType": "uint256",
          "name": "newValue",
          "type": "uint256"
        }
      ],
      "name": "StakingPowerChanged",
      "type": "event"
    },
    {
      "anonymous": false,
      "inputs": [
        {
          "indexed": false,
          "internalType": "address",
          "name": "account",
          "type": "address"
        }
      ],
      "name": "Unpaused",
      "type": "event"
    },
    {
      "anonymous": false,
      "inputs": [
        {
          "indexed": true,
          "internalType": "address",
          "name": "_user",
          "type": "address"
        },
        {
          "indexed": true,
          "internalType": "address",
          "name": "_token",
          "type": "address"
        },
        {
          "indexed": true,
          "internalType": "uint256",
          "name": "_amount",
          "type": "uint256"
        },
        {
          "indexed": false,
          "internalType": "uint256",
          "name": "_totalPerUser",
          "type": "uint256"
        }
      ],
      "name": "UnstakedERC20",
      "type": "event"
    },
    {
      "anonymous": false,
      "inputs": [
        {
          "indexed": true,
          "internalType": "address",
          "name": "_user",
          "type": "address"
        },
        {
          "indexed": true,
          "internalType": "address",
          "name": "_token",
          "type": "address"
        },
        {
          "indexed": true,
          "internalType": "uint256",
          "name": "_tokenId",
          "type": "uint256"
        },
        {
          "indexed": false,
          "internalType": "uint256",
          "name": "_totalPerUser",
          "type": "uint256"
        }
      ],
      "name": "UnstakedERC721",
      "type": "event"
    },
    {
      "anonymous": false,
      "inputs": [
        {
          "indexed": true,
          "internalType": "address",
          "name": "implementation",
          "type": "address"
        }
      ],
      "name": "Upgraded",
      "type": "event"
    },
    {
      "inputs": [],
      "name": "DEFAULT_ADMIN_ROLE",
      "outputs": [
        {
          "internalType": "bytes32",
          "name": "",
          "type": "bytes32"
        }
      ],
      "stateMutability": "view",
      "type": "function"
    },
    {
      "inputs": [],
      "name": "__Staking_init",
      "outputs": [],
      "stateMutability": "nonpayable",
      "type": "function"
    },
    {
      "inputs": [
        {
          "internalType": "address",
          "name": "",
          "type": "address"
        }
      ],
      "name": "accounts",
      "outputs": [
        {
          "internalType": "address",
          "name": "user",
          "type": "address"
        }
      ],
      "stateMutability": "view",
      "type": "function"
    },
    {
      "inputs": [
        {
          "internalType": "bytes32",
          "name": "role",
          "type": "bytes32"
        }
      ],
      "name": "getRoleAdmin",
      "outputs": [
        {
          "internalType": "bytes32",
          "name": "",
          "type": "bytes32"
        }
      ],
      "stateMutability": "view",
      "type": "function"
    },
    {
      "inputs": [
        {
          "internalType": "bytes32",
          "name": "role",
          "type": "bytes32"
        },
        {
          "internalType": "address",
          "name": "account",
          "type": "address"
        }
      ],
      "name": "grantRole",
      "outputs": [],
      "stateMutability": "nonpayable",
      "type": "function"
    },
    {
      "inputs": [
        {
          "internalType": "bytes32",
          "name": "role",
          "type": "bytes32"
        },
        {
          "internalType": "address",
          "name": "account",
          "type": "address"
        }
      ],
      "name": "hasRole",
      "outputs": [
        {
          "internalType": "bool",
          "name": "",
          "type": "bool"
        }
      ],
      "stateMutability": "view",
      "type": "function"
    },
    {
      "inputs": [
        {
          "internalType": "address",
          "name": "",
          "type": "address"
        },
        {
          "internalType": "address",
          "name": "",
          "type": "address"
        },
        {
          "internalType": "uint256",
          "name": "",
          "type": "uint256"
        },
        {
          "internalType": "bytes",
          "name": "",
          "type": "bytes"
        }
      ],
      "name": "onERC721Received",
      "outputs": [
        {
          "internalType": "bytes4",
          "name": "",
          "type": "bytes4"
        }
      ],
      "stateMutability": "nonpayable",
      "type": "function"
    },
    {
      "inputs": [],
      "name": "owner",
      "outputs": [
        {
          "internalType": "address",
          "name": "",
          "type": "address"
        }
      ],
      "stateMutability": "view",
      "type": "function"
    },
    {
      "inputs": [
        {
          "internalType": "address",
          "name": "_user",
          "type": "address"
        },
        {
          "internalType": "uint256",
          "name": "_blockNumber",
          "type": "uint256"
        }
      ],
      "name": "pastStakingPower",
      "outputs": [
        {
          "internalType": "uint256",
          "name": "",
          "type": "uint256"
        }
      ],
      "stateMutability": "view",
      "type": "function"
    },
    {
      "inputs": [
        {
          "internalType": "uint256",
          "name": "_blockNumber",
          "type": "uint256"
        }
      ],
      "name": "pastTotalStaked",
      "outputs": [
        {
          "internalType": "uint256",
          "name": "",
          "type": "uint256"
        }
      ],
      "stateMutability": "view",
      "type": "function"
    },
    {
      "inputs": [],
      "name": "paused",
      "outputs": [
        {
          "internalType": "bool",
          "name": "",
          "type": "bool"
        }
      ],
      "stateMutability": "view",
      "type": "function"
    },
    {
      "inputs": [],
      "name": "renounceOwnership",
      "outputs": [],
      "stateMutability": "nonpayable",
      "type": "function"
    },
    {
      "inputs": [
        {
          "internalType": "bytes32",
          "name": "role",
          "type": "bytes32"
        },
        {
          "internalType": "address",
          "name": "account",
          "type": "address"
        }
      ],
      "name": "renounceRole",
      "outputs": [],
      "stateMutability": "nonpayable",
      "type": "function"
    },
    {
      "inputs": [
        {
          "internalType": "bytes32",
          "name": "role",
          "type": "bytes32"
        },
        {
          "internalType": "address",
          "name": "account",
          "type": "address"
        }
      ],
      "name": "revokeRole",
      "outputs": [],
      "stateMutability": "nonpayable",
      "type": "function"
    },
    {
      "inputs": [
        {
          "internalType": "address",
          "name": "_token",
          "type": "address"
        },
        {
          "internalType": "uint256",
          "name": "_amount",
          "type": "uint256"
        }
      ],
      "name": "stakeERC20",
      "outputs": [],
      "stateMutability": "nonpayable",
      "type": "function"
    },
    {
      "inputs": [
        {
          "internalType": "address",
          "name": "_token",
          "type": "address"
        },
        {
          "internalType": "uint256",
          "name": "_tokenId",
          "type": "uint256"
        }
      ],
      "name": "stakeERC721",
      "outputs": [],
      "stateMutability": "nonpayable",
      "type": "function"
    },
    {
      "inputs": [
        {
          "internalType": "address",
          "name": "_user",
          "type": "address"
        }
      ],
      "name": "stakingPower",
      "outputs": [
        {
          "internalType": "uint256",
          "name": "",
          "type": "uint256"
        }
      ],
      "stateMutability": "view",
      "type": "function"
    },
    {
      "inputs": [
        {
          "internalType": "bytes4",
          "name": "interfaceId",
          "type": "bytes4"
        }
      ],
      "name": "supportsInterface",
      "outputs": [
        {
          "internalType": "bool",
          "name": "",
          "type": "bool"
        }
      ],
      "stateMutability": "view",
      "type": "function"
    },
    {
      "inputs": [],
      "name": "totalStaked",
      "outputs": [
        {
          "internalType": "uint256",
          "name": "",
          "type": "uint256"
        }
      ],
      "stateMutability": "view",
      "type": "function"
    },
    {
      "inputs": [
        {
          "internalType": "address",
          "name": "newOwner",
          "type": "address"
        }
      ],
      "name": "transferOwnership",
      "outputs": [],
      "stateMutability": "nonpayable",
      "type": "function"
    },
    {
      "inputs": [
        {
          "internalType": "address",
          "name": "_token",
          "type": "address"
        },
        {
          "internalType": "uint256",
          "name": "_amount",
          "type": "uint256"
        }
      ],
      "name": "unstakeERC20",
      "outputs": [],
      "stateMutability": "nonpayable",
      "type": "function"
    },
    {
      "inputs": [
        {
          "internalType": "address",
          "name": "_token",
          "type": "address"
        },
        {
          "internalType": "uint256",
          "name": "_tokenId",
          "type": "uint256"
        }
      ],
      "name": "unstakeERC721",
      "outputs": [],
      "stateMutability": "nonpayable",
      "type": "function"
    },
    {
      "inputs": [
        {
          "internalType": "address",
          "name": "newImplementation",
          "type": "address"
        }
      ],
      "name": "upgradeTo",
      "outputs": [],
      "stateMutability": "nonpayable",
      "type": "function"
    },
    {
      "inputs": [
        {
          "internalType": "address",
          "name": "newImplementation",
          "type": "address"
        },
        {
          "internalType": "bytes",
          "name": "data",
          "type": "bytes"
        }
      ],
      "name": "upgradeToAndCall",
      "outputs": [],
      "stateMutability": "payable",
      "type": "function"
    },
    {
      "inputs": [
        {
          "internalType": "address",
          "name": "_user",
          "type": "address"
        },
        {
          "internalType": "address",
          "name": "_token",
          "type": "address"
        }
      ],
      "name": "userStaked",
      "outputs": [
        {
          "internalType": "uint256",
          "name": "",
          "type": "uint256"
        }
      ],
      "stateMutability": "view",
      "type": "function"
    },
    {
      "inputs": [],
      "name": "version",
      "outputs": [
        {
          "internalType": "uint256",
          "name": "",
          "type": "uint256"
        }
      ],
      "stateMutability": "view",
      "type": "function"
    }
  ],
  "bytecode": "0x60a06040523060805234801561001457600080fd5b5060805161301f610045600039600081816107c001528181610856015281816109bb0152610a51015261301f6000f3fe6080604052600436106101a15760003560e01c80635e5c06e2116100e1578063a217fddf1161008a578063e46f4ead11610064578063e46f4ead1461050c578063ebfb64601461052c578063f2fde38b1461054c578063ffe489021461056c57600080fd5b8063a217fddf146104b7578063c581af91146104cc578063d547741f146104ec57600080fd5b8063817b1cd2116100bb578063817b1cd21461043e5780638da5cb5b1461045357806391d148541461047157600080fd5b80635e5c06e21461038f578063715018a6146103de5780637771dad5146103f357600080fd5b806336568abe1161014e5780634f1ef286116101285780634f1ef2861461032d57806354fd4d5014610340578063564e90e4146103575780635c975abb1461037757600080fd5b806336568abe146102cd5780633659cfe6146102ed5780634c23648d1461030d57600080fd5b806322dc55951161017f57806322dc55951461025a578063248a9ca31461026f5780632f2ff15d146102ad57600080fd5b806301ffc9a7146101a6578063075b52c6146101db578063150b7a02146101fd575b600080fd5b3480156101b257600080fd5b506101c66101c1366004612b70565b61058c565b60405190151581526020015b60405180910390f35b3480156101e757600080fd5b506101fb6101f6366004612bb6565b6105dc565b005b34801561020957600080fd5b50610241610218366004612c83565b7f150b7a0200000000000000000000000000000000000000000000000000000000949350505050565b6040516001600160e01b031990911681526020016101d2565b34801561026657600080fd5b506101fb6105eb565b34801561027b57600080fd5b5061029f61028a366004612ceb565b60009081526097602052604090206001015490565b6040519081526020016101d2565b3480156102b957600080fd5b506101fb6102c8366004612d04565b610702565b3480156102d957600080fd5b506101fb6102e8366004612d04565b61072d565b3480156102f957600080fd5b506101fb610308366004612d30565b6107b5565b34801561031957600080fd5b506101fb610328366004612bb6565b610950565b6101fb61033b366004612d4b565b6109b0565b34801561034c57600080fd5b5061029f6101915481565b34801561036357600080fd5b5061029f610372366004612bb6565b610b3b565b34801561038357600080fd5b5060fb5460ff166101c6565b34801561039b57600080fd5b506103c66103aa366004612d30565b6101c4602052600090815260409020546001600160a01b031681565b6040516001600160a01b0390911681526020016101d2565b3480156103ea57600080fd5b506101fb610b65565b3480156103ff57600080fd5b5061029f61040e366004612d99565b6001600160a01b0391821660009081526101c4602090815260408083209390941682526001909201909152205490565b34801561044a57600080fd5b5061029f610bcb565b34801561045f57600080fd5b506033546001600160a01b03166103c6565b34801561047d57600080fd5b506101c661048c366004612d04565b60009182526097602090815260408084206001600160a01b0393909316845291905290205460ff1690565b3480156104c357600080fd5b5061029f600081565b3480156104d857600080fd5b506101fb6104e7366004612bb6565b610bdd565b3480156104f857600080fd5b506101fb610507366004612d04565b610be8565b34801561051857600080fd5b506101fb610527366004612bb6565b610c0e565b34801561053857600080fd5b5061029f610547366004612ceb565b610c6f565b34801561055857600080fd5b506101fb610567366004612d30565b610ccc565b34801561057857600080fd5b5061029f610587366004612d30565b610dab565b60006001600160e01b031982167f7965db0b0000000000000000000000000000000000000000000000000000000014806105d657506301ffc9a760e01b6001600160e01b03198316145b92915050565b6105e7338383610dcd565b5050565b600054610100900460ff166106065760005460ff161561060a565b303b155b6106815760405162461bcd60e51b815260206004820152602e60248201527f496e697469616c697a61626c653a20636f6e747261637420697320616c72656160448201527f647920696e697469616c697a656400000000000000000000000000000000000060648201526084015b60405180910390fd5b600054610100900460ff161580156106c057600080547fffffffffffffffffffffffffffffffffffffffffffffffffffffffffffff0000166101011790555b6106c8610f7e565b6106d0611055565b80156106ff57600080547fffffffffffffffffffffffffffffffffffffffffffffffffffffffffffff00ff1690555b50565b60008281526097602052604090206001015461071e81336110c8565b6107288383611148565b505050565b6001600160a01b03811633146107ab5760405162461bcd60e51b815260206004820152602f60248201527f416363657373436f6e74726f6c3a2063616e206f6e6c792072656e6f756e636560448201527f20726f6c657320666f722073656c6600000000000000000000000000000000006064820152608401610678565b6105e782826111ea565b306001600160a01b037f00000000000000000000000000000000000000000000000000000000000000001614156108545760405162461bcd60e51b815260206004820152602c60248201527f46756e6374696f6e206d7573742062652063616c6c6564207468726f7567682060448201527f64656c656761746563616c6c00000000000000000000000000000000000000006064820152608401610678565b7f00000000000000000000000000000000000000000000000000000000000000006001600160a01b03166108af7f360894a13ba1a3210667c828492db98dca3e2076cc3735a920a3ca505d382bbc546001600160a01b031690565b6001600160a01b03161461092b5760405162461bcd60e51b815260206004820152602c60248201527f46756e6374696f6e206d7573742062652063616c6c6564207468726f7567682060448201527f6163746976652070726f787900000000000000000000000000000000000000006064820152608401610678565b6109348161126d565b604080516000808252602082019092526106ff918391906112c7565b61095982611476565b6109a55760405162461bcd60e51b815260206004820152601b60248201527f53686f756c642045524337323120746f6b656e206164647265737300000000006044820152606401610678565b6105e73383836114ab565b306001600160a01b037f0000000000000000000000000000000000000000000000000000000000000000161415610a4f5760405162461bcd60e51b815260206004820152602c60248201527f46756e6374696f6e206d7573742062652063616c6c6564207468726f7567682060448201527f64656c656761746563616c6c00000000000000000000000000000000000000006064820152608401610678565b7f00000000000000000000000000000000000000000000000000000000000000006001600160a01b0316610aaa7f360894a13ba1a3210667c828492db98dca3e2076cc3735a920a3ca505d382bbc546001600160a01b031690565b6001600160a01b031614610b265760405162461bcd60e51b815260206004820152602c60248201527f46756e6374696f6e206d7573742062652063616c6c6564207468726f7567682060448201527f6163746976652070726f787900000000000000000000000000000000000000006064820152608401610678565b610b2f8261126d565b6105e7828260016112c7565b6001600160a01b03821660009081526101c560205260408120610b5e908361165f565b9392505050565b6033546001600160a01b03163314610bbf5760405162461bcd60e51b815260206004820181905260248201527f4f776e61626c653a2063616c6c6572206973206e6f7420746865206f776e65726044820152606401610678565b610bc9600061176e565b565b6000610bd86101c66117cd565b905090565b6105e7338383611829565b600082815260976020526040902060010154610c0481336110c8565b61072883836111ea565b610c1782611476565b15610c645760405162461bcd60e51b815260206004820152601a60248201527f53686f756c6420455243323020746f6b656e20616464726573730000000000006044820152606401610678565b6105e7338383611964565b6000438210610cc05760405162461bcd60e51b815260206004820152601360248201527f426c6f636b206e6f7420796574206d696e6564000000000000000000000000006044820152606401610678565b6105d66101c68361165f565b6033546001600160a01b03163314610d265760405162461bcd60e51b815260206004820181905260248201527f4f776e61626c653a2063616c6c6572206973206e6f7420746865206f776e65726044820152606401610678565b6001600160a01b038116610da25760405162461bcd60e51b815260206004820152602660248201527f4f776e61626c653a206e6577206f776e657220697320746865207a65726f206160448201527f64647265737300000000000000000000000000000000000000000000000000006064820152608401610678565b6106ff8161176e565b6001600160a01b03811660009081526101c5602052604081206105d6906117cd565b6001600160a01b0380841660009081526101c46020908152604080832093861683526001909301905220548114610e465760405162461bcd60e51b815260206004820152601760248201527f53686f756c64206265207374616b6564204552433732310000000000000000006044820152606401610678565b6001600160a01b0380841660009081526101c4602090815260408083209386168352600190930190529081208054839290610e82908490612dd9565b90915550610e94905030846001611a45565b6040517f42842e0e0000000000000000000000000000000000000000000000000000000081523060048201526001600160a01b038481166024830152604482018390528316906342842e0e90606401600060405180830381600087803b158015610efd57600080fd5b505af1158015610f11573d6000803e3d6000fd5b505050506001600160a01b0383811660008181526101c4602090815260408083209487168084526001909501825291829020549151918252849392917f9b2808c2ec20946484be77abd405156d10d1cd4562da47ca81030727a133566091015b60405180910390a4505050565b600054610100900460ff16610fe95760405162461bcd60e51b815260206004820152602b60248201527f496e697469616c697a61626c653a20636f6e7472616374206973206e6f74206960448201526a6e697469616c697a696e6760a81b6064820152608401610678565b610ff1611ba8565b610ff9611c23565b611001611c9e565b611009611d11565b611011611d8c565b6001610191819055604080518082019091528181527f76000000000000000000000000000000000000000000000000000000000000006020820152610bc991611df7565b600054610100900460ff166110c05760405162461bcd60e51b815260206004820152602b60248201527f496e697469616c697a61626c653a20636f6e7472616374206973206e6f74206960448201526a6e697469616c697a696e6760a81b6064820152608401610678565b610bc9611e55565b60008281526097602090815260408083206001600160a01b038516845290915290205460ff166105e757611106816001600160a01b03166014611ec0565b611111836020611ec0565b604051602001611122929190612e1c565b60408051601f198184030181529082905262461bcd60e51b825261067891600401612ec9565b60008281526097602090815260408083206001600160a01b038516845290915290205460ff166105e75760008281526097602090815260408083206001600160a01b03851684529091529020805460ff191660011790556111a63390565b6001600160a01b0316816001600160a01b0316837f2f8788117e7eff1d82e926ec794901d17c78024a50270940304540a733656f0d60405160405180910390a45050565b60008281526097602090815260408083206001600160a01b038516845290915290205460ff16156105e75760008281526097602090815260408083206001600160a01b0385168085529252808320805460ff1916905551339285917ff6391f5c32d9c69d2a47ea670b442974b53935d1edc7fd64eb21e047a839171b9190a45050565b6033546001600160a01b031633146106ff5760405162461bcd60e51b815260206004820181905260248201527f4f776e61626c653a2063616c6c6572206973206e6f7420746865206f776e65726044820152606401610678565b60006112fa7f360894a13ba1a3210667c828492db98dca3e2076cc3735a920a3ca505d382bbc546001600160a01b031690565b9050611305846120e9565b6000835111806113125750815b156113235761132184846121ab565b505b7f4910fdfa16fed3260ed0e7147f7cc6da11a60208b5b9406d12a635614ffd9143805460ff1661146f57805460ff191660011781556040516001600160a01b03831660248201526113bb90869060440160408051601f198184030181529190526020810180516001600160e01b03167f3659cfe6000000000000000000000000000000000000000000000000000000001790526121ab565b50805460ff191681557f360894a13ba1a3210667c828492db98dca3e2076cc3735a920a3ca505d382bbc546001600160a01b038381169116146114665760405162461bcd60e51b815260206004820152602f60248201527f45524331393637557067726164653a207570677261646520627265616b73206660448201527f75727468657220757067726164657300000000000000000000000000000000006064820152608401610678565b61146f856122ad565b5050505050565b60006105d66001600160a01b0383167f80ac58cd000000000000000000000000000000000000000000000000000000006122ed565b6001600160a01b0380841660009081526101c4602090815260408083209386168352600190930190522054156115235760405162461bcd60e51b815260206004820152601560248201527f416c7265616479207374616b65642045524337323100000000000000000000006044820152606401610678565b6040517f42842e0e0000000000000000000000000000000000000000000000000000000081526001600160a01b038481166004830152306024830152604482018390528316906342842e0e90606401600060405180830381600087803b15801561158c57600080fd5b505af11580156115a0573d6000803e3d6000fd5b5050506001600160a01b0380851660008181526101c460209081526040808320805473ffffffffffffffffffffffffffffffffffffffff19169094178455938716825260019283019052919091208390556115ff915084903090611a45565b6001600160a01b0383811660008181526101c4602090815260408083209487168084526001909501825291829020549151918252849392917f85f412ca9b21ff8d020280b7801d0a5a64907f4c89ef211d2317060fb81076a29101610f71565b60004382106116b05760405162461bcd60e51b815260206004820181905260248201527f436865636b706f696e74733a20626c6f636b206e6f7420796574206d696e65646044820152606401610678565b825460005b818110156117155760006116c98284612309565b9050848660000182815481106116e1576116e1612edc565b60009182526020909120015463ffffffff1611156117015780925061170f565b61170c816001612ef2565b91505b506116b5565b81156117595784611727600184612dd9565b8154811061173757611737612edc565b60009182526020909120015464010000000090046001600160e01b031661175c565b60005b6001600160e01b031695945050505050565b603380546001600160a01b0383811673ffffffffffffffffffffffffffffffffffffffff19831681179093556040519116919082907f8be0079c531659141344cd1fd0a4f28419497f9722a3daafe3b4186f6b6457e090600090a35050565b8054600090801561181657826117e4600183612dd9565b815481106117f4576117f4612edc565b60009182526020909120015464010000000090046001600160e01b0316611819565b60005b6001600160e01b03169392505050565b6001600160a01b0380841660009081526101c46020908152604080832093861683526001909301905220548111156118a35760405162461bcd60e51b815260206004820152601f60248201527f53686f756c64206e6f7420657863656564207374616b656420616d6f756e74006044820152606401610678565b6001600160a01b0380841660009081526101c46020908152604080832093861683526001909301905290812080548392906118df908490612dd9565b909155506118f09050308483611a45565b6119046001600160a01b0383168483612324565b6001600160a01b0383811660008181526101c4602090815260408083209487168084526001909501825291829020549151918252849392917f64b8c65ba4b0826e706af9bb160f340bff304df077aeed5c0df8b5ee238f2c2a9101610f71565b6119796001600160a01b0383168430846123a0565b6001600160a01b0380841660008181526101c460209081526040808320805473ffffffffffffffffffffffffffffffffffffffff191690941784559386168252600190920190915290812080548392906119d4908490612ef2565b909155506119e59050833083611a45565b6001600160a01b0383811660008181526101c4602090815260408083209487168084526001909501825291829020549151918252849392917f192156f4d1a94b319b075c7325f06b279dc2a8672cb03027c22e6360ed295c5f9101610f71565b816001600160a01b0316836001600160a01b031614158015611a675750600081115b15610728576001600160a01b0383163014611b0857611a8b6101c66123f783612403565b50506001600160a01b03831660009081526101c5602052604081208190611ab5906123f785612403565b91509150846001600160a01b03167f1eaf80a49af289fa0579362825c4da34ad730825b2399abb824ea3a7b60161078383604051611afd929190918252602082015260400190565b60405180910390a250505b6001600160a01b038216301461072857611b276101c661243183612403565b50506001600160a01b03821660009081526101c5602052604081208190611b519061243185612403565b91509150836001600160a01b03167f1eaf80a49af289fa0579362825c4da34ad730825b2399abb824ea3a7b60161078383604051611b99929190918252602082015260400190565b60405180910390a25050505050565b600054610100900460ff16611c135760405162461bcd60e51b815260206004820152602b60248201527f496e697469616c697a61626c653a20636f6e7472616374206973206e6f74206960448201526a6e697469616c697a696e6760a81b6064820152608401610678565b611c1b611e55565b610bc961243d565b600054610100900460ff16611c8e5760405162461bcd60e51b815260206004820152602b60248201527f496e697469616c697a61626c653a20636f6e7472616374206973206e6f74206960448201526a6e697469616c697a696e6760a81b6064820152608401610678565b611c96611e55565b6110c0611e55565b600054610100900460ff16611d095760405162461bcd60e51b815260206004820152602b60248201527f496e697469616c697a61626c653a20636f6e7472616374206973206e6f74206960448201526a6e697469616c697a696e6760a81b6064820152608401610678565b610bc96124b1565b600054610100900460ff16611d7c5760405162461bcd60e51b815260206004820152602b60248201527f496e697469616c697a61626c653a20636f6e7472616374206973206e6f74206960448201526a6e697469616c697a696e6760a81b6064820152608401610678565b611d84611e55565b610bc9612523565b600054610100900460ff16611c965760405162461bcd60e51b815260206004820152602b60248201527f496e697469616c697a61626c653a20636f6e7472616374206973206e6f74206960448201526a6e697469616c697a696e6760a81b6064820152608401610678565b6105e78282604051602401611e0d929190612f0a565b60408051601f198184030181529190526020810180516001600160e01b03167f9710a9d00000000000000000000000000000000000000000000000000000000017905261259a565b600054610100900460ff16610bc95760405162461bcd60e51b815260206004820152602b60248201527f496e697469616c697a61626c653a20636f6e7472616374206973206e6f74206960448201526a6e697469616c697a696e6760a81b6064820152608401610678565b60606000611ecf836002612f2c565b611eda906002612ef2565b67ffffffffffffffff811115611ef257611ef2612be0565b6040519080825280601f01601f191660200182016040528015611f1c576020820181803683370190505b5090507f300000000000000000000000000000000000000000000000000000000000000081600081518110611f5357611f53612edc565b60200101907effffffffffffffffffffffffffffffffffffffffffffffffffffffffffffff1916908160001a9053507f780000000000000000000000000000000000000000000000000000000000000081600181518110611fb657611fb6612edc565b60200101907effffffffffffffffffffffffffffffffffffffffffffffffffffffffffffff1916908160001a9053506000611ff2846002612f2c565b611ffd906001612ef2565b90505b600181111561209a577f303132333435363738396162636465660000000000000000000000000000000085600f166010811061203e5761203e612edc565b1a60f81b82828151811061205457612054612edc565b60200101907effffffffffffffffffffffffffffffffffffffffffffffffffffffffffffff1916908160001a90535060049490941c9361209381612f4b565b9050612000565b508315610b5e5760405162461bcd60e51b815260206004820181905260248201527f537472696e67733a20686578206c656e67746820696e73756666696369656e746044820152606401610678565b803b61215d5760405162461bcd60e51b815260206004820152602d60248201527f455243313936373a206e657720696d706c656d656e746174696f6e206973206e60448201527f6f74206120636f6e7472616374000000000000000000000000000000000000006064820152608401610678565b7f360894a13ba1a3210667c828492db98dca3e2076cc3735a920a3ca505d382bbc805473ffffffffffffffffffffffffffffffffffffffff19166001600160a01b0392909216919091179055565b6060823b6122215760405162461bcd60e51b815260206004820152602660248201527f416464726573733a2064656c65676174652063616c6c20746f206e6f6e2d636f60448201527f6e747261637400000000000000000000000000000000000000000000000000006064820152608401610678565b600080846001600160a01b03168460405161223c9190612f62565b600060405180830381855af49150503d8060008114612277576040519150601f19603f3d011682016040523d82523d6000602084013e61227c565b606091505b50915091506122a48282604051806060016040528060278152602001612fc3602791396125bb565b95945050505050565b6122b6816120e9565b6040516001600160a01b038216907fbc7cd75a20ee27fd9adebab32041f755214dbc6bffa90cc0225b39da2e5c2d3b90600090a250565b60006122f8836125f4565b8015610b5e5750610b5e8383612627565b60006123186002848418612f7e565b610b5e90848416612ef2565b6040516001600160a01b0383166024820152604481018290526107289084907fa9059cbb00000000000000000000000000000000000000000000000000000000906064015b60408051601f198184030181529190526020810180516001600160e01b03166001600160e01b031990931692909217909152612710565b6040516001600160a01b03808516602483015283166044820152606481018290526123f19085907f23b872dd0000000000000000000000000000000000000000000000000000000090608401612369565b50505050565b6000610b5e8284612ef2565b60008061242585612420612416886117cd565b868863ffffffff16565b6127f5565b91509150935093915050565b6000610b5e8284612dd9565b600054610100900460ff166124a85760405162461bcd60e51b815260206004820152602b60248201527f496e697469616c697a61626c653a20636f6e7472616374206973206e6f74206960448201526a6e697469616c697a696e6760a81b6064820152608401610678565b610bc93361176e565b600054610100900460ff1661251c5760405162461bcd60e51b815260206004820152602b60248201527f496e697469616c697a61626c653a20636f6e7472616374206973206e6f74206960448201526a6e697469616c697a696e6760a81b6064820152608401610678565b600160c955565b600054610100900460ff1661258e5760405162461bcd60e51b815260206004820152602b60248201527f496e697469616c697a61626c653a20636f6e7472616374206973206e6f74206960448201526a6e697469616c697a696e6760a81b6064820152608401610678565b60fb805460ff19169055565b80516a636f6e736f6c652e6c6f67602083016000808483855afa5050505050565b606083156125ca575081610b5e565b8251156125da5782518084602001fd5b8160405162461bcd60e51b81526004016106789190612ec9565b6000612607826301ffc9a760e01b612627565b80156105d65750612620826001600160e01b0319612627565b1592915050565b604080516001600160e01b0319831660248083019190915282518083039091018152604490910182526020810180516001600160e01b03166301ffc9a760e01b179052905160009190829081906001600160a01b038716906175309061268e908690612f62565b6000604051808303818686fa925050503d80600081146126ca576040519150601f19603f3d011682016040523d82523d6000602084013e6126cf565b606091505b50915091506020815110156126ea57600093505050506105d6565b8180156127065750808060200190518101906127069190612fa0565b9695505050505050565b6000612765826040518060400160405280602081526020017f5361666545524332303a206c6f772d6c6576656c2063616c6c206661696c6564815250856001600160a01b031661291b9092919063ffffffff16565b80519091501561072857808060200190518101906127839190612fa0565b6107285760405162461bcd60e51b815260206004820152602a60248201527f5361666545524332303a204552433230206f7065726174696f6e20646964206e60448201527f6f742073756363656564000000000000000000000000000000000000000000006064820152608401610678565b8154600090819081612806866117cd565b905060008211801561284457504386612820600185612dd9565b8154811061283057612830612edc565b60009182526020909120015463ffffffff16145b156128a45761285285612932565b8661285e600185612dd9565b8154811061286e5761286e612edc565b9060005260206000200160000160046101000a8154816001600160e01b0302191690836001600160e01b03160217905550612912565b8560000160405180604001604052806128bc436129b5565b63ffffffff1681526020016128d088612932565b6001600160e01b0390811690915282546001810184556000938452602093849020835194909301519091166401000000000263ffffffff909316929092179101555b95939450505050565b606061292a8484600085612a31565b949350505050565b60006001600160e01b038211156129b15760405162461bcd60e51b815260206004820152602760248201527f53616665436173743a2076616c756520646f65736e27742066697420696e203260448201527f32342062697473000000000000000000000000000000000000000000000000006064820152608401610678565b5090565b600063ffffffff8211156129b15760405162461bcd60e51b815260206004820152602660248201527f53616665436173743a2076616c756520646f65736e27742066697420696e203360448201527f32206269747300000000000000000000000000000000000000000000000000006064820152608401610678565b606082471015612aa95760405162461bcd60e51b815260206004820152602660248201527f416464726573733a20696e73756666696369656e742062616c616e636520666f60448201527f722063616c6c00000000000000000000000000000000000000000000000000006064820152608401610678565b843b612af75760405162461bcd60e51b815260206004820152601d60248201527f416464726573733a2063616c6c20746f206e6f6e2d636f6e74726163740000006044820152606401610678565b600080866001600160a01b03168587604051612b139190612f62565b60006040518083038185875af1925050503d8060008114612b50576040519150601f19603f3d011682016040523d82523d6000602084013e612b55565b606091505b5091509150612b658282866125bb565b979650505050505050565b600060208284031215612b8257600080fd5b81356001600160e01b031981168114610b5e57600080fd5b80356001600160a01b0381168114612bb157600080fd5b919050565b60008060408385031215612bc957600080fd5b612bd283612b9a565b946020939093013593505050565b634e487b7160e01b600052604160045260246000fd5b600082601f830112612c0757600080fd5b813567ffffffffffffffff80821115612c2257612c22612be0565b604051601f8301601f19908116603f01168101908282118183101715612c4a57612c4a612be0565b81604052838152866020858801011115612c6357600080fd5b836020870160208301376000602085830101528094505050505092915050565b60008060008060808587031215612c9957600080fd5b612ca285612b9a565b9350612cb060208601612b9a565b925060408501359150606085013567ffffffffffffffff811115612cd357600080fd5b612cdf87828801612bf6565b91505092959194509250565b600060208284031215612cfd57600080fd5b5035919050565b60008060408385031215612d1757600080fd5b82359150612d2760208401612b9a565b90509250929050565b600060208284031215612d4257600080fd5b610b5e82612b9a565b60008060408385031215612d5e57600080fd5b612d6783612b9a565b9150602083013567ffffffffffffffff811115612d8357600080fd5b612d8f85828601612bf6565b9150509250929050565b60008060408385031215612dac57600080fd5b612db583612b9a565b9150612d2760208401612b9a565b634e487b7160e01b600052601160045260246000fd5b600082821015612deb57612deb612dc3565b500390565b60005b83811015612e0b578181015183820152602001612df3565b838111156123f15750506000910152565b7f416363657373436f6e74726f6c3a206163636f756e7420000000000000000000815260008351612e54816017850160208801612df0565b7f206973206d697373696e6720726f6c65200000000000000000000000000000006017918401918201528351612e91816028840160208801612df0565b01602801949350505050565b60008151808452612eb5816020860160208601612df0565b601f01601f19169290920160200192915050565b602081526000610b5e6020830184612e9d565b634e487b7160e01b600052603260045260246000fd5b60008219821115612f0557612f05612dc3565b500190565b604081526000612f1d6040830185612e9d565b90508260208301529392505050565b6000816000190483118215151615612f4657612f46612dc3565b500290565b600081612f5a57612f5a612dc3565b506000190190565b60008251612f74818460208701612df0565b9190910192915050565b600082612f9b57634e487b7160e01b600052601260045260246000fd5b500490565b600060208284031215612fb257600080fd5b81518015158114610b5e57600080fdfe416464726573733a206c6f772d6c6576656c2064656c65676174652063616c6c206661696c6564a264697066735822122083e37748c758fd574f683083e5616c33ed4513833074d84c388dc8ec8c76a2a264736f6c634300080b0033",
  "linkReferences": {},
  "deployedLinkReferences": {}
}