{
  "_format": "hh-sol-artifact-1",
  "contractName": "ZDAORegistry",
  "sourceName": "contracts/ZDAORegistry.sol",
  "abi": [
    {
      "anonymous": false,
      "inputs": [
        {
          "indexed": false,
          "internalType": "address",
          "name": "previousAdmin",
          "type": "address"
        },
        {
          "indexed": false,
          "internalType": "address",
          "name": "newAdmin",
          "type": "address"
        }
      ],
      "name": "AdminChanged",
      "type": "event"
    },
    {
      "anonymous": false,
      "inputs": [
        {
          "indexed": true,
          "internalType": "address",
          "name": "beacon",
          "type": "address"
        }
      ],
      "name": "BeaconUpgraded",
      "type": "event"
    },
    {
      "anonymous": false,
      "inputs": [
        {
          "indexed": true,
          "internalType": "uint256",
          "name": "_platformType",
          "type": "uint256"
        },
        {
          "indexed": true,
          "internalType": "uint256",
          "name": "_zDAOId",
          "type": "uint256"
        },
        {
          "indexed": true,
          "internalType": "address",
          "name": "_gnosisSafe",
          "type": "address"
        },
        {
          "indexed": false,
          "internalType": "address",
          "name": "_creator",
          "type": "address"
        },
        {
          "indexed": false,
          "internalType": "address",
          "name": "_zDAO",
          "type": "address"
        }
      ],
      "name": "DAOCreated",
      "type": "event"
    },
    {
      "anonymous": false,
      "inputs": [
        {
          "indexed": true,
          "internalType": "uint256",
          "name": "_zDAOId",
          "type": "uint256"
        }
      ],
      "name": "DAODestroyed",
      "type": "event"
    },
    {
      "anonymous": false,
      "inputs": [
        {
          "indexed": true,
          "internalType": "uint256",
          "name": "_zDAOId",
          "type": "uint256"
        },
        {
          "indexed": true,
          "internalType": "address",
          "name": "_gnosisSafe",
          "type": "address"
        }
      ],
      "name": "DAOModified",
      "type": "event"
    },
    {
      "anonymous": false,
      "inputs": [
        {
          "indexed": true,
          "internalType": "uint256",
          "name": "_zDAOId",
          "type": "uint256"
        },
        {
          "indexed": true,
          "internalType": "uint256",
          "name": "_zNA",
          "type": "uint256"
        }
      ],
      "name": "LinkAdded",
      "type": "event"
    },
    {
      "anonymous": false,
      "inputs": [
        {
          "indexed": true,
          "internalType": "uint256",
          "name": "_zDAOId",
          "type": "uint256"
        },
        {
          "indexed": true,
          "internalType": "uint256",
          "name": "_zNA",
          "type": "uint256"
        }
      ],
      "name": "LinkRemoved",
      "type": "event"
    },
    {
      "anonymous": false,
      "inputs": [
        {
          "indexed": true,
          "internalType": "address",
          "name": "previousOwner",
          "type": "address"
        },
        {
          "indexed": true,
          "internalType": "address",
          "name": "newOwner",
          "type": "address"
        }
      ],
      "name": "OwnershipTransferred",
      "type": "event"
    },
    {
      "anonymous": false,
      "inputs": [
        {
          "indexed": false,
          "internalType": "address",
          "name": "account",
          "type": "address"
        }
      ],
      "name": "Paused",
      "type": "event"
    },
    {
      "anonymous": false,
      "inputs": [
        {
          "indexed": true,
          "internalType": "bytes32",
          "name": "role",
          "type": "bytes32"
        },
        {
          "indexed": true,
          "internalType": "bytes32",
          "name": "previousAdminRole",
          "type": "bytes32"
        },
        {
          "indexed": true,
          "internalType": "bytes32",
          "name": "newAdminRole",
          "type": "bytes32"
        }
      ],
      "name": "RoleAdminChanged",
      "type": "event"
    },
    {
      "anonymous": false,
      "inputs": [
        {
          "indexed": true,
          "internalType": "bytes32",
          "name": "role",
          "type": "bytes32"
        },
        {
          "indexed": true,
          "internalType": "address",
          "name": "account",
          "type": "address"
        },
        {
          "indexed": true,
          "internalType": "address",
          "name": "sender",
          "type": "address"
        }
      ],
      "name": "RoleGranted",
      "type": "event"
    },
    {
      "anonymous": false,
      "inputs": [
        {
          "indexed": true,
          "internalType": "bytes32",
          "name": "role",
          "type": "bytes32"
        },
        {
          "indexed": true,
          "internalType": "address",
          "name": "account",
          "type": "address"
        },
        {
          "indexed": true,
          "internalType": "address",
          "name": "sender",
          "type": "address"
        }
      ],
      "name": "RoleRevoked",
      "type": "event"
    },
    {
      "anonymous": false,
      "inputs": [
        {
          "indexed": false,
          "internalType": "address",
          "name": "account",
          "type": "address"
        }
      ],
      "name": "Unpaused",
      "type": "event"
    },
    {
      "anonymous": false,
      "inputs": [
        {
          "indexed": true,
          "internalType": "address",
          "name": "implementation",
          "type": "address"
        }
      ],
      "name": "Upgraded",
      "type": "event"
    },
    {
      "inputs": [],
      "name": "DEFAULT_ADMIN_ROLE",
      "outputs": [
        {
          "internalType": "bytes32",
          "name": "",
          "type": "bytes32"
        }
      ],
      "stateMutability": "view",
      "type": "function"
    },
    {
      "inputs": [
        {
          "internalType": "contract IZNSHub",
          "name": "_znsHub",
          "type": "address"
        }
      ],
      "name": "__ZDAORegistry_init",
      "outputs": [],
      "stateMutability": "nonpayable",
      "type": "function"
    },
    {
      "inputs": [
        {
          "internalType": "uint256",
          "name": "_platformType",
          "type": "uint256"
        },
        {
          "internalType": "uint256",
          "name": "_zNA",
          "type": "uint256"
        },
        {
          "internalType": "address",
          "name": "_gnosisSafe",
          "type": "address"
        },
        {
          "internalType": "bytes",
          "name": "_options",
          "type": "bytes"
        }
      ],
      "name": "addNewZDAO",
      "outputs": [],
      "stateMutability": "nonpayable",
      "type": "function"
    },
    {
      "inputs": [
        {
          "internalType": "enum IZDAORegistry.PlatformType",
          "name": "_platformType",
          "type": "uint8"
        },
        {
          "internalType": "contract IZDAOFactory",
          "name": "_factory",
          "type": "address"
        }
      ],
      "name": "addZDAOFactory",
      "outputs": [],
      "stateMutability": "nonpayable",
      "type": "function"
    },
    {
      "inputs": [
        {
          "internalType": "uint256",
          "name": "_zDAOId",
          "type": "uint256"
        },
        {
          "internalType": "uint256",
          "name": "_zNA",
          "type": "uint256"
        }
      ],
      "name": "addZNAAssociation",
      "outputs": [],
      "stateMutability": "nonpayable",
      "type": "function"
    },
    {
      "inputs": [
        {
          "internalType": "uint256",
          "name": "_zDAOId",
          "type": "uint256"
        },
        {
          "internalType": "uint256",
          "name": "_zNA",
          "type": "uint256"
        }
      ],
      "name": "adminAssociateZNA",
      "outputs": [],
      "stateMutability": "nonpayable",
      "type": "function"
    },
    {
      "inputs": [
        {
          "internalType": "uint256",
          "name": "_zDAOId",
          "type": "uint256"
        },
        {
          "internalType": "uint256",
          "name": "_zNA",
          "type": "uint256"
        }
      ],
      "name": "adminDisassociateZNA",
      "outputs": [],
      "stateMutability": "nonpayable",
      "type": "function"
    },
    {
      "inputs": [
        {
          "internalType": "uint256",
          "name": "_zDAOId",
          "type": "uint256"
        },
        {
          "internalType": "address",
          "name": "_gnosisSafe",
          "type": "address"
        },
        {
          "internalType": "bytes",
          "name": "_options",
          "type": "bytes"
        }
      ],
      "name": "adminModifyZDAO",
      "outputs": [],
      "stateMutability": "nonpayable",
      "type": "function"
    },
    {
      "inputs": [
        {
          "internalType": "uint256",
          "name": "_zDAOId",
          "type": "uint256"
        }
      ],
      "name": "adminRemoveZDAO",
      "outputs": [],
      "stateMutability": "nonpayable",
      "type": "function"
    },
    {
      "inputs": [
        {
          "internalType": "uint256",
          "name": "_zNA",
          "type": "uint256"
        }
      ],
      "name": "doesZNAExistForZNA",
      "outputs": [
        {
          "internalType": "bool",
          "name": "",
          "type": "bool"
        }
      ],
      "stateMutability": "view",
      "type": "function"
    },
    {
      "inputs": [
        {
          "internalType": "bytes32",
          "name": "role",
          "type": "bytes32"
        }
      ],
      "name": "getRoleAdmin",
      "outputs": [
        {
          "internalType": "bytes32",
          "name": "",
          "type": "bytes32"
        }
      ],
      "stateMutability": "view",
      "type": "function"
    },
    {
      "inputs": [
        {
          "internalType": "uint256",
          "name": "_zDAOId",
          "type": "uint256"
        }
      ],
      "name": "getZDAOById",
      "outputs": [
        {
          "components": [
            {
              "internalType": "uint256",
              "name": "platformType",
              "type": "uint256"
            },
            {
              "internalType": "uint256",
              "name": "id",
              "type": "uint256"
            },
            {
              "internalType": "address",
              "name": "zDAO",
              "type": "address"
            },
            {
              "internalType": "address",
              "name": "zDAOOwnedBy",
              "type": "address"
            },
            {
              "internalType": "address",
              "name": "gnosisSafe",
              "type": "address"
            },
            {
              "internalType": "bool",
              "name": "destroyed",
              "type": "bool"
            },
            {
              "internalType": "uint256[]",
              "name": "associatedzNAs",
              "type": "uint256[]"
            }
          ],
          "internalType": "struct IZDAORegistry.ZDAORecord",
          "name": "",
          "type": "tuple"
        }
      ],
      "stateMutability": "view",
      "type": "function"
    },
    {
      "inputs": [
        {
          "internalType": "uint256",
          "name": "_zNA",
          "type": "uint256"
        }
      ],
      "name": "getZDAOByZNA",
      "outputs": [
        {
          "components": [
            {
              "internalType": "uint256",
              "name": "platformType",
              "type": "uint256"
            },
            {
              "internalType": "uint256",
              "name": "id",
              "type": "uint256"
            },
            {
              "internalType": "address",
              "name": "zDAO",
              "type": "address"
            },
            {
              "internalType": "address",
              "name": "zDAOOwnedBy",
              "type": "address"
            },
            {
              "internalType": "address",
              "name": "gnosisSafe",
              "type": "address"
            },
            {
              "internalType": "bool",
              "name": "destroyed",
              "type": "bool"
            },
            {
              "internalType": "uint256[]",
              "name": "associatedzNAs",
              "type": "uint256[]"
            }
          ],
          "internalType": "struct IZDAORegistry.ZDAORecord",
          "name": "",
          "type": "tuple"
        }
      ],
      "stateMutability": "view",
      "type": "function"
    },
    {
      "inputs": [
        {
          "internalType": "bytes32",
          "name": "role",
          "type": "bytes32"
        },
        {
          "internalType": "address",
          "name": "account",
          "type": "address"
        }
      ],
      "name": "grantRole",
      "outputs": [],
      "stateMutability": "nonpayable",
      "type": "function"
    },
    {
      "inputs": [
        {
          "internalType": "bytes32",
          "name": "role",
          "type": "bytes32"
        },
        {
          "internalType": "address",
          "name": "account",
          "type": "address"
        }
      ],
      "name": "hasRole",
      "outputs": [
        {
          "internalType": "bool",
          "name": "",
          "type": "bool"
        }
      ],
      "stateMutability": "view",
      "type": "function"
    },
    {
      "inputs": [],
      "name": "lastZDAOId",
      "outputs": [
        {
          "internalType": "uint256",
          "name": "",
          "type": "uint256"
        }
      ],
      "stateMutability": "view",
      "type": "function"
    },
    {
      "inputs": [
        {
          "internalType": "uint256",
          "name": "_startIndex",
          "type": "uint256"
        },
        {
          "internalType": "uint256",
          "name": "_count",
          "type": "uint256"
        }
      ],
      "name": "listZDAOs",
      "outputs": [
        {
          "components": [
            {
              "internalType": "uint256",
              "name": "platformType",
              "type": "uint256"
            },
            {
              "internalType": "uint256",
              "name": "id",
              "type": "uint256"
            },
            {
              "internalType": "address",
              "name": "zDAO",
              "type": "address"
            },
            {
              "internalType": "address",
              "name": "zDAOOwnedBy",
              "type": "address"
            },
            {
              "internalType": "address",
              "name": "gnosisSafe",
              "type": "address"
            },
            {
              "internalType": "bool",
              "name": "destroyed",
              "type": "bool"
            },
            {
              "internalType": "uint256[]",
              "name": "associatedzNAs",
              "type": "uint256[]"
            }
          ],
          "internalType": "struct IZDAORegistry.ZDAORecord[]",
          "name": "records",
          "type": "tuple[]"
        }
      ],
      "stateMutability": "view",
      "type": "function"
    },
    {
      "inputs": [],
      "name": "numberOfzDAOs",
      "outputs": [
        {
          "internalType": "uint256",
          "name": "",
          "type": "uint256"
        }
      ],
      "stateMutability": "view",
      "type": "function"
    },
    {
      "inputs": [],
      "name": "owner",
      "outputs": [
        {
          "internalType": "address",
          "name": "",
          "type": "address"
        }
      ],
      "stateMutability": "view",
      "type": "function"
    },
    {
      "inputs": [],
      "name": "paused",
      "outputs": [
        {
          "internalType": "bool",
          "name": "",
          "type": "bool"
        }
      ],
      "stateMutability": "view",
      "type": "function"
    },
    {
      "inputs": [
        {
          "internalType": "uint256",
          "name": "_zDAOId",
          "type": "uint256"
        },
        {
          "internalType": "uint256",
          "name": "_zNA",
          "type": "uint256"
        }
      ],
      "name": "removeZNAAssociation",
      "outputs": [],
      "stateMutability": "nonpayable",
      "type": "function"
    },
    {
      "inputs": [],
      "name": "renounceOwnership",
      "outputs": [],
      "stateMutability": "nonpayable",
      "type": "function"
    },
    {
      "inputs": [
        {
          "internalType": "bytes32",
          "name": "role",
          "type": "bytes32"
        },
        {
          "internalType": "address",
          "name": "account",
          "type": "address"
        }
      ],
      "name": "renounceRole",
      "outputs": [],
      "stateMutability": "nonpayable",
      "type": "function"
    },
    {
      "inputs": [
        {
          "internalType": "bytes32",
          "name": "role",
          "type": "bytes32"
        },
        {
          "internalType": "address",
          "name": "account",
          "type": "address"
        }
      ],
      "name": "revokeRole",
      "outputs": [],
      "stateMutability": "nonpayable",
      "type": "function"
    },
    {
      "inputs": [
        {
          "internalType": "address",
          "name": "_znsHub",
          "type": "address"
        }
      ],
      "name": "setZNSHub",
      "outputs": [],
      "stateMutability": "nonpayable",
      "type": "function"
    },
    {
      "inputs": [
        {
          "internalType": "bytes4",
          "name": "interfaceId",
          "type": "bytes4"
        }
      ],
      "name": "supportsInterface",
      "outputs": [
        {
          "internalType": "bool",
          "name": "",
          "type": "bool"
        }
      ],
      "stateMutability": "view",
      "type": "function"
    },
    {
      "inputs": [
        {
          "internalType": "address",
          "name": "newOwner",
          "type": "address"
        }
      ],
      "name": "transferOwnership",
      "outputs": [],
      "stateMutability": "nonpayable",
      "type": "function"
    },
    {
      "inputs": [
        {
          "internalType": "address",
          "name": "newImplementation",
          "type": "address"
        }
      ],
      "name": "upgradeTo",
      "outputs": [],
      "stateMutability": "nonpayable",
      "type": "function"
    },
    {
      "inputs": [
        {
          "internalType": "address",
          "name": "newImplementation",
          "type": "address"
        },
        {
          "internalType": "bytes",
          "name": "data",
          "type": "bytes"
        }
      ],
      "name": "upgradeToAndCall",
      "outputs": [],
      "stateMutability": "payable",
      "type": "function"
    },
    {
      "inputs": [],
      "name": "version",
      "outputs": [
        {
          "internalType": "uint256",
          "name": "",
          "type": "uint256"
        }
      ],
      "stateMutability": "view",
      "type": "function"
    },
    {
      "inputs": [
        {
          "internalType": "uint256",
          "name": "",
          "type": "uint256"
        }
      ],
      "name": "zDAOFactories",
      "outputs": [
        {
          "internalType": "contract IZDAOFactory",
          "name": "",
          "type": "address"
        }
      ],
      "stateMutability": "view",
      "type": "function"
    },
    {
      "inputs": [
        {
          "internalType": "uint256",
          "name": "",
          "type": "uint256"
        }
      ],
      "name": "zDAORecords",
      "outputs": [
        {
          "internalType": "uint256",
          "name": "platformType",
          "type": "uint256"
        },
        {
          "internalType": "uint256",
          "name": "id",
          "type": "uint256"
        },
        {
          "internalType": "address",
          "name": "zDAO",
          "type": "address"
        },
        {
          "internalType": "address",
          "name": "zDAOOwnedBy",
          "type": "address"
        },
        {
          "internalType": "address",
          "name": "gnosisSafe",
          "type": "address"
        },
        {
          "internalType": "bool",
          "name": "destroyed",
          "type": "bool"
        }
      ],
      "stateMutability": "view",
      "type": "function"
    },
    {
      "inputs": [
        {
          "internalType": "uint256",
          "name": "",
          "type": "uint256"
        }
      ],
      "name": "zNATozDAOId",
      "outputs": [
        {
          "internalType": "uint256",
          "name": "",
          "type": "uint256"
        }
      ],
      "stateMutability": "view",
      "type": "function"
    },
    {
      "inputs": [],
      "name": "znsHub",
      "outputs": [
        {
          "internalType": "contract IZNSHub",
          "name": "",
          "type": "address"
        }
      ],
      "stateMutability": "view",
      "type": "function"
    }
  ],
  "bytecode": "0x60a06040523060805234801561001457600080fd5b5060805161392f61004560003960008181610d6401528181610dfa015281816112c30152611359015261392f6000f3fe6080604052600436106102195760003560e01c806372e3bc271161011d578063a217fddf116100b0578063ba636eef1161007f578063ea04580411610064578063ea04580414610703578063f2fde38b14610723578063fa771c641461074357600080fd5b8063ba636eef146106cd578063d547741f146106e357600080fd5b8063a217fddf14610623578063ac43791514610638578063b154d7641461066f578063b6236a8e1461069d57600080fd5b806391943967116100ec578063919439671461057d57806391d148541461059d57806393b450f4146105e357806393d441791461060357600080fd5b806372e3bc27146104f2578063759e6a07146105125780638da5cb5b1461053257806390e4e3a81461055057600080fd5b80633659cfe6116101b05780635c975abb1161017f57806366b1d8211161016457806366b1d8211461049d578063715018a6146104bd5780637200aff9146104d257600080fd5b80635c975abb1461044c57806362acf0f51461046457600080fd5b80633659cfe6146103e25780633ca65bd6146104025780634f1ef2861461042257806354fd4d501461043557600080fd5b8063246c88dc116101ec578063246c88dc146102c2578063248a9ca3146103645780632f2ff15d146103a257806336568abe146103c257600080fd5b806301ffc9a71461021e5780630f5cc1a414610253578063191c892c1461028057806323d5ccda146102a2575b600080fd5b34801561022a57600080fd5b5061023e6102393660046131db565b61075a565b60405190151581526020015b60405180910390f35b34801561025f57600080fd5b5061027361026e36600461321d565b6107f3565b60405161024a91906132dc565b34801561028c57600080fd5b506102a061029b36600461335c565b6109e4565b005b3480156102ae57600080fd5b506102a06102bd36600461321d565b610bc9565b3480156102ce57600080fd5b506103266102dd36600461335c565b6101946020526000908152604090208054600182015460028301546003840154600490940154929391926001600160a01b0391821692821691811690600160a01b900460ff1686565b6040805196875260208701959095526001600160a01b03938416948601949094529082166060850152166080830152151560a082015260c00161024a565b34801561037057600080fd5b5061039461037f36600461335c565b60009081526097602052604090206001015490565b60405190815260200161024a565b3480156103ae57600080fd5b506102a06103bd36600461338a565b610ca7565b3480156103ce57600080fd5b506102a06103dd36600461338a565b610ccd565b3480156103ee57600080fd5b506102a06103fd3660046133ba565b610d59565b34801561040e57600080fd5b506102a061041d366004613420565b610ef7565b6102a06104303660046134a0565b6112b8565b34801561044157600080fd5b506103946101915481565b34801561045857600080fd5b5060fb5460ff1661023e565b34801561047057600080fd5b5061019254610485906001600160a01b031681565b6040516001600160a01b03909116815260200161024a565b3480156104a957600080fd5b506102a06104b8366004613564565b611443565b3480156104c957600080fd5b506102a061162b565b3480156104de57600080fd5b506102a06104ed36600461321d565b611691565b3480156104fe57600080fd5b506102a061050d3660046133ba565b6117de565b34801561051e57600080fd5b506102a061052d36600461321d565b611911565b34801561053e57600080fd5b506033546001600160a01b0316610485565b34801561055c57600080fd5b5061057061056b36600461335c565b611b04565b60405161024a91906135c0565b34801561058957600080fd5b5061057061059836600461335c565b611c34565b3480156105a957600080fd5b5061023e6105b836600461338a565b60009182526097602090815260408084206001600160a01b0393909316845291905290205460ff1690565b3480156105ef57600080fd5b506102a06105fe36600461321d565b611d56565b34801561060f57600080fd5b506102a061061e3660046135d3565b611edb565b34801561062f57600080fd5b50610394600081565b34801561064457600080fd5b5061048561065336600461335c565b610195602052600090815260409020546001600160a01b031681565b34801561067b57600080fd5b5061039461068a36600461335c565b6101936020526000908152604090205481565b3480156106a957600080fd5b5061023e6106b836600461335c565b60009081526101936020526040902054151590565b3480156106d957600080fd5b5061019654610394565b3480156106ef57600080fd5b506102a06106fe36600461338a565b611fef565b34801561070f57600080fd5b506102a061071e3660046133ba565b612015565b34801561072f57600080fd5b506102a061073e3660046133ba565b61209f565b34801561074f57600080fd5b506103946101965481565b60007fffffffff0000000000000000000000000000000000000000000000000000000082167f7965db0b0000000000000000000000000000000000000000000000000000000014806107ed57507f01ffc9a7000000000000000000000000000000000000000000000000000000007fffffffff000000000000000000000000000000000000000000000000000000008316145b92915050565b61019654606090829061080790859061361b565b81111561082057836101965461081d919061361b565b90505b8067ffffffffffffffff8111156108395761083961348a565b6040519080825280602002602001820160405280156108c757816020015b6108b46040518060e00160405280600081526020016000815260200160006001600160a01b0316815260200160006001600160a01b0316815260200160006001600160a01b03168152602001600015158152602001606081525090565b8152602001906001900390816108575790505b50915060005b818110156109dc5761019460006108e48388613632565b6108ef906001613632565b81526020808201929092526040908101600020815160e0810183528154815260018201548185015260028201546001600160a01b039081168285015260038301548116606083015260048301549081166080830152600160a01b900460ff16151560a08201526005820180548451818702810187019095528085529194929360c08601939092908301828280156109a557602002820191906000526020600020905b815481526020019060010190808311610991575b5050505050815250508382815181106109c0576109c061364a565b6020026020010181905250806109d590613660565b90506108cd565b505092915050565b806000811180156109f85750610196548111155b8015610a1e575060008181526101946020526040902060040154600160a01b900460ff16155b610a5e5760405162461bcd60e51b815260206004820152600c60248201526b496e76616c6964207a44414f60a01b60448201526064015b60405180910390fd5b6033546001600160a01b03163314610ab85760405162461bcd60e51b815260206004820181905260248201527f4f776e61626c653a2063616c6c6572206973206e6f7420746865206f776e65726044820152606401610a55565b60008281526101946020908152604080832080548452610195909252909120546001600160a01b031680610aee57610aee61367b565b600480830180547fffffffffffffffffffffff00ffffffffffffffffffffffffffffffffffffffff16600160a01b1790556040517f4964d9a50000000000000000000000000000000000000000000000000000000081526001600160a01b03831691634964d9a591610b669188910190815260200190565b600060405180830381600087803b158015610b8057600080fd5b505af1158015610b94573d6000803e3d6000fd5b50506040518692507f62d16daa2b15fec62c2624e8279f21d75a1e6d3f8dd790378d3129985765cb4a9150600090a250505050565b81600081118015610bdd5750610196548111155b8015610c03575060008181526101946020526040902060040154600160a01b900460ff16155b610c3e5760405162461bcd60e51b815260206004820152600c60248201526b496e76616c6964207a44414f60a01b6044820152606401610a55565b6033546001600160a01b03163314610c985760405162461bcd60e51b815260206004820181905260248201527f4f776e61626c653a2063616c6c6572206973206e6f7420746865206f776e65726044820152606401610a55565b610ca2838361217e565b505050565b600082815260976020526040902060010154610cc38133612253565b610ca283836122d3565b6001600160a01b0381163314610d4b5760405162461bcd60e51b815260206004820152602f60248201527f416363657373436f6e74726f6c3a2063616e206f6e6c792072656e6f756e636560448201527f20726f6c657320666f722073656c6600000000000000000000000000000000006064820152608401610a55565b610d558282612375565b5050565b306001600160a01b037f0000000000000000000000000000000000000000000000000000000000000000161415610df85760405162461bcd60e51b815260206004820152602c60248201527f46756e6374696f6e206d7573742062652063616c6c6564207468726f7567682060448201527f64656c656761746563616c6c00000000000000000000000000000000000000006064820152608401610a55565b7f00000000000000000000000000000000000000000000000000000000000000006001600160a01b0316610e537f360894a13ba1a3210667c828492db98dca3e2076cc3735a920a3ca505d382bbc546001600160a01b031690565b6001600160a01b031614610ecf5760405162461bcd60e51b815260206004820152602c60248201527f46756e6374696f6e206d7573742062652063616c6c6564207468726f7567682060448201527f6163746976652070726f787900000000000000000000000000000000000000006064820152608401610a55565b610ed8816123f8565b60408051600080825260208201909252610ef491839190612452565b50565b610192546040516331a9108f60e11b815260048101869052859133916001600160a01b0390911690636352211e90602401602060405180830381865afa158015610f45573d6000803e3d6000fd5b505050506040513d601f19601f82011682018060405250810190610f699190613691565b6001600160a01b031614610fbf5760405162461bcd60e51b815260206004820152600f60248201527f4e6f742061207a4e41206f776e657200000000000000000000000000000000006044820152606401610a55565b60008581526101936020526040902054801561101d5760405162461bcd60e51b815260206004820152601f60248201527f416c72656164792061646465642044414f20776974682073616d65207a4e41006044820152606401610a55565b600087815261019560205260409020546001600160a01b0316806110435761104361367b565b610196805490600061105483613660565b9091555050610196546040517f3ca65bd60000000000000000000000000000000000000000000000000000000081526000916001600160a01b03841691633ca65bd6916110ab918c908c908c908c906004016136d9565b6020604051808303816000875af11580156110ca573d6000803e3d6000fd5b505050506040513d601f19601f820116820180604052508101906110ee9190613691565b90506040518060e001604052808a8152602001610196548152602001826001600160a01b03168152602001336001600160a01b03168152602001886001600160a01b03168152602001600015158152602001600067ffffffffffffffff81111561115a5761115a61348a565b604051908082528060200260200182016040528015611183578160200160208202803683370190505b509052610196546000908152610194602090815260409182902083518155838201516001820155918301516002830180546001600160a01b0392831673ffffffffffffffffffffffffffffffffffffffff1991821617909155606085015160038501805491841691909216179055608084015160048401805460a08701511515600160a01b027fffffffffffffffffffffff000000000000000000000000000000000000000000909116929093169190911791909117905560c08301518051611252926005850192019061317b565b505061019654604080513381526001600160a01b0385811660208301528b1693508c917f4a2e5d9b329ae9a3b7cc17b1f28fb785b7af955392bd21dba851032bfde804fe910160405180910390a46112ad610196548961217e565b505050505050505050565b306001600160a01b037f00000000000000000000000000000000000000000000000000000000000000001614156113575760405162461bcd60e51b815260206004820152602c60248201527f46756e6374696f6e206d7573742062652063616c6c6564207468726f7567682060448201527f64656c656761746563616c6c00000000000000000000000000000000000000006064820152608401610a55565b7f00000000000000000000000000000000000000000000000000000000000000006001600160a01b03166113b27f360894a13ba1a3210667c828492db98dca3e2076cc3735a920a3ca505d382bbc546001600160a01b031690565b6001600160a01b03161461142e5760405162461bcd60e51b815260206004820152602c60248201527f46756e6374696f6e206d7573742062652063616c6c6564207468726f7567682060448201527f6163746976652070726f787900000000000000000000000000000000000000006064820152608401610a55565b611437826123f8565b610d5582826001612452565b836000811180156114575750610196548111155b801561147d575060008181526101946020526040902060040154600160a01b900460ff16155b6114b85760405162461bcd60e51b815260206004820152600c60248201526b496e76616c6964207a44414f60a01b6044820152606401610a55565b6033546001600160a01b031633146115125760405162461bcd60e51b815260206004820181905260248201527f4f776e61626c653a2063616c6c6572206973206e6f7420746865206f776e65726044820152606401610a55565b60008581526101946020908152604080832080548452610195909252909120546001600160a01b0316806115485761154861367b565b6004828101805473ffffffffffffffffffffffffffffffffffffffff19166001600160a01b03898116919091179091556040517fc504f2530000000000000000000000000000000000000000000000000000000081529083169163c504f253916115ba918b918b918b918b9101613713565b600060405180830381600087803b1580156115d457600080fd5b505af11580156115e8573d6000803e3d6000fd5b50506040516001600160a01b03891692508991507fea2e46044ff1582cc7517ef1f07a271fd2f121629994a9040a1d825f985eb73490600090a350505050505050565b6033546001600160a01b031633146116855760405162461bcd60e51b815260206004820181905260248201527f4f776e61626c653a2063616c6c6572206973206e6f7420746865206f776e65726044820152606401610a55565b61168f6000612616565b565b816000811180156116a55750610196548111155b80156116cb575060008181526101946020526040902060040154600160a01b900460ff16155b6117065760405162461bcd60e51b815260206004820152600c60248201526b496e76616c6964207a44414f60a01b6044820152606401610a55565b610192546040516331a9108f60e11b815260048101849052839133916001600160a01b0390911690636352211e90602401602060405180830381865afa158015611754573d6000803e3d6000fd5b505050506040513d601f19601f820116820180604052508101906117789190613691565b6001600160a01b0316146117ce5760405162461bcd60e51b815260206004820152600f60248201527f4e6f742061207a4e41206f776e657200000000000000000000000000000000006044820152606401610a55565b6117d8848461217e565b50505050565b600054610100900460ff166117f95760005460ff16156117fd565b303b155b61186f5760405162461bcd60e51b815260206004820152602e60248201527f496e697469616c697a61626c653a20636f6e747261637420697320616c72656160448201527f647920696e697469616c697a65640000000000000000000000000000000000006064820152608401610a55565b600054610100900460ff161580156118ae57600080547fffffffffffffffffffffffffffffffffffffffffffffffffffffffffffff0000166101011790555b6118b6612675565b610192805473ffffffffffffffffffffffffffffffffffffffff19166001600160a01b0384161790558015610d5557600080547fffffffffffffffffffffffffffffffffffffffffffffffffffffffffffff00ff1690555050565b816000811180156119255750610196548111155b801561194b575060008181526101946020526040902060040154600160a01b900460ff16155b6119865760405162461bcd60e51b815260206004820152600c60248201526b496e76616c6964207a44414f60a01b6044820152606401610a55565b610192546040516331a9108f60e11b815260048101849052839133916001600160a01b0390911690636352211e90602401602060405180830381865afa1580156119d4573d6000803e3d6000fd5b505050506040513d601f19601f820116820180604052508101906119f89190613691565b6001600160a01b031614611a4e5760405162461bcd60e51b815260206004820152600f60248201527f4e6f742061207a4e41206f776e657200000000000000000000000000000000006044820152606401610a55565b600084118015611a615750610196548411155b611a9c5760405162461bcd60e51b815260206004820152600c60248201526b496e76616c6964207a44414f60a01b6044820152606401610a55565b600083815261019360205260409020548414611afa5760405162461bcd60e51b815260206004820152601260248201527f7a4e41206e6f74206173736f63696174656400000000000000000000000000006044820152606401610a55565b6117d8848461274c565b611b616040518060e00160405280600081526020016000815260200160006001600160a01b0316815260200160006001600160a01b0316815260200160006001600160a01b03168152602001600015158152602001606081525090565b60008281526101936020908152604080832054808452610194835292819020815160e0810183528154815260018201548185015260028201546001600160a01b039081168285015260038301548116606083015260048301549081166080830152600160a01b900460ff16151560a08201526005820180548451818702810187019095528085529194929360c0860193909290830182828015611c2357602002820191906000526020600020905b815481526020019060010190808311611c0f575b505050505081525050915050919050565b611c916040518060e00160405280600081526020016000815260200160006001600160a01b0316815260200160006001600160a01b0316815260200160006001600160a01b03168152602001600015158152602001606081525090565b60008281526101946020908152604091829020825160e0810184528154815260018201548184015260028201546001600160a01b039081168286015260038301548116606083015260048301549081166080830152600160a01b900460ff16151560a08201526005820180548551818602810186019096528086529194929360c08601939290830182828015611d4657602002820191906000526020600020905b815481526020019060010190808311611d32575b5050505050815250509050919050565b81600081118015611d6a5750610196548111155b8015611d90575060008181526101946020526040902060040154600160a01b900460ff16155b611dcb5760405162461bcd60e51b815260206004820152600c60248201526b496e76616c6964207a44414f60a01b6044820152606401610a55565b6033546001600160a01b03163314611e255760405162461bcd60e51b815260206004820181905260248201527f4f776e61626c653a2063616c6c6572206973206e6f7420746865206f776e65726044820152606401610a55565b600083118015611e385750610196548311155b611e735760405162461bcd60e51b815260206004820152600c60248201526b496e76616c6964207a44414f60a01b6044820152606401610a55565b600082815261019360205260409020548314611ed15760405162461bcd60e51b815260206004820152601260248201527f7a4e41206e6f74206173736f63696174656400000000000000000000000000006044820152606401610a55565b610ca2838361274c565b6033546001600160a01b03163314611f355760405162461bcd60e51b815260206004820181905260248201527f4f776e61626c653a2063616c6c6572206973206e6f7420746865206f776e65726044820152606401610a55565b6000826001811115611f4957611f49613746565b600081815261019560205260409020549091506001600160a01b031615611fb25760405162461bcd60e51b815260206004820152601b60248201527f416c72656164792068617320666163746f7279206164647265737300000000006044820152606401610a55565b600090815261019560205260409020805473ffffffffffffffffffffffffffffffffffffffff19166001600160a01b039290921691909117905550565b60008281526097602052604090206001015461200b8133612253565b610ca28383612375565b6033546001600160a01b0316331461206f5760405162461bcd60e51b815260206004820181905260248201527f4f776e61626c653a2063616c6c6572206973206e6f7420746865206f776e65726044820152606401610a55565b610192805473ffffffffffffffffffffffffffffffffffffffff19166001600160a01b0392909216919091179055565b6033546001600160a01b031633146120f95760405162461bcd60e51b815260206004820181905260248201527f4f776e61626c653a2063616c6c6572206973206e6f7420746865206f776e65726044820152606401610a55565b6001600160a01b0381166121755760405162461bcd60e51b815260206004820152602660248201527f4f776e61626c653a206e6577206f776e657220697320746865207a65726f206160448201527f64647265737300000000000000000000000000000000000000000000000000006064820152608401610a55565b610ef481612616565b60008181526101936020526040902054828114156121de5760405162461bcd60e51b815260206004820152601960248201527f7a4e4120616c7265616479206c696e6b656420746f2044414f000000000000006044820152606401610a55565b80156121ee576121ee818361274c565b6000828152610193602090815260408083208690558583526101948252808320600501805460018101825590845291832090910184905551839185917fffdc17a33b6ff8f8f10d88a733ea9fb0db3faa0b4ec1cf8612f81ba96656cd919190a3505050565b60008281526097602090815260408083206001600160a01b038516845290915290205460ff16610d5557612291816001600160a01b0316601461285b565b61229c83602061285b565b6040516020016122ad929190613788565b60408051601f198184030181529082905262461bcd60e51b8252610a5591600401613835565b60008281526097602090815260408083206001600160a01b038516845290915290205460ff16610d555760008281526097602090815260408083206001600160a01b03851684529091529020805460ff191660011790556123313390565b6001600160a01b0316816001600160a01b0316837f2f8788117e7eff1d82e926ec794901d17c78024a50270940304540a733656f0d60405160405180910390a45050565b60008281526097602090815260408083206001600160a01b038516845290915290205460ff1615610d555760008281526097602090815260408083206001600160a01b0385168085529252808320805460ff1916905551339285917ff6391f5c32d9c69d2a47ea670b442974b53935d1edc7fd64eb21e047a839171b9190a45050565b6033546001600160a01b03163314610ef45760405162461bcd60e51b815260206004820181905260248201527f4f776e61626c653a2063616c6c6572206973206e6f7420746865206f776e65726044820152606401610a55565b60006124857f360894a13ba1a3210667c828492db98dca3e2076cc3735a920a3ca505d382bbc546001600160a01b031690565b905061249084612a8b565b60008351118061249d5750815b156124ae576124ac8484612b4d565b505b7f4910fdfa16fed3260ed0e7147f7cc6da11a60208b5b9406d12a635614ffd9143805460ff1661260f57805460ff191660011781556040516001600160a01b038316602482015261255b90869060440160408051601f198184030181529190526020810180517bffffffffffffffffffffffffffffffffffffffffffffffffffffffff167f3659cfe600000000000000000000000000000000000000000000000000000000179052612b4d565b50805460ff191681557f360894a13ba1a3210667c828492db98dca3e2076cc3735a920a3ca505d382bbc546001600160a01b038381169116146126065760405162461bcd60e51b815260206004820152602f60248201527f45524331393637557067726164653a207570677261646520627265616b73206660448201527f75727468657220757067726164657300000000000000000000000000000000006064820152608401610a55565b61260f85612c4f565b5050505050565b603380546001600160a01b0383811673ffffffffffffffffffffffffffffffffffffffff19831681179093556040519116919082907f8be0079c531659141344cd1fd0a4f28419497f9722a3daafe3b4186f6b6457e090600090a35050565b600054610100900460ff166126e05760405162461bcd60e51b815260206004820152602b60248201527f496e697469616c697a61626c653a20636f6e7472616374206973206e6f74206960448201526a6e697469616c697a696e6760a81b6064820152608401610a55565b6126e8612c8f565b6126f0612d0a565b6126f8612d8d565b612700612e00565b612708612e7b565b6001610191819055604080518082019091528181527f7600000000000000000000000000000000000000000000000000000000000000602082015261168f91612ee6565b600082815261019460205260408120600581015490915b8181101561260f57838360050182815481106127815761278161364a565b9060005260206000200154141561284957600583016127a160018461361b565b815481106127b1576127b161364a565b90600052602060002001548360050182815481106127d1576127d161364a565b600091825260209091200155600583018054806127f0576127f0613848565b6000828152602080822083016000199081018390559092019092558582526101939052604080822082905551859187917ffa997975b6b7327afbe399fcdbc2861d51d0d52e5828cf7e1c8a98cd0cadb7ae9190a361260f565b8061285381613660565b915050612763565b6060600061286a83600261385e565b612875906002613632565b67ffffffffffffffff81111561288d5761288d61348a565b6040519080825280601f01601f1916602001820160405280156128b7576020820181803683370190505b5090507f3000000000000000000000000000000000000000000000000000000000000000816000815181106128ee576128ee61364a565b60200101907effffffffffffffffffffffffffffffffffffffffffffffffffffffffffffff1916908160001a9053507f7800000000000000000000000000000000000000000000000000000000000000816001815181106129515761295161364a565b60200101907effffffffffffffffffffffffffffffffffffffffffffffffffffffffffffff1916908160001a905350600061298d84600261385e565b612998906001613632565b90505b6001811115612a35577f303132333435363738396162636465660000000000000000000000000000000085600f16601081106129d9576129d961364a565b1a60f81b8282815181106129ef576129ef61364a565b60200101907effffffffffffffffffffffffffffffffffffffffffffffffffffffffffffff1916908160001a90535060049490941c93612a2e8161387d565b905061299b565b508315612a845760405162461bcd60e51b815260206004820181905260248201527f537472696e67733a20686578206c656e67746820696e73756666696369656e746044820152606401610a55565b9392505050565b803b612aff5760405162461bcd60e51b815260206004820152602d60248201527f455243313936373a206e657720696d706c656d656e746174696f6e206973206e60448201527f6f74206120636f6e7472616374000000000000000000000000000000000000006064820152608401610a55565b7f360894a13ba1a3210667c828492db98dca3e2076cc3735a920a3ca505d382bbc805473ffffffffffffffffffffffffffffffffffffffff19166001600160a01b0392909216919091179055565b6060823b612bc35760405162461bcd60e51b815260206004820152602660248201527f416464726573733a2064656c65676174652063616c6c20746f206e6f6e2d636f60448201527f6e747261637400000000000000000000000000000000000000000000000000006064820152608401610a55565b600080846001600160a01b031684604051612bde9190613894565b600060405180830381855af49150503d8060008114612c19576040519150601f19603f3d011682016040523d82523d6000602084013e612c1e565b606091505b5091509150612c4682826040518060600160405280602781526020016138d360279139612f59565b95945050505050565b612c5881612a8b565b6040516001600160a01b038216907fbc7cd75a20ee27fd9adebab32041f755214dbc6bffa90cc0225b39da2e5c2d3b90600090a250565b600054610100900460ff16612cfa5760405162461bcd60e51b815260206004820152602b60248201527f496e697469616c697a61626c653a20636f6e7472616374206973206e6f74206960448201526a6e697469616c697a696e6760a81b6064820152608401610a55565b612d02612f92565b61168f612ffd565b600054610100900460ff16612d755760405162461bcd60e51b815260206004820152602b60248201527f496e697469616c697a61626c653a20636f6e7472616374206973206e6f74206960448201526a6e697469616c697a696e6760a81b6064820152608401610a55565b612d7d612f92565b612d85612f92565b61168f612f92565b600054610100900460ff16612df85760405162461bcd60e51b815260206004820152602b60248201527f496e697469616c697a61626c653a20636f6e7472616374206973206e6f74206960448201526a6e697469616c697a696e6760a81b6064820152608401610a55565b61168f613071565b600054610100900460ff16612e6b5760405162461bcd60e51b815260206004820152602b60248201527f496e697469616c697a61626c653a20636f6e7472616374206973206e6f74206960448201526a6e697469616c697a696e6760a81b6064820152608401610a55565b612e73612f92565b61168f6130e3565b600054610100900460ff16612d7d5760405162461bcd60e51b815260206004820152602b60248201527f496e697469616c697a61626c653a20636f6e7472616374206973206e6f74206960448201526a6e697469616c697a696e6760a81b6064820152608401610a55565b610d558282604051602401612efc9291906138b0565b60408051601f198184030181529190526020810180517bffffffffffffffffffffffffffffffffffffffffffffffffffffffff167f9710a9d00000000000000000000000000000000000000000000000000000000017905261315a565b60608315612f68575081612a84565b825115612f785782518084602001fd5b8160405162461bcd60e51b8152600401610a559190613835565b600054610100900460ff1661168f5760405162461bcd60e51b815260206004820152602b60248201527f496e697469616c697a61626c653a20636f6e7472616374206973206e6f74206960448201526a6e697469616c697a696e6760a81b6064820152608401610a55565b600054610100900460ff166130685760405162461bcd60e51b815260206004820152602b60248201527f496e697469616c697a61626c653a20636f6e7472616374206973206e6f74206960448201526a6e697469616c697a696e6760a81b6064820152608401610a55565b61168f33612616565b600054610100900460ff166130dc5760405162461bcd60e51b815260206004820152602b60248201527f496e697469616c697a61626c653a20636f6e7472616374206973206e6f74206960448201526a6e697469616c697a696e6760a81b6064820152608401610a55565b600160c955565b600054610100900460ff1661314e5760405162461bcd60e51b815260206004820152602b60248201527f496e697469616c697a61626c653a20636f6e7472616374206973206e6f74206960448201526a6e697469616c697a696e6760a81b6064820152608401610a55565b60fb805460ff19169055565b80516a636f6e736f6c652e6c6f67602083016000808483855afa5050505050565b8280548282559060005260206000209081019282156131b6579160200282015b828111156131b657825182559160200191906001019061319b565b506131c29291506131c6565b5090565b5b808211156131c257600081556001016131c7565b6000602082840312156131ed57600080fd5b81357fffffffff0000000000000000000000000000000000000000000000000000000081168114612a8457600080fd5b6000806040838503121561323057600080fd5b50508035926020909101359150565b600060e08301825184526020808401518186015260408401516001600160a01b038082166040880152806060870151166060880152806080870151166080880152505060a0840151151560a086015260c084015160e060c0870152828151808552610100880191508383019450600092505b808310156132d157845182529383019360019290920191908301906132b1565b509695505050505050565b6000602080830181845280855180835260408601915060408160051b870101925083870160005b8281101561334f577fffffffffffffffffffffffffffffffffffffffffffffffffffffffffffffffc088860301845261333d85835161323f565b94509285019290850190600101613303565b5092979650505050505050565b60006020828403121561336e57600080fd5b5035919050565b6001600160a01b0381168114610ef457600080fd5b6000806040838503121561339d57600080fd5b8235915060208301356133af81613375565b809150509250929050565b6000602082840312156133cc57600080fd5b8135612a8481613375565b60008083601f8401126133e957600080fd5b50813567ffffffffffffffff81111561340157600080fd5b60208301915083602082850101111561341957600080fd5b9250929050565b60008060008060006080868803121561343857600080fd5b8535945060208601359350604086013561345181613375565b9250606086013567ffffffffffffffff81111561346d57600080fd5b613479888289016133d7565b969995985093965092949392505050565b634e487b7160e01b600052604160045260246000fd5b600080604083850312156134b357600080fd5b82356134be81613375565b9150602083013567ffffffffffffffff808211156134db57600080fd5b818501915085601f8301126134ef57600080fd5b8135818111156135015761350161348a565b604051601f8201601f19908116603f011681019083821181831017156135295761352961348a565b8160405282815288602084870101111561354257600080fd5b8260208601602083013760006020848301015280955050505050509250929050565b6000806000806060858703121561357a57600080fd5b84359350602085013561358c81613375565b9250604085013567ffffffffffffffff8111156135a857600080fd5b6135b4878288016133d7565b95989497509550505050565b602081526000612a84602083018461323f565b600080604083850312156135e657600080fd5b8235600281106135f557600080fd5b915060208301356133af81613375565b634e487b7160e01b600052601160045260246000fd5b60008282101561362d5761362d613605565b500390565b6000821982111561364557613645613605565b500190565b634e487b7160e01b600052603260045260246000fd5b600060001982141561367457613674613605565b5060010190565b634e487b7160e01b600052600160045260246000fd5b6000602082840312156136a357600080fd5b8151612a8481613375565b818352818160208501375060006020828401015260006020601f19601f840116840101905092915050565b8581528460208201526001600160a01b03841660408201526080606082015260006137086080830184866136ae565b979650505050505050565b8481526001600160a01b038416602082015260606040820152600061373c6060830184866136ae565b9695505050505050565b634e487b7160e01b600052602160045260246000fd5b60005b8381101561377757818101518382015260200161375f565b838111156117d85750506000910152565b7f416363657373436f6e74726f6c3a206163636f756e74200000000000000000008152600083516137c081601785016020880161375c565b7f206973206d697373696e6720726f6c652000000000000000000000000000000060179184019182015283516137fd81602884016020880161375c565b01602801949350505050565b6000815180845261382181602086016020860161375c565b601f01601f19169290920160200192915050565b602081526000612a846020830184613809565b634e487b7160e01b600052603160045260246000fd5b600081600019048311821515161561387857613878613605565b500290565b60008161388c5761388c613605565b506000190190565b600082516138a681846020870161375c565b9190910192915050565b6040815260006138c36040830185613809565b9050826020830152939250505056fe416464726573733a206c6f772d6c6576656c2064656c65676174652063616c6c206661696c6564a264697066735822122039a0918510361c800ecfbf6c7f8c7434cf954d70790c2a856e65d4d62b08242364736f6c634300080b0033",
  "linkReferences": {},
  "deployedLinkReferences": {}
}