{
  "_format": "hh-sol-artifact-1",
  "contractName": "ZDAORegistry",
  "sourceName": "contracts/ZDAORegistry.sol",
  "abi": [
    {
      "anonymous": false,
      "inputs": [
        {
          "indexed": false,
          "internalType": "address",
          "name": "previousAdmin",
          "type": "address"
        },
        {
          "indexed": false,
          "internalType": "address",
          "name": "newAdmin",
          "type": "address"
        }
      ],
      "name": "AdminChanged",
      "type": "event"
    },
    {
      "anonymous": false,
      "inputs": [
        {
          "indexed": true,
          "internalType": "address",
          "name": "beacon",
          "type": "address"
        }
      ],
      "name": "BeaconUpgraded",
      "type": "event"
    },
    {
      "anonymous": false,
      "inputs": [
        {
          "indexed": true,
          "internalType": "uint256",
          "name": "_platformType",
          "type": "uint256"
        },
        {
          "indexed": true,
          "internalType": "uint256",
          "name": "_zDAOId",
          "type": "uint256"
        },
        {
          "indexed": true,
          "internalType": "address",
          "name": "_gnosisSafe",
          "type": "address"
        },
        {
          "indexed": false,
          "internalType": "address",
          "name": "_creator",
          "type": "address"
        },
        {
          "indexed": false,
          "internalType": "address",
          "name": "_zDAO",
          "type": "address"
        }
      ],
      "name": "DAOCreated",
      "type": "event"
    },
    {
      "anonymous": false,
      "inputs": [
        {
          "indexed": true,
          "internalType": "uint256",
          "name": "_zDAOId",
          "type": "uint256"
        }
      ],
      "name": "DAODestroyed",
      "type": "event"
    },
    {
      "anonymous": false,
      "inputs": [
        {
          "indexed": true,
          "internalType": "uint256",
          "name": "_zDAOId",
          "type": "uint256"
        },
        {
          "indexed": true,
          "internalType": "address",
          "name": "_gnosisSafe",
          "type": "address"
        }
      ],
      "name": "DAOModified",
      "type": "event"
    },
    {
      "anonymous": false,
      "inputs": [
        {
          "indexed": true,
          "internalType": "uint256",
          "name": "_zDAOId",
          "type": "uint256"
        },
        {
          "indexed": true,
          "internalType": "uint256",
          "name": "_zNA",
          "type": "uint256"
        }
      ],
      "name": "LinkAdded",
      "type": "event"
    },
    {
      "anonymous": false,
      "inputs": [
        {
          "indexed": true,
          "internalType": "uint256",
          "name": "_zDAOId",
          "type": "uint256"
        },
        {
          "indexed": true,
          "internalType": "uint256",
          "name": "_zNA",
          "type": "uint256"
        }
      ],
      "name": "LinkRemoved",
      "type": "event"
    },
    {
      "anonymous": false,
      "inputs": [
        {
          "indexed": true,
          "internalType": "address",
          "name": "previousOwner",
          "type": "address"
        },
        {
          "indexed": true,
          "internalType": "address",
          "name": "newOwner",
          "type": "address"
        }
      ],
      "name": "OwnershipTransferred",
      "type": "event"
    },
    {
      "anonymous": false,
      "inputs": [
        {
          "indexed": false,
          "internalType": "address",
          "name": "account",
          "type": "address"
        }
      ],
      "name": "Paused",
      "type": "event"
    },
    {
      "anonymous": false,
      "inputs": [
        {
          "indexed": true,
          "internalType": "bytes32",
          "name": "role",
          "type": "bytes32"
        },
        {
          "indexed": true,
          "internalType": "bytes32",
          "name": "previousAdminRole",
          "type": "bytes32"
        },
        {
          "indexed": true,
          "internalType": "bytes32",
          "name": "newAdminRole",
          "type": "bytes32"
        }
      ],
      "name": "RoleAdminChanged",
      "type": "event"
    },
    {
      "anonymous": false,
      "inputs": [
        {
          "indexed": true,
          "internalType": "bytes32",
          "name": "role",
          "type": "bytes32"
        },
        {
          "indexed": true,
          "internalType": "address",
          "name": "account",
          "type": "address"
        },
        {
          "indexed": true,
          "internalType": "address",
          "name": "sender",
          "type": "address"
        }
      ],
      "name": "RoleGranted",
      "type": "event"
    },
    {
      "anonymous": false,
      "inputs": [
        {
          "indexed": true,
          "internalType": "bytes32",
          "name": "role",
          "type": "bytes32"
        },
        {
          "indexed": true,
          "internalType": "address",
          "name": "account",
          "type": "address"
        },
        {
          "indexed": true,
          "internalType": "address",
          "name": "sender",
          "type": "address"
        }
      ],
      "name": "RoleRevoked",
      "type": "event"
    },
    {
      "anonymous": false,
      "inputs": [
        {
          "indexed": false,
          "internalType": "address",
          "name": "account",
          "type": "address"
        }
      ],
      "name": "Unpaused",
      "type": "event"
    },
    {
      "anonymous": false,
      "inputs": [
        {
          "indexed": true,
          "internalType": "address",
          "name": "implementation",
          "type": "address"
        }
      ],
      "name": "Upgraded",
      "type": "event"
    },
    {
      "inputs": [],
      "name": "DEFAULT_ADMIN_ROLE",
      "outputs": [
        {
          "internalType": "bytes32",
          "name": "",
          "type": "bytes32"
        }
      ],
      "stateMutability": "view",
      "type": "function"
    },
    {
      "inputs": [
        {
          "internalType": "contract IZNSHub",
          "name": "_znsHub",
          "type": "address"
        }
      ],
      "name": "__ZDAORegistry_init",
      "outputs": [],
      "stateMutability": "nonpayable",
      "type": "function"
    },
    {
      "inputs": [
        {
          "internalType": "uint256",
          "name": "_platformType",
          "type": "uint256"
        },
        {
          "internalType": "uint256",
          "name": "_zNA",
          "type": "uint256"
        },
        {
          "internalType": "address",
          "name": "_gnosisSafe",
          "type": "address"
        },
        {
          "internalType": "string",
          "name": "_name",
          "type": "string"
        },
        {
          "internalType": "bytes",
          "name": "_options",
          "type": "bytes"
        }
      ],
      "name": "addNewZDAO",
      "outputs": [],
      "stateMutability": "nonpayable",
      "type": "function"
    },
    {
      "inputs": [
        {
          "internalType": "enum IZDAORegistry.PlatformType",
          "name": "_platformType",
          "type": "uint8"
        },
        {
          "internalType": "contract IZDAOFactory",
          "name": "_factory",
          "type": "address"
        }
      ],
      "name": "addZDAOFactory",
      "outputs": [],
      "stateMutability": "nonpayable",
      "type": "function"
    },
    {
      "inputs": [
        {
          "internalType": "uint256",
          "name": "_zDAOId",
          "type": "uint256"
        },
        {
          "internalType": "uint256",
          "name": "_zNA",
          "type": "uint256"
        }
      ],
      "name": "addZNAAssociation",
      "outputs": [],
      "stateMutability": "nonpayable",
      "type": "function"
    },
    {
      "inputs": [
        {
          "internalType": "uint256",
          "name": "_zDAOId",
          "type": "uint256"
        },
        {
          "internalType": "uint256",
          "name": "_zNA",
          "type": "uint256"
        }
      ],
      "name": "adminAssociateZNA",
      "outputs": [],
      "stateMutability": "nonpayable",
      "type": "function"
    },
    {
      "inputs": [
        {
          "internalType": "uint256",
          "name": "_zDAOId",
          "type": "uint256"
        },
        {
          "internalType": "uint256",
          "name": "_zNA",
          "type": "uint256"
        }
      ],
      "name": "adminDisassociateZNA",
      "outputs": [],
      "stateMutability": "nonpayable",
      "type": "function"
    },
    {
      "inputs": [
        {
          "internalType": "uint256",
          "name": "_zDAOId",
          "type": "uint256"
        },
        {
          "internalType": "address",
          "name": "_gnosisSafe",
          "type": "address"
        },
        {
          "internalType": "bytes",
          "name": "_options",
          "type": "bytes"
        }
      ],
      "name": "adminModifyZDAO",
      "outputs": [],
      "stateMutability": "nonpayable",
      "type": "function"
    },
    {
      "inputs": [
        {
          "internalType": "uint256",
          "name": "_zDAOId",
          "type": "uint256"
        }
      ],
      "name": "adminRemoveZDAO",
      "outputs": [],
      "stateMutability": "nonpayable",
      "type": "function"
    },
    {
      "inputs": [
        {
          "internalType": "uint256",
          "name": "_zNA",
          "type": "uint256"
        }
      ],
      "name": "doesZNAExistForZNA",
      "outputs": [
        {
          "internalType": "bool",
          "name": "",
          "type": "bool"
        }
      ],
      "stateMutability": "view",
      "type": "function"
    },
    {
      "inputs": [
        {
          "internalType": "bytes32",
          "name": "role",
          "type": "bytes32"
        }
      ],
      "name": "getRoleAdmin",
      "outputs": [
        {
          "internalType": "bytes32",
          "name": "",
          "type": "bytes32"
        }
      ],
      "stateMutability": "view",
      "type": "function"
    },
    {
      "inputs": [
        {
          "internalType": "uint256",
          "name": "_zDAOId",
          "type": "uint256"
        }
      ],
      "name": "getZDAOById",
      "outputs": [
        {
          "components": [
            {
              "internalType": "uint256",
              "name": "platformType",
              "type": "uint256"
            },
            {
              "internalType": "uint256",
              "name": "id",
              "type": "uint256"
            },
            {
              "internalType": "address",
              "name": "zDAOOwnedBy",
              "type": "address"
            },
            {
              "internalType": "address",
              "name": "gnosisSafe",
              "type": "address"
            },
            {
              "internalType": "string",
              "name": "name",
              "type": "string"
            },
            {
              "internalType": "bool",
              "name": "destroyed",
              "type": "bool"
            },
            {
              "internalType": "uint256[]",
              "name": "associatedzNAs",
              "type": "uint256[]"
            }
          ],
          "internalType": "struct IZDAORegistry.ZDAORecord",
          "name": "",
          "type": "tuple"
        }
      ],
      "stateMutability": "view",
      "type": "function"
    },
    {
      "inputs": [
        {
          "internalType": "uint256",
          "name": "_zNA",
          "type": "uint256"
        }
      ],
      "name": "getZDAOByZNA",
      "outputs": [
        {
          "components": [
            {
              "internalType": "uint256",
              "name": "platformType",
              "type": "uint256"
            },
            {
              "internalType": "uint256",
              "name": "id",
              "type": "uint256"
            },
            {
              "internalType": "address",
              "name": "zDAOOwnedBy",
              "type": "address"
            },
            {
              "internalType": "address",
              "name": "gnosisSafe",
              "type": "address"
            },
            {
              "internalType": "string",
              "name": "name",
              "type": "string"
            },
            {
              "internalType": "bool",
              "name": "destroyed",
              "type": "bool"
            },
            {
              "internalType": "uint256[]",
              "name": "associatedzNAs",
              "type": "uint256[]"
            }
          ],
          "internalType": "struct IZDAORegistry.ZDAORecord",
          "name": "",
          "type": "tuple"
        }
      ],
      "stateMutability": "view",
      "type": "function"
    },
    {
      "inputs": [
        {
          "internalType": "bytes32",
          "name": "role",
          "type": "bytes32"
        },
        {
          "internalType": "address",
          "name": "account",
          "type": "address"
        }
      ],
      "name": "grantRole",
      "outputs": [],
      "stateMutability": "nonpayable",
      "type": "function"
    },
    {
      "inputs": [
        {
          "internalType": "bytes32",
          "name": "role",
          "type": "bytes32"
        },
        {
          "internalType": "address",
          "name": "account",
          "type": "address"
        }
      ],
      "name": "hasRole",
      "outputs": [
        {
          "internalType": "bool",
          "name": "",
          "type": "bool"
        }
      ],
      "stateMutability": "view",
      "type": "function"
    },
    {
      "inputs": [],
      "name": "lastZDAOId",
      "outputs": [
        {
          "internalType": "uint256",
          "name": "",
          "type": "uint256"
        }
      ],
      "stateMutability": "view",
      "type": "function"
    },
    {
      "inputs": [
        {
          "internalType": "uint256",
          "name": "_startIndex",
          "type": "uint256"
        },
        {
          "internalType": "uint256",
          "name": "_count",
          "type": "uint256"
        }
      ],
      "name": "listZDAOs",
      "outputs": [
        {
          "components": [
            {
              "internalType": "uint256",
              "name": "platformType",
              "type": "uint256"
            },
            {
              "internalType": "uint256",
              "name": "id",
              "type": "uint256"
            },
            {
              "internalType": "address",
              "name": "zDAOOwnedBy",
              "type": "address"
            },
            {
              "internalType": "address",
              "name": "gnosisSafe",
              "type": "address"
            },
            {
              "internalType": "string",
              "name": "name",
              "type": "string"
            },
            {
              "internalType": "bool",
              "name": "destroyed",
              "type": "bool"
            },
            {
              "internalType": "uint256[]",
              "name": "associatedzNAs",
              "type": "uint256[]"
            }
          ],
          "internalType": "struct IZDAORegistry.ZDAORecord[]",
          "name": "records",
          "type": "tuple[]"
        }
      ],
      "stateMutability": "view",
      "type": "function"
    },
    {
      "inputs": [],
      "name": "numberOfzDAOs",
      "outputs": [
        {
          "internalType": "uint256",
          "name": "",
          "type": "uint256"
        }
      ],
      "stateMutability": "view",
      "type": "function"
    },
    {
      "inputs": [],
      "name": "owner",
      "outputs": [
        {
          "internalType": "address",
          "name": "",
          "type": "address"
        }
      ],
      "stateMutability": "view",
      "type": "function"
    },
    {
      "inputs": [],
      "name": "paused",
      "outputs": [
        {
          "internalType": "bool",
          "name": "",
          "type": "bool"
        }
      ],
      "stateMutability": "view",
      "type": "function"
    },
    {
      "inputs": [
        {
          "internalType": "uint256",
          "name": "_zDAOId",
          "type": "uint256"
        },
        {
          "internalType": "uint256",
          "name": "_zNA",
          "type": "uint256"
        }
      ],
      "name": "removeZNAAssociation",
      "outputs": [],
      "stateMutability": "nonpayable",
      "type": "function"
    },
    {
      "inputs": [],
      "name": "renounceOwnership",
      "outputs": [],
      "stateMutability": "nonpayable",
      "type": "function"
    },
    {
      "inputs": [
        {
          "internalType": "bytes32",
          "name": "role",
          "type": "bytes32"
        },
        {
          "internalType": "address",
          "name": "account",
          "type": "address"
        }
      ],
      "name": "renounceRole",
      "outputs": [],
      "stateMutability": "nonpayable",
      "type": "function"
    },
    {
      "inputs": [
        {
          "internalType": "bytes32",
          "name": "role",
          "type": "bytes32"
        },
        {
          "internalType": "address",
          "name": "account",
          "type": "address"
        }
      ],
      "name": "revokeRole",
      "outputs": [],
      "stateMutability": "nonpayable",
      "type": "function"
    },
    {
      "inputs": [
        {
          "internalType": "address",
          "name": "_znsHub",
          "type": "address"
        }
      ],
      "name": "setZNSHub",
      "outputs": [],
      "stateMutability": "nonpayable",
      "type": "function"
    },
    {
      "inputs": [
        {
          "internalType": "bytes4",
          "name": "interfaceId",
          "type": "bytes4"
        }
      ],
      "name": "supportsInterface",
      "outputs": [
        {
          "internalType": "bool",
          "name": "",
          "type": "bool"
        }
      ],
      "stateMutability": "view",
      "type": "function"
    },
    {
      "inputs": [
        {
          "internalType": "address",
          "name": "newOwner",
          "type": "address"
        }
      ],
      "name": "transferOwnership",
      "outputs": [],
      "stateMutability": "nonpayable",
      "type": "function"
    },
    {
      "inputs": [
        {
          "internalType": "address",
          "name": "newImplementation",
          "type": "address"
        }
      ],
      "name": "upgradeTo",
      "outputs": [],
      "stateMutability": "nonpayable",
      "type": "function"
    },
    {
      "inputs": [
        {
          "internalType": "address",
          "name": "newImplementation",
          "type": "address"
        },
        {
          "internalType": "bytes",
          "name": "data",
          "type": "bytes"
        }
      ],
      "name": "upgradeToAndCall",
      "outputs": [],
      "stateMutability": "payable",
      "type": "function"
    },
    {
      "inputs": [],
      "name": "version",
      "outputs": [
        {
          "internalType": "uint256",
          "name": "",
          "type": "uint256"
        }
      ],
      "stateMutability": "view",
      "type": "function"
    },
    {
      "inputs": [
        {
          "internalType": "uint256",
          "name": "",
          "type": "uint256"
        }
      ],
      "name": "zDAOFactories",
      "outputs": [
        {
          "internalType": "contract IZDAOFactory",
          "name": "",
          "type": "address"
        }
      ],
      "stateMutability": "view",
      "type": "function"
    },
    {
      "inputs": [
        {
          "internalType": "uint256",
          "name": "",
          "type": "uint256"
        }
      ],
      "name": "zDAORecords",
      "outputs": [
        {
          "internalType": "uint256",
          "name": "platformType",
          "type": "uint256"
        },
        {
          "internalType": "uint256",
          "name": "id",
          "type": "uint256"
        },
        {
          "internalType": "address",
          "name": "zDAOOwnedBy",
          "type": "address"
        },
        {
          "internalType": "address",
          "name": "gnosisSafe",
          "type": "address"
        },
        {
          "internalType": "string",
          "name": "name",
          "type": "string"
        },
        {
          "internalType": "bool",
          "name": "destroyed",
          "type": "bool"
        }
      ],
      "stateMutability": "view",
      "type": "function"
    },
    {
      "inputs": [
        {
          "internalType": "uint256",
          "name": "",
          "type": "uint256"
        }
      ],
      "name": "zNATozDAOId",
      "outputs": [
        {
          "internalType": "uint256",
          "name": "",
          "type": "uint256"
        }
      ],
      "stateMutability": "view",
      "type": "function"
    },
    {
      "inputs": [],
      "name": "znsHub",
      "outputs": [
        {
          "internalType": "contract IZNSHub",
          "name": "",
          "type": "address"
        }
      ],
      "stateMutability": "view",
      "type": "function"
    }
  ],
  "bytecode": "0x60a06040523060805234801561001457600080fd5b50608051613ad961004560003960008181610e5e01528181610ef401528181610ffc01526110920152613ad96000f3fe6080604052600436106102195760003560e01c8063759e6a071161011d578063a217fddf116100b0578063ba636eef1161007f578063ea04580411610064578063ea04580414610693578063f2fde38b146106b3578063fa771c64146106d357600080fd5b8063ba636eef1461065d578063d547741f1461067357600080fd5b8063a217fddf146105b3578063ac437915146105c8578063b154d764146105ff578063b6236a8e1461062d57600080fd5b806391943967116100ec578063919439671461050d57806391d148541461052d57806393b450f41461057357806393d441791461059357600080fd5b8063759e6a0714610482578063826e8a2c146104a25780638da5cb5b146104c257806390e4e3a8146104e057600080fd5b80633659cfe6116101b057806362acf0f51161017f578063715018a611610164578063715018a61461042d5780637200aff91461044257806372e3bc271461046257600080fd5b806362acf0f5146103d457806366b1d8211461040d57600080fd5b80633659cfe6146103725780634f1ef2861461039257806354fd4d50146103a55780635c975abb146103bc57600080fd5b8063246c88dc116101ec578063246c88dc146102c2578063248a9ca3146102f45780632f2ff15d1461033257806336568abe1461035257600080fd5b806301ffc9a71461021e5780630f5cc1a414610253578063191c892c1461028057806323d5ccda146102a2575b600080fd5b34801561022a57600080fd5b5061023e6102393660046132ca565b6106ea565b60405190151581526020015b60405180910390f35b34801561025f57600080fd5b5061027361026e36600461330c565b610783565b60405161024a919061342a565b34801561028c57600080fd5b506102a061029b3660046134aa565b6109f6565b005b3480156102ae57600080fd5b506102a06102bd36600461330c565b610bac565b3480156102ce57600080fd5b506102e26102dd3660046134aa565b610cd1565b60405161024a969594939291906134c3565b34801561030057600080fd5b5061032461030f3660046134aa565b60009081526097602052604090206001015490565b60405190815260200161024a565b34801561033e57600080fd5b506102a061034d366004613525565b610da1565b34801561035e57600080fd5b506102a061036d366004613525565b610dc7565b34801561037e57600080fd5b506102a061038d366004613555565b610e53565b6102a06103a0366004613588565b610ff1565b3480156103b157600080fd5b506103246101915481565b3480156103c857600080fd5b5060fb5460ff1661023e565b3480156103e057600080fd5b50610192546103f5906001600160a01b031681565b6040516001600160a01b03909116815260200161024a565b34801561041957600080fd5b506102a0610428366004613695565b61117c565b34801561043957600080fd5b506102a061135e565b34801561044e57600080fd5b506102a061045d36600461330c565b6113c4565b34801561046e57600080fd5b506102a061047d366004613555565b61150a565b34801561048e57600080fd5b506102a061049d36600461330c565b61163d565b3480156104ae57600080fd5b506102a06104bd3660046136f1565b6117bb565b3480156104ce57600080fd5b506033546001600160a01b03166103f5565b3480156104ec57600080fd5b506105006104fb3660046134aa565b611b54565b60405161024a9190613787565b34801561051957600080fd5b506105006105283660046134aa565b611d06565b34801561053957600080fd5b5061023e610548366004613525565b60009182526097602090815260408084206001600160a01b0393909316845291905290205460ff1690565b34801561057f57600080fd5b506102a061058e36600461330c565b611eae565b34801561059f57600080fd5b506102a06105ae36600461379a565b611fbe565b3480156105bf57600080fd5b50610324600081565b3480156105d457600080fd5b506103f56105e33660046134aa565b610195602052600090815260409020546001600160a01b031681565b34801561060b57600080fd5b5061032461061a3660046134aa565b6101936020526000908152604090205481565b34801561063957600080fd5b5061023e6106483660046134aa565b60009081526101936020526040902054151590565b34801561066957600080fd5b5061019654610324565b34801561067f57600080fd5b506102a061068e366004613525565b61206b565b34801561069f57600080fd5b506102a06106ae366004613555565b612091565b3480156106bf57600080fd5b506102a06106ce366004613555565b61211b565b3480156106df57600080fd5b506103246101965481565b60007fffffffff0000000000000000000000000000000000000000000000000000000082167f7965db0b00000000000000000000000000000000000000000000000000000000148061077d57507f01ffc9a7000000000000000000000000000000000000000000000000000000007fffffffff000000000000000000000000000000000000000000000000000000008316145b92915050565b6101965460609082906107979085906137e2565b8111156107b05783610196546107ad91906137e2565b90505b8067ffffffffffffffff8111156107c9576107c9613572565b60405190808252806020026020018201604052801561084e57816020015b61083b6040518060e00160405280600081526020016000815260200160006001600160a01b0316815260200160006001600160a01b0316815260200160608152602001600015158152602001606081525090565b8152602001906001900390816107e75790505b50915060005b818110156109ee57610194600061086b83886137f9565b6108769060016137f9565b81526020808201929092526040908101600020815160e0810183528154815260018201549381019390935260028101546001600160a01b0390811692840192909252600381015490911660608301526004810180546080840191906108da90613811565b80601f016020809104026020016040519081016040528092919081815260200182805461090690613811565b80156109535780601f1061092857610100808354040283529160200191610953565b820191906000526020600020905b81548152906001019060200180831161093657829003601f168201915b5050509183525050600582015460ff16151560208083019190915260068301805460408051828502810185018252828152940193928301828280156109b757602002820191906000526020600020905b8154815260200190600101908083116109a3575b5050505050815250508382815181106109d2576109d261384c565b6020026020010181905250806109e790613862565b9050610854565b505092915050565b80600081118015610a0a5750610196548111155b8015610a2957506000818152610194602052604090206005015460ff16155b610a695760405162461bcd60e51b815260206004820152600c60248201526b496e76616c6964207a44414f60a01b60448201526064015b60405180910390fd5b6033546001600160a01b03163314610ac35760405162461bcd60e51b815260206004820181905260248201527f4f776e61626c653a2063616c6c6572206973206e6f7420746865206f776e65726044820152606401610a60565b60008281526101946020908152604080832080548452610195909252909120546001600160a01b031680610af957610af961387d565b60058201805460ff191660011790556040517f4964d9a5000000000000000000000000000000000000000000000000000000008152600481018590526001600160a01b03821690634964d9a590602401600060405180830381600087803b158015610b6357600080fd5b505af1158015610b77573d6000803e3d6000fd5b50506040518692507f62d16daa2b15fec62c2624e8279f21d75a1e6d3f8dd790378d3129985765cb4a9150600090a250505050565b81600081118015610bc05750610196548111155b8015610bdf57506000818152610194602052604090206005015460ff16155b610c1a5760405162461bcd60e51b815260206004820152600c60248201526b496e76616c6964207a44414f60a01b6044820152606401610a60565b6033546001600160a01b03163314610c745760405162461bcd60e51b815260206004820181905260248201527f4f776e61626c653a2063616c6c6572206973206e6f7420746865206f776e65726044820152606401610a60565b600083118015610c875750610196548311155b610cc25760405162461bcd60e51b815260206004820152600c60248201526b496e76616c6964207a44414f60a01b6044820152606401610a60565b610ccc83836121fa565b505050565b6101946020526000908152604090208054600182015460028301546003840154600485018054949593946001600160a01b03938416949290931692610d1590613811565b80601f0160208091040260200160405190810160405280929190818152602001828054610d4190613811565b8015610d8e5780601f10610d6357610100808354040283529160200191610d8e565b820191906000526020600020905b815481529060010190602001808311610d7157829003601f168201915b5050506005909301549192505060ff1686565b600082815260976020526040902060010154610dbd81336122cf565b610ccc838361234f565b6001600160a01b0381163314610e455760405162461bcd60e51b815260206004820152602f60248201527f416363657373436f6e74726f6c3a2063616e206f6e6c792072656e6f756e636560448201527f20726f6c657320666f722073656c6600000000000000000000000000000000006064820152608401610a60565b610e4f82826123f1565b5050565b306001600160a01b037f0000000000000000000000000000000000000000000000000000000000000000161415610ef25760405162461bcd60e51b815260206004820152602c60248201527f46756e6374696f6e206d7573742062652063616c6c6564207468726f7567682060448201527f64656c656761746563616c6c00000000000000000000000000000000000000006064820152608401610a60565b7f00000000000000000000000000000000000000000000000000000000000000006001600160a01b0316610f4d7f360894a13ba1a3210667c828492db98dca3e2076cc3735a920a3ca505d382bbc546001600160a01b031690565b6001600160a01b031614610fc95760405162461bcd60e51b815260206004820152602c60248201527f46756e6374696f6e206d7573742062652063616c6c6564207468726f7567682060448201527f6163746976652070726f787900000000000000000000000000000000000000006064820152608401610a60565b610fd281612474565b60408051600080825260208201909252610fee918391906124ce565b50565b306001600160a01b037f00000000000000000000000000000000000000000000000000000000000000001614156110905760405162461bcd60e51b815260206004820152602c60248201527f46756e6374696f6e206d7573742062652063616c6c6564207468726f7567682060448201527f64656c656761746563616c6c00000000000000000000000000000000000000006064820152608401610a60565b7f00000000000000000000000000000000000000000000000000000000000000006001600160a01b03166110eb7f360894a13ba1a3210667c828492db98dca3e2076cc3735a920a3ca505d382bbc546001600160a01b031690565b6001600160a01b0316146111675760405162461bcd60e51b815260206004820152602c60248201527f46756e6374696f6e206d7573742062652063616c6c6564207468726f7567682060448201527f6163746976652070726f787900000000000000000000000000000000000000006064820152608401610a60565b61117082612474565b610e4f828260016124ce565b836000811180156111905750610196548111155b80156111af57506000818152610194602052604090206005015460ff16155b6111ea5760405162461bcd60e51b815260206004820152600c60248201526b496e76616c6964207a44414f60a01b6044820152606401610a60565b6033546001600160a01b031633146112445760405162461bcd60e51b815260206004820181905260248201527f4f776e61626c653a2063616c6c6572206973206e6f7420746865206f776e65726044820152606401610a60565b60008581526101946020908152604080832080548452610195909252909120546001600160a01b03168061127a5761127a61387d565b60038201805473ffffffffffffffffffffffffffffffffffffffff19166001600160a01b03888116919091179091556040517fc504f2530000000000000000000000000000000000000000000000000000000081529082169063c504f253906112ed908a908a908a908a906004016138be565b600060405180830381600087803b15801561130757600080fd5b505af115801561131b573d6000803e3d6000fd5b50506040516001600160a01b03891692508991507fea2e46044ff1582cc7517ef1f07a271fd2f121629994a9040a1d825f985eb73490600090a350505050505050565b6033546001600160a01b031633146113b85760405162461bcd60e51b815260206004820181905260248201527f4f776e61626c653a2063616c6c6572206973206e6f7420746865206f776e65726044820152606401610a60565b6113c26000612692565b565b816000811180156113d85750610196548111155b80156113f757506000818152610194602052604090206005015460ff16155b6114325760405162461bcd60e51b815260206004820152600c60248201526b496e76616c6964207a44414f60a01b6044820152606401610a60565b610192546040516331a9108f60e11b815260048101849052839133916001600160a01b0390911690636352211e90602401602060405180830381865afa158015611480573d6000803e3d6000fd5b505050506040513d601f19601f820116820180604052508101906114a491906138f1565b6001600160a01b0316146114fa5760405162461bcd60e51b815260206004820152600f60248201527f4e6f742061207a4e41206f776e657200000000000000000000000000000000006044820152606401610a60565b61150484846121fa565b50505050565b600054610100900460ff166115255760005460ff1615611529565b303b155b61159b5760405162461bcd60e51b815260206004820152602e60248201527f496e697469616c697a61626c653a20636f6e747261637420697320616c72656160448201527f647920696e697469616c697a65640000000000000000000000000000000000006064820152608401610a60565b600054610100900460ff161580156115da57600080547fffffffffffffffffffffffffffffffffffffffffffffffffffffffffffff0000166101011790555b6115e26126f1565b610192805473ffffffffffffffffffffffffffffffffffffffff19166001600160a01b0384161790558015610e4f57600080547fffffffffffffffffffffffffffffffffffffffffffffffffffffffffffff00ff1690555050565b610192546040516331a9108f60e11b815260048101839052829133916001600160a01b0390911690636352211e90602401602060405180830381865afa15801561168b573d6000803e3d6000fd5b505050506040513d601f19601f820116820180604052508101906116af91906138f1565b6001600160a01b0316146117055760405162461bcd60e51b815260206004820152600f60248201527f4e6f742061207a4e41206f776e657200000000000000000000000000000000006044820152606401610a60565b6000831180156117185750610196548311155b6117535760405162461bcd60e51b815260206004820152600c60248201526b496e76616c6964207a44414f60a01b6044820152606401610a60565b6000828152610193602052604090205483146117b15760405162461bcd60e51b815260206004820152601260248201527f7a4e41206e6f74206173736f63696174656400000000000000000000000000006044820152606401610a60565b610ccc83836127c8565b610192546040516331a9108f60e11b815260048101889052879133916001600160a01b0390911690636352211e90602401602060405180830381865afa158015611809573d6000803e3d6000fd5b505050506040513d601f19601f8201168201806040525081019061182d91906138f1565b6001600160a01b0316146118835760405162461bcd60e51b815260206004820152600f60248201527f4e6f742061207a4e41206f776e657200000000000000000000000000000000006044820152606401610a60565b6000878152610193602052604090205480156118e15760405162461bcd60e51b815260206004820152601f60248201527f416c72656164792061646465642044414f20776974682073616d65207a4e41006044820152606401610a60565b600089815261019560205260409020546001600160a01b0316806119075761190761387d565b610196805490600061191883613862565b9091555050610196546040517f3ca65bd60000000000000000000000000000000000000000000000000000000081526000916001600160a01b03841691633ca65bd69161196f918e908e908c908c9060040161390e565b6020604051808303816000875af115801561198e573d6000803e3d6000fd5b505050506040513d601f19601f820116820180604052508101906119b291906138f1565b90506040518060e001604052808c8152602001610196548152602001336001600160a01b031681526020018a6001600160a01b0316815260200189898080601f016020809104026020016040519081016040528093929190818152602001838380828437600092018290525093855250505060208083018290526040805183815280830182529381019390935261019654825261019481529082902083518155838201516001820155918301516002830180546001600160a01b0392831673ffffffffffffffffffffffffffffffffffffffff1991821617909155606085015160038501805491909316911617905560808301518051611ab892600485019201906131f7565b5060a082015160058201805460ff191691151591909117905560c08201518051611aec91600684019160209091019061327b565b505061019654604080513381526001600160a01b0385811660208301528d1693508e917f4a2e5d9b329ae9a3b7cc17b1f28fb785b7af955392bd21dba851032bfde804fe910160405180910390a4611b47610196548b6121fa565b5050505050505050505050565b611ba86040518060e00160405280600081526020016000815260200160006001600160a01b0316815260200160006001600160a01b0316815260200160608152602001600015158152602001606081525090565b60008281526101936020908152604080832054808452610194835292819020815160e0810183528154815260018201549381019390935260028101546001600160a01b039081169284019290925260038101549091166060830152600481018054608084019190611c1890613811565b80601f0160208091040260200160405190810160405280929190818152602001828054611c4490613811565b8015611c915780601f10611c6657610100808354040283529160200191611c91565b820191906000526020600020905b815481529060010190602001808311611c7457829003601f168201915b5050509183525050600582015460ff1615156020808301919091526006830180546040805182850281018501825282815294019392830182828015611cf557602002820191906000526020600020905b815481526020019060010190808311611ce1575b505050505081525050915050919050565b611d5a6040518060e00160405280600081526020016000815260200160006001600160a01b0316815260200160006001600160a01b0316815260200160608152602001600015158152602001606081525090565b60008281526101946020908152604091829020825160e0810184528154815260018201549281019290925260028101546001600160a01b039081169383019390935260038101549092166060820152600482018054919291608084019190611dc190613811565b80601f0160208091040260200160405190810160405280929190818152602001828054611ded90613811565b8015611e3a5780601f10611e0f57610100808354040283529160200191611e3a565b820191906000526020600020905b815481529060010190602001808311611e1d57829003601f168201915b5050509183525050600582015460ff1615156020808301919091526006830180546040805182850281018501825282815294019392830182828015611e9e57602002820191906000526020600020905b815481526020019060010190808311611e8a575b5050505050815250509050919050565b6033546001600160a01b03163314611f085760405162461bcd60e51b815260206004820181905260248201527f4f776e61626c653a2063616c6c6572206973206e6f7420746865206f776e65726044820152606401610a60565b600082118015611f1b5750610196548211155b611f565760405162461bcd60e51b815260206004820152600c60248201526b496e76616c6964207a44414f60a01b6044820152606401610a60565b600081815261019360205260409020548214611fb45760405162461bcd60e51b815260206004820152601260248201527f7a4e41206e6f74206173736f63696174656400000000000000000000000000006044820152606401610a60565b610e4f82826127c8565b6033546001600160a01b031633146120185760405162461bcd60e51b815260206004820181905260248201527f4f776e61626c653a2063616c6c6572206973206e6f7420746865206f776e65726044820152606401610a60565b600082600181111561202c5761202c613948565b600090815261019560205260409020805473ffffffffffffffffffffffffffffffffffffffff19166001600160a01b0393909316929092179091555050565b60008281526097602052604090206001015461208781336122cf565b610ccc83836123f1565b6033546001600160a01b031633146120eb5760405162461bcd60e51b815260206004820181905260248201527f4f776e61626c653a2063616c6c6572206973206e6f7420746865206f776e65726044820152606401610a60565b610192805473ffffffffffffffffffffffffffffffffffffffff19166001600160a01b0392909216919091179055565b6033546001600160a01b031633146121755760405162461bcd60e51b815260206004820181905260248201527f4f776e61626c653a2063616c6c6572206973206e6f7420746865206f776e65726044820152606401610a60565b6001600160a01b0381166121f15760405162461bcd60e51b815260206004820152602660248201527f4f776e61626c653a206e6577206f776e657220697320746865207a65726f206160448201527f64647265737300000000000000000000000000000000000000000000000000006064820152608401610a60565b610fee81612692565b600081815261019360205260409020548281141561225a5760405162461bcd60e51b815260206004820152601960248201527f7a4e4120616c7265616479206c696e6b656420746f2044414f000000000000006044820152606401610a60565b801561226a5761226a81836127c8565b6000828152610193602090815260408083208690558583526101948252808320600601805460018101825590845291832090910184905551839185917fffdc17a33b6ff8f8f10d88a733ea9fb0db3faa0b4ec1cf8612f81ba96656cd919190a3505050565b60008281526097602090815260408083206001600160a01b038516845290915290205460ff16610e4f5761230d816001600160a01b031660146128d7565b6123188360206128d7565b60405160200161232992919061395e565b60408051601f198184030181529082905262461bcd60e51b8252610a60916004016139df565b60008281526097602090815260408083206001600160a01b038516845290915290205460ff16610e4f5760008281526097602090815260408083206001600160a01b03851684529091529020805460ff191660011790556123ad3390565b6001600160a01b0316816001600160a01b0316837f2f8788117e7eff1d82e926ec794901d17c78024a50270940304540a733656f0d60405160405180910390a45050565b60008281526097602090815260408083206001600160a01b038516845290915290205460ff1615610e4f5760008281526097602090815260408083206001600160a01b0385168085529252808320805460ff1916905551339285917ff6391f5c32d9c69d2a47ea670b442974b53935d1edc7fd64eb21e047a839171b9190a45050565b6033546001600160a01b03163314610fee5760405162461bcd60e51b815260206004820181905260248201527f4f776e61626c653a2063616c6c6572206973206e6f7420746865206f776e65726044820152606401610a60565b60006125017f360894a13ba1a3210667c828492db98dca3e2076cc3735a920a3ca505d382bbc546001600160a01b031690565b905061250c84612b07565b6000835111806125195750815b1561252a576125288484612bc9565b505b7f4910fdfa16fed3260ed0e7147f7cc6da11a60208b5b9406d12a635614ffd9143805460ff1661268b57805460ff191660011781556040516001600160a01b03831660248201526125d790869060440160408051601f198184030181529190526020810180517bffffffffffffffffffffffffffffffffffffffffffffffffffffffff167f3659cfe600000000000000000000000000000000000000000000000000000000179052612bc9565b50805460ff191681557f360894a13ba1a3210667c828492db98dca3e2076cc3735a920a3ca505d382bbc546001600160a01b038381169116146126825760405162461bcd60e51b815260206004820152602f60248201527f45524331393637557067726164653a207570677261646520627265616b73206660448201527f75727468657220757067726164657300000000000000000000000000000000006064820152608401610a60565b61268b85612ccb565b5050505050565b603380546001600160a01b0383811673ffffffffffffffffffffffffffffffffffffffff19831681179093556040519116919082907f8be0079c531659141344cd1fd0a4f28419497f9722a3daafe3b4186f6b6457e090600090a35050565b600054610100900460ff1661275c5760405162461bcd60e51b815260206004820152602b60248201527f496e697469616c697a61626c653a20636f6e7472616374206973206e6f74206960448201526a6e697469616c697a696e6760a81b6064820152608401610a60565b612764612d0b565b61276c612d86565b612774612e09565b61277c612e7c565b612784612ef7565b6001610191819055604080518082019091528181527f760000000000000000000000000000000000000000000000000000000000000060208201526113c291612f62565b600082815261019460205260408120600681015490915b8181101561268b57838360060182815481106127fd576127fd61384c565b906000526020600020015414156128c5576006830161281d6001846137e2565b8154811061282d5761282d61384c565b906000526020600020015483600601828154811061284d5761284d61384c565b6000918252602090912001556006830180548061286c5761286c6139f2565b6000828152602080822083016000199081018390559092019092558582526101939052604080822082905551859187917ffa997975b6b7327afbe399fcdbc2861d51d0d52e5828cf7e1c8a98cd0cadb7ae9190a361268b565b806128cf81613862565b9150506127df565b606060006128e6836002613a08565b6128f19060026137f9565b67ffffffffffffffff81111561290957612909613572565b6040519080825280601f01601f191660200182016040528015612933576020820181803683370190505b5090507f30000000000000000000000000000000000000000000000000000000000000008160008151811061296a5761296a61384c565b60200101907effffffffffffffffffffffffffffffffffffffffffffffffffffffffffffff1916908160001a9053507f7800000000000000000000000000000000000000000000000000000000000000816001815181106129cd576129cd61384c565b60200101907effffffffffffffffffffffffffffffffffffffffffffffffffffffffffffff1916908160001a9053506000612a09846002613a08565b612a149060016137f9565b90505b6001811115612ab1577f303132333435363738396162636465660000000000000000000000000000000085600f1660108110612a5557612a5561384c565b1a60f81b828281518110612a6b57612a6b61384c565b60200101907effffffffffffffffffffffffffffffffffffffffffffffffffffffffffffff1916908160001a90535060049490941c93612aaa81613a27565b9050612a17565b508315612b005760405162461bcd60e51b815260206004820181905260248201527f537472696e67733a20686578206c656e67746820696e73756666696369656e746044820152606401610a60565b9392505050565b803b612b7b5760405162461bcd60e51b815260206004820152602d60248201527f455243313936373a206e657720696d706c656d656e746174696f6e206973206e60448201527f6f74206120636f6e7472616374000000000000000000000000000000000000006064820152608401610a60565b7f360894a13ba1a3210667c828492db98dca3e2076cc3735a920a3ca505d382bbc805473ffffffffffffffffffffffffffffffffffffffff19166001600160a01b0392909216919091179055565b6060823b612c3f5760405162461bcd60e51b815260206004820152602660248201527f416464726573733a2064656c65676174652063616c6c20746f206e6f6e2d636f60448201527f6e747261637400000000000000000000000000000000000000000000000000006064820152608401610a60565b600080846001600160a01b031684604051612c5a9190613a3e565b600060405180830381855af49150503d8060008114612c95576040519150601f19603f3d011682016040523d82523d6000602084013e612c9a565b606091505b5091509150612cc28282604051806060016040528060278152602001613a7d60279139612fd5565b95945050505050565b612cd481612b07565b6040516001600160a01b038216907fbc7cd75a20ee27fd9adebab32041f755214dbc6bffa90cc0225b39da2e5c2d3b90600090a250565b600054610100900460ff16612d765760405162461bcd60e51b815260206004820152602b60248201527f496e697469616c697a61626c653a20636f6e7472616374206973206e6f74206960448201526a6e697469616c697a696e6760a81b6064820152608401610a60565b612d7e61300e565b6113c2613079565b600054610100900460ff16612df15760405162461bcd60e51b815260206004820152602b60248201527f496e697469616c697a61626c653a20636f6e7472616374206973206e6f74206960448201526a6e697469616c697a696e6760a81b6064820152608401610a60565b612df961300e565b612e0161300e565b6113c261300e565b600054610100900460ff16612e745760405162461bcd60e51b815260206004820152602b60248201527f496e697469616c697a61626c653a20636f6e7472616374206973206e6f74206960448201526a6e697469616c697a696e6760a81b6064820152608401610a60565b6113c26130ed565b600054610100900460ff16612ee75760405162461bcd60e51b815260206004820152602b60248201527f496e697469616c697a61626c653a20636f6e7472616374206973206e6f74206960448201526a6e697469616c697a696e6760a81b6064820152608401610a60565b612eef61300e565b6113c261315f565b600054610100900460ff16612df95760405162461bcd60e51b815260206004820152602b60248201527f496e697469616c697a61626c653a20636f6e7472616374206973206e6f74206960448201526a6e697469616c697a696e6760a81b6064820152608401610a60565b610e4f8282604051602401612f78929190613a5a565b60408051601f198184030181529190526020810180517bffffffffffffffffffffffffffffffffffffffffffffffffffffffff167f9710a9d0000000000000000000000000000000000000000000000000000000001790526131d6565b60608315612fe4575081612b00565b825115612ff45782518084602001fd5b8160405162461bcd60e51b8152600401610a6091906139df565b600054610100900460ff166113c25760405162461bcd60e51b815260206004820152602b60248201527f496e697469616c697a61626c653a20636f6e7472616374206973206e6f74206960448201526a6e697469616c697a696e6760a81b6064820152608401610a60565b600054610100900460ff166130e45760405162461bcd60e51b815260206004820152602b60248201527f496e697469616c697a61626c653a20636f6e7472616374206973206e6f74206960448201526a6e697469616c697a696e6760a81b6064820152608401610a60565b6113c233612692565b600054610100900460ff166131585760405162461bcd60e51b815260206004820152602b60248201527f496e697469616c697a61626c653a20636f6e7472616374206973206e6f74206960448201526a6e697469616c697a696e6760a81b6064820152608401610a60565b600160c955565b600054610100900460ff166131ca5760405162461bcd60e51b815260206004820152602b60248201527f496e697469616c697a61626c653a20636f6e7472616374206973206e6f74206960448201526a6e697469616c697a696e6760a81b6064820152608401610a60565b60fb805460ff19169055565b80516a636f6e736f6c652e6c6f67602083016000808483855afa5050505050565b82805461320390613811565b90600052602060002090601f016020900481019282613225576000855561326b565b82601f1061323e57805160ff191683800117855561326b565b8280016001018555821561326b579182015b8281111561326b578251825591602001919060010190613250565b506132779291506132b5565b5090565b82805482825590600052602060002090810192821561326b579160200282018281111561326b578251825591602001919060010190613250565b5b8082111561327757600081556001016132b6565b6000602082840312156132dc57600080fd5b81357fffffffff0000000000000000000000000000000000000000000000000000000081168114612b0057600080fd5b6000806040838503121561331f57600080fd5b50508035926020909101359150565b60005b83811015613349578181015183820152602001613331565b838111156115045750506000910152565b6000815180845261337281602086016020860161332e565b601f01601f19169290920160200192915050565b8051825260006020808301518185015260408301516001600160a01b0380821660408701528060608601511660608701525050608083015160e060808601526133d260e086018261335a565b60a08581015115159087015260c08086015187830391880191909152805180835290840192506000918401905b8083101561341f57835182529284019260019290920191908401906133ff565b509695505050505050565b6000602080830181845280855180835260408601915060408160051b870101925083870160005b8281101561349d577fffffffffffffffffffffffffffffffffffffffffffffffffffffffffffffffc088860301845261348b858351613386565b94509285019290850190600101613451565b5092979650505050505050565b6000602082840312156134bc57600080fd5b5035919050565b86815285602082015260006001600160a01b03808716604084015280861660608401525060c060808301526134fb60c083018561335a565b905082151560a0830152979650505050505050565b6001600160a01b0381168114610fee57600080fd5b6000806040838503121561353857600080fd5b82359150602083013561354a81613510565b809150509250929050565b60006020828403121561356757600080fd5b8135612b0081613510565b634e487b7160e01b600052604160045260246000fd5b6000806040838503121561359b57600080fd5b82356135a681613510565b9150602083013567ffffffffffffffff808211156135c357600080fd5b818501915085601f8301126135d757600080fd5b8135818111156135e9576135e9613572565b604051601f8201601f19908116603f0116810190838211818310171561361157613611613572565b8160405282815288602084870101111561362a57600080fd5b8260208601602083013760006020848301015280955050505050509250929050565b60008083601f84011261365e57600080fd5b50813567ffffffffffffffff81111561367657600080fd5b60208301915083602082850101111561368e57600080fd5b9250929050565b600080600080606085870312156136ab57600080fd5b8435935060208501356136bd81613510565b9250604085013567ffffffffffffffff8111156136d957600080fd5b6136e58782880161364c565b95989497509550505050565b600080600080600080600060a0888a03121561370c57600080fd5b8735965060208801359550604088013561372581613510565b9450606088013567ffffffffffffffff8082111561374257600080fd5b61374e8b838c0161364c565b909650945060808a013591508082111561376757600080fd5b506137748a828b0161364c565b989b979a50959850939692959293505050565b602081526000612b006020830184613386565b600080604083850312156137ad57600080fd5b8235600281106137bc57600080fd5b9150602083013561354a81613510565b634e487b7160e01b600052601160045260246000fd5b6000828210156137f4576137f46137cc565b500390565b6000821982111561380c5761380c6137cc565b500190565b600181811c9082168061382557607f821691505b6020821081141561384657634e487b7160e01b600052602260045260246000fd5b50919050565b634e487b7160e01b600052603260045260246000fd5b6000600019821415613876576138766137cc565b5060010190565b634e487b7160e01b600052600160045260246000fd5b818352818160208501375060006020828401015260006020601f19601f840116840101905092915050565b8481526001600160a01b03841660208201526060604082015260006138e7606083018486613893565b9695505050505050565b60006020828403121561390357600080fd5b8151612b0081613510565b8581528460208201526001600160a01b038416604082015260806060820152600061393d608083018486613893565b979650505050505050565b634e487b7160e01b600052602160045260246000fd5b7f416363657373436f6e74726f6c3a206163636f756e742000000000000000000081526000835161399681601785016020880161332e565b7f206973206d697373696e6720726f6c652000000000000000000000000000000060179184019182015283516139d381602884016020880161332e565b01602801949350505050565b602081526000612b00602083018461335a565b634e487b7160e01b600052603160045260246000fd5b6000816000190483118215151615613a2257613a226137cc565b500290565b600081613a3657613a366137cc565b506000190190565b60008251613a5081846020870161332e565b9190910192915050565b604081526000613a6d604083018561335a565b9050826020830152939250505056fe416464726573733a206c6f772d6c6576656c2064656c65676174652063616c6c206661696c6564a264697066735822122028082be3daceb39c97efc18e9ff8478aaf8e856d957254be77ddc652e58cb7a564736f6c634300080b0033",
  "linkReferences": {},
  "deployedLinkReferences": {}
}