{
  "_format": "hh-sol-artifact-1",
  "contractName": "ZDAORegistry",
  "sourceName": "contracts/ZDAORegistry.sol",
  "abi": [
    {
      "anonymous": false,
      "inputs": [
        {
          "indexed": false,
          "internalType": "address",
          "name": "previousAdmin",
          "type": "address"
        },
        {
          "indexed": false,
          "internalType": "address",
          "name": "newAdmin",
          "type": "address"
        }
      ],
      "name": "AdminChanged",
      "type": "event"
    },
    {
      "anonymous": false,
      "inputs": [
        {
          "indexed": true,
          "internalType": "address",
          "name": "beacon",
          "type": "address"
        }
      ],
      "name": "BeaconUpgraded",
      "type": "event"
    },
    {
      "anonymous": false,
      "inputs": [
        {
          "indexed": true,
          "internalType": "uint256",
          "name": "_platformType",
          "type": "uint256"
        },
        {
          "indexed": true,
          "internalType": "uint256",
          "name": "_zDAOId",
          "type": "uint256"
        },
        {
          "indexed": true,
          "internalType": "address",
          "name": "_gnosisSafe",
          "type": "address"
        },
        {
          "indexed": false,
          "internalType": "address",
          "name": "_creator",
          "type": "address"
        },
        {
          "indexed": false,
          "internalType": "address",
          "name": "_zDAO",
          "type": "address"
        }
      ],
      "name": "DAOCreated",
      "type": "event"
    },
    {
      "anonymous": false,
      "inputs": [
        {
          "indexed": true,
          "internalType": "uint256",
          "name": "_zDAOId",
          "type": "uint256"
        }
      ],
      "name": "DAODestroyed",
      "type": "event"
    },
    {
      "anonymous": false,
      "inputs": [
        {
          "indexed": true,
          "internalType": "uint256",
          "name": "_zDAOId",
          "type": "uint256"
        },
        {
          "indexed": true,
          "internalType": "address",
          "name": "_gnosisSafe",
          "type": "address"
        }
      ],
      "name": "DAOModified",
      "type": "event"
    },
    {
      "anonymous": false,
      "inputs": [
        {
          "indexed": true,
          "internalType": "uint256",
          "name": "_zDAOId",
          "type": "uint256"
        },
        {
          "indexed": true,
          "internalType": "uint256",
          "name": "_zNA",
          "type": "uint256"
        }
      ],
      "name": "LinkAdded",
      "type": "event"
    },
    {
      "anonymous": false,
      "inputs": [
        {
          "indexed": true,
          "internalType": "uint256",
          "name": "_zDAOId",
          "type": "uint256"
        },
        {
          "indexed": true,
          "internalType": "uint256",
          "name": "_zNA",
          "type": "uint256"
        }
      ],
      "name": "LinkRemoved",
      "type": "event"
    },
    {
      "anonymous": false,
      "inputs": [
        {
          "indexed": true,
          "internalType": "address",
          "name": "previousOwner",
          "type": "address"
        },
        {
          "indexed": true,
          "internalType": "address",
          "name": "newOwner",
          "type": "address"
        }
      ],
      "name": "OwnershipTransferred",
      "type": "event"
    },
    {
      "anonymous": false,
      "inputs": [
        {
          "indexed": false,
          "internalType": "address",
          "name": "account",
          "type": "address"
        }
      ],
      "name": "Paused",
      "type": "event"
    },
    {
      "anonymous": false,
      "inputs": [
        {
          "indexed": true,
          "internalType": "bytes32",
          "name": "role",
          "type": "bytes32"
        },
        {
          "indexed": true,
          "internalType": "bytes32",
          "name": "previousAdminRole",
          "type": "bytes32"
        },
        {
          "indexed": true,
          "internalType": "bytes32",
          "name": "newAdminRole",
          "type": "bytes32"
        }
      ],
      "name": "RoleAdminChanged",
      "type": "event"
    },
    {
      "anonymous": false,
      "inputs": [
        {
          "indexed": true,
          "internalType": "bytes32",
          "name": "role",
          "type": "bytes32"
        },
        {
          "indexed": true,
          "internalType": "address",
          "name": "account",
          "type": "address"
        },
        {
          "indexed": true,
          "internalType": "address",
          "name": "sender",
          "type": "address"
        }
      ],
      "name": "RoleGranted",
      "type": "event"
    },
    {
      "anonymous": false,
      "inputs": [
        {
          "indexed": true,
          "internalType": "bytes32",
          "name": "role",
          "type": "bytes32"
        },
        {
          "indexed": true,
          "internalType": "address",
          "name": "account",
          "type": "address"
        },
        {
          "indexed": true,
          "internalType": "address",
          "name": "sender",
          "type": "address"
        }
      ],
      "name": "RoleRevoked",
      "type": "event"
    },
    {
      "anonymous": false,
      "inputs": [
        {
          "indexed": false,
          "internalType": "address",
          "name": "account",
          "type": "address"
        }
      ],
      "name": "Unpaused",
      "type": "event"
    },
    {
      "anonymous": false,
      "inputs": [
        {
          "indexed": true,
          "internalType": "address",
          "name": "implementation",
          "type": "address"
        }
      ],
      "name": "Upgraded",
      "type": "event"
    },
    {
      "inputs": [],
      "name": "DEFAULT_ADMIN_ROLE",
      "outputs": [
        {
          "internalType": "bytes32",
          "name": "",
          "type": "bytes32"
        }
      ],
      "stateMutability": "view",
      "type": "function"
    },
    {
      "inputs": [
        {
          "internalType": "contract IZNSHub",
          "name": "_znsHub",
          "type": "address"
        }
      ],
      "name": "__ZDAORegistry_init",
      "outputs": [],
      "stateMutability": "nonpayable",
      "type": "function"
    },
    {
      "inputs": [
        {
          "internalType": "uint256",
          "name": "_platformType",
          "type": "uint256"
        },
        {
          "internalType": "uint256",
          "name": "_zNA",
          "type": "uint256"
        },
        {
          "internalType": "address",
          "name": "_gnosisSafe",
          "type": "address"
        },
        {
          "internalType": "string",
          "name": "_name",
          "type": "string"
        },
        {
          "internalType": "bytes",
          "name": "_options",
          "type": "bytes"
        }
      ],
      "name": "addNewZDAO",
      "outputs": [],
      "stateMutability": "nonpayable",
      "type": "function"
    },
    {
      "inputs": [
        {
          "internalType": "enum IZDAORegistry.PlatformType",
          "name": "_platformType",
          "type": "uint8"
        },
        {
          "internalType": "contract IZDAOFactory",
          "name": "_factory",
          "type": "address"
        }
      ],
      "name": "addZDAOFactory",
      "outputs": [],
      "stateMutability": "nonpayable",
      "type": "function"
    },
    {
      "inputs": [
        {
          "internalType": "uint256",
          "name": "_zDAOId",
          "type": "uint256"
        },
        {
          "internalType": "uint256",
          "name": "_zNA",
          "type": "uint256"
        }
      ],
      "name": "addZNAAssociation",
      "outputs": [],
      "stateMutability": "nonpayable",
      "type": "function"
    },
    {
      "inputs": [
        {
          "internalType": "uint256",
          "name": "_zDAOId",
          "type": "uint256"
        },
        {
          "internalType": "uint256",
          "name": "_zNA",
          "type": "uint256"
        }
      ],
      "name": "adminAssociateZNA",
      "outputs": [],
      "stateMutability": "nonpayable",
      "type": "function"
    },
    {
      "inputs": [
        {
          "internalType": "uint256",
          "name": "_zDAOId",
          "type": "uint256"
        },
        {
          "internalType": "uint256",
          "name": "_zNA",
          "type": "uint256"
        }
      ],
      "name": "adminDisassociateZNA",
      "outputs": [],
      "stateMutability": "nonpayable",
      "type": "function"
    },
    {
      "inputs": [
        {
          "internalType": "uint256",
          "name": "_zDAOId",
          "type": "uint256"
        },
        {
          "internalType": "address",
          "name": "_gnosisSafe",
          "type": "address"
        },
        {
          "internalType": "bytes",
          "name": "_options",
          "type": "bytes"
        }
      ],
      "name": "adminModifyZDAO",
      "outputs": [],
      "stateMutability": "nonpayable",
      "type": "function"
    },
    {
      "inputs": [
        {
          "internalType": "uint256",
          "name": "_zDAOId",
          "type": "uint256"
        }
      ],
      "name": "adminRemoveZDAO",
      "outputs": [],
      "stateMutability": "nonpayable",
      "type": "function"
    },
    {
      "inputs": [
        {
          "internalType": "uint256",
          "name": "_zNA",
          "type": "uint256"
        }
      ],
      "name": "doesZDAOExistForZNA",
      "outputs": [
        {
          "internalType": "bool",
          "name": "",
          "type": "bool"
        }
      ],
      "stateMutability": "view",
      "type": "function"
    },
    {
      "inputs": [
        {
          "internalType": "bytes32",
          "name": "role",
          "type": "bytes32"
        }
      ],
      "name": "getRoleAdmin",
      "outputs": [
        {
          "internalType": "bytes32",
          "name": "",
          "type": "bytes32"
        }
      ],
      "stateMutability": "view",
      "type": "function"
    },
    {
      "inputs": [
        {
          "internalType": "uint256",
          "name": "_zDAOId",
          "type": "uint256"
        }
      ],
      "name": "getZDAOById",
      "outputs": [
        {
          "components": [
            {
              "internalType": "uint256",
              "name": "platformType",
              "type": "uint256"
            },
            {
              "internalType": "uint256",
              "name": "id",
              "type": "uint256"
            },
            {
              "internalType": "address",
              "name": "zDAOOwnedBy",
              "type": "address"
            },
            {
              "internalType": "address",
              "name": "gnosisSafe",
              "type": "address"
            },
            {
              "internalType": "string",
              "name": "name",
              "type": "string"
            },
            {
              "internalType": "bool",
              "name": "destroyed",
              "type": "bool"
            },
            {
              "internalType": "uint256[]",
              "name": "associatedzNAs",
              "type": "uint256[]"
            }
          ],
          "internalType": "struct IZDAORegistry.ZDAORecord",
          "name": "",
          "type": "tuple"
        }
      ],
      "stateMutability": "view",
      "type": "function"
    },
    {
      "inputs": [
        {
          "internalType": "uint256",
          "name": "_zNA",
          "type": "uint256"
        }
      ],
      "name": "getZDAOByZNA",
      "outputs": [
        {
          "components": [
            {
              "internalType": "uint256",
              "name": "platformType",
              "type": "uint256"
            },
            {
              "internalType": "uint256",
              "name": "id",
              "type": "uint256"
            },
            {
              "internalType": "address",
              "name": "zDAOOwnedBy",
              "type": "address"
            },
            {
              "internalType": "address",
              "name": "gnosisSafe",
              "type": "address"
            },
            {
              "internalType": "string",
              "name": "name",
              "type": "string"
            },
            {
              "internalType": "bool",
              "name": "destroyed",
              "type": "bool"
            },
            {
              "internalType": "uint256[]",
              "name": "associatedzNAs",
              "type": "uint256[]"
            }
          ],
          "internalType": "struct IZDAORegistry.ZDAORecord",
          "name": "",
          "type": "tuple"
        }
      ],
      "stateMutability": "view",
      "type": "function"
    },
    {
      "inputs": [
        {
          "internalType": "bytes32",
          "name": "role",
          "type": "bytes32"
        },
        {
          "internalType": "address",
          "name": "account",
          "type": "address"
        }
      ],
      "name": "grantRole",
      "outputs": [],
      "stateMutability": "nonpayable",
      "type": "function"
    },
    {
      "inputs": [
        {
          "internalType": "bytes32",
          "name": "role",
          "type": "bytes32"
        },
        {
          "internalType": "address",
          "name": "account",
          "type": "address"
        }
      ],
      "name": "hasRole",
      "outputs": [
        {
          "internalType": "bool",
          "name": "",
          "type": "bool"
        }
      ],
      "stateMutability": "view",
      "type": "function"
    },
    {
      "inputs": [],
      "name": "lastZDAOId",
      "outputs": [
        {
          "internalType": "uint256",
          "name": "",
          "type": "uint256"
        }
      ],
      "stateMutability": "view",
      "type": "function"
    },
    {
      "inputs": [
        {
          "internalType": "uint256",
          "name": "_startIndex",
          "type": "uint256"
        },
        {
          "internalType": "uint256",
          "name": "_count",
          "type": "uint256"
        }
      ],
      "name": "listZDAOs",
      "outputs": [
        {
          "components": [
            {
              "internalType": "uint256",
              "name": "platformType",
              "type": "uint256"
            },
            {
              "internalType": "uint256",
              "name": "id",
              "type": "uint256"
            },
            {
              "internalType": "address",
              "name": "zDAOOwnedBy",
              "type": "address"
            },
            {
              "internalType": "address",
              "name": "gnosisSafe",
              "type": "address"
            },
            {
              "internalType": "string",
              "name": "name",
              "type": "string"
            },
            {
              "internalType": "bool",
              "name": "destroyed",
              "type": "bool"
            },
            {
              "internalType": "uint256[]",
              "name": "associatedzNAs",
              "type": "uint256[]"
            }
          ],
          "internalType": "struct IZDAORegistry.ZDAORecord[]",
          "name": "records",
          "type": "tuple[]"
        }
      ],
      "stateMutability": "view",
      "type": "function"
    },
    {
      "inputs": [],
      "name": "numberOfzDAOs",
      "outputs": [
        {
          "internalType": "uint256",
          "name": "",
          "type": "uint256"
        }
      ],
      "stateMutability": "view",
      "type": "function"
    },
    {
      "inputs": [],
      "name": "owner",
      "outputs": [
        {
          "internalType": "address",
          "name": "",
          "type": "address"
        }
      ],
      "stateMutability": "view",
      "type": "function"
    },
    {
      "inputs": [],
      "name": "paused",
      "outputs": [
        {
          "internalType": "bool",
          "name": "",
          "type": "bool"
        }
      ],
      "stateMutability": "view",
      "type": "function"
    },
    {
      "inputs": [
        {
          "internalType": "uint256",
          "name": "_zDAOId",
          "type": "uint256"
        },
        {
          "internalType": "uint256",
          "name": "_zNA",
          "type": "uint256"
        }
      ],
      "name": "removeZNAAssociation",
      "outputs": [],
      "stateMutability": "nonpayable",
      "type": "function"
    },
    {
      "inputs": [],
      "name": "renounceOwnership",
      "outputs": [],
      "stateMutability": "nonpayable",
      "type": "function"
    },
    {
      "inputs": [
        {
          "internalType": "bytes32",
          "name": "role",
          "type": "bytes32"
        },
        {
          "internalType": "address",
          "name": "account",
          "type": "address"
        }
      ],
      "name": "renounceRole",
      "outputs": [],
      "stateMutability": "nonpayable",
      "type": "function"
    },
    {
      "inputs": [
        {
          "internalType": "bytes32",
          "name": "role",
          "type": "bytes32"
        },
        {
          "internalType": "address",
          "name": "account",
          "type": "address"
        }
      ],
      "name": "revokeRole",
      "outputs": [],
      "stateMutability": "nonpayable",
      "type": "function"
    },
    {
      "inputs": [
        {
          "internalType": "address",
          "name": "_znsHub",
          "type": "address"
        }
      ],
      "name": "setZNSHub",
      "outputs": [],
      "stateMutability": "nonpayable",
      "type": "function"
    },
    {
      "inputs": [
        {
          "internalType": "bytes4",
          "name": "interfaceId",
          "type": "bytes4"
        }
      ],
      "name": "supportsInterface",
      "outputs": [
        {
          "internalType": "bool",
          "name": "",
          "type": "bool"
        }
      ],
      "stateMutability": "view",
      "type": "function"
    },
    {
      "inputs": [
        {
          "internalType": "address",
          "name": "newOwner",
          "type": "address"
        }
      ],
      "name": "transferOwnership",
      "outputs": [],
      "stateMutability": "nonpayable",
      "type": "function"
    },
    {
      "inputs": [
        {
          "internalType": "address",
          "name": "newImplementation",
          "type": "address"
        }
      ],
      "name": "upgradeTo",
      "outputs": [],
      "stateMutability": "nonpayable",
      "type": "function"
    },
    {
      "inputs": [
        {
          "internalType": "address",
          "name": "newImplementation",
          "type": "address"
        },
        {
          "internalType": "bytes",
          "name": "data",
          "type": "bytes"
        }
      ],
      "name": "upgradeToAndCall",
      "outputs": [],
      "stateMutability": "payable",
      "type": "function"
    },
    {
      "inputs": [],
      "name": "version",
      "outputs": [
        {
          "internalType": "uint256",
          "name": "",
          "type": "uint256"
        }
      ],
      "stateMutability": "view",
      "type": "function"
    },
    {
      "inputs": [
        {
          "internalType": "uint256",
          "name": "",
          "type": "uint256"
        }
      ],
      "name": "zDAOFactories",
      "outputs": [
        {
          "internalType": "contract IZDAOFactory",
          "name": "",
          "type": "address"
        }
      ],
      "stateMutability": "view",
      "type": "function"
    },
    {
      "inputs": [
        {
          "internalType": "uint256",
          "name": "",
          "type": "uint256"
        }
      ],
      "name": "zDAONames",
      "outputs": [
        {
          "internalType": "bool",
          "name": "",
          "type": "bool"
        }
      ],
      "stateMutability": "view",
      "type": "function"
    },
    {
      "inputs": [
        {
          "internalType": "uint256",
          "name": "",
          "type": "uint256"
        }
      ],
      "name": "zDAORecords",
      "outputs": [
        {
          "internalType": "uint256",
          "name": "platformType",
          "type": "uint256"
        },
        {
          "internalType": "uint256",
          "name": "id",
          "type": "uint256"
        },
        {
          "internalType": "address",
          "name": "zDAOOwnedBy",
          "type": "address"
        },
        {
          "internalType": "address",
          "name": "gnosisSafe",
          "type": "address"
        },
        {
          "internalType": "string",
          "name": "name",
          "type": "string"
        },
        {
          "internalType": "bool",
          "name": "destroyed",
          "type": "bool"
        }
      ],
      "stateMutability": "view",
      "type": "function"
    },
    {
      "inputs": [
        {
          "internalType": "uint256",
          "name": "",
          "type": "uint256"
        }
      ],
      "name": "zNATozDAOId",
      "outputs": [
        {
          "internalType": "uint256",
          "name": "",
          "type": "uint256"
        }
      ],
      "stateMutability": "view",
      "type": "function"
    },
    {
      "inputs": [],
      "name": "znsHub",
      "outputs": [
        {
          "internalType": "contract IZNSHub",
          "name": "",
          "type": "address"
        }
      ],
      "stateMutability": "view",
      "type": "function"
    }
  ],
  "bytecode": "0x60a06040523060805234801561001457600080fd5b50608051613b0561004560003960008181610eaa01528181610f400152818161104801526110de0152613b056000f3fe6080604052600436106102345760003560e01c806372e3bc2711610138578063a217fddf116100b0578063d4c33af11161007f578063ea04580411610064578063ea045804146106df578063f2fde38b146106ff578063fa771c641461071f57600080fd5b8063d4c33af11461068e578063d547741f146106bf57600080fd5b8063a217fddf146105fe578063ac43791514610613578063b154d7641461064a578063ba636eef1461067857600080fd5b806390e4e3a81161010757806391d14854116100ec57806391d148541461057857806393b450f4146105be57806393d44179146105de57600080fd5b806390e4e3a81461052b578063919439671461055857600080fd5b806372e3bc27146104ad578063759e6a07146104cd578063826e8a2c146104ed5780638da5cb5b1461050d57600080fd5b80633659cfe6116101cb5780635c975abb1161019a57806366b1d8211161017f57806366b1d82114610458578063715018a6146104785780637200aff91461048d57600080fd5b80635c975abb1461040757806362acf0f51461041f57600080fd5b80633659cfe61461038d5780634f1ef286146103ad57806352d8cabe146103c057806354fd4d50146103f057600080fd5b8063246c88dc11610207578063246c88dc146102dd578063248a9ca31461030f5780632f2ff15d1461034d57806336568abe1461036d57600080fd5b806301ffc9a7146102395780630f5cc1a41461026e578063191c892c1461029b57806323d5ccda146102bd575b600080fd5b34801561024557600080fd5b50610259610254366004613308565b610736565b60405190151581526020015b60405180910390f35b34801561027a57600080fd5b5061028e61028936600461334a565b6107cf565b6040516102659190613468565b3480156102a757600080fd5b506102bb6102b63660046134e8565b610a42565b005b3480156102c957600080fd5b506102bb6102d836600461334a565b610bf8565b3480156102e957600080fd5b506102fd6102f83660046134e8565b610d1d565b60405161026596959493929190613501565b34801561031b57600080fd5b5061033f61032a3660046134e8565b60009081526097602052604090206001015490565b604051908152602001610265565b34801561035957600080fd5b506102bb610368366004613563565b610ded565b34801561037957600080fd5b506102bb610388366004613563565b610e13565b34801561039957600080fd5b506102bb6103a8366004613593565b610e9f565b6102bb6103bb3660046135c6565b61103d565b3480156103cc57600080fd5b506102596103db3660046134e8565b60009081526101936020526040902054151590565b3480156103fc57600080fd5b5061033f6101915481565b34801561041357600080fd5b5060fb5460ff16610259565b34801561042b57600080fd5b5061019254610440906001600160a01b031681565b6040516001600160a01b039091168152602001610265565b34801561046457600080fd5b506102bb6104733660046136d3565b6111c8565b34801561048457600080fd5b506102bb6113aa565b34801561049957600080fd5b506102bb6104a836600461334a565b611410565b3480156104b957600080fd5b506102bb6104c8366004613593565b611556565b3480156104d957600080fd5b506102bb6104e836600461334a565b611689565b3480156104f957600080fd5b506102bb61050836600461372f565b611807565b34801561051957600080fd5b506033546001600160a01b0316610440565b34801561053757600080fd5b5061054b6105463660046134e8565b611c62565b60405161026591906137c5565b34801561056457600080fd5b5061054b6105733660046134e8565b611e14565b34801561058457600080fd5b50610259610593366004613563565b60009182526097602090815260408084206001600160a01b0393909316845291905290205460ff1690565b3480156105ca57600080fd5b506102bb6105d936600461334a565b611fbc565b3480156105ea57600080fd5b506102bb6105f93660046137d8565b6120cc565b34801561060a57600080fd5b5061033f600081565b34801561061f57600080fd5b5061044061062e3660046134e8565b610196602052600090815260409020546001600160a01b031681565b34801561065657600080fd5b5061033f6106653660046134e8565b6101936020526000908152604090205481565b34801561068457600080fd5b506101975461033f565b34801561069a57600080fd5b506102596106a93660046134e8565b6101956020526000908152604090205460ff1681565b3480156106cb57600080fd5b506102bb6106da366004613563565b612179565b3480156106eb57600080fd5b506102bb6106fa366004613593565b61219f565b34801561070b57600080fd5b506102bb61071a366004613593565b612229565b34801561072b57600080fd5b5061033f6101975481565b60007fffffffff0000000000000000000000000000000000000000000000000000000082167f7965db0b0000000000000000000000000000000000000000000000000000000014806107c957507f01ffc9a7000000000000000000000000000000000000000000000000000000007fffffffff000000000000000000000000000000000000000000000000000000008316145b92915050565b6101975460609082906107e3908590613820565b8111156107fc5783610197546107f99190613820565b90505b8067ffffffffffffffff811115610815576108156135b0565b60405190808252806020026020018201604052801561089a57816020015b6108876040518060e00160405280600081526020016000815260200160006001600160a01b0316815260200160006001600160a01b0316815260200160608152602001600015158152602001606081525090565b8152602001906001900390816108335790505b50915060005b81811015610a3a5761019460006108b78388613837565b6108c2906001613837565b81526020808201929092526040908101600020815160e0810183528154815260018201549381019390935260028101546001600160a01b0390811692840192909252600381015490911660608301526004810180546080840191906109269061384f565b80601f01602080910402602001604051908101604052809291908181526020018280546109529061384f565b801561099f5780601f106109745761010080835404028352916020019161099f565b820191906000526020600020905b81548152906001019060200180831161098257829003601f168201915b5050509183525050600582015460ff1615156020808301919091526006830180546040805182850281018501825282815294019392830182828015610a0357602002820191906000526020600020905b8154815260200190600101908083116109ef575b505050505081525050838281518110610a1e57610a1e61388a565b602002602001018190525080610a33906138a0565b90506108a0565b505092915050565b80600081118015610a565750610197548111155b8015610a7557506000818152610194602052604090206005015460ff16155b610ab55760405162461bcd60e51b815260206004820152600c60248201526b496e76616c6964207a44414f60a01b60448201526064015b60405180910390fd5b6033546001600160a01b03163314610b0f5760405162461bcd60e51b815260206004820181905260248201527f4f776e61626c653a2063616c6c6572206973206e6f7420746865206f776e65726044820152606401610aac565b60008281526101946020908152604080832080548452610196909252909120546001600160a01b031680610b4557610b456138bb565b60058201805460ff191660011790556040517f4964d9a5000000000000000000000000000000000000000000000000000000008152600481018590526001600160a01b03821690634964d9a590602401600060405180830381600087803b158015610baf57600080fd5b505af1158015610bc3573d6000803e3d6000fd5b50506040518692507f62d16daa2b15fec62c2624e8279f21d75a1e6d3f8dd790378d3129985765cb4a9150600090a250505050565b81600081118015610c0c5750610197548111155b8015610c2b57506000818152610194602052604090206005015460ff16155b610c665760405162461bcd60e51b815260206004820152600c60248201526b496e76616c6964207a44414f60a01b6044820152606401610aac565b6033546001600160a01b03163314610cc05760405162461bcd60e51b815260206004820181905260248201527f4f776e61626c653a2063616c6c6572206973206e6f7420746865206f776e65726044820152606401610aac565b600083118015610cd35750610197548311155b610d0e5760405162461bcd60e51b815260206004820152600c60248201526b496e76616c6964207a44414f60a01b6044820152606401610aac565b610d188383612308565b505050565b6101946020526000908152604090208054600182015460028301546003840154600485018054949593946001600160a01b03938416949290931692610d619061384f565b80601f0160208091040260200160405190810160405280929190818152602001828054610d8d9061384f565b8015610dda5780601f10610daf57610100808354040283529160200191610dda565b820191906000526020600020905b815481529060010190602001808311610dbd57829003601f168201915b5050506005909301549192505060ff1686565b600082815260976020526040902060010154610e0981336123dd565b610d18838361245d565b6001600160a01b0381163314610e915760405162461bcd60e51b815260206004820152602f60248201527f416363657373436f6e74726f6c3a2063616e206f6e6c792072656e6f756e636560448201527f20726f6c657320666f722073656c6600000000000000000000000000000000006064820152608401610aac565b610e9b82826124ff565b5050565b306001600160a01b037f0000000000000000000000000000000000000000000000000000000000000000161415610f3e5760405162461bcd60e51b815260206004820152602c60248201527f46756e6374696f6e206d7573742062652063616c6c6564207468726f7567682060448201527f64656c656761746563616c6c00000000000000000000000000000000000000006064820152608401610aac565b7f00000000000000000000000000000000000000000000000000000000000000006001600160a01b0316610f997f360894a13ba1a3210667c828492db98dca3e2076cc3735a920a3ca505d382bbc546001600160a01b031690565b6001600160a01b0316146110155760405162461bcd60e51b815260206004820152602c60248201527f46756e6374696f6e206d7573742062652063616c6c6564207468726f7567682060448201527f6163746976652070726f787900000000000000000000000000000000000000006064820152608401610aac565b61101e81612582565b6040805160008082526020820190925261103a918391906125dc565b50565b306001600160a01b037f00000000000000000000000000000000000000000000000000000000000000001614156110dc5760405162461bcd60e51b815260206004820152602c60248201527f46756e6374696f6e206d7573742062652063616c6c6564207468726f7567682060448201527f64656c656761746563616c6c00000000000000000000000000000000000000006064820152608401610aac565b7f00000000000000000000000000000000000000000000000000000000000000006001600160a01b03166111377f360894a13ba1a3210667c828492db98dca3e2076cc3735a920a3ca505d382bbc546001600160a01b031690565b6001600160a01b0316146111b35760405162461bcd60e51b815260206004820152602c60248201527f46756e6374696f6e206d7573742062652063616c6c6564207468726f7567682060448201527f6163746976652070726f787900000000000000000000000000000000000000006064820152608401610aac565b6111bc82612582565b610e9b828260016125dc565b836000811180156111dc5750610197548111155b80156111fb57506000818152610194602052604090206005015460ff16155b6112365760405162461bcd60e51b815260206004820152600c60248201526b496e76616c6964207a44414f60a01b6044820152606401610aac565b6033546001600160a01b031633146112905760405162461bcd60e51b815260206004820181905260248201527f4f776e61626c653a2063616c6c6572206973206e6f7420746865206f776e65726044820152606401610aac565b60008581526101946020908152604080832080548452610196909252909120546001600160a01b0316806112c6576112c66138bb565b60038201805473ffffffffffffffffffffffffffffffffffffffff19166001600160a01b03888116919091179091556040517fc504f2530000000000000000000000000000000000000000000000000000000081529082169063c504f25390611339908a908a908a908a906004016138fc565b600060405180830381600087803b15801561135357600080fd5b505af1158015611367573d6000803e3d6000fd5b50506040516001600160a01b03891692508991507fea2e46044ff1582cc7517ef1f07a271fd2f121629994a9040a1d825f985eb73490600090a350505050505050565b6033546001600160a01b031633146114045760405162461bcd60e51b815260206004820181905260248201527f4f776e61626c653a2063616c6c6572206973206e6f7420746865206f776e65726044820152606401610aac565b61140e60006127a0565b565b816000811180156114245750610197548111155b801561144357506000818152610194602052604090206005015460ff16155b61147e5760405162461bcd60e51b815260206004820152600c60248201526b496e76616c6964207a44414f60a01b6044820152606401610aac565b610192546040516331a9108f60e11b815260048101849052839133916001600160a01b0390911690636352211e90602401602060405180830381865afa1580156114cc573d6000803e3d6000fd5b505050506040513d601f19601f820116820180604052508101906114f0919061392f565b6001600160a01b0316146115465760405162461bcd60e51b815260206004820152600f60248201527f4e6f742061207a4e41206f776e657200000000000000000000000000000000006044820152606401610aac565b6115508484612308565b50505050565b600054610100900460ff166115715760005460ff1615611575565b303b155b6115e75760405162461bcd60e51b815260206004820152602e60248201527f496e697469616c697a61626c653a20636f6e747261637420697320616c72656160448201527f647920696e697469616c697a65640000000000000000000000000000000000006064820152608401610aac565b600054610100900460ff1615801561162657600080547fffffffffffffffffffffffffffffffffffffffffffffffffffffffffffff0000166101011790555b61162e6127ff565b610192805473ffffffffffffffffffffffffffffffffffffffff19166001600160a01b0384161790558015610e9b57600080547fffffffffffffffffffffffffffffffffffffffffffffffffffffffffffff00ff1690555050565b610192546040516331a9108f60e11b815260048101839052829133916001600160a01b0390911690636352211e90602401602060405180830381865afa1580156116d7573d6000803e3d6000fd5b505050506040513d601f19601f820116820180604052508101906116fb919061392f565b6001600160a01b0316146117515760405162461bcd60e51b815260206004820152600f60248201527f4e6f742061207a4e41206f776e657200000000000000000000000000000000006044820152606401610aac565b6000831180156117645750610197548311155b61179f5760405162461bcd60e51b815260206004820152600c60248201526b496e76616c6964207a44414f60a01b6044820152606401610aac565b6000828152610193602052604090205483146117fd5760405162461bcd60e51b815260206004820152601260248201527f7a4e41206e6f74206173736f63696174656400000000000000000000000000006044820152606401610aac565b610d18838361289a565b610192546040516331a9108f60e11b815260048101889052879133916001600160a01b0390911690636352211e90602401602060405180830381865afa158015611855573d6000803e3d6000fd5b505050506040513d601f19601f82011682018060405250810190611879919061392f565b6001600160a01b0316146118cf5760405162461bcd60e51b815260206004820152600f60248201527f4e6f742061207a4e41206f776e657200000000000000000000000000000000006044820152606401610aac565b60008781526101936020526040902054801561192d5760405162461bcd60e51b815260206004820152601f60248201527f416c72656164792061646465642044414f20776974682073616d65207a4e41006044820152606401610aac565b6000868660405160200161194292919061394c565b60408051601f198184030181529181528151602092830120600081815261019590935291205490915060ff16156119e15760405162461bcd60e51b815260206004820152602160248201527f416c7265616479206164646564207a44414f20776974682073616d65206e616d60448201527f65000000000000000000000000000000000000000000000000000000000000006064820152608401610aac565b60008a815261019660205260409020546001600160a01b031680611a0757611a076138bb565b6101978054906000611a18836138a0565b9091555050610197546040517f3ca65bd60000000000000000000000000000000000000000000000000000000081526000916001600160a01b03841691633ca65bd691611a6f918f908f908d908d9060040161395c565b6020604051808303816000875af1158015611a8e573d6000803e3d6000fd5b505050506040513d601f19601f82011682018060405250810190611ab2919061392f565b60008481526101956020908152604091829020805460ff19166001179055815160e0810183528f8152610197548183015233818401526001600160a01b038e1660608201528251601f8d018390048302810183019093528b83529293506080830191908c908c9081908401838280828437600092018290525093855250505060208083018290526040805183815280830182529381019390935261019754825261019481529082902083518155838201516001820155918301516002830180546001600160a01b0392831673ffffffffffffffffffffffffffffffffffffffff1991821617909155606085015160038501805491909316911617905560808301518051611bc59260048501920190613235565b5060a082015160058201805460ff191691151591909117905560c08201518051611bf99160068401916020909101906132b9565b505061019754604080513381526001600160a01b0385811660208301528e1693508f917f4a2e5d9b329ae9a3b7cc17b1f28fb785b7af955392bd21dba851032bfde804fe910160405180910390a4611c54610197548c612308565b505050505050505050505050565b611cb66040518060e00160405280600081526020016000815260200160006001600160a01b0316815260200160006001600160a01b0316815260200160608152602001600015158152602001606081525090565b60008281526101936020908152604080832054808452610194835292819020815160e0810183528154815260018201549381019390935260028101546001600160a01b039081169284019290925260038101549091166060830152600481018054608084019190611d269061384f565b80601f0160208091040260200160405190810160405280929190818152602001828054611d529061384f565b8015611d9f5780601f10611d7457610100808354040283529160200191611d9f565b820191906000526020600020905b815481529060010190602001808311611d8257829003601f168201915b5050509183525050600582015460ff1615156020808301919091526006830180546040805182850281018501825282815294019392830182828015611e0357602002820191906000526020600020905b815481526020019060010190808311611def575b505050505081525050915050919050565b611e686040518060e00160405280600081526020016000815260200160006001600160a01b0316815260200160006001600160a01b0316815260200160608152602001600015158152602001606081525090565b60008281526101946020908152604091829020825160e0810184528154815260018201549281019290925260028101546001600160a01b039081169383019390935260038101549092166060820152600482018054919291608084019190611ecf9061384f565b80601f0160208091040260200160405190810160405280929190818152602001828054611efb9061384f565b8015611f485780601f10611f1d57610100808354040283529160200191611f48565b820191906000526020600020905b815481529060010190602001808311611f2b57829003601f168201915b5050509183525050600582015460ff1615156020808301919091526006830180546040805182850281018501825282815294019392830182828015611fac57602002820191906000526020600020905b815481526020019060010190808311611f98575b5050505050815250509050919050565b6033546001600160a01b031633146120165760405162461bcd60e51b815260206004820181905260248201527f4f776e61626c653a2063616c6c6572206973206e6f7420746865206f776e65726044820152606401610aac565b6000821180156120295750610197548211155b6120645760405162461bcd60e51b815260206004820152600c60248201526b496e76616c6964207a44414f60a01b6044820152606401610aac565b6000818152610193602052604090205482146120c25760405162461bcd60e51b815260206004820152601260248201527f7a4e41206e6f74206173736f63696174656400000000000000000000000000006044820152606401610aac565b610e9b828261289a565b6033546001600160a01b031633146121265760405162461bcd60e51b815260206004820181905260248201527f4f776e61626c653a2063616c6c6572206973206e6f7420746865206f776e65726044820152606401610aac565b600082600181111561213a5761213a613996565b600090815261019660205260409020805473ffffffffffffffffffffffffffffffffffffffff19166001600160a01b0393909316929092179091555050565b60008281526097602052604090206001015461219581336123dd565b610d1883836124ff565b6033546001600160a01b031633146121f95760405162461bcd60e51b815260206004820181905260248201527f4f776e61626c653a2063616c6c6572206973206e6f7420746865206f776e65726044820152606401610aac565b610192805473ffffffffffffffffffffffffffffffffffffffff19166001600160a01b0392909216919091179055565b6033546001600160a01b031633146122835760405162461bcd60e51b815260206004820181905260248201527f4f776e61626c653a2063616c6c6572206973206e6f7420746865206f776e65726044820152606401610aac565b6001600160a01b0381166122ff5760405162461bcd60e51b815260206004820152602660248201527f4f776e61626c653a206e6577206f776e657220697320746865207a65726f206160448201527f64647265737300000000000000000000000000000000000000000000000000006064820152608401610aac565b61103a816127a0565b60008181526101936020526040902054828114156123685760405162461bcd60e51b815260206004820152601960248201527f7a4e4120616c7265616479206c696e6b656420746f2044414f000000000000006044820152606401610aac565b801561237857612378818361289a565b6000828152610193602090815260408083208690558583526101948252808320600601805460018101825590845291832090910184905551839185917fffdc17a33b6ff8f8f10d88a733ea9fb0db3faa0b4ec1cf8612f81ba96656cd919190a3505050565b60008281526097602090815260408083206001600160a01b038516845290915290205460ff16610e9b5761241b816001600160a01b031660146129a9565b6124268360206129a9565b6040516020016124379291906139ac565b60408051601f198184030181529082905262461bcd60e51b8252610aac91600401613a2d565b60008281526097602090815260408083206001600160a01b038516845290915290205460ff16610e9b5760008281526097602090815260408083206001600160a01b03851684529091529020805460ff191660011790556124bb3390565b6001600160a01b0316816001600160a01b0316837f2f8788117e7eff1d82e926ec794901d17c78024a50270940304540a733656f0d60405160405180910390a45050565b60008281526097602090815260408083206001600160a01b038516845290915290205460ff1615610e9b5760008281526097602090815260408083206001600160a01b0385168085529252808320805460ff1916905551339285917ff6391f5c32d9c69d2a47ea670b442974b53935d1edc7fd64eb21e047a839171b9190a45050565b6033546001600160a01b0316331461103a5760405162461bcd60e51b815260206004820181905260248201527f4f776e61626c653a2063616c6c6572206973206e6f7420746865206f776e65726044820152606401610aac565b600061260f7f360894a13ba1a3210667c828492db98dca3e2076cc3735a920a3ca505d382bbc546001600160a01b031690565b905061261a84612bd9565b6000835111806126275750815b15612638576126368484612c9b565b505b7f4910fdfa16fed3260ed0e7147f7cc6da11a60208b5b9406d12a635614ffd9143805460ff1661279957805460ff191660011781556040516001600160a01b03831660248201526126e590869060440160408051601f198184030181529190526020810180517bffffffffffffffffffffffffffffffffffffffffffffffffffffffff167f3659cfe600000000000000000000000000000000000000000000000000000000179052612c9b565b50805460ff191681557f360894a13ba1a3210667c828492db98dca3e2076cc3735a920a3ca505d382bbc546001600160a01b038381169116146127905760405162461bcd60e51b815260206004820152602f60248201527f45524331393637557067726164653a207570677261646520627265616b73206660448201527f75727468657220757067726164657300000000000000000000000000000000006064820152608401610aac565b61279985612d9d565b5050505050565b603380546001600160a01b0383811673ffffffffffffffffffffffffffffffffffffffff19831681179093556040519116919082907f8be0079c531659141344cd1fd0a4f28419497f9722a3daafe3b4186f6b6457e090600090a35050565b600054610100900460ff1661286a5760405162461bcd60e51b815260206004820152602b60248201527f496e697469616c697a61626c653a20636f6e7472616374206973206e6f74206960448201526a6e697469616c697a696e6760a81b6064820152608401610aac565b612872612ddd565b61287a612e58565b612882612edb565b61288a612f4e565b612892612fc9565b600161019155565b600082815261019460205260408120600681015490915b8181101561279957838360060182815481106128cf576128cf61388a565b9060005260206000200154141561299757600683016128ef600184613820565b815481106128ff576128ff61388a565b906000526020600020015483600601828154811061291f5761291f61388a565b6000918252602090912001556006830180548061293e5761293e613a40565b6000828152602080822083016000199081018390559092019092558582526101939052604080822082905551859187917ffa997975b6b7327afbe399fcdbc2861d51d0d52e5828cf7e1c8a98cd0cadb7ae9190a3612799565b806129a1816138a0565b9150506128b1565b606060006129b8836002613a56565b6129c3906002613837565b67ffffffffffffffff8111156129db576129db6135b0565b6040519080825280601f01601f191660200182016040528015612a05576020820181803683370190505b5090507f300000000000000000000000000000000000000000000000000000000000000081600081518110612a3c57612a3c61388a565b60200101907effffffffffffffffffffffffffffffffffffffffffffffffffffffffffffff1916908160001a9053507f780000000000000000000000000000000000000000000000000000000000000081600181518110612a9f57612a9f61388a565b60200101907effffffffffffffffffffffffffffffffffffffffffffffffffffffffffffff1916908160001a9053506000612adb846002613a56565b612ae6906001613837565b90505b6001811115612b83577f303132333435363738396162636465660000000000000000000000000000000085600f1660108110612b2757612b2761388a565b1a60f81b828281518110612b3d57612b3d61388a565b60200101907effffffffffffffffffffffffffffffffffffffffffffffffffffffffffffff1916908160001a90535060049490941c93612b7c81613a75565b9050612ae9565b508315612bd25760405162461bcd60e51b815260206004820181905260248201527f537472696e67733a20686578206c656e67746820696e73756666696369656e746044820152606401610aac565b9392505050565b803b612c4d5760405162461bcd60e51b815260206004820152602d60248201527f455243313936373a206e657720696d706c656d656e746174696f6e206973206e60448201527f6f74206120636f6e7472616374000000000000000000000000000000000000006064820152608401610aac565b7f360894a13ba1a3210667c828492db98dca3e2076cc3735a920a3ca505d382bbc805473ffffffffffffffffffffffffffffffffffffffff19166001600160a01b0392909216919091179055565b6060823b612d115760405162461bcd60e51b815260206004820152602660248201527f416464726573733a2064656c65676174652063616c6c20746f206e6f6e2d636f60448201527f6e747261637400000000000000000000000000000000000000000000000000006064820152608401610aac565b600080846001600160a01b031684604051612d2c9190613a8c565b600060405180830381855af49150503d8060008114612d67576040519150601f19603f3d011682016040523d82523d6000602084013e612d6c565b606091505b5091509150612d948282604051806060016040528060278152602001613aa960279139613034565b95945050505050565b612da681612bd9565b6040516001600160a01b038216907fbc7cd75a20ee27fd9adebab32041f755214dbc6bffa90cc0225b39da2e5c2d3b90600090a250565b600054610100900460ff16612e485760405162461bcd60e51b815260206004820152602b60248201527f496e697469616c697a61626c653a20636f6e7472616374206973206e6f74206960448201526a6e697469616c697a696e6760a81b6064820152608401610aac565b612e5061306d565b61140e6130d8565b600054610100900460ff16612ec35760405162461bcd60e51b815260206004820152602b60248201527f496e697469616c697a61626c653a20636f6e7472616374206973206e6f74206960448201526a6e697469616c697a696e6760a81b6064820152608401610aac565b612ecb61306d565b612ed361306d565b61140e61306d565b600054610100900460ff16612f465760405162461bcd60e51b815260206004820152602b60248201527f496e697469616c697a61626c653a20636f6e7472616374206973206e6f74206960448201526a6e697469616c697a696e6760a81b6064820152608401610aac565b61140e61314c565b600054610100900460ff16612fb95760405162461bcd60e51b815260206004820152602b60248201527f496e697469616c697a61626c653a20636f6e7472616374206973206e6f74206960448201526a6e697469616c697a696e6760a81b6064820152608401610aac565b612fc161306d565b61140e6131be565b600054610100900460ff16612ecb5760405162461bcd60e51b815260206004820152602b60248201527f496e697469616c697a61626c653a20636f6e7472616374206973206e6f74206960448201526a6e697469616c697a696e6760a81b6064820152608401610aac565b60608315613043575081612bd2565b8251156130535782518084602001fd5b8160405162461bcd60e51b8152600401610aac9190613a2d565b600054610100900460ff1661140e5760405162461bcd60e51b815260206004820152602b60248201527f496e697469616c697a61626c653a20636f6e7472616374206973206e6f74206960448201526a6e697469616c697a696e6760a81b6064820152608401610aac565b600054610100900460ff166131435760405162461bcd60e51b815260206004820152602b60248201527f496e697469616c697a61626c653a20636f6e7472616374206973206e6f74206960448201526a6e697469616c697a696e6760a81b6064820152608401610aac565b61140e336127a0565b600054610100900460ff166131b75760405162461bcd60e51b815260206004820152602b60248201527f496e697469616c697a61626c653a20636f6e7472616374206973206e6f74206960448201526a6e697469616c697a696e6760a81b6064820152608401610aac565b600160c955565b600054610100900460ff166132295760405162461bcd60e51b815260206004820152602b60248201527f496e697469616c697a61626c653a20636f6e7472616374206973206e6f74206960448201526a6e697469616c697a696e6760a81b6064820152608401610aac565b60fb805460ff19169055565b8280546132419061384f565b90600052602060002090601f01602090048101928261326357600085556132a9565b82601f1061327c57805160ff19168380011785556132a9565b828001600101855582156132a9579182015b828111156132a957825182559160200191906001019061328e565b506132b59291506132f3565b5090565b8280548282559060005260206000209081019282156132a957916020028201828111156132a957825182559160200191906001019061328e565b5b808211156132b557600081556001016132f4565b60006020828403121561331a57600080fd5b81357fffffffff0000000000000000000000000000000000000000000000000000000081168114612bd257600080fd5b6000806040838503121561335d57600080fd5b50508035926020909101359150565b60005b8381101561338757818101518382015260200161336f565b838111156115505750506000910152565b600081518084526133b081602086016020860161336c565b601f01601f19169290920160200192915050565b8051825260006020808301518185015260408301516001600160a01b0380821660408701528060608601511660608701525050608083015160e0608086015261341060e0860182613398565b60a08581015115159087015260c08086015187830391880191909152805180835290840192506000918401905b8083101561345d578351825292840192600192909201919084019061343d565b509695505050505050565b6000602080830181845280855180835260408601915060408160051b870101925083870160005b828110156134db577fffffffffffffffffffffffffffffffffffffffffffffffffffffffffffffffc08886030184526134c98583516133c4565b9450928501929085019060010161348f565b5092979650505050505050565b6000602082840312156134fa57600080fd5b5035919050565b86815285602082015260006001600160a01b03808716604084015280861660608401525060c0608083015261353960c0830185613398565b905082151560a0830152979650505050505050565b6001600160a01b038116811461103a57600080fd5b6000806040838503121561357657600080fd5b8235915060208301356135888161354e565b809150509250929050565b6000602082840312156135a557600080fd5b8135612bd28161354e565b634e487b7160e01b600052604160045260246000fd5b600080604083850312156135d957600080fd5b82356135e48161354e565b9150602083013567ffffffffffffffff8082111561360157600080fd5b818501915085601f83011261361557600080fd5b813581811115613627576136276135b0565b604051601f8201601f19908116603f0116810190838211818310171561364f5761364f6135b0565b8160405282815288602084870101111561366857600080fd5b8260208601602083013760006020848301015280955050505050509250929050565b60008083601f84011261369c57600080fd5b50813567ffffffffffffffff8111156136b457600080fd5b6020830191508360208285010111156136cc57600080fd5b9250929050565b600080600080606085870312156136e957600080fd5b8435935060208501356136fb8161354e565b9250604085013567ffffffffffffffff81111561371757600080fd5b6137238782880161368a565b95989497509550505050565b600080600080600080600060a0888a03121561374a57600080fd5b873596506020880135955060408801356137638161354e565b9450606088013567ffffffffffffffff8082111561378057600080fd5b61378c8b838c0161368a565b909650945060808a01359150808211156137a557600080fd5b506137b28a828b0161368a565b989b979a50959850939692959293505050565b602081526000612bd260208301846133c4565b600080604083850312156137eb57600080fd5b8235600281106137fa57600080fd5b915060208301356135888161354e565b634e487b7160e01b600052601160045260246000fd5b6000828210156138325761383261380a565b500390565b6000821982111561384a5761384a61380a565b500190565b600181811c9082168061386357607f821691505b6020821081141561388457634e487b7160e01b600052602260045260246000fd5b50919050565b634e487b7160e01b600052603260045260246000fd5b60006000198214156138b4576138b461380a565b5060010190565b634e487b7160e01b600052600160045260246000fd5b818352818160208501375060006020828401015260006020601f19601f840116840101905092915050565b8481526001600160a01b03841660208201526060604082015260006139256060830184866138d1565b9695505050505050565b60006020828403121561394157600080fd5b8151612bd28161354e565b8183823760009101908152919050565b8581528460208201526001600160a01b038416604082015260806060820152600061398b6080830184866138d1565b979650505050505050565b634e487b7160e01b600052602160045260246000fd5b7f416363657373436f6e74726f6c3a206163636f756e74200000000000000000008152600083516139e481601785016020880161336c565b7f206973206d697373696e6720726f6c65200000000000000000000000000000006017918401918201528351613a2181602884016020880161336c565b01602801949350505050565b602081526000612bd26020830184613398565b634e487b7160e01b600052603160045260246000fd5b6000816000190483118215151615613a7057613a7061380a565b500290565b600081613a8457613a8461380a565b506000190190565b60008251613a9e81846020870161336c565b919091019291505056fe416464726573733a206c6f772d6c6576656c2064656c65676174652063616c6c206661696c6564a2646970667358221220eb088b0d9cce532fe3c33a76413e98af04a60ebe19dcb802b15529a852d0e77964736f6c634300080b0033",
  "linkReferences": {},
  "deployedLinkReferences": {}
}